:108488004D756C74696368616E6E656C2041444318
:10849800205465737400525F566F6C746167653A57
:1084A80000475F414456616C75653A00545F41442A
:1084B80056616C75653A00455F566F6C7461676507
:0484C8003A00560020
:0A878F004203B800004203BA0000E4
:10523700900012EAF0A3EBF090000EEEF0A3EFF06F
:10524700A3ECF0A3EDF0900014E0FAA3E0FB9000CC
:105257001E74A5F0A37435F0127D2D90000EE0FEAC
:10526700A3E0FFA3E0FCA3E0FDA3E0FAA3E0FB902B
:10527700001E74A5F0A37435F01281FC90000FE0B6
:105287002401FF90000EE03400FE900011E024019D
:10529700FD900010E03400FC900015E024FEFB9028
:1052A7000014E034FFFA90001E7484F0A37431F008
:1052B700127D2D90000FE02401FF90000EE03400D6
:1052C700FE900011E02401FD900010E03400FC90F6
:1052D7000013E024FEFB900012E034FFFA90001E5A
:1052E7007484F0A37431F01281FC900012E0FEA3E5
:1052F700E0FF90000FE02FFF90000EE03ECF24FF6D
:10530700CF34FFFE900010E0FCA3E0FD900014E016
:10531700FAA3E0FB74FF90001EF0A3F0127D2D901E
:10532700000EE0FEA3E0FF900014E0FCA3E0FD9078
:105337000011E02DFD900010E03CCD24FFCD34FF9F
:10534700FC900012E0FAA3E0FB74FF90001EF0A3AC
:10535700F01281FC900012E0FEA3E0FF90000FE046
:105367002FFF90000EE03ECF24FECF34FFFE9000CB
:1053770011E02401FD900010E03400FC900015E0DE
:1053870024FEFB900014E034FFFA90001E74DEF058
:10539700A374FCF0127D2D90000FE02401FF900014
:1053A7000EE03400FE900014E0FCA3E0FD90001135
:1053B700E02DFD900010E03CCD24FECD34FFFC90A5
:1053C7000013E024FEFB900012E034FFFA90001E69
:1053D70074DEF0A374FCF01281FC90000FE024024D
:1053E700FF90000EE03400FEC006C007900011E0F9
:1053F7002402FD900010E03400FC900013E024FD2F
:10540700FB900012E034FFFA900014E0FEA3E024C2
:10541700FDFFEE34FF90001EF0A3EFF0900016E0C2
:10542700FFA3E0900020CFF0A3EFF0D007D0060253
:025437007FFEF6
:0A7DAE007B3C7A007C007F557E00CC
:087DB80090000EEEF0A3EFF0C5
:107DC000900348E0FFA3E09003B8CFF0A3EFF0905A
:107DD0000016E0FFA3E0900348CFF0A3EFF090007F
:107DE0000EE0FEA3E0FFC002C003900014E0FBA37E
:107DF000E0900024CBF0A3EBF0900018E0FBA3E0B0
:107E0000900026CBF0A3EBF090001AE0900028F051
:107E100090001BE0F9A3E0FAA3E0900029C9F0A3C9
:107E2000EAF0A3E9F0E4A3F0D003D0021265DE90FB
:0E7E300003B8E0FFA3E0900348CFF0A3EFF00B
:017E3E002221
:087ED0009002D5EEF0A3EFF0E3
:107ED800900348E0FFA3E09003BACFF0A3EFF0903F
:107EE80002DAE0FFA3E0900348CFF0A3EFF090029E
:107EF800D6E02404FF9002D5E03400FEC006C00797
:107F0800ED2403FDE43CFCC004C0059002DCE0FF66
:107F1800A3E09002CACFF0A3EFF09002DEE0900257
:107F2800CCF09002DFE0FCA3E0FDA3E0FEA3E0FFBD
:107F38009002CD122435E49002D1F0D005D004D0BF
:107F480007D006125FA09003BAE0FFA3E0900348B1
:057F5800CFF0A3EFF0E3
:017F5D002201
:10301B00E4900000F090034674F8F0A3E4F0900302
:10302B0041E0FFA3E0900014CFF0A3EFF0A37410E6
:10303B00F0A374FFF0A37484F0A37488F090033FA3
:10304B00E0FAA3E0FB7D0A7C007F0A7E0012746A23
:10305B009003467407F0A374E0F0900341E0FFA3E4
:10306B00E0900014CFF0A3EFF0A37410F0A374FF63
:10307B00F0A37484F0A3749EF090033FE0FAA3E0F6
:10308B00FB7D287C007F0A7E0012746A900341E06E
:10309B00FFA3E0900014CFF0A3EFF0A37410F0A304
:1030AB0074FFF0A37484F0A374A9F090033FE0FACB
:1030BB00A3E0FB7D507C007F0A7E0012746A9003B4
:1030CB0041E0FFA3E0900014CFF0A3EFF0A3741046
:1030DB00F0A374FFF0A37484F0A374B4F090033FD7
:1030EB00E0FAA3E0FB7D787C007F0A7E0012746A15
:1030FB00900341E0FFA3E0900014CFF0A3EFF0A307
:10310B007410F0A374FFF0A37484F0A374BFF09059
:10311B00033FE0FAA3E0FB7DA07C007F0A7E001258
:10312B00746A900341E0FFA3E0900014CFF0A3EF8B
:10313B00F0A37410F0A374FFF0A37484F0A374CA0B
:10314B00F090033FE0FAA3E0FB7D287C007F937EA9
:10315B000012746A900341E0FFA3E0900014CFF0DB
:10316B00A3EFF0A37410F0A374FFF0A37484F0A387
:10317B0074CAF090033FE0FAA3E0FB7DA07C007FD4
:10318B00937E0012746AE4900000F0900000E0FF60
:10319B00C39404502EEF75F028A42428FDE435F0D9
:1031AB00FC900014E4F0A37414F074FFA3F0A3F0EC
:1031BB007B3C7A007F557E00125237900000E00472
:1031CB00F080C8900000E004F0E075F00A84E5F0B0
:1031DB006003023462B2B17F941287A9900001EEB2
:1031EB00F0A3EFF07FD41287A9900005EEF0A3EFC8
:1031FB00F07FA41287A9900003EEF0A3EFF07FE419
:10320B001287A9900007EEF0A3EFF0900001E0FC0D
:10321B00A3E0FDE4121DC4E4FBFA79A07840121C74
:10322B0019E4FBFA79807845121D22E4FBFA792028
:10323B007841121C19121DFD900001EEF0A3EFF066
:10324B00900001E0FAA3E0FB7C007D0AFFAE0212C6
:10325B0021B4EF2430900009F0A3742EF07C007D94
:10326B000AAF03AE021221B4ED2430A3F0E4A3F0B5
:10327B00900014F0A37414F074FFA3F0A3F0A3E474
:10328B00F0A3741FF0A37410F0A37401F0A37400E7
:10329B00F0A37409F07D28127DAE900005E0FAA32F
:1032AB00E0FB7C037DE8FFAE021221B4EF243090EB
:1032BB000009F07C037DE8AF03AE021221B4AA042F
:1032CB00AB057D647C00AF03AE021221B4EF24305A
:1032DB00A3F07D647C00AF03AE021221B4AA04AB51
:1032EB00057D0A7C00AF03AE021221B4EF2430A39C
:1032FB00F07D0A7C00AF03AE021221B4ED2430A3A3
:10330B00F0E4A3F0900014F0A37414F074FFA3F096
:10331B00A3F0A3E4F0A3741FF0A37410F0A3740143
:10332B00F0A37400F0A37409F07D50127DAE9000F1
:10333B0003E0FAA3E0FB7C037DE8FFAE021221B4AD
:10334B00EF2430900009F07C037DE8AF03AE02124E
:10335B0021B4AA04AB057D647C00AF03AE0212213D
:10336B00B4EF2430A3F07D647C00AF03AE021221D6
:10337B00B4AA04AB057D0A7C00AF03AE021221B4E4
:10338B00EF2430A3F07D0A7C00AF03AE021221B410
:10339B00ED2430A3F0E4A3F0900014F0A37414F028
:1033AB0074FFA3F0A3F0A3E4F0A3741FF0A37410B5
:1033BB00F0A37401F0A37400F0A37409F07B3C7AC2
:1033CB00007D78127DB2900007E0FCA3E0FDE412D3
:1033DB001DC4E4FBFA79A07840121C19E4FBFA79BE
:1033EB00807845121D22E4FBFA79207841121C19D2
:1033FB00121DFD900007EEF0A3EFF0900007E0FA2E
:10340B00A3E0FB7C007D0AFFAE021221B4EF243057
:10341B00A3F0A3742EF07C007D0AAF03AE02122141
:10342B00B4ED2430A3F0E4A3F0900014F0A37414D3
:10343B00F074FFA3F0A3F0A3E4F0A3741FF0A37444
:10344B0010F0A37401F0A37400F0A37409F07B3C9B
:10345B007A007DA0127DB27F0A7E0012873702317F
:01346B00CE92
:0B881D001287C212496612301B80FE59
:0B882800EF1FAC0670011E4C70F62222
:0E880100EF1FAC0670011E4C60030080F322D6
:10873700D3EF9400EE940040147D6E7C00ED1D7025
:0D874700011CED4C70F7EF1F70E61E80E383
:018754002202
:058799004200AB0000EE
:1087C200759850758920758780758DFA858D8BD245
:0687D200AFD28ED2992205
:06883E00EF24FF92AC22C2
:0E880F00C2ACC2998F993099FDC299D2AC22A9
:10863E009003C0EBF0A3EAF0A3E9F09003C0E0FBD7
:10864E00A3E0FAA3E0F9122128FF601612880F7F2B
:10865E00057E001288289003C1E475F00112223FB6
:03866E0080D9228E
:03002300028074E4
:10807400C0E0C083C082C0D075D000C004C005C0B9
:0180840007F4
:10808500309864C298AF999000ABE0FCEC20E757BC
:1080950030E60FEF640A9000AB60028046E0448052
:1080A500800AEFB40D0C9000ABE04440F0A3E0F083
:1080B50080359000ABE0543FFCA3E02479F5827451
:1080C500003CF583EFF09000ACE004F07006900002
:1080D500ABE004F0D39000ACE094319000ABE094B9
:0780E500004004E4F0A3F0E9
:0F80EC00D007D005D004D0D0D082D083D0E032DE
:10002600204C43442049443A25780D0A000000003C
:10003600000000000000000000000000003F40003B
:1000460000000000000000300040003000400000CA
:100056000009000BC03D000BC03D00090018C0247C
:10006600407FE0224031800000180024C01B000DB4
:10007600803240018003801C4027401C80074000DE
:1000860040100060000000000000000000000000BA
:100096000000001F80204040200000402020401F1C
:1000A6008000000000090006001F8006000900000D
:1000B60000040004003F800400040000000010005B
:1000C60060000000000000000004000400040004BA
:1000D60000040000000000004000000000000000D6
:1000E60000002001C006003800400000001F8020EC
:1000F60040204020401F800000000010403FC0000C
:10010600400000000018C021402240244018400052
:100116000010802040244024401B80000002000D77
:100126000011003FC0014000003C802440244024D0
:1001360040238000001F8024402440344003800078
:10014600003000200027C03800200000001B80245B
:1001560040244024401B8000001C0022C022402274
:10016600401F800000000000000840000000000062
:100176000000000000046000000000000000000411
:10018600000A00110020804040090009000900090A
:10019600000900000000004040208011000A000411
:1001A600001800200023402400180000001F8020B3
:1001B60040274029401F400000004007C039000F7B
:1001C6000001C0004020403FC0244024401B800066
:1001D600001F802040204020403080000020403F0B
:1001E600C0204020401F80000020403FC024402EF9
:1001F6004030C0000020403FC024402E00300000A8
:10020600000F001080204022403380020020403F33
:10021600C0040004003FC02040204020403FC020D2
:1002260040204000000060202020203FC020002009
:100236000020403FC024400B0030C0204020403FFB
:10024600C020400040004000C03FC03C0003C03C0E
:10025600003FC0000020403FC00C4023003FC020AC
:10026600001F802040204020401F80000020403F8B
:10027600C024402400180000001F80214021402097
:10028600E01FA0000020403FC02440260019C00007
:100296004018C02440244022403180000030002015
:1002A600403FC020403000000020003F800040005A
:1002B600403F80200020003E0001C007003800209B
:1002C60000380007C03C0007C03800000020403955
:1002D600C0060039C0204000002000384007C03862
:1002E6004020000000304021C02640384020C00099
:1002F60000000000007FE040204020000000007069
:10030600000C000380004000000000402040207FD9
:10031600E000000000000020004000200000000077
:100326000000100010001000100010001000000067
:1003360000400000000000000000000280054005AB
:100346004003C0004020003FC0044004400380003A
:100356000000000380044004400640000000000343
:1003660080044024403FC000400000038005400553
:100376004003400000000004401FC02440244020E9
:1003860000000002E0055005500650042020403FC2
:10039600C00440040003C000400000044027C00021
:1003A600400000000000100010041027E0000000CC
:1003B6000020403FC00140070004C0044020402008
:1003C600403FC000400040000007C0040007C004D2
:1003D6000003C00000044007C00440040003C0003E
:1003E600400000038004400440038000000410071E
:1003F600F004500440038000000000038004400421
:100406005007F00010044007C0024004000400003A
:1004160000000006400540054004C000000000043E
:10042600001F8004400040000004000780004004D4
:100436004007C000400400070004C0018006000415
:1004460000060001C0070001C006000000044006C7
:10045600C0010006C0044000000410071004E001BB
:1004660080060004000000044005C0064004400069
:10047600000000000004007BE040200000000000B7
:10048600000000FFF000000000000040207BE004B8
:1004960000000000004000800040002000200040D6
:1004A6000000000000000000000000000000000046
:1004B600000000000000001FCC000C00000000003F
:1004C60000000008003000600008003000600000F6
:1004D60000022003FC1E20022003FC1E2002200036
:1004E6000000000E1811043FFF10840C7800000075
:1004F600000F0010840F3800C007781884007800B9
:100506000000780F8410C411240E9800E4008400C3
:1005160008080068007000000000000000000000ED
:100526000000000000000007E01818200440020048
:1005360000000040022004181807E0000000000038
:10054600000240024001800FF0018002400240009C
:10055600000080008000800FF8008000800080008E
:10056600000001000D000E00000000000000000069
:100576000000000080008000800080008000800075
:10058600800000000C000C000000000000000000CD
:100596000000000006001800600180060018002018
:1005A60000000007F0080810041004080807F0000F
:1005B600000000080408041FFC00040004000000FA
:1005C6000000000E0C10141024104411840E0C00B0
:1005D6000000000C1810041104110412880C70009D
:1005E60000000000E00320042408241FFC0024006F
:1005F6000000001F98108411041104108810700068
:1006060000000007F0088811041104188800700023
:100616000000001C00100010FC13001C001000005D
:100626000000000E3811441084108411440E380066
:100636000000000700088C10441044088807F000EA
:1006460000000000000000030C030C000000000086
:10065600000000000000010106000000000000008C
:100666000000000080014002200410080810040069
:100676000002200220022002200220022002200086
:100686000000001004080804100220014000800049
:100696000000000E001200100C106C10800F0000FD
:1006A6000003E00C1813E4142417C4082807D0002C
:1006B600000004003C03C41C40074000E4001C008A
:1006C6000410041FFC1104110411040E88007000AC
:1006D6000003E00C1810041004100410081C10008D
:1006E6000010041FFC100410041004080807F00092
:1006F6000010041FFC1104110417C410040818008C
:100706000010041FFC1104110017C010000800009F
:100716000003E00C181004100410441C780040007C
:100726000010041FFC10840080008010841FFC1041
:10073600040000100410041FFC1004100400000044
:100746000000030001100110011FFE100010000040
:100756000010041FFC110403801464181C1004000C
:100766000010041FFC1004000400040004000C0028
:100776000010041FFC1F0000FC1F001FFC100400DB
:100786000010041FFC0C04030000E010181FFC10EE
:100796000007F00808100410041004080807F00009
:1007A6000010041FFC10841080108010800F0000C1
:1007B6000007F0081810241024101C080A07F2007D
:1007C6000010041FFC1104110011C011300E0C00A2
:1007D6000400000E1C11041084108410441C380000
:1007E600001800100010041FFC1004100018000070
:1007F6000010001FF810040004000410041FF81075
:100806000010001E0011E0001C007013801C001078
:10081600001FC0103C00E01F0000E0103C1FC0009D
:10082600001004180C163401C001C01634180C1040
:100836000410001C00130400FC13041C001000002C
:10084600000804101C1064108413041C0410180003
:10085600000000000000007FFE400240024002004F
:1008660000000030000C0003800060001C00030044
:100876000000004002400240027FFE00000000002F
:100886000000000000200040004000400020000062
:10089600000001000100010001000100010001004B
:1008A60001000040004000200000000000000000A1
:1008B6000000000098012401440144014400FC00AA
:1008C6000410001FFC008801040104008800700069
:1008D6000000000070008801040104010400880083
:1008E600000000007000880104010411081FFC00CC
:1008F60004000000F8014401440144014400C8001A
:10090600000000010401040FFC1104110411001879
:1009160000000000D601290129012901C9010600AC
:100926000010041FFC008401000100010400FC000B
:100936000400000104190419FC000400040000006E
:10094600000000000300010101190119FE0000006A
:100956000010041FFC0024004001B4010C01040037
:10096600000000100410041FFC0004000400000036
:1009760000010401FC0104010001FC010401000066
:10098600FC010401FC008401000100010400FC00DC
:1009960004000000F8010401040104010400F80049
:1009A60000010101FF0085010401040088007000B8
:1009B6000000000070008801040104010501FF0029
:1009C600010104010401FC0084010401000180000E
:1009D60000000000CC012401240124012401980018
:1009E6000000000100010007F801040104000000F6
:1009F60000010001F8000400040004010801FC00E5
:100A060004010001800170000C00100160018001EA
:100A16000001F0010C003001C00030010C01F001B2
:100A26000000000104018C00740170018C010400B7
:100A360000010101810171000E00180160018001B1
:100A46000000000184010C013401440184010C0002
:100A560000000000000000000001003EFC400240D3
:100A6600020000000000000000FFFF000000000080
:100A7600000000400240023EFC01000000000000B1
:100A86000000006000800080004000400020002040
:100A96000000000000000000000000000000000050
:100AA6000000000000000000000000000000000040
:100AB6000000000000000000000000000000000030
:100AC600000000000F80380FFE380F80380000004D
:100AD600000000000000000000000000000000010F
:100AE60000000600000C000038000031000006007F
:100AF600000C00003800003000000000000000007C
:100B06000061800067F807F980006180006180005D
:100B160061800061800067F807F98000618000004D
:100B26000000000000000001C0E003E0F00630080D
:100B36000418081FFFFE040E080787F00381E00073
:100B4600000000000001F000060C00040408060C7A
:100B56007001F9C0000E00003BE000EC1807080821
:100B6600040C180003E00000000001E00007F00399
:100B7600F818041C0804170807E1D003C0E0002396
:100B8600B0003C0800200800001000000000000033
:100B96000100003100003200001C000000000000CF
:100BA600000000000000000000000000000000003F
:100BB600000000000000000000000000000000002F
:100BC600007F0001FFC00780F00C00181000042011
:100BD60000020000000000002000021000040C00CB
:100BE600180780F001FFC0007F0000000000000031
:100BF60000000000000000000000000000420000AD
:100C06006600006600003C0000180003FFC00018E4
:100C160000003C0000660000660000420000000084
:100C26000008000008000008000008000008000195
:100C3600FFC00008000008000008000008000008C7
:100C46000000000000000100003100003200001C1E
:100C5600000000000000000000000000000000008E
:100C66000000000000000000000800000800000866
:100C76000000080000080000080000080000080046
:100C8600000800000800000000000000000000004E
:100C960000380000380000380000000000000000A6
:100CA600000000000000000000000000000000003E
:100CB60000000600001C000070000180000E00000D
:100CC600380000C0000700001C00003000000000D3
:100CD60000000000007F8001FFE00380700600181E
:100CE60004000804000806001803807001FFE000F5
:100CF6007F800000000000000000000100080100E5
:100D06000801000803FFF807FFF8000008000008C4
:100D160000000800000000000000000001C03802CA
:100D2600C058040098040118040218040418061C8C
:100D36001803F81801E0F8000000000000000000A9
:100D460001C0E003C0F0040008040808040808060F
:100D5600180803F41801E7F00001E00000000000A5
:100D660000000000000300000D00001100006100FB
:100D760000810803010807FFF80FFFF800010800CB
:100D860001080000000000000000E007FCD0060893
:100D960008061008061008061008061838060FF090
:100DA6000607C0000000000000000000003F8001B0
:100DB600FFE0038430020818041008041008041029
:100DC60008071810030FF00007C00000000000001D
:100DD60000000003C0000700000600000600F80639
:100DE60007F806180006E0000700000600000000ED
:100DF6000000000001E1E003F7F0063410041808D3
:100E0600041808040C08040C0806161803F3F0016D
:100E1600C1E000000000000000F80003FC300306FB
:100E2600380402080402080402080404100308F047
:100E360001FFC0007F00000000000000000000006D
:100E460000000000000000000070380070380070DC
:100E56003800000000000000000000000000000054
:100E660000000000000000000000000000301A0032
:100E7600301C000000000000000000000000000020
:100E8600000000000000000008000014000022001E
:100E9600004100008080010040020020040010088C
:100EA60000080000000000000021000021000021D1
:100EB6000000210000210000210000210000210087
:100EC60000210000210000000000000000000008D2
:100ED600000804001002002001004000808000414C
:100EE60000002200001400000800000000000000BE
:100EF60003C00004C000040000080038080F3808CA
:100F060008380810000C300007E00003C00000009D
:100F160000000000003F8000FFE0038070020F1019
:100F260006708804C088048308047F8802C0900382
:100F3600012000FE400000080000180001F8003EF5
:100F46000801C20007020007E20000FE00001FC8F9
:100F56000001F800003800000804000807FFF80741
:100F6600FFF8040808040808040808040808061816
:100F76000803F41801E7F00001E00000000000009B
:100F8600003F8001FFE0038070020018040008049F
:100F960000080400080400100600200780C00000B6
:100FA6000004000807FFF807FFF80400080400081B
:100FB60004000804001802001003807001FFE0001E
:100FC6007F8000000004000807FFF807FFF8040808
:100FD60008040808040808040808043E0804000871
:100FE60006001801006000000004000807FFF8076B
:100FF600FFF8040808040800040800040800043E7A
:10100600000600000600000180000000000000004D
:10101600003F8001FFE0038070060018040008040A
:1010260002080402080203F00783F000020000022F
:101036000004000807FFF807FFF804080800080086
:1010460000080000080000080004080807FFF80769
:10105600FFF8040008000000000000040008040077
:101066000804000807FFF807FFF804000804000852
:101076000400080000000000000000000000060058
:10108600000700000104000104000104000307FF3B
:10109600FE07FFFC04000004000004000004000832
:1010A60007FFF807FFF8040C08001800003E0004CC
:1010B600C7800503C80600F80400380400180000BD
:1010C6000804000807FFF807FFF8040008000008F6
:1010D60000000800000800000800000800001800D2
:1010E600006000000004000807FFF807800807FCFE
:1010F60000007FC00003F80007C0007800078008E2
:1011060007FFF807FFF804000804000807FFF807C0
:10111600000803C00000E000003800001E000007C1
:10112600000001C00400F007FFF804000000000002
:10113600007F8001FFE003807006001804000804A9
:10114600000806001803003001FFE0007F80000061
:101156000004000807FFF807FFF804040804040069
:10116600040400040400040400060C0003F8000153
:10117600F000000000000000007F8001FFE0038017
:10118600700600880400880400C806003C03003E80
:1011960001FFE6007F8400000004000807FFF8074F
:1011A600FFF8040808040800040C00040F00040BF0
:1011B600C00610F003F03801E00800000800000047
:1011C60001E0F803F030063010041808041808048B
:1011D6000C08040C080206180207F00781E000005C
:1011E600000180000600000400000400000400085E
:1011F60007FFF807FFF804000804000004000006D3
:10120600000001800004000007FFE007FFF0040073
:101216001800000800000800000800000800000888
:1012260004001007FFE004000004000006000007A9
:10123600E00007FE00041FE00001F800003800018E
:10124600E0043E0007C000060000040000040000A1
:1012560007E00007FFC0041FF80007C007F80007F3
:10126600FF80043FF80007C004F8000700000400F0
:101276000000000004000806001807C07805F1C841
:10128600003E00001F800463E80780F8060018048B
:10129600000800000004000006000007800007E0C8
:1012A60008047C08001FF80007F800180804E00886
:1012B6000700000600000400000000000100080608
:1012C60000380400F80403E8040F08047C0805F05D
:1012D6000807C008070018040060000000000000AE
:1012E6000000000000000000000000003FFFFE209C
:1012F600000220000220000220000220000200005E
:101306000000000000000008000007000000C00008
:101316000038000006000001C000003000000E008A
:101326000001000000000000000000200002200074
:10133600022000022000022000023FFFFE00000003
:101346000000000000000000000000000000000097
:1013560000000800001000003000002000003000EF
:10136600001000000800000000000000000000015E
:101376000000010000010000010000010000010062
:101386000001000001000001000001000001000052
:101396000100000000000000000020000020000006
:1013A6001000001000000000000000000000000017
:1013B60000000000000000000000F00019F8001B0B
:1013C60018002208002608002408002410003FF810
:1013D600001FF800000800001800000004000007C5
:1013E600FFF80FFFF0001818001008002008002072
:1013F60008003018001FF0000FC0000000000000B9
:101406000007C0001FF00018300020080020080068
:101416002008003C08001C100000600000000000CE
:10142600000000000007C0001FF000381800200868
:1014360000200800200804101007FFF80FFFF00036
:1014460000100000000000000000000007C0001FA0
:10145600F00012300022180022080022080032088C
:10146600001E10000E2000000000000000200000FA
:10147600200800200801FFF803FFF80620080420D2
:1014860008042008072000030000000000000000F8
:1014960000000E000E6E001FF30031B10020B100F7
:1014A60020B1003191001F13002E1E00200E0030C7
:1014B6000000000004000807FFF80FFFF8001008FE
:1014C600002000002000002008003FF8001FF80060
:1014D60000080000000000000000000020080020B6
:1014E60008002008063FF8063FF80000080000083C
:1014F60000000800000000000000000000000000DE
:101506000003000003002001002001002003063F25
:10151600FE063FFC00000000000000000000000086
:1015260004000807FFF80FFFF80001880003000019
:101536002FC00038F80020380020080000080000FE
:101546000000000000000004000804000804000871
:1015560007FFF80FFFF80000080000080000080069
:101566000000000000002008003FF8003FF80010CF
:1015760008002000003FF8003FF800100800200097
:10158600003FF8003FF800000800000000200800B7
:101596003FF8003FF800100800100000200000206F
:1015A60008003FF8001FF8000008000000000000D7
:1015B6000007C0000FF000183000300800200800B7
:1015C6002008003008001830000FF00007C00000A7
:1015D60000000000002001003FFF003FFF00101147
:1015E600002009002008002008003038001FF00005
:1015F6000FC00000000000000007C0001FF0003808
:1016060018002008002008002009001011001FFF04
:10161600003FFF0000010000000020080020080035
:101626002008003FF8003FF80008080010080020D6
:10163600080020000030000030000000000000001C
:10164600000000000C78001E180033080023080074
:1016560021080021880021980030F0003860000041
:101666000000000000200000200000200000FFF025
:1016760003FFF800200800200800200800003000C2
:101686000000000000000000002000003FF0007F86
:10169600F8000018000008000008002010003FF8BD
:1016A600007FF00000100000000000000020000095
:1016B6003000003C00003F800023F000007800006E
:1016C60070002380003C0000300000200000200055
:1016D600003C00003FE00023F80000E00027000087
:1016E6003E00003FE00021F80001E0003E0000203F
:1016F60000000000002008002008003838003E687E
:101706000027800003C8002CF80038380020180095
:101716002008000000000000002000003003003C0C
:1017260001003F830023EC000070002380003C0092
:101736000020000020000000000000000000000063
:1017460038080020380020F80023E8002F88003EE3
:101756000800380800201800007000000000000093
:10176600000000000000000000000000000800006B
:1017760014001FF7FC3000062000020000000000E5
:101786000000000000000000000000000000000053
:10179600000000FFFFFF0000000000000000000046
:1017A60000000000000000000000002000023000E1
:1017B600061FF7FC001400000800000000000000EF
:1017C600000000000000000000000000180000609B
:1017D600000040000040000020000010000008004B
:1017E600000400000400000C0000100000C6D50034
:1017F60000000000E0380000783C00003C78000063
:101806003C70C0001CE1E01FFFFFF0001CE3000E6F
:101816001CE7C0079CE78003DCEF0003DCEE000159
:10182600DCFC60009CF9F07FFFFFF800000000017F
:10183600C00E0001FFFF0001C00E0001C00E000136
:10184600C00E0001FFFE0001C00E0001C00E000127
:10185600C00E0001FFFE0001C00E0001C00E000018
:10186600000000D6D000000000000700000007803E
:101876000000070000000700000007000000070145
:10188600801FFFFFE01FFFFFE01E0701C01E0701CC
:10189600C01E0701C01E0701C01E0701C01E0701AA
:1018A600C01FFFFFC01FFFFFC01E0701C01C0701AE
:1018B6008000070000000700000007000000070086
:1018C60000000700000007000000070000000700F6
:1018D600000007000000000000BFC6000000000076
:1018E600000780003C07C001FC07803FE007803905
:1018F600C1C78001C0E78001C0F78001C0778001C1
:10190600DE77807FFE078001C0078003C3C78003A0
:10191600E1E78003F8F78007FCE7F00FDE67F80FD2
:10192600DC07F81FC0FF801DDFE78039CC07807118
:10193600C0078061C0078001C0078001C007800121
:10194600E0078001E0078001C0070000000000BC3E
:10195600BC000000000380300003C03C0003C03C14
:101966000003C0380003C0380003C0386003F838ED
:10197600F07FFFFFF003C0380003C0380003C03813
:101986000003DC39C003FFFFE007E383C03FC183E8
:10199600C07FC1C3803BC1C78003C0EF0003C0EF57
:1019A6000003C07E0003C07C0003C07C0003C0FEB1
:1019B600003BC3EF803F8787F80FBF03F807780027
:1019C600E000000000C4EA0000000000C0000001C2
:1019D600F0000001E0000003C000C003C001E00702
:1019E600FFFFF00703C0000E03C0001E03C0003C4B
:1019F60003C3007303C78063FFFFC00383C00003F4
:101A060083C0000383C0000383C0000383C0600358
:101A160083C0F07FFFFFF80003C0000003C0000092
:101A260003C0000003C0000003C0000003C00000A4
:101A360003C0000003C00000000000D4C200000084
:101A4600000000000000E0070000FFFF8000F00734
:101A56008000F0070000F0070000F0070000F00724
:101A66000000FFFF0000FFFF0000F0070000F00786
:101A76000000F0070000F0070000E0070000FFFF8D
:101A86000000E0070000E0070000E0070001E007B3
:101A96000001C0070001C00700038007000780F7A8
:101AA600000F007F001E001F0038001C0000000011
:101AB60000C8D5000000000000000003000300037A
:101AC600FFFF8003FFFF80038007000380070003FA
:101AD60080070003800700038007000380070003D8
:101AE6008007000380070003FFFF00038007000351
:101AF60080070003800700038007000380070003B8
:101B060080070003800700038007000380070003A7
:101B1600FFFF000380070003800700038007000320
:101B260000000000000000D0C70000000000000018
:101B3600000380070003FFFF800380070003800780
:101B4600000380070003FFFF0003800700038007F0
:101B56000003FFFF0003FFFF00038707000387C0A2
:101B66000003C7810003C7838007FFFFC007078004
:101B7600000F0780001E0786001C078F003BFFFF33
:101B8600807007800000078000000780E000078162
:101B9600F07FFFFFF80000000000000000C6DA003A
:101BA60000000006000000079E0000079E7FF00769
:101BB6009E7FF0079FF8F03FFFF8F01F9E78F00732
:101BC6009E78F0079E78F007FE7FF0079E78F00774
:101BD6009E78F0079E70F007FE70F0079E70F00783
:101BE6009E7FF0079FFFF03FFFF0F0119070F0032B
:101BF600DCF0F003DEE0F0078FE0F00F0FE0F00E10
:101C060007C0F01C038FF0380F03E0201C01C00052
:031C1600000000CB
:0A879E00420346FFFF4203480000BB
:10000300E4FDFCC3ED9FEC9E5014E4FBFA0BBB0034
:0E001300010AEBF44A70F60DBD00010C80E509
:0100210022BC
:08869F007E001286A7E4FFFE35
:0486A700AD07AC0669
:1086AB00ECFFAE05D2A5C2A7D2B2C2A68F90C2A5CF
:0C86BB00D2A5AF068F90C2A5D2A5D2A711
:0186C7002290
:0D8671007E001286A7900071E0FEA3E0FFDE
:04867E00AD07AC0692
:10868200ECFFAE05D2A5C2A7D2B2D2A68F90C2A5E8
:0C869200D2A5AF068F90C2A5D2A5D2A73A
:01869E0022B9
:0886C8009003A5E0FEA3E0FF12
:0486D000AD07AC0640
:1086D400ECFFAE05D2A5C2A7D2B2D2A68F90C2A596
:0C86E400D2A5AF068F90C2A5D2A5D2A7E8
:0186F0002267
:0687ED007C107F037E00FA
:0E87F300AB05AA041286A7AE02AF0302867E73
:108718007590FF7580FFC2A7D2A6C2B200AF90EFD6
:0E872800FED2B2C2B200AD90EDFFD2B2D2A727
:018736002220
:10835500EF7026FD7C057F01FE1287F37D301287C5
:10836500ED900341E4F0A374DCF090033FE4F0A347
:1083750074B0F0E4900345F0227D007C047F017E1B
:10838500001287F37D381287ED900341E4F0A37462
:10839500B0F090033FE4F0A374DCF0900345740162
:0283A500F022C4
:10496600D2B37F647E00128737C2B37F647E0012A3
:104976008737D2B37F647E00128737E4FFFE128644
:10498600A7128718900343EEF0A3EFF07BFF7A009F
:104996007926900003EEF0A3EFF0122C03E4FFFE5D
:1049A6001286A77F017E0012867E7F0A7E0012880D
:1049B600287F0712869F7F1212869F7FA47E001291
:1049C60086A77F017E001286A77F0A7E00128828AE
:1049D6007F707E001286A77F007E9B12867E7F07F1
:1049E6007E001286A77F317E0012867E7F187E00AB
:1049F6001286A77F017E0012867E7F107E001286B9
:104A0600A77FB07E1112867E7F117E001286A77F59
:104A1600077E0012867E7F127E001286A77F177E93
:104A26001012867E7F137E001286A77F0D7E85126A
:104A3600867E7F147E001286A77F007E8012867E89
:104A46007F127E001286A77F3C7E1012867E7F969E
:104A56007E001200037F011286A77F007E05128664
:104A66007E7F027E001286A77F007E0712867E7FEB
:104A7600037E001286A77F307E1012867E7F087E18
:104A8600001286A77408FFFE12867E7F0B7E001238
:104A960086A77F007E1112867E7F0C7E001286A777
:104AA600E4FFFE12867E7F0F7E001286A77F017EC0
:104AB6001412867E7F157E001286A7E4FFFE1286FC
:104AC6007E7F207E001286A7E4FFFE12867E7F216F
:104AD6007E001286A7E4FFFE12867E7F507E0012BD
:104AE60086A7E4FFFE12867E7F517E001286A77F90
:104AF600AF7E0012867E7F527E001286A7E4FFFEFE
:104B060012867E7F537E001286A77FDB7E0012868A
:104B16007E7F707E001286A77F007E1B12867E7FB8
:104B2600717E001286A7E4FFFE12867E7F907E00CD
:104B36001286A7E4FFFE12867E7F917E001286A76C
:104B46007F007E0112867E7F927E001286A77F01FD
:104B56007E0012867E7F597E001286A77F0C7E0518
:104B660012867E7F907E001286A77F107E001286B8
:104B76007E7F927E001286A77F007E0612867E7F4B
:104B8600077E001286A77F337E0212867E7F327EE4
:104B9600001200037F221286A7E4FF1283559003BA
:094BA60048E0FEA3E0FF0280FBE1
:057E3F00E0FEA3E0FFDE
:107E4400900071EEF0A3EFF0A3ECF0A3EDF090033B
:107E540045E070357F50FE1286737F517E00128696
:107E6400A7AF03AE0212867E7F527E001286A7A3BE
:107E74001286797F537E001286A790007712867946
:107E84007F201286717F2180327F521286717F5348
:107E94007E001286A7AE02AF0312867E7F507E005C
:107EA4001286A7A31286797F517E001286A79000BE
:107EB400771286797F211286717F207E001286A731
:0C7EC400A31286797F227E001286A7227E
:0E78A50090037BEEF0A3EFF0A3ECF0A3EDF068
:1078B300E4A3F0A304F0A3E4F0A304F090033FE0F7
:1078C300FEA3E0FFC390037CE09F90037BE09E5008
:1078D30015900341E0FEA3E0FFC390037EE09F9079
:1078E300037DE09E4004E4FEFF2290037DE0FCA3C1
:1078F300E0FD90037BE0FAA3E0FBA3E0FFA3E090AD
:107903000077CFF0A3EFF090037B127E3F1287182E
:10791300AB07AA06128718AA06AB07EA1313135478
:107923001FFF900381E4F0A3EFF0EB7805CEC313C0
:10793300CE13D8F9543FFF90037FE4F0A3EFF07C1C
:1079430000EB541FFD90037FE0FEA3E07805C333F3
:10795300CE33CED8F9FBAA06ED33333354F84AFEBF
:10796300EBFF900381E04EFAA3E04FAC02AE04FFBD
:0179730022F1
:0880FB00900000EEF0A3EFF08D
:10810300E4A3F0A3F0900340E024FFFB90033FE0DF
:1081130034FFFA900342E024FFFE900341E034FF72
:10812300900077F0A3CEF0E4FDFCFFFE127E44E462
:10813300FAFBD3900340E09B90033FE09A4039E47D
:10814300900002F0A3F0900341E0FEA3E0FFC39090
:108153000003E09F900002E09E50169000001286FC
:10816300CB900003E004F070DD900002E004F080A7
:08817300D50BBB00010A80BA24
:01817B0022E1
:1077D500900024ECF0A3EDF0900022EEF0A3EFF082
:0877E500900026EAF0A3EBF08E
:1077ED00E490002CF0A3F0D3EF9BEE9A40030278C7
:1077FD00A4900028E0FEA3E0FF900024E0FCA3E0AD
:10780D00FD9FEC9E40030278A4900026E0FAA3E0D1
:10781D00FBA3E0FFA3E0900077CFF0A3EFF0900083
:10782D0022127E3F900022E0FEA3E0FFC3900027CE
:10783D00E09FFF900026E09ECF2401CF3400900002
:10784D0022F0A3EFF0A3E0FEA3E0FFC3900029E038
:10785D009FFF900028E09ECF2401CF34009000249C
:10786D00F0A3EFF090002274FFF5F012225545F0D1
:10787D006025900024E0FFA3E090002CCFF0A3EF53
:10788D00F090002C74FFF5F012225545F060D59064
:07789D00002A1286CB80EAED
:0178A40022C1
:0E709A0090024BEEF0A3EFF0A3ECF0A3EDF0AC
:1070A80090024BE0FEA3E0FFC3EB9FFFEA9ECF24D4
:1070B80001CF3400900258F0A3EFF090024DE0FEAB
:1070C800A3E0FFC3900252E09FFF900251E09ECFE1
:1070D8002401CF3400900256F0A3EFF090024DE067
:1070E800FCA3E0FD900251E0FFA3E0900077CFF011
:1070F800A3EFF090024B127E3FE490025AF0A3F007
:10710800900256E0FEA3E0FFC390025BE09F90026E
:107118005AE09E5074E490025CF0A3F0900258E0AC
:10712800FEA3E0FF90025CE0FAA3E0FBC39FEA9EA7
:107138005046900258E0FCA3E0FDA3E0FEA3E0FF68
:107148001221A2EB2FFFEA3EFEEF25E0FFEE33FE11
:10715800900253E0FBA3E0FAA3E0F98F828E83123A
:10716800226BFFAEF01286D090025DE004F070ACA6
:1071780090025CE004F080A490025BE004F0708070
:0971880090025AE004F0027108C3
:0171910022DB
:10851000900350FEE0FCA3E0FDC390034DE09DFD01
:0685200090034CE09CFCFE
:10852600AB07AA068D828C83C006C007AE83AF82D6
:10853600900077EEF0A3EFF0D007D006127E4490BD
:0A8546000346E0FEA3E0FF0286D02A
:06844000FDE0FAA3E0FBE1
:1084460090006BEEF0A3EFF090006FEAF0A3EBF074
:1084560090006DECF0A3EDF090006BE0FAA3E0FB6A
:10846600FFAE02C007A3E0FFA3E0900077CFF0A322
:10847600EFF0D007127E4490006FE0FEA3E0FF020B
:0284860086D09E
:1082770090039BEEF0A3EFF0A3ECF0A3EDF0A3EADD
:10828700F0A3EBF012844690039CE02401FF9003D7
:108297009BE03400FE90039DE0FCA3E0A312844022
:1082A70090039BE0FEA3E0FF90039EE02401FD9076
:1082B700039DE03400FC90039F12844190039CE0EF
:1082C7002401FF90039BE03400FE90039EE024010D
:1082D700FD90039DE03400FC90039FE0FAA3E0FBD0
:0382E700028446C8
:0E562C0090018BEEF0A3EFF0A3ECF0A3EDF0F5
:10563A00E4900193F0A3F0A3F0A3F0A3F0A3F090F9
:10564A00018BE0FEA3E0FFC3EB9FFFEA9E90019966
:10565A00F0A3EFF090018DE0FAA3E0FBC390019272
:10566A00E09BFE900191E09A90019BF0A3CEF0900E
:10567A00018BE0FFA3E09001A3CFF0A3EFF0A3EA30
:10568A00F0A3EBF0900199E0FEA3E0FFD39400EEC3
:10569A0064809480400A90019FE4F0A304F0802182
:1056AA00EF4E700890019FF0A3F0801574FF9001EF
:1056BA009FF0A3F0C3E49FFFE49E900199F0A3EF4B
:1056CA00F090019BE0FEA3E0FFD39400EE64809487
:1056DA0080400A9001A1E4F0A304F08021EF4E700B
:1056EA00089001A1F0A3F0801574FF9001A1F0A326
:1056FA00F0C3E49FFFE49E90019BF0A3EFF09001BA
:10570A009BE0FEA3E0FF900199E0FCA3E0FDD39F9C
:10571A00EE6480F8EC64809890019D4007ECF0A359
:10572A00EDF08005EEF0A3EFF0E4900193F0A3F022
:10573A0090019EE02401FF90019DE03400FED39089
:10574A000194E09F900193E09E400302581A900151
:10575A00A3E0FEA3E0FFA3E0FCA3E0FD12852690F0
:10576A000199E0FEA3E0FF900196E02FF0900195E9
:10577A00E03EF090019BE0FEA3E0FF900198E02F4D
:10578A00F0900197E03EF090019DE0FEA3E0FF90CB
:10579A000195E0FCA3E0FDD39FEE6480F8EC648001
:1057AA00984020ED9FFFEC9E900195F0A3EFF090BA
:1057BA00019FE0FEA3E0FF9001A4E02FF09001A377
:1057CA00E03EF090019DE0FEA3E0FF900197E0FC2F
:1057DA00A3E0FDD39FEE6480F8EC6480984020ED4E
:1057EA009FFFEC9E900197F0A3EFF09001A1E0FEDD
:1057FA00A3E0FF9001A6E02FF09001A5E03EF09013
:10580A000194E004F07006900193E004F002573A24
:01581A00226B
:0E581B00900131EEF0A3EFF0A3ECF0A3EDF05E
:10582900E490013DF0A3F0A3F0A3F0900131E0FE74
:10583900A3E0FFC3EB9FFFEA9E900141F0A3EFF0C5
:10584900900133E0FAA3E0FBC3900138E09BFE909E
:105859000137E09A900143F0A3CEF0900131E0FFC7
:10586900A3E090014BCFF0A3EFF0A3EAF0A3EBF094
:10587900900141E0FEA3E0FFD39400EE64809480A0
:10588900400A900147E4F0A304F08021EF4E70082C
:10589900900147F0A3F0801574FF900147F0A3F041
:1058A900C3E49FFFE49E900141F0A3EFF090014310
:1058B900E0FEA3E0FFD39400EE64809480400A9058
:1058C9000149E4F0A304F08021EF4E7008900149EA
:1058D900F0A3F0801574FF900149F0A3F0C3E49F91
:1058E900FFE49E900143F0A3EFF0900143E0FEA393
:1058F900E0FF900141E0FCA3E0FDD39FEE6480F856
:10590900EC6480989001454007ECF0A3EDF0800528
:10591900EEF0A3EFF0E490013BF0A3F0900146E034
:105929002401FF900145E03400FED390013CE09F43
:1059390090013BE09E4003025A0790014BE0FEA311
:10594900E0FFA3E0FCA3E0900139128440900141FB
:10595900E0FEA3E0FF90013EE02FF090013DE03E24
:10596900F0900143E0FEA3E0FF900140E02FF090AA
:10597900013FE03EF0900145E0FEA3E0FF90013DCC
:10598900E0FCA3E0FDD39FEE6480F8EC64809840CE
:1059990020ED9FFFEC9E90013DF0A3EFF0900147B1
:1059A900E0FEA3E0FF90014CE02FF090014BE03EB8
:1059B900F0900145E0FEA3E0FF90013FE0FCA3E089
:1059C900FDD39FEE6480F8EC6480984020ED9FFF42
:1059D900EC9E90013FF0A3EFF0900149E0FEA3E0B7
:1059E900FF90014EE02FF090014DE03EF090013C18
:0E59F900E004F0700690013BE004F002592536
:015A0700227C
:10762B009003A1EEF0A3EFF09003A5EAF0A3EBF02B
:08763B009003A3ECF0A3EDF0B5
:107643009003A1E0FAA3E0FB24FFFFEA34FFFEC0AE
:1076530006C007ED24FFFDEC34FFFCEB2401FBE443
:107663003AFAA3E0FEA3E02401FFE43E900077F0A2
:10767300A3EFF0D007D006127E44E4FB1286C80BBA
:10768300EBB409F89003A2E024FCFF9003A1E034DB
:10769300FFFEC0079003A3E0FCA3E0FD9003A2E07C
:1076A3002404FB9003A1E03400FA9003A3E0FFA3BA
:1076B300E0900077CFF0A3EFF0D007127E44E4FB15
:1076C3001286C80BEBB409F89003A4E024FCFD90E8
:1076D30003A3E034FFFC9003A1E0FAA3E0FBA3E0E3
:1076E300FEA3E02404FFE43E900077F0A3EFF090C4
:0F76F30003A1127E3FE4FB1286C80BEBB409F82B
:017702002264
:107BC400900387EAF0A3EBF0900383EEF0A3EFF0C9
:107BD400A3ECF0A3EDF0C007A3E0FAA3E0FB90034D
:107BE40085E0FFA3E0900191CFF0A3EFF0D007125E
:107BF400562C900383E0FAA3E0FBFFAE02C007A378
:107C0400E0FCA3E0FD900389E0FFA3E0900191CFA5
:107C1400F0A3EFF0D00712562C900389E0FCA3E008
:107C2400FD900387E0FAA3E0FBA3E0FFA3E090014B
:107C340091CFF0A3EFF0900383E0FEA3E0FF125690
:107C44002C900387E0FAA3E0FBFFAE02C007900389
:107C540085E0FCA3E0FD900389E0FFA3E09001919F
:0A7C6400CFF0A3EFF0D00702562C7A
:0E5BF10090034AEEF0A3EFF0A3ECF0A3EDF06A
:105BFF00E4A3F0A3F0EBFF7E00A3EEF0A3EFF025FC
:105C0F00E0FFEE33FEC374039F900353F0E49E90C6
:105C1F000352F0900350E0FEA3E0FF90034EE0FC30
:105C2F00A3E0FDD39FEE6480F8EC648098400302FC
:105C3F005DC890034BE02DFF90034AE03C128510A6
:105C4F00900350E0FEA3E0FF90034BE02FFF900383
:105C5F004AE03E90034E128513900350E0FEA3E0FE
:105C6F00FF90034BE02FFF90034AE03EFE90034E60
:105C7F00E0FCA3E0FD90034DE02DFD90034CE03CD4
:105C8F00FC12852690034EE0FEA3E0FF90034BE04D
:105C9F002FFF90034AE03EFE900350E0FCA3E0FD8F
:105CAF0090034DE02DFD90034CE03CFC12852690B7
:105CBF00034EE0FEA3E0FFC390034BE09FFF900372
:105CCF004AE09EFE900350E0FCA3E0FD90034DE000
:105CDF002DFD90034CE03CFC128526900350E0FE16
:105CEF00A3E0FFC390034BE09FFF90034AE09EFEAB
:105CFF0090034EE0FCA3E0FD90034DE02DFD9003DB
:105D0F004CE03CFC12852690034EE0FEA3E0FFC35F
:105D1F0090034BE09FFF90034AE09E128510900383
:105D2F0050E0FEA3E0FFC390034BE09FFF90034AB8
:105D3F00E09EFE90034E12851490034FE004F07026
:105D4F000690034EE004F0C3900352E06480948009
:105D5F00502590034EE0FEA3E07802C333CE33CE3E
:105D6F00D8F92406FFE43EFE900353E02FF0900392
:105D7F0052E03EF0025C22900350E0FEA3E0FFC32E
:105D8F0090034FE09FFF90034EE09EFEEF7802C31B
:105D9F0033CE33CED8F9240AFFE43EFE900353E00E
:105DAF002FF0900352E03EF0900351E024FFF0906B
:095DBF000350E034FFF0025C2205
:015DC80022B8
:1064660090001BEEF0A3EFF090001FEBF090001DE4
:05647600ECF0A3EDF0C5
:10647B00900024ECF0A3EDF0900020E0FF13131339
:10648B00541FFEEF540760047F0180027F00EE2F44
:10649B00FF900020E0C313FEEF8EF0A4900026F0D7
:1064AB0090001FE024E0F0E4F9900026E0FFE9C340
:1064BB009F40030265DD900020E0FFB40C129000BA
:1064CB001FE075F00CA42433F582E5F03400803125
:1064DB00EFB4101290001FE075F010A424A7F58202
:1064EB00E5F03404801B900020E064186003026523
:1064FB00DD90001FE075F024A42497F582E5F034BD
:10650B000AF583E58229F582E43583F583E49390DC
:10651B000022F0E4900023F0900022E030E713908B
:10652B00001BE0FEA3E0FFA3E0FCA3E0FD9003460D
:10653B008017900021E0701490001BE0FEA3E0FF99
:10654B00A3E0FCA3E0FD900348128441900022E0FD
:10655B0025E0F090001EE004F0700690001DE004B2
:10656B00F0900341E0FEA3E0FF90001DE0FCA3E0F0
:10657B00FDC39FEC9E505B900024E0FEA3E0FFC3A5
:10658B00ED9FFDEC9EFC900020E07A00B50530EA13
:10659B00B5042C90001DEEF0A3EFF090001CE0046E
:1065AB00F0700690001BE004F090033FE0FEA3E0C8
:1065BB00FFC390001CE09F90001BE09E40102290B8
:1065CB000023E004F0E0C3940850030265230902A2
:0265DB0064B4A6
:0165DD00229B
:0783A700C3EF9E14FD7F0AE5
:0883AE009003A7EFF0A3EDF02E
:1083B600A3122441000000019003A8E0FF14F0EF8F
:1083C6006020A3E0F8A3E0F9A3E0FAA3E0FB9003A2
:1083D600A7E0FFE4FCFDFE1222D09003A91224358B
:1083E60080D69003A9E0FCA3E0FDA3E0FEA3E0FF96
:0183F6002264
:0E754F009002FFEEF0A3EFF0A3ECF0A3EDF03E
:10755D00E490030BF0900309F0900307E0FF900314
:10756D0009E0FEC39F400302762A1283A7A804A94F
:10757D0005AA06AB07900303E0FCA3E0FDA3E0FE24
:10758D00A3E0FF12235BE47B0AFAF9F812235B9068
:10759D00030AEBF0A3E07045900307E014FF90039E
:1075AD0009E0FEC39F5036A3E0702C900308E0FB6A
:1075BD00C3138EF0A4FF900300E02FFF9002FFE0B5
:1075CD0035F0FE900301E0FCA3E0FD900020EBF010
:1075DD00E4A3F07B20803A90030B7401F090030834
:1075ED00E0FAC313FFA3E0FEEF8EF0A4FF900300BB
:1075FD00E02FFF9002FFE035F0FE900301E0FCA3C9
:10760D00E0FD90030AE02430FB900020EAF0E4A3B3
:0D761D00F0126466900309E004F002756647
:01762A00223D
:0E6D51009002E3EEF0A3EFF0A3ECF0A3EDF060
:106D5F00E49002F0F09002EEF09002EBE0FF900270
:106D6F00EEE0FEC39F4003026E791283A7A804A929
:106D7F0005AA06AB079002E7E0FCA3E0FDA3E0FE47
:106D8F00A3E0FF12235BE47B0AFAF9F812235B906E
:106D9F0002EFEBF0A3E06003026E309002EBE01421
:106DAF00FF9002EEE0FEC39F5077A3E0706D90025C
:106DBF00EDE0F99002EC30E72BE0FBC3138EF0A46B
:106DCF00FF9002E4E02FFF9002E3E035F0FE900227
:106DDF00E5E0FCA3E0FD900020EBF0E95401A3F007
:106DEF007B30807AE0FBC313FF9002EEE0FEEF8E64
:106DFF00F0A4FF9002E4E02FFF9002E3E035F0FEF5
:106E0F009002E5E0FCA3E0FD900020EBF09002ED96
:106E1F00E05401900021F07B2080439002F0740138
:106E2F00F09002ECE0FAC313FF9002EEE0FEEF8E5B
:106E3F00F0A4FF9002E4E02FFF9002E3E035F0FEB4
:106E4F009002E5E0FCA3E0FD9002EFE02430FB9020
:106E5F000020EAF09002EDE05401900021F012645E
:0A6E6F00669002EEE004F0026D6888
:016E790022F6
:10746A0090000EEEF0A3EFF0A3ECF0A3EDF0A3EA88
:04747A00F0A3EBF0A0
:10747E0090000EE0FEA3E0FF90001AF0900013E0E3
:10748E002FF0900012E03EF0900010E0FEA3E0FF1F
:10749E00900015E02FF0900014E03EF0900017E001
:1074AE00FBA3E0FAA3E0F9122128FFD3947E400358
:1074BE0002754EEFC39420500302754E900012E0F9
:1074CE00FEA3E0FF90000FE09F90000EE09E401F95
:1074DE0090001AE0FF90000EE4F0A3EFF09000167B
:1074EE00E0FF900011E02FF0900010E03400F090DB
:1074FE000014E0FEA3E0FF900010E0FCA3E0FDC34B
:10750E009FEC9E503B90000EE0FEA3E0FF12212860
:10751E00FB900016E0900020F0E4A3F01264669059
:10752E000016E0C313FF90000FE02FF090000EE066
:10753E003400F0900018E475F00112223F0274AA94
:01754E00221A
:106C2600900354EEF0A3EFF0A3ECF0A3EDF0A3EB8A
:076C3600F0A3EAF0A3E9F06E
:106C3D00900358E0FBA3E0FAA3E0F91221287003BA
:106C4D00026D50900354E0FAA3E0FBFFAE02C006C4
:106C5D00C007A3E0FCA3E0FDEB241FFBE43AFA9090
:106C6D000356E0FEA3E0241CFFE43E900077F0A362
:106C7D00EFF0D007D006127E44E490035BF0900352
:106C8D005BE0FFC394144003026D35900358E0FBA5
:106C9D00A3E0FAA3E0F9122128FE75F076EFA42403
:106CAD00F3F582E5F03417F583E4936E707190007F
:106CBD0001122141FF90035BE075F076A424F4F5F9
:106CCD0082E5F03417F583E4936F7053FB90035B0B
:106CDD00E075F076A424F5F582E5F03417F583E53B
:106CED00822BF582E43583F583E493FF90035CE416
:106CFD00F0A3EFF0E4FA90035DE030E70590034672
:106D0D0080039003481286CB90035DE025E0F09060
:106D1D00035CE033F00AEAB408DC0BEBB474AE901C
:106D2D00035BE004F0026C8B900359E475F00212E2
:106D3D00223F900355E02420F0900354E03400F0FE
:036D4D00026C3D98
:016D50002220
:106AF900900236EEF0A3EFF0A3ECF0A3EDF0A3EAD9
:046B0900F0A3EBF01A
:106B0D00E4900241F0A3F0A3122441000000009094
:106B1D00024712244100000000900238E0FCA3E07F
:106B2D00FDA3E0FEA3E0FF900236E0FAA3E02FFF05
:106B3D00EA3ECF24FFFBEF34FFFA90023CE0FEA3C8
:106B4D00E0FF900238E0F8A3E02FFFE83ECF24FFEE
:106B5D00CF34FF900077F0A3EFF0900236127E3F16
:106B6D0090023CE0FCA3E0FD90023AE0FEA3E0FFC2
:106B7D001221A2EF25E0FFEE33FEE4FCFD9002476B
:106B8D00122435900243A3A3E0FEA3E0FDAC06243E
:106B9D0001FFE43CFE90023EE0FBA3E0FAA3E0F926
:106BAD008F828E83122141FF900241E4F0A3EFF01A
:106BBD00E0F8E4F0E8900241F08D828C83122141DF
:106BCD00FF900241E0FEA3E04FFF900241EEF0FE88
:106BDD00A3EFF01286D0A3E0FCA3E0FDA3E0FEA39B
:106BED00E02402FFE43EFEE43DFDE43CFC90024364
:106BFD00122435900247E0FCA3E0FDA3E0FEA3E0E4
:106C0D00FF900243E0F8A3E0F9A3E0FAA3E0FBC391
:086C1D001223FB5003026B90EF
:016C2500224C
:0B883300C2A1D2A3D2A2D2A1C2A322F4
:10875500C2A1E4FEEFC4131313540124FF92A2EF48
:0C87650025E0FFC2A1D2A10EEEB408E88E
:0187710022E5
:1085C800E49003C3F0A3F0C2A1FDFC9003C4E0252E
:1085D800E0F09003C3E033F0D2A1C2A1A2A0E4333B
:1085E800FFE0F0A3E04FF00DBD00010CED640C4C72
:0A85F80070D99003C3E0FEA3E0FF7A
:018602002255
:07616300EEF0A3EFF07F90C6
:02616A00AB0781
:10616C00C2A1C2A3E49001A7F0AF0312875590011E
:10617C00A87406F09001A8E014F0E070F7D2A1002A
:10618C0000C2A100001285C89001A7E025E024A957
:10619C00F582E43401F583EEF0A3EFF09001A7E073
:1061AC0004F0E0C3940A40C1D2A3E49001A7F0909C
:1061BC0001A7E0FFC394094003026271EF04A3F04E
:1061CC009001A8E0FFC3940A4003026268EF25E047
:1061DC0024A9F582E43401F583E0FEA3E0FF9001ED
:1061EC00A7E0FB25E024A9F582E43401F583E0FC6B
:1061FC00A3E0C39FEC9E505BEB25E024A9F582E461
:10620C003401F583E0FEA3E0FFE4FCFD9001BD1238
:10621C0024359001A8E0FA25E024A9F582E43401A4
:10622C00F583E0FEA3E0FFEB25E024A9F582E4343E
:10623C0001F583EEF0A3EFF09001BDA3A3E0FEA364
:10624C00E0FFEA25E024A9F582E43401F583EEF0C1
:10625C00A3EFF09001A8E004F00261CC9001A7E05C
:10626C0004F00261BB9001BD1224410000000090BB
:10627C0001A77402F09001BDE0F8A3E0F9A3E0FAE5
:10628C00A3E0FB9001A7E025E024A9F582E434010A
:10629C00F583E0FEA3E0FFE4FCFDEB2FFFEA3EFEFE
:1062AC00ED39FDEC38FC9001BD1224359001A7E0CE
:1062BC0004F0E0B408BF9001BDE0FCA3E0FDA3E056
:1062CC00FEA3E0FFE47B06FAF9F81284CC9001BD42
:0D62DC001224359001BDA3A3E0FEA3E0FF56
:0162E9002292
:106E7A001288337FD012616A90035E1261639003B5
:106E8A0064EEF0A3EFF07FD012616A9003601261A2
:106E9A0063AD07AC06900360E0FEA3E0FF90035EDB
:106EAA00E0FAA3E0FBD39FEA9E400AA3A3EB9FFF6D
:106EBA00EA9EA3801790035EE0FEA3E0FFC390035F
:106ECA0061E09FFF900360E09E900362F0A3EFF001
:106EDA00900364E0FEA3E0FFD39DEE9C4007EF9D84
:106EEA00FFEE9C800E900364E0FEA3E0FFC3ED9FDB
:106EFA00FFEC9EA3F0A3EFF0D3900363E0943290EB
:106F0A000362E09400500E900367E09432900366A7
:106F1A00E0940040037F0022900360E0FEA3E0FFBC
:106F2A0090035FE02FFF90035EE03EC313FEEF1372
:106F3A00FF90030CEEF0A3EFF0900365E02DFF90B5
:106F4A000364E03CC313FEEF13FF90030EEEF0A3BD
:106F5A00EFF090030DE054F0F090030FE054F0F0DE
:106F6A00C390030DE0946490030CE09400400FD3A7
:106F7A0090030FE094D890030EE0940E40037F0034
:036F8A00227F0162
:016F8D0022E1
:1069B900E49003B3F0126E7AEF7003026AEE90036B
:1069C90045E06003026A5490030CE0FEA3E0FFE493
:1069D900FCFD900310122435900310E0FCA3E0FDA8
:1069E900A3E0FEA3E02406FFEE34FFFEED34FFFD35
:1069F900EC34FFFCE47BB4FAF9F81222D0E47B749E
:106A09007A0EF9F812235B90031012243590030EC5
:106A1900E0FEA3E0FFE4FCFD90031412243590038B
:106A290014E0FCA3E0FDA3E0FEA3E024A2FFEE3402
:106A3900FEFEED34FFFDEC34FFFCE47BFAFAF9F8D5
:106A49001222D0E47BAC7A0D026ADB90030EE0FEE1
:106A5900A3E0FFC3E49FFF74109EFEE4FCFDA312B4
:106A69002435900310E0FCA3E0FDA3E0FEA3E0249D
:106A7900A2FFEE34FEFEED34FFFDEC34FFFCE47BB7
:106A8900FAFAF9F81222D0E47BAC7A0DF9F812235C
:106A99005B90031012243590030CE0FEA3E0FFE4A1
:106AA900FCFD900314122435900314E0FCA3E0FDCF
:106AB900A3E0FEA3E02406FFEE34FFFEED34FFFD64
:106AC900EC34FFFCE47BB4FAF9F81222D0E47B74CD
:106AD9007A0EF9F812235B9003141224359003B34C
:0F6AE9007401F08001E4900318F09003B3E0FF14
:016AF800227B
:10877200C2B7E4FEEFC4131313540124FF92B5EF02
:0C87820025E0FFC2B7D2B70EEEB408E845
:01878E0022C8
:10860300E490000EF0A3F0C2B7FDFC90000FE0254C
:10861300E0F090000EE033F0D2B7C2B7A2B4E43377
:10862300FFE0F0A3E04FF00DBD00010CED640C4C36
:0A86330070D990000EE0FEA3E0FFF6
:01863D00221A
:1087A900C2B7C2B61287727F06DFFED2B70000C217
:0887B900B70000128603D2B6DE
:0187C1002295
:06817C0090038B12243574
:1081820090038BE0FCA3E0FDA3E0FEA3E0FF7813E5
:10819200122422A3EEF0A3EFF090038BE0FCA3E005
:1081A200FDA3E0FEA3E0FF780A122422EF543FFE73
:1081B200E4900391F0A3CEF090038BE0FCA3E0FDEA
:1081C200A3E0FEA3E0FF7803122422EF541FFFE492
:1081D200AD07FC900391E0FEA3E07805C333CE33F4
:1081E200CED8F9FBAA06900390E033333354F84A11
:0981F200FEEBFFEE4CFEEF4DFF29
:0181FB002261
:04855000AD07AC06C1
:108554007BE77A187E00ED54037803C333CE33CE21
:10856400D8F9FFEA4EFAEB4FFB7E00ED541C780677
:10857400C333CE33CED8F9FFEA4EFAEB4FFBED54BA
:07858400E04AFAEBAE02FF32
:01858B0022CD
:0883F7009003ADEFF0A3EDF0DF
:1083FF00A3122441000000019003AEE0FF14F0EF40
:10840F006020A3E0F8A3E0F9A3E0FAA3E0FB900358
:10841F00ADE0FFE4FCFDFE1222D09003AF12243535
:10842F0080D69003AFE0FCA3E0FDA3E0FEA3E0FF46
:01843F00221A
:1082EA00900393122435900397E0FCA3E0FDA3E0EA
:1082FA00FEA3E0FF900393E0F8A3E0F9A3E0FAA35A
:10830A00E0FBD3122411401D900397E0F8A3E0F993
:10831A00A3E0FAA3E0FB900393E0FCA3E0FDA3E053
:10832A00FEA3E0801A900393E0F8A3E0F9A3E0FA31
:10833A00A3E0FBA3E0FCA3E0FDA3E0FEA3E0C39B54
:0B834A00FFEE9AFEED99FDEC98FC227E
:08858C009003BCEEF0A3EFF038
:10859400900346E0FFA3E09003BECFF0A3EFF0AF5B
:1085A40003900346EAF0A3EFF09003BCE0FEA3E0DF
:1085B400FF1285269003BEE0FFA3E0900346CFF0B0
:0385C400A3EFF032
:0185C7002291
:10719200900294EEF0A3EFF0A3ECF0A3EDF0A3EADB
:0471A200F0A3EBF07B
:1071A600E490029FF0A3F0900298E0FEA3E0FFC3F4
:1071B6009002A0E09F90029FE09E4003027288E446
:1071C6009002A1F0A3F090029AE0FEA3E0FFC39024
:1071D60002A2E09F9002A1E09E4003027274900218
:1071E6009FE0FEA3E0FF900295E02FFF900294E05F
:1071F6003EFE9002A1E0FCA3E0FD900297E02DFD8B
:10720600900296E03CFC1278A59002A3EEF0A3EF64
:10721600F090029CE0FCA3E0FDA3E0FB12737D90DE
:1072260002A3EEF0A3EFF090029FE0FEA3E0FF9032
:107236000295E02FFF900294E03EFE9002A1E0FC52
:10724600A3E0FD900297E02DFD900296E03CFC90B5
:1072560002A3E0FAA3E0FB1284469002A2E004F047
:1072660060030271CC9002A1E004F00271CC90029E
:10727600A0E004F060030271AD90029FE004F0020A
:0272860071ADE8
:0172880022E3
:1072890090005FECF0A3EDF0A3EAF0A3EBF090001F
:067299005DEEF0A3EFF032
:10729F00C39401EE94004013E024FFFE90005DE0E4
:1072AF0034FF900067F0A3CEF0800F90005DE0FFF9
:1072BF00A3E0900067CFF0A3EFF090005FE0FEA394
:1072CF00E0FFC39401EE9400400CEF24FFFFEE3477
:1072DF00FF900069800B90005FE0FFA3E0900069D2
:1072EF00CFF0A3EFF0900069E0FFA3E0900063CF31
:1072FF00F0A3EFF0900060E02402FF90005FE03415
:10730F0000FEC3900064E09F900063E09E505E908B
:10731F000067E0FFA3E0900065CFF0A3EFF09000CF
:10732F005EE02402FD90005DE03400FC900065E01B
:10733F00FEA3E0FFC39DEE9C5023900063E0FCA3EF
:10734F00E0FD900061E0FAA3E0FB12844690006636
:10735F00E004F070C9900065E004F080C190006413
:0D736F00E004F0708F900063E004F0808770
:01737C0022EE
:0E54390090014FEEF0A3EFF0A3ECF0A3EDF026
:10544700E490015BF0A3F0A3F0A3F090014FE0FE1E
:10545700A3E0FFC3EB9FFFEA9E90015FF0A3EFF08D
:10546700900151E0FAA3E0FBC3900156E09BFE9048
:105477000155E09A900161F0A3CEF090014FE0FF53
:10548700A3E0900169CFF0A3EFF0A3EAF0A3EBF05C
:1054970090015FE0FEA3E0FFD39400EE6480948068
:1054A700400A900165E4F0A304F08021EF4E7008F4
:1054B700900165F0A3F0801574FF900165F0A3F0EB
:1054C700C3E49FFFE49E90015FF0A3EFF0900161BA
:1054D700E0FEA3E0FFD39400EE64809480400A903E
:1054E7000167E4F0A304F08021EF4E700890016794
:1054F700F0A3F0801574FF900167F0A3F0C3E49F59
:10550700FFE49E900161F0A3EFF0900161E0FEA33C
:10551700E0FF90015FE0FCA3E0FDD39FEE6480F81D
:10552700EC6480989001634007ECF0A3EDF08005F0
:10553700EEF0A3EFF0E4900159F0A3F0900164E0DE
:105547002401FF900163E03400FED390015AE09FED
:10555700900159E09E400302562B900169E0FEA39B
:10556700E0FFA3E0FCA3E0FD900157E0FAA3E0FB16
:1055770012844690015FE0FEA3E0FF90015CE02FFC
:10558700F090015BE03EF0900161E0FEA3E0FF9048
:10559700015EE02FF090015DE03EF0900163E0FED8
:1055A700A3E0FF90015BE0FCA3E0FDD39FEE6480E6
:1055B700F8EC6480984020ED9FFFEC9E90015BF033
:1055C700A3EFF0900165E0FEA3E0FF90016AE02FF2
:1055D700F0900169E03EF0900163E0FEA3E0FF90E8
:1055E700015DE0FCA3E0FDD39FEE6480F8EC6480EE
:1055F700984020ED9FFFEC9E90015DF0A3EFF090A7
:105607000167E0FEA3E0FF90016CE02FF090016BD3
:10561700E03EF090015AE004F07006900159E00472
:04562700F0025543F5
:01562B00225C
:10424B009000F3EEF0A3EFF0A3ECF0A3EDF0A3EAF4
:04425B00F0A3EBF0F1
:10425F00E4900100F0A3F0A3F0A3F09000FBE0FFC7
:10426F007E00C39000F4E09F9000F3E09E500302A5
:10427F0044B69000F8E09F9000F7E09E5003024490
:10428F00B69000F5E0FCA3E0FD9FEC9E50030244C6
:10429F00B69000FAE09F9000F9E09E50030244B6FA
:1042AF009000FBE070139000F3E0FEA3E0FF90009E
:1042BF00FCE0FAA3E0FB0284469000F3E0FAA3E0EF
:1042CF00FBC39000F8E09BFE9000F7E09A9001048A
:1042DF00F0A3CEF09000F5E0FEA3E0FFC39000FA4C
:1042EF00E09FFF9000F9E09E900106F0A3EFF090A1
:1042FF00010EEAF0A3EBF09000F5A3E0FF900110A0
:10430F00EEF0A3EFF0900104E0FEA3E0FFD39400E2
:10431F00EE64809480400A90010AE4F0A304F080D8
:10432F0021EF4E700890010AF0A3F0801574FF90F2
:10433F00010AF0A3F0C3E49FFFE49E900104F0A3F1
:10434F00EFF0900106E0FEA3E0FFD39400EE64804F
:10435F009480400A90010CE4F0A304F08021EF4E0A
:10436F00700890010CF0A3F0801574FF90010CF011
:10437F00A3F0C3E49FFFE49E900106F0A3EFF0903B
:10438F000106E0FEA3E0FF900104E0FCA3E0FDD3F3
:10439F009FEE6480F8EC6480989001084007ECF081
:1043AF00A3EDF08005EEF0A3EFF0E49000FEF0A394
:1043BF00F0900109E02401FF900108E03400FED3E2
:1043CF009000FFE09F9000FEE09E40030244B690F5
:1043DF000110E0FCA3E0FD9000FBE0FB7A00A3E0FE
:1043EF00FFA3E09001E0CFF0A3EFF090010EE0FE0D
:1043FF00A3E0FF123C3A900104E0FEA3E0FF90011E
:10440F0001E02FF0900100E03EF0900106E0FEA3E6
:10441F00E0FF900103E02FF0900102E03EF09001E9
:10442F0008E0FEA3E0FF900100E0FCA3E0FDD39FB6
:10443F00EE6480F8EC6480984020ED9FFFEC9E9036
:10444F000100F0A3EFF090010AE0FEA3E0FF90015E
:10445F000FE02FF090010EE03EF0900108E0FEA378
:10446F00E0FF900102E0FCA3E0FDD39FEE6480F833
:10447F00EC6480984020ED9FFFEC9E900102F0A32A
:10448F00EFF090010CE0FEA3E0FF900111E02FF0A0
:10449F00900110E03EF09000FFE004F070069000F5
:0744AF00FEE004F00243C02F
:0144B60022E3
:0E387000900112EEF0A3EFF0A3ECF0A3EDF048
:10387E00E490011FF0A3F0A3F0A3F0900112E0FE7C
:10388E00A3E0FFC3EB9FFFEA9E900123F0A3EFF0AE
:10389E00900114E0FAA3E0FBC3900119E09BFE90A7
:1038AE000118E09A900125F0A3CEF0900112E0FFEE
:1038BE00A3E090012DCFF0A3EFF0A3EAF0A3EBF07D
:1038CE00900123E0FEA3E0FFD39400EE6480948089
:1038DE00400A900129E4F0A304F08021EF4E700815
:1038EE00900129F0A3F0801574FF900129F0A3F048
:1038FE00C3E49FFFE49E900123F0A3EFF090012517
:10390E00E0FEA3E0FFD39400EE64809480400A9022
:10391E00012BE4F0A304F08021EF4E700890012BF0
:10392E00F0A3F0801574FF90012BF0A3F0C3E49F79
:10393E00FFE49E900125F0A3EFF0900125E0FEA399
:10394E00E0FF900123E0FCA3E0FDD39FEE6480F83E
:10395E00EC6480989001274007ECF0A3EDF0800511
:10396E00EEF0A3EFF0E490011DF0A3F0900128E03B
:10397E002401FF900127E03400FED390011EE09F4A
:10398E0090011DE09E4003023C3990011AE070192F
:10399E0090012DE0FEA3E0FFA3E0FCA3E0FD90016B
:1039AE001BE0FAA3E0FB12844690011AE06401606A
:1039BE0003023A4490012DE0FEA3E0FFA3E0FCA336
:1039CE00E0FD90011BE0FAA3E0FB12844690012E6D
:1039DE00E02401FF90012DE03400FE90012FE0FC69
:1039EE00A3E0FD90011BE0FAA3E0FB1284469001D8
:1039FE002DE0FEA3E0FF900130E02401FD90012FA9
:103A0E00E03400FC90011BE0FAA3E0FB1284469028
:103A1E00012EE02401FF90012DE03400FE900130D4
:103A2E00E02401FD90012FE03400FC90011BE0FA30
:103A3E00A3E0FB12844690011AE064026003023B8D
:103A4E008890012DE0FEA3E0FFA3E0FCA3E0FD9033
:103A5E00011BE0FAA3E0FB12844690012EE0240144
:103A6E00FF90012DE03400FE90012FE0FCA3E0FD5D
:103A7E0090011BE0FAA3E0FB12844690012DE0FEBC
:103A8E00A3E0FF900130E02401FD90012FE034000F
:103A9E00FC90011BE0FAA3E0FB12844690012EE09D
:103AAE002401FF90012DE03400FE900130E024014E
:103ABE00FD90012FE03400FC90011BE0FAA3E0FB27
:103ACE0012844690012EE024FFFF90012DE034FF7A
:103ADE00FE900130E02401FD90012FE03400FC90B7
:103AEE00011BE0FAA3E0FB12844690012EE02401B4
:103AFE00FF90012DE03400FE900130E024FFFD9098
:103B0E00012FE034FFFC90011BE0FAA3E0FB1284CE
:103B1E004690012EE024FFFF90012DE034FFFE9031
:103B2E000130E024FFFD90012FE034FFFC90011BDB
:103B3E00E0FAA3E0FB12844690012EE024FFFF90F2
:103B4E00012DE034FFFE90012FE0FCA3E0FD90017B
:103B5E001BE0FAA3E0FB12844690012DE0FEA3E0E9
:103B6E00FF900130E024FFFD90012FE034FFFC9028
:103B7E00011BE0FAA3E0FB128446900123E0FEA3B2
:103B8E00E0FF900120E02FF090011FE03EF0900149
:103B9E0025E0FEA3E0FF900122E02FF0900121E04E
:103BAE003EF0900127E0FEA3E0FF90011FE0FCA392
:103BBE00E0FDD39FEE6480F8EC6480984020ED9F8A
:103BCE00FFEC9E90011FF0A3EFF0900129E0FEA301
:103BDE00E0FF90012EE02FF090012DE03EF09001DD
:103BEE0027E0FEA3E0FF900121E0FCA3E0FDD39FC0
:103BFE00EE6480F8EC6480984020ED9FFFEC9E9080
:103C0E000121F0A3EFF090012BE0FEA3E0FF900165
:103C1E0030E02FF090012FE03EF090011EE004F016
:0B3C2E00700690011DE004F002397ADE
:013C39002268
:107D1800FAE0FFA3E090001ECFF0A3EFF09002A5D9
:057D2800E0FEA3E0FFF6
:107D2D00900018EEF0A3EFF0A3ECF0A3EDF0A3EAB2
:107D3D00F0A3EBF04A606990033FE0FCA3E0FD90F7
:107D4D000018E0FAA3E0FBD39DEA9C505390034149
:107D5D00E0FEA3E0FF90001AE0FCA3E0FD9FEC9E87
:107D6D00503EAF03AE02C006C00790001CE0FEA35C
:107D7D00E0FF90001AE0F8A3E02FFFE83ECF24FFCC
:107D8D00CF34FF900028F0A3EFF090001EE0FFA38A
:107D9D00E090002ACFF0A3EFF0D007D0061277D5F0
:017DAD0022B3
:1081FC00900018EEF0A3EFF0A3ECF0A3EDF0EB4A37
:10820C00606890033FE0FEA3E0FFD3900019E09F6D
:10821C00900018E09E5053900341E0FEA3E0FF90C5
:10822C00001AE0FCA3E0FD9FEC9E503EAE02AF03B3
:10823C00900018E0FAA3E02FFFEA3ECF24FFFBEFFB
:10824C0034FFFAA3E0FFA3E0900028CFF0A3EFF0F7
:10825C0090001EE0FFA3E090002ACFF0A3EFF09077
:0B826C000018E0FEA3E0FF1277D5220F
:106872009002F1EEF0A3EFF0A3ECF0A3EDF0A3EAA7
:04688200F0A3EBF0A4
:10688600A3E07002A3E070030269B89002F5E0701D
:1068960002A3E070030269B89002FCE020E0030264
:1068A6006935E4A3F0A3F09002F5E0FEA3E0FF90C3
:1068B60002FDE0FCA3E0FDC39FEC9E40030269B825
:1068C6009002F2E02DFF9002F1E03CFEC006C00708
:1068D6009002F3E0FCA3E0FD9002F8E024FFFB90B9
:1068E60002F7E034FFFAC002C0039002FEE025E0A2
:1068F600FF9002FDE033FE9002F9E0FBA3E0FAA36D
:10690600E0F98F828E8312226BFF90001EE5F0F075
:10691600A3EFF0D003D002D007D006127D2D90024F
:10692600FEE004F070819002FDE004F00268ADE440
:106936009002FDF0A3F09002F7E0FEA3E0FF9002C4
:10694600FDE0FCA3E0FDC39FEC9E50669002F4E0E0
:106956002DFD9002F3E03CFC9002F6E024FFFB9054
:1069660002F5E034FFFAC002C0039002FEE025E023
:10697600FF9002FDE033FE9002F9E0FBA3E0FAA3EC
:10698600E0F98F828E8312226BFF90001EE5F0F0F5
:10699600A3EFF09002F1E0FEA3E0FFD003D00212D5
:1069A60081FC9002FEE004F0708C9002FDE004F0A1
:0269B6008084DB
:0169B80022BC
:065A080090016D1224352F
:105A0E00E4900189F0A3F090016DE0FCA3E0FDA30A
:105A1E00E0FEA3E0FF781012242290017AEFF0FB53
:105A2E0090016DE0FCA3E0FDA3E0FEA3E0FF78088B
:105A3E0012242290017BEFF0FA90016DA3A3A3E054
:105A4E00FFA90790017CE9F0900171E0FCA3E0FD55
:105A5E00A3E0FEA3E0FF7810122422EBFDC3EF9D1E
:105A6E00FFEE940090017DF0A3EFF0900171E0FC49
:105A7E00A3E0FDA3E0FEA3E0FF7808122422EAFDD6
:105A8E00C3EF9DFEE4940090017FF0A3CEF0900151
:105A9E0071A3A3A3E0FFE9FDC3EF9DFEE494009084
:105AAE000181F0A3CEF0E4900189F0A3F09001788B
:105ABE00E0FEA3E0FFC390018AE09F900189E09E83
:105ACE004003025BF0E0FAA3E0FB90017DE0FEA351
:105ADE00E0FFAD03AC021221A2900178E0FCA3E03E
:105AEE00FD1221B4A3E07C002FFFEC3E900183F069
:105AFE00A3EFF090017FE0FEA3E0FFAD03AC021236
:105B0E0021A2900178E0FCA3E0FD1221B490017B6C
:105B1E00E07C002FFFEC3E900185F0A3EFF09001AA
:105B2E0081E0FEA3E0FFAD03AC021221A29001784A
:105B3E00E0FCA3E0FD1221B490017CE07C002FFF7D
:105B4E00EC3E900187F0A3EFF0900183E0FEA3E01E
:105B5E007803CEC313CE13D8F9F0EE900183F090F4
:105B6E000185E0FEA3E07802CEC313CE13D8F9F080
:105B7E00EE900185F0900187E0FEA3E07803CEC39E
:105B8E0013CE13D8F9F0EE900187F0900185E0FE68
:105B9E00A3E07805C333CE33CED8F9FDAC06900121
:105BAE0084E033333354F84CFEEDFF900187E04E22
:105BBE00FCA3E04FFDEB25E0FFEA33FE900175E01C
:105BCE00FBA3E0FAA3E0F98F828E83EC8DF0122214
:105BDE00A390018AE004F07006900189E004F002BF
:025BEE005ABBA0
:015BF0002292
:106F8E009001F2EEF0A3EFF0A3ECF0A3EDF0A3EA84
:046F9E00F0A3EBF081
:106FA2009001FEE0FCA3E0FDA3E0FEA3E0FF900160
:106FB20071122435900206E0F9A3E0FAA3E09001F1
:106FC20075C9F0A3EAF0A3E9F09001F6E0FFA3E0AF
:106FD200900178CFF0A3EFF09001FAE0FCA3E0FD7E
:106FE200A3E0FEA3E0FF125A08E4900202F0A3F02D
:106FF2009001F6E0FEA3E0FFC3900203E09F90023F
:1070020002E09E4003027099E4900204F0A3F09023
:1070120001F8E0FEA3E0FFC3900205E09F900204A6
:10702200E09E505F900202E0FAA3E0FB9001F3E0E1
:107032002BFF9001F2E03AFEC006C007900204E086
:10704200FEA3E0FF9001F5E02FFD9001F4E03EFC8D
:10705200EB25E0FFEA33FE900206E0FBA3E0FAA391
:10706200E0F98F828E8312226BFBAAF0D007D00642
:10707200128446900205E004F07094900204E00449
:10708200F0808C900203E004F06003026FF2900241
:0770920002E004F0026FF2BE
:0170990022D4
:10797400900368EEF0A3EFF0A3ECF0A3EDF0A3EA1C
:10798400F0A3EBF0C007900370E0FFA3E090001EAB
:10799400CFF0A3EFF0D0071281FC90036EE0FEA3BA
:1079A400E0FF90036BE02FFF90036AE03ECF24FFDB
:1079B400FDEF34FFFC90036CE0FAA3E0FB9003704E
:1079C400E0FFA3E090001ECFF0A3EFF0900368E087
:1079D400FEA3E0FF1281FC90036AE0FCA3E0FD90AB
:1079E400036EE0FAA3E0FBA3E0FFA3E090001ECF48
:1079F400F0A3EFF0900368127D2890036CE0FEA3DF
:107A0400E0FF900369E02FFF900368E03ECF24FF7E
:107A1400CF34FFFEC00790036AE0FCA3E0FD9003AF
:107A24006EE0FAA3E0FBA3E0FFA3E090001ECFF01A
:087A3400A3EFF0D007027D2D45
:1024E5009002A5EEF0A3EFF0A3ECF0A3EDF0A3EAC4
:0424F500F0A3EBF075
:1024F900E49002B3F0A3F09002ABE0FEA3E030E079
:102509000A2401FFE43E9002B3800B9002ABE0FF86
:10251900A3E09002B3CFF0A3EFF09002AEE09002F7
:10252900AD7003022744E0F975F002A4FFC39002DD
:10253900AAE09FFB9002A9E095F0FAE9FF9002A6B4
:10254900E02FFF9002A5E03400FEC0079002A7E04B
:10255900FCA3E0FD9002B3E0C313FFA3E0139000D6
:102569001ECFF0A3EFF09002AFE0FFA3E0900020B0
:10257900CFF0A3EFF0D007127FFE9002ADE0F9751E
:10258900F002A4FFC39002AAE09FFB9002A9E09584
:10259900F0FAE9FF9002A6E02FFF9002A5E03400CF
:1025A900FEC006C0079002B3E0C313FEA3E013FF09
:1025B9009002A8E02FFD9002A7E03EFC9002B3E054
:1025C900C313FFA3E01390001ECFF0A3EFF0900216
:1025D900B1E0FFA3E0900020CFF0A3EFF0D007D047
:1025E90006127FFE9002ADE0F9FB7A009002A8E0A6
:1025F9002BFD9002A7E03AFC9002B3E0C313FEA3BF
:10260900E013FFE9F582C3EF9582FFEE9400900095
:102619001EF0A3EFF09002AF127FEA9002B3E0C37D
:1026290013FEA3E013FF9002A8E02FFD9002A7E09C
:102639003EFC9002ADE0F9FB7A009002B3E0C313CF
:10264900FEA3E013FFE9F582C3EF9582FFEE940044
:1026590090001EF0A3EFF09002B1127FEA9002A958
:10266900E0FEA3E0FF9002A6E02FFF9002A5E03E66
:10267900FE9002ADE0F9FD7C00C3EF9DFFEE9CFEEC
:10268900C006C0079002A8E02DFD9002A7E03CFC1F
:10269900E9FB7A009002B3E0C313FEA3E013FFE95C
:1026A900F582C3EF9582FFEE940090001EF0A3EF30
:1026B900F09002AFE0FFA3E0900020CFF0A3EFF08D
:1026C900D007D006127FFE9002A9E0FEA3E0FF909A
:1026D90002A6E02FFF9002A5E03EFE9002ADE0F9D0
:1026E900FB7A00C3EF9BFFEE9AFEC006C00790027B
:1026F900B3E0C313FEA3E013FF9002A8E02FFD90FF
:1027090002A7E03EFC9002B3E0C313FEA3E013FF6F
:10271900E9F582C3EF9582FFEE940090001EF0A3C5
:10272900EFF09002B1E0FFA3E0900020CFF0A3EF1B
:10273900F0D007D006127FFE0228F7E0F975F00203
:10274900A4FFC39002AAE09FFB9002A9E095F0FACA
:10275900C003E9FF9002A6E02FFF9002A5E0340034
:10276900FE9002A7E0FCA3E0FD9002AFE0FBA3E02E
:1027790090001ECBF0A3EBF0D0031281FC9002ADC8
:10278900E0F975F002A4FFC39002AAE09FFB900252
:10279900A9E095F0FAC002C003E9FF9002A6E02F74
:1027A900FF9002A5E03400FE9002B3E0FCA3E0FD37
:1027B9009002A7E0FAA3E02DFDEA3CCD24FFCD3439
:1027C900FFFC9002B1E0FBA3E090001ECBF0A3EB6D
:1027D900F0D003D0021281FC9002ADE0FB7A0090A8
:1027E90002A8E02BFD9002A7E03AFC9002B3E0C3F7
:1027F90013FEA3E013C39BFBEE9A9002AF127D1860
:102809009002B3E0FAA3E0FBEAC313FEEB13FF90D7
:1028190002A8E02FFD9002A7E03EFCEAC313FEEBFD
:1028290013FF9002ADE0FBC3EF9BFBEE9400900217
:10283900B1127D189002A9E0FEA3E0FF9002A6E084
:102849002FFF9002A5E03ECF24FFCF34FFFEC00644
:10285900C0079002ADE0FB7A009002A8E02BFD9042
:1028690002A7E03AFC9002B3E0C313FEA3E013C34E
:102879009BFBEE9AFA9002AFE0FFA3E090001ECF17
:10288900F0A3EFF0D007D006127D2D9002A9E0FE4B
:10289900A3E0FF9002A6E02FFF9002A5E03ECF241F
:1028A900FFCF34FFFEC006C0079002B3E0FAA3E0F1
:1028B900FBEAC313FEEB13FF9002A8E02FFD900281
:1028C900A7E03EFCEAC313FEEB13FF9002ADE0FB69
:1028D900C3EF9BFBEE9400FA9002B1E0FFA3E090F6
:1028E900001ECFF0A3EFF0D007D006127D2D900285
:1028F900A7E0FCA3E0FD9002ADE0F9FF7E009002A5
:10290900A5E0FAA3E02FFBEE3AFAA3E0F8A3E02F43
:10291900FFEE389001C7F0A3EFF0E9FF9002A5E0C0
:10292900F8A3E02FFFEE389001C9F0A3EFF0E9FF1B
:102939009002A7E0F8A3E02FFFEE389001CBF0A3B7
:10294900EFF0E9FFA3EEF0A3EFF09002AF125DC93B
:102959009002B3E0FEA3E0FF9002A8E02FFF9002EF
:10296900A7E03EFE9002ADE0F9FB7A00C3EF9BFDC4
:10297900EE9AFC9002A5E0FEA3E02BFBEA3EFA905A
:1029890002B3E0FEA3E0FF9002A7E0F8A3E02FFF67
:10299900E83ECF24FFCF34FF9001C7F0A3EFF0E961
:1029A900FF7E009002A5E0F8A3E02FFFEE3890012A
:1029B900C9F0A3EFF09002B3E0FEA3E0FF9002A7F5
:1029C900E0F8A3E02FFFE83EFEE9F582C3EF958228
:1029D900FFEE9400CF24FFCF34FF9001CBF0A3EF9B
:1029E900F0E9FFA3E4F0A3EFF09002B1125DC99002
:1029F90002A9E0FEA3E0FF9002A6E02FFB9002A54A
:102A0900E03EFA9002ADE0F9FFC3EB9FFFEA9400C4
:102A1900FEC006C0079002A7E0FCA3E0FDE9FF7E27
:102A2900009002A7E0F8A3E02FFFEE389001C7F06D
:102A3900A3EFF09002A9E0FEA3E0FF9002A5E0F861
:102A4900A3E02FFFE83EFEE9F582C3EF9582FFEE92
:102A59009400CF24FFCF34FF9001C9F0A3EFF0E930
:102A6900FF7E009002A7E0F8A3E02FFFEE38900167
:102A7900CBF0A3EFF0E9FFA3EEF0A3EFF09002AFE4
:102A8900E0FFA3E09001CFCFF0A3EFF09002AEE01A
:102A99009001D1F0D007D006125DE59002A9E0FEC1
:102AA900A3E0FF9002A6E02FFF9002A5E03EFE9072
:102AB90002ADE0F9FDC3EF9DFFEE9400FEC006C034
:102AC900079002B3E0FEA3E0FF9002A8E02FFF9079
:102AD90002A7E03EFEC3EF9DFDEE9400FC9002A923
:102AE900E0FEA3E0FF9002A5E0FAA3E02FFBEA3E97
:102AF900FA9002B3E0FEA3E0FF9002A7E0F8A3E09A
:102B09002FFFE83ECF24FFCF34FF9001C7F0A3EF9A
:102B1900F09002A9E0FEA3E0FF9002A5E0F8A3E08F
:102B29002FFFE83EFEE9F582C3EF9582FFEE9400A0
:102B3900CF24FFCF34FF9001C9F0A3EFF09002B387
:102B4900E0FEA3E0FF9002A7E0F8A3E02FFFE83E34
:102B5900FEE9F582C3EF9582FFEE9400CF24FFCF03
:102B690034FF9001CBF0A3EFF0E9FFA3E4F0A3EF6A
:102B7900F09002B1E0FFA3E09001CFCFF0A3EFF016
:0F2B89009002AEE09001D1F0D007D006025DE5DA
:107FEA00E0FFA3E0900020CFF0A3EFF09002A5E01D
:047FFA00FEA3E0FF03
:107FFE00900018EEF0A3EFF0A3ECF0A3EDF0EB4A37
:10800E00606390001EE07002A3E0605990001AE0D9
:10801E00FCA3E0FDAE02AF03900018E0FAA3E02F40
:10802E00FFEA3ECF24FFFBEF34FFFA90001EE0FE86
:10803E00A3E0FF90001AE0F8A3E02FFFE83ECF2464
:10804E00FFCF34FF900028F0A3EFF0900020E0FF68
:10805E00A3E090002ACFF0A3EFF0900018E0FEA36B
:06806E00E0FF1277D522AD
:103C3A009001DAEEF0A3EFF0A3ECF0A3EDF0A3EA23
:043C4A00F0A3EBF008
:103C4E009001DEE0FEA3E0FF7C027DC31224B8E407
:103C5E007BE87A03F9F812235BEF2401FFE43EFEC2
