:020000040800F2
:10000000880600208D01000895010008970100086E
:10001000990100089B0100089D01000800000000F4
:100020000000000000000000000000009F01000828
:10003000A101000800000000A3010008A5010008BC
:10004000A7010008A7010008A7010008A7010008F0
:10005000A7010008A7010008A7010008A7010008E0
:10006000A7010008A7010008A7010008A7010008D0
:10007000A7010008A7010008A7010008A7010008C0
:10008000A7010008A7010008A7010008A7010008B0
:10009000A7010008A7010008A7010008A7010008A0
:1000A000A7010008A7010008A7010008A701000890
:1000B000A7010008A7010008A7010008A701000880
:1000C000A7010008A7010008A7010008A701000870
:1000D000A7010008A7010008A7010008A701000860
:1000E000A7010008A7010008A701000800F002F816
:1000F00000F03CF80AA090E8000C82448344AAF186
:100100000107DA4501D100F031F8AFF2090EBAE883
:100110000F0013F0010F18BFFB1A43F0010318473B
:1001200088110000A8110000103A24BF78C878C1D7
:10013000FAD8520724BF30C830C144BF04680C60ED
:10014000704700000023002400250026103A28BF35
:1001500078C1FBD8520728BF30C148BF0B60704739
:100160001FB501F099F81FBD10B510BD00F06DFE70
:100170001146FFF7F5FF00F029F800F08BFE03B4FD
:10018000FFF7F2FF03BC00F093FE00000948804730
:1001900009480047FEE7FEE7FEE7FEE7FEE7FEE769
:1001A000FEE7FEE7FEE7FEE704480549054A064B81
:1001B00070470000450D0008ED0000088800002091
:1001C0008806002088020020880200204FF05A0A8A
:1001D0004FF0000B00F0B6FD00F048F8504600F07C
:1001E000F4FF06460022104B00F06AFE044600F0C1
:1001F000BFFF00F0FF0B4FF0000910E04FF00008C8
:1002000006E0052000F046F808F1010000F0FF08C4
:10021000B8F1080FF5DB09F1010000F0FF09D9453D
:10022000ECDB00BFFEE7000000801640002106E086
:100230000A2100BF0A00A1F1010399B2FAD102001C
:10024000A0F1010398B2F3D17047002107E042F614
:10025000E06100BF0A00A1F1010399B2FAD10200E6
:10026000A0F1010398B2F2D17047000008B5012156
:10027000082000F09BFC4FF47040ADF80000102007
:100280008DF8030003208DF802006946BC4800F099
:10029000D9F908BD10B504464FF40041B84800F044
:1002A0007CFA4FF48041B64800F079FA4FF40051DF
:1002B000B34800F074FA4FF48051B14800F06FFA7F
:1002C0002046FFF7C2FF4FF40041AD4800F065FA49
:1002D0004FF48041AA4800F062FA4FF40051A84858
:1002E00000F05DFA4FF48051A54800F056FA204620
:1002F000FFF7ABFF4FF40041A14800F050FA4FF474
:1003000080419F4800F04BFA4FF400519C4800F0A8
:1003100046FA4FF480519A4800F03FFA2046FFF722
:1003200094FF4FF40041964800F039FA4FF48041B1
:10033000934800F034FA4FF40051914800F02DFA40
:100340004FF480518E4800F028FA2046FFF77DFFD9
:100350004FF400418A4800F022FA4FF48041884867
:1003600000F01DFA4FF40051854800F016FA4FF4E2
:100370008051834800F013FA2046FFF766FF4FF4E0
:1003800000417F4800F00BFA4FF480417C4800F0B8
:1003900004FA4FF400517A4800F0FFF94FF480510D
:1003A000774800F0FCF92046FFF74FFF4FF400417B
:1003B000734800F0F4F94FF48041714800F0EDF912
:1003C0004FF400516E4800F0EAF94FF480516C4848
:1003D00000F0E5F92046FFF738FF4FF40041684888
:1003E00000F0DBF94FF48041654800F0D6F94FF496
:1003F0000051634800F0D3F94FF48051604800F099
:10040000CEF92046FFF721FF10BD10B504464FF48A
:1004100000415B4800F0C1F94FF48041584800F0BA
:10042000BEF94FF40051564800F0B9F94FF480512D
:10043000534800F0B4F92046FFF707FF4FF400419E
:100440004F4800F0AAF94FF480414D4800F0A5F95B
:100450004FF400514A4800F0A2F94FF48051484847
:1004600000F09DF92046FFF7F0FE4FF400414448AC
:1004700000F095F94FF48041414800F08EF94FF4B7
:1004800000513F4800F08BF94FF480513C4800F098
:1004900086F92046FFF7D9FE4FF40041384800F0B6
:1004A0007EF94FF48041364800F077F94FF400515F
:1004B000334800F072F94FF48051314800F06FF981
:1004C0002046FFF7C2FE4FF400412D4800F067F9C7
:1004D0004FF480412A4800F062F94FF40051284857
:1004E00000F05BF94FF48051254800F058F92046A0
:1004F000FFF7ABFE4FF40041214800F050F94FF4F4
:1005000080411F4800F04BF94FF400511C4800F0A7
:1005100044F94FF480511A4800F03FF92046FFF7A4
:1005200094FE4FF40041164800F039F94FF4804131
:10053000134800F034F94FF40051114800F02FF93E
:100540004FF480510E4800F028F92046FFF77DFE59
:100550004FF400410A4800F020F94FF48041084868
:1005600000F01DF94FF40051054800F018F94FF460
:100570008051034800F011F92046FFF766FE10BDD8
:10058000000C014010B50446CA48844208D101213C
:10059000042000F025FB0021042000F021FB46E0B0
:1005A000C548844208D10121082000F019FB002130
:1005B000082000F015FB3AE0C048844208D1012130
:1005C000102000F00DFB0021102000F009FB2EE0B0
:1005D000BB48844208D10121202000F001FB00210A
:1005E000202000F0FDFA22E0B648844208D1012123
:1005F000402000F0F5FA0021402000F0F1FA16E06A
:10060000B148844208D10121802000F0E9FA00219C
:10061000802000F0E5FA0AE0AC48844207D10121CD
:10062000801500F0DDFA0021A01500F0D9FA10BD08
:1006300010B50121084600F0D3FA0021012000F096
:10064000CFFA10BD2DE9F04102460025002600201A
:1006500000230024002791F803C00CF00F0591F847
:1006600003C01CF0100F03D091F802C04CEA05053E
:10067000B1F800C01CF0FF0F31D0146800202BE04F
:100680004FF0010C0CFA00F3B1F800C00CEA0306BD
:100690009E4220D183004FF00F0C0CFA03F7BC43AD
:1006A00005FA03FC4CEA040491F803C0BCF1280FDE
:1006B00006D14FF0010C0CFA00FCC2F814C00AE09D
:1006C00091F803C0BCF1480F05D14FF0010C0CFAB2
:1006D00000FCC2F810C0401C0828D1D31460B1F847
:1006E00000C0BCF1FF0F34DD546800202EE000F1A3
:1006F000080C4FF0010808FA0CF3B1F800C00CEA3E
:1007000003069E4221D183004FF00F0C0CFA03F731
:10071000BC4305FA03FC4CEA040491F803C0BCF1A5
:10072000280F05D100F1080C08FA0CF8C2F8148063
:1007300091F803C0BCF1480F07D100F1080C4FF04D
:10074000010808FA0CF8C2F81080401C0828CED323
:100750005460BDE8F0814FF6FF7101800221817085
:100760000421C17070470246002093680B4201D0FB
:10077000012000E0002070470146886880B2704781
:1007800002460020D3680B4201D0012000E0002087
:1007900070470146C86880B2704701617047416187
:1007A00070470AB1016100E041617047C160704764
:1007B0004FF480320A438261816182618269826979
:1007C000704702460020424B18684FF6807318406D
:1007D00040EA021008433E4B186070473D49C8612B
:1007E0007047F0B50A46002300240021002500F0E0
:1007F0000046B6F1004F02D1354EF16901E0344EAA
:100800007168C0F3034583B200F44016B6F5401F8B
:1008100008D121F070612E4E766826F070662C4F5C
:100820007E6012E000F48016B6F5801F06D1032624
:1008300006FA05F4A14341F0706106E0460D360169
:1008400003FA06F6B14341F0706122B1460D36015C
:1008500003FA06F6314300F00046B6F1004F02D12C
:100860001B4EF16101E01A4E7160F0BD30B50022FF
:100870008B071C0F0F2303FA04F2154B08338C105F
:1008800053F824309343124C08348D1044F825302B
:1008900023468C1053F824308C07240F00FA04F4FC
:1008A00023430B4C08348D1044F8253030BD0A49E1
:1008B0000860704700080140000C01400010014032
:1008C0000014014000180140001C014000200140BC
:1008D0000000014000002042DC002042DC480068AB
:1008E00040F00100DA49086008464068D9490840EC
:1008F000D749486008460068D7490840D44908608D
:100900000846006820F4802008600846406820F40B
:10091000FE0048604FF41F0088607047CC490968AA
:1009200021F48031CA4A11601146096821F48021FE
:100930001160B0F5803F03D0B0F5802F0ED106E0F6
:10094000C349096841F48031C14A116007E0C049D8
:10095000096841F4A021BE4A116000E000BF00BF59
:10096000704710B501460022002300204A11012AD9
:1009700002D1B74C236806E0022A02D1B44C236AA4
:1009800001E0B34C636A01F01F02012494401C4251
:1009900001D0012000E0002010BD70B5002400252A
:1009A000002600BF3120FFF7DCFF0646641CB4F5CB
:1009B000A06F01D0002EF5D03120FFF7D2FF08B193
:1009C000012500E00025284670BD01460020A04A10
:1009D000106820F0F80040EAC100106070479F499D
:1009E0000860704702460020994B586820F47C103C
:1009F00042EA01031843964B5860704797490866CE
:100A0000704701460020924A506820F003000843D6
:100A1000506070478E48406800F00C0070470146F7
:100A200000208B4A506820F0F00008435060704767
:100A300001460020864A506820F4E0600843506078
:100A4000704701460020824A506820F4605040EA16
:100A5000C1005060704729B17D4A527A02437C4BF5
:100A60005A7206E07A4A527AC343DBB21A40784B94
:100A70005A7270477A490860704701460020744AEC
:100A8000506820F440400843506070470021754A88
:100A900011706F4A82F82010012802D0042808D172
:100AA00003E001216F4A117004E005216D4A1170C5
:100AB00000E000BF00BF70476B49086070476449A1
:100AC000096A0143624A1162704767494439086004
:100AD000704730B500210022002400235C4D6D6872
:100AE00005F00C0121B1042905D0082923D105E026
:100AF0005E4D056022E05D4D05601FE0544D6D6860
:100B000005F47012524D6D6805F48034022505EB32
:100B100092421CB9564D554305600BE04C4D6D6833
:100B200015F4003F03D0524D5543056002E04F4D90
:100B30005543056002E04D4D056000BF00BF444DC8
:100B40006D6805F0F00109094A4D6B5C0568DD40F0
:100B500045603F4D6D6805F4E061090A454D6B5CE9
:100B60004568DD4085603A4D6D6805F46051C90AFD
:100B7000404D6B5C4568DD40C560354D6D6805F4E2
:100B80004041890B3C4D6B5CC568B5FBF3F50561D5
:100B900030BD29B12E4A526902432D4B5A6104E0FF
:100BA0002B4A526982432A4B5A61704729B1284A1D
:100BB00092690243264B9A6104E0254A9269824376
:100BC000234B9A61704729B1214AD2690243204BD5
:100BD000DA6104E01E4AD26982431D4BDA61704734
:100BE00029B11B4AD2680243194BDA6004E0184A63
:100BF000D2688243164BDA60704729B1144A1269F1
:100C00000243134B1A6104E0114A12698243104BEC
:100C10001A61704714494039086070470F49C86429
:100C200070470B49C87170470948406A40F08070AE
:100C300007494862704701460020054A92680A4207
:100C400001D0012000E00020704701498872704700
:100C5000001002400000FFF8FFFFF6FE00004242D5
:100C6000D8004242201002408004424200127A0022
:100C700000093D000000002010000020002100209D
:100C8000674A126842F48032654B1A6000BF644ABA
:100C9000126802F40030491C10B9B1F5A06FF6D10A
:100CA0005F4A126812F4003F01D0012000E00020EA
:100CB000012842D15B4A126842F01002594B1A6077
:100CC0001A46126822F003021A601A46126842F0AD
:100CD00002021A60524A5268514B5A601A465268D0
:100CE0005A601A46526842F480625A601A46526844
:100CF00022F47C125A601A46526842F4E8125A6092
:100D00001A46126842F080721A6000BF444A1268A4
:100D100012F0007FFAD0424A526822F00302404BA0
:100D20005A601A46526842F002025A6000BF3C4ABA
:100D3000526802F00C02082AF9D1704710B5FFF78B
:100D40009DFF10BD10B53648006840F001003449E1
:100D50000860084640683449084031494860084600
:100D60000068324908402E4908600846006820F4AF
:100D7000802008600846406820F4FE0048604FF478
:100D80001F008860FFF7DAFF4FF000602849086015
:100D900010BD10B5002100200022214B5B6803F03C
:100DA0000C0121B1042906D0082928D107E0214BE4
:100DB000214C236027E01F4B1F4C236023E0184B7E
:100DC0005B6803F47010164B5B6803F480320223F7
:100DD00003EB904022B9194B4343174C23600DE0BD
:100DE0000F4B5B6813F4003F04D0144B4343124C89
:100DF000236003E00F4B43430F4C236003E00D4B94
:100E00000D4C236000BF00BF054B5B68C3F30313A9
:100E10000B4CE15C084B1B68CB40074C236010BDBA
:100E200000100240002002400000FFF8FFFFF6FE25
:100E300008ED00E000127A001400002000093D00D7
:100E400018000020704770477047754600F028F87A
:100E5000AE4605006946534620F00700854618B0A7
:100E600020B5FFF7A1F9BDE820404FF000064FF094
:100E700000074FF000084FF0000B21F00701AC46CF
:100E8000ACE8C009ACE8C009ACE8C009ACE8C009EE
:100E90008D4670470446AFF300802046FFF76FF998
:100EA0000048704728000020004870472C000020B0
:100EB00001491820ABBEFEE7260002007047000083
:100EC0002DE9C04130B4DFF8A0C23CEA111418BFCC
:100ED0003CEA131400F0EC8081EA03051CEA1114CB
:100EE00044EAD57418BF1CEA131500F0C780A4EBC0
:100EF00005044FF0004545EAC12145EAC32341EA14
:100F0000505143EA525304F17F74994204F500347E
:100F10004FEAC0204FEAC22208BF904200F09C80F6
:100F20004FEA13650FF24016765D4FEA134506FB54
:100F300005F7C7F1807706FB07F74FEAD737A7FB1E
:100F400003687642C8F58038A7FB06CE38BFA8F103
:100F5000010807FB08E64FF0000EA6FB028CE6FB3B
:100F600003CEDCF1000CCEF1004E38BFAEF1010E25
:100F7000A6FB0C584FF000074FF00005E6FB0E876C
:100F8000A1FB08C6A0FB07CE16EB0E0645F1000537
:100F9000E1FB076515F1E04E7EBFA4F580345FEA02
:100FA00046066D4116F1800745F100054FEA172707
:100FB0004FEA066647EA0567A6F1DE46B6F1805FAE
:100FC0004FEA15251FD9384624F0010C05EBC471F2
:100FD000BCF1FE6F01EB0C1102D8F0BCBDE8008142
:100FE00024425CBF01F5801E9EEAC47F02D4F0BC9F
:100FF000BDE80081244238D4F0BCA1F1C041BDE875
:10100000004100F043B94FEAD22242EA43524FEA8C
:10101000D323A7FB02864FEAD02040EA415007FBCA
:1010200003661EEA0E0F4FEAD12105FB026658BF88
:10103000A6EB0056B6EB00564FEA520E4EEAC37EC0
:1010400018EB0E0E56EB530EBDD518EB02085E41A1
:101050007F1C55F10005B6E74FF480154FF00007EF
:101060004FF000064FF00008ADE7F0BC4FF0000075
:1010700001F1C04101F00041BDE8008111EA0C1FFF
:101080000CEA131500D00CE013EA0C1F00F02580C9
:101090004FF00000F0BC81EA030101F00041BDE81F
:1010A0000081F0BCBDE8004181EA030100F0EEB828
:1010B000F0BCBDE8004170B500F09AF8097EFC3E36
:1010C00000F007B881EA03014FF0000001F0004191
:1010D000704781EA030100F0D9B8F0BCBDE80041D7
:1010E0004FF0000021497047FFFDFBF9F7F5F4F2DE
:1010F000F0EEEDEBE9E8E6E4E3E1E0DEDDDBDAD8B3
:10110000D7D5D4D3D1D0CFCDCCCBCAC8C7C6C5C410
:10111000C2C1C0BFBEBDBCBBBAB9B8B7B6B5B4B327
:10112000B2B1B0AFAEADACABAAA9A8A8A7A6A5A412
:10113000A3A3A2A1A09F9F9E9D9C9C9B9A999998D6
:101140009797969595949393929191908F8F8E8E79
:101150008D8C8C8B8B8A8989888887878685858406
:1011600084838382828181800000FF070000F87FF2
:101170004FEA1153A3F58063D3F11E03A8BFD3F147
:10118000200C08DB4FF0004242EAC12252EA5052E2
:1011900032FA03F0704709420BD4102BC4BF002071
:1011A000704703F5787CBCF1FF3F05D04FF0FF306E
:1011B00070474FF00000704770B500F019F800BF9D
:1011C0004992248000207047F0E7B0FA80F310FACB
:1011D00003F10AD0C3F11D0303F580634FEA4150C8
:1011E0004FEA035202EBD12170474FF000007047E5
:1011F0000EF1020E2EF0030E5EF8046B364205D49B
:10120000012A43EB030515F5001F12D8012841EB15
:10121000010C1CF5001F0CD80ED14FEAD17C15F53E
:10122000001F0CEB4C0C0CF1020C08BF4CEBD37CF8
:1012300004E04FF0080C01E04FEAD37C0CEB4C05C6
:1012400026FA05F606F00706B6F1040C06D20EEBF8
:10125000860CBDE870404CF0010C6047DFE80CF0F4
:10126000090B02024FF000414FF00000A1F50021F0
:1012700070BD19461046012851EB010418BFD4F582
:10128000001484BF002001F0004170BD0808A0F5E3
:1012900000114FEA3101704710B5FFF705FE4FF01E
:1012A0000001016010BD0000C8120008000000200D
:1012B0002800000028010008F01200082800002083
:1012C0006006000044010008000000000102030461
:1012D00001020304060708090204060800A24A04E2
:1012E00000000000000000000102030406070809D6
:04000005080000ED02
:00000001FF
