:020000040800F2
:10000000C806002045050008290500082B05000842
:100010002F05000833050008370500080000000020
:100020000000000000000000000000003B05000888
:100030003D050008000000005705000841050008C4
:100040005B0500085B0500085B0500085B05000810
:100050005B0500085B0500085B0500085B05000800
:100060005B0500085B0500085B0500085B050008F0
:100070005B0500085B0500085B0500085B050008E0
:100080005B0500085B0500085B0500085B050008D0
:100090005B0500085B0500085B0500085B050008C0
:1000A0005B0500085B0500085B0500085B050008B0
:1000B0005B0500082F3B00085B0500085B05000896
:1000C0005B0500085B0500085B0500085B05000890
:1000D0005B050008D93100085B0500085B050008D6
:1000E0005B0500085B0500085B050008DFF80CD025
:1000F00003F04EFD0048004777340008C806002092
:1001000030B5044600250B4602E0E05C05445B1C6C
:100110009342FAD3501AB5FBF0F0C0B230BDF0B53F
:100120000D46134629460DE04A1C08E0465C875CF4
:10013000BE4203DD445C865C46548454521C9A42A1
:10014000F4D3491C5E1E8E42EED8F0BD002800DAC2
:100150000020704710B54FF47A72B0FBF2F23032E3
:100160008A704FF47A72B0FBF2F302FB130264233D
:10017000B2FBF3F23032CA704FF47A72B0FBF2F392
:1001800002FB13026423B2FBF3F403FB14220A23E1
:10019000B2FBF3F230320A714FF47A72B0FBF2F331
:1001A00002FB13026423B2FBF3F403FB14220A23C1
:1001B000B2FBF3F403FB142230328A7110BD10B588
:1001C0006422B0FBF2F230328A716422B0FBF2F3A7
:1001D00002FB13020A23B2FBF3F23032CA7164222B
:1001E000B0FBF2F302FB13020A23B2FBF3F403FBAE
:1001F000142230320A7210BD10B56422B0FBF2F244
:1002000030328A706422B0FBF2F302FB13020A233D
:10021000B2FBF3F23032CA706422B0FBF2F302FB9D
:1002200013020A23B2FBF3F403FB142230320A71E7
:1002300010BD06E04FF47A7100E0491E0029FCD1A0
:10024000401E0028F6D17047002105E00A2100BFBA
:100250000A1EA1F10101FBD1021EA0F10100F5D19E
:100260007047002106E042F6E06100BF0A1EA1F1DE
:100270000101FBD1021EA0F10100F4D1704710B5BD
:100280006FF0040000F0BBF92B4800682B49B0FB6D
:10029000F1F02B490870084600784FF47A71484312
:1002A0002849086010BD0146254A12784A434FF09C
:1002B000E0235A6100229A611A46126942F0010253
:1002C0001A6100BF4FF0E022106900F001021AB17C
:1002D00000F48032002AF5D04FF0E022126922F0BB
:1002E00001024FF0E0231A6100229A617047014633
:1002F000144A12684A434FF0E0235A6100229A617F
:100300001A46126942F001021A6100BF4FF0E02262
:10031000106900F001021AB100F48032002AF5D011
:100320004FF0E022126922F001024FF0E0231A613F
:1003300000229A61704700000800002000127A0035
:1003400000000020040000200CB500200190009067
:100350006C48006840F480306A49086000BF694812
:10036000006800F4003000900198401C0190009853
:1003700018B90198B0F5A06FF1D16248006800F497
:10038000003010B10120009001E0002000900098A2
:10039000012843D15C48006840F010005A490860C9
:1003A0000846006820F0030008600846006840F036
:1003B0000200086053484068524948600846406857
:1003C00048600846406840F48060486008464068DD
:1003D00020F47C1048600846406840F4E81048600B
:1003E0000846006840F08070086000BF454800681B
:1003F00000F000700028F9D04248406820F0030067
:10040000404948600846406840F00200486000BF2C
:100410003C48406800F00C000828F9D10CBD10B52C
:10042000FFF792FF10BD10B504463648006840F053
:1004300001003449086008464068344908403149A1
:10044000486008460068324908402E49086008465E
:10045000006820F4802008600846406820F4FE0010
:1004600048604FF41F008860FFF7D9FF44F0006038
:100470002849086010BD10B5002100200022214B42
:100480005B6803F00C0121B1042906D0082928D1AA
:1004900007E0214B214C236027E01F4B1F4C2360BA
:1004A00023E0184B5B6803F47010164B5B6803F491
:1004B0008032022303EB904022B9194B4343174C7F
:1004C00023600DE00F4B5B6803F4003323B1144B42
:1004D0004343124C236003E00F4B43430F4C236014
:1004E00003E00D4B0D4C236000BF00BF054B5B6864
:1004F000C3F303130B4CE15C084B1B68CB40074C68
:10050000236010BD00100240002002400000FFF8F0
:10051000FFFFF6FE08ED00E000127A000800002060
:1005200000093D000C000020704700BFFEE700BF3F
:10053000FEE700BFFEE700BFFEE770477047704769
:100540007047000005480047FEE7FEE7FEE7FEE7CC
:10055000FEE7FEE7FEE7FEE7FEE7FEE7ED00000848
:1005600031490143314A1160704770B500210023C1
:100570000F22C47804B32D4C246804F4E064C4F55D
:10058000E064210AC1F10403CA40447804FA03F18B
:100590008478144021430901254C0678A15504783C
:1005A00004F01F050124AC4005786D11AD0005F184
:1005B000E025C5F8004109E0047804F01F05012496
:1005C000AC401C4D0678761145F8264070BD1A4A9D
:1005D0000A400243154B1B1F1A60704739B1134A7A
:1005E000121D12680243114B1B1D1A6006E00F4AD0
:1005F000121D126882430D4B1B1D1A6070470428A0
:1006000008D14FF0E021096941F004014FF0E022E8
:10061000116107E04FF0E021096921F004014FF07A
:10062000E0221161704700000000FA050CED00E0C7
:1006300000E400E080E100E080FFFF1F10B5044609
:10064000FA48844208D10121401500F059FD0021EB
:10065000601500F055FD17E0F548844208D10121EE
:10066000001500F04DFD0021201500F049FD0BE0C4
:10067000F048844208D10121C80300F041FD002167
:100680004FF4004000F03CFD10BD30B502460020A4
:1006900000235068E84C20400D790C6844EA05249A
:1006A000204350609068E54C2040D1E902542C432F
:1006B0004D7944EA450420439060D06A20F47000EC
:1006C0000C7C641EE4B2234340EA0350D06230BD88
:1006D00000210160017141718160C16001210174DB
:1006E000704721B1826842F00102826003E08268B3
:1006F00022F001028260704721B1826842F4807268
:10070000826003E0826822F480728260704710B5D4
:100710000023CBB21AB144681C43446002E0446831
:100720009C43446010BD816841F0080181607047BE
:10073000014600208A6802F008020AB1012000E0A8
:1007400000207047816841F00401816070470146D4
:1007500000208A6802F004020AB1012000E00020B3
:10076000704721B1826842F4A002826003E082688F
:1007700022F4A00282607047014600208A6802F4D9
:1007800080020AB1012000E00020704710B50A463F
:1007900000210023416821F46041531E41EA4331A6
:1007A000416010BD21B1426842F40062426003E042
:1007B000426822F4006242607047F0B504460D467C
:1007C00000200021092D11DDE068A5F10A0606EBE5
:1007D0004607072606FA07F18843A5F10A0606EB45
:1007E000460603FA06F10843E0600CE0206905EBD9
:1007F0004507072606FA07F1884305EB450603FA85
:1008000006F108432061072A0FDA606B561E06EBDB
:1008100086071F2606FA07F18843561E06EB860652
:1008200005FA06F10843606322E00D2A0FDA206B17
:10083000D61F06EB86071F2606FA07F18843D61F48
:1008400006EB860605FA06F10843206310E0E06A2D
:10085000A2F10D0606EB86071F2606FA07F188436C
:10086000A2F10D0606EB860605FA06F10843E062E2
:10087000F0BD21B1826842F48012826003E0826898
:1008800022F48012826070470146C86C80B27047C3
:1008900066484C300068704721B1426842F480627B
:1008A000426003E0426822F480624260704721B1F6
:1008B000426842F48052426003E0426822F480526F
:1008C000426070470A460021816821F4E0411143EB
:1008D0008160704721B1826842F40042826003E087
:1008E000826822F400428260704721B1826842F43B
:1008F0000212826003E0826822F402128260704772
:10090000014600208A6802F400120AB1012000E0CA
:1009100000207047F0B5044615460020002200264E
:10092000092911DDE068A1F10A0707EB470C072749
:1009300007FA0CF29043A1F10A0707EB470703FA05
:1009400007F21043E0600CE0206901EB410C07273F
:1009500007FA0CF2904301EB410703FA07F2104348
:100960002061A06BC0F30156EF1C06F1010CA7EB50
:100970000C0707EB870C1F2707FA0CF29043EF1CBC
:1009800006F1010CA7EB0C0707EB870701FA07F24A
:100990001043A063F0BD10B50A4600210023816B0F
:1009A00021F44011531E41EA0351816310BD08B583
:1009B000002300930090009B0B440093009B1A605F
:1009C00008BD08B5024600200090009201F1280001
:1009D000009B184400900098006880B208BD0A4649
:1009E00000214168164B1940114341607047416234
:1009F000826270470A460021416821F01F011143BD
:100A00004160704740B109490831096841F400016B
:100A1000064A0832116007E004490831096821F4E8
:100A20000001024A083211607047000000240140B2
:100A300000280140003C0140FFFEF0FFFDF7F1FF00
:100A4000FFFD3FFF0246002013680B400BB1012061
:100A500000E000207047CA430260704770B502464C
:100A60000020002300240B125568CEB205EA0604CC
:100A700015681D4015B10CB1012000E0002070BDCB
:100A800000220A12D34303607047000010B50446E9
:100A9000CE48844208D10121042000F031FB00211E
:100AA000042000F02DFB46E0C948844208D1012112
:100AB000082000F025FB0021082000F021FB3AE08F
:100AC000C448844208D10121102000F019FB002104
:100AD000102000F015FB2EE0BF48844208D1012110
:100AE000202000F00DFB0021202000F009FB22E077
:100AF000BA48844208D10121402000F001FB0021C6
:100B0000402000F0FDFA16E0B548844208D10121EA
:100B1000802000F0F5FA0021802000F0F1FA0AE0D0
:100B2000B048844207D10121801500F0E9FA002184
:100B3000A01500F0E5FA10BD10B50121084600F03F
:100B4000DFFA0021012000F0DBFA10BD2DE9F041B1
:100B5000024600250026002000230024002791F8EB
:100B600003C00CF00F0591F803C00CF0100CBCF1A1
:100B7000000F03D091F802C04CEA050591F800C0BF
:100B8000BCF1000F31D0146800202BE04FF0010CB5
:100B90000CFA00F3B1F800C00CEA03069E4220D123
:100BA00083004FF00F0C0CFA03F7BC4305FA03FC6B
:100BB0004CEA040491F803C0BCF1280F06D14FF0B1
:100BC000010C0CFA00FCC2F814C00AE091F803C052
:100BD000BCF1480F05D14FF0010C0CFA00FCC2F833
:100BE00010C0401C0828D1D31460B1F800C0BCF17B
:100BF000FF0F34DD546800202EE000F1080C4FF0A8
:100C0000010808FA0CF3B1F800C00CEA03069E4292
:100C100021D183004FF00F0C0CFA03F7BC4305FA07
:100C200003FC4CEA040491F803C0BCF1280F05D181
:100C300000F1080C08FA0CF8C2F8148091F803C00F
:100C4000BCF1480F07D100F1080C4FF0010808FA79
:100C50000CF8C2F81080401C0828CED35460BDE8C0
:100C6000F0814FF6FF710180022181700421C17073
:100C700070470246002093680B400BB1012000E052
:100C8000002070470146886880B270470246002005
:100C9000D3680B400BB1012000E0002070470146F3
:100CA000C86880B2704701617047416170470AB1FE
:100CB000016100E0416170470AB1016100E04161FA
:100CC0007047C16070474FF480320A43826181618E
:100CD000826182698269704702460020424B18682F
:100CE0004FF68073184040EA021008433E4B1860EC
:100CF00070473E49C8617047F0B50A46002300249A
:100D00000021002500F00046B6F1004F02D1364E1A
:100D1000F16901E0344E7168C0F3034583B200F419
:100D20004016B6F5401F08D121F070612E4E76684E
:100D300026F070662C4F7E6012E000F48016B6F547
:100D4000801F06D1032606FA05F4A14341F0706125
:100D500006E0460D360103FA06F6B14341F0706134
:100D600022B1460D360103FA06F6314300F0004683
:100D7000B6F1004F02D11C4EF16101E01A4E7160D4
:100D8000F0BD30B500228B071C0F0F2303FA04F2CD
:100D9000154B08338C1053F824309343124C08340D
:100DA0008D1044F8253023468C1053F824308C07DE
:100DB000240F00FA04F423430B4C08348D1044F83C
:100DC000253030BD0949DC3108607047000801401A
:100DD000000C0140001001400014014000180140C7
:100DE000001C0140002001400000014000002042A2
:100DF000DF48006840F00100DD49086008464068AF
:100E0000DC490840DA49486008460068DA49084089
:100E1000D74908600846006820F48020086008462A
:100E2000406820F4FE0048604FF41F00886070475F
:100E3000CF49096821F48031CD4A11601146096813
:100E400021F480211160B0F5803F03D0B0F5802FF0
:100E50000ED106E0C649096841F48031C44A1160E8
:100E600007E0C349096841F4A021C14A116000E0CC
:100E700000BF00BF704710B50146002200230020CC
:100E80004A11012A02D1BA4C236806E0022A02D193
:100E9000B74C236A01E0B64C636A01F01F020124DB
:100EA00094401C400CB1012000E0002010BD38B57A
:100EB000002000900024002500BF3120FFF7DBFF59
:100EC00005460098401C00900098B0F5A06F01D036
:100ED000002DF2D03120FFF7CEFF08B1012400E051
:100EE0000024204638BD01460020A14A106820F0A9
:100EF000F80040EAC10010607047A04908607047E0
:100F0000024600209A4B586820F47C1042EA010304
:100F10001843974B586070479849086670470146D8
:100F20000020934A506820F0030008435060704747
:100F30008F48406800F00C007047014600208C4A42
:100F4000506820F0F00008435060704701460020D0
:100F5000874A506820F4E0600843506070470146BB
:100F60000020834A506820F4605040EAC10050607D
:100F7000704729B17E4A527A02437D4B5A7204E08F
:100F80007B4A527A82437A4B5A7270477B49D831F6
:100F90000860704701460020754A506820F44040C0
:100FA0000843506070470021714A20321170704A26
:100FB00082F82010012802D004280AD104E001217F
:100FC0006B4A2032117005E00521694A2032117008
:100FD00000E000BF00BF704769490860704764497E
:100FE000096A0143624A11627047654944390860E1
:100FF000704730B500210022002400235C4D6D684D
:1010000005F00C0121B1042905D0082923D105E000
:101010005C4D056022E05B4D05601FE0544D6D683E
:1010200005F47012524D6D6805F48034022505EB0D
:1010300092421CB9544D554305600BE04C4D6D6810
:1010400005F400351DB1504D5543056002E04D4D8E
:101050005543056002E04B4D056000BF00BF444DA5
:101060006D6805F0F0010909484D6B5C0568DD40CD
:1010700045603F4D6D6805F4E061090A434D6B5CC6
:101080004568DD4085603A4D6D6805F46051C90AD8
:101090003E4D6B5C4568DD40C560354D6D6805F4BF
:1010A0004041890B3A4D6B5CC568B5FBF3F50561B2
:1010B00030BD29B12E4A526902432D4B5A6104E0DA
:1010C0002B4A526982432A4B5A61704729B1284AF8
:1010D00092690243264B9A6104E0254A9269824351
:1010E000234B9A61704729B1214AD2690243204BB0
:1010F000DA6104E01E4AD26982431D4BDA6170470F
:1011000029B11B4AD2680243194BDA6004E0184A3D
:10111000D2688243164BDA60704729B1144A1269CB
:101120000243134B1A6104E0114A12698243104BC7
:101130001A61704712494039086070470F49C86406
:1011400070470B49C87170470948406A40F0807089
:1011500007494862704701460020054A92680A40E4
:101160000AB1012000E000207047014988727047F1
:10117000001002400000FFF8FFFFF6FE00004242B0
:101180008004424200127A0000093D001C00002049
:101190002C00002010B50446BE48844208D101212D
:1011A0008014FFF7ADFF0021A014FFF7A9FF16E0A0
:1011B000B948844208D101210014FFF7AEFF002195
:1011C0002014FFF7AAFF0AE0B448844207D10121A6
:1011D000C013FFF7A2FF0021E013FFF79EFF10BD31
:1011E00010B50022028802F441520B884C88234338
:1011F0008C882343CC8823430C8923434C89234385
:101200008C892343CC8923431A430280838B4FF27A
:10121000FF74234083830B8A038210BD2DE9F04FB6
:1012200085B005460C464FF0000902274FF0000834
:101230004FF0010B0026B246A88B4FF24001084048
:10124000A88302202884B5F81C90A068022801D148
:1012500000BF38E0A08810B94FF0010B01E04FF05B
:10126000020B8D48854200D100E000BF6846FFF7C1
:10127000C0FEDDF800A0E088B0F5007F0AD14FEA9B
:101280001A2000EB80004000A168B0FBF1F0401D87
:1012900086B20BE04FEA4B10BAFBF0F000EB800097
:1012A0004000A168B0FBF1F0401D86B20A20B6FBF9
:1012B000F0F606F00108A6EB0800C0F34F074FF662
:1012C000FF7000EA0828022F01DBFF2F02DD022752
:1012D0004FF00008E08840EA080038432884A088DE
:1012E000A1890843618808432188084340F40060CD
:1012F00040EA0909A5F81C9005B0BDE8F08F00216F
:10130000018041808180C180018141818181C181D1
:101310000721018270470021018041808180C180C6
:101320000221816000218181704721B1028842F051
:101330004002028004E002884FF6BF731A40028028
:10134000704721B1828B42F48062828304E0828BF9
:101350004FF6FF331A408283704730B500240023D4
:101360000C110125A540ABB21AB185881D438580BB
:1013700002E085889D43858030BD1AB183880B4388
:10138000838002E083888B4383807047818170472C
:101390000146888970474FF6FF62914204D0028867
:1013A00042F48072028004E002884FF6FF631A4024
:1013B0000280704721B1828842F00402828004E0FA
:1013C00082884FF6FB731A408280704702884FF282
:1013D000FF731A40028002880A4302807047018826
:1013E00041F480510180704721B1028842F40052DB
:1013F000028004E002884DF6FF731A4002807047B5
:1014000002460020012901D0108B00E0908A70472D
:101410000146088A7047B1F5804F04D1028842F432
:101420008042028004E002884BF6FF731A4002807B
:1014300070470246002013890B400BB1012000E0E9
:1014400000207047CA4302817047F0B50246002071
:1014500000240023002501F00F070126BE40B4B28E
:101460000B1101269E40B3B2968806EA0305168941
:10147000264016B10DB1012000E00020F0BD10B5EE
:10148000002201F00F040123A3409AB2D343038149
:1014900010BD00000030014000380040003C00401A
:1014A00010B50446FE48844208D10121C014FFF75C
:1014B00027FE0021E014FFF723FEC4E0B4F1804FC3
:1014C00008D101210846FFF728FE00210120FFF77F
:1014D00024FEB8E0F348844208D101210220FFF73E
:1014E0001CFE00210220FFF718FEACE0EE4884420B
:1014F00008D101210420FFF710FE00210420FFF78E
:101500000CFEA0E0E948844208D101210820FFF741
:1015100004FE00210820FFF700FE94E0E448844226
:1015200008D101211020FFF7F8FD00211020FFF75E
:10153000F4FD88E0DF48844208D101212020FFF734
:10154000ECFD00212020FFF7E8FD7CE0DA48844232
:1015500008D101214014FFF7D3FD00216014FFF7EB
:10156000CFFD70E0D548844209D10121C804FFF7BE
:10157000C7FD00214FF40020FFF7C2FD63E0D04813
:10158000844209D101210805FFF7BAFD00214FF47B
:101590008010FFF7B5FD56E0CA48844209D1012109
:1015A0004805FFF7ADFD00214FF40010FFF7A8FD3F
:1015B00049E0C548844208D101214020FFF7ADFD34
:1015C00000214020FFF7A9FD3DE0C048844208D13A
:1015D00001218020FFF7A1FD00218020FFF79DFD64
:1015E00031E0BB48844208D101218015FFF795FD09
:1015F0000021A015FFF791FD25E0B648844209D1EE
:1016000001210804FFF77CFD00214FF48030FFF733
:1016100077FD18E0B048844209D101214804FFF762
:101620006FFD00214FF40030FFF76AFD0BE0AB487F
:10163000844208D101218804FFF762FD00214FF4A4
:101640008020FFF75DFD10BD00220288944B984278
:101650000ED0994B98420BD0B0F1804F08D0914BEF
:10166000984205D0904B984202D0904B984204D1BA
:101670004FF68F731A404B881A438D4B984207D010
:101680008C4B984204D04FF6FF431A40CB881A4344
:1016900002808B8883850B880385814B98420BD011
:1016A000854B984208D08B4B984205D08A4B984284
:1016B00002D08A4B984201D10B7A038601238382A0
:1016C000704770B5002400220023058C4FF6FE768B
:1016D00035400584028C8388048B4FF68F752C402F
:1016E000B51E2C400D882C43751E2A400D892A43B7
:1016F0004D882A436A4DA8420BD06F4DA84208D0AE
:10170000744DA84205D0744DA84202D0734DA84232
:1017100013D14FF6F7752A404D892A434FF6FB75D2
:101720002A408D882A434FF6FF652B404FF6FF5520
:101730002B408D892B43CD892B4383800483CD8817
:101740008586028470BD70B5002400220023058CBC
:101750004FF6EF7635400584028C8388048B48F67B
:10176000FF752C404FF6FF452C400D884FF6FF7655
:1017700006EA05252C434FF6DF752A400D8906EA57
:1017800005152A434D8806EA05152A43444DA8420B
:1017900002D0494DA8421DD14FF67F752A404D8990
:1017A0004FF6FF7606EA05152A434FF6BF752A4025
:1017B0008D8806EA05152A434FF6FF352B404FF278
:1017C000FF752B408D8906EA85052B43CD8906EAF6
:1017D00085052B4383800483CD880587028470BDF3
:1017E00070B5002400220023058C4FF6FF663540BB
:1017F0000584028C8388848B4FF68F752C404FF6BE
:10180000FC752C400D882C434FF6FF552A400D895E
:101810004FF6FF7606EA05252A434D8806EA052598
:101820002A431F4DA84202D0234DA8421DD14FF29A
:10183000FF752A404D894FF6FF7606EA05252A43B3
:101840004FF6FF352A408D8806EA05252A434EF6D5
:10185000FF752B404DF6FF752B408D8906EA051567
:101860002B43CD8906EA05152B4383808483CD88DD
:101870008587028470BD70B5002200230024058C8A
:101880004EF6FF7635400584038C8488828B48F6BB
:10189000FF752A404FF6FF452A400D8820E00000E2
:1018A000002C01400004004000080040000C0040F3
:1018B000001000400014004000340140004C014082
:1018C000005001400054014000180040001C00403E
:1018D0000020004000400140004401400048014019
:1018E0004FF6FF7606EA05252A434DF6FF752B4095
:1018F0000D8906EA05352B434D8806EA05352B434D
:10190000FA4DA84202D0FA4DA84208D14BF6FF7515
:101910002C408D894FF6FF7606EA85152C4384808E
:101920008283CD88A0F84050038470BD828B4FF233
:10193000FF331A408283828B4FF6FF7303EA012341
:101940001A4382837047F0B50C46154600220021E9
:101950000026078C4EF6FF7C07EA0C070784828B73
:10196000018C4FF6FF7707EA043640F6FF473A400E
:101970004FF6FF7707EA05273A434FF6FF7707EA66
:1019800003373A43D94FB8420ED0D94FB8420BD0A3
:10199000B0F1804F08D0D74FB84205D0D64FB842EB
:1019A00002D0D64FB84206D14DF6FF77394046F403
:1019B0008057394305E047F6FF57394044F48057D4
:1019C000394382830184F0BD828B4FF6F3731A4052
:1019D0008283828B0A4382837047F0B50C4615469A
:1019E000002200210026078C4FF6FF6C07EA0C0747
:1019F0000784828B018C4FF6FF7707EA04264FF6A7
:101A00000C773A404FF6FF7707EA03172F433A4324
:101A1000B64FB8420ED0B64FB8420BD0B0F1804F9F
:101A200008D0B44FB84205D0B34FB84202D0B34F3C
:101A3000B84206D14FF6FF57394046F48077394314
:101A400005E04FF2FF57394044F4807739438283F1
:101A50000184F0BD028B4FF2FF331A400283028BE8
:101A60004FF6FF7303EA01231A4302837047F0B570
:101A70000C461546002200210026078C4FF6EF7C0D
:101A800007EA0C070784028B018C4FF6FF7707EA01
:101A9000041640F6FF473A404FF6FF7707EA033750
:101AA0003A434FF6FF7707EA05273A438F4FB8428C
:101AB0000ED08F4FB8420BD0B0F1804F08D08D4F71
:101AC000B84205D08C4FB84202D08C4FB84206D1F4
:101AD0004FF6DF77394046F01007394305E04FF6FF
:101AE0005F77394044F01007394302830184F0BD29
:101AF000028B4FF6F3731A400283028B0A43028370
:101B00007047F0B50C46154600220021068C4FF6B2
:101B1000FE773E400684028B018C4FF60C763240F5
:101B20007E1C06EA03162E433243704EB0420ED09E
:101B30006F4EB0420BD0B0F1804F08D06D4EB04226
:101B400005D06D4EB04202D06C4EB04206D14FF679
:101B5000FD76314044F00106314305E04FF6F5765D
:101B6000314044F00106314302830184F0BD70B579
:101B700005460C465D4885420ED05D4885420BD037
:101B8000B5F1804F08D05B48854205D05A48854260
:101B900002D05A48854200D100E000BF208850B9E9
:101BA0002389A28861882846FFF7ABFFE188284691
:101BB000FFF79EFF25E0208804280AD12389A28808
:101BC00061882846FFF753FFE1882846FFF742FF68
:101BD00017E0208808280AD12389A288618828462E
:101BE000FFF7FBFEE1882846FFF7EEFE09E02389B8
:101BF000A28861882846FFF7A6FEE1882846FFF7FD
:101C000095FE70BD2DE9F04105460C4600260127E2
:101C1000608808B9022600E00026A088012801D1CA
:101C2000022700E001272088A0B92389A2886188C3
:101C30002846FFF766FFE1882846FFF759FF23890A
:101C40003A4631462846FFF712FFE1882846FFF75B
:101C500001FF13E02389A28861882846FFF707FF68
:101C6000E1882846FFF7F6FE23893A4631462846A2
:101C7000FFF747FFE1882846FFF73AFFBDE8F0810C
:101C80000A884B881A438B881A43CB881A430B89DE
:101C90001A434B891A438B891A43A0F84420704792
:101CA0004FF6FF71818000210180C1804180017267
:101CB00070470021018041808180C1800181418184
:101CC0008181C18170470021018041800121818093
:101CD0000021C18001817047002101804180818005
:101CE000C18001814181818170470000002C014049
:101CF000003401400004004000080040000C004097
:101D000021B1028842F00102028004E002884FF60D
:101D1000FE731A400280704731B1B0F8442042F49B
:101D20000042A0F8442005E0B0F84420C2F30E02BF
:101D3000A0F8442070471AB183890B43838102E0E5
:101D400083898B43838170478182704741EA020314
:101D5000A0F8483070471AB183890B43838102E0B1
:101D600083898B438381704701894FF6F872114054
:101D7000018170470A46002101894FF68F7319408F
:101D800011430181704730B504460D46294620466F
:101D9000FFF7F0FF208940F00700208130BD2DE9DA
:101DA000F04104460D4616461F46602D06D13B46BF
:101DB000012231462046FFF75AFE05E03B4601224C
:101DC00031462046FFF79DFE29462046FFF7D2FF09
:101DD000208940F007002081BDE8F08130B50C4635
:101DE00000210189C9B24FF6FF7505EA03251543A5
:101DF00025432943018130BD2DE9F04105460E46BA
:101E000017469846002443463A4631462846FFF78F
:101E1000E5FF2C894FF6F870044044F007044FF6B4
:101E20008F70044044F070042C81BDE8F081F0B55F
:101E300004460D4616461F463B4632462946204676
:101E4000FFF7CCFF208940F480402081F0BD018560
:101E5000828270470A46002101884FF68F7319402D
:101E6000114301807047F0B50C4615461E4600210F
:101E7000002200230189028B038C4FF6F87739404A
:101E800021434FF6FC473A4040F201173A434FF6E0
:101E9000DD773B404FF6FF7707EA06172F433B43BA
:101EA000018102830384F0BD0A460021018B4FF6B5
:101EB0008F7319401143018370470A460021018B3B
:101EC00048F6FF7319404FF6FF7303EA02231943E4
:101ED000018370470A460021818B4FF68F731940AA
:101EE0001143818370470A460021818B48F6FF73B6
:101EF00019404FF6FF7303EA0223194381837047A9
:101F000021B1028842F08002028004E002884FF68C
:101F10007F731A400280704721B1828842F0040228
:101F2000828004E082884FF6FB731A4082807047FB
:101F300021B1828842F00802828004E082884FF654
:101F4000F7731A408280704721B1828842F0010203
:101F5000828004E082884FF6FE731A4082807047C8
:101F60000A460021018B4FF6F77319401143018394
:101F700070470A460021018B4FF2FF7319404FF65C
:101F8000FF7303EA02231943018370470A460021C5
:101F9000818B4FF6F77319401143818370470A46CE
:101FA0000021818B4FF2FF7319404FF6FF7303EA54
:101FB00002231943818370470A460021018B4FF6A3
:101FC000FB7319401143018370470A460021018BBE
:101FD0004FF6FF3319404FF6FF7303EA022319430C
:101FE000018370470A460021818B4FF6FB7319402D
:101FF0001143818370470A460021818B4FF6FF33DE
:1020000019404FF6FF7303EA022319438183704797
:102010000A460021018B4FF67F731940114301835B
:1020200070470A460021018BC1F30E014FF6FF7382
:1020300003EA02231943018370470A460021818B7A
:102040004FF67F7319401143818370470A46002180
:10205000818BC1F30E014FF6FF7303EA022319438C
:10206000818370470A460021018C4FF6FD731940A9
:102070001143018470470A460021018C4FF6F77323
:1020800019401143018470470A460021018C4FF624
:10209000DF7319404FF6FF7303EA021319430184FB
:1020A00070470A460021018C4FF67F7319404FF6A6
:1020B000FF7303EA02131943018470470A460021A3
:1020C000018C4FF6FF5319404FF6FF7303EA0223CA
:1020D0001943018470470A460021018C4FF2FF73B7
:1020E00019404FF6FF7303EA022319430184704736
:1020F0000A460021018C4DF6FF7319404FF6FF731D
:1021000003EA023319430184704730B500230124E8
:102110008C40A3B2048C9C430484048C02FA01F525
:10212000ADB22C43048430BD30B5002304248C4070
:10213000A3B2048C9C430484048C02FA01F5ADB272
:102140002C43048430BD70B503460020002418469B
:10215000183001258D40ACB21D8CA5431D8409B1FA
:10216000082909D100EB6100056825F070050560BC
:102170000568154305600EE00D1FC5F34E052844A4
:10218000056825F4E045056005684FF6FF7606EA28
:1021900002263543056070BD21B1028842F002027B
:1021A000028004E002884FF6FD731A4002807047F7
:1021B00021B1028842F00402028004E002884FF656
:1021C000FB731A400280704721B1828842F080027E
:1021D000828004E082884FF67F731A4082807047C5
:1021E00002884FF6F7731A40028002880A43028081
:1021F000704782884FF68F731A40828082880A4324
:102200008280704702894FF6F8731A400281028972
:102210000A430281704702894FF67F731A40028198
:1022200002890A4302817047818470478185704723
:10223000818670470187704781877047A0F84010FA
:10224000704702884FF6FF431A40028002880A4313
:10225000028070470146888E70470146088F70479C
:102260000146888F70470146B1F84000704701462B
:10227000888C70470146088D704702460020138AFB
:102280000B400BB1012000E000207047CA430282DE
:10229000704730B50246002000230024158A05EA65
:1022A0000103958905EA010413B10CB1012000E096
:1022B000002030BDCA4302827047000010B50446BA
:1022C000FB48844209D101218803FEF719FF002150
:1022D0004FF48040FEF714FF32E0F648844209D103
:1022E00001214804FEF719FF00214FF40030FEF7EA
:1022F00014FF25E0F048844209D101218804FEF74B
:102300000CFF00214FF48020FEF707FF18E0EB4898
:10231000844209D10121C804FEF7FFFE00214FF4D9
:102320000020FEF7FAFE0BE0E548844208D10121C7
:102330000805FEF7F2FE00214FF48010FEF7EDFED7
:1023400010BD2DE9F04786B005460E460024A24692
:1023500000BFA1460027B08900B100BF2F462C8ADC
:102360004CF6FF700440F08804432C82AC894EF692
:10237000F3100440B088318908437189084304434D
:10238000AC81AC8A4FF6FF400440B0890443AC8274
:1023900001A8FEF72EFEC648874202D1DDF810A044
:1023A00001E0DDF80CA0A88900F4004040B10AEB80
:1023B000CA0000EB0A1031684900B0FBF1F807E0F1
:1023C0000AEBCA0000EB0A1031688900B0FBF1F893
:1023D0006420B8FBF0F004012009642101FB10899E
:1023E000A88900F4004040B1322000EBC900B0FBE6
:1023F000F1F000F00700044308E0322000EB091080
:102400006421B0FBF1F000F00F0004432C8106B012
:10241000BDE8F0874FF41651016000218180C18032
:1024200001810C21418100218181704710B5024654
:102430000020108A4FF2FF0318400B884C8823437A
:102440008C882343CC8823431843108210BD00217D
:10245000018041808180C180704721B1828942F42E
:102460000052828104E082894DF6FF731A40828116
:102470007047F0B50346002400260025002040F6F2
:102480006A17B94200D100BF1846C1F3421401F0E7
:102490001F06012707FA06F5012C01D10C3004E0D4
:1024A000022C01D1103000E014301AB107682F431C
:1024B000076002E00768AF430760F0BD1AB1838A86
:1024C0000B43838202E0838A8B4383827047028AB4
:1024D0004FF6F0731A400282028A0A430282704762
:1024E00082894FF2FF731A40828182890A43828176
:1024F000704721B1828942F00202828104E0828920
:102500004FF6FD731A4082817047028A4FF6DF73DF
:102510001A400282028A0A430282704721B1028A6B
:1025200042F48042028204E0028A4BF6FF731A40B2
:1025300002827047C1F30802828070470146888892
:10254000C0F308007047818941F001018181704723
:10255000028BD2B20283028B42EA012202837047CD
:10256000028B02F47F420283028B0A43028370478C
:1025700021B1828A42F02002828204E0828A4FF6F0
:10258000DF731A408282704721B1828A42F01002C2
:10259000828204E0828A4FF6EF731A40828270478B
:1025A00021B1828A42F00802828204E0828A4FF6D8
:1025B000F7731A408282704721B1828942F4004247
:1025C000828103E08289C2F30E028281704721B1C9
:1025D000828A42F40062828204E0828A4FF2FF73B0
:1025E0001A4082827047828A4FF6FB731A408282B9
:1025F000828A0A438282704721B1828A42F00202B3
:10260000828204E0828A4FF6FD731A40828270470C
:1026100002460020B1F5007F00D100BF13880B40B7
:102620000BB1012000E00020704701F40072B2F508
:10263000007F00D100BFCA430280704770B50246D8
:10264000002400230025002040F66A16B14200D184
:1026500000BFC1F3421501F01F03012606FA03F380
:10266000012D02D19689334006E0022D02D1168A4F
:10267000334001E0968A33400C12012606FA04F436
:102680001688344013B10CB1012000E0002070BD69
:1026900010B50022002340F66A14A14200D100BF09
:1026A0000A1201249440A3B2DC43048010BD000050
:1026B000003801400044004000480040004C004009
:1026C0000050004008B501210820FEF7FFFC012062
:1026D000ADF800008DF8020010208DF80300694667
:1026E0001B48FEF733FA002201211948FEF7DFFAF2
:1026F00001210420FEF7EAFC0220ADF800000120D1
:102700008DF8020010208DF8030069461148FEF78D
:102710001DFA002202210F48FEF7C9FA0121082004
:10272000FEF7D4FC40F60240ADF8000001208DF821
:10273000020048208DF8030069460548FEF706FAB6
:10274000012240F602410248FEF7B1FA08BD00003E
:10275000000C01400008014006E04FF4FA6100E07F
:10276000491E0029FCD1401E0028F6D1704710B543
:102770000446204600F04FFC10BD10B504464FF44F
:102780000041FA48FEF78FFA2046FFF7F0FF10BD30
:1027900010B504464FF40041F448FEF784FAC4F340
:1027A0000720FFF7E4FFE0B2FFF7E1FF10BD10B52F
:1027B00004464FF40041ED48FEF777FA2046FFF754
:1027C000D6FF10BD70B504460D46E0B2FFF7EFFF2F
:1027D0002846FFF7DDFF70BD2DE9F04104460D46A8
:1027E00016461F462A20FFF7E2FFC4F30720FFF733
:1027F000C4FFE0B2FFF7C1FFC6F30720FFF7BDFF3C
:10280000F0B2FFF7BAFF2B20FFF7D1FFC5F3072087
:10281000FFF7B3FFE8B2FFF7B0FFC7F30720FFF7FA
:10282000ACFFF8B2FFF7A9FF2C20FFF7C0FFBDE80F
:10283000F0812DE9F0410446C4F3072704F0FF08B6
:102840008223812200210846FFF7C6FF00250BE006
:10285000002606E03846FFF790FF4046FFF78DFF61
:10286000761C822EF6D36D1C812DF1D3BDE8F0814C
:102870002DE9F05F05460E4617469846DDF828B06C
:10288000F31D05F10F0231462846FFF7A5FF00248E
:102890001EE0A7F1200004EB0010B54911F800A0DC
:1028A0004FF0000910E00AF08000802803D1404674
:1028B000FFF76EFF02E05846FFF76AFF4FEA4A60F3
:1028C0004FEA106A09F10109B9F1080FEBD3641C52
:1028D000102CDED3BDE8F09F2DE9F05F0746884657
:1028E0001646994608F10F0307F10F024146384694
:1028F000FFF772FF002436E004EB04109D4911F845
:102900001000317888422DD104EB0410994901EB75
:10291000400040787178884224D100251FE004EB04
:102920000410944901EB4000801C10F805B04FF0F2
:10293000000A10E00BF08000802803D14846FFF722
:1029400027FF02E00A98FFF723FF4FF6FF7000EA27
:102950004B0B0AF1010ABAF1080FEBD36D1C202DC5
:10296000DDD302E0641C402CC6D300BFBDE8F09F5D
:102970002DE9F84380460E4614469946089F0025E7
:102980001AE0207880280BDA0097227806EBC50140
:102990004B464046FFF76CFF641C681CC5B20BE059
:1029A00006EBC50081B24B46224640460097FFF732
:1029B00093FFA41CA81CC5B220780028E1D1BDE873
:1029C000F88370B504460D4616462B462246294626
:1029D0002046FFF701FF3046FFF7DAFE70BD2DE914
:1029E000F04704460D4616461F46DDF820A03B463C
:1029F000324629462046FFF7EFFEA8460AE0A146E8
:102A000004E05046FFF7C4FE09F10109B145F8D9C9
:102A100008F10108B845F2D9BDE8F087F8B50446D9
:102A20000D461646691E601E6B1C621C0096FFF761
:102A3000D6FFF8BD2DE9FF4F85B081468A460020BC
:102A4000039083460798A0EB09050898A0EB0A06B7
:102A5000CDF80890CDF804A0002D01DD012705E098
:102A60000DB9002702E04FF0FF376D42002E02DD66
:102A70004FF0010806E016B94FF0000802E04FF0F1
:102A8000FF387642B54201DD2C4600E03446002096
:102A900004901BE0129ADDE90110FFF792FF039802
:102AA00028440390B3440398A04205DD0398001B1B
:102AB0000390029838440290A34504DDABEB040B6D
:102AC0000198404401900498401C0490611C0498B3
:102AD0008842DFD909B0BDE8F08F2DE9F0470646FE
:102AE0000F469046002445460320A0EB48094EE0DF
:102AF000391B701B4FF6FF72FFF763FF391B70190C
:102B00004FF6FF72FFF75DFF7919301B4FF6FF722A
:102B1000FFF757FF391B701B4FF6FF72FFF751FF8E
:102B2000791B301B4FF6FF72FFF74BFF39197019F5
:102B30004FF6FF72FFF745FF791B30194FF6FF7212
:102B4000FFF73FFF791930194FF6FF72FFF739FF92
:102B50003919701B4FF6FF72FFF733FF641CB9F190
:102B6000000F09DAA000801D81440AE00010014036
:102B7000D23B0008D2410008601B80000A3081442B
:102B80006D1E791930194FF6FF72FFF71AFFAC422C
:102B9000AEDDBDE8F0872DE9F04705460E46174645
:102BA0009846DDE9089AAAF10103A9F1010241461C
:102BB0003846FFF711FE00240AE0012101EB440131
:102BC000685CFFF7DAFD15F81400FFF7D6FD641C0A
:102BD000B4EB560FF1D3BDE8F08708B5012104200E
:102BE000FEF774FA01211020FEF770FAA020ADF86C
:102BF000000018208DF8030003208DF802006946BC
:102C00009C48FDF7A3FF4FF40050ADF800000320EF
:102C10008DF8020010208DF8030069469648FDF7F4
:102C200095FF4FF400519448FEF73FF84FF4804071
:102C3000ADF8000003208DF8020010208DF803008D
:102C400069468D48FDF782FF4FF480418A48FEF7C0
:102C50002CF84FF40040ADF8000003208DF802007E
:102C600010208DF8030069468348FDF76FFF4FF48D
:102C700000418148FEF719F800F09EF94FF48041B9
:102C80007D48FEF712F87820FFF766FD4FF480418B
:102C90007948FEF708F8C820FFF75EFD4FF40051B1
:102CA0007548FEF702F81120FFF781FD7820FFF745
:102CB00053FDB120FFF77BFD0520FFF75EFD3C20B3
:102CC000FFF75BFD3C20FFF758FDB220FFF76FFDDB
:102CD0000520FFF752FD3C20FFF74FFD3C20FFF79A
:102CE0004CFDB320FFF763FD0520FFF746FD3C20B8
:102CF000FFF743FD3C20FFF740FD0520FFF73DFDBA
:102D00003C20FFF73AFD3C20FFF737FDB420FFF7EA
:102D10004EFD0320FFF731FDC020FFF748FD2820BE
:102D2000FFF72BFD0820FFF728FD0420FFF725FD06
:102D3000C120FFF73CFDC020FFF71FFDC220FFF7B9
:102D400036FD0D20FFF719FD0020FFF716FDC3200B
:102D5000FFF72DFD8D20FFF710FD2A20FFF70DFD59
:102D6000C420FFF724FD8D20FFF707FDEE20FFF7BD
:102D700004FDC520FFF71BFD1A20FFF7FEFC3620DF
:102D8000FFF715FD5820FFF7F8FCE020FFF70FFDD7
:102D90000420FFF7F2FC2220FFF7EFFC0720FFF7EB
:102DA000ECFC0A20FFF7E9FC2E20FFF7E6FC3020C0
:102DB000FFF7E3FC2520FFF7E0FC2A20FFF7DDFC0E
:102DC0002820FFF7DAFC2620FFF7D7FC2E20FFF79C
:102DD000D4FC3A20FFF7D1FC0020FFF7CEFC012005
:102DE000FFF7CBFC0320FFF7C8FC1320FFF7C5FC5F
:102DF000E120FFF7DCFC0420FFF7BFFC1620FFF703
:102E0000BCFC0620FFF7B9FC0D20FFF7B6FC2D2017
:102E1000FFF7B3FC2620FFF7B0FC2320FFF7ADFC43
:102E20002720FFF7AAFC2720FFF7A7FC2520FFF7A4
:102E3000A4FC2D20FFF7A1FC3B20FFF79EFC002007
:102E4000FFF79BFC0120FFF798FC0420FFF795FC9F
:102E50001320FFF792FC3A20FFF7A9FC0520FFF7AB
:102E60008CFC2920FFF7A3FC4FF6FF70FFF7E1FC75
:102E700008BD0000000801400010014000B587B007
:102E800001210420FEF722F900208DF8070003201D
:102E90008DF806000520ADF8040001A94448FDF7AF
:102EA00055FE01214802FEF711F94FF48040FEF76C
:102EB00071F80020029001208DF80C0000208DF8A0
:102EC0000D004FF4602004900020059002208DF842
:102ED000180002A93748FDF7D8FB4FF4E041354808
:102EE000FDF7F0FC02213348FDF755FD07230122D1
:102EF00000213048FDF70EFD0723022211462D4820
:102F0000FDF708FD002214212A48FDF750FD00229C
:102F100018212848FDF74BFD01212648FDF7E1FB6C
:102F200007B000BD10B5002401212248FDF7DDFCEB
:102F300000BF02211F48FDF785FD0028F9D01821A8
:102F40001C48FDF73EFD0446204610BD70B5002527
:102F5000002400BF26E0012202211548FDF7ACFE47
:102F60004FF48C70FDF79FF901211248FDF7BDFC6D
:102F700000BF02210F48FDF765FD0028F9D014219C
:102F80000C48FDF71EFD04442820FDF78CF90022B3
:102F900002210748FDF790FE42F2D050FDF783F979
:102FA000681CC5B2052DD6DB0520B4FBF0F070BD62
:102FB000000801400024014000B585B00121084609
:102FC000FEF784F801210803FEF780F80020ADF831
:102FD00000004FF48270ADF802000020ADF804004C
:102FE0000220ADF806000120ADF808004002ADF85F
:102FF0000A000020ADF80C00ADF80E000720ADF877
:10300000100069461048FEF7EBF801210E48FEF764
:103010008CF905B000BD10B5044600BF02210A4876
:10302000FEF707FA0028F9D021460748FEF7AEF967
:1030300000BF01210448FEF7FCF90028F9D002483E
:10304000FEF7A6F9C0B210BD0030014008B54FF43C
:10305000A060FDF785FA1D208DF8000002208DF894
:1030600001008DF8020001208DF803006846FDF78D
:103070007CFA08BD3EB505460C4601210220FEF74C
:1030800032F801210846FEF721F8A8B2ADF8040095
:10309000A0B2ADF800000020ADF80600ADF80200C7
:1030A00069460748FEF7D0FA01210548FFF7EEF818
:1030B000012211460248FEF73EFEFFF7C7FF3EBD64
:1030C00000040040014600BF704700BF644A1288F8
:1030D00002F04002002AF9D0C2B2614B1B1D1A80D7
:1030E000704710B586B00446012144F20400FDF794
:1030F000EDFF4FF40070ADF8140003208DF81600BA
:1031000018208DF8170005A95648FDF71FFD4FF44C
:103110008060ADF8140004208DF8170005A951480F
:10312000FDF714FD25208DF8000001208DF8010029
:103130008DF802008DF803006846FDF716FA019439
:103140000020ADF80800ADF80A00ADF80C00ADF8AD
:1031500010000C20ADF80E0001A94148FFF7F1F86E
:10316000012240F225513E48FFF783F901213C48F6
:10317000FFF773F906B010BD10B504460FE040210B
:103180003748FFF752FA21783548FFF7D3F900BFE7
:1031900040213348FFF73CFA0028F9D0641C20781E
:1031A0000028ECD110BD70B504460D46002610E095
:1031B00040212B48FFF739FA21782948FFF7BAF95F
:1031C00000BF40212648FFF723FA0028F9D0641CED
:1031D000761CAE42ECD370BD10B540F225512048AC
:1031E000FFF72CFA002839D01D48FFF7A7F9C4B221
:1031F0001D48008800F4004080BB1B48008800F494
:10320000804070B10A2C01D06E2C06D1164800887F
:1032100040F400401449088020E000201249088052
:103220001CE00D2C01D05C2C06D10F48008840F426
:1032300080400D49088011E00B480088C0F30D0064
:103240000A490C5408480088401C07490880084671
:103250000088B0F5806F01DB0020088010BD000001
:10326000003801400008014034000020C800002060
:1032700008B54FF48050ADF8000048208DF80300E9
:1032800069466B48FDF762FC08BD08B54FF48050F5
:10329000ADF8000010208DF8030003208DF8020027
:1032A00069466348FDF752FC08BD10B5FFF7EDFF16
:1032B0000020604908601420FDF719F801205E49DC
:1032C000C1F8B0011E20FCF7EEFF10BD10B50024C0
:1032D000FFF7CEFF04E0601CC4B20120FCF7E3FF5F
:1032E00054488038006808B1642CF4DB642C01DB9E
:1032F000012010BD002404E0601CC4B20120FCF7D2
:10330000D2FF4C488038006808B9642CF4DB642C88
:1033100001DB0120EDE70020EBE710B5002404E01D
:10332000601CC4B20120FCF7BEFF42488038006830
:1033300008B1642CF4DB002404E0601CC4B201205A
:10334000FCF7B1FF3B488038006808B9642CF4DB17
:103350002820FCF7A8FF37488038006808B1012012
:1033600010BD0020FCE770B50024002506E06006D3
:10337000040EFFF7D2FF0443681CC5B2082DF6DB2C
:10338000204670BD7CB505460E46FFF78EFFFFF761
:103390009DFF58BB002405E0FFF7E5FF0DF8040092
:1033A000601CC4B2052CF7DB9DF800009DF80110ED
:1033B00008449DF8021008449DF8031008449DF845
:1033C0000410884214D19DF801009DF8001001EB13
:1033D000810100EB410030609DF803009DF8021070
:1033E00001EB810100EB4100286001E001207CBD80
:1033F0000020FCE708B501210820FDF767FE4FF427
:103400008050ADF8000010208DF8030003208DF8E7
:10341000020069460648FDF799FB4FF480510448C5
:10342000FDF741FCFFF741FFFFF750FF08BD00002B
:10343000000C0140B08121420080214210B564227D
:1034400090FBF2F230320A70642290FBF2F302FB3E
:1034500013020A2392FBF3F230324A70642290FB8B
:10346000F2F302FB13020A2392FBF3F403FB142290
:1034700030328A7010BD08B50020FCF7D4FFFCF78D
:10348000FEFE4FF4E130FFF72CFEFFF71BF9FFF7CC
:10349000A4FB4FF47A714720FFF7ECFDFFF7EEFC39
:1034A000FFF7A8FF0020FFF7C4F900204FF478438E
:1034B000FEA20A2100900846FFF75AFAFD48FFF7DE
:1034C0005BFE4FF4FA60FCF712FFFB48FFF754FE77
:1034D00042F21070FCF70BFF0121F848FEF710FCD8
:1034E0002CE0F748FFF748FE4FF4FA60FCF7FFFEC8
:1034F000F448008800F4004000B3F2480088C0F3AC
:103500000D00F149086008460068401EEF49085C5C
:10351000322810D100204FF47843EDA20A21009008
:103520001E20FFF725FA0020E64908600021E34845
:10353000FEF7E6FB03E00020E2490860D1E700BFA8
:103540004FF47A70FCF7D3FEE448FFF715FE4FF412
:103550007A70FCF7CCFEE148FFF70EFE4FF47A706C
:10356000FCF7C5FEDE48FFF707FE4FF47A70FCF764
:10357000BEFEDC48FFF700FE4FF47A70FCF7B7FEA2
:10358000D948FFF7F9FD0020CE490860FFF751F94F
:1035900000204FF47843D5A2014600900520FFF7A4
:1035A000E7F900204FF47843D3A201460090192098
:1035B000FFF7DEF900204FF47843D2A201460090D5
:1035C0002D20FFF7D5F900204FF47843D0A2014613
:1035D00000904120FFF7CCF900204FF47843D0A2AF
:1035E000014600905520FFF7C3F900204FF47843BF
:1035F000CFA2014600906920FFF7BAF95320D049C5
:1036000008704A20487091E2CE49CF48FFF7BAFED1
:10361000CE49CD480068FCF79DFD00200090CB48C6
:10362000C2784FF4784328210520FFF721F90020C4
:103630000090C64802794FF4784330210520FFF707
:1036400017F900204FF47843C1A2382100900520DB
:10365000FFF78EF900200090BC4882794FF4784340
:1036600040210520FFF704F9B848C078B4498870B4
:10367000B6480079C870B54840790871B348807978
:103680004871B449AF480068FCF764FD0020009021
:10369000B048C2784FF4784328211920FFF7E8F8A2
:1036A00000200090AB4802794FF478433021192074
:1036B000FFF7DEF800204FF47843A5A238210090F0
:1036C0001920FFF755F900200090A24882794FF4A5
:1036D000784340211920FFF7CBF89E48C0789849DD
:1036E00088719C480079C8719A4840790872994855
:1036F00080794872FFF72AFC9749086008460068FD
:103700000A2190FBF1F094490860944992480068BE
:10371000FCF755FD00200090904882794FF47843E3
:1037200030212D20FFF7A4F8002000908B48C279AB
:103730004FF4784338212D20FFF79AF800200090AD
:103740008648027A4FF4784340212D20FFF790F805
:10375000824880797A4988728048C079C8727F48E7
:10376000007A0873FFF7DEFB7D49086008460068B1
:10377000142190FBF1F42046FCF7E8FC784908603E
:10378000784977480068FCF737FD002000907548BD
:1037900082784FF4784348214120FFF769F80020F0
:1037A00000907048C2784FF4784350214120FFF7D1
:1037B0005FF8002000906B4802794FF4784358215D
:1037C0004120FFF755F8674880785D498873654860
:1037D000C078C8736348007908744FF40061624888
:1037E000FDF747FA00283BD100BF4FF400615E4867
:1037F000FDF73FFA0028F8D05C480068401C5B49A0
:1038000008600846007800F001000860084600687B
:1038100088B900204FF4784355A2702100905520BC
:10382000FFF7A6F80020034651A2702100906920FE
:10383000FFF79EF814E04D480068012810D10020E1
:1038400003464BA2702100905520FFF791F800200D
:103850004FF4784346A2702100906920FFF788F862
:103860004248006800281FD14FF480613E48FDF7B0
:1038700000FAC0B900BF4FF480613B48FDF7F9F989
:103880000028F8D03B4800680A303A4908600846EA
:103890000068B0F5617F02DD4FF461700860364961
:1038A000344800686AE074E09AE000005245414400
:1038B00059000000364400083A4400080004004063
:1038C0004344000834000020B0000020C80000205D
:1038D000434F4E4E454354454400000052440008B7
:1038E0007B4400088A44000838000020CEC2B6C8D5
:1038F0003A20202020A1E600CAAAB6C83A202020FB
:1039000020250000504D322E353A20202020000086
:10391000D3D0BAA6C6F8CCE53A20202070706D004E
:10392000504D322E355F54483A313530000000009A
:103930004741535F54483A31303070706D00000099
:10394000830000209C000020980000205D000020E3
:103950002E00000067000020A00000207000002062
:10396000A40000207A000020000C0140C0000020CC
:10397000B6D40000A8000020C4000020FFF75EFDC0
:1039800000204FF47843754A482100905520FEF7F7
:10399000EFFF02217248FDF76CF9002871D100BFDA
:1039A00002216F48FDF765F90028F9D06D480068DD
:1039B0000A386C49086008460068002801DC0020CD
:1039C0000860664967480068FFF738FD00204FF43B
:1039D0007843624A482100905520FEF7C9FF50E025
:1039E0006148006801284CD181025D48FDF741F92A
:1039F00010BB00BF4FF480615948FDF73AF9002829
:103A0000F8D05A4800680A305849086008460068EB
:103A1000B0F5617F02DD4FF4617008604F49534893
:103A20000068FFF70BFD00204FF478434B4A382124
:103A300000906920FEF79CFF02214948FDF719F923
:103A4000F8B900BF02214648FDF713F90028F9D064
:103A5000464800680A38454908600846006800285A
:103A600001DC002008603D4940480068FFF7E6FCA3
:103A700000204FF47843394A382100906920FEF73E
:103A800077FF3B48006839490968884205DC3948B6
:103A9000006834490968884223DD354800683349A5
:103AA0000968884208DD3448007828B93120334954
:103AB00048740120304908702E4800682949096877
:103AC000884208DD2E48007828B931202B494873F8
:103AD00001202B490870012211462148FDF7E7F823
:103AE00004E0002201211E48FDF7E1F820480068AB
:103AF0001E490968884205DC3020204948740020AE
:103B00001D4908701B48006816490968884205DC91
:103B100030201A49487300201949087012211748AB
:103B2000FFF741FB4FF47A70FCF7E1FB6CE510B551
:103B300001211448FEF7BEFB13480068401C1249DF
:103B400008600846006847F23051884205D10020DD
:103B50000D4908600D48FFF70FFB10BDC4000020A1
:103B6000000C0140A8000020C0000020AC00002094
:103B7000A4000020A0000020BD0000208300002041
:103B8000BE00002000040040B40000203A440008B9
:103B9000064C074D06E0E06840F0010394E807009A
:103BA00098471034AC42F6D3FCF7A4FA98440008C6
:103BB000B844000802E008C8121F08C1002AFAD160
:103BC00070477047002001E001C1121F002AFBD19D
:103BD000704700000000000000000000000000002E
:103BE0000000000000001C003FB03FB01C000000BF
:103BF00000000000700078000000000078007000F5
:103C0000000004401FF01FF004401FF01FF00440AC
:103C100000001CC03E602220E238E23833E019C0C8
:103C200000000C300C6000C00180030006300C3036
:103C3000000001E01BF03E1027103DE01BF00210D9
:103C40000000000008007800700000000000000084
:103C50000000000000000FC01FE030302010000006
:103C6000000000000000201030301FE00FC00000F6
:103C700000000100054007C00380038007C0054025
:103C8000010000000100010007C007C001000100A1
:103C90000000000000000008007800700000000034
:103CA000000001000100010001000100010001000D
:103CB00000000000000000000030003000000000A4
:103CC00000000030006000C00180030006000C000E
:103CD00000001FE03FF02090231024103FF01FE071
:103CE00000000000081018103FF03FF00010001016
:103CF0000000107030F02190231026103C30183056
:103D00000000102030302210221022103FF01DE061
:103D10000000030007000D0019103FF03FF00110F4
:103D200000003E203E3022102210231023F021E01C
:103D300000000FE01FF032102210221003F001E00B
:103D400000003000300020F021F023003E003C0055
:103D500000001DE03FF02210221022103FF01DE075
:103D600000001C003E102210221022303FE01FC035
:103D700000000000000000000C600C60000000006B
:103D800000000000000000100C700C60000000003B
:103D9000000000000100038006C00C601830101005
:103DA0000000024002400240024002400240024045
:103DB00000000000101018300C6006C003800100E5
:103DC000000018003800200023B027B03C00180085
:103DD00000000FE01FF0101013D013D01FD00F8081
:103DE000000007F00FF01900310019000FF007F084
:103DF000000020103FF03FF0221022103FF01DE0A5
:103E000000000FC01FE0303020102010303018604C
:103E1000000020103FF03FF0201030301FE00FC0B6
:103E2000000020103FF03FF0221027103030387093
:103E3000000020103FF03FF0221027003000380033
:103E400000000FC01FE030302110211031E019F0C8
:103E500000003FF03FF00200020002003FF03FF0A0
:103E600000000000000020103FF03FF02010000094
:103E7000000000E000F0001020103FF03FE02000C4
:103E8000000020103FF03FF003000F803CF0307046
:103E9000000020103FF03FF02010001000300070B4
:103EA00000003FF03FF01C000E001C003FF03FF010
:103EB00000003FF03FF01C000E0007003FF03FF015
:103EC00000000FC01FE03030201030301FE00FC066
:103ED000000020103FF03FF0221022003E001C00A6
:103EE00000001FE03FF020102070203C3FFC1FE44A
:103EF000000020103FF03FF0220023003FF01CF0B4
:103F0000000018603C7026102210231039F018E0D1
:103F100000000000380030103FF03FF03010380053
:103F200000003FE03FF00010001000103FF03FE0C5
:103F300000003F803FC00060003000603FC03F8015
:103F400000003FC03FF0007001C000703FF03FC074
:103F5000000030303CF00FC003000FC03CF03030A8
:103F6000000000003C003E1003F003F03E103C0057
:103F70000000387030F02190231026103C3038704B
:103F80000000000000003FF03FF020102010000073
:103F900000001C000E000700038001C000E000705C
:103FA000000000000000201020103FF03FF0000053
:103FB0000000100030006000C00060003000100001
:103FC00000000004000400040004000400040004D5
:103FD000000400000000C000E0002000000000001D
:103FE000000000E005F00510051007E003F00010E8
:103FF000000020103FF03FE00410061003F001E045
:10400000000003E007F00410041004100630022042
:10401000000001E003F0061024103FE03FF0001024
:10402000000003E007F0051005100510073003201D
:10403000000002101FF03FF02210300018000000B6
:10404000000003E407F60412041203FE07FC040058
:10405000000020103FF03FF00200040007F003F0E2
:10406000000000000000041037F037F000100000DE
:1040700000000000000C000E0002040237FE37FCB6
:10408000000020103FF03FF0018003C006700430B4
:1040900000000000000020103FF03FF00010000082
:1040A000000007F007F0060003F0060007F003F039
:1040B0000000040007F003F00400040007F003F020
:1040C000000003E007F004100410041007F003E000
:1040D0000000040207FE03FE0412041007F003E0D0
:1040E000000003E007F00410041203FE07FE0402C0
:1040F0000000041007F003F006100400060003009F
:104100000000022007300590049004D006700220C1
:104110000000040004001FE03FF004100430002001
:10412000000007E007F00010001007E007F00010A3
:104130000000000007C007E00030003007E007C0C3
:10414000000007E007F0003000E0003007F007E073
:1041500000000410063003E001C003E00630041044
:10416000000007E207F200120012001607FC07F831
:1041700000000630067004D00590071006300430A9
:1041800000000000020002001FE03DF0201020109F
:1041900000000000000000003DF03DF000000000C5
:1041A00000000000201020103DF01FE0020002007F
:1041B000000010003000200030001000300020000F
:1041C000000001E003E006200C20062003E001E0EF
:1041D0000000CEC208204420267F30800102007EED
:1041E0007F424942497E4942497E4942FF42407EE0
:1041F00000020000CAAA08204420267F3082012243
:104200007F12490A49FE4902490249FE490AFF1242
:10421000402600020000B6C8000200043FF9240155
:10422000244224423F64A554654825543F642442F7
:104230002C02640320020000A1E600006000900050
:10424000900067E00FF01818100C10041004180408
:104250000C081E10000000000000D2BB010001008D
:104260000100010001000100010001000100010046
:10427000010001000100030001000000D1F504006D
:1042800008083488C4A856A855A854FF55A856A8AD
:1042900054A85488540857FC4002000C0000BBAFDF
:1042A0000100020004001FFFE00000200040008029
:1042B000FFFC02020402080218020002000E0000C5
:1042C000CCBF2080210027FE3904610421FE0211A9
:1042D0003A620FA40A18FAE00A180A263A430202C0
:1042E0000000D3D0202020402080210027FF3C90D8
:1042F000E49024902490249224912FFE24006000C6
:1043000020000000BAA60800308020802ABF2AA220
:104310002AA2AAA27FA22AA22AA22AA22AFF20A017
:10432000288030000000C6F8020004001A00E200F5
:104330002A002A002A002A002A002A002BF8280432
:1043400060022001000E0000CCE5020004001FFF07
:10435000E010086009800E200820FFFF08200E20D2
:1043600009801860083000200000B1A80840084209
:104370000881FFFE09000A0000007FFF4144412838
:1043800049104568F984400600040000BEAF0100F2
:1043900049005100FD575555DD5553555F55215581
:1043A000E555555549577500470005000000B9E22D
:1043B00002000201420222041A1803E00200FE0079
:1043C000020003FC0A02120262022602020E000030
:1043D000D5D500017FF24216421042107FF400034F
:1043E00042004DF47113411045104314FDF2400397
:1043F0000000C7BF400447C244414442FE7C400025
:1044000001F27D22492249224FFE49224922FD26FE
:1044100041F30000B6D40000000000180030001C7A
:10442000000E0018001000600180060018006000F7
:104430000000000000002B2B2B0041542B52535442
:104440000D0A0041542B4349505354415455530DC8
:104450000A0041542B43495053544152543D225475
:104460004350222C2234372E3130302E35382E3125
:104470003035222C363030300D0A0041542B434960
:10448000504D4F44453D310D0A0041542B43495096
:1044900053454E440D0A0000B844000800000020B7
:1044A000C8000000B43B000880450008C800002098
:1044B00000060000C43B00080000000000000000EF
:1044C00000A24A04000000000000000001020304F2
:1044D00006070809000000000102030401020304AA
:1044E000060708090204060800000000000000009A
:1044F000434F4E4E454354454400D3D0BAA6C6F868
:10450000CCE5B1A8BEAF00504D322E35B3ACB1EA08
:10451000B1A8BEAF00543A0000002E00A1E600484A
:104520003A0000002E002500504D322E353A000092
:104530000000473A00000070706D00534A00000010
:10454000000000000000000000000000000000006B
:10455000000000000000000000000000000000005B
:104560009600000064000000000000000000000051
:104570000000000000000000030000000000000038
:04000005080000ED02
:00000001FF
