:10002600424D50205069637475726520546573742F
:1000360000000000000000000000000000000000BA
:1000460000000000000000000000000000000000AA
:10005600000000000000000000000000000000009A
:10006600000000000000000000000000000000008A
:10007600000000000000000000000000000000007A
:10008600000000000000000000000000000000006A
:10009600000000000000000000000000000000005A
:1000A600000000000000000000000000000000004A
:1000B600000000000000000000000000000000003A
:1000C600000000000000000000000000000000002A
:1000D600000000000000000000000000000000001A
:1000E600000000000000000000000000000000000A
:1000F60000000000000000000000000000000000FA
:1001060000000000000000000000000000000000E9
:1001160000000000000000000000000000000000D9
:1001260000000000000000000000000000000000C9
:1001360000000000000000000000000000000000B9
:1001460000000000000000000000000000000000A9
:100156000000000000000000000000000000000099
:100166000000000000000000000000000000000089
:100176000000000000000000000000000000000079
:100186000000000000000000000000000000000069
:1001960000000000000000410841084108410841F4
:1001A6000861086108610861086108610861086101
:1001B60008610861086108610861086108610861F1
:1001C60008610861086108610861086108610861E1
:1001D6000861084108410841084108000000000084
:1001E6000000000000000000000000000000000009
:1001F60000000000000000000000000000000000F9
:100206000000004108610861086108610861086131
:100216000861086108610861086108610861086190
:100226000861086108610861086108610861086180
:100236000861086108610861086108610861086170
:1002460008610861086108610861086108410800E1
:100256000000000000000000000000000000000098
:100266000000000000000000000000000000006127
:100276000861088210821082108210821082108219
:1002860010821082108210821082108210821082D8
:10029600108210E3188631E739E7398631E3188290
:1002A60010821082108210821082108210821082B8
:1002B60010821082108210821082108210821061C9
:1002C60008610800000000000000000000000000B7
:1002D600000000000000000000000000006108822D
:1002E6001082108210821082108210821082108278
:1002F6001082108210821082108210C7391084D7A3
:10030600BD5DEFFFFFFFFFFFFFFFFFFFFFFFFF5D8D
:10031600EFD7BD1084C739821082108210821082F6
:100326001082108210821082108210821082108237
:1003360010821061080000000000000000000000AC
:10034600000000000000000000000061088210822A
:100356001082108210821082108210821082108207
:100366001082108210C3188E739AD6FFFFFFFFFF0C
:10037600FFFFFF3CE779CEF7BDF7BD59CE3CE7DF7F
:10038600FFFFFFFFFFFFFF9AD68E73C3188210820E
:1003960010821082108210821082108210821082C7
:1003A60010821082106108000000000000000000AA
:1003B6000000000000000000000000821082108291
:1003C6001082108210821082108210821082108297
:1003D60010A2106D6B3CE7FFFFFFFFFBDE92948AD5
:1003E600520421821082108210821082108210E341
:1003F60018694A518CDBDEFFFFFFFF3CE76D6BA2FD
:100406001082108210821082108210821082108256
:100416001082108210821000000000000000000010
:100426000000000000000000006108A210A210A257
:1004360010A210A210A210A210A210A210A210A622
:100446003138C6FFFFFFFF18C68A52A210A210A2BB
:1004560010A210A210A210A210A210A210A210A206
:1004660010A210A210A210494AB6B5FFFFFFFF382E
:10047600C6A631A210A210A210A210A210A210A20B
:1004860010A210A210A210610800000000000000D7
:100496000000000000000000008210A210A210A2BE
:1004A60010A210A210A210A210A210A210CB5A9E47
:1004B600F7FFFFDBDEAA52A210A210A210A210A222
:1004C60010A210A210A210A210A210A210A210A296
:1004D60010A210A210A210A210A210494A9AD6FF8A
:1004E600FF9EF7CB5AA210A210A210A210A210A231
:1004F60010A210A210A2108210000000000000003E
:10050600000000000000006108A210A210A210A2C4
:1005160010A210A210A210A210A2108E73DFFFFF6D
:10052600FF14A50421A210A210A210A210A210A2CC
:1005360010A210A2104529EB5A518CB6B5E318A2A9
:1005460010A210A210A210A210A210A210E31892DC
:1005560094FFFFDFFF8E73A210A210A210A210A2BA
:1005660010A210A210A210A2106108000000000044
:10057600000000000000008210A210C318C318C3B8
:1005860018C318C318C318C3188E73FFFFDFFFAE56
:1005960073C318C318C318C318C318C318C318C322
:1005A60018C318C31814A5FFFF7DEF1CE72421C349
:1005B60018C318C318C318C318C318C318C318C35D
:1005C600182C63DFFFFFFF8E73C318C318C318C34D
:1005D60018C318C318C318A2108210000000000028
:1005E600000000000000008210C318C318C318C31F
:1005F60018C318C318C318CB5ADFFFFFFF4D6BC3D0
:1006060018C318C318C318C318C318C318C318C30C
:1006160018C318C3181084C739C3180C632421C320
:1006260018C318C318C318C318C318C318C318C3EC
:1006360018C318CB5ADFFFDFFFCB5AC318C318C342
:1006460018C318C318C318C318A21000000000006E
:1006560000000000000000A210C318C318C318C38E
:1006660018C318C31886317DEFFFFFCF7BC318C3AD
:1006760018C318C318C318C318C318C318C318C39C
:1006860018C318C3186D6BC318C3180C632421C391
:1006960018C318C318C318C318C318C318C318C37C
:1006A60018C318C3184D6BFFFF7DEF8631C318C3FF
:1006B60018C318C318C318C318A2100000000000FE
:1006C60000000000000000A210C318C318C318C31E
:1006D60018C318E318F7BDFFFF55ADC318C318C3F9
:1006E60018C318E318E318C318C318C318C318C3EC
:1006F60018C318C3186D6BC3186D6B96B54529C31F
:1007060018C318C318C318C318A6310C63E739C336
:1007160018C318C318C318D39CFFFFF7BDE318C34B
:1007260018C318C318C318C318A21000000000008D
:1007360000000000000000C318E318E318E318E304
:1007460018E3182C63FFFF3CE74529E318E318E399
:1007560018AE738E73AE73EB5AE318E318E318E31F
:1007660018A6319AD6F7BDE31879CEFBDE0421E34D
:1007760018E318E318E3184D6BD39C4D6B718CEF9F
:100786007BE318E318E3180421BAD6FFFF2C63E3D2
:1007960018E318E318E318E318C318000000000074
:1007A60000000000000000C318E318E318E318E394
:1007B600180421DBDEFFFF4D6BE318E318E318AAEC
:1007C600526D6BF39C96B53084E318E318E318E397
:1007D600184529F39C6D6BE318E318E318E318E357
:1007E60018E318E318042134A5E318EB5AE318922A
:1007F600948631E318E318E318AA52FFFFDBDE0400
:1008060021E318E318E318E318C3180000000000FA
:1008160000000000000000C318E318E318E318E323
:10082600182C63FFFF9AD60421E318E318E3186D2A
:100836006BD39CC739718CAE73E318E318E318E3E6
:1008460018E318E318E318E318E318E318E318E3CA
:1008560018E318E3188631718CE318CF7B45298E8F
:1008660073694AE318E318E318E31818C6FFFF2C68
:1008760063E318E318E318E318C318000000000048
:1008860000000000000000E31804210421042104F4
:100896002118C6FFFF8E730421042104210421C7F9
:1008A60039F39C518C518C4D6B0421042104210495
:1008B600210421042104210421042104210421040A
:1008C6002104210421042155AD4529042186313412
:1008D600A545290421042104210421EB5AFFFF1810
:1008E600C60421042104210421E3180000000000AD
:1008F60000000000000000E3180421042104218602
:1009060031DFFF9EF7452904210421042104210437
:1009160021494AAE73AE73A6310421042104210491
:100926002924410421042104210421042104210451
:1009360021042104210421084214A5B29414A58A95
:10094600520421042104210421042104211CE7DF8F
:10095600FF8631042104210421E318000000000071
:1009660000000000000000E3180421042104218E89
:1009760073FFFF96B50421042104210421042104F8
:100986002104210421042104210421042104210439
:100996002144710421042104210421042104210499
:1009A60021042104210421042104212421042104F9
:1009B60021042104210421042104210421F39CFFA4
:1009C600FF8E73042104210421E3180000000000B7
:1009D60000000000000000E3182421242124213413
:1009E600A5FFFFCF7B242124212421242124212497
:1009F60021242124212421242124212421242124C9
:100A06002164892431242124212421242124212400
:100A160021242124212421242124212421242124A8
:100A2600212421242124212421242124212C63FF73
:100A3600FF34A524212421242104210000000000E4
:100A46000000000000000004212421242124217933
:100A5600CEFFFF494A2421242124212421242124B4
:100A66002124212421242124212421242124212458
:100A76002144616481242124212421242124212448
:100A86002124212421242124212421242124212438
:100A960021242124212421242124212421C739FF92
:100AA600FF79CE2421242124210421000000000006
:100AB6000000000000000004212421242124217DBF
:100AC600EFDFFF86312421242124214529242124F6
:100AD60021242124212421242124212421242124E8
:100AE60021243184D12429242124212421242124B0
:100AF60021242124212421242124212421242124C8
:100B06002124212421242124212421242145299E14
:100B1600F77DEF2421242124210421000000000078
:100B2600000000000000000421452945294529DF71
:100B3600FF7DEF45294529452945298E73CF7B45FC
:100B4600294529452945294529452945294529452F
:100B560029452984C9445945294529452945294511
:100B6600294529452945294529452945294529084C
:100B7600428E73E73945294529452945294529FBEB
:100B8600DEDFFF4529452945290421000000000034
:100B9600000000000000000421452945298631FF98
:100BA600FF3CE745294529A631652945299AD6CF2F
:100BB6007B4529452945294529452945294529456D
:100BC600294529649964A945294529452945294581
:100BD60029452945294529452945294529494A3887
:100BE600C6CF7B59CEEB5A45294529452945299A31
:100BF600D6FFFF8631452945292421000000000043
:100C0600000000000000002421452945298631FF07
:100C1600FF3CE745294529AA5259CEF39C38C6DF41
:100C2600FF55ADF39C10844529452945294529459D
:100C3600294529646963E1453945294529452945F9
:100C46002945294529452945294529652955AD2C93
:100C5600634529494AF39C34A5452945294529BABE
:100C6600D6FFFF86314529452924210000000000D2
:100C7600000000000000002421452945296529714E
:100C86008C308445294529AA5279CE55AD59CEDFF7
:100C9600FFB6B555AD518C45294529452945294508
:100CA600294529454162E164894529452945294562
:100CB60029452945294529452945298E73F39C65EA
:100CC6002945294529863138C6452945294529EF2B
:100CD6007B718C65294529452924210000000000E7
:100CE60000000000000000242165296529652965AA
:100CF60029652965296529C7398631652959CE307F
:100D06008465296529652965296529652965296512
:100D1600296529652942C942C96529652965296563
:100D260029652965296529652965292842F7BD1898
:100D3600C618C618C618C62C6365296529652965AF
:100D460029652965296529652924210000000000F7
:100D56000000000000000045296529652965296510
:100D660029652965296529652965298E7310846594
:100D760029652965296529652965296529652965FD
:100D86002965296529ADB3D6DDD7BDCF7B65296534
:100D960029652965296529652965296529652965DD
:100DA60029652965296529652965296529652965CD
:100DB600296529652965296529452900000000005E
:100DC60000000000000000452965296529652965A0
:100DD6002965296529652965296529A63165296554
:100DE600296529652965296529652965296529658D
:100DF600296529CF7BDBDE1CE71CE7DBDEEF7B65A5
:100E0600296529652965296529652965296529656C
:100E1600296529652965296529652965296529655C
:100E260029652965296529652945290000000000ED
:100E36000000000000000045298631863186318693
:100E460031863186318631863186318631863186E4
:100E560031863186318631863186318631863186D4
:100E660031863118C6FBDE3CE73CE7FBDE18C6865A
:100E760031863186318631863186318631863186B4
:100E860031863186318631863186318631863186A4
:100E960031863186318631863145290000000000D1
:100EA6000000000000000045298631863186318623
:100EB6003186318631863186318631863186318674
:100EC6003186318631863186318631863186318664
:100ED60031863138C6FBDE3CE73CE7FBDE38C686AA
:100EE6003186318631863186318631863186318644
:100EF6003186318631863186318631863186318634
:100F06003186318631863186314529000000000060
:100F16000000000000000065298631863186318692
:100F2600318631863165296529652986318631867E
:100F360031863186318631863186318631863186F3
:100F46003186319294DBDEFBDEFBDEDBDE929486BD
:100F560031863186318631863186318631863186D3
:100F6600318631863186316529652965298631863E
:100F760031863186318631863165290000000000D0
:100F8600000000000000006529A631A63186310464
:100F9600218210410820002000200041088210E331
:100FA600186529A631A631A631A631A631A631A6E5
:100FB60031A631C739D39C9AD69AD6F39CC739A69F
:100FC60031A631A631A631A631A631A631A63165A4
:100FD60029E31882104108200020002000410882E1
:100FE6001004218631A631A63165290000000000D3
:100FF6000000000000000065298631E31841084121
:101006000841084108410841084108410841084192
:10101600084108A2106529A631A631A631A631A637
:1010260031A631A631A631E739E739A631A631A670
:1010360031A631A631A631A631A6316529A21041C5
:101046000841084108410841084108410841084152
:101056000841084108E318863165290000000000B0
:1010660000000000000000E3186108410841084143
:101076000841084108410841084108410841084122
:10108600084108410861082421A631A631A631A6E7
:1010960031A631A631A631A631A631A631A631A692
:1010A60031A631A631A631A6312421610841084175
:1010B60008410841084108410841084108410841E2
:1010C600084108410841086108E3180000000000D3
:1010D6000000000000000041086108610861086125
:1010E60008610861086118610861086108610861A2
:1010F6000861086108610861080421C739C739C752
:1011060039C739C739C739C739C739C739C739C7D9
:1011160039C739C739C739042161086108610861CF
:101126000861086108610861086108611861086161
:1011360008610861086108610841080000000000B4
:101146000000000000000061086108610861086194
:1011560008610861088220A230610861086108619F
:1011660008610861086108610861082421C739C758
:1011760039C739C739C739C739C739C739C739C769
:1011860039C739C7392421610861086108610861D6
:10119600086108610861086108A23082206108615F
:1011A6000861086108610861086108000000000024
:1011B6000000000000000061088210821082108288
:1011C60010821082108210037182108210821082A7
:1011D600108210821082108210821082108631C70F
:1011E60039C739C739C739C739C739C739C739C7F9
:1011F60039C739863182108210821082108210829D
:101206001082108210821082100371821082108266
:101216001082108210821082106108000000000007
:10122600000000000000008210A210A210A210A26E
:1012360010A210A210A2102381C228A210A210A2EE
:1012460010A210A210A210A210A210A210E318C79A
:1012560039C739C739C739C739C739C739C739C788
:1012660039C739E318A210A210A210A210A210A228
:1012760010A210A210A210C2282381A210A210A2AE
:1012860010A210A210A210A21082100000000000EE
:10129600000000000000008210C318C318C318C362
:1012A60018C318C318C318E3482389C318C318C33F
:1012B60018C318C318C318C318C318C318C318A66D
:1012C60031E739E739E739E739E739E739E739E720
:1012D60039A631C318C318C318C318C318C318C313
:1012E60018C318C318C3182389E348C318C318C3FF
:1012F60018C318C318C318C318A2100000000000B2
:1013060000000000000000A210E318E318E318E351
:1013160018E318E318E318E320C5C9C739E318E34F
:1013260018E318E318E318E318E318E318E318457D
:1013360029E739E739E739E739E739E739E739E7B7
:10134600394529E318E318E318E318E318E318E32B
:1013560018E318E318C739C5C9E320E318E318E30F
:1013660018E318E318E318E318A2100000000000C1
:1013760000000000000000A21004212421242124E2
:1013860021242124212421694A9AD6DBDE108424D3
:10139600212421242124212421242124212421241F
:1013A60021E739E739E739E739E739E739E739E74F
:1013B60039242124212421242124212421242124E7
:1013C6002124211084DBDE9AD6694A242124212493
:1013D600212421242124210421A210000000000040
:1013E60000000000000000000004214529452945B1
:1013F60029452945294529718C1CE73CE738C6450E
:101406002945294529452945294529452945294566
:1014160029E739084208420842084208420842E7DA
:101426003945294529452945294529452945294536
:1014360029452938C63CE71CE7718C4529452945CD
:1014460029452945294529042100000000000000FE
:10145600000000000000000000042186318631866D
:10146600318631863186310C63FBDE1CE7B2948609
:1014760031863186318631863186318631863186AE
:1014860031E739084208420842084208420842E762
:101496003986318631863186318631863186318686
:1014A600318631B2941CE7FBDE0C638631863186C9
:1014B60031863186318631042100000000000000AB
:1014C60000000000000000000000006529C739C7C1
:1014D60039C739C739C739C7398A52EB5AC739C7E5
:1014E60039C739C739C739C739C739C739C739C7F6
:1014F60039E739084208420842084208420842E7EA
:1015060039C739C739C739C739C739C739C739C7D5
:1015160039C739C739EB5A8A52C739C739C739C7A4
:1015260039C739C7396529000000000000000000EE
:1015360000000000000000000000004529C739082F
:101546004208420842084208420842084208420845
:101556004208420842084208420842084208420835
:101566004208422842284228422842284228420865
:101576004208420842084208420842084208420815
:101586004208420842084208420842084208420805
:10159600420842C73965290000000000000000002B
:1015A6000000000000000000000000000086310876
:1015B60042494A494A494A494A494A494A494A4995
:1015C6004A494A494A494A494A494A494A494A497D
:1015D6004A284228422842284228422842284228AD
:1015E60042494A494A494A494A494A494A494A4965
:1015F6004A494A494A494A494A494A494A494A494D
:101606004A0842A631000000000000000000000069
:10161600000000000000000000000000000000A61E
:101626003108428A528A528A528A528A528A528A87
:10163600528A528A528A528A528A528A528A528AC4
:101646005228422842284228422842284228422834
:10165600428A528A528A528A528A528A528A528AB4
:10166600528A528A528A528A528A528A528A520816
:1016760042A631000000000000000000000000004B
:101686000000000000000000000000000000000054
:10169600000000E739494A8A52CB5AEB5AEB5AEB1B
:1016A6005AEB5AEB5AEB5AEB5AEB5AEB5AEB5AAA4D
:1016B60052494A494A494A494A494A494A494A4984
:1016C6004AAA52EB5AEB5AEB5AEB5AEB5AEB5AEB45
:1016D6005AEB5AEB5AEB5ACB5A8A52494AE7390027
:1016E60000000000000000000000000000000000F4
:1016F60000000000000000000000000000000000E4
:1017060000000000000000A6310842494A8A528AB9
:1017160052AA52AA52AA52AA52AA52AA52AA524944
:101726004A0842E739E739E739E739E739E7390857
:1017360042494AAA52AA52AA52AA52AA52AA52AA3C
:10174600528A528A52494A0842A6310000000000D5
:101756000000000000000000000000000000000083
:101766000000000000000000000000000000000073
:101776000000000000000000000000000000000063
:101786000000000000000000000000000000000053
:101A160000000080FC80FC80FC80FC80FC80FC8058
:101A2600FC80FC80FC80FC80FC80FC80FC80FC80D0
:101A3600FC80FC80FC80FCA0FC805100DC80FC80EB
:101A4600FC80FC80FC80FC80FC80FC80FC80FC80B0
:101A5600FC80FC80FC80FC80FC80FC80FC80FC80A0
:101A6600FC00000000000000000000000000000074
:101A760000000000000000000000000000000080E0
:101A8600FC80FC80FC80FCA0FCA0FC80FCA0FCA0F0
:101A9600FCA0FC80FCA0FCA0FC80FCA0FCA0FCA0A0
:101AA600FC80FCA0FCA0FCA0FC604900DCA0FC8043
:101AB600FCA0FCA0FCA0FC80FCA0FCA0FC80FCA080
:101AC600FCA0FCA0FC80FCA0FCA0FCA0FC80FC8090
:101AD600FC80FC80FC00000000000000000000000C
:101AE6000000000000000000000000000000006090
:101AF600F480FCA0FC80FCA0FCA0FC80FCA0FCA068
:101B0600FCA0FC80FCA0FCA0FC80FCA0FCA0FCA02F
:101B1600FC80FCA0FCA0FCA0FC604900DCA0FC80D2
:101B2600FCA0FCA0FCA0FC80FCA0FCA0FC80FCA00F
:101B3600FCA0FCA0FC80FCA0FCA0FC80FCA0FCA0FF
:101B4600FC80FC60EC80FC0000000000000000004F
:101B56000000000000000000000000000060F480AB
:101B6600FCA0FC80FC80FC80FC80FC80FC80FC806F
:101B7600FC80FC80FC80FC80FC80FC80FC80FC807F
:101B8600FC80FC80FC80FCA0FC604900DC80FC80C2
:101B9600FC80FC80FC80FC80FC80FC80FC80FC805F
:101BA600FC80FC80FC80FC80FC80FC80FC80FC804F
:101BB600FC80FC80FC60F480FC000000000000005B
:101BC600000000000000000000000060F480FCA09F
:101BD600FCA0FCA0FC80FCA0FCA0FC80FCA0FCA05F
:101BE600FCA0FC80FCA0FCA0FC80FCA0FCA0FCA04F
:101BF600FC80FCA0FCA0FCA0FC604900DCA0FC80F2
:101C0600FCA0FCA0FCA0FC80FCA0FCA0FC80FCA02E
:101C1600FCA0FCA0FC80FCA0FCA0FC80FCA0FCA01E
:101C2600FCA0FC80FC80FC60EC80FC000000000056
:101C360000000000000000000080FC80FC80FCA08A
:101C4600FCA0FCA0FC80FCA0FCA0FC80FCA0FCA0EE
:101C5600FCA0FC80FCA0FCA0FC80FCA0FCA0FCA0DE
:101C6600FC80FCA0FCA0FCA0FC604900DCA0FC8081
:101C7600FCA0FCA0FCA0FC80FCA0FCA0FC80FCA0BE
:101C8600FCA0FCA0FC80FCA0FCA0FC80FCA0FCA0AE
:101C9600FCA0FC80FCA0FC80FC80FC000000000096
:101CA6000000000000000080FC80FC80FC80FCA09E
:101CB600FCA0FCA0FC80FCA0FCA0FC80FCA0FCA07E
:101CC600FCA0FC80FCA0FCA0FC80FCA0FCA0FCA06E
:101CD600FC80FCA0FCA0FCA0FC604900DCA0FC8011
:101CE600FCA0FCA0FCA0FC80FCA0FCA0FC80FCA04E
:101CF600FCA0FCA0FC80FCA0FCA0FC80FCA0FCA03E
:101D0600FCA0FC80FCA0FCA0FC80FC80FC00000089
:101D16000000000000000080FC80F4A0FC80FC8035
:101D2600FC80FC80FC80FC80FC80FC80FC80FC0449
:101D3600FD47FD80FC80FC80FC80FC80FC80FC80F4
:101D4600FC80FC80FC80FCA0FC604900DC80FC8000
:101D5600FC80FC80FC80FC80FC80FC80FC80FC809D
:101D6600FC80FC80FC80FC80FC80FC80FC80FC808D
:101D7600FC80FC80FC80FC80FC80FC60F4000000A1
:101D86000000000000000080FC80FCA0FC80FCA09D
:101D9600FCA0FCA0FC80FCA0FCA0FC80FC80FCAAB3
:101DA600FD50FE80FCA0FCA0FC80FCA0FCA0FCA0DA
:101DB600FC80FCA0FCA0FCA0FC604900DCA0FC8030
:101DC600FCA0FCA0FCA0FC80FCA0FCA0FC80FCA06D
:101DD600FCA0FCA0FC80FCA0FCA0FC80FCA0FCA05D
:101DE600FCA0FC80FCA0FCA0FC80FC80FC000000A9
:101DF6000000000000000040ECA0FCA0FC80FCA05D
:101E0600FCA0FCA0FC80FCA0FCA0FC80FC80FCAA42
:101E1600FD50FE80FCA0FCA0FC80FCA0FCA0FCA069
:101E2600FC80FCA0FCA0FCA0FC604900DCA0FC80BF
:101E3600FCA0FCA0FCA0FC80FCA0FCA0FC80FCA0FC
:101E4600FCA0FCA0FC80FCA0FCA0FC80FCA0FCA0EC
:101E5600FCA0FC80FCA0FCA0FCA0FC60EC00000048
:101E66000000000000000040ECA0FC80FC80FC802C
:101E7600FC80FC80FC80FC80FC80FC80FC80FCA953
:101E8600FD50FE80FC80FC80FC80FC80FC80FC8099
:101E9600FC80FC80FC80FCA0FC604900DC80FC80AF
:101EA600FC80FC80FC80FC80FC80FC80FC80FC804C
:101EB600FC80FC80FC80FC80FC80FC80FC80FC803C
:101EC600FC80FC80FC80FC80FC80FC40EC00000078
:101ED6000000000000000040ECA0FCA0FC80FCA07C
:101EE600FCA0FCA0FC80FCA0FCA0FCA0FCA0FCAA22
:101EF600FD50FEA0FCA0FCA0FCA0FCA0FCA0FCA049
:101F0600FC80FCA0FCA0FCA0FC604900DCA0FC80DE
:101F1600FCA0FCA0FCA0FCA0FCA0FCA0FCA0FCA0DB
:101F2600FCA0FCA0FCA0FCA0FCA0FCA0FCA0FCA0CB
:101F3600FCA0FC80FCA0FCA0FCA0FC40EC00000087
:101F46000000000000000060F4A0FCA0FC80FCA0E3
:101F5600FCA0FCA0FCA1FCB3FEF5FEF5FEF5FE38E8
:101F6600FF7AFFF5FEF5FEF5FEF5FEC1FCA0FCA02E
:101F7600FC80FCA0FCA0FCA0FC604900DCA0FC806E
:101F8600FCA0FCA0FCA0FCA0FC50FEF5FEF5FEF5B6
:101F9600FEF5FEF5FEF5FEF5FEF5FED5FE46FDA0C8
:101FA600FCA0FC80FCA0FCA0FC80FC80F4000000EF
:101FB6000000000000000080FCA0FCA0FC80FCA04B
:101FC600FCA0FCA0FCA0FCE4FCE4FCE4FCE4FCECCF
:101FD600FD72FEE4FCE4FCE4FC04FDA0FCA0FCA015
:101FE600FC80FCA0FCA0FCA0FC604900DCA0FC80FE
:101FF600FCA0FCA0FCA0FCA0FCE3FCE4FCE4FCE4EC
:10200600FCE4FCE4FCE4FCE4FCE4FCE4FCA1FCA051
:10201600FCA0FC80FCA0FCA0FC80FC80FC00000076
:102026000000000000000080FC80FC80FC80FC803A
:10203600FC80FC80FC80FC80FC80FC80FC80FCA991
:10204600FD50FE80FC80FC80FC80FC80FC80FC80D7
:10205600FC80FC80FC80FCA0FC604900DC80FC80ED
:10206600FC80FC80FC80FC80FC80FC80FC80FC808A
:10207600FC80FC80FC80FC80FC80FC80FC80FC807A
:10208600FC80FC80FC80FC80FC80FC80FC00000066
:102096000000000000000080FCA0FCA0FC80FCA06A
:1020A600FCA0FCA0FC80FCA0FCA0FC80FC80FCAAA0
:1020B600FD50FE80FCA0FCA0FC80FCA0FCA0FCA0C7
:1020C600FC80FCA0FCA0FCA0FC604900DCA0FC801D
:1020D600FCA0FCA0FCA0FC80FCA0FCA0FC80FCA05A
:1020E600FCA0FCA0FC80FCA0FCA0FC80FCA0FCA04A
:1020F600FCA0FC80FCA0FCA0FC80FC80FC00000096
:102106000000000000000080FCA0FCA0FC80FCA0F9
:10211600FCA0FCA0FC80FCA0FCA0FC80FC80FCAA2F
:10212600FD50FE80FCA0FCA0FC80FCA0FCA0FCA056
:10213600FC80FCA0FCA0FCA0FC604900DCA0FC80AC
:10214600FCA0FCA0FCA0FC80FCA0FCA0FC80FCA0E9
:10215600FCA0FCA0FC80FCA0FCA0FC80FCA0FCA0D9
:10216600FCA0FC80FCA0FCA0FC80FC80FC00000025
:102176000000000000000080FC80FC80FC80FC80E9
:10218600FC80FC80FC80FC80FC80FC80FC80FC46A3
:10219600FDABFD80FC80FC80FC80FC80FC80FC802C
:1021A600FC80FC80FC80FCA0FC604900DC80FC809C
:1021B600FC80FC80FC80FC80FC80FC80FC80FC8039
:1021C600FC80FC80FC80FC80FC80FC80FC80FC8029
:1021D600FC80FC80FC80FC80FC80FC80FC00000015
:1021E6000000000000000080FCA0FCA0FC80FCA019
:1021F600FCA0FCA0FC80FCA0FCA0FC80FCA0FC8059
:10220600FC80FC80FCA0FCA0FC80FCA0FCA0FCA048
:10221600FC80FCA0FCA0FCA0FC604900DCA0FC80CB
:10222600FCA0FCA0FCA0FC80FCA0FCA0FC80FCA008
:10223600FCA0FCA0FC80FCA0FCA0FC80FCA0FCA0F8
:10224600FCA0FC80FCA0FCA0FC80FCA0FC00000024
:102256000000000000000080FCA0FCA0FC80FCA0A8
:10226600FCA0FCA0FC80FCA0FCA0FC80FCA0FCA0C8
:10227600FCA0FC80FCA0FCA0FC80FCA0FCA0FCA0B8
:10228600FC80FCA0FCA0FCA0FC604900DCA0FC805B
:10229600FCA0FCA0FCA0FC80FCA0FCA0FC80FCA098
:1022A600FCA0FCA0FC80FCA0FCA0FC80FCA0FCA088
:1022B600FCA0FC80FCA0FCA0FC80FCA0FC000000B4
:1022C6000000000000000080FCA0FCA0FC80FCA038
:1022D600FCA0FCA0FC80FCA0FCA0FC80FCA0FCA058
:1022E600FCA0FC80FCA0FCA0FC80FCA0FCA0FCA048
:1022F600FC80FCA0FCA0FCA0FC604900DCA0FC80EB
:10230600FCA0FCA0FCA0FC80FCA0FCA0FC80FCA027
:10231600FCA0FCA0FC80FCA0FCA0FC80FCA0FCA017
:10232600FCA0FC80FCA0FCA0FC80FCA0FC00000043
:102336000000000000000060F480FC80FC80FC804F
:10234600FC80FC80FC80FC80FC80FC80FC80FC80A7
:10235600FC80FC80FC80FC80FC80FC80FC80FC8097
:10236600FC80FC80FC80FCA0FC604900DC80FC80DA
:10237600FC80FC80FC80FC80FC80FC80FC80FC8077
:10238600FC80FC80FC80FC80FC80FC80FC80FC8067
:10239600FC80FC80FC80FC80FC80FC80FC00000053
:1023A6000000000000000040ECA0FCA0FC80FCA0A7
:1023B600FCA0FCA0FC80FCA0FCA0FC80FCA0FCA077
:1023C600FCA0FC80FCA0FCA0FC80FCA0FCA0FCA067
:1023D600FC80FCA0FCA0FCA0FC604900DCA0FC800A
:1023E600FCA0FCA0FCA0FC80FCA0FCA0FC80FCA047
:1023F600FCA0FCA0FC80FCA0FCA0FC80FCA0FCA037
:10240600FCA0FC80FCA0FCA0FC80FC80FC00000082
:102416000000000000000040ECA0FCA0FC80FCA036
:10242600FCA0FCA0FC80FCA0FCA0FC80FCA0FCA006
:10243600FCA0FC80FCA0FCA0FC80FCA0FCA0FCA0F6
:10244600FC80FCA0FCA0FCA0FC604900DCA0FC8099
:10245600FCA0FCA0FCA0FC80FCA0FCA0FC80FCA0D6
:10246600FCA0FCA0FC80FCA0FCA0FC80FCA0FCA0C6
:10247600FCA0FC80FCA0FCA0FC80FC81F400000019
:1024860000000000000000E0D3C0CBC0CBC0CBC032
:10249600CBC0CBC0CBC0CBC0CBC0CBC0CBC0CBC0DE
:1024A600CBC0CBC0CBC0CBC0CBC0CBC0CBC0CBC0CE
:1024B600CBC0CBC0CBC0CBE0CB204140B3C0CBC060
:1024C600CBC0CBC0CBC0CBC0CBC0CBC0CBC0CBC0AE
:1024D600CBC0CBC0CBC0CBC0CBC0CBC0CBC0CBC09E
:1024E600CBC0CBC0CBC0CBC0CBC0CBE1CB000000B8
:1024F60000000000000000E09AA059A059A059A0D1
:1025060059A059A059A059A059A059A059A059A0FD
:1025160059A059A059A059A059A059A059A059A0ED
:1025260059A059A059A059C05980180842494A498A
:102536004A494A494A494A494A494A494A494A49FD
:102546004A494A494A494A494A494A494A494A49ED
:102556004A494A494A494A494A494ACA6200000020
:102566000000000000000060ECA0FCA0FCA0FCA0A5
:10257600FCA0FCA0FCA0FCA0FCA0FCA0FCA0FCA075
:10258600FCA0FCA0FCA0FCA0FCA0FCA0FCA0FCA065
:10259600FCA0FCA0FCA0FCC0FC814996B559CE5914
:1025A600CE59CE59CE59CE59CE59CE59CE59CE59ED
:1025B600CE59CE59CE59CE59CE59CE59CE59CE59DD
:1025C600CE59CE59CE59CE59CE59CE17C600000097
:1025D6000000000000000040ECA0FCA0FC80FCA075
:1025E600FCA0FCA0FC80FCA0FCA0FC80FCA0FCA045
:1025F600FCA0FC80FCA0FCA0FC80FCA0FCA0FCA035
:10260600FC80FCA0FCA0FCA0FC814976AD39C63953
:10261600C639C639C639C639C639C639C639C639BC
:10262600C639C639C639C639C639C639C639C639AC
:10263600C639C639C639C639C639C618C6000000F5
:102646000000000000000060F480FC80FC80FC803C
:10265600FC80FC80FC80FC80FC80FC80FC80FC8094
:10266600FC80FC80FC80FC80FC80FC80FC80FC8084
:10267600FC80FC80FC80FCA0FC814976AD39C63923
:10268600C639C639C639C639C639C639C639C6394C
:10269600C639C639C639C639C639C639C639C6393C
:1026A600C639C639C639C639C639C638C600000065
:1026B6000000000000000080FCA0FCA0FC80FCA044
:1026C600FCA0FCA0FC80FCA0FCA0FC80FCA0FCA064
:1026D600FCA0FC80FCA0FCA0FC80FCA0FCA0FCA054
:1026E600FC80FCA0FCA0FCA0FC814976AD39C63973
:1026F600C639C639C639C639C639C639C639C639DC
:10270600C639C639C639C639C639C639C639C639CB
:10271600C639C639C639C639C639C639C6000000F3
:102726000000000000000080FCA0FCA0FC80FCA0D3
:10273600FCA0FCA0FC80FCA0FCA0FC80FCA0FCA0F3
:10274600FCA0FC80FCA0FCA0FC80FCA0FCA0FCA0E3
:10275600FC80FCA0FCA0FCA0FC814976AD39C63902
:10276600C639C639C639C639C639C639C639C6396B
:10277600C639C639C639C639C639C639C639C6395B
:10278600C639C639C639C639C639C639C600000083
:102796000000000000000080FCA0FCA0FC80FCA063
:1027A600FCA0FCA0FC80FCA0FCA0FC80FCA0FCA083
:1027B600FCA0FC80FCA0FCA0FC80FCA0FCA0FCA073
:1027C600FC80FCA0FCA0FCA0FC814976AD39C63992
:1027D600C639C639C639C639C639C639C639C639FB
:1027E600C639C639C639C639C639C639C639C639EB
:1027F600C639C639C639C639C639C639C600000013
:102806000000000000000080FC80FC80FC80FC8052
:10281600FC80FC80FC80FC80FC80FC80FC80FC80D2
:10282600FC80FC80FC80FC80FC80FC80FC80FC80C2
:10283600FC80FC80FC80FCA0FC814976AD39C63961
:10284600C639C639C639C639C639C639C639C6398A
:10285600C639C639C639C639C639C639C639C6397A
:10286600C639C639C639C639C639C639C6000000A2
:102876000000000000000080FCA0FCA0FC80FCA082
:10288600FCA0FCA0FC80FC80FCC1FCA0FCA0FCA081
:10289600FCA0FC80FCA0FCC1FCA0FCA0FCA0FCA051
:1028A600FC80FCA0FCA0FCA0FC814976AD39C639B1
:1028B600C639C639C639C639C639C639C639C6391A
:1028C600C639C639C639C639C639C639C639C6390A
:1028D600C639C639C639C639C639C639C600000032
:1028E6000000000000000080FCA0FCA0FC80FCA012
:1028F600FCA0FCA0FC80FC80FC71FEECFD80FCA032
:10290600FCA0FC80FC89FD92FEA0FCA0FCA0FCA023
:10291600FC80FCA0FCA0FCA0FC814976AD39C63940
:10292600C639C639C639C639C69294F07BF07BF0F3
:102936007BF07BF07BF07BF07BF07B107C96B539EF
:10294600C639C639C639C639C639C639C6000000C1
:102956000000000000000080FC80FC80FC80FC8001
:10296600FC80FC80FC80FC80FCC2FC17FFECFD8038
:10297600FC80FC88FD17FF04FD80FC80FC80FC8049
:10298600FC80FC80FC80FCA0FC814976AD39C63910
:10299600C639C639C639C639C6F07B2D632D632DB7
:1029A600632D632D632D632D632D632D6375AD3903
:1029B600C639C639C639C639C639C639C600000051
:1029C6000000000000000080FCA0FCA0FC80FCA031
:1029D600FCA0FCA0FC80FCA0FCA0FCC1FC16FFED4A
:1029E600FD89FD37FF04FD80FC80FCA0FCA0FCA057
:1029F600FC80FCA0FCA0FCA0FC814976AD39C63960
:102A0600C639C639C639C639C639C639C639C639C8
:102A1600C639C639C639C639C639C639C639C639B8
:102A2600C639C639C639C639C639C639C6000000E0
:102A36000000000000000080FCA0FCA0FC80FCA0C0
:102A4600FCA0FCA0FC80FCA0FCA0FC80FCE2FC3806
:102A5600FF9BFF05FD80FCA0FC80FCA0FCA0FCA069
:102A6600FC80FCA0FCA0FCA0FC814976AD39C639EF
:102A7600C639C639C639C639C639C639C639C63958
:102A8600C639C639C639C639C639C639C639C63948
:102A9600C639C639C639C639C639C639C600000070
:102AA6000000000000000060F4A0FCA0FC80FCA078
:102AB600FCA0FCA0FC80FCA0FCA0FC80FC88FD59CE
:102AC600FF38FFEDFD80FCA0FC80FCA0FCA0FCA074
:102AD600FC80FCA0FCA0FCA0FC814976AD39C6397F
:102AE600C639C639C639C639C639C639C639C639E8
:102AF600C639C639C639C639C639C639C639C639D8
:102B0600C639C639C639C639C639C639C6000000FF
:102B16000000000000000040E4A0FC80FC80FC8077
:102B2600FC80FC80FC80FC80FC80FC88FD5AFF0356
:102B3600FDC1FC16FFEDFDA0FC80FC80FC80FC8046
:102B4600FC80FC80FC80FCA0FC814976AD39C6394E
:102B5600C639C639C639C639C6B7B596AD96AD9625
:102B6600AD96AD96AD96AD96AD96AD96AD18BE3911
:102B7600C639C639C639C639C639C639C60000008F
:102B86000000000000000040ECA0FCA0FC80FCA0BF
:102B9600FCA0FCA0FC80FC80FC89FD59FF03FDA085
:102BA600FCA0FCC2FCF6FEECFDA0FCA0FCA0FCA078
:102BB600FC80FCA0FCA0FCA0FC814976AD39C6399E
:102BC600C639C639C639C638C6CB5AA631A631A6C5
:102BD60031A631A631A631A631A631A631F49C39EB
:102BE600C639C639C639C639C639C639C60000001F
:102BF6000000000000000080F480FCA0FC80FCA027
:102C0600FCA0FCA0FC80FC80FCEDFD04FDA0FCA06B
:102C1600FCA0FC80FCE3FC0DFEA0FCA0FCA0FCA03C
:102C2600FC80FCA0FCA0FCA0FC814976AD39C6392D
:102C3600C639C639C639C639C639C659C659C65936
:102C4600C659C659C659C659C659C659C639C639C6
:102C5600C639C639C639C639C639C639C6000000AE
:102C66000000000000000080FC80FC80FC80FC80EE
:102C7600FC80FC80FC80FC80FC80FC80FC80FC806E
:102C8600FC80FC80FC80FC80FC80FC80FC80FC805E
:102C9600FC80FC80FC80FCA0FC814976AD39C639FD
:102CA600C639C639C639C639C639C639C639C63926
:102CB600C639C639C639C639C639C639C639C63916
:102CC600C639C639C639C639C639C639C60000003E
:102CD6000000000000000080FC80F4A0FC80FCA046
:102CE600FCA0FCA0FC80FCA0FCA0FC80FCA0FCA03E
:102CF600FCA0FC80FCA0FCA0FC80FCA0FCA0FCA02E
:102D0600FC80FCA0FCA0FCA0FC814976AD39C6394C
:102D1600C639C639C639C639C639C639C639C639B5
:102D2600C639C639C639C639C639C639C639C639A5
:102D3600C639C639C639C639C639C639C6000000CD
:102D460000000000000000000080FC80FC80FCA069
:102D5600FCA0FCA0FC80FCA0FCA0FC80FCA0FCA0CD
:102D6600FCA0FC80FCA0FCA0FC80FCA0FCA0FCA0BD
:102D7600FC80FCA0FCA0FCA0FC814976AD39C639DC
:102D8600C639C639C639C639C639C639C639C63945
:102D9600C639C639C639C639C639C639C639C63935
:102DA600C639C639C639C639C639C600000000005C
:102DB60000000000000000000080FC80F480FCA001
:102DC600FCA0FCA0FC80FCA0FCA0FC80FCA0FCA05D
:102DD600FCA0FC80FCA0FCA0FC80FCA0FCA0FCA04D
:102DE600FC80FCA0FCA0FCA0FC814976AD39C6396C
:102DF600C639C639C639C639C639C639C639C639D5
:102E0600C639C639C639C639C639C639C639C639C4
:102E1600C639C639C639C639C639C60000000000EB
:102E2600000000000000000000000060F460F4A054
:102E3600FC80FC80FC80FC80FC80FC80FC80FC80AC
:102E4600FC80FC80FC80FC80FC80FC80FC80FC809C
:102E5600FC80FC80FC80FCA0FC814976AD39C6393B
:102E6600C639C639C639C639C639C639C639C63964
:102E7600C639C639C639C639C639C639C639C63954
:102E8600C639C639C639C639C6000000000000007A
:102E96000000000000000000000000000080FC6050
:102EA600F480FCA0FC80FCA0FCA0FC80FCA0FCA0A4
:102EB600FCA0FC80FCA0FCA0FC80FCA0FCA0FCA06C
:102EC600FC80FCA0FCA0FCA0FC814976AD39C6398B
:102ED600C639C639C639C639C639C639C639C639F4
:102EE600C639C639C639C639C639C639C639C639E4
:102EF600C639C639C639C600000000000000000009
:102F0600000000000000000000000000000000803B
:102F1600F460F480FCA0FCA0FCA0FC80FCA0FCA05B
:102F2600FCA0FC80FCA0FCA0FC80FCA0FCA0FCA0FB
:102F3600FC80FCA0FCA0FCA0FC814976AD39C6391A
:102F4600C639C639C639C639C639C639C639C63983
:102F5600C639C639C639C639C639C639C639C63973
:102F6600C639C639C6000000000000000000000097
:102F7600000000000000000000000000000000004B
:102F86000080FC80FC80F480FC80FC80FC80FC805F
:102F9600FC80FC80FC80FC80FC80FC80FC80FC804B
:102FA600FC80FC80FC80FCA0FC814976AD39C639EA
:102FB600C639C639C639C639C639C639C639C63913
:102FC600C639C639C639C639C639C639C639C63903
:102FD600C639C60000000000000000000000000026
:102FE60000000000000000000000000000000000DB
:102FF6000000000000000080FC80FC80FC80FC805B
:10300600FC80FC80FC80FC80FC80FCA0FCA0FCA07A
:10301600FC80FC60F461EC83E4869B30BD94BDB615
:10302600BD18BE39C639C639C639C639C639C639D4
:10303600C639C639C639C639C639C639C6000000CA
:10304600000000000000000000000000000000007A
:10305600000000000000000000000000000000006A
:10306600000000000000000000000000000000005A
:10307600000000000000000000000000000000004A
:1032960000000000000000DA23BA239923DA23FB9A
:1032A60023FC2BFC2B1C2C1C2C1C2C1C2C1C2C1C23
:1032B6002C1C2C1C2C1C2C1C2C1C2C1C2C1C2C1CC8
:1032C6002C1C2C1C2C1C2C1C2C1C2C1C2CFC2BFCF9
:1032D6002BFB23DA23B923BA23DA230000000000EC
:1032E60000000000000000000000000000000000D8
:1032F60000000000000000000000000000000000C8
:10330600000000DA23DB231C2C3D2C5D2C5D2C5D9C
:103316002C5D2C5D2C5D2C5D2C5D2C5D2C5D2C5D5F
:103326002C5D2C5D2C5D2C5D2C5D2C5D2C5D2C5D4F
:103336002C5D2C5D2C5D2C5D2C5D2C5D2C5D2C5D3F
:103346002C5D2C5D2C5D2C3D2C1C2CDB23DA230004
:103356000000000000000000000000000000000067
:10336600000000000000000000000000000000BA9D
:1033760023BA233D2C3D2C5D2C3D2C3D2C5D2C3D54
:103386002C5D2C3D2C5D2C3D2C3D2C5D2C3D2C5D6F
:103396002C3D2C5D2C3D2C3D2C5D2C3D2C5D2C3D7F
:1033A6002C5D2C3D2C5D2C3D2C3D2C5D2C3D2C5D4F
:1033B6002C3D2C5D2C3D2C3D2C5D2C3D2C3D2CDBE1
:1033C60023DA2300000000000000000000000000D7
:1033D600000000000000000000000000009923FB30
:1033E600235D2C5D2C3D2C5D2C3D2C3D2C5D2C3D18
:1033F6002C5D2C3D2C5D2C3D2C3D2C5D2C3D2C5DFF
:103406002C3D2C5D2C3D2C3D2C5D2C3D2C5D2C3D0E
:103416002C5D2C3D2C5D2C3D2C3D2C5D2C3D2C5DDE
:103426002C3D2C5D2C3D2C3D2C5D2C3D2C5D2C5DCE
:103436002CFB239923000000000000000000000080
:103446000000000000000000000000BA23FB2B5D16
:103456002C5D2C5D2C5D2C5D2C5D2C5D2C5D2C5D1E
:103466002C5D2C5D2C5D2C5D2C5D2C5D2C5D2C5D0E
:103476002C5D2C5D2C5D2C5D2C5D2C5D2C5D2C5DFE
:103486002C5D2C5D2C5D2C5D2C5D2C5D2C5D2C5DEE
:103496002C5D2C5D2C5D2C5D2C5D2C5D2C5D2C5DDE
:1034A6002C5D2CFB2BDA230000000000000000003E
:1034B6000000000000000000000000BA235D2C5D43
:1034C6002C3D2C5D2C3D2C5D2C3D2C3D2C5D2C3D4E
:1034D6002C5D2C3D2C5D2C3D2C3D2C5D2C3D2C5D1E
:1034E6002C3D2C5D2C3D2C3D2C5D2C3D2C5D2C3D2E
:1034F6002C5D2C3D2C5D2C3D2C3D2C5D2C3D2C5DFE
:103506002C3D2C5D2C3D2C3D2C5D2C3D2C5D2C3D0D
:103516002C5D2C5D2CBA230000000000000000008A
:10352600000000000000000000BA233D2C5D2C5D69
:103536002C5D2C5D2C5D2C5D2C5D2C5D2C5D2C5D3D
:103546002C5D2C5D2C5D2C5D2C5D2C5D2C5D2C5D2D
:103556002C5D2C5D2C5D2C5D2C5D2C5D2C5D2C5D1D
:103566002C5D2C5D2C5D2C5D2C5D2C5D2C5D2C5D0D
:103576002C5D2C5D2C5D2C5D2C5D2C5D2C5D2C5DFD
:103586002C5D2C5D2C3D2CDA230000000000000091
:10359600000000000000000000DB233D2C3D2C5DF8
:1035A6002C3D2C5D2C3D2C5D2C3D2C3D2C5D2C3D6D
:1035B6002C5D2C3D2C5D2C3D2C3D2C5D2C3D2C5D3D
:1035C6002C3D2C5D2C3D2C3D2C5D2C3D2C5D2C3D4D
:1035D6002C5D2C3D2C5D2C3D2C3D2C5D2C3D2C5D1D
:1035E6002C3D2C5D2C3D2C3D2C5D2C3D2C5D2C3D2D
:1035F6002C5D2C3D2C3D2CDB230000000000000040
:1036060000000000000000DA231C2C5D2C5D2C5D00
:103616002C5D2C5D2C5D2C5D2C5D2C5D2C5D2C5D5C
:103626002C5D2C5D2C5D2C5D2C5D2C5D2C5D2C5D4C
:103636002C5D2C5D2C5D2C5D2C5D2C5D2C5D2C5D3C
:103646002C5D2C5D2C5D2C5D2C5D2C5D2C5D2C5D2C
:103656002C5D2C5D2C5D2C5D2C5D2C5D2C5D2C5D1C
:103666002C5D2C5D2C5D2C1C2CDB23000000000047
:1036760000000000000000BA233D2C3D2C3D2C5DCF
:103686002C3D2C5D2C3D2C5D2C3D2C3D2C5D2C3D8C
:103696002C5D2C3D2C5D2C3D2C3D2C5D2C3D2C5D5C
:1036A6002C3D2C5D2C3D2C3D2C5D2C3D2C5D2C3D6C
:1036B6002C5D2C5D2C9E3C5E65DE85FE8DDE853E9A
:1036C600655D343D2C3D2C3D2C5D2C3D2C5D2C3D0B
:1036D6002C5D2C3D2C3D2C3D2CDA230000000000F7
:1036E60000000000000000B9235D2C3D2C3D2C5D40
:1036F6002C3D2C5D2C3D2C5D2C3D2C3D2C5D2C3D1C
:103706002C5D2C3D2C5D2C3D2C3D2C5D2C3D2C5DEB
:103716002C3D2C5D2C3D2C3D2C5D2C3D2C3D2C9EBA
:103726003CFE8D1FCFDFF7FFFFFFFFFFFFFFFFFF11
:10373600FF7FE73E653D2C3D2C5D2C3D2C5D2C3DF1
:103746002C5D2C3D2C3D2C5D2CB923000000000087
:1037560000000000000000DA235D2C5D2C5D2C5D6E
:103766002C5D2C5D2C5D2C5D2C5D2C5D2C5D2C5D0B
:103776002C5D2C5D2C5D2C5D2C5D2C5D2C5D2C5DFB
:103786002C3D2C7D341E55BE7D1E8E1E96BFB6FF6B
:10379600FFFFFFFFFFFFFF5FDF3E9E5E65FE543EBD
:1037A60065BFB6DFF7BE445D2C5D2C5D2C5D2C5DE0
:1037B6002C5D2C5D2C5D2C5D2CDA230000000000B6
:1037C60000000000000000FB235D2C3D2C3D2C5D1D
:1037D6002C3D2C5D2C3D2C5D2C3D2C3D2C5D2C3D3B
:1037E6002C5D2C3D2C5D2C3D2C3D2C5D2C5D2CFE4A
:1037F600549FAEBFEFFFFFFFFFFFFFFFFFFFFFFF7F
:10380600FFFFFFFFFF3FD79E443D2C5D2C3D2C5D07
:103816002C5D2C7FA61E8E3D2C5D2C3D2C5D2C3DFB
:103826002C5D2C3D2C3D2C5D2CFB23000000000064
:1038360000000000000000FB2B5D2C5D2C5D2C5D64
:103846002C5D2C5D2C5D2C5D2C5D2C5D2C5D2C5D2A
:103856002C5D2C5D2C5D2C5D2C5D2CBE44BFB6FF13
:10386600FFFFFFFFFFFFFFFFFFFFFFFFFFFFFFFF62
:10387600FFFFFFFFFFFFFFBFF71E8E5D345D2C5D70
:103886002C5D2CDE4C7FAE5D2C5D2C5D2C5D2C5DA5
:103896002C5D2C5D2C5D2C5D2CFB2B0000000000AC
:1038A60000000000000000FB2B5D2C3D2C3D2C5D34
:1038B6002C3D2C5D2C3D2C5D2C3D2C3D2C5D2C3D5A
:1038C6002C5D2C3D2C5D2C3D2C5E65BFEFFFFFFF74
:1038D600FFFFFFFFFFFFFFFFFFFFFFFFFFFFFFFFF2
:1038E600FFFFFFFFFFFFFFFFFFFFFF1FCFBE445D90
:1038F6002C3D2C9E3C5EA63D2C5D2C3D2C5D2C3D2E
:103906002C5D2C3D2C3D2C5D2CFC2B00000000007A
:1039160000000000000000FC2B5D2C5D2C5D2C5D82
:103926002C5D2C5D2C5D2C5D2C5D2C5D2C5D2C5D49
:103936002C5D2C5D2C3D2C9E75DFFFFFFFFFFFFFEE
:10394600FFFFFFFFFFFFFFFFFFFFFFFFFFFFFFFF81
:10395600FFFFFFFFFFFFFFFFFFFFFFFFFF7FE7BE4A
:10396600445D2CFE54BE7D5D2C5D2C5D2C5D2C5D76
:103976002C5D2C5D2C5D2C5D2C1C2C0000000000A9
:1039860000000000000000FC2B5D2C3D2C3D2C5D52
:103996002C3D2C5D2C3D2C5D2C3D2C3D2C5D2C3D79
:1039A6002C5D2C3D2C5E65DFFFFFFFBFEF1FCFFFB9
:1039B600FFFFFFFFFFFFFFFFFFFFFFFFFFFFFFFF11
:1039C600FFFFFFFFFFFFFFFFFFFFFFFFFFFFFF7F81
:1039D600DF9E3CDE85BE443D2C5D2C3D2C5D2C3DA2
:1039E6002C5D2C3D2C3D2C5D2C1C2C000000000079
:1039F60000000000000000FC2B5D2C3D2C3D2C5DE2
:103A06002C3D2C5D2C3D2C5D2C3D2C3D2C5D2C3D08
:103A16002C5D2C9E3C9FEFFFFFFFC69E75DFF7FFD8
:103A2600FFFFFFFFFFFFFF7FE79FB65FA6BFB67FE3
:103A3600E7FFFFFFFFFFFFFFFFFFFFFFFFFFFFFFA8
:103A4600FFBFBE5E9E3D2C3D2C5D2C3D2C5D2C3D6E
:103A56002C5D2C3D2C3D2C5D2C1C2C000000000008
:103A660000000000000000FC2B5D2C5D2C5D2C5D31
:103A76002C5D2C5D2C5D2C5D2C5D2C5D2C5D2C5DF8
:103A86002C3D2C9FAEFFFF5E9E1E5DDFF7FFFFFF06
:103A9600FFFFFF7FE75E6D5D2C5D2C5D2C5D2C5D71
:103AA6002C5E6D7FE7FFFFFFFFFFFFFFFFFFFFFFBE
:103AB600FFFFFFFE8D5D2C5D2C5D2C5D2C5D2C5D6E
:103AC6002C5D2C5D2C5D2C5D2C1C2C000000000058
:103AD60000000000000000FC2B5D2C3D2C3D2C5D01
:103AE6002C3D2C5D2C3D2C5D2C3D2C3D2C5D2C3D28
:103AF6002CDE4CDFF7FE8DDE4C9FEFFFFFFFFFFF56
:103B0600FF5FD79E3C3D2C3D2C5D2C3D2C5D2C3D16
:103B16002C5D2C9E3C5FD7FFFFFFFFFFFFFFFFFFE3
:103B2600FFFFFF5FD75D2C3D2C5D2C3D2C5D2C3DB2
:103B36002C5D2C3D2C3D2C5D2C1C2C000000000027
:103B460000000000000000FC2B5D2C5D2C5D2C5D50
:103B56002C5D2C5D2C5D2C5D2C5D2C5D2C5D2C3D37
:103B66002C3E9EDE857D345FD7FFFFFFFFFFFFDF24
:103B7600F7DE4C5D2C5D2C5D2C5D2C5D2C5D2C5D8B
:103B86002C5D2C5D2CDE4CDFFFFFFFFFFFFFFFFFF0
:103B9600FFFFFFFFFF1E5D5D2C5D2C5D2C5D2C5D28
:103BA6002C5D2C5D2C5D2C5D2C1C2C000000000077
:103BB60000000000000000FC2B5D2C3D2C3D2C5D20
:103BC6002C3D2C5D2C3D2C5D2C3D2C3D2C5D2C5D27
:103BD6002C9E755D2C9FB6FFFFFFFFFFFFFFFF9F2B
:103BE600AE3D2C5D2C3D2C3D2C5D2C3D2C5D2C3DA5
:103BF6002C5D2C3D2C3D2C9FB6FFFFFFFFFFFFFFEA
:103C0600FFFFFFFFFF5E9E3D2C5D2C3D2C5D2C3D96
:103C16002C5D2C3D2C3D2C5D2C1C2C000000000046
:103C260000000000000000FC2B5D2C5D2C5D2C5D6F
:103C36002C5D2C5D2C5D2C5D2C5D2C5D2C5D2C5D36
:103C46002C5D2C9E7DFFFFFFFFFFFFFFFFFFFF9E0A
:103C5600753D2C3D2C3D2C3D2C3D2C3D2C3D2C3DCD
:103C66002C3D2C3D2C3D2C9E7DFFFFFFFFFFFFFFD3
:103C7600FFFFFFFFFF3FD75D2C5D2C5D2C5D2C5DAC
:103C86002C5D2C5D2C5D2C5D2C1C2C000000000096
:103C960000000000000000FC2B5D2C3D2C3D2C5D3F
:103CA6002C3D2C5D2C3D2C5D2C3D2C3D2C5D2C3D66
:103CB6002CBE44BFEFFFFFFFFFFFFFFFFFFFFF5FCD
:103CC600DF1FCF1FCF1FCF1FCF1FCF1FCF1FCF1F6E
:103CD600CF1FCF1FCF1FCF5FDFFFFFFFFFFFFFFF0E
:103CE600FFFFFFFFFFBFEF5D345D2C3D2C5D2C3DDC
:103CF6002C5D2C3D2C3D2C5D2C1C2C000000000066
:103D060000000000000000FC2B5D2C5D2C5D2C5D8E
:103D16002C5D2C5D2C5D2C5D2C5D2C5D2C5D2C5D55
:103D26002CDFBEFFFFFFFFFFFFFFFFFFFFFFFFFFD1
:103D3600FFFFFFFFFFFFFFFFFFFFFFFFFFFFFFFF8D
:103D4600FFFFFFFFFFFFFFFFFFFFFFFFFFFFFFFF7D
:103D5600FFFFFFFFFFDFFF9E3C5D2C5D2C5D2C5DB2
:103D66002C5D2C5D2C5D2C5D2C1C2C0000000000B5
:103D760000000000000000FC2B5D2C3D2C3D2C5D5E
:103D86002C3D2C5D2C3D2C5D2C3D2C3D2C5D2C5E64
:103D96006DFFFFFFFFFFFFFFFFFFFFFFFFFFFFFFBF
:103DA600FFFFFFFFFFFFFFFFFFFFFFFFFFFFFFFF1D
:103DB600FFFFFFFFFFFFFFFFFFFFFFFFFFFFFFFF0D
:103DC600FFFFFFFFFFFFFF9E3C5D2C3D2C5D2C3D62
:103DD6002C5D2C3D2C3D2C5D2C1C2C000000000085
:103DE60000000000000000FC2B5D2C3D2C3D2C5DEE
:103DF6002C3D2C5D2C3D2C5D2C3D2C3D2C5D345FEB
:103E0600DFFFFFFFFFFFFFFFFFFFFFFFFFFFFFFFDC
:103E1600FFDFF7DFF7DFF7DFF7DFF7DFF7DFF7DFE4
:103E2600F7DFF7DFF7DFF7DFF7DFF7DFF7DFF7DFDC
:103E3600F7DFF7DFF7BFEF7D345D2C3D2C5D2C3DC2
:103E46002C5D2C3D2C3D2C5D2C1C2C000000000014
:103E560000000000000000FC2B5D2C5D2C5D2C5D3D
:103E66002C5D2C5D2C5D2C5D2C5D2C5D2CBE85FFA8
:103E7600FFFFFFFFFFFFFFFFFFFFFFFFFFFFFF9EAD
:103E8600755D345D345D345D345D345D345D345D63
:103E9600345D345D345D345D345D345D345D345D94
:103EA600345D345D345D2C5D2C5D2C5D2C5D2C5DAC
:103EB6002C5D2C5D2C5D2C5D2C1C2C000000000064
:103EC60000000000000000FC2B5D2C3D2C3D2C5D0D
:103ED6002C3D2C5D2C3D2C5D2C3D2C5D349FE7FF4D
:103EE600FFFFFFFFFFFFFFFFFFFFFFFFFFFFFF1EBD
:103EF600963D2C5D2C3D2C3D2C5D2C3D2C5D2C3DAA
:103F06002C5D2C3D2C5D2C3D2C3D2C5D2C3D2C5DE3
:103F16002C3D2C5D2C3D2C3D2C5D2C3D2C5D2C3DF3
:103F26002C5D2C3D2C3D2C5D2C1C2C000000000033
:103F360000000000000000FC2B5D2C5D2C5D2C5D5C
:103F46002C5D2C5D2C5D2C5D2C5D2C9E75FFFFFF82
:103F5600FFDFF7FFFFFFFFFFFFFFFFFFFFFFFF7F13
:103F6600E75D345D2C5D2C5D2C5D2C5D2C5D2C5D40
:103F76002C5D2C5D2C5D2CDE4CDE4CDE4CDE4CDEEE
:103F86004CDE4CDE4C7D345D2C5D2C5D2C5D2C5D59
:103F96002C5D2C5D2C5D2C5D2C1C2C000000000083
:103FA60000000000000000FC2B5D2C3D2C3D2C5D2C
:103FB6002C3D2C5D2C3D2C5D2C3D2C1FCFFFFFBFD7
:103FC600EF9E7DFFFFFFFFFFFFFFFFFFFFFFFFFFEE
:103FD600FF3E9E5D2C3D2C3D2C5D2C3D2C5D2C3DED
:103FE6002C5D2C3D2CBE7DFFFFFFFFFFFFFFFFFF7B
:103FF600FFFFFFDFF77D3C3D2C5D2C3D2C5D2C3D0E
:104006002C5D2C3D2C3D2C5D2C1C2C000000000052
:1040160000000000000000FC2B5D2C5D2C5D2C5D7B
:104026002C5D2C5D2C5D2C5D2C7D3CDFF7FFFF5E4F
:104036009E5D345FDFFFFFFFFFFFFFFFFFFFFFFF18
:10404600FFFFFF3E9E5D345D2C5D2C5D2C5D2C5D7F
:104056002C5D2CDE85DFFFFFFFFFFFFFFFFFFFFF6D
:10406600FFFFFF5E9E3D2C5D2C5D2C5D2C5D2C5D67
:104076002C5D2C5D2C5D2C5D2C1C2C0000000000A2
:1040860000000000000000FC2B5D2C3D2C3D2C5D4B
:104096002C3D2C5D2C3D2C5D2C1E5DFFFFFFFFFE95
:1040A600545D2C5E6DFFFFFFFFFFFFFFFFFFFFFF6D
:1040B600FFFFFFFFFF7FE7FE8D1E5DBE44FE54BE81
:1040C6007D3FD7FFFFFFFFFFFFFFFFFFFFFFFFFF64
:1040D600FF9FE79E3C3D2C3D2C5D2C3D2C5D2C3DF1
:1040E6002C5D2C3D2C3D2C5D2C1C2C000000000072
:1040F60000000000000000FC2B5D2C3D2C3D2C5DDB
:104106002C3D2C5D2C3D2C5D2CBE7DFFFF9FE75D7D
:10411600345D2C5D2C7FA6FFFFFFFFFFFFFFFFFF37
:10412600FFFFFFFFFFFFFFFFFFFFFFFFFFFFFFFF99
:10413600FFFFFFFFFFFFFFFFFFFFFFFFFFFFFFFF89
:10414600FF5E6D3D2C3D2C3D2C5D2C3D2C5D2C3DAC
:104156002C5D2C3D2C3D2C5D2C1C2C000000000001
:1041660000000000000000FC2B5D2C5D2C5D2C5D2A
:104176002C5D2C5D2C5D2C5D2CFE8DFFFFFFC63D5E
:104186002C5D2C5D2C5D34FFC6FFFFFFFFFFFFFF9C
:10419600FFFFFFFFFFFFFFFFFFFFFFFFFFFFFFFF29
:1041A600FFFFFFFFFFFFFFFFFFFFFFFFFFFFFFFE1A
:1041B6008D5D2C5D2C5D2C5D2C5D2C5D2C5D2C5D50
:1041C6002C5D2C5D2C5D2C5D2C1C2C000000000051
:1041D60000000000000000FB2B5D2C3D2C3D2C5DFB
:1041E6002C3D2C5D2C3D2C5D2CFE8DFFFFBFB63D7E
:1041F6002C5D2C3D2C5D2C7D34DFBEFFFFFFFFFFC9
:10420600FFFFFFFFFFFFFFFFFFFFFFFFFFFFFFFFB8
:10421600FFFFFFFFFFFFFFFFFFFFFFFFFFDE8D5DDD
:104226002C3D2C5D2C3D2C3D2C5D2C3D2C5D2C3DE0
:104236002C5D2C3D2C3D2C5D2CFC2B000000000041
:1042460000000000000000FB2B5D2C5D2C5D2C5D4A
:104256002C5D2C5D2C5D2C5D2C9E75FFFF3FD75D84
:104266002C5D2C5D2C5D2C5D2C5D2C1E96DFF7FFE6
:10427600FFFFFFFFFFFFFFFFFFFFFFFFFFFFFFFF48
:10428600FFFFFFFFFFFFFFFFFF9FE75E653D2C5D22
:104296002C5D2C5D2C5D2C5D2C5D2C5D2C5D2C5DD0
:1042A6002C5D2C5D2C5D2C5D2CFB2B000000000092
:1042B60000000000000000FB235D2C3D2C3D2C5D22
:1042C6002C3D2C5D2C3D2C5D2C9E3CBFF7FFFF9EAC
:1042D600755D2C3D2C3D2C3D2C9E441E963FD7DF14
:1042E600BEDFF7FFFFFFFFFFFFFFFFFFFFFFFFFF41
:1042F600FFFFFFFFFF9FEF1E967D345D2C3D2C5D7B
:104306002C3D2C5D2C3D2C3D2C5D2C3D2C5D2C3DFF
:104316002C5D2C3D2C3D2C5D2CFB23000000000069
:1043260000000000000000DA235D2C5D2C5D2C5D92
:104336002C5D2C5D2C5D2C5D2C3D2C9E75DFFFFFCE
:10434600FFFFC63E9E5EA6FFC6DFBE7E755D343DA0
:104356002CBE44BE7DBFB65FDFBFEFBFF79FEF3F0A
:10436600D77FA65E6D7D343D2C5D2C5D2C5D2C5D6E
:104376002C5D2C5D2C5D2C5D2C5D2C5D2C5D2C5DEF
:104386002C5D2C5D2C5D2C5D2CDA230000000000DA
:1043960000000000000000B9235D2C3D2C3D2C5D83
:1043A6002C3D2C5D2C3D2C5D2C3D2C3D2CBE44DE45
:1043B600853E9EFE8D5E6D7D3C3D2C5D2C3D2C5DCF
:1043C6002C3D2C5D2C3D2C3D2C3D2C3D2C3D2C3D7F
:1043D6002C5D2C3D2C5D2C3D2C3D2C5D2C3D2C5D0F
:1043E6002C3D2C5D2C3D2C3D2C5D2C3D2C5D2C3D1F
:1043F6002C5D2C3D2C3D2C5D2CB9230000000000CB
:1044060000000000000000BA233D2C3D2C3D2C5D31
:104416002C3D2C5D2C3D2C5D2C3D2C3D2C5D2C3DEE
:104426002C5D2C3D2C5D2C3D2C3D2C5D2C3D2C5DBE
:104436002C3D2C5D2C3D2C3D2C5D2C3D2C5D2C3DCE
:104446002C5D2C3D2C5D2C3D2C3D2C5D2C3D2C5D9E
:104456002C3D2C5D2C3D2C3D2C5D2C3D2C5D2C3DAE
:104466002C5D2C3D2C3D2C3D2CBA23000000000079
:1044760000000000000000DA231C2C5D2C5D2C5D82
:104486002C5D2C5D2C5D2C5D2C5D2C5D2C5D2C5DDE
:104496002C5D2C5D2C5D2C5D2C5D2C5D2C5D2C5DCE
:1044A6002C5D2C5D2C5D2C5D2C5D2C5D2C5D2C5DBE
:1044B6002C5D2C5D2C5D2C5D2C5D2C5D2C5D2C5DAE
:1044C6002C5D2C5D2C5D2C5D2C5D2C5D2C5D2C5D9E
:1044D6002C5D2C5D2C5D2C1C2CDB230000000000C9
:1044E600000000000000000000DB233D2C3D2C5D99
:1044F6002C3D2C5D2C3D2C5D2C3D2C3D2C5D2C3D0E
:104506002C5D2C3D2C5D2C3D2C3D2C5D2C3D2C5DDD
:104516002C3D2C5D2C3D2C3D2C5D2C3D2C5D2C3DED
:104526002C5D2C3D2C5D2C3D2C3D2C5D2C3D2C5DBD
:104536002C3D2C5D2C3D2C3D2C5D2C3D2C5D2C3DCD
:104546002C5D2C3D2C3D2CDB2300000000000000E0
:10455600000000000000000000BA233D2C5D2C5D29
:104566002C5D2C5D2C5D2C5D2C5D2C5D2C5D2C5DFD
:104576002C5D2C5D2C5D2C5D2C5D2C5D2C5D2C5DED
:104586002C5D2C5D2C5D2C5D2C5D2C5D2C5D2C5DDD
:104596002C5D2C5D2C5D2C5D2C5D2C5D2C5D2C5DCD
:1045A6002C5D2C5D2C5D2C5D2C5D2C5D2C5D2C5DBD
:1045B6002C5D2C5D2C3D2CDA230000000000000051
:1045C6000000000000000000000000BA235D2C5D22
:1045D6002C3D2C5D2C3D2C5D2C3D2C3D2C5D2C3D2D
:1045E6002C5D2C3D2C5D2C3D2C3D2C5D2C3D2C5DFD
:1045F6002C3D2C5D2C3D2C3D2C5D2C3D2C5D2C3D0D
:104606002C5D2C3D2C5D2C3D2C3D2C5D2C3D2C5DDC
:104616002C3D2C5D2C3D2C3D2C5D2C3D2C5D2C3DEC
:104626002C5D2C5D2CBA2300000000000000000069
:104636000000000000000000000000BA23FB2B5D14
:104646002C5D2C5D2C5D2C5D2C5D2C5D2C5D2C5D1C
:104656002C5D2C5D2C5D2C5D2C5D2C5D2C5D2C5D0C
:104666002C5D2C5D2C5D2C5D2C5D2C5D2C5D2C5DFC
:104676002C5D2C5D2C5D2C5D2C5D2C5D2C5D2C5DEC
:104686002C5D2C5D2C5D2C5D2C5D2C5D2C5D2C5DDC
:104696002C5D2CFB2BBA230000000000000000005C
:1046A600000000000000000000000000009923FB4D
:1046B600235D2C5D2C3D2C5D2C3D2C3D2C5D2C3D35
:1046C6002C5D2C3D2C5D2C3D2C3D2C5D2C3D2C5D1C
:1046D6002C3D2C5D2C3D2C3D2C5D2C3D2C5D2C3D2C
:1046E6002C5D2C3D2C5D2C3D2C3D2C5D2C3D2C5DFC
:1046F6002C3D2C5D2C3D2C3D2C5D2C3D2C5D2C5DEC
:104706002CFB23992300000000000000000000009D
:10471600000000000000000000000000000000BAD9
:1047260023DA233D2C3D2C5D2C3D2C3D2C5D2C3D70
:104736002C5D2C3D2C5D2C3D2C3D2C5D2C3D2C5DAB
:104746002C3D2C5D2C3D2C3D2C5D2C3D2C5D2C3DBB
:104756002C5D2C3D2C5D2C3D2C3D2C5D2C3D2C5D8B
:104766002C3D2C5D2C3D2C3D2C5D2C3D2C3D2CBA3E
:1047760023BA230000000000000000000000000033
:104786000000000000000000000000000000000023
:10479600000000BA23DB231C2C3D2C5D2C5D2C5D18
:1047A6002C5D2C5D2C5D2C5D2C5D2C5D2C5D2C5DBB
:1047B6002C5D2C5D2C5D2C5D2C5D2C5D2C5D2C5DAB
:1047C6002C5D2C5D2C5D2C5D2C5D2C5D2C5D2C5D9B
:1047D6002C5D2C5D2C5D2C3D2C1C2CDB23BA230080
:1047E60000000000000000000000000000000000C3
:1047F60000000000000000000000000000000000B3
:1048060000000000000000DA23BA239923DA23FB14
:1048160023FB2BFC2BFC2BFC2BFC2BFC2BFC2BFC63
:104826002BFC2BFC2BFC2BFC2BFC2BFC2BFC2BFC4A
:104836002BFC2BFC2BFC2BFC2BFC2BFC2BFC2BFB3B
:104846002BFB23DA23B923BA23DA23000000000066
:104856000000000000000000000000000000000052
:104866000000000000000000000000000000000042
:104876000000000000000000000000000000000032
:104886000000000000000000000000000000000022
:104B160000000000000000D39CB6B559CE9AD6DB43
:104B2600DEFBDE1CE71CE71CE71CE71CE71CE71C9A
:104B3600E71CE71CE71CE71CE71CE71CE71CE71C57
:104B4600E71CE71CE71CE71CE71CE71CE71CE7FB68
:104B5600DEDBDE9AD659CED7BD34A50000000000B4
:104B6600000000000000000000000000000000003F
:104B7600000000000000000000000000000000002F
:104B860000000096B5BAD63CE7FFFFFFFFFFFFFF28
:104B9600FFFFFFFFFFFFFFFFFFFFFFFFFFFFFFFF1F
:104BA600FFFFFFFFFFFFFFFFFFFFFFFFFFFFFFFF0F
:104BB600FFFFFFFFFFFFFFFFFFFFFFFFFFFFFFFFFF
:104BC600FFFFFFFFFFFFFFFFFF3CE7BAD6B6B500CA
:104BD60000000000000000000000000000000000CF
:104BE600000000000000000000000000000000D7E8
:104BF600BD9AD6DFFFFFFFFFFFFFFFFFFFFFFFFFAF
:104C0600FFFFFFFFFFFFFFFFFFFFFFFFFFFFFFFFAE
:104C1600FFFFFFFFFFFFFFFFFFFFFFFFFFFFFFFF9E
:104C2600FFFFFFFFFFFFFFFFFFFFFFFFFFFFFFFF8E
:104C3600FFFFFFFFFFFFFFFFFFFFFFFFFFDFFF9A03
:104C4600D6F7BD00000000000000000000000000D4
:104C560000000000000000000000000000F7BD3C5E
:104C6600E7FFFFFFFFFFFFFFFFFFFFFFFFFFFFFF66
:104C7600FFFFFFFFFFFFFFFFFFFFFFFFFFFFFFFF3E
:104C8600FFFFFFFFFFDEFF5AFF5BFFDEFFFFFFFFB9
:104C9600FFFFFFFFFFFFFFFFFFFFFFFFFFFFFFFF1E
:104CA600FFFFFFFFFFFFFFFFFFFFFFFFFFFFFFFF0E
:104CB600FF3CE718C60000000000000000000000EE
:104CC6000000000000000000000000B6B53CE7FF51
:104CD600FFFFFFFFFFFFFFFFFFFFFFFFFFFFFFFFDE
:104CE600FFFFFFFFFFFFFFFFFFFFFFFFFFFFFFFFCE
:104CF600FF5AFFADFDE6FCC6F4C6FCE6FCCEFD7B26
:104D0600FFFFFFFFFFFFFFFFFFFFFFFFFFFFFFFFAD
:104D1600FFFFFFFFFFFFFFFFFFFFFFFFFFFFFFFF9D
:104D2600FFFFFF3CE7F7BD000000000000000000A9
:104D360000000000000000000000009AD6FFFFFF00
:104D4600FFFFFFFFFFFFFFFFFFFFFFFFFFFFFFFF6D
:104D5600FFFFFFFFFFFFFFFFFFFFFFFFFFFFFFB4A8
:104D6600FE06FDE6FCE6FCE6FCE6FCE6FCE6FC07E9
:104D7600FDF6FEFFFFFFFFFFFFFFFFFFFFFFFFFF49
:104D8600FFFFFFFFFFFFFFFFFFFFFFFFFFFFFFFF2D
:104D9600FFFFFFFFFF9AD6000000000000000000A2
:104DA600000000000000000000F7BDDFFFFFFFFF6E
:104DB600FFFFFFFFFFFFFFFFFFFFFFFFFFFFFFFFFD
:104DC600FFFFFFFFFFFFFFFFFFFFFFFFFF17FF06CE
:104DD600FD06FD06FD06FD06FD06FD06FD06FD06B5
:104DE600FD26FD59FFFFFFFFFFFFFFFFFFFFFFFF50
:104DF600FFFFFFFFFFFFFFFFFFFFFFFFFFFFFFFFBD
:104E0600FFFFFFFFFFDFFFD7BD000000000000002F
:104E1600000000000000000000BAD6FFFFFFFFFF01
:104E2600FFFFFFFFFFFFFFFFFFFFFFFFFFFFFFFF8C
:104E3600FFFFFFFFFFFFFFFFFFFFFFFFFF88FD26CE
:104E4600FD26FD26FD26FD26FD26FD26FD26FD2644
:104E5600FD26FDCBFDFFFFFFFFFFFFFFFFFFFFFF6F
:104E6600FFFFFFFFFFFFFFFFFFFFFFFFFFFFFFFF4C
:104E7600FFFFFFFFFFFFFFBAD600000000000000A3
:104E860000000000000000D39C5DEFFFFFFFFFFF66
:104E9600FFFFFFFFFFFFFFFFFFFFFFFFFF1CFF33CB
:104EA600F52EF4ECF34DF452F5FAFE38FF65FD6588
:104EB600FD65FD65FD65FD65FD65FD65FD65FD65DC
:104EC600FD65FD65FD7AFFB7FF6CFF26FF24FF47F2
:104ED600FF8FFFDBFFFFFFFFFFFFFFFFFFFFFFFF70
:104EE600FFFFFFFFFFFFFF5DEF55AD000000000075
:104EF6000000000000000096B5FFFFFFFFFFFFFF68
:104F0600FFFFFFFFFFFFFFFFFFFFFF95FD6CF38B2A
:104F1600F3ABF3CBF3CAF3EAF30AF469F465FD8560
:104F2600FD85FD85FD85FD85FD85FD85FD85FD856B
:104F3600FD85FD65FD66FE23FF23FF23FF23FF237B
:104F4600FF23FF24FF93FFFFFFFFFFFFFFFFFFFF8E
:104F5600FFFFFFFFFFFFFFFFFFD7BD0000000000C0
:104F66000000000000000038C6FFFFFFFFFFFFFF44
:104F7600FFFFFFFFFFFFFFFFFF75FD2CF34CF38BD9
:104F8600F3ABF3CBF3CAF3EAF3EAF325F362F38563
:104F9600FDA5FDA5FDA5FDA5FDA5FDA5FDA5FDA5FB
:104FA600FD85FDE1F402F603F703FF03FF03FF03AC
:104FB600FF03FF03FF23F794FFFFFFFFFFFFFFFF42
:104FC600FFFFFFFFFFFFFFFFFF59CE0000000000BD
:104FD600000000000000009AD6FFFFFFFFFFFFFF62
:104FE600FFFFFFFFFFFFFF1CFF2DF32CF34CF38B9E
:104FF600F3ABF3CBF3CAF3EAF3EAF325F381EA6200
:10500600F3A5FDC5FDC5FDC5FDC5FDC5FDC5FDA5D4
:10501600FD01F5C0EC02F604F704F704F704F70403
:10502600F704F704F704F725F7DCFFFFFFFFFFFFA0
:10503600FFFFFFFFFFFFFFFFFFBAD60000000000E3
:1050460000000000000000BAD6FFFFFFFFFFFFFFD1
:10505600FFFFFFFFFFFFFFF4F42CF32CF34CF38B61
:10506600F3ABF3CBF3CAF3EAF3EAF325F381EA8170
:10507600EA82F3C5FDE5FDE5FDE5FDE5FDC4FD01BF
:10508600EDE0ECE0EC02EE04F704F704F704F704B5
:10509600F704F704F704F704F792F7FFFFFFFFFFA3
:1050A600FFFFFFFFFFFFFFFFFFDBDE00000000004A
:1050B60000000000000000FBDEFFFFFFFFFFFFFF18
:1050C600FFFFFFFFFFFFFFAFF32CF32CF34CF38B37
:1050D600F3ABF3CBF3CAF3EAF3EAF325F381F281F8
:1050E600F281F2A2F3E5FDE5FDE5FDE4FD21EDE04B
:1050F600E4E0E4E0E403EE04EF04EF04EF04EF047D
:10510600EF04EF04EF04EF04EF4BF7FFFFFFFFFFA1
:10511600FFFFFFFFFFFFFFFFFFFBDE0000000000B9
:1051260000000000000000FBDEFFFFFFFFFFFFFFA7
:10513600FFFFFFFFFFFFFF4EF32CF32CF34CF38B27
:10514600F3ABF3CBF3CAF3EAF3EAF325F3A1F2A147
:10515600F2A1F2A1F2A2F3E5FDE4FD21EDE0E4E027
:10516600E4E0E4E0E403E605EF05EF05EF05EF050F
:10517600EF05EF05EF05EF05EF29EFFFFFFFFFFF57
:10518600FFFFFFFFFFFFFFFFFF1CE700000000001F
:1051960000000000000000FBDEFFFFFFFFFFFFFF37
:1051A600FFFFFFFFFFFFFFAFF32CF32CF34CF38B56
:1051B600F3ABF3CBF3CAF3EAF3EAF325F3A1F2A1D7
:1051C600F2A1F2A1F2A1F2E2F321EDE0E4E0E4E0E3
:1051D600E4E0E4E0E403E605E705E705E705E705BF
:1051E600E705E705E705E705E72BEFFFFFFFFFFF0D
:1051F600FFFFFFFFFFFFFFFFFF1CE70000000000AF
:1052060000000000000000FBDEFFFFFFFFFFFFFFC6
:10521600FFFFFFFFFFFFFFD3F42CF32CF34CF38BC0
:10522600F3ABF3CBF3CAF3EAF3EAF345F3A1F2A146
:10523600F2A1F2A1F2A1F261DA00CCE0DCE0DCE05E
:10524600DCE0DCE0DC03E6E5E605E705E705E70587
:10525600E705E705E7E5E605E771F7FFFFFFFFFF6F
:10526600FFFFFFFFFFFFFFFFFF1CE700000000003E
:1052760000000000000000FBDEFFFFFFFFFFFFFF56
:10528600FFFFFFFFFFFFFFBBFE2CF32CF34CF38B5E
:10529600F3ABF3CBF3CAF3EAF3EAF345F3A1F2A1D6
:1052A600F2A1F2A1F2A1F200BAC0BAE0DCE0DCE0C1
:1052B600DCE0DCE0DC03DEE5E6E5E6E5E6E5E6E5A2
:1052C600E6E5E6E5E6E5E606E7DBFFFFFFFFFFFFCF
:1052D600FFFFFFFFFFFFFFFFFF1CE70000000000CE
:1052E60000000000000000FBDEFFFFFFFFFFFFFFE6
:1052F600FFFFFFFFFFDFFFDCF66FE329DA28DA485E
:10530600DA68DA67E287E287E2A7E264E261EAA1A5
:10531600F2A1F2A1F2A1EAC0A900AAE0DC00DD0038
:10532600DD00DDC0CC82B503AE03AE03AE03AE0333
:10533600AE03AE03AE03B6CBC699E7FFFFFFFFFF92
:10534600FFFFFFFFFFFFFFFFFF1CE700000000005D
:1053560000000000000000FBDEFFFFFFFFFFFFFF75
:10536600FFFFFFBCF696DC14D4F3DB2AD245C965F1
:10537600D165D165D165D185D184D164C9C0A86014
:10538600C181EAA1F2A1EAC0A9E0A9E0DC00DDE062
:10539600CCC08B20630175427D427D427D427D42B9
:1053A6007D62856185E5958AAEAAB6CCBE98EFFF8B
:1053B600FFFFFFFFFFFFFFFFFF1CE70000000000ED
:1053C60000000000000000FBDEFFFFFFFFFFFFFF05
:1053D600FF5BEE36D415D414D4F4DBD3DB09D265E7
:1053E600C965C965D165D185D184D184D101B1C0E2
:1053F600A800B161EAA1EAC0A920AA00DDC0CC607C
:105406006B205BE063427D427D427D427D427D4270
:105416007D6285C5958BA68BAEAAB6A9B6C9BE75A3
:10542600E7FFFFFFFFFFFFFFFF1CE7000000000094
:1054360000000000000000FBDEFFFFFFFFFFFF3D56
:10544600F756D436D415D414D4F4DBD3DBB2DB2927
:10545600D265C965C965D185D184C985D164C9E1DB
:10546600A8C0A840B9A1F200BAE0BA00DDA07B202E
:105476005B60630175427D427D427D427D427D4295
:105486007DC68D8BA68BA68BAEAAB6A9B6A9BEC9BC
:10549600C6BAF7FFFFFFFFFFFF1CE7000000000092
:1054A60000000000000000FBDEFFFFFFFFFFFF59CA
:1054B600DD56CC36D415D414D4F4DBD3DBD2DBB230
:1054C600DB29D265C965C985C984C985C985C96409
:1054D600C9E1B0C0A821DA61DA20CC80B4205BA093
:1054E600630175427D427D427D427D427D427DC69D
:1054F6008D6C9E8CA68BA68BAEAAB6A9B6A9BEC885
:10550600C60ED7FFFFFFFFFFFF1CE70000000000ED
:1055160000000000000000FBDEFFFFFFFFDFFF577B
:10552600CC56CC36D415D414D4F4DBD3DBD2DBB2D0
:10553600DBB1E329D265C985C984C984C964C98434
:10554600C984C943C1E3C987F4C6E5A194816C4205
:1055560075227502754275427D427D427DC68D6C0F
:105566009E6C9E8CA68BA68BAEAAB6A9B6A9BEC803
:10557600C6C8C6FEFFFFFFFFFF1CE70000000000D5
:1055860000000000000000FBDEFFFFFFFF5EF75794
:10559600CC56CC36D415D414D4F4DBD3DBD2DBB260
:1055A600DBB1E3B1E349D224B1C388A270A2708211
:1055B60070C38024A94DDBFFFFFEFF089E61546186
:1055C600330123E1220123813B8164C78D6C9E6CEC
:1055D6009E6C9E8CA68BA68BAEAAB6A9B6A9BEC893
:1055E600C6C8C6BBF7FFFFFFFF1CE70000000000B0
:1055F60000000000000000FBDEFFFFFFFF5EF75724
:10560600CC56CC36D415D414D4F4DBD3DBD2DBB2EF
:10561600DBB1E391DB4DAA69890579A370A270A37A
:1056260070E578698930B3DFFFDFF72D65E6336310
:105636002B0123E1220123632B0634295D6C966C32
:105646009E6C9E8CA68BA68BAEAAB6A9B6A9BEC822
:10565600C6C8C6DBF7FFFFFFFF1CE700000000001F
:1056660000000000000000FBDEFFFFFFFFDFFF770A
:10567600CC56CC36D415D414D4F4DBD3DBD2DBB27F
:10568600DB91DB2DA2CC91CC91AC91CC91AB91ABC3
:1056960091AB916A79CD61F67B755C8C2BC72B48F3
:1056A600344834483448346834683C683409556CA6
:1056B600966C9E8CA68BA68BAEAAB6A9B6A9BEC8BA
:1056C600C6C8C6FEFFFFFFFFFF1CE7000000000084
:1056D60000000000000000FBDEFFFFFFFFFFFF7978
:1056E600DD56CC36D415D414D4F4DBD3DBD2DBB2FE
:1056F600DB2DA2CC91CC91CC91AC91CC91CB91AB42
:10570600890849C738EE490F3AD02A0E2B0512C62A
:105716001A2834683468346834683C683467340955
:10572600556C9E8CA68BA68BAEAAB6A9B6A9BEC88A
:10573600C62FD7FFFFFFFFFFFF1CE700000000009A
:1057460000000000000000FBDEFFFFFFFFFFFF5E22
:10575600F757D436D415D414D4F4DBD3DBB2DB4DEF
:10576600A2CC91CC91CC91CC91AC91CC91AB89E867
:1057760040C7382A3972528C21EC21522B681A05FF
:1057860012651A283468346834683C6834673467AC
:105796003C28556B9E8BA68BAEAAB6A9B6A9BEC9E8
:1057A600C6DBF7FFFFFFFFFFFF1CE700000000005E
:1057B60000000000000000FBDEFFFFFFFFFFFFFF11
:1057C600FFBCEE56D415D414D4F4DBD3D34EA2CCFE
:1057D60089CC91CC91CC91CC91AC91AC910951C72B
:1057E600380939514A72524A198B19522B302B47B4
:1057F6001A0512062368346834683C6834673467CF
:105806003C863C285D8BA68BAEAAB6A9B6C9BE97C8
:10581600EFFFFFFFFFFFFFFFFF1CE7000000000098
:1058260000000000000000FBDEFFFFFFFFFFFFFFA0
:10583600FFFFFF1DF7D7DC14D4D3D34E9ACC89CC07
:1058460089CC91CC91CC91CC91AC918B81C8386BA1
:1058560041514A7252714A4A196A19522B7233518E
:105866002B8A1A251228346834683C6834673467F2
:105876003C863C863C275D8AAEAAB6EEC6BAEFFFEA
:10588600FFFFFFFFFFFFFFFFFF1CE7000000000018
:1058960000000000000000FBDEFFFFFFFFFFFFFF30
:1058A600FFFFFFFFFFFFFF3DF736B4539B339B32ED
:1058B600A332A332A332A332A332A3D182514A72B6
:1058C600527252725272526A198B19522B72337279
:1058D60033722B302B7044305530552F552F554E83
:1058E600554E554D556C55508EBBEFFFFFFFFFFFD4
:1058F600FFFFFFFFFFFFFFFFFF1CE70000000000A8
:1059060000000000000000FBDEFFFFFFFFFFFFFFBF
:10591600FFFFFFFFFFFFFFFDE678AC78AC78AC78C1
:10592600AC78AC77B477B477B477B4557B725272EF
:1059360052725272527252AC210D22522B522B725B
:105946002B722B712BD554D76DF76DF66DF56DF463
:105956006DF46DF36D126E116E9CE7FFFFFFFFFF96
:10596600FFFFFFFFFFFFFFFFFF1CE7000000000037
:1059760000000000000000FBDEFFFFFFFFFFFFFF4F
:10598600FFFFFFFFFFFFFF9AC578A478AC78AC78DD
:10599600AC78AC78AC78B478B477B4547B72527285
:1059A600527252725272520F42D02A52337233726C
:1059B6003372337133D454D76DF76DF66DF56DF4DC
:1059C6006DF46DF36D126E116ED7AEFFFFFFFFFF24
:1059D600FFFFFFFFFFFFFFFFFF1CE70000000000C7
:1059E60000000000000000FBDEFFFFFFFFFFFFFFDF
:1059F600FFFFFFFFFFFFFFD9AC78A478A478AC784F
:105A0600AC78AC78AC78AC78B477B4547B7252721C
:105A160052725272527252B66BF54B5233723372E5
:105A26003372337133D454D76DF76DF66DF56DF46B
:105A36006DF46DF36D126E116E748EFFFFFFFFFF36
:105A4600FFFFFFFFFFFFFFFFFF1CE7000000000056
:105A560000000000000000FBDEFFFFFFFFFFFFFF6E
:105A6600FFFFFFFFFFFFFF98A478A478A478A4782F
:105A7600AC78AC78AC78AC78AC77B4547B725272B4
:105A8600527252725275631A851A85F44B723372CA
:105A96003372337133D454D76DF76DF66DF56DF4FB
:105AA6006DF46DF36D126E116E7386FFFFFFFFFFCF
:105AB600FFFFFFFFFFFFFFFFFF1CE70000000000E6
:105AC60000000000000000FBDEFFFFFFFFFFFFFFFE
:105AD600FFFFFFFFFFFFFFF9AC789C78A478A4785E
:105AE600A478AC78AC78AC78AC78AC547B72527253
:105AF60052725295631A851A851A851A85F44B7265
:105B06002B722B712BD454D76DF76DF66DF56DF4A2
:105B16006DF46DF36D126E116E9596FFFFFFFFFF2C
:105B2600FFFFFFFFFFFFFFFFFFFBDE00000000009F
:105B360000000000000000BAD6FFFFFFFFFFFFFFD6
:105B4600FFFFFFFFFFFFFFFBC5789C789C78A478DA
:105B5600A478A478AC78AC78AC78AC557B724A72F1
:105B66005295631A851A851A851A851A851A7DF43F
:105B760043722B722BD554D76DF76DF66DF56DF418
:105B86006DF46DF36D126E116E19BFFFFFFFFFFF0F
:105B9600FFFFFFFFFFFFFFFFFFDBDE00000000004F
:105BA6000000000000000079CEFFFFFFFFFFFFFFAF
:105BB600FFFFFFFFFFFFFF7EF7989C789C789C789D
:105BC600A478A478A478AC78AC78AC5573924A954E
:105BD600633A7D3A7D3A7D3A7D3A7D3A7D3A7D1A41
:105BE6007DF443722BD54CD76DF76DF66DF56DF4DC
:105BF6006DF46DF36D126E3276DEF7FFFFFFFFFF79
:105C0600FFFFFFFFFFFFFFFFFFBAD6000000000007
:105C16000000000000000018C6FFFFFFFFFFFFFFA7
:105C2600FFFFFFFFFFFFFFFFFF7CD6789C789C7885
:105C36009C78A478A478A478AC78AC5573B65B3A13
:105C46007D3B7D3B7D3B7D3B7D3B7D3B7D3B7D3B8E
:105C56007D3A7D1444D54CD76DF76DF66DF56DF430
:105C66006DF46DF36D126E5BCFFFFFFFFFFFFFFF5D
:105C7600FFFFFFFFFFFFFFFFFF59CE000000000000
:105C86000000000000000075ADFFFFFFFFFFFFFFF3
:105C9600FFFFFFFFFFFFFFFFFFFFFF9CD6989C78EB
:105CA6009C789C78A478A478A478ACF9945B7D5B06
:105CB6007D5B7D5B7D5B7D5B7D5B7D5B7D5B7D5B1E
:105CC6007D5B7D5B75B97DF76DF76DF66DF56DF4F2
:105CD6006DF46D34765BCFFFFFFFFFFFFFFFFFFF25
:105CE600FFFFFFFFFFFFFFFFFFD7BD000000000023
:105CF6000000000000000092945DEFFFFFFFFFFF31
:105D0600FFFFFFFFFFFFFFFFFFFFFFFFFF9FF73CC8
:105D1600CE5AB5F9AC3AB51BCE7EF73ED77B757B2E
:105D2600757B757B757B757B757B757B757B757BED
:105D3600757B757B757FE79EE7DAAE588E5786775B
:105D4600961ABFDEF7FFFFFFFFFFFFFFFFFFFFFF14
:105D5600FFFFFFFFFFFFFF5DEF34A500000000001F
:105D66000000000000000000009AD6FFFFFFFFFFC2
:105D7600FFFFFFFFFFFFFFFFFFFFFFFFFFFFFFFF2D
:105D8600FFFFFFFFFFFFFFFFFFFFFFFFFFBC857B5E
:105D9600757B757B757B757B757B757B757B757B7D
:105DA600757B75FC8DFFFFFFFFFFFFFFFFFFFFFF0A
:105DB600FFFFFFFFFFFFFFFFFFFFFFFFFFFFFFFFED
:105DC600FFFFFFFFFFFFFFBAD60000000000000044
:105DD60000000000000000000075ADDFFFFFFFFFC0
:105DE600FFFFFFFFFFFFFFFFFFFFFFFFFFFFFFFFBD
:105DF600FFFFFFFFFFFFFFFFFFFFFFFFFF3ECF9C01
:105E0600759C759C759C759C759C759C759C759C04
:105E1600759C757EDFFFFFFFFFFFFFFFFFFFFFFFA4
:105E2600FFFFFFFFFFFFFFFFFFFFFFFFFFFFFFFF7C
:105E3600FFFFFFFFFFDFFFF7BD00000000000000CF
:105E460000000000000000000000009AD6FFFFFFDF
:105E5600FFFFFFFFFFFFFFFFFFFFFFFFFFFFFFFF4C
:105E6600FFFFFFFFFFFFFFFFFFFFFFFFFFFFFFFE3D
:105E7600BEBC6D9C6D9C6D9C6D9C6D9C6D9C6DBC43
:105E8600753ECFFFFFFFFFFFFFFFFFFFFFFFFFFF97
:105E9600FFFFFFFFFFFFFFFFFFFFFFFFFFFFFFFF0C
:105EA600FFFFFFFFFF9AD600000000000000000081
:105EB600000000000000000000000096B53CE7FF6F
:105EC600FFFFFFFFFFFFFFFFFFFFFFFFFFFFFFFFDC
:105ED600FFFFFFFFFFFFFFFFFFFFFFFFFFFFFFFFCC
:105EE600FF7FDF5D96BC6DBC6DBC6DBC6D7D9E9FFE
:105EF600E7FFFFFFFFFFFFFFFFFFFFFFFFFFFFFFC4
:105F0600FFFFFFFFFFFFFFFFFFFFFFFFFFFFFFFF9B
:105F1600FFFFFF3CE7D7BD000000000000000000C7
:105F260000000000000000000000000000D7BD3C9B
:105F3600E7FFFFFFFFFFFFFFFFFFFFFFFFFFFFFF83
:105F4600FFFFFFFFFFFFFFFFFFFFFFFFFFFFFFFF5B
:105F5600FFFFFFFFFFDFF79FE79FE7DFFFFFFFFF83
:105F6600FFFFFFFFFFFFFFFFFFFFFFFFFFFFFFFF3B
:105F7600FFFFFFFFFFFFFFFFFFFFFFFFFFFFFFFF2B
:105F8600FF3CE7F7BD000000000000000000000035
:105F96000000000000000000000000000000009665
:105FA600B579CEDFFFFFFFFFFFFFFFFFFFFFFFFF1C
:105FB600FFFFFFFFFFFFFFFFFFFFFFFFFFFFFFFFEB
:105FC600FFFFFFFFFFFFFFFFFFFFFFFFFFFFFFFFDB
:105FD600FFFFFFFFFFFFFFFFFFFFFFFFFFFFFFFFCB
:105FE600FFFFFFFFFFFFFFFFFFFFFFFFFFDFFF7961
:105FF600CEB6B50000000000000000000000000062
:10600600000000000000000000000000000000008A
:1060160000000075AD9AD63CE7FFFFFFFFFFFFFFCC
:10602600FFFFFFFFFFFFFFFFFFFFFFFFFFFFFFFF7A
:10603600FFFFFFFFFFFFFFFFFFFFFFFFFFFFFFFF6A
:10604600FFFFFFFFFFFFFFFFFFFFFFFFFFFFFFFF5A
:10605600FFFFFFFFFFFFFFFFFF3CE7BAD696B50045
:10606600000000000000000000000000000000002A
:10607600000000000000000000000000000000001A
:1060860000000000000000718C75AD18C679CEBA0C
:10609600D6FBDEFBDEFBDEFBDEFBDEFBDEFBDEFB3A
:1060A600DEFBDEFBDEFBDEFBDEFBDEFBDEFBDEFB22
:1060B600DEFBDEFBDEFBDEFBDEFBDEFBDEFBDEFB12
:1060C600DEBAD679CE38C675AD718C0000000000F8
:1060D60000000000000000000000000000000000BA
:1060E60000000000000000000000000000000000AA
:1060F600000000000000000000000000000000009A
:106106000000000000000000000000000000000089
:106116000000000000000000000000000000000079
:106126000000000000000000000000000000000069
:106136000000000000000000000000000000000059
:106146000000000000000000000000000000000049
:106156000000000000000000000000000000000039
:106166000000000000000000000000000000000029
:106176000000000000000000000000000000000019
:106186000000000000000000000000000000000009
:1061960000000000000000000000000000000000F9
:1061A60000000000000000000000000000000000E9
:1061B60000000000000000000000000000000000D9
:1061C60000000000000000000000000000000000C9
:1061D60000000000000000000000000000000000B9
:1061E60000000000000000000000000000000000A9
:1061F6000000000000000000000000000000000099
:106206000000000000000000000000000000000088
