:1076010048656C6C6F20576F726C642100313233A6
:087611003435363738393000FA
:105AB00090030974F8F0A3E4F0900304E0FFA3E07E
:105AC00090003ACFF0A3EFF0A3740CF0A374FFF0B2
:105AD000A37476F0A37401F0900302E0FAA3E0FB54
:105AE0007D0A7C007F0A7E0012655E900304E0FF61
:105AF000A3E090003ACFF0A3EFF0A37410F0A374EA
:105B0000FFF0A37476F0A37401F0900302E0FAA30F
:105B1000E0FB7D1E7C007F0A7E0012655E90030420
:105B2000E0FFA3E090003ACFF0A3EFF0A37418F0E9
:105B3000A374FFF0A37476F0A37401F0900302E065
:105B4000FAA3E0FB7D327C007F0A7E0012655E7462
:105B5000FF900309F0A3F0900304E0FFA3E090009E
:105B60003ACFF0A3EFF0A3740CF0A374FFF0A3748A
:105B700076F0A3740EF0900302E0FAA3E0FB7D50F0
:105B80007C007F0A7E0012655E900304E0FFA3E0C4
:105B900090003ACFF0A3EFF0A37410F0A374FFF0DD
:105BA000A37476F0A3740EF0900302E0FAA3E0FB76
:105BB0007D647C007F0A7E0012655E900304E0FF36
:105BC000A3E090003ACFF0A3EFF0A37418F0A37411
:105BD000FFF0A37476F0A3740EF0900302E0FAA332
:0D5BE000E0FB7D787C007F0A7E0002655EA0
:0B7676001276191240C8125AB080FEB4
:0B768100EF1FAC0670011E4C70F622DB
:1075C600D3EF9400EE940040147D6E7C00ED1D70A8
:0D75D600011CED4C70F7EF1F70E61E80E306
:0175E3002285
:057658004200320000B9
:10761900759850758920758780758DFA858D8BD2FF
:06762900AFD28ED29922BF
:06769700EF24FF92AC227B
:0E766800C2ACC2998F993099FDC299D2AC2262
:1074CD00900399EBF0A3EAF0A3E9F0900399E0FBA8
:1074DD00A3E0FAA3E0F912319FFF60161276687FE0
:1074ED00057E0012768190039AE475F00112325EEA
:0374FD0080D92211
:03002300026F82E7
:106F8200C0E0C083C082C0D075D000C004C005C0BC
:016F920007F7
:106F9300309864C298AF99900032E0FCEC20E75738
:106FA30030E60FEF640A90003260028046E04480CE
:106FB300800AEFB40D0C900032E04440F0A3E0F0FF
:106FC3008035900032E0543FFCA3E02400F5827446
:106FD300003CF583EFF0900033E004F0700690007E
:106FE30032E004F0D3900033E09431900032E09427
:076FF300004004E4F0A3F0EC
:0F6FFA00D007D005D004D0D0D082D083D0E032E1
:10002600204C43442049443A25780D0A000000003C
:10003600000000000000000000000000003F40003B
:1000460000000000000000300040003000400000CA
:100056000009000BC03D000BC03D00090018C0247C
:10006600407FE0224031800000180024C01B000DB4
:10007600803240018003801C4027401C80074000DE
:1000860040100060000000000000000000000000BA
:100096000000001F80204040200000402020401F1C
:1000A6008000000000090006001F8006000900000D
:1000B60000040004003F800400040000000010005B
:1000C60060000000000000000004000400040004BA
:1000D60000040000000000004000000000000000D6
:1000E60000002001C006003800400000001F8020EC
:1000F60040204020401F800000000010403FC0000C
:10010600400000000018C021402240244018400052
:100116000010802040244024401B80000002000D77
:100126000011003FC0014000003C802440244024D0
:1001360040238000001F8024402440344003800078
:10014600003000200027C03800200000001B80245B
:1001560040244024401B8000001C0022C022402274
:10016600401F800000000000000840000000000062
:100176000000000000046000000000000000000411
:10018600000A00110020804040090009000900090A
:10019600000900000000004040208011000A000411
:1001A600001800200023402400180000001F8020B3
:1001B60040274029401F400000004007C039000F7B
:1001C6000001C0004020403FC0244024401B800066
:1001D600001F802040204020403080000020403F0B
:1001E600C0204020401F80000020403FC024402EF9
:1001F6004030C0000020403FC024402E00300000A8
:10020600000F001080204022403380020020403F33
:10021600C0040004003FC02040204020403FC020D2
:1002260040204000000060202020203FC020002009
:100236000020403FC024400B0030C0204020403FFB
:10024600C020400040004000C03FC03C0003C03C0E
:10025600003FC0000020403FC00C4023003FC020AC
:10026600001F802040204020401F80000020403F8B
:10027600C024402400180000001F80214021402097
:10028600E01FA0000020403FC02440260019C00007
:100296004018C02440244022403180000030002015
:1002A600403FC020403000000020003F800040005A
:1002B600403F80200020003E0001C007003800209B
:1002C60000380007C03C0007C03800000020403955
:1002D600C0060039C0204000002000384007C03862
:1002E6004020000000304021C02640384020C00099
:1002F60000000000007FE040204020000000007069
:10030600000C000380004000000000402040207FD9
:10031600E000000000000020004000200000000077
:100326000000100010001000100010001000000067
:1003360000400000000000000000000280054005AB
:100346004003C0004020003FC0044004400380003A
:100356000000000380044004400640000000000343
:1003660080044024403FC000400000038005400553
:100376004003400000000004401FC02440244020E9
:1003860000000002E0055005500650042020403FC2
:10039600C00440040003C000400000044027C00021
:1003A600400000000000100010041027E0000000CC
:1003B6000020403FC00140070004C0044020402008
:1003C600403FC000400040000007C0040007C004D2
:1003D6000003C00000044007C00440040003C0003E
:1003E600400000038004400440038000000410071E
:1003F600F004500440038000000000038004400421
:100406005007F00010044007C0024004000400003A
:1004160000000006400540054004C000000000043E
:10042600001F8004400040000004000780004004D4
:100436004007C000400400070004C0018006000415
:1004460000060001C0070001C006000000044006C7
:10045600C0010006C0044000000410071004E001BB
:1004660080060004000000044005C0064004400069
:10047600000000000004007BE040200000000000B7
:10048600000000FFF000000000000040207BE004B8
:1004960000000000004000800040002000200040D6
:1004A6000000000000000000000000000000000046
:1004B600000000000000001FCC000C00000000003F
:1004C60000000008003000600008003000600000F6
:1004D60000022003FC1E20022003FC1E2002200036
:1004E6000000000E1811043FFF10840C7800000075
:1004F600000F0010840F3800C007781884007800B9
:100506000000780F8410C411240E9800E4008400C3
:1005160008080068007000000000000000000000ED
:100526000000000000000007E01818200440020048
:1005360000000040022004181807E0000000000038
:10054600000240024001800FF0018002400240009C
:10055600000080008000800FF8008000800080008E
:10056600000001000D000E00000000000000000069
:100576000000000080008000800080008000800075
:10058600800000000C000C000000000000000000CD
:100596000000000006001800600180060018002018
:1005A60000000007F0080810041004080807F0000F
:1005B600000000080408041FFC00040004000000FA
:1005C6000000000E0C10141024104411840E0C00B0
:1005D6000000000C1810041104110412880C70009D
:1005E60000000000E00320042408241FFC0024006F
:1005F6000000001F98108411041104108810700068
:1006060000000007F0088811041104188800700023
:100616000000001C00100010FC13001C001000005D
:100626000000000E3811441084108411440E380066
:100636000000000700088C10441044088807F000EA
:1006460000000000000000030C030C000000000086
:10065600000000000000010106000000000000008C
:100666000000000080014002200410080810040069
:100676000002200220022002200220022002200086
:100686000000001004080804100220014000800049
:100696000000000E001200100C106C10800F0000FD
:1006A6000003E00C1813E4142417C4082807D0002C
:1006B600000004003C03C41C40074000E4001C008A
:1006C6000410041FFC1104110411040E88007000AC
:1006D6000003E00C1810041004100410081C10008D
:1006E6000010041FFC100410041004080807F00092
:1006F6000010041FFC1104110417C410040818008C
:100706000010041FFC1104110017C010000800009F
:100716000003E00C181004100410441C780040007C
:100726000010041FFC10840080008010841FFC1041
:10073600040000100410041FFC1004100400000044
:100746000000030001100110011FFE100010000040
:100756000010041FFC110403801464181C1004000C
:100766000010041FFC1004000400040004000C0028
:100776000010041FFC1F0000FC1F001FFC100400DB
:100786000010041FFC0C04030000E010181FFC10EE
:100796000007F00808100410041004080807F00009
:1007A6000010041FFC10841080108010800F0000C1
:1007B6000007F0081810241024101C080A07F2007D
:1007C6000010041FFC1104110011C011300E0C00A2
:1007D6000400000E1C11041084108410441C380000
:1007E600001800100010041FFC1004100018000070
:1007F6000010001FF810040004000410041FF81075
:100806000010001E0011E0001C007013801C001078
:10081600001FC0103C00E01F0000E0103C1FC0009D
:10082600001004180C163401C001C01634180C1040
:100836000410001C00130400FC13041C001000002C
:10084600000804101C1064108413041C0410180003
:10085600000000000000007FFE400240024002004F
:1008660000000030000C0003800060001C00030044
:100876000000004002400240027FFE00000000002F
:100886000000000000200040004000400020000062
:10089600000001000100010001000100010001004B
:1008A60001000040004000200000000000000000A1
:1008B6000000000098012401440144014400FC00AA
:1008C6000410001FFC008801040104008800700069
:1008D6000000000070008801040104010400880083
:1008E600000000007000880104010411081FFC00CC
:1008F60004000000F8014401440144014400C8001A
:10090600000000010401040FFC1104110411001879
:1009160000000000D601290129012901C9010600AC
:100926000010041FFC008401000100010400FC000B
:100936000400000104190419FC000400040000006E
:10094600000000000300010101190119FE0000006A
:100956000010041FFC0024004001B4010C01040037
:10096600000000100410041FFC0004000400000036
:1009760000010401FC0104010001FC010401000066
:10098600FC010401FC008401000100010400FC00DC
:1009960004000000F8010401040104010400F80049
:1009A60000010101FF0085010401040088007000B8
:1009B6000000000070008801040104010501FF0029
:1009C600010104010401FC0084010401000180000E
:1009D60000000000CC012401240124012401980018
:1009E6000000000100010007F801040104000000F6
:1009F60000010001F8000400040004010801FC00E5
:100A060004010001800170000C00100160018001EA
:100A16000001F0010C003001C00030010C01F001B2
:100A26000000000104018C00740170018C010400B7
:100A360000010101810171000E00180160018001B1
:100A46000000000184010C013401440184010C0002
:100A560000000000000000000001003EFC400240D3
:100A6600020000000000000000FFFF000000000080
:100A7600000000400240023EFC01000000000000B1
:100A86000000006000800080004000400020002040
:100A96000000000000000000000000000000000050
:100AA6000000000000000000000000000000000040
:100AB6000000000000000000000000000000000030
:100AC600000000000F80380FFE380F80380000004D
:100AD600000000000000000000000000000000010F
:100AE60000000600000C000038000031000006007F
:100AF600000C00003800003000000000000000007C
:100B06000061800067F807F980006180006180005D
:100B160061800061800067F807F98000618000004D
:100B26000000000000000001C0E003E0F00630080D
:100B36000418081FFFFE040E080787F00381E00073
:100B4600000000000001F000060C00040408060C7A
:100B56007001F9C0000E00003BE000EC1807080821
:100B6600040C180003E00000000001E00007F00399
:100B7600F818041C0804170807E1D003C0E0002396
:100B8600B0003C0800200800001000000000000033
:100B96000100003100003200001C000000000000CF
:100BA600000000000000000000000000000000003F
:100BB600000000000000000000000000000000002F
:100BC600007F0001FFC00780F00C00181000042011
:100BD60000020000000000002000021000040C00CB
:100BE600180780F001FFC0007F0000000000000031
:100BF60000000000000000000000000000420000AD
:100C06006600006600003C0000180003FFC00018E4
:100C160000003C0000660000660000420000000084
:100C26000008000008000008000008000008000195
:100C3600FFC00008000008000008000008000008C7
:100C46000000000000000100003100003200001C1E
:100C5600000000000000000000000000000000008E
:100C66000000000000000000000800000800000866
:100C76000000080000080000080000080000080046
:100C8600000800000800000000000000000000004E
:100C960000380000380000380000000000000000A6
:100CA600000000000000000000000000000000003E
:100CB60000000600001C000070000180000E00000D
:100CC600380000C0000700001C00003000000000D3
:100CD60000000000007F8001FFE00380700600181E
:100CE60004000804000806001803807001FFE000F5
:100CF6007F800000000000000000000100080100E5
:100D06000801000803FFF807FFF8000008000008C4
:100D160000000800000000000000000001C03802CA
:100D2600C058040098040118040218040418061C8C
:100D36001803F81801E0F8000000000000000000A9
:100D460001C0E003C0F0040008040808040808060F
:100D5600180803F41801E7F00001E00000000000A5
:100D660000000000000300000D00001100006100FB
:100D760000810803010807FFF80FFFF800010800CB
:100D860001080000000000000000E007FCD0060893
:100D960008061008061008061008061838060FF090
:100DA6000607C0000000000000000000003F8001B0
:100DB600FFE0038430020818041008041008041029
:100DC60008071810030FF00007C00000000000001D
:100DD60000000003C0000700000600000600F80639
:100DE60007F806180006E0000700000600000000ED
:100DF6000000000001E1E003F7F0063410041808D3
:100E0600041808040C08040C0806161803F3F0016D
:100E1600C1E000000000000000F80003FC300306FB
:100E2600380402080402080402080404100308F047
:100E360001FFC0007F00000000000000000000006D
:100E460000000000000000000070380070380070DC
:100E56003800000000000000000000000000000054
:100E660000000000000000000000000000301A0032
:100E7600301C000000000000000000000000000020
:100E8600000000000000000008000014000022001E
:100E9600004100008080010040020020040010088C
:100EA60000080000000000000021000021000021D1
:100EB6000000210000210000210000210000210087
:100EC60000210000210000000000000000000008D2
:100ED600000804001002002001004000808000414C
:100EE60000002200001400000800000000000000BE
:100EF60003C00004C000040000080038080F3808CA
:100F060008380810000C300007E00003C00000009D
:100F160000000000003F8000FFE0038070020F1019
:100F260006708804C088048308047F8802C0900382
:100F3600012000FE400000080000180001F8003EF5
:100F46000801C20007020007E20000FE00001FC8F9
:100F56000001F800003800000804000807FFF80741
:100F6600FFF8040808040808040808040808061816
:100F76000803F41801E7F00001E00000000000009B
:100F8600003F8001FFE0038070020018040008049F
:100F960000080400080400100600200780C00000B6
:100FA6000004000807FFF807FFF80400080400081B
:100FB60004000804001802001003807001FFE0001E
:100FC6007F8000000004000807FFF807FFF8040808
:100FD60008040808040808040808043E0804000871
:100FE60006001801006000000004000807FFF8076B
:100FF600FFF8040808040800040800040800043E7A
:10100600000600000600000180000000000000004D
:10101600003F8001FFE0038070060018040008040A
:1010260002080402080203F00783F000020000022F
:101036000004000807FFF807FFF804080800080086
:1010460000080000080000080004080807FFF80769
:10105600FFF8040008000000000000040008040077
:101066000804000807FFF807FFF804000804000852
:101076000400080000000000000000000000060058
:10108600000700000104000104000104000307FF3B
:10109600FE07FFFC04000004000004000004000832
:1010A60007FFF807FFF8040C08001800003E0004CC
:1010B600C7800503C80600F80400380400180000BD
:1010C6000804000807FFF807FFF8040008000008F6
:1010D60000000800000800000800000800001800D2
:1010E600006000000004000807FFF807800807FCFE
:1010F60000007FC00003F80007C0007800078008E2
:1011060007FFF807FFF804000804000807FFF807C0
:10111600000803C00000E000003800001E000007C1
:10112600000001C00400F007FFF804000000000002
:10113600007F8001FFE003807006001804000804A9
:10114600000806001803003001FFE0007F80000061
:101156000004000807FFF807FFF804040804040069
:10116600040400040400040400060C0003F8000153
:10117600F000000000000000007F8001FFE0038017
:10118600700600880400880400C806003C03003E80
:1011960001FFE6007F8400000004000807FFF8074F
:1011A600FFF8040808040800040C00040F00040BF0
:1011B600C00610F003F03801E00800000800000047
:1011C60001E0F803F030063010041808041808048B
:1011D6000C08040C080206180207F00781E000005C
:1011E600000180000600000400000400000400085E
:1011F60007FFF807FFF804000804000004000006D3
:10120600000001800004000007FFE007FFF0040073
:101216001800000800000800000800000800000888
:1012260004001007FFE004000004000006000007A9
:10123600E00007FE00041FE00001F800003800018E
:10124600E0043E0007C000060000040000040000A1
:1012560007E00007FFC0041FF80007C007F80007F3
:10126600FF80043FF80007C004F8000700000400F0
:101276000000000004000806001807C07805F1C841
:10128600003E00001F800463E80780F8060018048B
:10129600000800000004000006000007800007E0C8
:1012A60008047C08001FF80007F800180804E00886
:1012B6000700000600000400000000000100080608
:1012C60000380400F80403E8040F08047C0805F05D
:1012D6000807C008070018040060000000000000AE
:1012E6000000000000000000000000003FFFFE209C
:1012F600000220000220000220000220000200005E
:101306000000000000000008000007000000C00008
:101316000038000006000001C000003000000E008A
:101326000001000000000000000000200002200074
:10133600022000022000022000023FFFFE00000003
:101346000000000000000000000000000000000097
:1013560000000800001000003000002000003000EF
:10136600001000000800000000000000000000015E
:101376000000010000010000010000010000010062
:101386000001000001000001000001000001000052
:101396000100000000000000000020000020000006
:1013A6001000001000000000000000000000000017
:1013B60000000000000000000000F00019F8001B0B
:1013C60018002208002608002408002410003FF810
:1013D600001FF800000800001800000004000007C5
:1013E600FFF80FFFF0001818001008002008002072
:1013F60008003018001FF0000FC0000000000000B9
:101406000007C0001FF00018300020080020080068
:101416002008003C08001C100000600000000000CE
:10142600000000000007C0001FF000381800200868
:1014360000200800200804101007FFF80FFFF00036
:1014460000100000000000000000000007C0001FA0
:10145600F00012300022180022080022080032088C
:10146600001E10000E2000000000000000200000FA
:10147600200800200801FFF803FFF80620080420D2
:1014860008042008072000030000000000000000F8
:1014960000000E000E6E001FF30031B10020B100F7
:1014A60020B1003191001F13002E1E00200E0030C7
:1014B6000000000004000807FFF80FFFF8001008FE
:1014C600002000002000002008003FF8001FF80060
:1014D60000080000000000000000000020080020B6
:1014E60008002008063FF8063FF80000080000083C
:1014F60000000800000000000000000000000000DE
:101506000003000003002001002001002003063F25
:10151600FE063FFC00000000000000000000000086
:1015260004000807FFF80FFFF80001880003000019
:101536002FC00038F80020380020080000080000FE
:101546000000000000000004000804000804000871
:1015560007FFF80FFFF80000080000080000080069
:101566000000000000002008003FF8003FF80010CF
:1015760008002000003FF8003FF800100800200097
:10158600003FF8003FF800000800000000200800B7
:101596003FF8003FF800100800100000200000206F
:1015A60008003FF8001FF8000008000000000000D7
:1015B6000007C0000FF000183000300800200800B7
:1015C6002008003008001830000FF00007C00000A7
:1015D60000000000002001003FFF003FFF00101147
:1015E600002009002008002008003038001FF00005
:1015F6000FC00000000000000007C0001FF0003808
:1016060018002008002008002009001011001FFF04
:10161600003FFF0000010000000020080020080035
:101626002008003FF8003FF80008080010080020D6
:10163600080020000030000030000000000000001C
:10164600000000000C78001E180033080023080074
:1016560021080021880021980030F0003860000041
:101666000000000000200000200000200000FFF025
:1016760003FFF800200800200800200800003000C2
:101686000000000000000000002000003FF0007F86
:10169600F8000018000008000008002010003FF8BD
:1016A600007FF00000100000000000000020000095
:1016B6003000003C00003F800023F000007800006E
:1016C60070002380003C0000300000200000200055
:1016D600003C00003FE00023F80000E00027000087
:1016E6003E00003FE00021F80001E0003E0000203F
:1016F60000000000002008002008003838003E687E
:101706000027800003C8002CF80038380020180095
:101716002008000000000000002000003003003C0C
:1017260001003F830023EC000070002380003C0092
:101736000020000020000000000000000000000063
:1017460038080020380020F80023E8002F88003EE3
:101756000800380800201800007000000000000093
:10176600000000000000000000000000000800006B
:1017760014001FF7FC3000062000020000000000E5
:101786000000000000000000000000000000000053
:10179600000000FFFFFF0000000000000000000046
:1017A60000000000000000000000002000023000E1
:1017B600061FF7FC001400000800000000000000EF
:1017C600000000000000000000000000180000609B
:1017D600000040000040000020000010000008004B
:1017E600000400000400000C0000100000C6D50034
:1017F60000000000E0380000783C00003C78000063
:101806003C70C0001CE1E01FFFFFF0001CE3000E6F
:101816001CE7C0079CE78003DCEF0003DCEE000159
:10182600DCFC60009CF9F07FFFFFF800000000017F
:10183600C00E0001FFFF0001C00E0001C00E000136
:10184600C00E0001FFFE0001C00E0001C00E000127
:10185600C00E0001FFFE0001C00E0001C00E000018
:10186600000000D6D000000000000700000007803E
:101876000000070000000700000007000000070145
:10188600801FFFFFE01FFFFFE01E0701C01E0701CC
:10189600C01E0701C01E0701C01E0701C01E0701AA
:1018A600C01FFFFFC01FFFFFC01E0701C01C0701AE
:1018B6008000070000000700000007000000070086
:1018C60000000700000007000000070000000700F6
:1018D600000007000000000000BFC6000000000076
:1018E600000780003C07C001FC07803FE007803905
:1018F600C1C78001C0E78001C0F78001C0778001C1
:10190600DE77807FFE078001C0078003C3C78003A0
:10191600E1E78003F8F78007FCE7F00FDE67F80FD2
:10192600DC07F81FC0FF801DDFE78039CC07807118
:10193600C0078061C0078001C0078001C007800121
:10194600E0078001E0078001C0070000000000BC3E
:10195600BC000000000380300003C03C0003C03C14
:101966000003C0380003C0380003C0386003F838ED
:10197600F07FFFFFF003C0380003C0380003C03813
:101986000003DC39C003FFFFE007E383C03FC183E8
:10199600C07FC1C3803BC1C78003C0EF0003C0EF57
:1019A6000003C07E0003C07C0003C07C0003C0FEB1
:1019B600003BC3EF803F8787F80FBF03F807780027
:1019C600E000000000C4EA0000000000C0000001C2
:1019D600F0000001E0000003C000C003C001E00702
:1019E600FFFFF00703C0000E03C0001E03C0003C4B
:1019F60003C3007303C78063FFFFC00383C00003F4
:101A060083C0000383C0000383C0000383C0600358
:101A160083C0F07FFFFFF80003C0000003C0000092
:101A260003C0000003C0000003C0000003C00000A4
:101A360003C0000003C00000000000D4C200000084
:101A4600000000000000E0070000FFFF8000F00734
:101A56008000F0070000F0070000F0070000F00724
:101A66000000FFFF0000FFFF0000F0070000F00786
:101A76000000F0070000F0070000E0070000FFFF8D
:101A86000000E0070000E0070000E0070001E007B3
:101A96000001C0070001C00700038007000780F7A8
:101AA600000F007F001E001F0038001C0000000011
:101AB60000C8D5000000000000000003000300037A
:101AC600FFFF8003FFFF80038007000380070003FA
:101AD60080070003800700038007000380070003D8
:101AE6008007000380070003FFFF00038007000351
:101AF60080070003800700038007000380070003B8
:101B060080070003800700038007000380070003A7
:101B1600FFFF000380070003800700038007000320
:101B260000000000000000D0C70000000000000018
:101B3600000380070003FFFF800380070003800780
:101B4600000380070003FFFF0003800700038007F0
:101B56000003FFFF0003FFFF00038707000387C0A2
:101B66000003C7810003C7838007FFFFC007078004
:101B7600000F0780001E0786001C078F003BFFFF33
:101B8600807007800000078000000780E000078162
:101B9600F07FFFFFF80000000000000000C6DA003A
:101BA60000000006000000079E0000079E7FF00769
:101BB6009E7FF0079FF8F03FFFF8F01F9E78F00732
:101BC6009E78F0079E78F007FE7FF0079E78F00774
:101BD6009E78F0079E70F007FE70F0079E70F00783
:101BE6009E7FF0079FFFF03FFFF0F0119070F0032B
:101BF600DCF0F003DEE0F0078FE0F00F0FE0F00E10
:101C060007C0F01C038FF0380F03E0201C01C00052
:031C1600000000CB
:0A765D00420309FFFF42030B000087
:10000300E4FDFCC3ED9FEC9E5014E4FBFA0BBB0034
:0E001300010AEBF44A70F60DBD00010C80E509
:0100210022BC
:08752E007E00127536E4FFFE39
:04753600AD07AC06EB
:10753A00ECFFAE05D2A5C2A7D2B2C2A68F90C2A551
:0C754A00D2A5AF068F90C2A5D2A5D2A793
:017556002212
:0D7500007E00127536900053E0FEA3E0FF00
:04750D00AD07AC0614
:10751100ECFFAE05D2A5C2A7D2B2D2A68F90C2A56A
:0C752100D2A5AF068F90C2A5D2A5D2A7BC
:01752D00223B
:08755700900382E0FEA3E0FFB7
:04755F00AD07AC06C2
:10756300ECFFAE05D2A5C2A7D2B2D2A68F90C2A518
:0C757300D2A5AF068F90C2A5D2A5D2A76A
:01757F0022E9
:067644007C107F037E00B4
:0E764A00AB05AA04127536AE02AF0302750D31
:1075A7007590FF7580FFC2A7D2A6C2B200AF90EF59
:0E75B700FED2B2C2B200AD90EDFFD2B2D2A7AA
:0175C50022A3
:10726300EF7026FD7C057F01FE12764A7D30127693
:1072730044900304E4F0A374DCF0900302E4F0A36D
:1072830074B0F0E4900308F0227D007C047F017E5B
:107293000012764A7D38127644900304E4F0A37416
:1072A300B0F0900302E4F0A374DCF09003087401DF
:0272B300F022C7
:1040C800D2B37F647E001275C6C2B37F647E0012CD
:1040D80075C6D2B37F647E001275C6E4FFFE127502
:1040E800361275A7900306EEF0A3EFF07BFF7A0077
:1040F8007926900037EEF0A3EFF0122EA5E4FFFE2C
:104108001275367F017E0012750D7F0A7E001276C9
:10411800817F0712752E7F1212752E7FA47E0012E2
:1041280075367F017E001275367F0A7E0012768111
:104138007F707E001275367F007E9B12750D7F079B
:104148007E001275367F317E0012750D7F187E0055
:104158001275367F017E0012750D7F107E00127574
:10416800367FB07E1112750D7F117E001275367F75
:10417800077E0012750D7F127E001275367F177E3E
:104188001012750D7F137E001275367F0D7E851215
:10419800750D7F147E001275367F007E8012750DB6
:1041A8007F127E001275367F3C7E1012750D7F9649
:1041B8007E001200037F011275367F007E0512759E
:1041C8000D7F027E001275367F007E0712750D7F07
:1041D800037E001275367F307E1012750D7F087EC3
:1041E800001275367408FFFE12750D7F0B7E0012E3
:1041F80075367F007E1112750D7F0C7E00127536A4
:10420800E4FFFE12750D7F0F7E001275367F017E6A
:104218001412750D7F157E00127536E4FFFE1275B7
:104228000D7F207E00127536E4FFFE12750D7F218A
:104238007E00127536E4FFFE12750D7F507E001267
:104248007536E4FFFE12750D7F517E001275367FBC
:10425800AF7E0012750D7F527E00127536E4FFFEA8
:1042680012750D7F537E001275367FDB7E00127546
:104278000D7F707E001275367F007E1B12750D7FD4
:10428800717E00127536E4FFFE12750D7F907E0078
:10429800127536E4FFFE12750D7F917E0012753699
:1042A8007F007E0112750D7F927E001275367F01A8
:1042B8007E0012750D7F597E001275367F0C7E05C3
:1042C80012750D7F907E001275367F107E00127574
:1042D8000D7F927E001275367F007E0612750D7F67
:1042E800077E001275367F337E0212750D7F327E8F
:1042F800001200037F221275367F01127263900349
:094308000BE0FEA3E0FF027009C6
:056DDB00E0FEA3E0FF53
:106DE000900053EEF0A3EFF0A3ECF0A3EDF09003CE
:106DF00008E070357F50FE1275027F517E001275DB
:106E000036AF03AE0212750D7F527E00127536A3A7
:106E10001275087F537E001275369000591275085E
:106E20007F201275007F2180327F521275007F53C0
:106E30007E00127536AE02AF0312750D7F507E00D4
:106E4000127536A31275087F517E001275369000B8
:106E5000591275087F211275007F207E0012753649
:0C6E6000A31275087F227E0012753622F6
:0E699900900348EEF0A3EFF0A3ECF0A3EDF0B6
:1069A700E4A3F0A304F0A3E4F0A304F0900302E04F
:1069B700FEA3E0FFC3900349E09F900348E09E5089
:1069C70015900304E0FEA3E0FFC390034BE09F9004
:1069D700034AE09E4004E4FEFF2290034AE0FCA342
:1069E700E0FD900348E0FAA3E0FBA3E0FFA3E090FB
:1069F7000059CFF0A3EFF0900348126DDB1275A793
:106A0700AB07AA061275A7AA06AB07EA1313135416
:106A17001FFF90034EE4F0A3EFF0EB7805CEC3130E
:106A2700CE13D8F9543FFF90034CE4F0A3EFF07C6A
:106A370000EB541FFD90034CE0FEA3E07805C33341
:106A4700CE33CED8F9FBAA06ED33333354F84AFEDA
:106A5700EBFF90034EE04EFAA3E04FAC02AE04FF0B
:016A6700220C
:08700900900034EEF0A3EFF05B
:10701100E4A3F0A3F0900303E024FFFB900302E05C
:1070210034FFFA900305E024FFFE900304E034FFEF
:10703100900059F0A3CEF0E4FDFCFFFE126DE0E4F8
:10704100FAFBD3900303E09B900302E09A4039E4FA
:10705100900036F0A3F0900304E0FEA3E0FFC3909C
:107061000037E09F900036E09E5016900034127574
:107071005A900037E004F070DD900036E004F080B3
:08708100D50BBB00010A80BA27
:0170890022E4
:1068C9009002ECECF0A3EDF09002EAEEF0A3EFF009
:0868D9009002EEEAF0A3EBF0DF
:1068E100E49002F4F0A3F0D3EF9BEE9A4003026927
:1068F100989002F0E0FEA3E0FF9002ECE0FCA3E040
:10690100FD9FEC9E40030269989002EEE0FAA3E03D
:10691100FBA3E0FFA3E0900059CFF0A3EFF09002BA
:10692100EA126DDB9002EAE0FEA3E0FFC39002EF02
:10693100E09FFF9002EEE09ECF2401CF3400900251
:10694100EAF0A3EFF0A3E0FEA3E0FFC39002F1E0C1
:106951009FFF9002F0E09ECF2401CF34009002EC23
:10696100F0A3EFF09002EA74FFF5F012327445F0F3
:1069710060259002ECE0FFA3E09002F4CFF0A3EFDA
:10698100F09002F474FFF5F012327445F060D59086
:0769910002F212755A80EAC0
:0169980022DC
:0E618E009001FCEEF0A3EFF0A3ECF0A3EDF017
:10619C009001FCE0FEA3E0FFC3EB9FFFEA9ECF243F
:1061AC0001CF3400900209F0A3EFF09001FEE0FE65
:1061BC00A3E0FFC3900203E09FFF900202E09ECF9A
:1061CC002401CF3400900207F0A3EFF09001FEE021
:1061DC00FCA3E0FD900202E0FFA3E0900059CFF099
:1061EC00A3EFF09001FC126DDBE490020BF0A3F036
:1061FC00900207E0FEA3E0FFC390020CE09F900228
:10620C000BE09E5074E490020DF0A3F0900209E0B4
:10621C00FEA3E0FF90020DE0FAA3E0FBC39FEA9E11
:10622C005046900209E0FCA3E0FDA3E0FEA3E0FFD2
:10623C001231F7EB2FFFEA3EFEEF25E0FFEE33FEC7
:10624C00900204E0FBA3E0FAA3E0F98F828E8312A4
:10625C00328AFFAEF012755F90020EE004F070AC63
:10626C0090020DE004F080A490020CE004F0708029
:09627C0090020BE004F00261FC49
:0162850022F6
:1073DA00900313FEE0FCA3E0FDC3900310E09DFDC3
:0673EA0090030FE09CFC83
:1073F000AB07AA068D828C83C006C007AE83AF821E
:10740000900059EEF0A3EFF0D007D006126DE09097
:0A7410000309E0FEA3E0FF02755F30
:06734E00FDE0FAA3E0FBE4
:1073540090004DEEF0A3EFF0900051EAF0A3EBF0B3
:1073640090004FECF0A3EDF090004DE0FAA3E0FBA9
:10737400FFAE02C007A3E0FFA3E0900059CFF0A343
:10738400EFF0D007126DE0900051E0FEA3E0FF02A1
:02739400755F23
:10718500900378EEF0A3EFF0A3ECF0A3EDF0A3EA03
:10719500F0A3EBF0127354900379E02401FF900300
:1071A50078E03400FE90037AE0FCA3E0A312734E6E
:1071B500900378E0FEA3E0FF90037BE02401FD90BF
:1071C500037AE03400FC90037C12734F900379E05E
:1071D5002401FF900378E03400FE90037BE0240156
:1071E500FD90037AE03400FC90037CE0FAA3E0FB19
:0371F500027354CE
:0E472F0090013AEEF0A3EFF0A3ECF0A3EDF052
:10473D00E4900142F0A3F0A3F0A3F0A3F0A3F09056
:10474D00013AE0FEA3E0FFC3EB9FFFEA9E90014814
:10475D00F0A3EFF090013CE0FAA3E0FBC390014120
:10476D00E09BFE900140E09A90014AF0A3CEF090BC
:10477D00013AE0FFA3E0900152CFF0A3EFF0A3EADE
:10478D00F0A3EBF0900148E0FEA3E0FFD39400EE20
:10479D0064809480400A90014EE4F0A304F08021DF
:1047AD00EF4E700890014EF0A3F0801574FF90014C
:1047BD004EF0A3F0C3E49FFFE49E900148F0A3EFF9
:1047CD00F090014AE0FEA3E0FFD39400EE648094E4
:1047DD0080400A900150E4F0A304F08021EF4E7068
:1047ED0008900150F0A3F0801574FF900150F0A3D4
:1047FD00F0C3E49FFFE49E90014AF0A3EFF0900117
:10480D004AE0FEA3E0FF900148E0FCA3E0FDD39F4A
:10481D00EE6480F8EC64809890014C4007ECF0A3B6
:10482D00EDF08005EEF0A3EFF0E4900142F0A3F07F
:10483D0090014DE02401FF90014CE03400FED39037
:10484D000143E09F900142E09E400302491D90010B
:10485D0052E0FEA3E0FFA3E0FCA3E0FD1273F09095
:10486D000148E0FEA3E0FF900145E02FF0900144E8
:10487D00E03EF090014AE0FEA3E0FF900147E02FFB
:10488D00F0900146E03EF090014CE0FEA3E0FF9079
:10489D000144E0FCA3E0FDD39FEE6480F8EC64805E
:1048AD00984020ED9FFFEC9E900144F0A3EFF09017
:1048BD00014EE0FEA3E0FF900153E02FF090015276
:1048CD00E03EF090014CE0FEA3E0FF900146E0FCDD
:1048DD00A3E0FDD39FEE6480F8EC6480984020ED5A
:1048ED009FFFEC9E900146F0A3EFF0900150E0FE8B
:1048FD00A3E0FF900155E02FF0900154E03EF090C1
:10490D000143E004F07006900142E004F002483DDE
:01491D002277
:0E491E009000E0EEF0A3EFF0A3ECF0A3EDF0BC
:10492C00E49000ECF0A3F0A3F0A3F09000E0E0FE24
:10493C00A3E0FFC3EB9FFFEA9E9000F0F0A3EFF023
:10494C009000E2E0FAA3E0FBC39000E7E09BFE904E
:10495C0000E6E09A9000F2F0A3CEF09000E0E0FFC9
:10496C00A3E09000FACFF0A3EFF0A3EAF0A3EBF0F2
:10497C009000F0E0FEA3E0FFD39400EE64809480FE
:10498C00400A9000F6E4F0A304F08021EF4E70088A
:10499C009000F6F0A3F0801574FF9000F6F0A3F0F1
:1049AC00C3E49FFFE49E9000F0F0A3EFF09000F2C0
:1049BC00E0FEA3E0FFD39400EE64809480400A9064
:1049CC0000F8E4F0A304F08021EF4E70089000F89A
:1049DC00F0A3F0801574FF9000F8F0A3F0C3E49FEF
:1049EC00FFE49E9000F2F0A3EFF09000F2E0FEA343
:1049FC00E0FF9000F0E0FCA3E0FDD39FEE6480F8B4
:104A0C00EC6480989000F44007ECF0A3EDF0800586
:104A1C00EEF0A3EFF0E49000EAF0A3F09000F5E0E4
:104A2C002401FF9000F4E03400FED39000EBE09FF3
:104A3C009000EAE09E4003024B0A9000FAE0FEA3CD
:104A4C00E0FFA3E0FCA3E09000E812734E9000F0AE
:104A5C00E0FEA3E0FF9000EDE02FF09000ECE03ED4
:104A6C00F09000F2E0FEA3E0FF9000EFE02FF0905A
:104A7C0000EEE03EF09000F4E0FEA3E0FF9000ECCE
:104A8C00E0FCA3E0FDD39FEE6480F8EC64809840DA
:104A9C0020ED9FFFEC9E9000ECF0A3EFF09000F661
:104AAC00E0FEA3E0FF9000FBE02FF09000FAE03E68
:104ABC00F09000F4E0FEA3E0FF9000EEE0FCA3E039
:104ACC00FDD39FEE6480F8EC6480984020ED9FFF4E
:104ADC00EC9E9000EEF0A3EFF09000F8E0FEA3E067
:104AEC00FF9000FDE02FF09000FCE03EF09000EB1A
:0E4AFC00E004F070069000EAE004F0024A28A0
:014B0A002288
:10671F0090037EEEF0A3EFF0900382EAF0A3EBF08C
:08672F00900380ECF0A3EDF0F3
:1067370090037EE0FAA3E0FB24FFFFEA34FFFEC0EC
:1067470006C007ED24FFFDEC34FFFCEB2401FBE45E
:106757003AFAA3E0FEA3E02401FFE43E900059F0DB
:10676700A3EFF0D007D006126DE0E4FB1275570BCC
:10677700EBB409F890037FE024FCFF90037EE0343C
:10678700FFFEC007900380E0FCA3E0FD90037FE0DD
:106797002404FB90037EE03400FA900380E0FFA31B
:1067A700E0900059CFF0A3EFF0D007126DE0E4FBC3
:1067B7001275570BEBB409F8900381E024FCFD90A8
:1067C7000380E034FFFC90037EE0FAA3E0FBA3E044
:1067D700FEA3E02404FFE43E900059F0A3EFF090FD
:0F67E700037E126DDBE4FB1275570BEBB409F860
:0167F6002280
:106BF100900354EAF0A3EBF0900350EEF0A3EFF012
:106C0100A3ECF0A3EDF0C007A3E0FAA3E0FB90032F
:106C110052E0FFA3E0900140CFF0A3EFF0D00712C4
:106C2100472F900350E0FAA3E0FBFFAE02C007A399
:106C3100E0FCA3E0FD900356E0FFA3E0900140CF0C
:106C4100F0A3EFF0D00712472F900356E0FCA3E02A
:106C5100FD900354E0FAA3E0FBA3E0FFA3E0900161
:106C610040CFF0A3EFF0900350E0FEA3E0FF124706
:106C71002F900354E0FAA3E0FBFFAE02C00790039C
:106C810052E0FCA3E0FD900356E0FFA3E090014039
:0A6C9100CFF0A3EFF0D00702472F69
:0E4CF40090030DEEF0A3EFF0A3ECF0A3EDF0B3
:104D0200E4A3F0A3F0EBFF7E00A3EEF0A3EFF02507
:104D1200E0FFEE33FEC374039F900316F0E49E900F
:104D22000315F0900313E0FEA3E0FF900311E0FCF3
:104D3200A3E0FDD39FEE6480F8EC64809840030208
:104D42004ECB90030EE02DFF90030DE03C1273DA80
:104D5200900313E0FEA3E0FF90030EE02FFF900309
:104D62000DE03E9003111273DD900313E0FEA3E009
:104D7200FF90030EE02FFF90030DE03EFE90031123
:104D8200E0FCA3E0FD900310E02DFD90030FE03C5A
:104D9200FC1273F0900311E0FEA3E0FF90030EE01B
:104DA2002FFF90030DE03EFE900313E0FCA3E0FD15
:104DB200900310E02DFD90030FE03CFC1273F09085
:104DC2000311E0FEA3E0FFC390030EE09FFF9003F8
:104DD2000DE09EFE900313E0FCA3E0FD900310E0C3
:104DE2002DFD90030FE03CFC1273F0900313E0FEE4
:104DF200A3E0FFC390030EE09FFF90030DE09EFE31
:104E0200900311E0FCA3E0FD900310E02DFD900360
:104E12000FE03CFC1273F0900311E0FEA3E0FFC32D
:104E220090030EE09FFF90030DE09E1273DA900351
:104E320013E0FEA3E0FFC390030EE09FFF90030D7B
:104E4200E09EFE9003111273DE900312E004F070F4
:104E520006900311E004F0C3900315E0648094808F
:104E62005025900311E0FEA3E07802C333CE33CE87
:104E7200D8F92406FFE43EFE900316E02FF09003DB
:104E820015E03EF0024D25900313E0FEA3E0FFC3C0
:104E9200900312E09FFF900311E09EFEEF7802C3A1
:104EA20033CE33CED8F9240AFFE43EFE900316E057
:104EB2002FF0900315E03EF0900314E024FFF090F1
:094EC2000313E034FFF0024D255A
:014ECB0022C4
:10556900900041EEF0A3EFF0900045EBF09000437E
:05557900ECF0A3EDF0D1
:10557E0090004AECF0A3EDF0900046E0FF131313F9
:10558E00541FFEEF540760047F0180027F00EE2F50
:10559E00FF900046E0C313FEEF8EF0A490004CF097
:1055AE00900045E024E0F0E4F990004CE0FFE9C300
:1055BE009F40030256E0900046E0FFB40C129000AC
:1055CE0045E075F00CA42433F582E5F0340080310B
:1055DE00EFB41012900045E075F010A424A7F582E8
:1055EE00E5F03404801B900046E064186003025618
:1055FE00E0900045E075F024A42497F582E5F034A0
:10560E000AF583E58229F582E43583F583E49390E8
:10561E000048F0E4900049F0900048E030E7139025
:10562E000041E0FEA3E0FFA3E0FCA3E0FD90030930
:10563E008017900047E07014900041E0FEA3E0FF59
:10564E00A3E0FCA3E0FD90030B12734F900048E023
:10565E0025E0F0900044E004F07006900043E00472
:10566E00F0900304E0FEA3E0FF900043E0FCA3E013
:10567E00FDC39FEC9E505B90004AE0FEA3E0FFC38B
:10568E00ED9FFDEC9EFC900046E07A00B50530EAF9
:10569E00B5042C900043EEF0A3EFF0900042E0042E
:1056AE00F07006900041E004F0900302E0FEA3E0EB
:1056BE00FFC3900042E09F900041E09E4010229078
:1056CE000049E004F0E0C394085003025626090294
:0256DE0055B7BE
:0156E00022A7
:0772B500C3EF9E14FD7F0AE8
:0872BC00900384EFF0A3EDF054
:1072C400A312345200000001900385E0FF14F0EF94
:1072D4006020A3E0F8A3E0F9A3E0FAA3E0FB9003A5
:1072E40084E0FFE4FCFDFE1232EF90038612344684
:1072F40080D6900386E0FCA3E0FDA3E0FEA3E0FFBC
:017304002266
:0E6643009002C3EEF0A3EFF0A3ECF0A3EDF095
:10665100E49002CFF09002CDF09002CBE0FF9002E7
:10666100CDE0FEC39F400302671E1272B5A804A9C4
:1066710005AA06AB079002C7E0FCA3E0FDA3E0FE7C
:10668100A3E0FF12337AE47B0AFAF9F812337A9025
:1066910002CEEBF0A3E070459002CBE014FF900234
:1066A100CDE0FEC39F5036A3E0702C9002CCE0FBFE
:1066B100C3138EF0A4FF9002C4E02FFF9002C3E049
:1066C10035F0FE9002C5E0FCA3E0FD900046EBF042
:1066D100E4A3F07B20803A9002CF7401F09002CCC9
:1066E100E0FAC313FFA3E0FEEF8EF0A4FF9002C413
:1066F100E02FFF9002C3E035F0FE9002C5E0FCA35D
:10670100E0FD9002CEE02430FB900046EAF0E4A3E5
:0D671100F01255699002CDE004F002665AC6
:01671E002258
:0E5E4500900299EEF0A3EFF0A3ECF0A3EDF0C5
:105E5300E49002A6F09002A4F09002A1E0FF900269
:105E6300A4E0FEC39F4003025F6D1272B5A804A9AC
:105E730005AA06AB0790029DE0FCA3E0FDA3E0FEAC
:105E8300A3E0FF12337AE47B0AFAF9F812337A902B
:105E930002A5EBF0A3E06003025F249002A1E014EB
:105EA300FF9002A4E0FEC39F5077A3E0706D9002C1
:105EB300A3E0F99002A230E72BE0FBC3138EF0A41A
:105EC300FF90029AE02FFF900299E035F0FE9002D6
:105ED3009BE0FCA3E0FD900046EBF0E95401A3F046
:105EE3007B30807AE0FBC313FF9002A4E0FEEF8EC9
:105EF300F0A4FF90029AE02FFF900299E035F0FEA4
:105F030090029BE0FCA3E0FD900046EBF09002A31F
:105F1300E05401900047F07B2080439002A6740177
:105F2300F09002A2E0FAC313FF9002A4E0FEEF8E0A
:105F3300F0A4FF90029AE02FFF900299E035F0FE63
:105F430090029BE0FCA3E0FD9002A5E02430FB90CF
:105F53000046EAF09002A3E05401900047F0125586
:0A5F6300699002A4E004F0025E5C05
:015F6D002211
:10655E00900034EEF0A3EFF0A3ECF0A3EDF0A3EA7D
:04656E00F0A3EBF0BB
:10657200900034E0FEA3E0FF900040F0900039E08C
:106582002FF0900038E03EF0900036E0FEA3E0FFEE
:1065920090003BE02FF090003AE03EF090003DE0AA
:1065A200FBA3E0FAA3E0F912319FFFD3947E4003EC
:1065B200026642EFC394205003026642900038E024
:1065C200FEA3E0FF900035E09F900034E09E401F64
:1065D200900040E0FF900034E4F0A3EFF090003C24
:1065E200E0FF900037E02FF0900036E03400F090AA
:1065F200003AE0FEA3E0FF900036E0FCA3E0FDC31A
:106602009FEC9E503B900034E0FEA3E0FF12319FCE
:10661200FB90003CE0900046F0E4A3F01255699034
:10662200003CE0C313FF900035E02FF0900034E00F
:106632003400F090003EE475F00112325E02659E75
:016642002235
:105D1A00900317EEF0A3EFF0A3ECF0A3EDF0A3EBE2
:075D2A00F0A3EAF0A3E9F089
:105D310090031BE0FBA3E0FAA3E0F912319F70038B
:105D4100025E44900317E0FAA3E0FBFFAE02C00637
:105D5100C007A3E0FCA3E0FDEB241FFBE43AFA90AB
:105D61000319E0FEA3E0241CFFE43E900059F0A3D8
:105D7100EFF0D007D006126DE0E490031EF090031F
:105D81001EE0FFC394144003025E2990031BE0FB55
:105D9100A3E0FAA3E0F912319FFE75F076EFA42497
:105DA100F3F582E5F03417F583E4936E707190009A
:105DB100011231B8FF90031EE075F076A424F4F5CA
:105DC10082E5F03417F583E4936F7053FB90031E63
:105DD100E075F076A424F5F582E5F03417F583E556
:105DE100822BF582E43583F583E493FF90031FE46E
:105DF100F0A3EFF0E4FA900320E030E70590030907
:105E0100800390030B12755A900320E025E0F09077
:105E1100031FE033F00AEAB408DC0BEBB474AE9074
:105E2100031EE004F0025D7F90031CE475F0021292
:105E3100325E900318E02420F0900317E03400F064
:035E4100025D31CE
:015E4400223B
:105BED009001E7EEF0A3EFF0A3ECF0A3EDF0A3EA44
:045BFD00F0A3EBF036
:105C0100E49001F2F0A3F0A31234520000000090DE
:105C110001F8123452000000009001E9E0FCA3E019
:105C2100FDA3E0FEA3E0FF9001E7E0FAA3E02FFF70
:105C3100EA3ECF24FFFBEF34FFFA9001EDE0FEA333
:105C4100E0FF9001E9E0F8A3E02FFFE83ECF24FF59
:105C5100CF34FF900059F0A3EFF09001E7126DDB14
:105C61009001EDE0FCA3E0FD9001EBE0FEA3E0FF7D
:105C71001231F7EF25E0FFEE33FEE4FCFD9001F871
:105C81001234469001F4A3A3E0FEA3E0FDAC062488
:105C910001FFE43CFE9001EFE0FBA3E0FAA3E0F991
:105CA1008F828E831231B8FF9001F2E4F0A3EFF0FE
:105CB100E0F8E4F0E89001F2F08D828C831231B8C3
:105CC100FF9001F2E0FEA3E04FFF9001F2EEF0FE43
:105CD100A3EFF012755FA3E0FCA3E0FDA3E0FEA338
:105CE100E02402FFE43EFEE43DFDE43CFC9001F4CF
:105CF1001234469001F8E0FCA3E0FDA3E0FEA3E02E
:105D0100FF9001F4E0F8A3E0F9A3E0FAA3E0FBC3FC
:085D110012340C5003025C8403
:015D19002267
:0B768C00C2A1D2A3D2A2D2A1C2A322AD
:1075E400C2A1E4FEEFC4131313540124FF92A2EFCB
:0C75F40025E0FFC2A1D2A10EEEB408E811
:017600002267
:10749200E490039CF0A3F0C2A1FDFC90039DE025C3
:1074A200E0F090039CE033F0D2A1C2A1A2A0E433A9
:1074B200FFE0F0A3E04FF00DBD00010CED640C4CB9
:0A74C20070D990039CE0FEA3E0FFE8
:0174CC00229D
:07526600EEF0A3EFF07F90D2
:02526D00AB078D
:10526F00C2A1C2A3E4900156F0AF031275E49001FE
:10527F00577406F0900157E014F0E070F7D2A100D8
:10528F0000C2A10000127492900156E025E024584C
:10529F00F582E43401F583EEF0A3EFF0900156E0D0
:1052AF0004F0E0C3940A40C1D2A3E4900156F090F9
:1052BF000156E0FFC394094003025374EF04A3F0B7
:1052CF00900157E0FFC3940A400302536BEF25E0B0
:1052DF002458F582E43401F583E0FEA3E0FF90014A
:1052EF0056E0FB25E02458F582E43401F583E0FC19
:1052FF00A3E0C39FEC9E505BEB25E02458F582E4BE
:10530F003401F583E0FEA3E0FFE4FCFD90016C1295
:10531F003446900157E0FA25E02458F582E4340131
:10532F00F583E0FEA3E0FFEB25E02458F582E4349B
:10533F0001F583EEF0A3EFF090016CA3A3E0FEA3C1
:10534F00E0FFEA25E02458F582E43401F583EEF01E
:10535F00A3EFF0900157E004F00252CF900156E016
:10536F0004F00252BE90016C123452000000009003
:10537F0001567402F090016CE0F8A3E0F9A3E0FA93
:10538F00A3E0FB900156E025E02458F582E43401B8
:10539F00F583E0FEA3E0FFE4FCFDEB2FFFEA3EFE0A
:1053AF00ED39FDEC38FC90016C123446900156E05B
:1053BF0004F0E0B408BF90016CE0FCA3E0FDA3E0B3
:1053CF00FEA3E0FFE47B06FAF9F812739690016CE6
:0D53DF0012344690016CA3A3E0FEA3E0FF92
:0153EC00229E
:105F6E0012768C7FD012526D9003211252669003DE
:105F7E0027EEF0A3EFF07FD012526D900323125252
:105F8E0066AD07AC06900323E0FEA3E0FF9003216D
:105F9E00E0FAA3E0FBD39FEA9E400AA3A3EB9FFF88
:105FAE00EA9EA38017900321E0FEA3E0FFC39003B7
:105FBE0024E09FFF900323E09E900325F0A3EFF0D3
:105FCE00900327E0FEA3E0FFD39DEE9C4007EF9DDC
:105FDE00FFEE9C800E900327E0FEA3E0FFC3ED9F33
:105FEE00FFEC9EA3F0A3EFF0D3900326E094329043
:105FFE000325E09400500E90032AE094329003297A
:10600E00E0940040037F0022900323E0FEA3E0FF14
:10601E00900322E02FFF900321E03EC313FEEF1307
:10602E00FF9002D0EEF0A3EFF0900328E02DFF904A
:10603E000327E03CC313FEEF13FF9002D2EEF0A352
:10604E00EFF09002D1E054F0F09002D3E054F0F073
:10605E00C39002D1E094649002D0E09400400FD33C
:10606E009002D3E094D89002D2E0940E40037F00C9
:03607E00227F017D
:0160810022FC
:10597000E4900390F0125F6EEF7003025AA590035B
:1059800008E06003025A0B9002D0E0FEA3E0FFE4BF
:10599000FCFD9002D41234469002D4E0FCA3E0FD5A
:1059A000A3E0FEA3E02406FFEE34FFFEED34FFFD8E
:1059B000EC34FFFCE47BB4FAF9F81232EFE47B74C8
:1059C0007A0EF9F812337A9002D41234469002D249
:1059D000E0FEA3E0FFE4FCFD9002D8123446900202
:1059E000D8E0FCA3E0FDA3E0FEA3E024A2FFEE3498
:1059F000FEFEED34FFFDEC34FFFCE47BFAFAF9F82F
:105A00001232EFE47BAC7A0D025A929002D2E0FEA1
:105A1000A3E0FFC3E49FFF74109EFEE4FCFDA3120D
:105A200034469002D4E0FCA3E0FDA3E0FEA3E02412
:105A3000A2FFEE34FEFEED34FFFDEC34FFFCE47B10
:105A4000FAFAF9F81232EFE47BAC7A0DF9F8123376
:105A50007A9002D41234469002D0E0FEA3E0FFE434
:105A6000FCFD9002D81234469002D8E0FCA3E0FD81
:105A7000A3E0FEA3E02406FFEE34FFFEED34FFFDBD
:105A8000EC34FFFCE47BB4FAF9F81232EFE47B74F7
:105A90007A0EF9F812337A9002D8123446900390B5
:0F5AA0007401F08001E49002DCF0900390E0FFCD
:015AAF0022D4
:06708A0090035812344689
:10709000900358E0FCA3E0FDA3E0FEA3E0FF78131B
:1070A000123433A3EEF0A3EFF0900358E0FCA3E01A
:1070B000FDA3E0FEA3E0FF780A123433EF543FFE55
:1070C000E490035EF0A3CEF0900358E0FCA3E0FD53
:1070D000A3E0FEA3E0FF7803123433EF541FFFE474
:1070E000AD07FC90035EE0FEA3E07805C333CE332A
:1070F000CED8F9FBAA0690035DE033333354F84A47
:09710000FEEBFFEE4CFEEF4DFF2B
:017109002263
:04741A00AD07AC0608
:10741E007BE77A187E00ED54037803C333CE33CE68
:10742E00D8F9FFEA4EFAEB4FFB7E00ED541C7806BE
:10743E00C333CE33CED8F9FFEA4EFAEB4FFBED5401
:07744E00E04AFAEBAE02FF79
:017455002214
:0873050090038AEFF0A3EDF004
:10730D00A31234520000000190038BE0FF14F0EF44
:10731D006020A3E0F8A3E0F9A3E0FAA3E0FB90035B
:10732D008AE0FFE4FCFDFE1232EF90038C1234462E
:10733D0080D690038CE0FCA3E0FDA3E0FEA3E0FF6C
:01734D00221D
:1071F800900360123446900364E0FCA3E0FDA3E032
:10720800FEA3E0FF900360E0F8A3E0F9A3E0FAA38F
:10721800E0FBD3123422401D900364E0F8A3E0F9A8
:10722800A3E0FAA3E0FB900360E0FCA3E0FDA3E089
:10723800FEA3E0801A900360E0F8A3E0F9A3E0FA67
:10724800A3E0FBA3E0FCA3E0FDA3E0FEA3E0C39B57
:0B725800FFEE9AFEED99FDEC98FC2281
:08745600900395EEF0A3EFF0A6
:10745E00900309E0FFA3E0900397CFF0A3EFF0AF06
:10746E0003900309EAF0A3EFF0900395E0FEA3E08A
:10747E00FF1273F0900397E0FFA3E0900309CFF0A3
:03748E00A3EFF079
:0174910022D8
:10628600900258EEF0A3EFF0A3ECF0A3EDF0A3EA32
:04629600F0A3EBF096
:10629A00E4900263F0A3F090025CE0FEA3E0FFC387
:1062AA00900264E09F900263E09E400302637CE4F4
:1062BA00900265F0A3F090025EE0FEA3E0FFC390B7
:1062CA000266E09F900265E09E40030263689002C6
:1062DA0063E0FEA3E0FF900259E02FFF900258E02E
:1062EA003EFE900265E0FCA3E0FD90025BE02DFD1E
:1062FA0090025AE03CFC126999900267EEF0A3EF13
:10630A00F0900260E0FCA3E0FDA3E0FB1264719050
:10631A000267EEF0A3EFF0900263E0FEA3E0FF90C5
:10632A000259E02FFF900258E03EFE900265E0FC21
:10633A00A3E0FD90025BE02DFD90025AE03CFC9048
:10634A000267E0FAA3E0FB127354900266E004F0DD
:10635A0060030262C0900265E004F00262C090022B
:10636A0064E004F060030262A1900263E004F002B8
:02637A0062A11E
:01637C0022FE
:10637D009002A9ECF0A3EDF0A3EAF0A3EBF09002EC
:06638D00A7EEF0A3EFF003
:10639300C39401EE94004013E024FFFE9002A7E0B3
:1063A30034FF9002B1F0A3CEF0800F9002A7E0FF7C
:1063B300A3E09002B1CFF0A3EFF09002A9E0FEA317
:1063C300E0FFC39401EE9400400CEF24FFFFEE3492
:1063D300FF9002B3800B9002A9E0FFA3E09002B309
:1063E300CFF0A3EFF09002B3E0FFA3E09002ADCFB4
:1063F300F0A3EFF09002AAE02402FF9002A9E03498
:1064030000FEC39002AEE09F9002ADE09E505E900E
:1064130002B1E0FFA3E09002AFCFF0A3EFF0900250
:10642300A8E02402FD9002A7E03400FC9002AFE054
:10643300FEA3E0FFC39DEE9C50239002ADE0FCA3BE
:10644300E0FD9002ABE0FAA3E0FB1273549002B0BC
:10645300E004F070C99002AFE004F080C19002AE96
:0D646300E004F0708F9002ADE004F080873F
:016470002209
:0E453C009000FEEEF0A3EFF0A3ECF0A3EDF084
:10454A00E490010AF0A3F0A3F0A3F09000FEE0FECD
:10455A00A3E0FFC3EB9FFFEA9E90010EF0A3EFF0EA
:10456A00900100E0FAA3E0FBC3900105E09BFE90F6
:10457A000104E09A900110F0A3CEF09000FEE0FF53
:10458A00A3E0900118CFF0A3EFF0A3EAF0A3EBF0B9
:10459A0090010EE0FEA3E0FFD39400EE64809480C5
:1045AA00400A900114E4F0A304F08021EF4E700851
:1045BA00900114F0A3F0801574FF900114F0A3F099
:1045CA00C3E49FFFE49E90010EF0A3EFF090011068
:1045DA00E0FEA3E0FFD39400EE64809480400A904A
:1045EA000116E4F0A304F08021EF4E700890011642
:1045FA00F0A3F0801574FF900116F0A3F0C3E49FB6
:10460A00FFE49E900110F0A3EFF0900110E0FEA3EA
:10461A00E0FF90010EE0FCA3E0FDD39FEE6480F87A
:10462A00EC6480989001124007ECF0A3EDF080054D
:10463A00EEF0A3EFF0E4900108F0A3F0900113E08C
:10464A002401FF900112E03400FED3900109E09F9B
:10465A00900108E09E400302472E900118E0FEA355
:10466A00E0FFA3E0FCA3E0FD900106E0FAA3E0FB73
:10467A0012735490010EE0FEA3E0FF90010BE02FAD
:10468A00F090010AE03EF0900110E0FEA3E0FF90F6
:10469A00010DE02FF090010CE03EF0900112E0FED7
:1046AA00A3E0FF90010AE0FCA3E0FDD39FEE648043
:1046BA00F8EC6480984020ED9FFFEC9E90010AF090
:1046CA00A3EFF0900114E0FEA3E0FF900119E02FA0
:1046DA00F0900118E03EF0900112E0FEA3E0FF9096
:1046EA00010CE0FCA3E0FDD39FEE6480F8EC64804B
:1046FA00984020ED9FFFEC9E90010CF0A3EFF09004
:10470A000116E0FEA3E0FF90011BE02FF090011AD2
:10471A00E03EF0900109E004F07006900108E00420
:04472A00F00246460D
:01472E002268
:103767009000A2EEF0A3EFF0A3ECF0A3EDF0A3EA34
:04377700F0A3EBF0E0
:10377B00E49000AFF0A3F0A3F0A3F09000AAE0FF59
:10378B007E00C39000A3E09F9000A2E09E50030236
:10379B0039D29000A7E09F9000A6E09E500302391B
:1037AB00D29000A4E0FCA3E0FD9FEC9E50030239F5
:1037BB00D29000A9E09F9000A8E09E50030239D25E
:1037CB009000AAE070139000A2E0FEA3E0FF90002F
:1037DB00ABE0FAA3E0FB0273549000A2E0FAA3E083
:1037EB00FBC39000A7E09BFE9000A6E09A9000B36D
:1037FB00F0A3CEF09000A4E0FEA3E0FFC39000A9DD
:10380B00E09FFF9000A8E09E9000B5F0A3EFF09032
:10381B0000BDEAF0A3EBF09000A4A3E0FF9000BF83
:10382B00EEF0A3EFF09000B3E0FEA3E0FFD3940023
:10383B00EE64809480400A9000B9E4F0A304F08019
:10384B0021EF4E70089000B9F0A3F0801574FF9033
:10385B0000B9F0A3F0C3E49FFFE49E9000B3F0A384
:10386B00EFF09000B5E0FEA3E0FFD39400EE648090
:10387B009480400A9000BBE4F0A304F08021EF4E4B
:10388B0070089000BBF0A3F0801574FF9000BBF0A4
:10389B00A3F0C3E49FFFE49E9000B5F0A3EFF0907C
:1038AB0000B5E0FEA3E0FF9000B3E0FCA3E0FDD386
:1038BB009FEE6480F8EC6480989000B74007ECF0C2
:1038CB00A3EDF08005EEF0A3EFF0E49000ADF0A3D4
:1038DB00F09000B8E02401FF9000B7E03400FED375
:1038EB009000AEE09F9000ADE09E40030239D29075
:1038FB0000BFE0FCA3E0FD9000AAE0FB7A00A3E090
:10390B00FFA3E09001A8CFF0A3EFF09000BDE0FE85
:10391B00A3E0FF122A9A9000B3E0FEA3E0FF900011
:10392B00B0E02FF09000AFE03EF09000B5E0FEA3CA
:10393B00E0FF9000B2E02FF09000B1E03EF090007D
:10394B00B7E0FEA3E0FF9000AFE0FCA3E0FDD39F48
:10395B00EE6480F8EC6480984020ED9FFFEC9E9025
:10396B0000AFF0A3EFF09000B9E0FEA3E0FF9000F2
:10397B00BEE02FF09000BDE03EF09000B7E0FEA35C
:10398B00E0FF9000B1E0FCA3E0FDD39FEE6480F874
:10399B00EC6480984020ED9FFFEC9E9000B1F0A36B
:1039AB00EFF09000BBE0FEA3E0FF9000C0E02FF033
:1039BB009000BFE03EF09000AEE004F07006900087
:0739CB00ADE004F00238DC5E
:0139D20022D2
:0E26D0009000C1EEF0A3EFF0A3ECF0A3EDF04C
:1026DE00E49000CEF0A3F0A3F0A3F09000C1E0FED2
:1026EE00A3E0FFC3EB9FFFEA9E9000D2F0A3EFF0B2
:1026FE009000C3E0FAA3E0FBC39000C8E09BFE90FD
:10270E0000C7E09A9000D4F0A3CEF09000C1E0FF95
:10271E00A3E09000DCCFF0A3EFF0A3EAF0A3EBF080
:10272E009000D2E0FEA3E0FFD39400EE648094808C
:10273E00400A9000D8E4F0A304F08021EF4E700818
:10274E009000D8F0A3F0801574FF9000D8F0A3F09D
:10275E00C3E49FFFE49E9000D2F0A3EFF09000D46C
:10276E00E0FEA3E0FFD39400EE64809480400A90D4
:10277E0000DAE4F0A304F08021EF4E70089000DA46
:10278E00F0A3F0801574FF9000DAF0A3F0C3E49F7D
:10279E00FFE49E9000D4F0A3EFF09000D4E0FEA3EF
:1027AE00E0FF9000D2E0FCA3E0FDD39FEE6480F842
:1027BE00EC6480989000D64007ECF0A3EDF0800515
:1027CE00EEF0A3EFF0E49000CCF0A3F09000D7E091
:1027DE002401FF9000D6E03400FED39000CDE09FA0
:1027EE009000CCE09E4003022A999000C9E0701937
:1027FE009000DCE0FEA3E0FFA3E0FCA3E0FD900070
:10280E00CAE0FAA3E0FB1273549000C9E0640160C1
:10281E00030228A49000DCE0FEA3E0FFA3E0FCA3EB
:10282E00E0FD9000CAE0FAA3E0FB1273549000DDC5
:10283E00E02401FF9000DCE03400FE9000DEE0FCBE
:10284E00A3E0FD9000CAE0FAA3E0FB1273549000DF
:10285E00DCE0FEA3E0FF9000DFE02401FD9000DE4F
:10286E00E03400FC9000CAE0FAA3E0FB127354902F
:10287E0000DDE02401FF9000DCE03400FE9000DF7C
:10288E00E02401FD9000DEE03400FC9000CAE0FA86
:10289E00A3E0FB1273549000C9E0640260030229A6
:1028AE00E89000DCE0FEA3E0FFA3E0FCA3E0FD90D7
:1028BE0000CAE0FAA3E0FB1273549000DDE024019D
:1028CE00FF9000DCE03400FE9000DEE0FCA3E0FDB3
:1028DE009000CAE0FAA3E0FB1273549000DCE0FE15
:1028EE00A3E0FF9000DFE02401FD9000DEE0340065
:1028FE00FC9000CAE0FAA3E0FB1273549000DDE0F6
:10290E002401FF9000DCE03400FE9000DFE02401A3
:10291E00FD9000DEE03400FC9000CAE0FAA3E0FB7C
:10292E001273549000DDE024FFFF9000DCE034FFD2
:10293E00FE9000DFE02401FD9000DEE03400FC900C
:10294E0000CAE0FAA3E0FB1273549000DDE024010C
:10295E00FF9000DCE03400FE9000DFE024FFFD90ED
:10296E0000DEE034FFFC9000CAE0FAA3E0FB127335
:10297E00549000DDE024FFFF9000DCE034FFFE9079
:10298E0000DFE024FFFD9000DEE034FFFC9000CA83
:10299E00E0FAA3E0FB1273549000DDE024FFFF90F9
:1029AE0000DCE034FFFE9000DEE0FCA3E0FD9000D2
:1029BE00CAE0FAA3E0FB1273549000DCE0FEA3E041
:1029CE00FF9000DFE024FFFD9000DEE034FFFC907E
:1029DE0000CAE0FAA3E0FB1273549000D2E0FEA30B
:1029EE00E0FF9000CFE02FF09000CEE03EF09000A0
:1029FE00D4E0FEA3E0FF9000D1E02FF09000D0E0F5
:102A0E003EF09000D6E0FEA3E0FF9000CEE0FCA3E7
:102A1E00E0FDD39FEE6480F8EC6480984020ED9F3B
:102A2E00FFEC9E9000CEF0A3EFF09000D8E0FEA356
:102A3E00E0FF9000DDE02FF09000DCE03EF0900033
:102A4E00D6E0FEA3E0FF9000D0E0FCA3E0FDD39F14
:102A5E00EE6480F8EC6480984020ED9FFFEC9E9031
:102A6E0000D0F0A3EFF09000DAE0FEA3E0FF9000BC
:102A7E00DFE02FF09000DEE03EF09000CDE004F0BD
:0B2A8E0070069000CCE004F00227DA94
:012A9900221A
:106D4500FAE0FFA3E090036ECFF0A3EFF0900269A5
:056D5500E0FEA3E0FFD9
:106D5A00900368EEF0A3EFF0A3ECF0A3EDF0A3EA42
:106D6A00F0A3EBF04A6069900302E0FCA3E0FD9017
:106D7A000368E0FAA3E0FBD39DEA9C505390030416
:106D8A00E0FEA3E0FF90036AE0FCA3E0FD9FEC9E17
:106D9A00503EAF03AE02C006C00790036CE0FEA3EC
:106DAA00E0FF90036AE0F8A3E02FFFE83ECF24FF5C
:106DBA00CF34FF9002F0F0A3EFF090036EE0FFA350
:106DCA00E09002F2CFF0A3EFF0D007D0061268C924
:016DDA002296
:10710A00900370EEF0A3EFF0A3ECF0A3EDF0EB4ADE
:10711A006068900302E0FEA3E0FFD3900371E09F52
:10712A00900370E09E5053900304E0FEA3E0FF90AA
:10713A000372E0FCA3E0FD9FEC9E503EAE02AF035B
:10714A00900370E0FAA3E02FFFEA3ECF24FFFBEFA3
:10715A0034FFFAA3E0FFA3E09002F0CFF0A3EFF030
:10716A00900376E0FFA3E09002F2CFF0A3EFF09055
:0B717A000370E0FEA3E0FF1268C922D2
:105829009002B5EEF0A3EFF0A3ECF0A3EDF0A3EA3C
:04583900F0A3EBF0FD
:10583D00A3E07002A3E0700302596F9002B9E0700B
:10584D0002A3E0700302596F9002C0E020E0030252
:10585D0058ECE4A3F0A3F09002B9E0FEA3E0FF90B2
:10586D0002C1E0FCA3E0FDC39FEC9E400302596F13
:10587D009002B6E02DFF9002B5E03CFEC006C007D9
:10588D009002B7E0FCA3E0FD9002BCE024FFFB908A
:10589D0002BBE034FFFAC002C0039002C2E025E073
:1058AD00FF9002C1E033FE9002BDE0FBA3E0FAA33E
:1058BD00E0F98F828E8312328AFF90036EE5F0F04D
:1058CD00A3EFF0D003D002D007D006126D5A90028C
:1058DD00C2E004F070819002C1E004F0025864E46B
:1058ED009002C1F0A3F09002BBE0FEA3E0FF900296
:1058FD00C1E0FCA3E0FDC39FEC9E50669002B8E0B2
:10590D002DFD9002B7E03CFC9002BAE024FFFB9025
:10591D0002B9E034FFFAC002C0039002C2E025E0F4
:10592D00FF9002C1E033FE9002BDE0FBA3E0FAA3BD
:10593D00E0F98F828E8312328AFF900376E5F0F0C4
:10594D00A3EFF09002B5E0FEA3E0FFD003D002126A
:10595D00710A9002C2E004F0708C9002C1E004F074
:02596D00808434
:01596F002215
:064B0B0090011C1234466B
:104B1100E4900138F0A3F090011CE0FCA3E0FDA3B8
:104B2100E0FEA3E0FF7810123433900129EFF0FB8F
:104B310090011CE0FCA3E0FDA3E0FEA3E0FF7808E8
:104B410012343390012AEFF0FA90011CA3A3A3E0E1
:104B5100FFA90790012BE9F0900120E0FCA3E0FD03
:104B6100A3E0FEA3E0FF7810123433EBFDC3EF9D09
:104B7100FFEE940090012CF0A3EFF0900120E0FCF7
:104B8100A3E0FDA3E0FEA3E0FF7808123433EAFDC1
:104B9100C3EF9DFEE4940090012EF0A3CEF09001AE
:104BA10020A3A3A3E0FFE9FDC3EF9DFEE4940090E1
:104BB1000130F0A3CEF0E4900138F0A3F09001278A
:104BC100E0FEA3E0FFC3900139E09F900138E09E31
:104BD1004003024CF3E0FAA3E0FB90012CE0FEA3BA
:104BE100E0FFAD03AC021231F7900127E0FCA3E036
:104BF100FD123209A3E07C002FFFEC3E900132F060
:104C0100A3EFF090012EE0FEA3E0FFAD03AC021292
:104C110031F7900127E0FCA3E0FD12320990012A4F
:104C2100E07C002FFFEC3E900134F0A3EFF0900107
:104C310030E0FEA3E0FFAD03AC021231F790012793
:104C4100E0FCA3E0FD12320990012BE07C002FFF74
:104C5100EC3E900136F0A3EFF0900132E0FEA3E0CC
:104C61007803CEC313CE13D8F9F0EE900132F09051
:104C71000134E0FEA3E07802CEC313CE13D8F9F0DD
:104C8100EE900134F0900136E0FEA3E07803CEC34C
:104C910013CE13D8F9F0EE900136F0900134E0FE16
:104CA100A3E07805C333CE33CED8F9FDAC0690012D
:104CB10033E033333354F84CFEEDFF900136E04ED0
:104CC100FCA3E04FFDEB25E0FFEA33FE900124E079
:104CD100FBA3E0FAA3E0F98F828E83EC8DF0123210
:104CE100C2900139E004F07006900138E004F0024E
:024CF1004BBEB8
:014CF300229E
:106082009001BAEEF0A3EFF0A3ECF0A3EDF0A3EAD7
:04609200F0A3EBF09C
:106096009001C6E0FCA3E0FDA3E0FEA3E0FF9001B3
:1060A600201234469001CEE0F9A3E0FAA3E0900175
:1060B60024C9F0A3EAF0A3E9F09001BEE0FFA3E053
:1060C600900127CFF0A3EFF09001C2E0FCA3E0FD22
:1060D600A3E0FEA3E0FF124B0BE49001CAF0A3F08D
:1060E6009001BEE0FEA3E0FFC39001CBE09F9001CC
:1060F600CAE09E400302618DE49001CCF0A3F090CB
:1061060001C0E0FEA3E0FFC39001CDE09F9001CC6B
:10611600E09E505F9001CAE0FAA3E0FB9001BBE06D
:106126002BFF9001BAE03AFEC006C0079001CCE012
:10613600FEA3E0FF9001BDE02FFD9001BCE03EFC18
:10614600EB25E0FFEA33FE9001CEE0FBA3E0FAA3E5
:10615600E0F98F828E8312328AFBAAF0D007D0062E
:106166001273549001CDE004F070949001CCE004D9
:10617600F0808C9001CBE004F060030260E69001B1
:07618600CAE004F00260E62C
:01618D0022EF
:106A680090032BEEF0A3EFF0A3ECF0A3EDF0A3EA74
:106A7800F0A3EBF0C007900333E0FFA3E0900376A8
:106A8800CFF0A3EFF0D00712710A900331E0FEA314
:106A9800E0FF90032EE02FFF90032DE03ECF24FF70
:106AA800FDEF34FFFC90032FE0FAA3E0FB900333E3
:106AB800E0FFA3E0900376CFF0A3EFF090032BE084
:106AC800FEA3E0FF12710A90032DE0FCA3E0FD9005
:106AD8000331E0FAA3E0FBA3E0FFA3E090036ECF4D
:106AE800F0A3EFF090032B126D5590032FE0FEA357
:106AF800E0FF90032CE02FFF90032BE03ECF24FF14
:106B0800CF34FFFEC00790032DE0FCA3E0FD900307
:106B180031E0FAA3E0FBA3E0FFA3E090036ECFF01F
:086B2800A3EFF0D007026D5A43
:101C1900900269EEF0A3EFF0A3ECF0A3EDF0A3EAD4
:041C2900F0A3EBF049
:101C2D00E4900277F0A3F090026FE0FEA3E030E0C5
:101C3D000A2401FFE43E900277800B90026FE0FFD3
:101C4D00A3E0900277CFF0A3EFF0900272E0900244
:101C5D00717003021E78E0F975F002A4FFC39002C3
:101C6D006EE09FFB90026DE095F0FAE9FF90026A3D
:101C7D00E02FFF900269E03400FEC00790026BE098
:101C8D00FCA3E0FD900277E0C313FFA3E0139003E4
:101C9D003BCFF0A3EFF0900273E0FFA3E090033D84
:101CAD00CFF0A3EFF0D007126F0C900271E0F97531
:101CBD00F002A4FFC390026EE09FFB90026DE095D1
:101CCD00F0FAE9FF90026AE02FFF900269E034001C
:101CDD00FEC006C007900277E0C313FEA3E013FF1A
:101CED0090026CE02FFD90026BE03EFC900277E0DD
:101CFD00C313FFA3E01390033BCFF0A3EFF09002CB
:101D0D0075E0FFA3E090033DCFF0A3EFF0D007D037
:101D1D0006126F0C900271E0F9FB7A0090026CE0F4
:101D2D002BFD90026BE03AFC900277E0C313FEA30B
:101D3D00E013FFE9F582C3EF9582FFEE9400900367
:101D4D003BF0A3EFF0900273126EF8900277E0C3B0
:101D5D0013FEA3E013FF90026CE02FFD90026BE0E9
:101D6D003EFC900271E0F9FB7A00900277E0C3131C
:101D7D00FEA3E013FFE9F582C3EF9582FFEE940019
:101D8D0090033BF0A3EFF0900275126EF890026D88
:101D9D00E0FEA3E0FF90026AE02FFF900269E03EB3
:101DAD00FE900271E0F9FD7C00C3EF9DFFEE9CFEFD
:101DBD00C006C00790026CE02DFD90026BE03CFC6C
:101DCD00E9FB7A00900277E0C313FEA3E013FFE96D
:101DDD00F582C3EF9582FFEE940090033BF0A3EFE5
:101DED00F0900273E0FFA3E090033DCFF0A3EFF07E
:101DFD00D007D006126F0C90026DE0FEA3E0FF90AD
:101E0D00026AE02FFF900269E03EFE900271E0F958
:101E1D00FB7A00C3EF9BFFEE9AFEC006C00790024F
:101E2D0077E0C313FEA3E013FF90026CE02FFD904B
:101E3D00026BE03EFC900277E0C313FEA3E013FFBC
:101E4D00E9F582C3EF9582FFEE940090033BF0A37A
:101E5D00EFF0900275E0FFA3E090033DCFF0A3EF0C
:101E6D00F0D007D006126F0C02202BE0F975F002AE
:101E7D00A4FFC390026EE09FFB90026DE095F0FA17
:101E8D00C003E9FF90026AE02FFF900269E0340081
:101E9D00FE90026BE0FCA3E0FD900273E0FBA3E07B
:101EAD00900376CBF0A3EBF0D00312710A90027180
:101EBD00E0F975F002A4FFC390026EE09FFB900263
:101ECD006DE095F0FAC002C003E9FF90026AE02FC1
:101EDD00FF900269E03400FE900277E0FCA3E0FD84
:101EED0090026BE0FAA3E02DFDEA3CCD24FFCD344A
:101EFD00FFFC900275E0FBA3E0900376CBF0A3EB23
:101F0D00F0D003D00212710A900271E0FB7A0090BA
:101F1D00026CE02BFD90026BE03AFC900277E0C37F
:101F2D0013FEA3E013C39BFBEE9A900273126D4553
:101F3D00900277E0FAA3E0FBEAC313FEEB13FF90E8
:101F4D00026CE02FFD90026BE03EFCEAC313FEEB4A
:101F5D0013FF900271E0FBC3EF9BFBEE9400900228
:101F6D0075126D4590026DE0FEA3E0FF90026AE0F0
:101F7D002FFF900269E03ECF24FFCF34FFFEC00655
:101F8D00C007900271E0FB7A0090026CE02BFD908F
:101F9D00026BE03AFC900277E0C313FEA3E013C39B
:101FAD009BFBEE9AFA900273E0FFA3E090036ECFD5
:101FBD00F0A3EFF0D007D006126D5A90026DE0FE3F
:101FCD00A3E0FF90026AE02FFF900269E03ECF246C
:101FDD00FFCF34FFFEC006C007900277E0FAA3E002
:101FED00FBEAC313FEEB13FF90026CE02FFD900292
:101FFD006BE03EFCEAC313FEEB13FF900271E0FBB6
:10200D00C3EF9BFBEE9400FA900275E0FFA3E09006
:10201D00036ECFF0A3EFF0D007D006126D5A9002E9
:10202D006BE0FCA3E0FD900271E0F9FF7E009002F1
:10203D0069E0FAA3E02FFBEE3AFAA3E0F8A3E02F54
:10204D00FFEE38900176F0A3EFF0E9FF900269E022
:10205D00F8A3E02FFFEE38900178F0A3EFF0E9FF41
:10206D0090026BE0F8A3E02FFFEE3890017AF0A319
:10207D00EFF0E9FFA3EEF0A3EFF0900273124ECC58
:10208D00900277E0FEA3E0FF90026CE02FFF90023C
:10209D006BE03EFE900271E0F9FB7A00C3EF9BFD11
:1020AD00EE9AFC900269E0FEA3E02BFBEA3EFA906B
:1020BD000277E0FEA3E0FF90026BE0F8A3E02FFFB4
:1020CD00E83ECF24FFCF34FF900176F0A3EFF0E987
:1020DD00FF7E00900269E0F8A3E02FFFEE3890013B
:1020ED0078F0A3EFF0900277E0FEA3E0FF90026B93
:1020FD00E0F8A3E02FFFE83EFEE9F582C3EF9582FD
:10210D00FFEE9400CF24FFCF34FF90017AF0A3EFC0
:10211D00F0E9FFA3E4F0A3EFF0900275124ECC901E
:10212D00026DE0FEA3E0FF90026AE02FFB900269D2
:10213D00E03EFA900271E0F9FFC3EB9FFFEA9400D5
:10214D00FEC006C00790026BE0FCA3E0FDE9FF7E38
:10215D000090026BE0F8A3E02FFFEE38900176F0CF
:10216D00A3EFF090026DE0FEA3E0FF900269E0F8AE
:10217D00A3E02FFFE83EFEE9F582C3EF9582FFEE67
:10218D009400CF24FFCF34FF900178F0A3EFF0E956
:10219D00FF7E0090026BE0F8A3E02FFFEE38900178
:1021AD007AF0A3EFF0E9FFA3EEF0A3EFF090027346
:1021BD00E0FFA3E090017ECFF0A3EFF0900272E07C
:1021CD00900180F0D007D006124EE890026DE0FE2F
:1021DD00A3E0FF90026AE02FFF900269E03EFE90BF
:1021ED000271E0F9FDC3EF9DFFEE9400FEC006C045
:1021FD0007900277E0FEA3E0FF90026CE02FFF90C6
:10220D00026BE03EFEC3EF9DFDEE9400FC90026D6F
:10221D00E0FEA3E0FF900269E0FAA3E02FFBEA3EA7
:10222D00FA900277E0FEA3E0FF90026BE0F8A3E0E6
:10223D002FFFE83ECF24FFCF34FF900176F0A3EFC0
:10224D00F090026DE0FEA3E0FF900269E0F8A3E0DC
:10225D002FFFE83EFEE9F582C3EF9582FFEE940075
:10226D00CF24FFCF34FF900178F0A3EFF0900277E9
:10227D00E0FEA3E0FF90026BE0F8A3E02FFFE83E45
:10228D00FEE9F582C3EF9582FFEE9400CF24FFCFD8
:10229D0034FF90017AF0A3EFF0E9FFA3E4F0A3EF90
:1022AD00F0900275E0FFA3E090017ECFF0A3EFF078
:0F22BD00900272E0900180F0D007D006024EE848
:106EF800E0FFA3E090033DCFF0A3EFF0900269E03C
:046F0800FEA3E0FF05
:106F0C00900335EEF0A3EFF0A3ECF0A3EDF0EB4A19
:106F1C00606390033BE07002A3E06059900337E09C
:106F2C00FCA3E0FDAE02AF03900335E0FAA3E02F23
:106F3C00FFEA3ECF24FFFBEF34FFFA90033BE0FE69
:106F4C00A3E0FF900337E0F8A3E02FFFE83ECF2447
:106F5C00FFCF34FF9002F0F0A3EFF090033DE0FF81
:106F6C00A3E09002F2CFF0A3EFF0900335E0FEA384
:066F7C00E0FF1268C922CB
:102A9A009001A2EEF0A3EFF0A3ECF0A3EDF0A3EA0D
:042AAA00F0A3EBF0BA
:102AAE009001A6E0FEA3E0FF7C027DC3123483E416
:102ABE007BE87A03F9F812337AEF2401FFE43EFE45
:102ACE00E43DFDE43CFC9001AE1234469001A6E0DC
:102ADE00FEA3E0FF9001A6E0FCA3E0FD123483C04C
:102AEE0004C005C006C0079001A6E0FEA3E0FFE407
:102AFE00FCFD7B02FAF9F812337AD003D002D00132
:102B0E00D000EB2FFFEA3EFEE93DFDE83CFC9001D4
:102B1E00B21234469001A6E0FAA3E0FBFFAE02E447
:102B2E00FCFD9001B6123446C39001A3E09BFF90CA
:102B3E0001A2E09AFEC0079001A4E0FCA3E0FD9084
:102B4E0001A7E025E0FB9001A6E033FA9001A8E092
:102B5E00FFA3E0900376CFF0A3EFF0D00712710A37
:102B6E009001AA123452000000019001AEE0FCA3C5
:102B7E00E0FDA3E0FEA3E0FF9001AAE0F8A3E0F9D8
:102B8E00A3E0FAA3E0FBD31234224003022E3990C5
:102B9E0001B6E0FCA3E0FDA3E0FEA3E0FFA804A9BC
:102BAE0005AA06FB1232EFC004C005C006C007908E
:102BBE0001AAE0FCA3E0FDA3E0FEA3E0FFA804A9A8
:102BCE0005AA06FB1232EFD003D002D001D000EFDF
:102BDE002BFFEE3AFEED39FDEC38FC9001B2E0F839
:102BEE00A3E0F9A3E0FAA3E0FBC3123422400302F0
:102BFE002D429001AEE0FCA3E0FDA3E0FEA3E0FFBA
:102C0E009001B6E0F8A3E0F9A3E0FAA3E0FB1234DA
:102C1E00225003022D209001AAA3A3E0FEA3E0FF01
:102C2E009001A3E09FFF9001A2E09ECF2401CF343C
:102C3E0000FEC006C0079001B6A3A3E0FEA3E0FF0E
:102C4E009001A5E02FFD9001A4E03EFCC004C0055C
:102C5E009001AAE0FCA3E0FDA3E0FEA3E024FFFFA9
:102C6E00EE34FFFEED34FFFDEC34FFFCE47B02FAA4
:102C7E00F9F81232EFAB07AA069001A8E0FFA3E025
:102C8E00900376CFF0A3EFF0D005D004D007D00696
:102C9E0012710A9001AAA3A3E0FEA3E0FFC3900164
:102CAE00A3E09FFF9001A2E09ECF2401CF3400FE4F
:102CBE00C006C0079001B6A3A3E0FEA3E0FFC39039
:102CCE0001A5E09FFD9001A4E09EFCC004C005900C
:102CDE0001AAE0FCA3E0FDA3E0FEA3E024FFFFEECB
:102CEE0034FFFEED34FFFDEC34FFFCE47B02FAF919
:102CFE00F81232EFAB07AA069001A8E0FFA3E0900E
:102D0E000376CFF0A3EFF0D005D004D007D0061293
:102D1E00710A9001B6E0FCA3E0FDA3E0FEA3E0245F
:102D2E00FFFFEE34FFFEED34FFFDEC34FFFC9001AF
:102D3E00B61234469001B6A3A3E0FEA3E0FFC39003
:102D4E0001A3E09FFF9001A2E09EFEC006C0079087
:102D5E0001AAA3A3E0FEA3E0FF9001A5E02FFD9042
:102D6E0001A4E03EFCC004C005E47F02FEFDFC9021
:102D7E0001B6E0F8A3E0F9A3E0FAA3E0FB1232EF0C
:102D8E00AB07AA069001A8E0FFA3E0900376CFF070
:102D9E00A3EFF0D005D004D007D00612710A90012F
:102DAE00B6A3A3E0FEA3E0FFC39001A3E09FFF90B4
:102DBE0001A2E09EFEC006C0079001AAA3A3E0FEFA
:102DCE00A3E0FFC39001A5E09FFD9001A4E09EFC4F
:102DDE00C004C005E47F02FEFDFC9001B6E0F8A33E
:102DEE00E0F9A3E0FAA3E0FB1232EFAB07AA0690DC
:102DFE0001A8E0FFA3E0900376CFF0A3EFF0D0059B
:102E0E00D004D007D00612710A9001AAE0FCA3E00C
:102E1E00FDA3E0FEA3E02401FFE43EFEE43DFDE45D
:0B2E2E003CFC9001AA123446022B78F5
:012E39002276
:106B3000900281F0A3EFF090022EE0FEA3E0FF9020
:106B4000022CE0F8A3E02FFFE83E900283F0A3EFD1
:106B5000F0900232E0FFA3E0900285CFF0A3EFF0C7
:086B6000900222E0FEA3E0FF19
:0E6B6800900279EEF0A3EFF0A3ECF0A3EDF0B5
:106B7600900281E0FCA3E0FDD39BEC9A506C90025E
:106B860079E0FEA3E0FFC3ED9FEC9E405D90027F9F
:106B9600E0FEA3E0FF900283E0FCA3E0FDD39FECC0
:106BA6009E504790027BE0FEA3E0FFC3ED9FEC9E64
:106BB6004038900309E0FFA3E0900287CFF0A3EFEF
:106BC600F0900285E0FFA3E0900309CFF0A3EFF079
:106BD600900281E0FEA3E0FF1273F0900287E0FFCF
:0A6BE600A3E0900309CFF0A3EFF045
:016BF0002282
:1034F600E0FFA3E0900230CFF0A3EFF090017EE072
:10350600FFA3E0900232CFF0A3EFF0900170E0FE4F
:03351600A3E0FF30
:10351900900222EEF0A3EFF0A3ECF0A3EDF0A3EA02
:10352900F0A3EBF0C006C007A3E0FFA3E090027F81
:10353900CFF0A3EFF090022EE0FEA3E0FF90022A65
:10354900E0F8A3E02FFFE83E900281F0A3EFF090AE
:103559000230E0FEA3E0FF90022CE0F8A3E0C39F55
:10356900FFE89E900283F0A3EFF0900232E0FFA300
:10357900E0900285CFF0A3EFF0D007D006126B6878
:10358900900224E0FCA3E0FDA3E0FAA3E0FBA3E0A2
:10359900FFA3E090027FCFF0A3EFF0900230E0FEAE
:1035A900A3E0FF90022AE0F8A3E02FFFE83E900293
:1035B90081F0A3EFF090022EE0FEA3E0FF90022C31
:1035C900E0F8A3E0C39FFFE89E126B4A900224E053
:1035D900FCA3E0FDA3E0FAA3E0FBA3E0FFA3E090D6
:1035E900027FCFF0A3EFF0900230E0FEA3E0FF905E
:1035F900022AE0F8A3E02FFFE83E126B3090022484
:10360900E0FCA3E0FDA3E0FAA3E0FBA3E0FFA3E055
:1036190090027FCFF0A3EFF090022EE0FEA3E0FF2F
:1036290090022AE0F8A3E02FFFE83E900281F0A380
:10363900EFF0900230126B3A900224E0FCA3E0FD17
:10364900A3E0FAA3E0FBA3E0FFA3E090027FCFF0A1
:10365900A3EFF090022EE0FEA3E0FF90022AE0F82B
:10366900A3E0C39FFFE89E900281F0A3EFF09002D0
:1036790030126B3A900224E0FCA3E0FDA3E0FAA328
:10368900E0FBA3E0FFA3E090027FCFF0A3EFF0906F
:103699000230E0FEA3E0FF90022AE0F8A3E0C39F16
:1036A900FFE89E126B30900224E0FCA3E0FDA3E04A
:1036B900FAA3E0FBA3E0FFA3E090027FCFF0A3EF22
:1036C900F0900230E0FEA3E0FF90022AE0F8A3E0C8
:1036D900C39FFFE89E900281F0A3EFF090022EE0D5
:1036E900FEA3E0FF90022CE0F8A3E0C39FFFE89E51
:1036F900126B4A900224E0FCA3E0FDA3E0FAA3E0E8
:10370900FBA3E0FFA3E090027FCFF0A3EFF09002CC
:103719002EE0FEA3E0FF90022AE0F8A3E0C39FFF9A
:10372900E89E900281F0A3EFF0900230E0FEA3E062
:10373900FF90022CE0F8A3E0C39FFFE89E9002836C
:10374900F0A3EFF0900232E0FFA3E0900285CFF002
:0E375900A3EFF0900222E0FEA3E0FF026B68F7
:104ECC00E0FFA3E090017ECFF0A3EFF0900272E040
:0C4EDC00900180F0900269E0FEA3E0FF6E
:104EE800900170EEF0A3EFF0A3ECF0A3EDF0A3EACD
:044EF800F0A3EBF048
:104EFC00E4900181F0A3F090017CE0FEA3E0FF9030
:104F0C000183EEF0A3EFF025E0FFEE33FEC3740354
:104F1C009F900188F0E49E900187F0900183E0FE61
