:107BF4004D756C74694564697420546573740053DD
:0D7C0400656E64204D6573736167653A001D
:10781F004200620000603B006448656C6C6F20653D
:10782F00766572796F6E652C4920616D204D7559A3
:10783F00692C49276D20766572792068617070799F
:10784F0020746F206C6561726E207769746820797F
:04785F006F752E0013
:10475300900006EAF0A3EBF0900002EEF0A3EFF076
:10476300A3ECF0A3EDF0900008E0FAA3E0FB9000C7
:104773001274A5F0A37435F0127316900002E0FED4
:10478300A3E0FFA3E0FCA3E0FDA3E0FAA3E0FB901A
:10479300001274A5F0A37435F01276C6900003E0FE
:1047A3002401FF900002E03400FE900005E02401A4
:1047B300FD900004E03400FC900009E024FEFB902F
:1047C3000008E034FFFA9000127484F0A37431F00F
:1047D300127316900003E02401FF900002E03400FE
:1047E300FE900005E02401FD900004E03400FC90FD
:1047F3000007E024FEFB900006E034FFFA9000126D
:104803007484F0A37431F01276C6900006E0FEA320
:10481300E0FF900003E02FFF900002E03ECF24FF73
:10482300CF34FFFE900004E0FCA3E0FD900008E01D
:10483300FAA3E0FB74FF900012F0A3F0127316903A
:104843000002E0FEA3E0FF900008E0FCA3E0FD907F
:104853000005E02DFD900004E03CCD24FFCD34FFA6
:10486300FC900006E0FAA3E0FB74FF900012F0A3B3
:10487300F01276C6900006E0FEA3E0FF900003E08E
:104883002FFF900002E03ECF24FECF34FFFE9000C6
:1048930005E02401FD900004E03400FC900009E0F1
:1048A30024FEFB900008E034FFFA90001274DEF05F
:1048B300A374FCF0127316900003E02401FF900030
:1048C30002E03400FE900008E0FCA3E0FD90000548
:1048D300E02DFD900004E03CCD24FECD34FFFC90A0
:1048E3000007E024FEFB900006E034FFFA9000127C
:1048F30074DEF0A374FCF01276C6900003E0240289
:10490300FF900002E03400FEC006C007900005E0FF
:104913002402FD900004E03400FC900007E024FD35
:10492300FB900006E034FFFA900008E0FEA3E024C9
:10493300FDFFEE34FF900012F0A3EFF090000AE0C9
:10494300FFA3E0900014CFF0A3EFF0D007D006024E
:0249530074C826
:1070FA00900002EEF0A3EFF0A3ECF0A3EDF0A3EA08
:04710A00F0A3EBF013
:10710E00900362E0FFA3E0900062CFF0A3EFF09057
:10711E00000EE0FFA3E0900362CFF0A3EFF090002B
:10712E000AE0FEA3E0FF900003E02FFF900002E0D4
:10713E003EFE90000CE0FCA3E0FD900005E02DFD6E
:10714E00900004E03CFC900008E0FBA3E090001CE3
:10715E00CBF0A3EBF0900010E0FBA3E090001ECB71
:10716E00F0A3EBF0900012E0900020F0900013E0FE
:10717E00F9A3E0FAA3E0900021C9F0A3EAF0A3E995
:10718E00F0E4A3F0900006E0FAA3E0FB124537907E
:0E719E000062E0FFA3E0900362CFF0A3EFF0E9
:0171AC0022C0
:106A6B00E4900000F0A3F090036074F8F0A3E4F05E
:106A7B0090035BE0FFA3E0900008CFF0A3EFF0A33F
:106A8B007410F0A374FFF0A3747BF0A374F4F09074
:106A9B000359E0FAA3E0FB7D0A7C007F0A7E00121B
:106AAB0069869003607407F0A374E0F090035BE0D9
:106ABB00FFA3E0900008CFF0A3EFF0A37410F0A3B6
:106ACB0074FFF0A3747CF0A37403F0900359E0FA05
:106ADB00A3E0FB7D327C007F0A7E0012698690006A
:106AEB0008E4F0A37464F074FFA3F0A3F07B967A30
:106AFB00007D467C007F0A7E00124753900008E41D
:106B0B00F0A37464F0A3E4F0A37405F0A3E4F0A382
:106B1B007404F074FFA3F0A3F0A3E4F0A3741FF0CC
:106B2B00A37410F0A37401F0A37400F0A37464F0C9
:106B3B007B967A007D467C007F0A7E001270FA807D
:016B4B00FE4B
:0B7C7B00127C2E123E82126A6B80FE0B
:0B7C8600EF1FAC0670011E4C70F622D0
:107BD600D3EF9400EE940040147D6E7C00ED1D7092
:0D7BE600011CED4C70F7EF1F70E61E80E3F0
:017BF300226F
:057863004200D100000D
:107C2E00759850758920758780758DFA858D8BD2E4
:067C3E00AFD28ED29922A4
:067C9C00EF24FF92AC2270
:0E7C6D00C2ACC2998F993099FDC299D2AC2257
:107ADD009003D6EBF0A3EAF0A3E9F09003D6E0FB18
:107AED00A3E0FAA3E0F912319FFF6016127C6D7FBF
:107AFD00057E00127C869003D7E475F00112325E8C
:037B0D0080D922FA
:0300230002753E25
:10753E00C0E0C083C082C0D075D000C004C005C0FA
:01754E000735
:10754F00309864C298AF999000D1E0FCEC20E757D7
:10755F0030E60FEF640A9000D160028046E044806D
:10756F00800AEFB40D0C9000D1E04440F0A3E0F09E
:10757F0080359000D1E0543FFCA3E0249FF5827446
:10758F00003CF583EFF09000D2E004F0700690001D
:10759F00D1E004F0D39000D2E094319000D1E09488
:0775AF00004004E4F0A3F02A
:0F75B600D007D005D004D0D0D082D083D0E0321F
:10002600204C43442049443A25780D0A000000003C
:10003600000000000000000000000000003F40003B
:1000460000000000000000300040003000400000CA
:100056000009000BC03D000BC03D00090018C0247C
:10006600407FE0224031800000180024C01B000DB4
:10007600803240018003801C4027401C80074000DE
:1000860040100060000000000000000000000000BA
:100096000000001F80204040200000402020401F1C
:1000A6008000000000090006001F8006000900000D
:1000B60000040004003F800400040000000010005B
:1000C60060000000000000000004000400040004BA
:1000D60000040000000000004000000000000000D6
:1000E60000002001C006003800400000001F8020EC
:1000F60040204020401F800000000010403FC0000C
:10010600400000000018C021402240244018400052
:100116000010802040244024401B80000002000D77
:100126000011003FC0014000003C802440244024D0
:1001360040238000001F8024402440344003800078
:10014600003000200027C03800200000001B80245B
:1001560040244024401B8000001C0022C022402274
:10016600401F800000000000000840000000000062
:100176000000000000046000000000000000000411
:10018600000A00110020804040090009000900090A
:10019600000900000000004040208011000A000411
:1001A600001800200023402400180000001F8020B3
:1001B60040274029401F400000004007C039000F7B
:1001C6000001C0004020403FC0244024401B800066
:1001D600001F802040204020403080000020403F0B
:1001E600C0204020401F80000020403FC024402EF9
:1001F6004030C0000020403FC024402E00300000A8
:10020600000F001080204022403380020020403F33
:10021600C0040004003FC02040204020403FC020D2
:1002260040204000000060202020203FC020002009
:100236000020403FC024400B0030C0204020403FFB
:10024600C020400040004000C03FC03C0003C03C0E
:10025600003FC0000020403FC00C4023003FC020AC
:10026600001F802040204020401F80000020403F8B
:10027600C024402400180000001F80214021402097
:10028600E01FA0000020403FC02440260019C00007
:100296004018C02440244022403180000030002015
:1002A600403FC020403000000020003F800040005A
:1002B600403F80200020003E0001C007003800209B
:1002C60000380007C03C0007C03800000020403955
:1002D600C0060039C0204000002000384007C03862
:1002E6004020000000304021C02640384020C00099
:1002F60000000000007FE040204020000000007069
:10030600000C000380004000000000402040207FD9
:10031600E000000000000020004000200000000077
:100326000000100010001000100010001000000067
:1003360000400000000000000000000280054005AB
:100346004003C0004020003FC0044004400380003A
:100356000000000380044004400640000000000343
:1003660080044024403FC000400000038005400553
:100376004003400000000004401FC02440244020E9
:1003860000000002E0055005500650042020403FC2
:10039600C00440040003C000400000044027C00021
:1003A600400000000000100010041027E0000000CC
:1003B6000020403FC00140070004C0044020402008
:1003C600403FC000400040000007C0040007C004D2
:1003D6000003C00000044007C00440040003C0003E
:1003E600400000038004400440038000000410071E
:1003F600F004500440038000000000038004400421
:100406005007F00010044007C0024004000400003A
:1004160000000006400540054004C000000000043E
:10042600001F8004400040000004000780004004D4
:100436004007C000400400070004C0018006000415
:1004460000060001C0070001C006000000044006C7
:10045600C0010006C0044000000410071004E001BB
:1004660080060004000000044005C0064004400069
:10047600000000000004007BE040200000000000B7
:10048600000000FFF000000000000040207BE004B8
:1004960000000000004000800040002000200040D6
:1004A6000000000000000000000000000000000046
:1004B600000000000000001FCC000C00000000003F
:1004C60000000008003000600008003000600000F6
:1004D60000022003FC1E20022003FC1E2002200036
:1004E6000000000E1811043FFF10840C7800000075
:1004F600000F0010840F3800C007781884007800B9
:100506000000780F8410C411240E9800E4008400C3
:1005160008080068007000000000000000000000ED
:100526000000000000000007E01818200440020048
:1005360000000040022004181807E0000000000038
:10054600000240024001800FF0018002400240009C
:10055600000080008000800FF8008000800080008E
:10056600000001000D000E00000000000000000069
:100576000000000080008000800080008000800075
:10058600800000000C000C000000000000000000CD
:100596000000000006001800600180060018002018
:1005A60000000007F0080810041004080807F0000F
:1005B600000000080408041FFC00040004000000FA
:1005C6000000000E0C10141024104411840E0C00B0
:1005D6000000000C1810041104110412880C70009D
:1005E60000000000E00320042408241FFC0024006F
:1005F6000000001F98108411041104108810700068
:1006060000000007F0088811041104188800700023
:100616000000001C00100010FC13001C001000005D
:100626000000000E3811441084108411440E380066
:100636000000000700088C10441044088807F000EA
:1006460000000000000000030C030C000000000086
:10065600000000000000010106000000000000008C
:100666000000000080014002200410080810040069
:100676000002200220022002200220022002200086
:100686000000001004080804100220014000800049
:100696000000000E001200100C106C10800F0000FD
:1006A6000003E00C1813E4142417C4082807D0002C
:1006B600000004003C03C41C40074000E4001C008A
:1006C6000410041FFC1104110411040E88007000AC
:1006D6000003E00C1810041004100410081C10008D
:1006E6000010041FFC100410041004080807F00092
:1006F6000010041FFC1104110417C410040818008C
:100706000010041FFC1104110017C010000800009F
:100716000003E00C181004100410441C780040007C
:100726000010041FFC10840080008010841FFC1041
:10073600040000100410041FFC1004100400000044
:100746000000030001100110011FFE100010000040
:100756000010041FFC110403801464181C1004000C
:100766000010041FFC1004000400040004000C0028
:100776000010041FFC1F0000FC1F001FFC100400DB
:100786000010041FFC0C04030000E010181FFC10EE
:100796000007F00808100410041004080807F00009
:1007A6000010041FFC10841080108010800F0000C1
:1007B6000007F0081810241024101C080A07F2007D
:1007C6000010041FFC1104110011C011300E0C00A2
:1007D6000400000E1C11041084108410441C380000
:1007E600001800100010041FFC1004100018000070
:1007F6000010001FF810040004000410041FF81075
:100806000010001E0011E0001C007013801C001078
:10081600001FC0103C00E01F0000E0103C1FC0009D
:10082600001004180C163401C001C01634180C1040
:100836000410001C00130400FC13041C001000002C
:10084600000804101C1064108413041C0410180003
:10085600000000000000007FFE400240024002004F
:1008660000000030000C0003800060001C00030044
:100876000000004002400240027FFE00000000002F
:100886000000000000200040004000400020000062
:10089600000001000100010001000100010001004B
:1008A60001000040004000200000000000000000A1
:1008B6000000000098012401440144014400FC00AA
:1008C6000410001FFC008801040104008800700069
:1008D6000000000070008801040104010400880083
:1008E600000000007000880104010411081FFC00CC
:1008F60004000000F8014401440144014400C8001A
:10090600000000010401040FFC1104110411001879
:1009160000000000D601290129012901C9010600AC
:100926000010041FFC008401000100010400FC000B
:100936000400000104190419FC000400040000006E
:10094600000000000300010101190119FE0000006A
:100956000010041FFC0024004001B4010C01040037
:10096600000000100410041FFC0004000400000036
:1009760000010401FC0104010001FC010401000066
:10098600FC010401FC008401000100010400FC00DC
:1009960004000000F8010401040104010400F80049
:1009A60000010101FF0085010401040088007000B8
:1009B6000000000070008801040104010501FF0029
:1009C600010104010401FC0084010401000180000E
:1009D60000000000CC012401240124012401980018
:1009E6000000000100010007F801040104000000F6
:1009F60000010001F8000400040004010801FC00E5
:100A060004010001800170000C00100160018001EA
:100A16000001F0010C003001C00030010C01F001B2
:100A26000000000104018C00740170018C010400B7
:100A360000010101810171000E00180160018001B1
:100A46000000000184010C013401440184010C0002
:100A560000000000000000000001003EFC400240D3
:100A6600020000000000000000FFFF000000000080
:100A7600000000400240023EFC01000000000000B1
:100A86000000006000800080004000400020002040
:100A96000000000000000000000000000000000050
:100AA6000000000000000000000000000000000040
:100AB6000000000000000000000000000000000030
:100AC600000000000F80380FFE380F80380000004D
:100AD600000000000000000000000000000000010F
:100AE60000000600000C000038000031000006007F
:100AF600000C00003800003000000000000000007C
:100B06000061800067F807F980006180006180005D
:100B160061800061800067F807F98000618000004D
:100B26000000000000000001C0E003E0F00630080D
:100B36000418081FFFFE040E080787F00381E00073
:100B4600000000000001F000060C00040408060C7A
:100B56007001F9C0000E00003BE000EC1807080821
:100B6600040C180003E00000000001E00007F00399
:100B7600F818041C0804170807E1D003C0E0002396
:100B8600B0003C0800200800001000000000000033
:100B96000100003100003200001C000000000000CF
:100BA600000000000000000000000000000000003F
:100BB600000000000000000000000000000000002F
:100BC600007F0001FFC00780F00C00181000042011
:100BD60000020000000000002000021000040C00CB
:100BE600180780F001FFC0007F0000000000000031
:100BF60000000000000000000000000000420000AD
:100C06006600006600003C0000180003FFC00018E4
:100C160000003C0000660000660000420000000084
:100C26000008000008000008000008000008000195
:100C3600FFC00008000008000008000008000008C7
:100C46000000000000000100003100003200001C1E
:100C5600000000000000000000000000000000008E
:100C66000000000000000000000800000800000866
:100C76000000080000080000080000080000080046
:100C8600000800000800000000000000000000004E
:100C960000380000380000380000000000000000A6
:100CA600000000000000000000000000000000003E
:100CB60000000600001C000070000180000E00000D
:100CC600380000C0000700001C00003000000000D3
:100CD60000000000007F8001FFE00380700600181E
:100CE60004000804000806001803807001FFE000F5
:100CF6007F800000000000000000000100080100E5
:100D06000801000803FFF807FFF8000008000008C4
:100D160000000800000000000000000001C03802CA
:100D2600C058040098040118040218040418061C8C
:100D36001803F81801E0F8000000000000000000A9
:100D460001C0E003C0F0040008040808040808060F
:100D5600180803F41801E7F00001E00000000000A5
:100D660000000000000300000D00001100006100FB
:100D760000810803010807FFF80FFFF800010800CB
:100D860001080000000000000000E007FCD0060893
:100D960008061008061008061008061838060FF090
:100DA6000607C0000000000000000000003F8001B0
:100DB600FFE0038430020818041008041008041029
:100DC60008071810030FF00007C00000000000001D
:100DD60000000003C0000700000600000600F80639
:100DE60007F806180006E0000700000600000000ED
:100DF6000000000001E1E003F7F0063410041808D3
:100E0600041808040C08040C0806161803F3F0016D
:100E1600C1E000000000000000F80003FC300306FB
:100E2600380402080402080402080404100308F047
:100E360001FFC0007F00000000000000000000006D
:100E460000000000000000000070380070380070DC
:100E56003800000000000000000000000000000054
:100E660000000000000000000000000000301A0032
:100E7600301C000000000000000000000000000020
:100E8600000000000000000008000014000022001E
:100E9600004100008080010040020020040010088C
:100EA60000080000000000000021000021000021D1
:100EB6000000210000210000210000210000210087
:100EC60000210000210000000000000000000008D2
:100ED600000804001002002001004000808000414C
:100EE60000002200001400000800000000000000BE
:100EF60003C00004C000040000080038080F3808CA
:100F060008380810000C300007E00003C00000009D
:100F160000000000003F8000FFE0038070020F1019
:100F260006708804C088048308047F8802C0900382
:100F3600012000FE400000080000180001F8003EF5
:100F46000801C20007020007E20000FE00001FC8F9
:100F56000001F800003800000804000807FFF80741
:100F6600FFF8040808040808040808040808061816
:100F76000803F41801E7F00001E00000000000009B
:100F8600003F8001FFE0038070020018040008049F
:100F960000080400080400100600200780C00000B6
:100FA6000004000807FFF807FFF80400080400081B
:100FB60004000804001802001003807001FFE0001E
:100FC6007F8000000004000807FFF807FFF8040808
:100FD60008040808040808040808043E0804000871
:100FE60006001801006000000004000807FFF8076B
:100FF600FFF8040808040800040800040800043E7A
:10100600000600000600000180000000000000004D
:10101600003F8001FFE0038070060018040008040A
:1010260002080402080203F00783F000020000022F
:101036000004000807FFF807FFF804080800080086
:1010460000080000080000080004080807FFF80769
:10105600FFF8040008000000000000040008040077
:101066000804000807FFF807FFF804000804000852
:101076000400080000000000000000000000060058
:10108600000700000104000104000104000307FF3B
:10109600FE07FFFC04000004000004000004000832
:1010A60007FFF807FFF8040C08001800003E0004CC
:1010B600C7800503C80600F80400380400180000BD
:1010C6000804000807FFF807FFF8040008000008F6
:1010D60000000800000800000800000800001800D2
:1010E600006000000004000807FFF807800807FCFE
:1010F60000007FC00003F80007C0007800078008E2
:1011060007FFF807FFF804000804000807FFF807C0
:10111600000803C00000E000003800001E000007C1
:10112600000001C00400F007FFF804000000000002
:10113600007F8001FFE003807006001804000804A9
:10114600000806001803003001FFE0007F80000061
:101156000004000807FFF807FFF804040804040069
:10116600040400040400040400060C0003F8000153
:10117600F000000000000000007F8001FFE0038017
:10118600700600880400880400C806003C03003E80
:1011960001FFE6007F8400000004000807FFF8074F
:1011A600FFF8040808040800040C00040F00040BF0
:1011B600C00610F003F03801E00800000800000047
:1011C60001E0F803F030063010041808041808048B
:1011D6000C08040C080206180207F00781E000005C
:1011E600000180000600000400000400000400085E
:1011F60007FFF807FFF804000804000004000006D3
:10120600000001800004000007FFE007FFF0040073
:101216001800000800000800000800000800000888
:1012260004001007FFE004000004000006000007A9
:10123600E00007FE00041FE00001F800003800018E
:10124600E0043E0007C000060000040000040000A1
:1012560007E00007FFC0041FF80007C007F80007F3
:10126600FF80043FF80007C004F8000700000400F0
:101276000000000004000806001807C07805F1C841
:10128600003E00001F800463E80780F8060018048B
:10129600000800000004000006000007800007E0C8
:1012A60008047C08001FF80007F800180804E00886
:1012B6000700000600000400000000000100080608
:1012C60000380400F80403E8040F08047C0805F05D
:1012D6000807C008070018040060000000000000AE
:1012E6000000000000000000000000003FFFFE209C
:1012F600000220000220000220000220000200005E
:101306000000000000000008000007000000C00008
:101316000038000006000001C000003000000E008A
:101326000001000000000000000000200002200074
:10133600022000022000022000023FFFFE00000003
:101346000000000000000000000000000000000097
:1013560000000800001000003000002000003000EF
:10136600001000000800000000000000000000015E
:101376000000010000010000010000010000010062
:101386000001000001000001000001000001000052
:101396000100000000000000000020000020000006
:1013A6001000001000000000000000000000000017
:1013B60000000000000000000000F00019F8001B0B
:1013C60018002208002608002408002410003FF810
:1013D600001FF800000800001800000004000007C5
:1013E600FFF80FFFF0001818001008002008002072
:1013F60008003018001FF0000FC0000000000000B9
:101406000007C0001FF00018300020080020080068
:101416002008003C08001C100000600000000000CE
:10142600000000000007C0001FF000381800200868
:1014360000200800200804101007FFF80FFFF00036
:1014460000100000000000000000000007C0001FA0
:10145600F00012300022180022080022080032088C
:10146600001E10000E2000000000000000200000FA
:10147600200800200801FFF803FFF80620080420D2
:1014860008042008072000030000000000000000F8
:1014960000000E000E6E001FF30031B10020B100F7
:1014A60020B1003191001F13002E1E00200E0030C7
:1014B6000000000004000807FFF80FFFF8001008FE
:1014C600002000002000002008003FF8001FF80060
:1014D60000080000000000000000000020080020B6
:1014E60008002008063FF8063FF80000080000083C
:1014F60000000800000000000000000000000000DE
:101506000003000003002001002001002003063F25
:10151600FE063FFC00000000000000000000000086
:1015260004000807FFF80FFFF80001880003000019
:101536002FC00038F80020380020080000080000FE
:101546000000000000000004000804000804000871
:1015560007FFF80FFFF80000080000080000080069
:101566000000000000002008003FF8003FF80010CF
:1015760008002000003FF8003FF800100800200097
:10158600003FF8003FF800000800000000200800B7
:101596003FF8003FF800100800100000200000206F
:1015A60008003FF8001FF8000008000000000000D7
:1015B6000007C0000FF000183000300800200800B7
:1015C6002008003008001830000FF00007C00000A7
:1015D60000000000002001003FFF003FFF00101147
:1015E600002009002008002008003038001FF00005
:1015F6000FC00000000000000007C0001FF0003808
:1016060018002008002008002009001011001FFF04
:10161600003FFF0000010000000020080020080035
:101626002008003FF8003FF80008080010080020D6
:10163600080020000030000030000000000000001C
:10164600000000000C78001E180033080023080074
:1016560021080021880021980030F0003860000041
:101666000000000000200000200000200000FFF025
:1016760003FFF800200800200800200800003000C2
:101686000000000000000000002000003FF0007F86
:10169600F8000018000008000008002010003FF8BD
:1016A600007FF00000100000000000000020000095
:1016B6003000003C00003F800023F000007800006E
:1016C60070002380003C0000300000200000200055
:1016D600003C00003FE00023F80000E00027000087
:1016E6003E00003FE00021F80001E0003E0000203F
:1016F60000000000002008002008003838003E687E
:101706000027800003C8002CF80038380020180095
:101716002008000000000000002000003003003C0C
:1017260001003F830023EC000070002380003C0092
:101736000020000020000000000000000000000063
:1017460038080020380020F80023E8002F88003EE3
:101756000800380800201800007000000000000093
:10176600000000000000000000000000000800006B
:1017760014001FF7FC3000062000020000000000E5
:101786000000000000000000000000000000000053
:10179600000000FFFFFF0000000000000000000046
:1017A60000000000000000000000002000023000E1
:1017B600061FF7FC001400000800000000000000EF
:1017C600000000000000000000000000180000609B
:1017D600000040000040000020000010000008004B
:1017E600000400000400000C0000100000C6D50034
:1017F60000000000E0380000783C00003C78000063
:101806003C70C0001CE1E01FFFFFF0001CE3000E6F
:101816001CE7C0079CE78003DCEF0003DCEE000159
:10182600DCFC60009CF9F07FFFFFF800000000017F
:10183600C00E0001FFFF0001C00E0001C00E000136
:10184600C00E0001FFFE0001C00E0001C00E000127
:10185600C00E0001FFFE0001C00E0001C00E000018
:10186600000000D6D000000000000700000007803E
:101876000000070000000700000007000000070145
:10188600801FFFFFE01FFFFFE01E0701C01E0701CC
:10189600C01E0701C01E0701C01E0701C01E0701AA
:1018A600C01FFFFFC01FFFFFC01E0701C01C0701AE
:1018B6008000070000000700000007000000070086
:1018C60000000700000007000000070000000700F6
:1018D600000007000000000000BFC6000000000076
:1018E600000780003C07C001FC07803FE007803905
:1018F600C1C78001C0E78001C0F78001C0778001C1
:10190600DE77807FFE078001C0078003C3C78003A0
:10191600E1E78003F8F78007FCE7F00FDE67F80FD2
:10192600DC07F81FC0FF801DDFE78039CC07807118
:10193600C0078061C0078001C0078001C007800121
:10194600E0078001E0078001C0070000000000BC3E
:10195600BC000000000380300003C03C0003C03C14
:101966000003C0380003C0380003C0386003F838ED
:10197600F07FFFFFF003C0380003C0380003C03813
:101986000003DC39C003FFFFE007E383C03FC183E8
:10199600C07FC1C3803BC1C78003C0EF0003C0EF57
:1019A6000003C07E0003C07C0003C07C0003C0FEB1
:1019B600003BC3EF803F8787F80FBF03F807780027
:1019C600E000000000C4EA0000000000C0000001C2
:1019D600F0000001E0000003C000C003C001E00702
:1019E600FFFFF00703C0000E03C0001E03C0003C4B
:1019F60003C3007303C78063FFFFC00383C00003F4
:101A060083C0000383C0000383C0000383C0600358
:101A160083C0F07FFFFFF80003C0000003C0000092
:101A260003C0000003C0000003C0000003C00000A4
:101A360003C0000003C00000000000D4C200000084
:101A4600000000000000E0070000FFFF8000F00734
:101A56008000F0070000F0070000F0070000F00724
:101A66000000FFFF0000FFFF0000F0070000F00786
:101A76000000F0070000F0070000E0070000FFFF8D
:101A86000000E0070000E0070000E0070001E007B3
:101A96000001C0070001C00700038007000780F7A8
:101AA600000F007F001E001F0038001C0000000011
:101AB60000C8D5000000000000000003000300037A
:101AC600FFFF8003FFFF80038007000380070003FA
:101AD60080070003800700038007000380070003D8
:101AE6008007000380070003FFFF00038007000351
:101AF60080070003800700038007000380070003B8
:101B060080070003800700038007000380070003A7
:101B1600FFFF000380070003800700038007000320
:101B260000000000000000D0C70000000000000018
:101B3600000380070003FFFF800380070003800780
:101B4600000380070003FFFF0003800700038007F0
:101B56000003FFFF0003FFFF00038707000387C0A2
:101B66000003C7810003C7838007FFFFC007078004
:101B7600000F0780001E0786001C078F003BFFFF33
:101B8600807007800000078000000780E000078162
:101B9600F07FFFFFF80000000000000000C6DA003A
:101BA60000000006000000079E0000079E7FF00769
:101BB6009E7FF0079FF8F03FFFF8F01F9E78F00732
:101BC6009E78F0079E78F007FE7FF0079E78F00774
:101BD6009E78F0079E70F007FE70F0079E70F00783
:101BE6009E7FF0079FFFF03FFFF0F0119070F0032B
:101BF600DCF0F003DEE0F0078FE0F00F0FE0F00E10
:101C060007C0F01C038FF0380F03E0201C01C00052
:031C1600000000CB
:0A786800420360FFFF4203620000CC
:10000300E4FDFCC3ED9FEC9E5014E4FBFA0BBB0034
:0E001300010AEBF44A70F60DBD00010C80E509
:0100210022BC
:087B3E007E00127B46E4FFFE0D
:047B4600AD07AC06D5
:107B4A00ECFFAE05D2A5C2A7D2B2C2A68F90C2A53B
:0C7B5A00D2A5AF068F90C2A5D2A5D2A77D
:017B660022FC
:0D7B10007E00127B4690005AE0FEA3E0FFCD
:047B1D00AD07AC06FE
:107B2100ECFFAE05D2A5C2A7D2B2D2A68F90C2A554
:0C7B3100D2A5AF068F90C2A5D2A5D2A7A6
:017B3D002225
:087B67009003BFE0FEA3E0FF64
:047B6F00AD07AC06AC
:107B7300ECFFAE05D2A5C2A7D2B2D2A68F90C2A502
:0C7B8300D2A5AF068F90C2A5D2A5D2A754
:017B8F0022D3
:067C59007C107F037E0099
:0E7C5F00AB05AA04127B46AE02AF03027B1DEA
:107BB7007590FF7580FFC2A7D2A6C2B200AF90EF43
:0E7BC700FED2B2C2B200AD90EDFFD2B2D2A794
:017BD500228D
:10787300EF7026FD7C057F01FE127C5F7D30127C5C
:107883005990035BE4F0A374DCF0900359E4F0A394
:1078930074B0F0E490035FF0227D007C047F017EEE
:1078A30000127C5F7D38127C5990035BE4F0A37473
:1078B300B0F0900359E4F0A374DCF090035F74011B
:0278C300F022B1
:103E8200D2B37F647E00127BD6C2B37F647E0012FF
:103E92007BD6D2B37F647E00127BD6E4FFFE127B18
:103EA20046127BB790035DEEF0A3EFF07BFF7A0042
:103EB2007926900003EEF0A3EFF0122EA5E4FFFEA8
:103EC200127B467F017E00127B1D7F0A7E00127CE0
:103ED200867F07127B3E7F12127B3E7FA47E0012FA
:103EE2007B467F017E00127B467F0A7E00127C8623
:103EF2007F707E00127B467F007E9B127B1D7F07B8
:103F02007E00127B467F317E00127B1D7F187E0071
:103F1200127B467F017E00127B1D7F107E00127B8A
:103F2200467FB07E11127B1D7F117E00127B467F81
:103F3200077E00127B1D7F127E00127B467F177E5A
:103F420010127B1D7F137E00127B467F0D7E851231
:103F52007B1D7F147E00127B467F007E80127B1DBC
:103F62007F127E00127B467F3C7E10127B1D7F9665
:103F72007E001200037F01127B467F007E05127BCA
:103F82001D7F027E00127B467F007E07127B1D7F13
:103F9200037E00127B467F307E10127B1D7F087EDF
:103FA20000127B467408FFFE127B1D7F0B7E0012FF
:103FB2007B467F007E11127B1D7F0C7E00127B46AA
:103FC200E4FFFE127B1D7F0F7E00127B467F017E87
:103FD20014127B1D7F157E00127B46E4FFFE127BCE
:103FE2001D7F207E00127B46E4FFFE127B1D7F2197
:103FF2007E00127B46E4FFFE127B1D7F507E001284
:104002007B46E4FFFE127B1D7F517E00127B467FC2
:10401200AF7E00127B1D7F527E00127B46E4FFFEC4
:10402200127B1D7F537E00127B467FDB7E00127B5C
:104032001D7F707E00127B467F007E1B127B1D7FE0
:10404200717E00127B46E4FFFE127B1D7F907E0094
:10405200127B46E4FFFE127B1D7F917E00127B469F
:104062007F007E01127B1D7F927E00127B467F01C4
:104072007E00127B1D7F597E00127B467F0C7E05DF
:10408200127B1D7F907E00127B467F107E00127B8A
:104092001D7F927E00127B467F007E06127B1D7F73
:1040A200077E00127B467F337E02127B1D7F327EAB
:1040B200001200037F22127B46E4FF127873900302
:0940C20062E0FEA3E0FF0275C5F7
:05739700E0FEA3E0FF91
:10739C0090005AEEF0A3EFF0A3ECF0A3EDF0900305
:1073AC005FE070357F50FE127B127F517E00127BA6
:1073BC0046AF03AE02127B1D7F527E00127B46A3AA
:1073CC00127B187F537E00127B46900060127B1854
:1073DC007F20127B107F2180327F52127B107F53D3
:1073EC007E00127B46AE02AF03127B1D7F507E00E7
:1073FC00127B46A3127B187F517E00127B469000B5
:10740C0060127B187F21127B107F207E00127B463E
:0C741C00A3127B187F227E00127B462208
:0E6EA200900395EEF0A3EFF0A3ECF0A3EDF05B
:106EB000E4A3F0A304F0A3E4F0A304F0900359E0EA
:106EC000FEA3E0FFC3900396E09F900395E09E50E1
:106ED0001590035BE0FEA3E0FFC3900398E09F9052
:106EE0000397E09E4004E4FEFF22900397E0FCA39A
:106EF000E0FD900395E0FAA3E0FBA3E0FFA3E090A0
:106F00000060CFF0A3EFF0900395127397127BB758
:106F1000AB07AA06127BB7AA06AB07EA13131354F2
:106F20001FFF90039BE4F0A3EFF0EB7805CEC313B3
:106F3000CE13D8F9543FFF900399E4F0A3EFF07C0F
:106F400000EB541FFD900399E0FEA3E07805C333E6
:106F5000CE33CED8F9FBAA06ED33333354F84AFECC
:106F6000EBFF90039BE04EFAA3E04FAC02AE04FFB0
:016F700022FE
:0875C500900000EEF0A3EFF0CE
:1075CD00E4A3F0A3F090035AE024FFFB900359E0ED
:1075DD0034FFFA90035CE024FFFE90035BE034FF80
:1075ED00900060F0A3CEF0E4FDFCFFFE12739CE46E
:1075FD00FAFBD390035AE09B900359E09A4039E48B
:10760D00900002F0A3F090035BE0FEA3E0FFC390B7
:10761D000003E09F900002E09E5016900000127B48
:10762D006A900003E004F070DD900002E004F08049
:08763D00D50BBB00010A80BA65
:017645002222
:106DD200900018ECF0A3EDF0900016EEF0A3EFF0A7
:086DE20090001AEAF0A3EBF0A7
:106DEA00E4900020F0A3F0D3EF9BEE9A4003026EEA
:106DFA00A190001CE0FEA3E0FF900018E0FCA3E0D5
:106E0A00FD9FEC9E4003026EA190001AE0FAA3E0F7
:106E1A00FBA3E0FFA3E0900060CFF0A3EFF09000A7
:106E2A0016127397900016E0FEA3E0FFC390001BB2
:106E3A00E09FFF90001AE09ECF2401CF340090001B
:106E4A0016F0A3EFF0A3E0FEA3E0FFC390001DE05D
:106E5A009FFF90001CE09ECF2401CF3400900018C1
:106E6A00F0A3EFF090001674FFF5F012327445F0BB
:106E7A006025900018E0FFA3E0900020CFF0A3EF78
:106E8A00F090002074FFF5F012327445F060D5904E
:076E9A00001E127B6A80EA72
:016EA10022CE
:0E65B60090025AEEF0A3EFF0A3ECF0A3EDF08C
:1065C40090025AE0FEA3E0FFC3EB9FFFEA9ECF24B4
:1065D40001CF3400900267F0A3EFF090025CE0FE7C
:1065E400A3E0FFC3900261E09FFF900260E09ECFB2
:1065F4002401CF3400900265F0A3EFF090025CE038
:10660400FCA3E0FD900260E0FFA3E0900060CFF007
:10661400A3EFF090025A127397E4900269F0A3F08A
:10662400900265E0FEA3E0FFC390026AE09F90023F
:1066340069E09E5074E490026BF0A3F0900267E06E
:10664400FEA3E0FF90026BE0FAA3E0FBC39FEA9E87
:106654005046900267E0FCA3E0FDA3E0FEA3E0FF48
:106664001231F7EB2FFFEA3EFEEF25E0FFEE33FE9B
:10667400900262E0FBA3E0FAA3E0F98F828E83121A
:10668400328AFFAEF0127B6F90026CE004F070ACC3
:1066940090026BE004F080A490026AE004F0708041
:0966A400900269E004F002662492
:0166AD0022CA
:1079EA0090036AFEE0FCA3E0FDC3900367E09DFDFF
:0679FA00900366E09CFC16
:107A0000AB07AA068D828C83C006C007AE83AF8207
:107A1000900060EEF0A3EFF0D007D00612739C90B8
:0A7A20000360E0FEA3E0FF027B6FAD
:06795E00FDE0FAA3E0FBCE
:10796400900054EEF0A3EFF0900058EAF0A3EBF08F
:10797400900056ECF0A3EDF0900054E0FAA3E0FB85
:10798400FFAE02C007A3E0FFA3E0900060CFF0A326
:10799400EFF0D00712739C900058E0FEA3E0FF02C2
:0279A4007B6FF7
:107741009003B5EEF0A3EFF0A3ECF0A3EDF0A3EA04
:10775100F0A3EBF01279649003B6E02401FF9003EB
:10776100B5E03400FE9003B7E0FCA3E0A312795E1C
:107771009003B5E0FEA3E0FF9003B8E02401FD9083
:1077810003B7E03400FC9003B912795F9003B6E0CF
:107791002401FF9003B5E03400FE9003B8E024011A
:1077A100FD9003B7E03400FC9003B9E0FAA3E0FBDD
:0377B100027964F6
:0E4B48009001B1EEF0A3EFF0A3ECF0A3EDF0BE
:104B5600E49001B9F0A3F0A3F0A3F0A3F0A3F090C2
:104B660001B1E0FEA3E0FFC3EB9FFFEA9E9001BF09
:104B7600F0A3EFF09001B3E0FAA3E0FBC39001B815
:104B8600E09BFE9001B7E09A9001C1F0A3CEF090B1
:104B960001B1E0FFA3E09001C9CFF0A3EFF0A3EAD3
:104BA600F0A3EBF09001BFE0FEA3E0FFD39400EE8C
:104BB60064809480400A9001C5E4F0A304F080214B
:104BC600EF4E70089001C5F0A3F0801574FF9001B8
:104BD600C5F0A3F0C3E49FFFE49E9001BFF0A3EFEE
:104BE600F09001C1E0FEA3E0FFD39400EE64809450
:104BF60080400A9001C7E4F0A304F08021EF4E70D4
:104C0600089001C7F0A3F0801574FF9001C7F0A3C8
:104C1600F0C3E49FFFE49E9001C1F0A3EFF0900182
:104C2600C1E0FEA3E0FF9001BFE0FCA3E0FDD39F3F
:104C3600EE6480F8EC6480989001C34007ECF0A322
:104C4600EDF08005EEF0A3EFF0E49001B9F0A3F0EB
:104C56009001C4E02401FF9001C3E03400FED3902C
:104C660001BAE09F9001B9E09E4003024D369001E3
:104C7600C9E0FEA3E0FFA3E0FCA3E0FD127A0090EA
:104C860001BFE0FEA3E0FF9001BCE02FF09001BB66
:104C9600E03EF09001C1E0FEA3E0FF9001BEE02FF0
:104CA600F09001BDE03EF09001C3E0FEA3E0FF906E
:104CB60001BBE0FCA3E0FDD39FEE6480F8EC6480CA
:104CC600984020ED9FFFEC9E9001BBF0A3EFF09083
:104CD60001C5E0FEA3E0FF9001CAE02FF09001C9F4
:104CE600E03EF09001C3E0FEA3E0FF9001BDE0FCD2
:104CF600A3E0FDD39FEE6480F8EC6480984020ED3D
:104D06009FFFEC9E9001BDF0A3EFF09001C7E0FE7F
:104D1600A3E0FF9001CCE02FF09001CBE03EF090B5
:104D260001BAE004F070069001B9E004F0024C56B6
:014D3600225A
:0E4D3700900157EEF0A3EFF0A3ECF0A3EDF027
:104D4500E4900163F0A3F0A3F0A3F0900157E0FE17
:104D5500A3E0FFC3EB9FFFEA9E900167F0A3EFF08E
:104D6500900159E0FAA3E0FBC390015EE09BFE9041
:104D7500015DE09A900169F0A3CEF0900157E0FF44
:104D8500A3E0900171CFF0A3EFF0A3EAF0A3EBF05D
:104D9500900167E0FEA3E0FFD39400EE6480948069
:104DA500400A90016DE4F0A304F08021EF4E7008F5
:104DB50090016DF0A3F0801574FF90016DF0A3F0E4
:104DC500C3E49FFFE49E900167F0A3EFF0900169B3
:104DD500E0FEA3E0FFD39400EE64809480400A9047
:104DE500016FE4F0A304F08021EF4E700890016F8D
:104DF500F0A3F0801574FF90016FF0A3F0C3E49F5A
:104E0500FFE49E900169F0A3EFF0900169E0FEA335
:104E1500E0FF900167E0FCA3E0FDD39FEE6480F81E
:104E2500EC64809890016B4007ECF0A3EDF08005F1
:104E3500EEF0A3EFF0E4900161F0A3F090016CE0D7
:104E45002401FF90016BE03400FED3900162E09FE6
:104E5500900161E09E4003024F23900171E0FEA3A3
:104E6500E0FFA3E0FCA3E090015F12795E9001678B
:104E7500E0FEA3E0FF900164E02FF0900163E03EC7
:104E8500F0900169E0FEA3E0FF900166E02FF0904D
:104E95000165E03EF090016BE0FEA3E0FF90016349
:104EA500E0FCA3E0FDD39FEE6480F8EC64809840BD
:104EB50020ED9FFFEC9E900163F0A3EFF090016D54
:104EC500E0FEA3E0FF900172E02FF0900171E03E5B
:104ED500F090016BE0FEA3E0FF900165E0FCA3E02C
:104EE500FDD39FEE6480F8EC6480984020ED9FFF31
:104EF500EC9E900165F0A3EFF090016FE0FEA3E05A
:104F0500FF900174E02FF0900173E03EF090016294
:0E4F1500E004F07006900161E004F0024E41ED
:014F2300226B
:106C28009003BBEEF0A3EFF09003BFEAF0A3EBF004
:086C38009003BDECF0A3EDF0A8
:106C40009003BBE0FAA3E0FB24FFFFEA34FFFEC0A1
:106C500006C007ED24FFFDEC34FFFCEB2401FBE450
:106C60003AFAA3E0FEA3E02401FFE43E900060F0C6
:106C7000A3EFF0D007D00612739CE4FB127B670BE6
:106C8000EBB409F89003BCE024FCFF9003BBE034B4
:106C9000FFFEC0079003BDE0FCA3E0FD9003BCE055
:106CA0002404FB9003BBE03400FA9003BDE0FFA393
:106CB000E0900060CFF0A3EFF0D00712739CE4FBEC
:106CC000127B670BEBB409F89003BEE024FCFD9047
:106CD00003BDE034FFFC9003BBE0FAA3E0FBA3E0BC
:106CE000FEA3E02404FFE43E900060F0A3EFF090E8
:0F6CF00003BB127397E4FB127B670BEBB409F83D
:016CFF002272
:1071AD009003A1EAF0A3EBF090039DEEF0A3EFF0B6
:1071BD00A3ECF0A3EDF0C007A3E0FAA3E0FB90036E
:1071CD009FE0FFA3E09001B7CFF0A3EFF0D007123F
:1071DD004B4890039DE0FAA3E0FBFFAE02C007A36E
:1071ED00E0FCA3E0FD9003A3E0FFA3E09001B7CF87
:1071FD00F0A3EFF0D007124B489003A3E0FCA3E0FF
:10720D00FD9003A1E0FAA3E0FBA3E0FFA3E0900152
:10721D00B7CFF0A3EFF090039DE0FEA3E0FF124B7C
:10722D00489003A1E0FAA3E0FBFFAE02C007900374
:10723D009FE0FCA3E0FD9003A3E0FFA3E09001B766
:0A724D00CFF0A3EFF0D007024B488A
:0E510D00900364EEF0A3EFF0A3ECF0A3EDF03E
:10511B00E4A3F0A3F0EBFF7E00A3EEF0A3EFF025EA
:10512B00E0FFEE33FEC374039F90036DF0E49E909B
:10513B00036CF090036AE0FEA3E0FF900368E0FCD1
:10514B00A3E0FDD39FEE6480F8EC648098400302EB
:10515B0052E4900365E02DFF900364E03C1279EA82
:10516B0090036AE0FEA3E0FF900365E02FFF90033E
:10517B0064E03E9003681279ED90036AE0FEA3E0D1
:10518B00FF900365E02FFF900364E03EFE90036801
:10519B00E0FCA3E0FD900367E02DFD900366E03C8F
:1051AB00FC127A00900368E0FEA3E0FF900365E039
:1051BB002FFF900364E03EFE90036AE0FCA3E0FD4A
:1051CB00900367E02DFD900366E03CFC127A0090A3
:1051DB000368E0FEA3E0FFC3900365E09FFF90032D
:1051EB0064E09EFE90036AE0FCA3E0FD900367E0A1
:1051FB002DFD900366E03CFC127A0090036AE0FE02
:10520B00A3E0FFC3900365E09FFF900364E09EFE65
:10521B00900368E0FCA3E0FD900367E02DFD900395
:10522B0066E03CFC127A00900368E0FEA3E0FFC34B
:10523B00900365E09FFF900364E09E1279EA900370
:10524B006AE0FEA3E0FFC3900365E09FFF90036459
:10525B00E09EFE9003681279EE900369E004F07013
:10526B0006900368E004F0C390036CE064809480C4
:10527B005025900368E0FEA3E07802C333CE33CE13
:10528B00D8F92406FFE43EFE90036DE02FF0900367
:10529B006CE03EF002513E90036AE0FEA3E0FFC3D8
:1052AB00900369E09FFF900368E09EFEEF7802C3D6
:1052BB0033CE33CED8F9240AFFE43EFE90036DE0E3
:1052CB002FF090036CE03EF090036BE024FFF09026
:0952DB00036AE034FFF002513EC9
:0152E40022A7
:1059820090000FEEF0A3EFF0900013EBF0900011F7
:05599200ECF0A3EDF0B4
:10599700900018ECF0A3EDF0900014E0FF13131340
:1059A700541FFEEF540760047F0180027F00EE2F33
:1059B700FF900014E0C313FEEF8EF0A490001AF0DE
:1059C700900013E024E0F0E4F990001AE0FFE9C347
:1059D7009F4003025AF9900014E0FFB40C129000A4
:1059E70013E075F00CA42433F582E5F03400803120
:1059F700EFB41012900013E075F010A424A7F582FD
:105A0700E5F03404801B900014E064186003025A28
:105A1700F9900013E075F024A42497F582E5F0349B
:105A27000AF583E58229F582E43583F583E49390CB
:105A37000016F0E4900017F0900016E030E713909E
:105A4700000FE0FEA3E0FFA3E0FCA3E0FD900360EE
:105A57008017900015E0701490000FE0FEA3E0FFA0
:105A6700A3E0FCA3E0FD90036212795F900016E0CB
:105A770025E0F0900012E004F07006900011E004B9
:105A8700F090035BE0FEA3E0FF900011E0FCA3E0D1
:105A9700FDC39FEC9E505B900018E0FEA3E0FFC3A0
:105AA700ED9FFDEC9EFC900014E07A00B50530EA0E
:105AB700B5042C900011EEF0A3EFF0900010E00475
:105AC700F0700690000FE004F0900359E0FEA3E0A9
:105AD700FFC3900010E09F90000FE09E40102290BF
:105AE7000017E004F0E0C394085003025A3F09028C
:025AF70059D084
:015AF900228A
:0778C500C3EF9E14FD7F0AD2
:0878CC009003C1EFF0A3EDF001
:1078D400A3123452000000019003C2E0FF14F0EF41
:1078E4006020A3E0F8A3E0F9A3E0FAA3E0FB90038F
:1078F400C1E0FFE4FCFDFE1232EF9003C3123446F4
:1079040080D69003C3E0FCA3E0FDA3E0FEA3E0FF68
:017914002250
:0E6B4C00900326EEF0A3EFF0A3ECF0A3EDF023
:106B5A00E4900332F0900330F090032EE0FF9003AC
:106B6A0030E0FEC39F4003026C271278C5A804A92F
:106B7A0005AA06AB0790032AE0FCA3E0FDA3E0FE0A
:106B8A00A3E0FF12337AE47B0AFAF9F812337A9017
:106B9A000331EBF0A3E0704590032EE014FF90035D
:106BAA0030E0FEC39F5036A3E0702C90032FE0FB29
:106BBA00C3138EF0A4FF900327E02FFF900326E073
:106BCA0035F0FE900328E0FCA3E0FD900014EBF002
:106BDA00E4A3F07B20803A9003327401F090032FF3
:106BEA00E0FAC313FFA3E0FEEF8EF0A4FF900327A1
:106BFA00E02FFF900326E035F0FE900328E0FCA387
:106C0A00E0FD900331E02430FB900014EAF0E4A3A5
:0D6C1A00F0125982900330E004F0026B6329
:016C2700224A
:0E626D0090030AEEF0A3EFF0A3ECF0A3EDF027
:10627B00E4900317F0900315F0900312E0FF9003E6
:10628B0015E0FEC39F40030263951278C5A804A9CD
:10629B0005AA06AB0790030EE0FCA3E0FDA3E0FE0E
:1062AB00A3E0FF12337AE47B0AFAF9F812337A90FF
:1062BB000316EBF0A3E0600302634C900312E014AF
:1062CB00FF900315E0FEC39F5077A3E0706D900322
:1062DB0014E0F990031330E72BE0FBC3138EF0A40B
:1062EB00FF90030BE02FFF90030AE035F0FE9003C5
:1062FB000CE0FCA3E0FD900014EBF0E95401A3F0DB
:10630B007B30807AE0FBC313FF900315E0FEEF8E2A
:10631B00F0A4FF90030BE02FFF90030AE035F0FE93
:10632B0090030CE0FCA3E0FD900014EBF090031441
:10633B00E05401900015F07B20804390031774010B
:10634B00F0900313E0FAC313FF900315E0FEEF8EFA
:10635B00F0A4FF90030BE02FFF90030AE035F0FE53
:10636B0090030CE0FCA3E0FD900316E02430FB90BF
:10637B000014EAF0900314E05401900015F0125948
:0A638B0082900315E004F002628422
:0163950022E5
:10698600900002EEF0A3EFF0A3ECF0A3EDF0A3EA83
:04699600F0A3EBF08F
:10699A00900002E0FEA3E0FF90000EF0900007E0F6
:1069AA002FF0900006E03EF0900004E0FEA3E0FF26
:1069BA00900009E02FF0900008E03EF090000BE014
:1069CA00FBA3E0FAA3E0F912319FFFD3947E4003C0
:1069DA00026A6AEFC394205003026A6A900006E0D2
:1069EA00FEA3E0FF900003E09F900002E09E401F9C
:1069FA0090000EE0FF900002E4F0A3EFF090000A8E
:106A0A00E0FF900005E02FF0900004E03400F090E1
:106A1A000008E0FEA3E0FF900004E0FCA3E0FDC351
:106A2A009FEC9E503B900002E0FEA3E0FF12319FD4
:106A3A00FB90000AE0900014F0E4A3F0125982904F
:106A4A00000AE0C313FF900003E02FF0900002E079
:106A5A003400F090000CE475F00112325E0269C64F
:016A6A002209
:1061420090036EEEF0A3EFF0A3ECF0A3EDF0A3EB5F
:07615200F0A3EAF0A3E9F05D
:10615900900372E0FBA3E0FAA3E0F912319F700308
:1061690002626C90036EE0FAA3E0FBFFAE02C00688
:10617900C007A3E0FCA3E0FDEB241FFBE43AFA907F
:106189000370E0FEA3E0241CFFE43E900060F0A34E
:10619900EFF0D007D00612739CE4900375F09003DA
:1061A90075E0FFC394144003026251900372E0FB4F
:1061B900A3E0FAA3E0F912319FFE75F076EFA4246B
:1061C900F3F582E5F03417F583E4936E707190006E
:1061D900011231B8FF900375E075F076A424F4F547
:1061E90082E5F03417F583E4936F7053FB900375E0
:1061F900E075F076A424F5F582E5F03417F583E52A
:10620900822BF582E43583F583E493FF900376E4EA
:10621900F0A3EFF0E4FA900377E030E7059003602C
:106229008003900362127B6A900377E025E0F09087
:106239000376E033F00AEAB408DC0BEBB474AE90F1
:106249000375E004F00261A7900373E475F002128C
:10625900325E90036FE02420F090036EE03400F08A
:0362690002615976
:01626C00220F
:10601500900245EEF0A3EFF0A3ECF0A3EDF0A3EAB8
:04602500F0A3EBF009
:10602900E4900250F0A3F0A3123452000000009053
:10603900025612345200000000900247E0FCA3E02F
:10604900FDA3E0FEA3E0FF900245E0FAA3E02FFFE5
:10605900EA3ECF24FFFBEF34FFFA90024BE0FEA3A8
:10606900E0FF900247E0F8A3E02FFFE83ECF24FFCE
:10607900CF34FF900060F0A3EFF0900245127397C0
:1060890090024BE0FCA3E0FD900249E0FEA3E0FF93
:106099001231F7EF25E0FFEE33FEE4FCFD900256E6
:1060A900123446900252A3A3E0FEA3E0FDAC0624FD
:1060B90001FFE43CFE90024DE0FBA3E0FAA3E0F906
:1060C9008F828E831231B8FF900250E4F0A3EFF073
:1060D900E0F8E4F0E8900250F08D828C831231B838
:1060E900FF900250E0FEA3E04FFF900250EEF0FE59
:1060F900A3EFF0127B6FA3E0FCA3E0FDA3E0FEA3F6
:10610900E02402FFE43EFEE43DFDE43CFC90025243
:10611900123446900256E0FCA3E0FDA3E0FEA3E0A2
:10612900FF900252E0F8A3E0F9A3E0FAA3E0FBC371
:0861390012340C50030260ACAB
:01614100223B
:0B7C9100C2A1D2A3D2A2D2A1C2A322A2
:107C1100C2A1E4FEEFC4131313540124FF92A2EF97
:0C7C210025E0FFC2A1D2A10EEEB408E8DD
:017C2D002234
:107AA200E49003D9F0A3F0C2A1FDFC9003DAE02533
:107AB200E0F09003D9E033F0D2A1C2A1A2A0E43356
:107AC200FFE0F0A3E04FF00DBD00010CED640C4CA3
:0A7AD20070D99003D9E0FEA3E0FF95
:017ADC002287
:07567F00EEF0A3EFF07F90B5
:02568600AB0770
:10568800C2A1C2A3E49001CDF0AF03127C11900136
:10569800CE7406F09001CEE014F0E070F7D2A100CD
:1056A80000C2A10000127AA29001CDE025E024CF2B
:1056B800F582E43401F583EEF0A3EFF09001CDE03C
:1056C80004F0E0C3940A40C1D2A3E49001CDF09065
:1056D80001CDE0FFC39409400302578DEF04A3F006
:1056E8009001CEE0FFC3940A4003025784EF25E0FF
:1056F80024CFF582E43401F583E0FEA3E0FF9001B6
:10570800CDE0FB25E024CFF582E43401F583E0FC0D
:10571800A3E0C39FEC9E505BEB25E024CFF582E429
:105728003401F583E0FEA3E0FFE4FCFD9001E31201
:1057380034469001CEE0FA25E024CFF582E4340126
:10574800F583E0FEA3E0FFEB25E024CFF582E43407
:1057580001F583EEF0A3EFF09001E3A3A3E0FEA32D
:10576800E0FFEA25E024CFF582E43401F583EEF08A
:10577800A3EFF09001CEE004F00256E89001CDE0EE
:1057880004F00256D79001E3123452000000009052
:1057980001CD7402F09001E3E0F8A3E0F9A3E0FA88
:1057A800A3E0FB9001CDE025E024CFF582E43401AD
:1057B800F583E0FEA3E0FFE4FCFDEB2FFFEA3EFEED
:1057C800ED39FDEC38FC9001E31234469001CDE050
:1057D80004F0E0B408BF9001E3E0FCA3E0FDA3E01F
:1057E800FEA3E0FFE47B06FAF9F81279A69001E33C
:0D57F8001234469001E3A3A3E0FEA3E0FFFE
:015805002280
:10639600127C917FD012568690037812567F900316
:1063A6007EEEF0A3EFF07FD012568690037A125657
:1063B6007FAD07AC0690037AE0FEA3E0FF9003787A
:1063C600E0FAA3E0FBD39FEA9E400AA3A3EB9FFF5C
:1063D600EA9EA38017900378E0FEA3E0FFC3900334
:1063E6007BE09FFF90037AE09E90037CF0A3EFF0A2
:1063F60090037EE0FEA3E0FFD39DEE9C4007EF9D59
:10640600FFEE9C800E90037EE0FEA3E0FFC3ED9FAF
:10641600FFEC9EA3F0A3EFF0D390037DE0943290BF
:10642600037CE09400500E900381E0943290038048
:10643600E0940040037F002290037AE0FEA3E0FF91
:10644600900379E02FFF900378E03EC313FEEF132D
:10645600FF900333EEF0A3EFF090037FE02DFF9063
:10646600037EE03CC313FEEF13FF900335EEF0A36B
:10647600EFF0900334E054F0F0900336E054F0F07F
:10648600C3900334E09464900333E09400400FD348
:10649600900336E094D8900335E0940E40037F00D5
:0364A600227F0151
:0164A90022D0
:105ED500E49003CDF0126396EF700302600A90031D
:105EE5005FE06003025F70900333E0FEA3E0FFE430
:105EF500FCFD900337123446900337E0FCA3E0FD28
:105F0500A3E0FEA3E02406FFEE34FFFEED34FFFD23
:105F1500EC34FFFCE47BB4FAF9F81232EFE47B745D
:105F25007A0EF9F812337A90033712344690033516
:105F3500E0FEA3E0FFE4FCFD90033B123446900332
:105F45003BE0FCA3E0FDA3E0FEA3E024A2FFEE34CA
:105F5500FEFEED34FFFDEC34FFFCE47BFAFAF9F8C4
:105F65001232EFE47BAC7A0D025FF7900335E0FE69
:105F7500A3E0FFC3E49FFF74109EFEE4FCFDA312A3
:105F85003446900337E0FCA3E0FDA3E0FEA3E02444
:105F9500A2FFEE34FEFEED34FFFDEC34FFFCE47BA6
:105FA500FAFAF9F81232EFE47BAC7A0DF9F812330C
:105FB5007A900337123446900333E0FEA3E0FFE402
:105FC500FCFD90033B12344690033BE0FCA3E0FD4F
:105FD500A3E0FEA3E02406FFEE34FFFEED34FFFD53
:105FE500EC34FFFCE47BB4FAF9F81232EFE47B748D
:105FF5007A0EF9F812337A90033B1234469003CDAA
:0F6005007401F08001E490033FF09003CDE0FFC1
:016014002269
:067646009003A51234467A
:10764C009003A5E0FCA3E0FDA3E0FEA3E0FF78130C
:10765C00123433A3EEF0A3EFF09003A5E0FCA3E00B
:10766C00FDA3E0FEA3E0FF780A123433EF543FFE93
:10767C00E49003ABF0A3CEF09003A5E0FCA3E0FDF7
:10768C00A3E0FEA3E0FF7803123433EF541FFFE4B2
:10769C00AD07FC9003ABE0FEA3E07805C333CE331B
:1076AC00CED8F9FBAA069003AAE033333354F84A38
:0976BC00FEEBFFEE4CFEEF4DFF6A
:0176C50022A2
:047A2A00AD07AC06F2
:107A2E007BE77A187E00ED54037803C333CE33CE52
:107A3E00D8F9FFEA4EFAEB4FFB7E00ED541C7806A8
:107A4E00C333CE33CED8F9FFEA4EFAEB4FFBED54EB
:077A5E00E04AFAEBAE02FF63
:017A650022FE
:087915009003C7EFF0A3EDF0B1
:10791D00A3123452000000019003C8E0FF14F0EFF1
:10792D006020A3E0F8A3E0F9A3E0FAA3E0FB900345
:10793D00C7E0FFE4FCFDFE1232EF9003C91234469E
:10794D0080D69003C9E0FCA3E0FDA3E0FEA3E0FF19
:01795D002207
:1077B4009003AD1234469003B1E0FCA3E0FDA3E0D6
:1077C400FEA3E0FF9003ADE0F8A3E0F9A3E0FAA381
:1077D400E0FBD3123422401D9003B1E0F8A3E0F99A
:1077E400A3E0FAA3E0FB9003ADE0FCA3E0FDA3E07B
:1077F400FEA3E0801A9003ADE0F8A3E0F9A3E0FA59
:10780400A3E0FBA3E0FCA3E0FDA3E0FEA3E0C39B95
:0B781400FFEE9AFEED99FDEC98FC22BF
:087A66009003D2EEF0A3EFF053
:107A6E00900360E0FFA3E09003D4CFF0A3EFF0AF5C
:107A7E0003900360EAF0A3EFF09003D2E0FEA3E0E0
:107A8E00FF127A009003D4E0FFA3E0900360CFF0E2
:037A9E00A3EFF063
:017AA10022C2
:1066AE009002C9EEF0A3EFF0A3ECF0A3EDF0A3EA95
:0466BE00F0A3EBF06A
:1066C200E49002D4F0A3F09002CDE0FEA3E0FFC379
:1066D2009002D5E09F9002D4E09E40030267A4E4BA
:1066E2009002D6F0A3F09002CFE0FEA3E0FFC390A9
:1066F20002D7E09F9002D6E09E400302679090028C
:10670200D4E0FEA3E0FF9002CAE02FFF9002C9E0AE
:106712003EFE9002D6E0FCA3E0FD9002CCE02DFD0F
:106722009002CBE03CFC126EA29002D8EEF0A3EFF6
:10673200F09002D1E0FCA3E0FDA3E0FB1268999087
:1067420002D8EEF0A3EFF09002D4E0FEA3E0FF90B7
:1067520002CAE02FFF9002C9E03EFE9002D6E0FCA2
:10676200A3E0FD9002CCE02DFD9002CBE03CFC903A
:1067720002D8E0FAA3E0FB1279649002D7E004F0B9
:1067820060030266E89002D6E004F00266E8900236
:10679200D5E004F060030266C99002D4E004F0027E
:0267A20066C9C6
:0167A40022D2
:1067A500900048ECF0A3EDF0A3EAF0A3EBF0900025
:0667B50046EEF0A3EFF038
:1067BB00C39401EE94004013E024FFFE900046E0EA
:1067CB0034FF900050F0A3CEF0800F900046E0FF16
:1067DB00A3E0900050CFF0A3EFF0900048E0FEA3B1
:1067EB00E0FFC39401EE9400400CEF24FFFFEE3466
:1067FB00FF900052800B900048E0FFA3E090005206
:10680B00CFF0A3EFF0900052E0FFA3E090004CCF4D
:10681B00F0A3EFF0900049E02402FF900048E03431
:10682B0000FEC390004DE09F90004CE09E505E90A8
:10683B000050E0FFA3E090004ECFF0A3EFF09000EC
:10684B0047E02402FD900046E03400FC90004EE04F
:10685B00FEA3E0FFC39DEE9C502390004CE0FCA3F5
:10686B00E0FD90004AE0FAA3E0FB12796490004F40
:10687B00E004F070C990004EE004F080C190004D30
:0D688B00E004F0708F90004CE004F0808776
:0168980022DD
:0E495500900175EEF0A3EFF0A3ECF0A3EDF0EF
:10496300E4900181F0A3F0A3F0A3F0900175E0FEC1
:10497300A3E0FFC3EB9FFFEA9E900185F0A3EFF056
:10498300900177E0FAA3E0FBC390017CE09BFE90EB
:10499300017BE09A900187F0A3CEF0900175E0FFD0
:1049A300A3E090018FCFF0A3EFF0A3EAF0A3EBF025
:1049B300900185E0FEA3E0FFD39400EE6480948031
:1049C300400A90018BE4F0A304F08021EF4E7008BD
:1049D30090018BF0A3F0801574FF90018BF0A3F08E
:1049E300C3E49FFFE49E900185F0A3EFF09001875D
:1049F300E0FEA3E0FFD39400EE64809480400A902D
:104A0300018DE4F0A304F08021EF4E700890018D36
:104A1300F0A3F0801574FF90018DF0A3F0C3E49F21
:104A2300FFE49E900187F0A3EFF0900187E0FEA3DF
:104A3300E0FF900185E0FCA3E0FDD39FEE6480F8E6
:104A4300EC6480989001894007ECF0A3EDF08005B9
:104A5300EEF0A3EFF0E490017FF0A3F090018AE081
:104A63002401FF900189E03400FED3900180E09F90
:104A730090017FE09E4003024B4790018FE0FEA32D
:104A8300E0FFA3E0FCA3E0FD90017DE0FAA3E0FBDF
:104A9300127964900185E0FEA3E0FF900182E02F8C
:104AA300F0900181E03EF0900187E0FEA3E0FF90EB
:104AB3000184E02FF0900183E03EF0900189E0FE55
:104AC300A3E0FF900181E0FCA3E0FDD39FEE6480AF
:104AD300F8EC6480984020ED9FFFEC9E900181F0FC
:104AE300A3EFF090018BE0FEA3E0FF900190E02F95
:104AF300F090018FE03EF0900189E0FEA3E0FF908B
:104B03000183E0FCA3E0FDD39FEE6480F8EC6480B6
:104B1300984020ED9FFFEC9E900183F0A3EFF0906F
:104B2300018DE0FEA3E0FF900192E02FF090019150
:104B3300E03EF0900180E004F0700690017FE00415
:044B4300F0024A5FD3
:014B4700224B
:10376700900119EEF0A3EFF0A3ECF0A3EDF0A3EABC
:04377700F0A3EBF0E0
:10377B00E4900126F0A3F0A3F0A3F0900121E0FF69
:10378B007E00C390011AE09F900119E09E50030246
:10379B0039D290011EE09F90011DE09E500302392B
:1037AB00D290011BE0FCA3E0FD9FEC9E500302397D
:1037BB00D2900120E09F90011FE09E50030239D26E
:1037CB00900121E07013900119E0FEA3E0FF90013E
:1037DB0022E0FAA3E0FB027964900119E0FAA3E07E
:1037EB00FBC390011EE09BFE90011DE09A90012A05
:1037FB00F0A3CEF090011BE0FEA3E0FFC3900120ED
:10380B00E09FFF90011FE09E90012CF0A3EFF09042
:10381B000134EAF0A3EBF090011BA3E0FF9001361B
:10382B00EEF0A3EFF090012AE0FEA3E0FFD39400AB
:10383B00EE64809480400A900130E4F0A304F080A1
:10384B0021EF4E7008900130F0A3F0801574FF90BB
:10385B000130F0A3F0C3E49FFFE49E90012AF0A394
:10386B00EFF090012CE0FEA3E0FFD39400EE648018
:10387B009480400A900132E4F0A304F08021EF4ED3
:10388B007008900132F0A3F0801574FF900132F0B4
:10389B00A3F0C3E49FFFE49E90012CF0A3EFF09004
:1038AB00012CE0FEA3E0FF90012AE0FCA3E0FDD396
:1038BB009FEE6480F8EC64809890012E4007ECF04A
:1038CB00A3EDF08005EEF0A3EFF0E4900124F0A35C
:1038DB00F090012FE02401FF90012EE03400FED385
:1038EB00900125E09F900124E09E40030239D29085
:1038FB000136E0FCA3E0FD900121E0FB7A00A3E0A0
:10390B00FFA3E0900206CFF0A3EFF0900134E0FEAE
:10391B00A3E0FF122A9A90012AE0FEA3E0FF900198
:10392B0027E02FF0900126E03EF090012CE0FEA363
:10393B00E0FF900129E02FF0900128E03EF090018C
:10394B002EE0FEA3E0FF900126E0FCA3E0FDD39F59
:10395B00EE6480F8EC6480984020ED9FFFEC9E9025
:10396B000126F0A3EFF0900130E0FEA3E0FF900101
:10397B0035E02FF0900134E03EF090012EE0FEA3F5
:10398B00E0FF900128E0FCA3E0FDD39FEE6480F8FC
:10399B00EC6480984020ED9FFFEC9E900128F0A3F3
:1039AB00EFF0900132E0FEA3E0FF900137E02FF043
:1039BB00900136E03EF0900125E004F07006900196
:0739CB0024E004F00238DCE7
:0139D20022D2
:0E26D000900138EEF0A3EFF0A3ECF0A3EDF0D4
:1026DE00E4900145F0A3F0A3F0A3F0900138E0FEE2
:1026EE00A3E0FFC3EB9FFFEA9E900149F0A3EFF03A
:1026FE0090013AE0FAA3E0FBC390013FE09BFE900D
:10270E00013EE09A90014BF0A3CEF0900138E0FF2D
:10271E00A3E0900153CFF0A3EFF0A3EAF0A3EBF008
:10272E00900149E0FEA3E0FFD39400EE6480948014
:10273E00400A90014FE4F0A304F08021EF4E7008A0
:10274E0090014FF0A3F0801574FF90014FF0A3F0AD
:10275E00C3E49FFFE49E900149F0A3EFF090014B7C
:10276E00E0FEA3E0FFD39400EE64809480400A90D4
:10277E000151E4F0A304F08021EF4E700890015156
:10278E00F0A3F0801574FF900151F0A3F0C3E49F05
:10279E00FFE49E90014BF0A3EFF090014BE0FEA3FF
:1027AE00E0FF900149E0FCA3E0FDD39FEE6480F8CA
:1027BE00EC64809890014D4007ECF0A3EDF080059D
:1027CE00EEF0A3EFF0E4900143F0A3F090014EE0A1
:1027DE002401FF90014DE03400FED3900144E09FB0
:1027EE00900143E09E4003022A99900140E0701947
:1027FE00900153E0FEA3E0FFA3E0FCA3E0FD9001F7
:10280E0041E0FAA3E0FB127964900140E0640160BC
:10281E00030228A4900153E0FEA3E0FFA3E0FCA373
:10282E00E0FD900141E0FAA3E0FB127964900154BF
:10283E00E02401FF900153E03400FE900155E0FCCE
:10284E00A3E0FD900141E0FAA3E0FB127964900150
:10285E0053E0FEA3E0FF900156E02401FD900155E8
:10286E00E03400FC900141E0FAA3E0FB12796490A1
:10287E000154E02401FF900153E03400FE90015614
:10288E00E02401FD900155E03400FC900141E0FA96
:10289E00A3E0FB127964900140E064026003022918
:1028AE00E8900153E0FEA3E0FFA3E0FCA3E0FD905F
:1028BE000141E0FAA3E0FB127964900154E0240197
:1028CE00FF900153E03400FE900155E0FCA3E0FDC3
:1028DE00900141E0FAA3E0FB127964900153E0FE0F
:1028EE00A3E0FF900156E02401FD900155E0340075
:1028FE00FC900141E0FAA3E0FB127964900154E0F0
:10290E002401FF900153E03400FE900156E02401B3
:10291E00FD900155E03400FC900141E0FAA3E0FB8C
:10292E00127964900154E024FFFF900153E034FFCC
:10293E00FE900156E02401FD900155E03400FC901C
:10294E000141E0FAA3E0FB127964900154E0240106
:10295E00FF900153E03400FE900156E024FFFD90FD
:10296E000155E034FFFC900141E0FAA3E0FB12793F
:10297E0064900154E024FFFF900153E034FFFE9079
:10298E000156E024FFFD900155E034FFFC9001411B
:10299E00E0FAA3E0FB127964900154E024FFFF906B
:1029AE000153E034FFFE900155E0FCA3E0FD9001E1
:1029BE0041E0FAA3E0FB127964900153E0FEA3E03C
:1029CE00FF900156E024FFFD900155E034FFFC908E
:1029DE000141E0FAA3E0FB127964900149E0FEA305
:1029EE00E0FF900146E02FF0900145E03EF09001AF
:1029FE004BE0FEA3E0FF900148E02FF0900147E08E
:102A0E003EF090014DE0FEA3E0FF900145E0FCA3F7
:102A1E00E0FDD39FEE6480F8EC6480984020ED9F3B
:102A2E00FFEC9E900145F0A3EFF090014FE0FEA366
:102A3E00E0FF900154E02FF0900153E03EF0900142
:102A4E004DE0FEA3E0FF900147E0FCA3E0FDD39F25
:102A5E00EE6480F8EC6480984020ED9FFFEC9E9031
:102A6E000147F0A3EFF0900151E0FEA3E0FF9001CB
:102A7E0056E02FF0900155E03EF0900144E004F056
:0B2A8E007006900143E004F00227DA1C
:012A9900221A
:10730100FAE0FFA3E0900012CFF0A3EFF09002DAD1
:05731100E0FEA3E0FF17
:1073160090000CEEF0A3EFF0A3ECF0A3EDF0A3EADF
:10732600F0A3EBF04A6069900359E0FCA3E0FD90FE
:10733600000CE0FAA3E0FBD39DEA9C505390035B5C
:10734600E0FEA3E0FF90000EE0FCA3E0FD9FEC9EB4
:10735600503EAF03AE02C006C007900010E0FEA389
:10736600E0FF90000EE0F8A3E02FFFE83ECF24FFF9
:10737600CF34FF90001CF0A3EFF0900012E0FFA3C3
:10738600E090001ECFF0A3EFF0D007D006126DD22A
:0173960022D4
:1076C60090000CEEF0A3EFF0A3ECF0A3EDF0EB4A84
:1076D6006068900359E0FEA3E0FFD390000DE09FA1
:1076E60090000CE09E505390035BE0FEA3E0FF90F9
:1076F600000EE0FCA3E0FD9FEC9E503EAE02AF0301
:1077060090000CE0FAA3E02FFFEA3ECF24FFFBEF48
:1077160034FFFAA3E0FFA3E090001CCFF0A3EFF044
:10772600900012E0FFA3E090001ECFF0A3EFF090D0
:0B773600000CE0FEA3E0FF126DD22269
:105D8E00900318EEF0A3EFF0A3ECF0A3EDF0A3EA6E
:045D9E00F0A3EBF093
:105DA200A3E07002A3E07003025ED490031CE070D3
:105DB20002A3E07003025ED4900323E020E003021A
:105DC2005E51E4A3F0A3F090031CE0FEA3E0FF9079
:105DD2000324E0FCA3E0FDC39FEC9E4003025ED4DB
:105DE200900319E02DFF900318E03CFEC006C007A7
:105DF20090031AE0FCA3E0FD90031FE024FFFB9058
:105E0200031EE034FFFAC002C003900325E025E040
:105E1200FF900324E033FE900320E0FBA3E0FAA30B
:105E2200E0F98F828E8312328AFF900012E5F0F041
:105E3200A3EFF0D003D002D007D00612731690035E
:105E420025E004F07081900324E004F0025DC9E4CF
:105E5200900324F0A3F090031EE0FEA3E0FF900362
:105E620024E0FCA3E0FDC39FEC9E506690031BE080
:105E72002DFD90031AE03CFC90031DE024FFFB90F3
:105E8200031CE034FFFAC002C003900325E025E0C2
:105E9200FF900324E033FE900320E0FBA3E0FAA38B
:105EA200E0F98F828E8312328AFF900012E5F0F0C1
:105EB200A3EFF0900318E0FEA3E0FFD003D002129C
:105EC20076C6900325E004F0708C900324E004F081
:025ED2008084CA
:015ED40022AB
:064F2400900193123446D7
:104F2A00E49001AFF0A3F0900193E0FCA3E0FDA3AD
:104F3A00E0FEA3E0FF78101234339001A0EFF0FBFB
:104F4A00900193E0FCA3E0FDA3E0FEA3E0FF780854
:104F5A001234339001A1EFF0FA900193A3A3A3E0D6
:104F6A00FFA9079001A2E9F0900197E0FCA3E0FDF8
:104F7A00A3E0FEA3E0FF7810123433EBFDC3EF9DEC
:104F8A00FFEE94009001A3F0A3EFF0900197E0FCEC
:104F9A00A3E0FDA3E0FEA3E0FF7808123433EAFDA4
:104FAA00C3EF9DFEE494009001A5F0A3CEF090011A
:104FBA0097A3A3A3E0FFE9FDC3EF9DFEE49400904D
:104FCA0001A7F0A3CEF0E49001AFF0A3F090019E08
:104FDA00E0FEA3E0FFC39001B0E09F9001AFE09E26
:104FEA00400302510CE0FAA3E0FB9001A3E0FEA308
:104FFA00E0FFAD03AC021231F790019EE0FCA3E0A2
:10500A00FD123209A3E07C002FFFEC3E9001A9F0CB
:10501A00A3EFF09001A5E0FEA3E0FFAD03AC0212FE
:10502A0031F790019EE0FCA3E0FD1232099001A144
:10503A00E07C002FFFEC3E9001ABF0A3EFF0900173
:10504A00A7E0FEA3E0FFAD03AC021231F790019E88
:10505A00E0FCA3E0FD1232099001A2E07C002FFFE0
:10506A00EC3E9001ADF0A3EFF09001A9E0FEA3E0C1
:10507A007803CEC313CE13D8F9F0EE9001A9F090BD
:10508A0001ABE0FEA3E07802CEC313CE13D8F9F049
:10509A00EE9001ABF09001ADE0FEA3E07803CEC341
:1050AA0013CE13D8F9F0EE9001ADF09001ABE0FE0B
:1050BA00A3E07805C333CE33CED8F9FDAC06900110
:1050CA00AAE033333354F84CFEEDFF9001ADE04EC5
:1050DA00FCA3E04FFDEB25E0FFEA33FE90019BE0E5
:1050EA00FBA3E0FAA3E0F98F828E83EC8DF01232F3
:1050FA00C29001B0E004F070069001AFE004F00243
:02510A004FD77D
:01510C002280
:1064AA00900218EEF0A3EFF0A3ECF0A3EDF0A3EA4C
:0464BA00F0A3EBF070
:1064BE00900224E0FCA3E0FDA3E0FEA3E0FF900128
:1064CE009712344690022CE0F9A3E0FAA3E0900173
:1064DE009BC9F0A3EAF0A3E9F090021CE0FFA3E051
:1064EE0090019ECFF0A3EFF0900220E0FCA3E0FD20
:1064FE00A3E0FEA3E0FF124F24E4900228F0A3F0E5
:10650E0090021CE0FEA3E0FFC3900229E09F9002E0
:10651E0028E09E40030265B5E490022AF0A3F090B5
:10652E00021EE0FEA3E0FFC390022BE09F90022A22
:10653E00E09E505F900228E0FAA3E0FB900219E083
:10654E002BFF900218E03AFEC006C00790022AE028
:10655E00FEA3E0FF90021BE02FFD90021AE03EFC2E
:10656E00EB25E0FFEA33FE90022CE0FBA3E0FAA35A
:10657E00E0F98F828E8312328AFBAAF0D007D00602
:10658E0012796490022BE004F0709490022AE004D9
:10659E00F0808C900229E004F0600302650E9002F8
:0765AE0028E004F002650E75
:0165B50022C3
:106F7100900382EEF0A3EFF0A3ECF0A3EDF0A3EA0F
:106F8100F0A3EBF0C00790038AE0FFA3E0900012AA
:106F9100CFF0A3EFF0D0071276C6900388E0FEA3EE
:106FA100E0FF900385E02FFF900384E03ECF24FFB4
:106FB100FDEF34FFFC900386E0FAA3E0FB90038A27
:106FC100E0FFA3E0900012CFF0A3EFF0900382E086
:106FD100FEA3E0FF1276C6900384E0FCA3E0FD90DF
:106FE1000388E0FAA3E0FBA3E0FFA3E0900012CF47
:106FF100F0A3EFF0900382127311900386E0FEA3D9
:10700100E0FF900383E02FFF900382E03ECF24FF57
:10701100CF34FFFEC007900384E0FCA3E0FD9003A2
:1070210088E0FAA3E0FBA3E0FFA3E0900012CFF019
:08703100A3EFF0D00702731673
:101C19009002DAEEF0A3EFF0A3ECF0A3EDF0A3EA63
:041C2900F0A3EBF049
:101C2D00E49002E8F0A3F09002E0E0FEA3E030E0E3
:101C3D000A2401FFE43E9002E8800B9002E0E0FFF1
:101C4D00A3E09002E8CFF0A3EFF09002E3E0900262
:101C5D00E27003021E78E0F975F002A4FFC3900252
:101C6D00DFE09FFB9002DEE095F0FAE9FF9002DBEA
:101C7D00E02FFF9002DAE03400FEC0079002DCE0B6
:101C8D00FCA3E0FD9002E8E0C313FFA3E013900076
:101C9D0012CFF0A3EFF09002E4E0FFA3E090001468
:101CAD00CFF0A3EFF0D0071274C89002E2E0F975FF
:101CBD00F002A4FFC39002DFE09FFB9002DEE095EF
:101CCD00F0FAE9FF9002DBE02FFF9002DAE034003A
:101CDD00FEC006C0079002E8E0C313FEA3E013FFA9
:101CED009002DDE02FFD9002DCE03EFC9002E8E08A
:101CFD00C313FFA3E013900012CFF0A3EFF09002F7
:101D0D00E6E0FFA3E0900014CFF0A3EFF0D007D0F2
:101D1D00061274C89002E2E0F9FB7A009002DDE051
:101D2D002BFD9002DCE03AFC9002E8E0C313FEA329
:101D3D00E013FFE9F582C3EF9582FFEE940090006A
:101D4D0012F0A3EFF09002E41274B49002E8E0C335
:101D5D0013FEA3E013FF9002DDE02FFD9002DCE007
:101D6D003EFC9002E2E0F9FB7A009002E8E0C3133A
:101D7D00FEA3E013FFE9F582C3EF9582FFEE940019
:101D8D00900012F0A3EFF09002E61274B49002DE10
:101D9D00E0FEA3E0FF9002DBE02FFF9002DAE03ED1
:101DAD00FE9002E2E0F9FD7C00C3EF9DFFEE9CFE8C
:101DBD00C006C0079002DDE02DFD9002DCE03CFC8A
:101DCD00E9FB7A009002E8E0C313FEA3E013FFE9FC
:101DDD00F582C3EF9582FFEE9400900012F0A3EF11
:101DED00F09002E4E0FFA3E0900014CFF0A3EFF039
:101DFD00D007D0061274C89002DEE0FEA3E0FF907B
:101E0D0002DBE02FFF9002DAE03EFE9002E2E0F905
:101E1D00FB7A00C3EF9BFFEE9AFEC006C00790024F
:101E2D00E8E0C313FEA3E013FF9002DDE02FFD9069
:101E3D0002DCE03EFC9002E8E0C313FEA3E013FFDA
:101E4D00E9F582C3EF9582FFEE9400900012F0A3A6
:101E5D00EFF09002E6E0FFA3E0900014CFF0A3EFC7
:101E6D00F0D007D0061274C802202BE0F975F002ED
:101E7D00A4FFC39002DFE09FFB9002DEE095F0FA35
:101E8D00C003E9FF9002DBE02FFF9002DAE034009F
:101E9D00FE9002DCE0FCA3E0FD9002E4E0FBA3E099
:101EAD00900012CBF0A3EBF0D0031276C69002E2B5
:101EBD00E0F975F002A4FFC39002DFE09FFB9002F2
:101ECD00DEE095F0FAC002C003E9FF9002DBE02FDF
:101EDD00FF9002DAE03400FE9002E8E0FCA3E0FDA2
:101EED009002DCE0FAA3E02DFDEA3CCD24FFCD34D9
:101EFD00FFFC9002E6E0FBA3E0900012CBF0A3EB19
:101F0D00F0D003D0021276C69002E2E0FB7A009088
:101F1D0002DDE02BFD9002DCE03AFC9002E8E0C32C
:101F2D0013FEA3E013C39BFBEE9A9002E412730120
:101F3D009002E8E0FAA3E0FBEAC313FEEB13FF9077
:101F4D0002DDE02FFD9002DCE03EFCEAC313FEEB68
:101F5D0013FF9002E2E0FBC3EF9BFBEE94009002B7
:101F6D00E61273019002DEE0FEA3E0FF9002DBE0DB
:101F7D002FFF9002DAE03ECF24FFCF34FFFEC006E4
:101F8D00C0079002E2E0FB7A009002DDE02BFD90AD
:101F9D0002DCE03AFC9002E8E0C313FEA3E013C3B9
:101FAD009BFBEE9AFA9002E4E0FFA3E0900012CFC3
:101FBD00F0A3EFF0D007D0061273169002DEE0FE0C
:101FCD00A3E0FF9002DBE02FFF9002DAE03ECF248A
:101FDD00FFCF34FFFEC006C0079002E8E0FAA3E091
:101FED00FBEAC313FEEB13FF9002DDE02FFD900221
:101FFD00DCE03EFCEAC313FEEB13FF9002E2E0FBD4
:10200D00C3EF9BFBEE9400FA9002E6E0FFA3E09095
:10201D000012CFF0A3EFF0D007D006127316900286
:10202D00DCE0FCA3E0FD9002E2E0F9FF7E0090020F
:10203D00DAE0FAA3E02FFBEE3AFAA3E0F8A3E02FE3
:10204D00FFEE389001EDF0A3EFF0E9FF9002DAE03A
:10205D00F8A3E02FFFEE389001EFF0A3EFF0E9FFCA
:10206D009002DCE0F8A3E02FFFEE389001F1F0A331
:10207D00EFF0E9FFA3EEF0A3EFF09002E41252E5CA
:10208D009002E8E0FEA3E0FF9002DDE02FFF90025A
:10209D00DCE03EFE9002E2E0F9FB7A00C3EF9BFD2F
:1020AD00EE9AFC9002DAE0FEA3E02BFBEA3EFA90FA
:1020BD0002E8E0FEA3E0FF9002DCE0F8A3E02FFFD2
:1020CD00E83ECF24FFCF34FF9001EDF0A3EFF0E910
:1020DD00FF7E009002DAE0F8A3E02FFFEE389001CA
:1020ED00EFF0A3EFF09002E8E0FEA3E0FF9002DC3A
:1020FD00E0F8A3E02FFFE83EFEE9F582C3EF9582FD
:10210D00FFEE9400CF24FFCF34FF9001F1F0A3EF49
:10211D00F0E9FFA3E4F0A3EFF09002E61252E59090
:10212D0002DEE0FEA3E0FF9002DBE02FFB9002DA7F
:10213D00E03EFA9002E2E0F9FFC3EB9FFFEA940064
:10214D00FEC006C0079002DCE0FCA3E0FDE9FF7EC7
:10215D00009002DCE0F8A3E02FFFEE389001EDF0E7
:10216D00A3EFF09002DEE0FEA3E0FF9002DAE0F8CC
:10217D00A3E02FFFE83EFEE9F582C3EF9582FFEE67
:10218D009400CF24FFCF34FF9001EFF0A3EFF0E9DF
:10219D00FF7E009002DCE0F8A3E02FFFEE38900107
:1021AD00F1F0A3EFF0E9FFA3EEF0A3EFF09002E45E
:1021BD00E0FFA3E09001F5CFF0A3EFF09002E3E094
:1021CD009001F7F0D007D0061253019002DEE0FE29
:1021DD00A3E0FF9002DBE02FFF9002DAE03EFE90DD
:1021ED0002E2E0F9FDC3EF9DFFEE9400FEC006C0D4
:1021FD00079002E8E0FEA3E0FF9002DDE02FFF90E4
:10220D0002DCE03EFEC3EF9DFDEE9400FC9002DE8D
:10221D00E0FEA3E0FF9002DAE0FAA3E02FFBEA3E36
:10222D00FA9002E8E0FEA3E0FF9002DCE0F8A3E004
:10223D002FFFE83ECF24FFCF34FF9001EDF0A3EF49
:10224D00F09002DEE0FEA3E0FF9002DAE0F8A3E0FA
:10225D002FFFE83EFEE9F582C3EF9582FFEE940075
:10226D00CF24FFCF34FF9001EFF0A3EFF09002E801
:10227D00E0FEA3E0FF9002DCE0F8A3E02FFFE83ED4
:10228D00FEE9F582C3EF9582FFEE9400CF24FFCFD8
:10229D0034FF9001F1F0A3EFF0E9FFA3E4F0A3EF19
:1022AD00F09002E6E0FFA3E09001F5CFF0A3EFF090
:0F22BD009002E3E09001F7F0D007D00602530142
:1074B400E0FFA3E0900014CFF0A3EFF09002DAE035
:0474C400FEA3E0FF44
:1074C80090000CEEF0A3EFF0A3ECF0A3EDF0EB4A84
:1074D8006063900012E07002A3E0605990000EE033
:1074E800FCA3E0FDAE02AF0390000CE0FAA3E02F8E
:1074F800FFEA3ECF24FFFBEF34FFFA900012E0FED4
:10750800A3E0FF90000EE0F8A3E02FFFE83ECF24B1
:10751800FFCF34FF90001CF0A3EFF0900014E0FFC1
:10752800A3E090001ECFF0A3EFF090000CE0FEA3C4
:06753800E0FF126DD222FB
:102A9A00900200EEF0A3EFF0A3ECF0A3EDF0A3EAAE
:042AAA00F0A3EBF0BA
:102AAE00900204E0FEA3E0FF7C027DC3123483E4B7
:102ABE007BE87A03F9F812337AEF2401FFE43EFE45
:102ACE00E43DFDE43CFC90020C123446900204E01E
:102ADE00FEA3E0FF900204E0FCA3E0FD123483C0ED
:102AEE0004C005C006C007900204E0FEA3E0FFE4A8
:102AFE00FCFD7B02FAF9F812337AD003D002D00132
:102B0E00D000EB2FFFEA3EFEE93DFDE83CFC9002D3
:102B1E0010123446900204E0FAA3E0FBFFAE02E48A
:102B2E00FCFD900214123446C3900201E09BFF900C
:102B3E000200E09AFEC007900202E0FCA3E0FD90C6
:102B4E000205E025E0FB900204E033FA900206E075
:102B5E00FFA3E0900012CFF0A3EFF0D0071276C6DD
:102B6E009002081234520000000190020CE0FCA307
:102B7E00E0FDA3E0FEA3E0FF900208E0F8A3E0F979
:102B8E00A3E0FAA3E0FBD31234224003022E3990C5
:102B9E000214E0FCA3E0FDA3E0FEA3E0FFA804A95D
:102BAE0005AA06FB1232EFC004C005C006C007908E
:102BBE000208E0FCA3E0FDA3E0FEA3E0FFA804A949
:102BCE0005AA06FB1232EFD003D002D001D000EFDF
:102BDE002BFFEE3AFEED39FDEC38FC900210E0F8DA
:102BEE00A3E0F9A3E0FAA3E0FBC3123422400302F0
:102BFE002D4290020CE0FCA3E0FDA3E0FEA3E0FF5B
:102C0E00900214E0F8A3E0F9A3E0FAA3E0FB12347B
:102C1E00225003022D20900208A3A3E0FEA3E0FFA2
:102C2E00900201E09FFF900200E09ECF2401CF347E
:102C3E0000FEC006C007900214A3A3E0FEA3E0FFAF
:102C4E00900203E02FFD900202E03EFCC004C0059E
:102C5E00900208E0FCA3E0FDA3E0FEA3E024FFFF4A
:102C6E00EE34FFFEED34FFFDEC34FFFCE47B02FAA4
:102C7E00F9F81232EFAB07AA06900206E0FFA3E0C6
:102C8E00900012CFF0A3EFF0D005D004D007D006FD
:102C9E001276C6900208A3A3E0FEA3E0FFC3900243
:102CAE0001E09FFF900200E09ECF2401CF3400FE92
:102CBE00C006C007900214A3A3E0FEA3E0FFC390DA
:102CCE000203E09FFD900202E09EFCC004C005904E
:102CDE000208E0FCA3E0FDA3E0FEA3E024FFFFEE6C
:102CEE0034FFFEED34FFFDEC34FFFCE47B02FAF919
:102CFE00F81232EFAB07AA06900206E0FFA3E090AF
:102D0E000012CFF0A3EFF0D005D004D007D00612FA
:102D1E0076C6900214E0FCA3E0FDA3E0FEA3E0243F
:102D2E00FFFFEE34FFFEED34FFFDEC34FFFC9002AE
:102D3E0014123446900214A3A3E0FEA3E0FFC39046
:102D4E000201E09FFF900200E09EFEC006C00790C9
:102D5E000208A3A3E0FEA3E0FF900203E02FFD9084
:102D6E000202E03EFCC004C005E47F02FEFDFC90C2
:102D7E000214E0F8A3E0F9A3E0FAA3E0FB1232EFAD
:102D8E00AB07AA06900206E0FFA3E0900012CFF078
:102D9E00A3EFF0D005D004D007D0061276C690026D
:102DAE0014A3A3E0FEA3E0FFC3900201E09FFF90F7
:102DBE000200E09EFEC006C007900208A3A3E0FE3C
:102DCE00A3E0FFC3900203E09FFD900202E09EFC91
:102DDE00C004C005E47F02FEFDFC900214E0F8A3DF
:102DEE00E0F9A3E0FAA3E0FB1232EFAB07AA0690DC
:102DFE000206E0FFA3E0900012CFF0A3EFF0D005A3
:102E0E00D004D007D0061276C6900208E0FCA3E0EC
:102E1E00FDA3E0FEA3E02401FFE43EFEE43DFDE45D
:0B2E2E003CFC900208123446022B7896
:012E39002276
:107039009002F2F0A3EFF090029FE0FEA3E0FF9030
:10704900029DE0F8A3E02FFFE83E9002F4F0A3EFE1
:10705900F09002A3E0FFA3E09002F6CFF0A3EFF0D7
:08706900900293E0FEA3E0FF9A
:0E7071009002EAEEF0A3EFF0A3ECF0A3EDF036
:10707F009002F2E0FCA3E0FDD39BEC9A506C9002DF
:10708F00EAE0FEA3E0FFC3ED9FEC9E405D9002F0AF
:10709F00E0FEA3E0FF9002F4E0FCA3E0FDD39FEC41
:1070AF009E50479002ECE0FEA3E0FFC3ED9FEC9EE5
:1070BF004038900360E0FFA3E09002F8CFF0A3EF19
:1070CF00F09002F6E0FFA3E0900360CFF0A3EFF0A3
:1070DF009002F2E0FEA3E0FF127A009002F8E0FFC8
:0A70EF00A3E0900360CFF0A3EFF0E0
:0170F9002274
:1034F600E0FFA3E09002A1CFF0A3EFF09001F5E08A
:10350600FFA3E09002A3CFF0A3EFF09001E7E0FE67
:03351600A3E0FF30
