:03000000020717DD
:0C071700787FE4F6D8FD75812C02075EA7
:050A8800C100011F0484
:10040E00750804120B8A120B91120B39120B49123A
:10041E000AE2C281E508651F6008120B55C200850D
:10042E001F08E51F24FE60131460161460192403C0
:10043E0060030204F91209760204F9120AB90204E1
:10044E00F91205140204F9E51470030204F9D2A29C
:10045E00D2A7E517B4080040030204F6900471F821
:10046E002828730204890204B40204B60204C602E8
:10047E0004C80204F60204D80204E8E51814601257
:10048E001460141460161460182404705B120B555B
:10049E008056120B5E8051120B67804C120B7980C6
:1004AE0047120B7080428040E518146007047038C4
:1004BE00D2808034C2808030802EE518146007040C
:1004CE007026C2008022D200801EE518FE7C00E459
:1004DE002519F525EC3EF524800EE518FE7C00E48A
:1004EE002519F527EC3EF526E4F514300006120921
:1004FE0007020422E51F640370030204227522FC26
:06050E0075232602042201
:100B0300E4FDFCC3ED9FEC9E5013E4FB0BBBC8FC60
:0D0B1300E4FB0BBB66FC0DBD00010C80E691
:010B200022B2
:10097600209305752A01800B209405752A028003B1
:10098600E4F52AE52A14600A146016240270290286
:100996000B5E120B677FC87E00120B03120B708072
:1009A6000D120B677FC87E00120B03120B797FC8EE
:0909B6007E00120B03120B552206
:10068600EF24FE60231460431460632403600302B6
:100696000716C280C2817FF47E01120B03D280D27C
:1006A600817FF47E01020B03E4F511C280C2817FD3
:1006B600F47E01120B03D280D2817FF47E01120BED
:1006C600030511E511C3940240E122E4F511C2804D
:1006D600C2817FF47E01120B03D280D2817FF47E29
:1006E60001120B030511E511C3940340E122E4F561
:1006F60011C280C2817FF47E01120B03D280D281A7
:100706007FF47E01120B030511E511C3940440E149
:0107160022C0
:090B5500C2A5C2A6C2A4C2A322DB
:090B5E00D2A5C2A6D2A4C2A322B2
:090B6700C2A5D2A6C2A4D2A322A9
:090B7000D2A5C2A6C2A4D2A322A0
:090B7900C2A5D2A6D2A4C2A32297
:070B8A00D2AFD2AAD28A22E9
:030013000207A33E
:1007A300C0E0C0F0C083C082C0D075D000C000C01C
:0D07B30001C002C003C004C005C006C0079D
:1007C000750F4E751020209720051FE51FD3940448
:1007D0004003751F01E51FC394045005120B2180CF
:1007E00003120AE2AF1F120686E510450F6013E5FB
:1007F0001015107002150F2097EF750F4E75102011
:0408000080E7C28B40
:10080400D007D006D005D004D003D002D001D00048
:0B081400D0D0D082D083D0F0D0E032F2
:040A8D00021D000046
:0C0B4900E4F5CBF5CAD2AFD2ADC2CA228F
:03002B00020006CA
:03000600C2CF3234
:070B9100D2AFD2A8D28822E6
:0300030002089858
:10089800C0E0C0F0C083C082C0D075D000C000C026
:1008A80001C002C003C004C005C006C007C2CAAF69
:1008B800CDEFFEADCC7C00E42DFDEC3EFCE4120156
:1008C800397B747A247997783C12002E1201728E43
:1008D8001D8F1ED3E51E9490E51D94014006751DDD
:1008E80001751E90D007D006D005D004D003D002E1
:0F08F800D001D000D0D0D082D083D0F0D0E03269
:100A4600E4FF7D507CC3F5CDF5CCD2B4000FBF05D5
:100A5600FBC2B420B20BED4C6007ED1D70F51C8097
:100A6600F2ED4C6004D2CA8006751D01751E907C9D
:100A7600C37D5030B20BED4C6007ED1D70F51C8048
:010A8600F27D
:010A8700224C
:10051400AE22AF23E4FCFD7B587AFCF9F8C3120247
:100524000160117522FC752358C2817F207E03125D
:100534000B03D281120A467F017E00120B03851D34
:1005440009851E0AD3E50A941EE509940050451254
:100554000B557522FE7523B0C2817F207E03120BDA
:1005640003D281120A467F027E00120B03851D0D01
:10057400851E0E7522F9752338C2817FB07E041260
:100584000B03D281120A467F027E00120B03851DE3
:100594000B851E0CD3E50A941EE509940040030262
:1005A4000B5EC3E50C950EE50B950D4010D3E50CE1
:1005B400941EE50B94004005120B798013D3E50ECD
:1005C400941EE50D94004005120B708003120B6716
:0A05D4007FC87E00120B03120B55C6
:0105DE0022FA
:100AB90030B505752B01800B30B605752B02800307
:100AC900E4F52BE52B14600A14600A24027009026C
:090AD9000B5E020B79120B702276
:100AE200C28EC2ABC2A2C2A7758921759850758DFC
:100AF200FD858D8BE4F58775B810D2AFD2ACD28E5E
:010B020022D0
:080B82008F993099FDC2992200
:03002300020A03CB
:100A0300C0E0C0F0C083C082C0D075D000C000C0B9
:100A130001C002C003C004C005C006C00730980867
:100A2300C29885992C12081FD007D006D005D00490
:100A3300D003D002D001D000D0D0D082D083D0F068
:030A4300D0E032CE
:0C0A910001150001120001130001140007
:10081F00E5147074E513600405158003E4F515E520
:10082F002CB4FE1DE5136005751201803AE51270B8
:10083F0009751201F513F515802DE4F512F51580E4
:10084F0026E512600FE52CB4EF0AE4F512751301DB
:10085F00F5158013E5137004F512800BE512600790
:10086F00E5136003E4F512E513601DE515D394005D
:10087F00401674162515F8A62CE515D394024008DA
:09088F00751401E4F512F51322C1
:050A9D00012800C181E9
:10090700E528C394B45007300104742D800BE52803
:10091700C3942D4019C20174D32528F52875F00911
:10092700A4AEF02438F523EE34F9F5228002D20183
:100937007F967E00120B03120A467FFE120B827F00
:10094700EF120B827F05120B82E4FF120B82E4F594
:1009570029AF29120B82852829AF29120B82E51DA1
:0F096700F529AF29120B82851E29AF29020B82B9
:0F0AA2000224FAC80226FB900222FC5801210010
:100B3900438901758CDCE4F58AD2AFD2A9D28C2223
:03000B000202E509
:1002E500C0E0C0F0C083C082C0D075D000C000C0DF
:0D02F50001C002C003C004C005C006C00760
:10030200E52114602514604E146057147003020333
:100312009014700302039B240560030203E7D2904A
:10032200E524F58C85258A0203E7C290AE24AF2529
:10033200AB07AA06E4C39BFF74DC9AFE7401940027
:10034200FDE49400FCE4FB7A01F9F81209BF8F8CFA
:10035200AE24AF25806DD291E526F58C85278A02E1
:1003620003E7C291AE26AF27AB07AA06E4C39BFF01
:1003720074DC9AFE74019400FDE49400FCE4FB7AC0
:1003820001F9F81209BF8F8CAE26AF278035D292C1
:10039200E522F58C85238A804CC292AE22AF23AB34
:1003A20007AA06E4C39BFF74DC9AFE74019400FD65
:1003B200E49400FCE4FB7A01F9F81209BF8F8CAED9
:1003C20022AF23AB07AA06E4C39BFF74DC9AFE7438
:1003D200019400FDE49400FCE4FB7A01F9F81209AF
:1003E200BFAF038F8A0521E521D394054003752110
:0103F200000A
:1003F300D007D006D005D004D003D002D001D0005E
:0B040300D0D0D082D083D0F0D0E03207
:070AB100021BEDFF011A001A
:100B2100C28EC2ACC2A7C2A2758911758DDCE4F573
:080B31008BD2AFD2ABD28E22B1
:03001B000205DFFC
:1005DF00C0E0C0F0C083C082C0D075D000C000C0E2
:0D05EF0001C002C003C004C005C006C00763
:1005FC00E51A14601004705BD2A7D2A2E51BF58D2E
:10060C00851C8B804EC2A7C2A2AE1BAF1CAB07AA27
:10061C0006E4C39BFF74DC9AFE74019400FDE49421
:10062C0000FCE4FB7A01F9F81209BF8F8DAE1BAF09
:10063C001CAB07AA06E4C39BFF74DC9AFE740194FE
:10064C0000FDE49400FCE4FB7A01F9F81209BFAF59
:0F065C00038F8B051AE51AD394014003751A001A
:10066B00D007D006D005D004D003D002D001D000E3
:0B067B00D0D0D082D083D0F0D0E0328D
:10002E00EC4D6011E8497017ED33EC3304600DE4CC
:10003E00FCFFFEFD22E933E8330470F80201DE1204
:10004E0001A958046009E4CC248150062850090205
:10005E0001E82840030201E5C0E0EB4A7044B98094
:10006E0006D0E0FB0201D4EF4E701CBD8008EBFF02
:10007E00EAFEE9FD80EBE98DF0A4FEE5F002011742
:10008E00E9CDF9EAFEEBFFEF89F0A4FCE5F0CE89AD
:10009E00F0A42EFFE435F0CD89F0A42DFEE435F06A
:1000AE008067EF4E7005BD80D780C3EF8BF0A4AC98
:1000BE00F0EE8BF0A42CFCE435F0F8EF8AF0A42CD3
:1000CE00E5F038FCE433CB8DF0A42CFCE5F03BF8E6
:1000DE00EE8AF0A42CFCE5F038F8E433CF89F0A4D6
:1000EE002CFCE5F038CF3400CE89F0A42FFFE5F0DC
:1000FE003EFEE433C98DF0A42EFEE5F039CD8AF034
:10010E00A42FFFE5F03EFEE43DFD33D0E0FB5007AB
:10011E000BBB000F0201E8EC2CFCEF33FFEE33FEBD
:06012E00ED33FD0201C0EB
:1001340075F020800E75F010800575F0087D007E46
:10014400007F003392D530D5031201F3EC33401015
:10015400EF33FFEE33FEED33FDEC33FCD5F0ED224F
:0E016400E5F0247EA2D513CC92E7CDCEFF228B
:10017200EDD2E7CD33EC3392D524814006E4FFFE85
:10018200FDFC22FCE4CFCECDCC24E0501174FF80E4
:10019200EDC3CC13CCCD13CDCE13CECF13CF047081
:0701A200F030D5DE0201F38D
:1001A900E9D2E7C933E833F892D5EDD2E7CD33EC9C
:0701B90033FC5002B2D52215
:1001C000EC30E7100FBF000C0EBE00080DBD0004A0
:1001D0000BEB6014A2D5EB13FCED92E7FD2274FF4C
:1001E000FCFDFEFF22E480F8A2D574FF13FC7D80A5
:0301F000E480EFB9
:1007230002040EE493A3F8E493A34003F68001F2DA
:1007330008DFF48029E493A3F85407240CC8C333D7
:10074300C4540F4420C8834004F456800146F6DFA6
:10075300E4800B0102040810204080900A88E47EA4
:10076300019360BCA3FF543F30E509541FFEE4939B
:10077300A360010ECF54C025E060A840B8E493A362
:10078300FAE493A3F8E493A3C8C582C8CAC583CA8D
:10079300F0A3C8C582C8CAC583CADFE9DEE780BE45
:010AB800003D
:1009BF00C2D5E830E70FB2D5E4C39BFBE49AFAE463
:1009CF0099F9E498F8EC30E717B2D51209F512024D
:1009DF0053E4C39BFBE49AFAE499F9E498F8800393
:1009EF0012025330D50DE4C39FFFE49EFEE49DFD3C
:0409FF00E49CFC2256
:0E01F300C3E49FFFE49EFEE49DFDE49CFC221D
:10020100EB9FF5F0EA9E42F0E99D42F0EC6480C874
:0602110064809845F02214
:1002170075F008758200EF2FFFEE33FECD33CDCC9E
:1002270033CCC58233C5829BED9AEC99E582984021
:100237000CF582EE9BFEED9AFDEC99FC0FD5F0D6FE
:10024700E4CEFBE4CDFAE4CCF9A88222B800C1B928
:100257000059BA002DEC8BF084CFCECDFCE5F0CB66
:10026700F97818EF2FFFEE33FEED33FDEC33FCEB9F
:1002770033FB10D703994004EB99FB0FD8E5E4F95A
:10028700FA227818EF2FFFEE33FEED33FDEC33FC47
:10029700C933C910D7059BE99A4007EC9BFCE99A3B
:1002A700F90FD8E0E4C9FAE4CCFB2275F010EF2F80
:1002B700FFEE33FEED33FDCC33CCC833C810D70780
:1002C7009BEC9AE899400AED9BFDEC9AFCE899F8BB
:0E02D7000FD5F0DAE4CDFBE4CCFAE4C8F9224E
:00000001FF
