:10766200426173652047726170686963616C20547E
:0476720065737400C8
:1056E10090023474F8F0A3E4F090022DE0FAA3E004
:1056F100FBEAC313FEEB1324ACFFEE34FFFEA3E081
:10570100FDA3E0900006CDF0A3EDF0A37410F0A38B
:1057110074FFF0A37476F0A37462F0E4FDFC1265EB
:105721009474FF900234F0A3F07BE07A077D147C3F
:10573100007F0A7E001263B3900006E4F0A3741E9A
:10574100F0A37405F074FFA3F0A3F07B787A007DD9
:105751001E7C007F0A7E00123767900006E4F0A3EA
:10576100741EF0A3E4F0A3741FF07B1E7A007D2861
:105771007C007F0A7E00126A9E900006E4F0A3740A
:105781001EF0A37405F0A37401F0A374FFF0A374D9
:10579100E0F0A37407F0A374E0F07B1E7A007D288B
:1057A1007C007F327E00121C19900016E4F0A37475
:1057B1001EF0A374FCF0A37407F07B1E7A007D2811
:1057C1007C007F5A7E00126F42900006E4F0A374C1
:1057D1000AF0A37407F0A374FFF07B147A007D64D0
:1057E1007C007F1E7E001239D390002574F8F0A34F
:1057F100741FF07B147A007D647C007F507E001260
:105801002A9A900006E4F0A3740AF074FFA3F0A3AF
:10581100F07B147A007D827C007F1E7E001222CCF8
:10582100900016E4F0A374B4F0A3E4F0A37450F074
:10583100A3E4F0A374A0F0A3E4F0A37414F074FF44
:10584100A3F0A3F0E4A3F07B64FA7D8CFC7F3CFE23
:03585100024EE81C
:0B76A8001276371240C81256E180FE37
:0B76B300EF1FAC0670011E4C70F622A9
:1075FC00D3EF9400EE940040147D6E7C00ED1D7072
:0D760C00011CED4C70F7EF1F70E61E80E3CF
:01761900224E
:05768A00420085000034
:10763700759850758920758780758DFA858D8BD2E1
:06764700AFD28ED29922A1
:0676C900EF24FF92AC2249
:0E769A00C2ACC2998F993099FDC299D2AC2230
:107503009002A0EBF0A3EAF0A3E9F09002A0E0FB65
:10751300A3E0FAA3E0F912319FFF601612769A7F77
:10752300057E001276B39002A1E475F00112325E7B
:0375330080D922DA
:03002300026FB8B1
:106FB800C0E0C083C082C0D075D000C004C005C086
:016FC80007C1
:106FC900309864C298AF99900085E0FCEC20E757AF
:106FD90030E60FEF640A90008560028046E0448045
:106FE900800AEFB40D0C900085E04440F0A3E0F076
:106FF9008035900085E0543FFCA3E02453F582746A
:10700900003CF583EFF0900086E004F070069000F4
:1070190085E004F0D3900086E09431900085E094F7
:07702900004004E4F0A3F0B5
:0F703000D007D005D004D0D0D082D083D0E032AA
:10002600204C43442049443A25780D0A000000003C
:10003600000000000000000000000000003F40003B
:1000460000000000000000300040003000400000CA
:100056000009000BC03D000BC03D00090018C0247C
:10006600407FE0224031800000180024C01B000DB4
:10007600803240018003801C4027401C80074000DE
:1000860040100060000000000000000000000000BA
:100096000000001F80204040200000402020401F1C
:1000A6008000000000090006001F8006000900000D
:1000B60000040004003F800400040000000010005B
:1000C60060000000000000000004000400040004BA
:1000D60000040000000000004000000000000000D6
:1000E60000002001C006003800400000001F8020EC
:1000F60040204020401F800000000010403FC0000C
:10010600400000000018C021402240244018400052
:100116000010802040244024401B80000002000D77
:100126000011003FC0014000003C802440244024D0
:1001360040238000001F8024402440344003800078
:10014600003000200027C03800200000001B80245B
:1001560040244024401B8000001C0022C022402274
:10016600401F800000000000000840000000000062
:100176000000000000046000000000000000000411
:10018600000A00110020804040090009000900090A
:10019600000900000000004040208011000A000411
:1001A600001800200023402400180000001F8020B3
:1001B60040274029401F400000004007C039000F7B
:1001C6000001C0004020403FC0244024401B800066
:1001D600001F802040204020403080000020403F0B
:1001E600C0204020401F80000020403FC024402EF9
:1001F6004030C0000020403FC024402E00300000A8
:10020600000F001080204022403380020020403F33
:10021600C0040004003FC02040204020403FC020D2
:1002260040204000000060202020203FC020002009
:100236000020403FC024400B0030C0204020403FFB
:10024600C020400040004000C03FC03C0003C03C0E
:10025600003FC0000020403FC00C4023003FC020AC
:10026600001F802040204020401F80000020403F8B
:10027600C024402400180000001F80214021402097
:10028600E01FA0000020403FC02440260019C00007
:100296004018C02440244022403180000030002015
:1002A600403FC020403000000020003F800040005A
:1002B600403F80200020003E0001C007003800209B
:1002C60000380007C03C0007C03800000020403955
:1002D600C0060039C0204000002000384007C03862
:1002E6004020000000304021C02640384020C00099
:1002F60000000000007FE040204020000000007069
:10030600000C000380004000000000402040207FD9
:10031600E000000000000020004000200000000077
:100326000000100010001000100010001000000067
:1003360000400000000000000000000280054005AB
:100346004003C0004020003FC0044004400380003A
:100356000000000380044004400640000000000343
:1003660080044024403FC000400000038005400553
:100376004003400000000004401FC02440244020E9
:1003860000000002E0055005500650042020403FC2
:10039600C00440040003C000400000044027C00021
:1003A600400000000000100010041027E0000000CC
:1003B6000020403FC00140070004C0044020402008
:1003C600403FC000400040000007C0040007C004D2
:1003D6000003C00000044007C00440040003C0003E
:1003E600400000038004400440038000000410071E
:1003F600F004500440038000000000038004400421
:100406005007F00010044007C0024004000400003A
:1004160000000006400540054004C000000000043E
:10042600001F8004400040000004000780004004D4
:100436004007C000400400070004C0018006000415
:1004460000060001C0070001C006000000044006C7
:10045600C0010006C0044000000410071004E001BB
:1004660080060004000000044005C0064004400069
:10047600000000000004007BE040200000000000B7
:10048600000000FFF000000000000040207BE004B8
:1004960000000000004000800040002000200040D6
:1004A6000000000000000000000000000000000046
:1004B600000000000000001FCC000C00000000003F
:1004C60000000008003000600008003000600000F6
:1004D60000022003FC1E20022003FC1E2002200036
:1004E6000000000E1811043FFF10840C7800000075
:1004F600000F0010840F3800C007781884007800B9
:100506000000780F8410C411240E9800E4008400C3
:1005160008080068007000000000000000000000ED
:100526000000000000000007E01818200440020048
:1005360000000040022004181807E0000000000038
:10054600000240024001800FF0018002400240009C
:10055600000080008000800FF8008000800080008E
:10056600000001000D000E00000000000000000069
:100576000000000080008000800080008000800075
:10058600800000000C000C000000000000000000CD
:100596000000000006001800600180060018002018
:1005A60000000007F0080810041004080807F0000F
:1005B600000000080408041FFC00040004000000FA
:1005C6000000000E0C10141024104411840E0C00B0
:1005D6000000000C1810041104110412880C70009D
:1005E60000000000E00320042408241FFC0024006F
:1005F6000000001F98108411041104108810700068
:1006060000000007F0088811041104188800700023
:100616000000001C00100010FC13001C001000005D
:100626000000000E3811441084108411440E380066
:100636000000000700088C10441044088807F000EA
:1006460000000000000000030C030C000000000086
:10065600000000000000010106000000000000008C
:100666000000000080014002200410080810040069
:100676000002200220022002200220022002200086
:100686000000001004080804100220014000800049
:100696000000000E001200100C106C10800F0000FD
:1006A6000003E00C1813E4142417C4082807D0002C
:1006B600000004003C03C41C40074000E4001C008A
:1006C6000410041FFC1104110411040E88007000AC
:1006D6000003E00C1810041004100410081C10008D
:1006E6000010041FFC100410041004080807F00092
:1006F6000010041FFC1104110417C410040818008C
:100706000010041FFC1104110017C010000800009F
:100716000003E00C181004100410441C780040007C
:100726000010041FFC10840080008010841FFC1041
:10073600040000100410041FFC1004100400000044
:100746000000030001100110011FFE100010000040
:100756000010041FFC110403801464181C1004000C
:100766000010041FFC1004000400040004000C0028
:100776000010041FFC1F0000FC1F001FFC100400DB
:100786000010041FFC0C04030000E010181FFC10EE
:100796000007F00808100410041004080807F00009
:1007A6000010041FFC10841080108010800F0000C1
:1007B6000007F0081810241024101C080A07F2007D
:1007C6000010041FFC1104110011C011300E0C00A2
:1007D6000400000E1C11041084108410441C380000
:1007E600001800100010041FFC1004100018000070
:1007F6000010001FF810040004000410041FF81075
:100806000010001E0011E0001C007013801C001078
:10081600001FC0103C00E01F0000E0103C1FC0009D
:10082600001004180C163401C001C01634180C1040
:100836000410001C00130400FC13041C001000002C
:10084600000804101C1064108413041C0410180003
:10085600000000000000007FFE400240024002004F
:1008660000000030000C0003800060001C00030044
:100876000000004002400240027FFE00000000002F
:100886000000000000200040004000400020000062
:10089600000001000100010001000100010001004B
:1008A60001000040004000200000000000000000A1
:1008B6000000000098012401440144014400FC00AA
:1008C6000410001FFC008801040104008800700069
:1008D6000000000070008801040104010400880083
:1008E600000000007000880104010411081FFC00CC
:1008F60004000000F8014401440144014400C8001A
:10090600000000010401040FFC1104110411001879
:1009160000000000D601290129012901C9010600AC
:100926000010041FFC008401000100010400FC000B
:100936000400000104190419FC000400040000006E
:10094600000000000300010101190119FE0000006A
:100956000010041FFC0024004001B4010C01040037
:10096600000000100410041FFC0004000400000036
:1009760000010401FC0104010001FC010401000066
:10098600FC010401FC008401000100010400FC00DC
:1009960004000000F8010401040104010400F80049
:1009A60000010101FF0085010401040088007000B8
:1009B6000000000070008801040104010501FF0029
:1009C600010104010401FC0084010401000180000E
:1009D60000000000CC012401240124012401980018
:1009E6000000000100010007F801040104000000F6
:1009F60000010001F8000400040004010801FC00E5
:100A060004010001800170000C00100160018001EA
:100A16000001F0010C003001C00030010C01F001B2
:100A26000000000104018C00740170018C010400B7
:100A360000010101810171000E00180160018001B1
:100A46000000000184010C013401440184010C0002
:100A560000000000000000000001003EFC400240D3
:100A6600020000000000000000FFFF000000000080
:100A7600000000400240023EFC01000000000000B1
:100A86000000006000800080004000400020002040
:100A96000000000000000000000000000000000050
:100AA6000000000000000000000000000000000040
:100AB6000000000000000000000000000000000030
:100AC600000000000F80380FFE380F80380000004D
:100AD600000000000000000000000000000000010F
:100AE60000000600000C000038000031000006007F
:100AF600000C00003800003000000000000000007C
:100B06000061800067F807F980006180006180005D
:100B160061800061800067F807F98000618000004D
:100B26000000000000000001C0E003E0F00630080D
:100B36000418081FFFFE040E080787F00381E00073
:100B4600000000000001F000060C00040408060C7A
:100B56007001F9C0000E00003BE000EC1807080821
:100B6600040C180003E00000000001E00007F00399
:100B7600F818041C0804170807E1D003C0E0002396
:100B8600B0003C0800200800001000000000000033
:100B96000100003100003200001C000000000000CF
:100BA600000000000000000000000000000000003F
:100BB600000000000000000000000000000000002F
:100BC600007F0001FFC00780F00C00181000042011
:100BD60000020000000000002000021000040C00CB
:100BE600180780F001FFC0007F0000000000000031
:100BF60000000000000000000000000000420000AD
:100C06006600006600003C0000180003FFC00018E4
:100C160000003C0000660000660000420000000084
:100C26000008000008000008000008000008000195
:100C3600FFC00008000008000008000008000008C7
:100C46000000000000000100003100003200001C1E
:100C5600000000000000000000000000000000008E
:100C66000000000000000000000800000800000866
:100C76000000080000080000080000080000080046
:100C8600000800000800000000000000000000004E
:100C960000380000380000380000000000000000A6
:100CA600000000000000000000000000000000003E
:100CB60000000600001C000070000180000E00000D
:100CC600380000C0000700001C00003000000000D3
:100CD60000000000007F8001FFE00380700600181E
:100CE60004000804000806001803807001FFE000F5
:100CF6007F800000000000000000000100080100E5
:100D06000801000803FFF807FFF8000008000008C4
:100D160000000800000000000000000001C03802CA
:100D2600C058040098040118040218040418061C8C
:100D36001803F81801E0F8000000000000000000A9
:100D460001C0E003C0F0040008040808040808060F
:100D5600180803F41801E7F00001E00000000000A5
:100D660000000000000300000D00001100006100FB
:100D760000810803010807FFF80FFFF800010800CB
:100D860001080000000000000000E007FCD0060893
:100D960008061008061008061008061838060FF090
:100DA6000607C0000000000000000000003F8001B0
:100DB600FFE0038430020818041008041008041029
:100DC60008071810030FF00007C00000000000001D
:100DD60000000003C0000700000600000600F80639
:100DE60007F806180006E0000700000600000000ED
:100DF6000000000001E1E003F7F0063410041808D3
:100E0600041808040C08040C0806161803F3F0016D
:100E1600C1E000000000000000F80003FC300306FB
:100E2600380402080402080402080404100308F047
:100E360001FFC0007F00000000000000000000006D
:100E460000000000000000000070380070380070DC
:100E56003800000000000000000000000000000054
:100E660000000000000000000000000000301A0032
:100E7600301C000000000000000000000000000020
:100E8600000000000000000008000014000022001E
:100E9600004100008080010040020020040010088C
:100EA60000080000000000000021000021000021D1
:100EB6000000210000210000210000210000210087
:100EC60000210000210000000000000000000008D2
:100ED600000804001002002001004000808000414C
:100EE60000002200001400000800000000000000BE
:100EF60003C00004C000040000080038080F3808CA
:100F060008380810000C300007E00003C00000009D
:100F160000000000003F8000FFE0038070020F1019
:100F260006708804C088048308047F8802C0900382
:100F3600012000FE400000080000180001F8003EF5
:100F46000801C20007020007E20000FE00001FC8F9
:100F56000001F800003800000804000807FFF80741
:100F6600FFF8040808040808040808040808061816
:100F76000803F41801E7F00001E00000000000009B
:100F8600003F8001FFE0038070020018040008049F
:100F960000080400080400100600200780C00000B6
:100FA6000004000807FFF807FFF80400080400081B
:100FB60004000804001802001003807001FFE0001E
:100FC6007F8000000004000807FFF807FFF8040808
:100FD60008040808040808040808043E0804000871
:100FE60006001801006000000004000807FFF8076B
:100FF600FFF8040808040800040800040800043E7A
:10100600000600000600000180000000000000004D
:10101600003F8001FFE0038070060018040008040A
:1010260002080402080203F00783F000020000022F
:101036000004000807FFF807FFF804080800080086
:1010460000080000080000080004080807FFF80769
:10105600FFF8040008000000000000040008040077
:101066000804000807FFF807FFF804000804000852
:101076000400080000000000000000000000060058
:10108600000700000104000104000104000307FF3B
:10109600FE07FFFC04000004000004000004000832
:1010A60007FFF807FFF8040C08001800003E0004CC
:1010B600C7800503C80600F80400380400180000BD
:1010C6000804000807FFF807FFF8040008000008F6
:1010D60000000800000800000800000800001800D2
:1010E600006000000004000807FFF807800807FCFE
:1010F60000007FC00003F80007C0007800078008E2
:1011060007FFF807FFF804000804000807FFF807C0
:10111600000803C00000E000003800001E000007C1
:10112600000001C00400F007FFF804000000000002
:10113600007F8001FFE003807006001804000804A9
:10114600000806001803003001FFE0007F80000061
:101156000004000807FFF807FFF804040804040069
:10116600040400040400040400060C0003F8000153
:10117600F000000000000000007F8001FFE0038017
:10118600700600880400880400C806003C03003E80
:1011960001FFE6007F8400000004000807FFF8074F
:1011A600FFF8040808040800040C00040F00040BF0
:1011B600C00610F003F03801E00800000800000047
:1011C60001E0F803F030063010041808041808048B
:1011D6000C08040C080206180207F00781E000005C
:1011E600000180000600000400000400000400085E
:1011F60007FFF807FFF804000804000004000006D3
:10120600000001800004000007FFE007FFF0040073
:101216001800000800000800000800000800000888
:1012260004001007FFE004000004000006000007A9
:10123600E00007FE00041FE00001F800003800018E
:10124600E0043E0007C000060000040000040000A1
:1012560007E00007FFC0041FF80007C007F80007F3
:10126600FF80043FF80007C004F8000700000400F0
:101276000000000004000806001807C07805F1C841
:10128600003E00001F800463E80780F8060018048B
:10129600000800000004000006000007800007E0C8
:1012A60008047C08001FF80007F800180804E00886
:1012B6000700000600000400000000000100080608
:1012C60000380400F80403E8040F08047C0805F05D
:1012D6000807C008070018040060000000000000AE
:1012E6000000000000000000000000003FFFFE209C
:1012F600000220000220000220000220000200005E
:101306000000000000000008000007000000C00008
:101316000038000006000001C000003000000E008A
:101326000001000000000000000000200002200074
:10133600022000022000022000023FFFFE00000003
:101346000000000000000000000000000000000097
:1013560000000800001000003000002000003000EF
:10136600001000000800000000000000000000015E
:101376000000010000010000010000010000010062
:101386000001000001000001000001000001000052
:101396000100000000000000000020000020000006
:1013A6001000001000000000000000000000000017
:1013B60000000000000000000000F00019F8001B0B
:1013C60018002208002608002408002410003FF810
:1013D600001FF800000800001800000004000007C5
:1013E600FFF80FFFF0001818001008002008002072
:1013F60008003018001FF0000FC0000000000000B9
:101406000007C0001FF00018300020080020080068
:101416002008003C08001C100000600000000000CE
:10142600000000000007C0001FF000381800200868
:1014360000200800200804101007FFF80FFFF00036
:1014460000100000000000000000000007C0001FA0
:10145600F00012300022180022080022080032088C
:10146600001E10000E2000000000000000200000FA
:10147600200800200801FFF803FFF80620080420D2
:1014860008042008072000030000000000000000F8
:1014960000000E000E6E001FF30031B10020B100F7
:1014A60020B1003191001F13002E1E00200E0030C7
:1014B6000000000004000807FFF80FFFF8001008FE
:1014C600002000002000002008003FF8001FF80060
:1014D60000080000000000000000000020080020B6
:1014E60008002008063FF8063FF80000080000083C
:1014F60000000800000000000000000000000000DE
:101506000003000003002001002001002003063F25
:10151600FE063FFC00000000000000000000000086
:1015260004000807FFF80FFFF80001880003000019
:101536002FC00038F80020380020080000080000FE
:101546000000000000000004000804000804000871
:1015560007FFF80FFFF80000080000080000080069
:101566000000000000002008003FF8003FF80010CF
:1015760008002000003FF8003FF800100800200097
:10158600003FF8003FF800000800000000200800B7
:101596003FF8003FF800100800100000200000206F
:1015A60008003FF8001FF8000008000000000000D7
:1015B6000007C0000FF000183000300800200800B7
:1015C6002008003008001830000FF00007C00000A7
:1015D60000000000002001003FFF003FFF00101147
:1015E600002009002008002008003038001FF00005
:1015F6000FC00000000000000007C0001FF0003808
:1016060018002008002008002009001011001FFF04
:10161600003FFF0000010000000020080020080035
:101626002008003FF8003FF80008080010080020D6
:10163600080020000030000030000000000000001C
:10164600000000000C78001E180033080023080074
:1016560021080021880021980030F0003860000041
:101666000000000000200000200000200000FFF025
:1016760003FFF800200800200800200800003000C2
:101686000000000000000000002000003FF0007F86
:10169600F8000018000008000008002010003FF8BD
:1016A600007FF00000100000000000000020000095
:1016B6003000003C00003F800023F000007800006E
:1016C60070002380003C0000300000200000200055
:1016D600003C00003FE00023F80000E00027000087
:1016E6003E00003FE00021F80001E0003E0000203F
:1016F60000000000002008002008003838003E687E
:101706000027800003C8002CF80038380020180095
:101716002008000000000000002000003003003C0C
:1017260001003F830023EC000070002380003C0092
:101736000020000020000000000000000000000063
:1017460038080020380020F80023E8002F88003EE3
:101756000800380800201800007000000000000093
:10176600000000000000000000000000000800006B
:1017760014001FF7FC3000062000020000000000E5
:101786000000000000000000000000000000000053
:10179600000000FFFFFF0000000000000000000046
:1017A60000000000000000000000002000023000E1
:1017B600061FF7FC001400000800000000000000EF
:1017C600000000000000000000000000180000609B
:1017D600000040000040000020000010000008004B
:1017E600000400000400000C0000100000C6D50034
:1017F60000000000E0380000783C00003C78000063
:101806003C70C0001CE1E01FFFFFF0001CE3000E6F
:101816001CE7C0079CE78003DCEF0003DCEE000159
:10182600DCFC60009CF9F07FFFFFF800000000017F
:10183600C00E0001FFFF0001C00E0001C00E000136
:10184600C00E0001FFFE0001C00E0001C00E000127
:10185600C00E0001FFFE0001C00E0001C00E000018
:10186600000000D6D000000000000700000007803E
:101876000000070000000700000007000000070145
:10188600801FFFFFE01FFFFFE01E0701C01E0701CC
:10189600C01E0701C01E0701C01E0701C01E0701AA
:1018A600C01FFFFFC01FFFFFC01E0701C01C0701AE
:1018B6008000070000000700000007000000070086
:1018C60000000700000007000000070000000700F6
:1018D600000007000000000000BFC6000000000076
:1018E600000780003C07C001FC07803FE007803905
:1018F600C1C78001C0E78001C0F78001C0778001C1
:10190600DE77807FFE078001C0078003C3C78003A0
:10191600E1E78003F8F78007FCE7F00FDE67F80FD2
:10192600DC07F81FC0FF801DDFE78039CC07807118
:10193600C0078061C0078001C0078001C007800121
:10194600E0078001E0078001C0070000000000BC3E
:10195600BC000000000380300003C03C0003C03C14
:101966000003C0380003C0380003C0386003F838ED
:10197600F07FFFFFF003C0380003C0380003C03813
:101986000003DC39C003FFFFE007E383C03FC183E8
:10199600C07FC1C3803BC1C78003C0EF0003C0EF57
:1019A6000003C07E0003C07C0003C07C0003C0FEB1
:1019B600003BC3EF803F8787F80FBF03F807780027
:1019C600E000000000C4EA0000000000C0000001C2
:1019D600F0000001E0000003C000C003C001E00702
:1019E600FFFFF00703C0000E03C0001E03C0003C4B
:1019F60003C3007303C78063FFFFC00383C00003F4
:101A060083C0000383C0000383C0000383C0600358
:101A160083C0F07FFFFFF80003C0000003C0000092
:101A260003C0000003C0000003C0000003C00000A4
:101A360003C0000003C00000000000D4C200000084
:101A4600000000000000E0070000FFFF8000F00734
:101A56008000F0070000F0070000F0070000F00724
:101A66000000FFFF0000FFFF0000F0070000F00786
:101A76000000F0070000F0070000E0070000FFFF8D
:101A86000000E0070000E0070000E0070001E007B3
:101A96000001C0070001C00700038007000780F7A8
:101AA600000F007F001E001F0038001C0000000011
:101AB60000C8D5000000000000000003000300037A
:101AC600FFFF8003FFFF80038007000380070003FA
:101AD60080070003800700038007000380070003D8
:101AE6008007000380070003FFFF00038007000351
:101AF60080070003800700038007000380070003B8
:101B060080070003800700038007000380070003A7
:101B1600FFFF000380070003800700038007000320
:101B260000000000000000D0C70000000000000018
:101B3600000380070003FFFF800380070003800780
:101B4600000380070003FFFF0003800700038007F0
:101B56000003FFFF0003FFFF00038707000387C0A2
:101B66000003C7810003C7838007FFFFC007078004
:101B7600000F0780001E0786001C078F003BFFFF33
:101B8600807007800000078000000780E000078162
:101B9600F07FFFFFF80000000000000000C6DA003A
:101BA60000000006000000079E0000079E7FF00769
:101BB6009E7FF0079FF8F03FFFF8F01F9E78F00732
:101BC6009E78F0079E78F007FE7FF0079E78F00774
:101BD6009E78F0079E70F007FE70F0079E70F00783
:101BE6009E7FF0079FFFF03FFFF0F0119070F0032B
:101BF600DCF0F003DEE0F0078FE0F00F0FE0F00E10
:101C060007C0F01C038FF0380F03E0201C01C00052
:031C1600000000CB
:0A768F00420234FFFF420236000001
:10000300E4FDFCC3ED9FEC9E5014E4FBFA0BBB0034
:0E001300010AEBF44A70F60DBD00010C80E509
:0100210022BC
:087564007E0012756CE4FFFECD
:04756C00AD07AC06B5
:10757000ECFFAE05D2A5C2A7D2B2C2A68F90C2A51B
:0C758000D2A5AF068F90C2A5D2A5D2A75D
:01758C0022DC
:0D7536007E0012756C90004BE0FEA3E0FF9C
:04754300AD07AC06DE
:10754700ECFFAE05D2A5C2A7D2B2D2A68F90C2A534
:0C755700D2A5AF068F90C2A5D2A5D2A786
:017563002205
:08758D00900289E0FEA3E0FF7B
:04759500AD07AC068C
:10759900ECFFAE05D2A5C2A7D2B2D2A68F90C2A5E2
:0C75A900D2A5AF068F90C2A5D2A5D2A734
:0175B50022B3
:067676007C107F037E0082
:0E767C00AB05AA0412756CAE02AF0302754393
:1075DD007590FF7580FFC2A7D2A6C2B200AF90EF23
:0E75ED00FED2B2C2B200AD90EDFFD2B2D2A774
:0175FB00226D
:10729900EF7026FD7C057F01FE12767C7D3012762B
:1072A9007690022FE4F0A374DCF090022DE4F0A3B1
:1072B90074B0F0E4900233F0227D007C047F017EFB
:1072C9000012767C7D3812767690022FE4F0A37452
:1072D900B0F090022DE4F0A374DCF0900233740155
:0272E900F02291
:1040C800D2B37F647E001275FCC2B37F647E001297
:1040D80075FCD2B37F647E001275FCE4FFFE127596
:1040E8006C1275DD900231EEF0A3EFF07BFF7A00E1
:1040F8007926900003EEF0A3EFF0122EA5E4FFFE60
:1041080012756C7F017E001275437F0A7E0012765D
:10411800B37F071275647F121275647FA47E001244
:10412800756C7F017E0012756C7F0A7E001276B373
:104138007F707E0012756C7F007E9B1275437F072F
:104148007E0012756C7F317E001275437F187E00E9
:1041580012756C7F017E001275437F107E00127508
:104168006C7FB07E111275437F117E0012756C7FD3
:10417800077E001275437F127E0012756C7F177ED2
:10418800101275437F137E0012756C7F0D7E8512A9
:1041980075437F147E0012756C7F007E8012754314
:1041A8007F127E0012756C7F3C7E101275437F96DD
:1041B8007E001200037F0112756C7F007E05127568
:1041C800437F027E0012756C7F007E071275437F65
:1041D800037E0012756C7F307E101275437F087E57
:1041E8000012756C7408FFFE1275437F0B7E001277
:1041F800756C7F007E111275437F0C7E0012756C02
:10420800E4FFFE1275437F0F7E0012756C7F017EFE
:10421800141275437F157E0012756CE4FFFE12754B
:10422800437F207E0012756CE4FFFE1275437F21E8
:104238007E0012756CE4FFFE1275437F507E0012FB
:10424800756CE4FFFE1275437F517E0012756C7F1A
:10425800AF7E001275437F527E0012756CE4FFFE3C
:104268001275437F537E0012756C7FDB7E001275DA
:10427800437F707E0012756C7F007E1B1275437F32
:10428800717E0012756CE4FFFE1275437F907E000C
:1042980012756CE4FFFE1275437F917E0012756CF7
:1042A8007F007E011275437F927E0012756C7F013C
:1042B8007E001275437F597E0012756C7F0C7E0557
:1042C8001275437F907E0012756C7F107E00127508
:1042D800437F927E0012756C7F007E061275437FC5
:1042E800077E0012756C7F337E021275437F327E23
:1042F800001200037F2212756CE4FF12729990027B
:0943080036E0FEA3E0FF02703F65
:056E1100E0FEA3E0FF1C
:106E160090004BEEF0A3EFF0A3ECF0A3EDF09002A0
:106E260033E070357F50FE1275387F517E00127543
:106E36006CAF03AE021275437F527E0012756CA3CF
:106E460012753E7F537E0012756C90005112753E8E
:106E56007F201275367F2180327F521275367F531E
:106E66007E0012756CAE02AF031275437F507E0032
:106E760012756CA312753E7F517E0012756C9000E0
:106E86005112753E7F211275367F207E0012756C79
:0C6E9600A312753E7F227E0012756C2254
:0E69CF0090025FEEF0A3EFF0A3ECF0A3EDF06A
:1069DD00E4A3F0A304F0A3E4F0A304F090022DE0EF
:1069ED00FEA3E0FFC3900260E09F90025FE09E5027
:1069FD001590022FE0FEA3E0FFC3900262E09F908E
:106A0D000261E09E4004E4FEFF22900261E0FCA3DF
:106A1D00E0FD90025FE0FAA3E0FBA3E0FFA3E090AE
:106A2D000051CFF0A3EFF090025F126E111275DDE1
:106A3D00AB07AA061275DDAA06AB07EA13131354AA
:106A4D001FFF900265E4F0A3EFF0EB7805CEC313C2
:106A5D00CE13D8F9543FFF900263E4F0A3EFF07C1E
:106A6D0000EB541FFD900263E0FEA3E07805C333F5
:106A7D00CE33CED8F9FBAA06ED33333354F84AFEA4
:106A8D00EBFF900265E04EFAA3E04FAC02AE04FFBF
:016A9D0022D6
:08703F00900000EEF0A3EFF059
:10704700E4A3F0A3F090022EE024FFFB90022DE0D2
:1070570034FFFA900230E024FFFE90022FE034FF65
:10706700900051F0A3CEF0E4FDFCFFFE126E16E493
:10707700FAFBD390022EE09B90022DE09A4039E470
:10708700900002F0A3F090022FE0FEA3E0FFC39070
:107097000003E09F900002E09E50169000001275DA
:1070A70090900003E004F070DD900002E004F080AF
:0870B700D50BBB00010A80BAF1
:0170BF0022AE
:1068FF00900041ECF0A3EDF090003FEEF0A3EFF02D
:08690F00900043EAF0A3EBF055
:10691700E4900049F0A3F0D3EF9BEE9A400302699D
:10692700CE900045E0FEA3E0FF900041E0FCA3E02D
:10693700FD9FEC9E40030269CE900043E0FAA3E07E
:10694700FBA3E0FFA3E0900051CFF0A3EFF090008E
:106957003F126E1190003FE0FEA3E0FFC39000449A
:10696700E09FFF900043E09ECF2401CF34009000CA
:106977003FF0A3EFF0A3E0FEA3E0FFC3900046E0E3
:106987009FFF900045E09ECF2401CF340090004147
:10699700F0A3EFF090003F74FFF5F012327445F06A
:1069A7006025900041E0FFA3E0900049CFF0A3EFFE
:1069B700F090004974FFF5F012327445F060D590FD
:0769C700004712759080EA01
:0169CE0022A6
:0E61C400900173EEF0A3EFF0A3ECF0A3EDF06A
:1061D200900173E0FEA3E0FFC3EB9FFFEA9ECF2492
:1061E20001CF3400900180F0A3EFF0900175E0FE42
:1061F200A3E0FFC390017AE09FFF900179E09ECF78
:106202002401CF340090017EF0A3EFF0900175E0FD
:10621200FCA3E0FD900179E0FFA3E0900051CFF0F4
:10622200A3EFF0900173126E11E4900182F0A3F0DB
:1062320090017EE0FEA3E0FFC3900183E09F900106
:1062420082E09E5074E4900184F0A3F0900180E01B
:10625200FEA3E0FF900184E0FAA3E0FBC39FEA9E65
:106262005046900180E0FCA3E0FDA3E0FEA3E0FF26
:106272001231F7EB2FFFEA3EFEEF25E0FFEE33FE91
:1062820090017BE0FBA3E0FAA3E0F98F828E8312F8
:10629200328AFFAEF0127595900185E004F070AC81
:1062A200900184E004F080A4900183E004F0708007
:0962B200900182E004F002623266
:0162BB0022C0
:1074100090023EFEE0FCA3E0FDC390023BE09DFD38
:0674200090023AE09CFC22
:10742600AB07AA068D828C83C006C007AE83AF82E7
:10743600900051EEF0A3EFF0D007D006126E169032
:0A7446000234E0FEA3E0FF0275959A
:06738400FDE0FAA3E0FBAE
:10738A00900042EEF0A3EFF0900046EAF0A3EBF093
:10739A00900044ECF0A3EDF0900042E0FAA3E0FB89
:1073AA00FFAE02C007A3E0FFA3E0900051CFF0A315
:1073BA00EFF0D007126E16900046E0FEA3E0FF023F
:0273CA007595B7
:1071BB0090027FEEF0A3EFF0A3ECF0A3EDF0A3EAC7
:1071CB00F0A3EBF012738A900280E02401FF90028F
:1071DB007FE03400FE900281E0FCA3E0A3127384F5
:1071EB0090027FE0FEA3E0FF900282E02401FD907D
:1071FB000281E03400FC900283127385900280E0E0
:10720B002401FF90027FE03400FE900282E0240113
:10721B00FD900281E03400FC900283E0FAA3E0FBD6
:03722B0002738A61
:0E472F009000E2EEF0A3EFF0A3ECF0A3EDF0AB
:10473D00E49000EAF0A3F0A3F0A3F0A3F0A3F090AF
:10474D0000E2E0FEA3E0FFC3EB9FFFEA9E9000F0C6
:10475D00F0A3EFF09000E4E0FAA3E0FBC39000E9D2
:10476D00E09BFE9000E8E09A9000F2F0A3CEF0906E
:10477D0000E2E0FFA3E09000FACFF0A3EFF0A3EA90
:10478D00F0A3EBF09000F0E0FEA3E0FFD39400EE79
:10479D0064809480400A9000F6E4F0A304F0802138
:1047AD00EF4E70089000F6F0A3F0801574FF9000A6
:1047BD00F6F0A3F0C3E49FFFE49E9000F0F0A3EFAA
:1047CD00F09000F2E0FEA3E0FFD39400EE6480943D
:1047DD0080400A9000F8E4F0A304F08021EF4E70C1
:1047ED00089000F8F0A3F0801574FF9000F8F0A386
:1047FD00F0C3E49FFFE49E9000F2F0A3EFF0900071
:10480D00F2E0FEA3E0FF9000F0E0FCA3E0FDD39FFB
:10481D00EE6480F8EC6480989000F44007ECF0A30F
:10482D00EDF08005EEF0A3EFF0E49000EAF0A3F0D8
:10483D009000F5E02401FF9000F4E03400FED390E9
:10484D0000EBE09F9000EAE09E400302491D9000BE
:10485D00FAE0FEA3E0FFA3E0FCA3E0FD12742690B6
:10486D0000F0E0FEA3E0FF9000EDE02FF09000ECF3
:10487D00E03EF09000F2E0FEA3E0FF9000EFE02FAD
:10488D00F09000EEE03EF09000F4E0FEA3E0FF902B
:10489D0000ECE0FCA3E0FDD39FEE6480F8EC6480B7
:1048AD00984020ED9FFFEC9E9000ECF0A3EFF09070
:1048BD0000F6E0FEA3E0FF9000FBE02FF09000FA81
:1048CD00E03EF09000F4E0FEA3E0FF9000EEE0FC8F
:1048DD00A3E0FDD39FEE6480F8EC6480984020ED5A
:1048ED009FFFEC9E9000EEF0A3EFF09000F8E0FE3D
:1048FD00A3E0FF9000FDE02FF09000FCE03EF09073
:10490D0000EBE004F070069000EAE004F002483D90
:01491D002277
:0E491E009000A6EEF0A3EFF0A3ECF0A3EDF0F6
:10492C00E49000B2F0A3F0A3F0A3F09000A6E0FE98
:10493C00A3E0FFC3EB9FFFEA9E9000B6F0A3EFF05D
:10494C009000A8E0FAA3E0FBC39000ADE09BFE90C2
:10495C0000ACE09A9000B8F0A3CEF09000A6E0FF77
:10496C00A3E09000C0CFF0A3EFF0A3EAF0A3EBF02C
:10497C009000B6E0FEA3E0FFD39400EE6480948038
:10498C00400A9000BCE4F0A304F08021EF4E7008C4
:10499C009000BCF0A3F0801574FF9000BCF0A3F065
:1049AC00C3E49FFFE49E9000B6F0A3EFF09000B834
:1049BC00E0FEA3E0FFD39400EE64809480400A9064
:1049CC0000BEE4F0A304F08021EF4E70089000BE0E
:1049DC00F0A3F0801574FF9000BEF0A3F0C3E49F29
:1049EC00FFE49E9000B8F0A3EFF09000B8E0FEA3B7
:1049FC00E0FF9000B6E0FCA3E0FDD39FEE6480F8EE
:104A0C00EC6480989000BA4007ECF0A3EDF08005C0
:104A1C00EEF0A3EFF0E49000B0F0A3F09000BBE058
:104A2C002401FF9000BAE03400FED39000B1E09F67
:104A3C009000B0E09E4003024B0A9000C0E0FEA341
:104A4C00E0FFA3E0FCA3E09000AE1273849000B6EC
:104A5C00E0FEA3E0FF9000B3E02FF09000B2E03E48
:104A6C00F09000B8E0FEA3E0FF9000B5E02FF090CE
:104A7C0000B4E03EF09000BAE0FEA3E0FF9000B27C
:104A8C00E0FCA3E0FDD39FEE6480F8EC64809840DA
:104A9C0020ED9FFFEC9E9000B2F0A3EFF09000BCD5
:104AAC00E0FEA3E0FF9000C1E02FF09000C0E03EDC
:104ABC00F09000BAE0FEA3E0FF9000B4E0FCA3E0AD
:104ACC00FDD39FEE6480F8EC6480984020ED9FFF4E
:104ADC00EC9E9000B4F0A3EFF09000BEE0FEA3E0DB
:104AEC00FF9000C3E02FF09000C2E03EF09000B1C8
:0E4AFC00E004F070069000B0E004F0024A28DA
:014B0A002288
:10675500900285EEF0A3EFF0900289EAF0A3EBF04A
:08676500900287ECF0A3EDF0B7
:10676D00900285E0FAA3E0FB24FFFFEA34FFFEC0B0
:10677D0006C007ED24FFFDEC34FFFCEB2401FBE428
:10678D003AFAA3E0FEA3E02401FFE43E900051F0AD
:10679D00A3EFF0D007D006126E16E4FB12758D0B29
:1067AD00EBB409F8900286E024FCFF900285E034FA
:1067BD00FFFEC007900287E0FCA3E0FD900286E09B
:1067CD002404FB900285E03400FA900287E0FFA3D9
:1067DD00E0900051CFF0A3EFF0D007126E16E4FB5E
:1067ED0012758D0BEBB409F8900288E024FCFD9036
:1067FD000287E034FFFC900285E0FAA3E0FBA3E002
:10680D00FEA3E02404FFE43E900051F0A3EFF090CE
:0F681D000285126E11E4FB12758D0BEBB409F8B6
:01682C002249
:106C270090026BEAF0A3EBF0900267EEF0A3EFF0AF
:106C3700A3ECF0A3EDF0C007A3E0FAA3E0FB9002FA
:106C470069E0FFA3E09000E8CFF0A3EFF0D00712D0
:106C5700472F900267E0FAA3E0FBFFAE02C007A34D
:106C6700E0FCA3E0FD90026DE0FFA3E09000E8CF19
:106C7700F0A3EFF0D00712472F90026DE0FCA3E0DE
:106C8700FD90026BE0FAA3E0FBA3E0FFA3E0900016
:106C9700E8CFF0A3EFF0900267E0FEA3E0FF124712
:106CA7002F90026BE0FAA3E0FBFFAE02C007900251
:106CB70069E0FCA3E0FD90026DE0FFA3E09000E82F
:0A6CC700CFF0A3EFF0D00702472F33
:0E4CF400900238EEF0A3EFF0A3ECF0A3EDF089
:104D0200E4A3F0A3F0EBFF7E00A3EEF0A3EFF02507
:104D1200E0FFEE33FEC374039F900241F0E49E90E5
:104D22000240F090023EE0FEA3E0FF90023CE0FC75
:104D3200A3E0FDD39FEE6480F8EC64809840030208
:104D42004ECB900239E02DFF900238E03C127410F5
:104D520090023EE0FEA3E0FF900239E02FFF9002B6
:104D620038E03E90023C12741390023EE0FEA3E053
:104D7200FF900239E02FFF900238E03EFE90023CA5
:104D8200E0FCA3E0FD90023BE02DFD90023AE03C06
:104D9200FC12742690023CE0FEA3E0FF900239E090
:104DA2002FFF900238E03EFE90023EE0FCA3E0FDC1
:104DB20090023BE02DFD90023AE03CFC12742690FA
:104DC200023CE0FEA3E0FFC3900239E09FFF9002A5
:104DD20038E09EFE90023EE0FCA3E0FD90023BE044
:104DE2002DFD90023AE03CFC12742690023EE0FE59
:104DF200A3E0FFC3900239E09FFF900238E09EFEDD
:104E020090023CE0FCA3E0FD90023BE02DFD90020D
:104E12003AE03CFC12742690023CE0FEA3E0FFC3A1
:104E2200900239E09FFF900238E09E1274109002C7
:104E32003EE0FEA3E0FFC3900239E09FFF900238FC
:104E4200E09EFE90023C12741490023DE004F07069
:104E52000690023CE004F0C3900240E0648094803B
:104E6200502590023CE0FEA3E07802C333CE33CE5D
:104E7200D8F92406FFE43EFE900241E02FF09002B2
:104E820040E03EF0024D2590023EE0FEA3E0FFC36B
:104E920090023DE09FFF90023CE09EFEEF7802C34D
:104EA20033CE33CED8F9240AFFE43EFE900241E02D
:104EB2002FF0900240E03EF090023FE024FFF0909D
:094EC200023EE034FFF0024D2530
:014ECB0022C4
:1055690090000DEEF0A3EFF0900011EBF090000F1A
:05557900ECF0A3EDF0D1
:10557E00900016ECF0A3EDF0900012E0FF13131361
:10558E00541FFEEF540760047F0180027F00EE2F50
:10559E00FF900012E0C313FEEF8EF0A4900018F0FF
:1055AE00900011E024E0F0E4F9900018E0FFE9C368
:1055BE009F40030256E0900012E0FFB40C129000E0
:1055CE0011E075F00CA42433F582E5F0340080313F
:1055DE00EFB41012900011E075F010A424A7F5821C
:1055EE00E5F03404801B900012E06418600302564C
:1055FE00E0900011E075F024A42497F582E5F034D4
:10560E000AF583E58229F582E43583F583E49390E8
:10561E000014F0E4900015F0900014E030E71390C1
:10562E00000DE0FEA3E0FFA3E0FCA3E0FD9002343A
:10563E008017900013E0701490000DE0FEA3E0FFC1
:10564E00A3E0FCA3E0FD900236127385900014E0F7
:10565E0025E0F0900010E004F0700690000FE004DA
:10566E00F090022FE0FEA3E0FF90000FE0FCA3E01D
:10567E00FDC39FEC9E505B900016E0FEA3E0FFC3BF
:10568E00ED9FFDEC9EFC900012E07A00B50530EA2D
:10569E00B5042C90000FEEF0A3EFF090000EE00496
:1056AE00F0700690000DE004F090022DE0FEA3E0F5
:1056BE00FFC390000EE09F90000DE09E40102290E0
:1056CE000015E004F0E0C3940850030256260902C8
:0256DE0055B7BE
:0156E00022A7
:0772EB00C3EF9E14FD7F0AB2
:0872F20090028BEFF0A3EDF018
:1072FA00A31234520000000190028CE0FF14F0EF58
:10730A006020A3E0F8A3E0F9A3E0FAA3E0FB90026F
:10731A008BE0FFE4FCFDFE1232EF90028D12344640
:10732A0080D690028DE0FCA3E0FDA3E0FEA3E0FF7F
:01733A002230
:0E6679009001FAEEF0A3EFF0A3ECF0A3EDF029
:10668700E4900206F0900204F0900202E0FF90020C
:1066970004E0FEC39F40030267541272EBA804A9EB
:1066A70005AA06AB079001FEE0FCA3E0FDA3E0FE10
:1066B700A3E0FF12337AE47B0AFAF9F812337A90EF
:1066C7000205EBF0A3E07045900202E014FF900290
:1066D70004E0FEC39F5036A3E0702C900203E0FB5A
:1066E700C3138EF0A4FF9001FBE02FFF9001FAE0A7
:1066F70035F0FE9001FCE0FCA3E0FD900012EBF00A
:10670700E4A3F07B20803A9002067401F090020324
:10671700E0FAC313FFA3E0FEEF8EF0A4FF9001FBA6
:10672700E02FFF9001FAE035F0FE9001FCE0FCA3BA
:10673700E0FD900205E02430FB900012EAF0E4A3AC
:0D674700F0125569900204E004F002669023
:016754002222
:0E5E7B009001DEEEF0A3EFF0A3ECF0A3EDF04B
:105E8900E49001EBF09001E9F09001E6E0FF900168
:105E9900E9E0FEC39F4003025FA31272EBA804A9C5
:105EA90005AA06AB079001E2E0FCA3E0FDA3E0FE32
:105EB900A3E0FF12337AE47B0AFAF9F812337A90F5
:105EC90001EAEBF0A3E06003025F5A9001E6E014F7
:105ED900FF9001E9E0FEC39F5077A3E0706D900148
:105EE900E8E0F99001E730E72BE0FBC3138EF0A45B
:105EF900FF9001DFE02FFF9001DEE035F0FE900119
:105F0900E0E0FCA3E0FD900012EBF0E95401A3F0FE
:105F19007B30807AE0FBC313FF9001E9E0FEEF8E4E
:105F2900F0A4FF9001DFE02FFF9001DEE035F0FEE5
:105F39009001E0E0FCA3E0FD900012EBF09001E895
:105F4900E05401900013F07B2080439001EB740131
:105F5900F09001E7E0FAC313FF9001E9E0FEEF8E4C
:105F6900F0A4FF9001DFE02FFF9001DEE035F0FEA5
:105F79009001E0E0FCA3E0FD9001EAE02430FB9011
:105F89000012EAF09001E8E05401900013F0125574
:0A5F9900699001E9E004F0025E9255
:015FA30022DB
:10659400900000EEF0A3EFF0A3ECF0A3EDF0A3EA7B
:0465A400F0A3EBF085
:1065A800900000E0FEA3E0FF90000CF0900005E0F2
:1065B8002FF0900004E03EF0900002E0FEA3E0FF20
:1065C800900007E02FF0900006E03EF0900009E010
:1065D800FBA3E0FAA3E0F912319FFFD3947E4003B6
:1065E800026678EFC394205003026678900004E0B6
:1065F800FEA3E0FF900001E09F900000E09E401F96
:1066080090000CE0FF900000E4F0A3EFF090000889
:10661800E0FF900003E02FF0900002E03400F090DB
:106628000006E0FEA3E0FF900002E0FCA3E0FDC34B
:106638009FEC9E503B900000E0FEA3E0FF12319FCC
:10664800FB900008E0900012F0E4A3F01255699066
:106658000008E0C313FF900001E02FF0900000E075
:106668003400F090000AE475F00112325E0265D43D
:0166780022FF
:105D5000900242EEF0A3EFF0A3ECF0A3EDF0A3EB82
:075D6000F0A3EAF0A3E9F053
:105D6700900246E0FBA3E0FAA3E0F912319F70032B
:105D7700025E7A900242E0FAA3E0FBFFAE02C006A1
:105D8700C007A3E0FCA3E0FDEB241FFBE43AFA9075
:105D97000244E0FEA3E0241CFFE43E900051F0A380
:105DA700EFF0D007D006126E16E4900249F0900289
:105DB70049E0FFC394144003025E5F900246E0FB94
:105DC700A3E0FAA3E0F912319FFE75F076EFA42461
:105DD700F3F582E5F03417F583E4936E7071900064
:105DE700011231B8FF900249E075F076A424F4F56A
:105DF70082E5F03417F583E4936F7053FB90024903
:105E0700E075F076A424F5F582E5F03417F583E51F
:105E1700822BF582E43583F583E493FF90024AE40D
:105E2700F0A3EFF0E4FA90024BE030E7059002347C
:105E3700800390023612759090024BE025E0F090B7
:105E4700024AE033F00AEAB408DC0BEBB474AE9014
:105E57000249E004F0025DB5900247E475F00212D2
:105E6700325E900243E02420F0900242E03400F0DA
:035E7700025D6762
:015E7A002205
:105C230090015EEEF0A3EFF0A3ECF0A3EDF0A3EA96
:045C3300F0A3EBF0FF
:105C3700E4900169F0A3F0A3123452000000009031
:105C4700016F12345200000000900160E0FCA3E0F5
:105C5700FDA3E0FEA3E0FF90015EE0FAA3E02FFFC3
:105C6700EA3ECF24FFFBEF34FFFA900164E0FEA386
:105C7700E0FF900160E0F8A3E02FFFE83ECF24FFAC
:105C8700CF34FF900051F0A3EFF090015E126E1138
:105C9700900164E0FCA3E0FD900162E0FEA3E0FF59
:105CA7001231F7EF25E0FFEE33FEE4FCFD90016FC4
:105CB70012344690016BA3A3E0FEA3E0FDAC0624DB
:105CC70001FFE43CFE900166E0FBA3E0FAA3E0F9E4
:105CD7008F828E831231B8FF900169E4F0A3EFF051
:105CE700E0F8E4F0E8900169F08D828C831231B816
:105CF700FF900169E0FEA3E04FFF900169EEF0FE1F
:105D0700A3EFF0127595A3E0FCA3E0FDA3E0FEA3CB
:105D1700E02402FFE43EFEE43DFDE43CFC90016B21
:105D270012344690016FE0FCA3E0FDA3E0FEA3E080
:105D3700FF90016BE0F8A3E0F9A3E0FAA3E0FBC34F
:085D470012340C5003025CBA97
:015D4F002231
:0B76BE00C2A1D2A3D2A2D2A1C2A3227B
:10761A00C2A1E4FEEFC4131313540124FF92A2EF94
:0C762A0025E0FFC2A1D2A10EEEB408E8DA
:017636002231
:1074C800E49002A3F0A3F0C2A1FDFC9002A4E02581
:1074D800E0F09002A3E033F0D2A1C2A1A2A0E4336D
:1074E800FFE0F0A3E04FF00DBD00010CED640C4C83
:0A74F80070D99002A3E0FEA3E0FFAC
:017502002266
:07526600EEF0A3EFF07F90D2
:02526D00AB078D
:10526F00C2A1C2A3E49000FEF0AF0312761A900021
:10527F00FF7406F09000FFE014F0E070F7D2A10089
:10528F0000C2A100001274C89000FEE025E02400C7
:10529F00F582E43401F583EEF0A3EFF09000FEE029
:1052AF0004F0E0C3940A40C1D2A3E49000FEF09052
:1052BF0000FEE0FFC394094003025374EF04A3F010
:1052CF009000FFE0FFC3940A400302536BEF25E009
:1052DF002400F582E43401F583E0FEA3E0FF9000A3
:1052EF00FEE0FB25E02400F582E43401F583E0FCC9
:1052FF00A3E0C39FEC9E505BEB25E02400F582E416
:10530F003401F583E0FEA3E0FFE4FCFD90011412ED
:10531F0034469000FFE0FA25E02400F582E43401E2
:10532F00F583E0FEA3E0FFEB25E02400F582E434F3
:10533F0001F583EEF0A3EFF0900114A3A3E0FEA319
:10534F00E0FFEA25E02400F582E43401F583EEF076
:10535F00A3EFF09000FFE004F00252CF9000FEE0C8
:10536F0004F00252BE90011412345200000000905B
:10537F0000FE7402F0900114E0F8A3E0F9A3E0FA44
:10538F00A3E0FB9000FEE025E02400F582E4340169
:10539F00F583E0FEA3E0FFE4FCFDEB2FFFEA3EFE0A
:1053AF00ED39FDEC38FC9001141234469000FEE00C
:1053BF0004F0E0B408BF900114E0FCA3E0FDA3E00B
:1053CF00FEA3E0FFE47B06FAF9F81273CC90011408
:0D53DF00123446900114A3A3E0FEA3E0FFEA
:0153EC00229E
:105FA4001276BE7FD012526D90024C12526690024D
:105FB40052EEF0A3EFF07FD012526D90024E1252C7
:105FC40066AD07AC0690024EE0FEA3E0FF90024CE3
:105FD400E0FAA3E0FBD39FEA9E400AA3A3EB9FFF52
:105FE400EA9EA3801790024CE0FEA3E0FFC3900258
:105FF4004FE09FFF90024EE09E900250F0A3EFF01E
:10600400900252E0FEA3E0FFD39DEE9C4007EF9D7B
:10601400FFEE9C800E900252E0FEA3E0FFC3ED9FD2
:10602400FFEC9EA3F0A3EFF0D3900251E0943290E2
:106034000250E09400500E900255E09432900254C5
:10604400E0940040037F002290024EE0FEA3E0FFB4
:1060540090024DE02FFF90024CE03EC313FEEF137D
:10606400FF900207EEF0A3EFF0900253E02DFF90B3
:106074000252E03CC313FEEF13FF900209EEF0A3BB
:10608400EFF0900208E054F0F090020AE054F0F0CF
:10609400C3900208E09464900207E09400400FD398
:1060A40090020AE094D8900209E0940E40037F0025
:0360B400227F0147
:0160B70022C6
:105AE300E4900297F0125FA4EF7003025C18900237
:105AF30033E06003025B7E900207E0FEA3E0FFE475
:105B0300FCFD90020B12344690020BE0FCA3E0FD77
:105B1300A3E0FEA3E02406FFEE34FFFEED34FFFD19
:105B2300EC34FFFCE47BB4FAF9F81232EFE47B7453
:105B33007A0EF9F812337A90020B12344690020966
:105B4300E0FEA3E0FFE4FCFD90020F123446900256
:105B53000FE0FCA3E0FDA3E0FEA3E024A2FFEE34EC
:105B6300FEFEED34FFFDEC34FFFCE47BFAFAF9F8BA
:105B73001232EFE47BAC7A0D025C05900209E0FE81
:105B8300A3E0FFC3E49FFF74109EFEE4FCFDA31299
:105B9300344690020BE0FCA3E0FDA3E0FEA3E02467
:105BA300A2FFEE34FEFEED34FFFDEC34FFFCE47B9C
:105BB300FAFAF9F81232EFE47BAC7A0DF9F8123302
:105BC3007A90020B123446900207E0FEA3E0FFE452
:105BD300FCFD90020F12344690020FE0FCA3E0FD9F
:105BE300A3E0FEA3E02406FFEE34FFFEED34FFFD49
:105BF300EC34FFFCE47BB4FAF9F81232EFE47B7483
:105C03007A0EF9F812337A90020F12344690029703
:0F5C13007401F08001E4900213F0900297E0FF1B
:015C2200225F
:0670C00090026F1234463D
:1070C60090026FE0FCA3E0FDA3E0FEA3E0FF7813CF
:1070D600123433A3EEF0A3EFF090026FE0FCA3E0CE
:1070E600FDA3E0FEA3E0FF780A123433EF543FFE1F
:1070F600E4900275F0A3CEF090026FE0FCA3E0FDF1
:10710600A3E0FEA3E0FF7803123433EF541FFFE43D
:10711600AD07FC900275E0FEA3E07805C333CE33DD
:10712600CED8F9FBAA06900274E033333354F84AFA
:09713600FEEBFFEE4CFEEF4DFFF5
:01713F00222D
:04745000AD07AC06D2
:107454007BE77A187E00ED54037803C333CE33CE32
:10746400D8F9FFEA4EFAEB4FFB7E00ED541C780688
:10747400C333CE33CED8F9FFEA4EFAEB4FFBED54CB
:07748400E04AFAEBAE02FF43
:01748B0022DE
:08733B00900291EFF0A3EDF0C8
:10734300A312345200000001900292E0FF14F0EF08
:107353006020A3E0F8A3E0F9A3E0FAA3E0FB900226
:1073630091E0FFE4FCFDFE1232EF900293123446EB
:1073730080D6900293E0FCA3E0FDA3E0FEA3E0FF30
:0173830022E7
:10722E0090027712344690027BE0FCA3E0FDA3E0CF
:10723E00FEA3E0FF900277E0F8A3E0F9A3E0FAA343
:10724E00E0FBD3123422401D90027BE0F8A3E0F95C
:10725E00A3E0FAA3E0FB900277E0FCA3E0FDA3E03D
:10726E00FEA3E0801A900277E0F8A3E0F9A3E0FA1B
:10727E00A3E0FBA3E0FCA3E0FDA3E0FEA3E0C39B21
:0B728E00FFEE9AFEED99FDEC98FC224B
:08748C0090029CEEF0A3EFF06A
:10749400900234E0FFA3E090029ECFF0A3EFF0AFA0
:1074A40003900234EAF0A3EFF090029CE0FEA3E024
:1074B400FF12742690029EE0FFA3E0900234CFF006
:0374C400A3EFF043
:0174C70022A2
:1062BC009001BDEEF0A3EFF0A3ECF0A3EDF0A3EA98
:0462CC00F0A3EBF060
:1062D000E49001C8F0A3F09001C1E0FEA3E0FFC389
:1062E0009001C9E09F9001C8E09E40030263B2E4C0
:1062F0009001CAF0A3F09001C3E0FEA3E0FFC390B9
:1063000001CBE09F9001CAE09E400302639E900192
:10631000C8E0FEA3E0FF9001BEE02FFF9001BDE0CA
:106320003EFE9001CAE0FCA3E0FD9001C0E02DFD1F
:106330009001BFE03CFC1269CF9001CCEEF0A3EFDE
:10634000F09001C5E0FCA3E0FDA3E0FB1264A79080
:1063500001CCEEF0A3EFF09001C8E0FEA3E0FF90C7
:1063600001BEE02FFF9001BDE03EFE9001CAE0FCBF
:10637000A3E0FD9001C0E02DFD9001BFE03CFC904A
:1063800001CCE0FAA3E0FB12738A9001CBE004F0A9
:1063900060030262F69001CAE004F00262F6900126
:1063A000C9E004F060030262D79001C8E004F00283
:0263B00062D7B2
:0163B20022C8
:1063B300900002ECF0A3EDF0A3EAF0A3EBF0900061
:0663C30000EEF0A3EFF074
:1063C900C39401EE94004013E024FFFE900000E026
:1063D90034FF90000AF0A3CEF0800F900000E0FF98
:1063E900A3E090000ACFF0A3EFF0900002E0FEA333
:1063F900E0FFC39401EE9400400CEF24FFFFEE345C
:10640900FF90000C800B900002E0FFA3E090000CCD
:10641900CFF0A3EFF090000CE0FFA3E0900006CFCF
:10642900F0A3EFF0900003E02402FF900002E034B3
:1064390000FEC3900007E09F900006E09E505E902A
:10644900000AE0FFA3E0900008CFF0A3EFF090006E
:1064590001E02402FD900000E03400FC900008E017
:10646900FEA3E0FFC39DEE9C5023900006E0FCA331
:10647900E0FD900004E0FAA3E0FB12738A900009A2
:10648900E004F070C9900008E004F080C1900007B2
:0D649900E004F0708F900006E004F08087B2
:0164A60022D3
:0E453C00900024EEF0A3EFF0A3ECF0A3EDF05E
:10454A00E4900030F0A3F0A3F0A3F0900024E0FE82
:10455A00A3E0FFC3EB9FFFEA9E900034F0A3EFF0C5
:10456A00900026E0FAA3E0FBC390002BE09BFE90AC
:10457A00002AE09A900036F0A3CEF0900024E0FFE3
:10458A00A3E090003ECFF0A3EFF0A3EAF0A3EBF094
:10459A00900034E0FEA3E0FFD39400EE64809480A0
:1045AA00400A90003AE4F0A304F08021EF4E70082C
:1045BA0090003AF0A3F0801574FF90003AF0A3F04F
:1045CA00C3E49FFFE49E900034F0A3EFF09000361E
:1045DA00E0FEA3E0FFD39400EE64809480400A904A
:1045EA00003CE4F0A304F08021EF4E700890003CF8
:1045FA00F0A3F0801574FF90003CF0A3F0C3E49F91
:10460A00FFE49E900036F0A3EFF0900036E0FEA3A0
:10461A00E0FF900034E0FCA3E0FDD39FEE6480F855
:10462A00EC6480989000384007ECF0A3EDF0800528
:10463A00EEF0A3EFF0E490002EF0A3F0900039E042
:10464A002401FF900038E03400FED390002FE09F51
:10465A0090002EE09E400302472E90003EE0FEA30B
:10466A00E0FFA3E0FCA3E0FD90002CE0FAA3E0FB4E
:10467A0012738A900034E0FEA3E0FF900031E02F2D
:10468A00F0900030E03EF0900036E0FEA3E0FF90AC
:10469A000033E02FF0900032E03EF0900038E0FE68
:1046AA00A3E0FF900030E0FCA3E0FDD39FEE64801E
:1046BA00F8EC6480984020ED9FFFEC9E900030F06B
:1046CA00A3EFF090003AE0FEA3E0FF90003FE02F56
:1046DA00F090003EE03EF0900038E0FEA3E0FF904C
:1046EA000032E0FCA3E0FDD39FEE6480F8EC648026
:1046FA00984020ED9FFFEC9E900032F0A3EFF090DF
:10470A00003CE0FEA3E0FF900041E02FF090004063
:10471A00E03EF090002FE004F0700690002EE004D6
:04472A00F00246460D
:01472E002268
:10376700900000EEF0A3EFF0A3ECF0A3EDF0A3EAD6
:04377700F0A3EBF0E0
:10377B00E490000DF0A3F0A3F0A3F0900008E0FF9D
:10378B007E00C3900001E09F900000E09E5003027A
:10379B0039D2900005E09F900004E09E500302395F
:1037AB00D2900002E0FCA3E0FD9FEC9E5003023997
:1037BB00D2900007E09F900006E09E50030239D2A2
:1037CB00900008E07013900000E0FEA3E0FF900073
:1037DB0009E0FAA3E0FB02738A900000E0FAA3E091
:1037EB00FBC3900005E09BFE900004E09A90001153
:1037FB00F0A3CEF0900002E0FEA3E0FFC390000721
:10380B00E09FFF900006E09E900013F0A3EFF09076
:10381B00001BEAF0A3EBF0900002A3E0FF90001D69
:10382B00EEF0A3EFF0900011E0FEA3E0FFD39400C5
:10383B00EE64809480400A900017E4F0A304F080BB
:10384B0021EF4E7008900017F0A3F0801574FF90D5
:10385B000017F0A3F0C3E49FFFE49E900011F0A3C8
:10386B00EFF0900013E0FEA3E0FFD39400EE648032
:10387B009480400A900019E4F0A304F08021EF4EED
:10388B007008900019F0A3F0801574FF900019F0E8
:10389B00A3F0C3E49FFFE49E900013F0A3EFF0901E
:1038AB000013E0FEA3E0FF900011E0FCA3E0FDD3CA
:1038BB009FEE6480F8EC6480989000154007ECF064
:1038CB00A3EDF08005EEF0A3EFF0E490000BF0A376
:1038DB00F0900016E02401FF900015E03400FED3B9
:1038EB0090000CE09F90000BE09E40030239D290B9
:1038FB00001DE0FCA3E0FD900008E0FB7A00A3E0D4
:10390B00FFA3E0900025CFF0A3EFF090001BE0FEAB
:10391B00A3E0FF122A9A900011E0FEA3E0FF9000B3
:10392B000EE02FF090000DE03EF0900013E0FEA3B0
:10393B00E0FF900010E02FF090000FE03EF09000C1
:10394B0015E0FEA3E0FF90000DE0FCA3E0FDD39F8C
:10395B00EE6480F8EC6480984020ED9FFFEC9E9025
:10396B00000DF0A3EFF0900017E0FEA3E0FF900036
:10397B001CE02FF090001BE03EF0900015E0FEA342
:10398B00E0FF90000FE0FCA3E0FDD39FEE6480F816
:10399B00EC6480984020ED9FFFEC9E90000FF0A30D
:1039AB00EFF0900019E0FEA3E0FF90001EE02FF077
:1039BB0090001DE03EF090000CE004F070069000CB
:0739CB000BE004F00238DC00
:0139D20022D2
:0E26D000900087EEF0A3EFF0A3ECF0A3EDF086
:1026DE00E4900094F0A3F0A3F0A3F0900087E0FE46
:1026EE00A3E0FFC3EB9FFFEA9E900098F0A3EFF0EC
:1026FE00900089E0FAA3E0FBC390008EE09BFE9071
:10270E00008DE09A90009AF0A3CEF0900087E0FF43
:10271E00A3E09000A2CFF0A3EFF0A3EAF0A3EBF0BA
:10272E00900098E0FEA3E0FFD39400EE64809480C6
:10273E00400A90009EE4F0A304F08021EF4E700852
:10274E0090009EF0A3F0801574FF90009EF0A3F011
:10275E00C3E49FFFE49E900098F0A3EFF090009AE0
:10276E00E0FEA3E0FFD39400EE64809480400A90D4
:10277E0000A0E4F0A304F08021EF4E70089000A0BA
:10278E00F0A3F0801574FF9000A0F0A3F0C3E49FB7
:10279E00FFE49E90009AF0A3EFF090009AE0FEA363
:1027AE00E0FF900098E0FCA3E0FDD39FEE6480F87C
:1027BE00EC64809890009C4007ECF0A3EDF080054F
:1027CE00EEF0A3EFF0E4900092F0A3F090009DE005
:1027DE002401FF90009CE03400FED3900093E09F14
:1027EE00900092E09E4003022A9990008FE07019AB
:1027FE009000A2E0FEA3E0FFA3E0FCA3E0FD9000AA
:10280E0090E0FAA3E0FB12738A90008FE0640160FF
:10281E00030228A49000A2E0FEA3E0FFA3E0FCA325
:10282E00E0FD900090E0FAA3E0FB12738A9000A303
:10283E00E02401FF9000A2E03400FE9000A4E0FC32
:10284E00A3E0FD900090E0FAA3E0FB12738A9000E3
:10285E00A2E0FEA3E0FF9000A5E02401FD9000A4FD
:10286E00E03400FC900090E0FAA3E0FB12738A9033
:10287E0000A3E02401FF9000A2E03400FE9000A52A
:10288E00E02401FD9000A4E03400FC900090E0FAFA
:10289E00A3E0FB12738A90008FE0640260030229AA
:1028AE00E89000A2E0FEA3E0FFA3E0FCA3E0FD9011
:1028BE000090E0FAA3E0FB12738A9000A3E02401DB
:1028CE00FF9000A2E03400FE9000A4E0FCA3E0FD27
:1028DE00900090E0FAA3E0FB12738A9000A2E0FE53
:1028EE00A3E0FF9000A5E02401FD9000A4E03400D9
:1028FE00FC900090E0FAA3E0FB12738A9000A3E034
:10290E002401FF9000A2E03400FE9000A5E0240117
:10291E00FD9000A4E03400FC900090E0FAA3E0FBF0
:10292E0012738A9000A3E024FFFF9000A2E034FF10
:10293E00FE9000A5E02401FD9000A4E03400FC9080
:10294E000090E0FAA3E0FB12738A9000A3E024014A
:10295E00FF9000A2E03400FE9000A5E024FFFD9061
:10296E0000A4E034FFFC900090E0FAA3E0FB1273A9
:10297E008A9000A3E024FFFF9000A2E034FFFE90B7
:10298E0000A5E024FFFD9000A4E034FFFC90009031
:10299E00E0FAA3E0FB12738A9000A3E024FFFF90FD
:1029AE0000A2E034FFFE9000A4E0FCA3E0FD900046
:1029BE0090E0FAA3E0FB12738A9000A2E0FEA3E07F
:1029CE00FF9000A5E024FFFD9000A4E034FFFC90F2
:1029DE000090E0FAA3E0FB12738A900098E0FEA349
:1029EE00E0FF900095E02FF0900094E03EF0900014
:1029FE009AE0FEA3E0FF900097E02FF0900096E0A3
:102A0E003EF090009CE0FEA3E0FF900094E0FCA35B
:102A1E00E0FDD39FEE6480F8EC6480984020ED9F3B
:102A2E00FFEC9E900094F0A3EFF090009EE0FEA3CA
:102A3E00E0FF9000A3E02FF09000A2E03EF09000A7
:102A4E009CE0FEA3E0FF900096E0FCA3E0FDD39F88
:102A5E00EE6480F8EC6480984020ED9FFFEC9E9031
:102A6E000096F0A3EFF09000A0E0FEA3E0FF900030
:102A7E00A5E02FF09000A4E03EF0900093E004F06B
:0B2A8E007006900092E004F00227DACE
:012A9900221A
:106D7B00FAE0FFA3E0900016CFF0A3EFF090000035
:056D8B00E0FEA3E0FFA3
:106D9000900010EEF0A3EFF0A3ECF0A3EDF0A3EA67
:106DA000F0A3EBF04A606990022DE0FCA3E0FD90B7
:106DB0000010E0FAA3E0FBD39DEA9C505390022F11
:106DC000E0FEA3E0FF900012E0FCA3E0FD9FEC9E3C
:106DD000503EAF03AE02C006C007900014E0FEA311
:106DE000E0FF900012E0F8A3E02FFFE83ECF24FF81
:106DF000CF34FF900045F0A3EFF0900016E0FFA322
:106E0000E0900047CFF0A3EFF0D007D0061268FF64
:016E1000225F
:10714000900037EEF0A3EFF0A3ECF0A3EDF0EB4AE4
:10715000606890022DE0FEA3E0FFD3900038E09F2E
:10716000900037E09E505390022FE0FEA3E0FF9086
:107170000039E0FCA3E0FD9FEC9E503EAE02AF0361
:10718000900037E0FAA3E02FFFEA3ECF24FFFBEFA9
:1071900034FFFAA3E0FFA3E0900045CFF0A3EFF0A7
:1071A00090003DE0FFA3E0900047CFF0A3EFF09008
:0B71B0000037E0FEA3E0FF1268FF22A2
:10599C009001ECEEF0A3EFF0A3ECF0A3EDF0A3EA92
:0459AC00F0A3EBF089
:1059B000A3E07002A3E07003025AE29001F0E070ED
:1059C00002A3E07003025AE29001F7E020E0030234
:1059D0005A5FE4A3F0A3F09001F0E0FEA3E0FF9093
:1059E00001F8E0FCA3E0FDC39FEC9E4003025AE2F5
:1059F0009001EDE02DFF9001ECE03CFEC006C007F9
:105A00009001EEE0FCA3E0FD9001F3E024FFFB90A9
:105A100001F2E034FFFAC002C0039001F9E025E092
:105A2000FF9001F8E033FE9001F4E0FBA3E0FAA35D
:105A3000E0F98F828E8312328AFF900016E5F0F033
:105A4000A3EFF0D003D002D007D006126D909001E2
:105A5000F9E004F070819001F8E004F00259D7E415
:105A60009001F8F0A3F09001F2E0FEA3E0FF9001B6
:105A7000F8E0FCA3E0FDC39FEC9E50669001EFE0D0
:105A80002DFD9001EEE03CFC9001F1E024FFFB9045
:105A900001F0E034FFFAC002C0039001F9E025E014
:105AA000FF9001F8E033FE9001F4E0FBA3E0FAA3DD
:105AB000E0F98F828E8312328AFF90003DE5F0F08C
:105AC000A3EFF09001ECE0FEA3E0FFD003D00212C0
:105AD00071409001F9E004F0708C9001F8E004F05E
:025AE0008084C0
:015AE20022A1
:064B0B009000C4123446C4
:104B1100E49000E0F0A3F09000C4E0FCA3E0FDA36A
:104B2100E0FEA3E0FF78101234339000D1EFF0FBE8
:104B31009000C4E0FCA3E0FDA3E0FEA3E0FF780841
:104B41001234339000D2EFF0FA9000C4A3A3A3E093
:104B5100FFA9079000D3E9F09000C8E0FCA3E0FDB5
:104B6100A3E0FEA3E0FF7810123433EBFDC3EF9D09
:104B7100FFEE94009000D4F0A3EFF09000C8E0FCA9
:104B8100A3E0FDA3E0FEA3E0FF7808123433EAFDC1
:104B9100C3EF9DFEE494009000D6F0A3CEF0900008
:104BA100C8A3A3A3E0FFE9FDC3EF9DFEE494009039
:104BB10000D8F0A3CEF0E49000E0F0A3F09000CF95
:104BC100E0FEA3E0FFC39000E1E09F9000E0E09EE3
:104BD1004003024CF3E0FAA3E0FB9000D4E0FEA313
:104BE100E0FFAD03AC021231F79000CFE0FCA3E08F
:104BF100FD123209A3E07C002FFFEC3E9000DAF0B9
:104C0100A3EFF09000D6E0FEA3E0FFAD03AC0212EB
:104C110031F79000CFE0FCA3E0FD1232099000D201
:104C2100E07C002FFFEC3E9000DCF0A3EFF0900061
:104C3100D8E0FEA3E0FFAD03AC021231F79000CF44
:104C4100E0FCA3E0FD1232099000D3E07C002FFFCD
:104C5100EC3E9000DEF0A3EFF09000DAE0FEA3E07E
:104C61007803CEC313CE13D8F9F0EE9000DAF090AA
:104C710000DCE0FEA3E07802CEC313CE13D8F9F036
:104C8100EE9000DCF09000DEE0FEA3E07803CEC3FE
:104C910013CE13D8F9F0EE9000DEF09000DCE0FEC8
:104CA100A3E07805C333CE33CED8F9FDAC0690002E
:104CB100DBE033333354F84CFEEDFF9000DEE04E81
:104CC100FCA3E04FFDEB25E0FFEA33FE9000CCE0D2
:104CD100FBA3E0FAA3E0F98F828E83EC8DF0123210
:104CE100C29000E1E004F070069000E0E004F00200
:024CF1004BBEB8
:014CF300229E
:1060B800900131EEF0A3EFF0A3ECF0A3EDF0A3EA2A
:0460C800F0A3EBF066
:1060CC0090013DE0FCA3E0FDA3E0FEA3E0FF900007
:1060DC00C8123446900145E0F9A3E0FAA3E0900021
:1060EC00CCC9F0A3EAF0A3E9F0900135E0FFA3E0FE
:1060FC009000CFCFF0A3EFF0900139E0FCA3E0FDCE
:10610C00A3E0FEA3E0FF124B0BE4900141F0A3F0DF
:10611C00900135E0FEA3E0FFC3900142E09F9001A7
:10612C0041E09E40030261C3E4900143F0A3F09070
:10613C000137E0FEA3E0FFC3900144E09F900143D0
:10614C00E09E505F900141E0FAA3E0FB900132E049
:10615C002BFF900131E03AFEC006C007900143E0EE
:10616C00FEA3E0FF900134E02FFD900133E03EFCF4
:10617C00EB25E0FFEA33FE900145E0FBA3E0FAA338
:10618C00E0F98F828E8312328AFBAAF0D007D006F8
:10619C0012738A900144E004F07094900143E0047F
:1061AC00F0808C900142E004F0600302611C9001CD
:0761BC0041E004F002611C48
:0161C30022B9
:106A9E00900000EEF0A3EFF0A3ECF0A3EDF0A3EA6C
:106AAE00F0A3EBF0C007900008E0FFA3E090003DDC
:106ABE00CFF0A3EFF0D007127140900006E0FEA3D6
:106ACE00E0FF900003E02FFF900002E03ECF24FF96
:106ADE00FDEF34FFFC900004E0FAA3E0FB90000809
:106AEE00E0FFA3E090003DCFF0A3EFF0900000E0B8
:106AFE00FEA3E0FF127140900002E0FCA3E0FD90C7
:106B0E000006E0FAA3E0FBA3E0FFA3E0900016CF9F
:106B1E00F0A3EFF0900000126D8B900004E0FEA346
:106B2E00E0FF900001E02FFF900000E03ECF24FF39
:106B3E00CF34FFFEC007900002E0FCA3E0FD900002
:106B4E0006E0FAA3E0FBA3E0FFA3E0900016CFF06F
:086B5E00A3EFF0D007026D90D7
:101C1900900000EEF0A3EFF0A3ECF0A3EDF0A3EA3F
:041C2900F0A3EBF049
:101C2D00E490000EF0A3F0900006E0FEA3E030E09B
:101C3D000A2401FFE43E90000E800B900006E0FFA9
:101C4D00A3E090000ECFF0A3EFF0900009E090001C
:101C5D00087003021E78E0F975F002A4FFC390002E
:101C6D0005E09FFB900004E095F0FAE9FF9000017C
:101C7D00E02FFF900000E03400FEC007900002E06E
:101C8D00FCA3E0FD90000EE0C313FFA3E013900052
:101C9D0016CFF0A3EFF090000AE0FFA3E09000183C
:101CAD00CFF0A3EFF0D007126F42900008E0F97566
:101CBD00F002A4FFC3900005E09FFB900004E095A7
:101CCD00F0FAE9FF900001E02FFF900000E03400F2
:101CDD00FEC006C00790000EE0C313FEA3E013FF85
:101CED00900003E02FFD900002E03EFC90000EE01E
:101CFD00C313FFA3E013900016CFF0A3EFF09000F5
:101D0D000CE0FFA3E0900018CFF0A3EFF0D007D0C8
:101D1D0006126F42900008E0F9FB7A00900003E094
:101D2D002BFD900002E03AFC90000EE0C313FEA3E1
:101D3D00E013FFE9F582C3EF9582FFEE940090006A
:101D4D0016F0A3EFF090000A126F2E90000EE0C374
:101D5D0013FEA3E013FF900003E02FFD900002E0BF
:101D6D003EFC900008E0F9FB7A0090000EE0C313F2
:101D7D00FEA3E013FFE9F582C3EF9582FFEE940019
:101D8D00900016F0A3EFF090000C126F2E9000044F
:101D9D00E0FEA3E0FF900001E02FFF900000E03E89
:101DAD00FE900008E0F9FD7C00C3EF9DFFEE9CFE68
:101DBD00C006C007900003E02DFD900002E03CFC42
:101DCD00E9FB7A0090000EE0C313FEA3E013FFE9D8
:101DDD00F582C3EF9582FFEE9400900016F0A3EF0D
:101DED00F090000AE0FFA3E0900018CFF0A3EFF011
:101DFD00D007D006126F42900004E0FEA3E0FF90E2
:101E0D000001E02FFF900000E03EFE900008E0F999
:101E1D00FB7A00C3EF9BFFEE9AFEC006C007900051
:101E2D000EE0C313FEA3E013FF900003E02FFD901F
:101E3D000002E03EFC90000EE0C313FEA3E013FF92
:101E4D00E9F582C3EF9582FFEE9400900016F0A3A2
:101E5D00EFF090000CE0FFA3E0900018CFF0A3EF9F
:101E6D00F0D007D006126F4202202BE0F975F00278
:101E7D00A4FFC3900005E09FFB900004E095F0FAED
:101E8D00C003E9FF900001E02FFF900000E0340057
:101E9D00FE900002E0FCA3E0FD90000AE0FBA3E051
:101EAD0090003DCBF0A3EBF0D003127140900008F1
:101EBD00E0F975F002A4FFC3900005E09FFB9000D0
:101ECD0004E095F0FAC002C003E9FF900001E02F95
:101EDD00FF900000E03400FE90000EE0FCA3E0FD5A
:101EED00900002E0FAA3E02DFDEA3CCD24FFCD34B5
:101EFD00FFFC90000CE0FBA3E090003DCBF0A3EBCA
:101F0D00F0D003D002127140900008E0FB7A0090EF
:101F1D000003E02BFD900002E03AFC90000EE0C3C0
:101F2D0013FEA3E013C39BFBEE9A90000A126D7B88
:101F3D0090000EE0FAA3E0FBEAC313FEEB13FF9053
:101F4D000003E02FFD900002E03EFCEAC313FEEB20
:101F5D0013FF900008E0FBC3EF9BFBEE9400900095
:101F6D000C126D7B900004E0FEA3E0FF900001E0F9
:101F7D002FFF900000E03ECF24FFCF34FFFEC006C0
:101F8D00C007900008E0FB7A00900003E02BFD9065
:101F9D000002E03AFC90000EE0C313FEA3E013C371
:101FAD009BFBEE9AFA90000AE0FFA3E0900016CF9B
:101FBD00F0A3EFF0D007D006126D90900004E0FE74
:101FCD00A3E0FF900001E02FFF900000E03ECF2442
:101FDD00FFCF34FFFEC006C00790000EE0FAA3E06D
:101FED00FBEAC313FEEB13FF900003E02FFD9000FF
:101FFD0002E03EFCEAC313FEEB13FF900008E0FB8A
:10200D00C3EF9BFBEE9400FA90000CE0FFA3E09071
:10201D000016CFF0A3EFF0D007D006126D90900010
:10202D0002E0FCA3E0FD900008E0F9FF7E009000C7
:10203D0000E0FAA3E02FFBEE3AFAA3E0F8A3E02FBD
:10204D00FFEE38900016F0A3EFF0E9FF900000E0EE
:10205D00F8A3E02FFFEE38900018F0A3EFF0E9FFA2
:10206D00900002E0F8A3E02FFFEE3890001AF0A3E5
:10207D00EFF0E9FFA3EEF0A3EFF090000A124ECCC3
:10208D0090000EE0FEA3E0FF900003E02FFF900014
:10209D0002E03EFE900008E0F9FB7A00C3EF9BFDE5
:1020AD00EE9AFC900000E0FEA3E02BFBEA3EFA90D6
:1020BD00000EE0FEA3E0FF900002E0F8A3E02FFF8A
:1020CD00E83ECF24FFCF34FF900016F0A3EFF0E9E8
:1020DD00FF7E00900000E0F8A3E02FFFEE389000A7
:1020ED0018F0A3EFF090000EE0FEA3E0FF900002C9
:1020FD00E0F8A3E02FFFE83EFEE9F582C3EF9582FD
:10210D00FFEE9400CF24FFCF34FF90001AF0A3EF21
:10211D00F0E9FFA3E4F0A3EFF090000C124ECC9089
:10212D000004E0FEA3E0FF900001E02FFB90000013
:10213D00E03EFA900008E0F9FFC3EB9FFFEA940040
:10214D00FEC006C007900002E0FCA3E0FDE9FF7EA3
:10215D0000900002E0F8A3E02FFFEE38900016F09B
:10216D00A3EFF0900004E0FEA3E0FF900000E0F884
:10217D00A3E02FFFE83EFEE9F582C3EF9582FFEE67
:10218D009400CF24FFCF34FF900018F0A3EFF0E9B7
:10219D00FF7E00900002E0F8A3E02FFFEE389000E4
:1021AD001AF0A3EFF0E9FFA3EEF0A3EFF090000A11
:1021BD00E0FFA3E090001ECFF0A3EFF0900009E048
:1021CD00900020F0D007D006124EE8900004E0FEFB
:1021DD00A3E0FF900001E02FFF900000E03EFE9095
:1021ED000008E0F9FDC3EF9DFFEE9400FEC006C0B0
:1021FD000790000EE0FEA3E0FF900003E02FFF909C
:10220D000002E03EFEC3EF9DFDEE9400FC90000445
:10221D00E0FEA3E0FF900000E0FAA3E02FFBEA3E12
:10222D00FA90000EE0FEA3E0FF900002E0F8A3E0BC
:10223D002FFFE83ECF24FFCF34FF900016F0A3EF21
:10224D00F0900004E0FEA3E0FF900000E0F8A3E0B2
:10225D002FFFE83EFEE9F582C3EF9582FFEE940075
:10226D00CF24FFCF34FF900018F0A3EFF090000EB5
:10227D00E0FEA3E0FF900002E0F8A3E02FFFE83EB0
:10228D00FEE9F582C3EF9582FFEE9400CF24FFCFD8
:10229D0034FF90001AF0A3EFF0E9FFA3E4F0A3EFF1
:1022AD00F090000CE0FFA3E090001ECFF0A3EFF044
:0F22BD00900009E0900020F0D007D006024EE814
:106F2E00E0FFA3E0900018CFF0A3EFF0900000E098
:046F3E00FEA3E0FFCF
:106F4200900010EEF0A3EFF0A3ECF0A3EDF0EB4A0B
:106F52006063900016E07002A3E06059900012E0B6
:106F6200FCA3E0FDAE02AF03900010E0FAA3E02F15
:106F7200FFEA3ECF24FFFBEF34FFFA900016E0FE5B
:106F8200A3E0FF900012E0F8A3E02FFFE83ECF2439
:106F9200FFCF34FF900045F0A3EFF0900018E0FF20
:106FA200A3E0900047CFF0A3EFF0900010E0FEA323
:066FB200E0FF1268FF225F
:102A9A0090001FEEF0A3EFF0A3ECF0A3EDF0A3EA91
:042AAA00F0A3EBF0BA
:102AAE00900023E0FEA3E0FF7C027DC3123483E49A
:102ABE007BE87A03F9F812337AEF2401FFE43EFE45
:102ACE00E43DFDE43CFC90002B123446900023E0E4
:102ADE00FEA3E0FF900023E0FCA3E0FD123483C0D0
:102AEE0004C005C006C007900023E0FEA3E0FFE48B
:102AFE00FCFD7B02FAF9F812337AD003D002D00132
:102B0E00D000EB2FFFEA3EFEE93DFDE83CFC9000D5
:102B1E002F123446900023E0FAA3E0FBFFAE02E44E
:102B2E00FCFD900033123446C3900020E09BFF90D2
:102B3E00001FE09AFEC007900021E0FCA3E0FD908C
:102B4E000024E025E0FB900023E033FA900025E01E
:102B5E00FFA3E090003DCFF0A3EFF0D0071271403D
:102B6E009000271234520000000190002BE0FCA3CD
:102B7E00E0FDA3E0FEA3E0FF900027E0F8A3E0F95C
:102B8E00A3E0FAA3E0FBD31234224003022E3990C5
:102B9E000033E0FCA3E0FDA3E0FEA3E0FFA804A940
:102BAE0005AA06FB1232EFC004C005C006C007908E
:102BBE000027E0FCA3E0FDA3E0FEA3E0FFA804A92C
:102BCE0005AA06FB1232EFD003D002D001D000EFDF
:102BDE002BFFEE3AFEED39FDEC38FC90002FE0F8BD
:102BEE00A3E0F9A3E0FAA3E0FBC3123422400302F0
:102BFE002D4290002BE0FCA3E0FDA3E0FEA3E0FF3E
:102C0E00900033E0F8A3E0F9A3E0FAA3E0FB12345E
:102C1E00225003022D20900027A3A3E0FEA3E0FF85
:102C2E00900020E09FFF90001FE09ECF2401CF3444
:102C3E0000FEC006C007900033A3A3E0FEA3E0FF92
:102C4E00900022E02FFD900021E03EFCC004C00564
:102C5E00900027E0FCA3E0FDA3E0FEA3E024FFFF2D
:102C6E00EE34FFFEED34FFFDEC34FFFCE47B02FAA4
:102C7E00F9F81232EFAB07AA06900025E0FFA3E0A9
:102C8E0090003DCFF0A3EFF0D005D004D007D006D2
:102C9E00127140900027A3A3E0FEA3E0FFC39000B3
:102CAE0020E09FFF90001FE09ECF2401CF3400FE56
:102CBE00C006C007900033A3A3E0FEA3E0FFC390BD
:102CCE000022E09FFD900021E09EFCC004C0059014
:102CDE000027E0FCA3E0FDA3E0FEA3E024FFFFEE4F
:102CEE0034FFFEED34FFFDEC34FFFCE47B02FAF919
:102CFE00F81232EFAB07AA06900025E0FFA3E09092
:102D0E00003DCFF0A3EFF0D005D004D007D00612CF
:102D1E007140900033E0FCA3E0FDA3E0FEA3E024AD
:102D2E00FFFFEE34FFFEED34FFFDEC34FFFC9000B0
:102D3E0033123446900033A3A3E0FEA3E0FFC3900A
:102D4E000020E09FFF90001FE09EFEC006C007908F
:102D5E000027A3A3E0FEA3E0FF900022E02FFD904A
:102D6E000021E03EFCC004C005E47F02FEFDFC90A5
:102D7E000033E0F8A3E0F9A3E0FAA3E0FB1232EF90
:102D8E00AB07AA06900025E0FFA3E090003DCFF030
:102D9E00A3EFF0D005D004D007D0061271409000FA
:102DAE0033A3A3E0FEA3E0FFC3900020E09FFF90BB
:102DBE00001FE09EFEC006C007900027A3A3E0FE02
:102DCE00A3E0FFC3900022E09FFD900021E09EFC57
:102DDE00C004C005E47F02FEFDFC900033E0F8A3C2
:102DEE00E0F9A3E0FAA3E0FB1232EFAB07AA0690DC
:102DFE000025E0FFA3E090003DCFF0A3EFF0D0055B
:102E0E00D004D007D006127140900027E0FCA3E05A
:102E1E00FDA3E0FEA3E02401FFE43EFEE43DFDE45D
:0B2E2E003CFC900027123446022B7879
:012E39002276
:106B6600900043F0A3EFF0900035E0FEA3E0FF9025
:106B76000033E0F8A3E02FFFE83E900045F0A3EFD6
:106B8600F0900039E0FFA3E0900047CFF0A3EFF0CC
:086B9600900029E0FEA3E0FFDE
:0E6B9E0090003BEEF0A3EFF0A3ECF0A3EDF0BF
:106BAC00900043E0FCA3E0FDD39BEC9A506C90006A
:106BBC003BE0FEA3E0FFC3ED9FEC9E405D900041E7
:106BCC00E0FEA3E0FF900045E0FCA3E0FDD39FECCA
:106BDC009E504790003DE0FEA3E0FFC3ED9FEC9E6E
:106BEC004038900234E0FFA3E0900049CFF0A3EFCF
:106BFC00F0900047E0FFA3E0900234CFF0A3EFF059
:106C0C00900043E0FEA3E0FF127426900049E0FFE1
:0A6C1C00A3E0900234CFF0A3EFF0E4
:016C2600224B
:1034F600E0FFA3E0900037CFF0A3EFF090001EE0CE
:10350600FFA3E0900039CFF0A3EFF0900010E0FEAB
:03351600A3E0FF30
:10351900900029EEF0A3EFF0A3ECF0A3EDF0A3EAFD
:10352900F0A3EBF0C006C007A3E0FFA3E0900041C1
:10353900CFF0A3EFF0900035E0FEA3E0FF9000315B
:10354900E0F8A3E02FFFE83E900043F0A3EFF090EE
:103559000037E0FEA3E0FF900033E0F8A3E0C39F4B
:10356900FFE89E900045F0A3EFF0900039E0FFA33B
:10357900E0900047CFF0A3EFF0D007D006126B9E82
:1035890090002BE0FCA3E0FDA3E0FAA3E0FBA3E09D
:10359900FFA3E0900041CFF0A3EFF0900037E0FEE9
:1035A900A3E0FF900031E0F8A3E02FFFE83E900090
:1035B90043F0A3EFF0900035E0FEA3E0FF90003365
:1035C900E0F8A3E0C39FFFE89E126B8090002BE018
:1035D900FCA3E0FDA3E0FAA3E0FBA3E0FFA3E090D6
:1035E9000041CFF0A3EFF0900037E0FEA3E0FF9099
:1035F9000031E0F8A3E02FFFE83E126B6690002B44
:10360900E0FCA3E0FDA3E0FAA3E0FBA3E0FFA3E055
:10361900900041CFF0A3EFF0900035E0FEA3E0FF6A
:10362900900031E0F8A3E02FFFE83E900043F0A3BB
:10363900EFF0900037126B7090002BE0FCA3E0FDD7
:10364900A3E0FAA3E0FBA3E0FFA3E0900041CFF0E1
:10365900A3EFF0900035E0FEA3E0FF900031E0F821
:10366900A3E0C39FFFE89E900043F0A3EFF0900012
:1036790037126B7090002BE0FCA3E0FDA3E0FAA3E6
:10368900E0FBA3E0FFA3E0900041CFF0A3EFF090AF
:103699000037E0FEA3E0FF900031E0F8A3E0C39F0C
:1036A900FFE89E126B6690002BE0FCA3E0FDA3E00F
:1036B900FAA3E0FBA3E0FFA3E0900041CFF0A3EF62
:1036C900F0900037E0FEA3E0FF900031E0F8A3E0BE
:1036D900C39FFFE89E900043F0A3EFF0900035E010
:1036E900FEA3E0FF900033E0F8A3E0C39FFFE89E4C
:1036F900126B8090002BE0FCA3E0FDA3E0FAA3E0AD
:10370900FBA3E0FFA3E0900041CFF0A3EFF090000E
:1037190035E0FEA3E0FF900031E0F8A3E0C39FFF8E
:10372900E89E900043F0A3EFF0900037E0FEA3E09D
:10373900FF900033E0F8A3E0C39FFFE89E900045A7
:10374900F0A3EFF0900039E0FFA3E0900047CFF03D
:0E375900A3EFF0900029E0FEA3E0FF026B9EBC
:104ECC00E0FFA3E090001ECFF0A3EFF0900009E00C
:0C4EDC00900020F0900000E0FEA3E0FF3A
:104EE800900010EEF0A3EFF0A3ECF0A3EDF0A3EA2E
:044EF800F0A3EBF048
