:10750B0090003AE4F0A37450F07B647A00E4FDFC45
:10751B00FFFE126BDF7B287D287C007F327E000212
:02752B004D0C05
:0B75C70012756A1240D412750B80FE92
:0B75D200EF1FAC0670011E4C70F6228B
:10754C00D3EF9400EE940040147D6E7C00ED1D7022
:0D755C00011CED4C70F7EF1F70E61E80E380
:0175690022FF
:0575A900420032000069
:10756A00759850758920758780758DFA858D8BD2AF
:06757A00AFD28ED299226F
:0675E800EF24FF92AC222B
:0E75B900C2ACC2998F993099FDC299D2AC2212
:10740C0090038EEBF0A3EAF0A3E9F090038EE0FB7F
:10741C00A3E0FAA3E0F912319FFF60161275B97F51
:10742C00057E001275D290038FE475F00112325E66
:03743C0080D922D2
:03002300026EC4A6
:0F6EC400C0E0C083C082C0D075D000C004C0073A
:106ED300309865C298AF99900032E0FCEC20E758F7
:106EE30030E60FEF640A90003260028047E044808E
:106EF300800BEF640D700C900032E04440F0A3E08F
:106F0300F08035900032E0543FFCA3E02400F5828A
:106F130074003CF583EFF0900033E004F0700690CA
:106F23000032E004F0D3900033E09431900032E07B
:086F330094004004E4F0A3F017
:0D6F3B00D007D004D0D0D082D083D0E03277
:10002600204C43442049443A25780D0A000000003C
:10003600000000000000000000000000003F40003B
:1000460000000000000000300040003000400000CA
:100056000009000BC03D000BC03D00090018C0247C
:10006600407FE0224031800000180024C01B000DB4
:10007600803240018003801C4027401C80074000DE
:1000860040100060000000000000000000000000BA
:100096000000001F80204040200000402020401F1C
:1000A6008000000000090006001F8006000900000D
:1000B60000040004003F800400040000000010005B
:1000C60060000000000000000004000400040004BA
:1000D60000040000000000004000000000000000D6
:1000E60000002001C006003800400000001F8020EC
:1000F60040204020401F800000000010403FC0000C
:10010600400000000018C021402240244018400052
:100116000010802040244024401B80000002000D77
:100126000011003FC0014000003C802440244024D0
:1001360040238000001F8024402440344003800078
:10014600003000200027C03800200000001B80245B
:1001560040244024401B8000001C0022C022402274
:10016600401F800000000000000840000000000062
:100176000000000000046000000000000000000411
:10018600000A00110020804040090009000900090A
:10019600000900000000004040208011000A000411
:1001A600001800200023402400180000001F8020B3
:1001B60040274029401F400000004007C039000F7B
:1001C6000001C0004020403FC0244024401B800066
:1001D600001F802040204020403080000020403F0B
:1001E600C0204020401F80000020403FC024402EF9
:1001F6004030C0000020403FC024402E00300000A8
:10020600000F001080204022403380020020403F33
:10021600C0040004003FC02040204020403FC020D2
:1002260040204000000060202020203FC020002009
:100236000020403FC024400B0030C0204020403FFB
:10024600C020400040004000C03FC03C0003C03C0E
:10025600003FC0000020403FC00C4023003FC020AC
:10026600001F802040204020401F80000020403F8B
:10027600C024402400180000001F80214021402097
:10028600E01FA0000020403FC02440260019C00007
:100296004018C02440244022403180000030002015
:1002A600403FC020403000000020003F800040005A
:1002B600403F80200020003E0001C007003800209B
:1002C60000380007C03C0007C03800000020403955
:1002D600C0060039C0204000002000384007C03862
:1002E6004020000000304021C02640384020C00099
:1002F60000000000007FE040204020000000007069
:10030600000C000380004000000000402040207FD9
:10031600E000000000000020004000200000000077
:100326000000100010001000100010001000000067
:1003360000400000000000000000000280054005AB
:100346004003C0004020003FC0044004400380003A
:100356000000000380044004400640000000000343
:1003660080044024403FC000400000038005400553
:100376004003400000000004401FC02440244020E9
:1003860000000002E0055005500650042020403FC2
:10039600C00440040003C000400000044027C00021
:1003A600400000000000100010041027E0000000CC
:1003B6000020403FC00140070004C0044020402008
:1003C600403FC000400040000007C0040007C004D2
:1003D6000003C00000044007C00440040003C0003E
:1003E600400000038004400440038000000410071E
:1003F600F004500440038000000000038004400421
:100406005007F00010044007C0024004000400003A
:1004160000000006400540054004C000000000043E
:10042600001F8004400040000004000780004004D4
:100436004007C000400400070004C0018006000415
:1004460000060001C0070001C006000000044006C7
:10045600C0010006C0044000000410071004E001BB
:1004660080060004000000044005C0064004400069
:10047600000000000004007BE040200000000000B7
:10048600000000FFF000000000000040207BE004B8
:1004960000000000004000800040002000200040D6
:1004A6000000000000000000000000000000000046
:1004B600000000000000001FCC000C00000000003F
:1004C60000000008003000600008003000600000F6
:1004D60000022003FC1E20022003FC1E2002200036
:1004E6000000000E1811043FFF10840C7800000075
:1004F600000F0010840F3800C007781884007800B9
:100506000000780F8410C411240E9800E4008400C3
:1005160008080068007000000000000000000000ED
:100526000000000000000007E01818200440020048
:1005360000000040022004181807E0000000000038
:10054600000240024001800FF0018002400240009C
:10055600000080008000800FF8008000800080008E
:10056600000001000D000E00000000000000000069
:100576000000000080008000800080008000800075
:10058600800000000C000C000000000000000000CD
:100596000000000006001800600180060018002018
:1005A60000000007F0080810041004080807F0000F
:1005B600000000080408041FFC00040004000000FA
:1005C6000000000E0C10141024104411840E0C00B0
:1005D6000000000C1810041104110412880C70009D
:1005E60000000000E00320042408241FFC0024006F
:1005F6000000001F98108411041104108810700068
:1006060000000007F0088811041104188800700023
:100616000000001C00100010FC13001C001000005D
:100626000000000E3811441084108411440E380066
:100636000000000700088C10441044088807F000EA
:1006460000000000000000030C030C000000000086
:10065600000000000000010106000000000000008C
:100666000000000080014002200410080810040069
:100676000002200220022002200220022002200086
:100686000000001004080804100220014000800049
:100696000000000E001200100C106C10800F0000FD
:1006A6000003E00C1813E4142417C4082807D0002C
:1006B600000004003C03C41C40074000E4001C008A
:1006C6000410041FFC1104110411040E88007000AC
:1006D6000003E00C1810041004100410081C10008D
:1006E6000010041FFC100410041004080807F00092
:1006F6000010041FFC1104110417C410040818008C
:100706000010041FFC1104110017C010000800009F
:100716000003E00C181004100410441C780040007C
:100726000010041FFC10840080008010841FFC1041
:10073600040000100410041FFC1004100400000044
:100746000000030001100110011FFE100010000040
:100756000010041FFC110403801464181C1004000C
:100766000010041FFC1004000400040004000C0028
:100776000010041FFC1F0000FC1F001FFC100400DB
:100786000010041FFC0C04030000E010181FFC10EE
:100796000007F00808100410041004080807F00009
:1007A6000010041FFC10841080108010800F0000C1
:1007B6000007F0081810241024101C080A07F2007D
:1007C6000010041FFC1104110011C011300E0C00A2
:1007D6000400000E1C11041084108410441C380000
:1007E600001800100010041FFC1004100018000070
:1007F6000010001FF810040004000410041FF81075
:100806000010001E0011E0001C007013801C001078
:10081600001FC0103C00E01F0000E0103C1FC0009D
:10082600001004180C163401C001C01634180C1040
:100836000410001C00130400FC13041C001000002C
:10084600000804101C1064108413041C0410180003
:10085600000000000000007FFE400240024002004F
:1008660000000030000C0003800060001C00030044
:100876000000004002400240027FFE00000000002F
:100886000000000000200040004000400020000062
:10089600000001000100010001000100010001004B
:1008A60001000040004000200000000000000000A1
:1008B6000000000098012401440144014400FC00AA
:1008C6000410001FFC008801040104008800700069
:1008D6000000000070008801040104010400880083
:1008E600000000007000880104010411081FFC00CC
:1008F60004000000F8014401440144014400C8001A
:10090600000000010401040FFC1104110411001879
:1009160000000000D601290129012901C9010600AC
:100926000010041FFC008401000100010400FC000B
:100936000400000104190419FC000400040000006E
:10094600000000000300010101190119FE0000006A
:100956000010041FFC0024004001B4010C01040037
:10096600000000100410041FFC0004000400000036
:1009760000010401FC0104010001FC010401000066
:10098600FC010401FC008401000100010400FC00DC
:1009960004000000F8010401040104010400F80049
:1009A60000010101FF0085010401040088007000B8
:1009B6000000000070008801040104010501FF0029
:1009C600010104010401FC0084010401000180000E
:1009D60000000000CC012401240124012401980018
:1009E6000000000100010007F801040104000000F6
:1009F60000010001F8000400040004010801FC00E5
:100A060004010001800170000C00100160018001EA
:100A16000001F0010C003001C00030010C01F001B2
:100A26000000000104018C00740170018C010400B7
:100A360000010101810171000E00180160018001B1
:100A46000000000184010C013401440184010C0002
:100A560000000000000000000001003EFC400240D3
:100A6600020000000000000000FFFF000000000080
:100A7600000000400240023EFC01000000000000B1
:100A86000000006000800080004000400020002040
:100A96000000000000000000000000000000000050
:100AA6000000000000000000000000000000000040
:100AB6000000000000000000000000000000000030
:100AC600000000000F80380FFE380F80380000004D
:100AD600000000000000000000000000000000010F
:100AE60000000600000C000038000031000006007F
:100AF600000C00003800003000000000000000007C
:100B06000061800067F807F980006180006180005D
:100B160061800061800067F807F98000618000004D
:100B26000000000000000001C0E003E0F00630080D
:100B36000418081FFFFE040E080787F00381E00073
:100B4600000000000001F000060C00040408060C7A
:100B56007001F9C0000E00003BE000EC1807080821
:100B6600040C180003E00000000001E00007F00399
:100B7600F818041C0804170807E1D003C0E0002396
:100B8600B0003C0800200800001000000000000033
:100B96000100003100003200001C000000000000CF
:100BA600000000000000000000000000000000003F
:100BB600000000000000000000000000000000002F
:100BC600007F0001FFC00780F00C00181000042011
:100BD60000020000000000002000021000040C00CB
:100BE600180780F001FFC0007F0000000000000031
:100BF60000000000000000000000000000420000AD
:100C06006600006600003C0000180003FFC00018E4
:100C160000003C0000660000660000420000000084
:100C26000008000008000008000008000008000195
:100C3600FFC00008000008000008000008000008C7
:100C46000000000000000100003100003200001C1E
:100C5600000000000000000000000000000000008E
:100C66000000000000000000000800000800000866
:100C76000000080000080000080000080000080046
:100C8600000800000800000000000000000000004E
:100C960000380000380000380000000000000000A6
:100CA600000000000000000000000000000000003E
:100CB60000000600001C000070000180000E00000D
:100CC600380000C0000700001C00003000000000D3
:100CD60000000000007F8001FFE00380700600181E
:100CE60004000804000806001803807001FFE000F5
:100CF6007F800000000000000000000100080100E5
:100D06000801000803FFF807FFF8000008000008C4
:100D160000000800000000000000000001C03802CA
:100D2600C058040098040118040218040418061C8C
:100D36001803F81801E0F8000000000000000000A9
:100D460001C0E003C0F0040008040808040808060F
:100D5600180803F41801E7F00001E00000000000A5
:100D660000000000000300000D00001100006100FB
:100D760000810803010807FFF80FFFF800010800CB
:100D860001080000000000000000E007FCD0060893
:100D960008061008061008061008061838060FF090
:100DA6000607C0000000000000000000003F8001B0
:100DB600FFE0038430020818041008041008041029
:100DC60008071810030FF00007C00000000000001D
:100DD60000000003C0000700000600000600F80639
:100DE60007F806180006E0000700000600000000ED
:100DF6000000000001E1E003F7F0063410041808D3
:100E0600041808040C08040C0806161803F3F0016D
:100E1600C1E000000000000000F80003FC300306FB
:100E2600380402080402080402080404100308F047
:100E360001FFC0007F00000000000000000000006D
:100E460000000000000000000070380070380070DC
:100E56003800000000000000000000000000000054
:100E660000000000000000000000000000301A0032
:100E7600301C000000000000000000000000000020
:100E8600000000000000000008000014000022001E
:100E9600004100008080010040020020040010088C
:100EA60000080000000000000021000021000021D1
:100EB6000000210000210000210000210000210087
:100EC60000210000210000000000000000000008D2
:100ED600000804001002002001004000808000414C
:100EE60000002200001400000800000000000000BE
:100EF60003C00004C000040000080038080F3808CA
:100F060008380810000C300007E00003C00000009D
:100F160000000000003F8000FFE0038070020F1019
:100F260006708804C088048308047F8802C0900382
:100F3600012000FE400000080000180001F8003EF5
:100F46000801C20007020007E20000FE00001FC8F9
:100F56000001F800003800000804000807FFF80741
:100F6600FFF8040808040808040808040808061816
:100F76000803F41801E7F00001E00000000000009B
:100F8600003F8001FFE0038070020018040008049F
:100F960000080400080400100600200780C00000B6
:100FA6000004000807FFF807FFF80400080400081B
:100FB60004000804001802001003807001FFE0001E
:100FC6007F8000000004000807FFF807FFF8040808
:100FD60008040808040808040808043E0804000871
:100FE60006001801006000000004000807FFF8076B
:100FF600FFF8040808040800040800040800043E7A
:10100600000600000600000180000000000000004D
:10101600003F8001FFE0038070060018040008040A
:1010260002080402080203F00783F000020000022F
:101036000004000807FFF807FFF804080800080086
:1010460000080000080000080004080807FFF80769
:10105600FFF8040008000000000000040008040077
:101066000804000807FFF807FFF804000804000852
:101076000400080000000000000000000000060058
:10108600000700000104000104000104000307FF3B
:10109600FE07FFFC04000004000004000004000832
:1010A60007FFF807FFF8040C08001800003E0004CC
:1010B600C7800503C80600F80400380400180000BD
:1010C6000804000807FFF807FFF8040008000008F6
:1010D60000000800000800000800000800001800D2
:1010E600006000000004000807FFF807800807FCFE
:1010F60000007FC00003F80007C0007800078008E2
:1011060007FFF807FFF804000804000807FFF807C0
:10111600000803C00000E000003800001E000007C1
:10112600000001C00400F007FFF804000000000002
:10113600007F8001FFE003807006001804000804A9
:10114600000806001803003001FFE0007F80000061
:101156000004000807FFF807FFF804040804040069
:10116600040400040400040400060C0003F8000153
:10117600F000000000000000007F8001FFE0038017
:10118600700600880400880400C806003C03003E80
:1011960001FFE6007F8400000004000807FFF8074F
:1011A600FFF8040808040800040C00040F00040BF0
:1011B600C00610F003F03801E00800000800000047
:1011C60001E0F803F030063010041808041808048B
:1011D6000C08040C080206180207F00781E000005C
:1011E600000180000600000400000400000400085E
:1011F60007FFF807FFF804000804000004000006D3
:10120600000001800004000007FFE007FFF0040073
:101216001800000800000800000800000800000888
:1012260004001007FFE004000004000006000007A9
:10123600E00007FE00041FE00001F800003800018E
:10124600E0043E0007C000060000040000040000A1
:1012560007E00007FFC0041FF80007C007F80007F3
:10126600FF80043FF80007C004F8000700000400F0
:101276000000000004000806001807C07805F1C841
:10128600003E00001F800463E80780F8060018048B
:10129600000800000004000006000007800007E0C8
:1012A60008047C08001FF80007F800180804E00886
:1012B6000700000600000400000000000100080608
:1012C60000380400F80403E8040F08047C0805F05D
:1012D6000807C008070018040060000000000000AE
:1012E6000000000000000000000000003FFFFE209C
:1012F600000220000220000220000220000200005E
:101306000000000000000008000007000000C00008
:101316000038000006000001C000003000000E008A
:101326000001000000000000000000200002200074
:10133600022000022000022000023FFFFE00000003
:101346000000000000000000000000000000000097
:1013560000000800001000003000002000003000EF
:10136600001000000800000000000000000000015E
:101376000000010000010000010000010000010062
:101386000001000001000001000001000001000052
:101396000100000000000000000020000020000006
:1013A6001000001000000000000000000000000017
:1013B60000000000000000000000F00019F8001B0B
:1013C60018002208002608002408002410003FF810
:1013D600001FF800000800001800000004000007C5
:1013E600FFF80FFFF0001818001008002008002072
:1013F60008003018001FF0000FC0000000000000B9
:101406000007C0001FF00018300020080020080068
:101416002008003C08001C100000600000000000CE
:10142600000000000007C0001FF000381800200868
:1014360000200800200804101007FFF80FFFF00036
:1014460000100000000000000000000007C0001FA0
:10145600F00012300022180022080022080032088C
:10146600001E10000E2000000000000000200000FA
:10147600200800200801FFF803FFF80620080420D2
:1014860008042008072000030000000000000000F8
:1014960000000E000E6E001FF30031B10020B100F7
:1014A60020B1003191001F13002E1E00200E0030C7
:1014B6000000000004000807FFF80FFFF8001008FE
:1014C600002000002000002008003FF8001FF80060
:1014D60000080000000000000000000020080020B6
:1014E60008002008063FF8063FF80000080000083C
:1014F60000000800000000000000000000000000DE
:101506000003000003002001002001002003063F25
:10151600FE063FFC00000000000000000000000086
:1015260004000807FFF80FFFF80001880003000019
:101536002FC00038F80020380020080000080000FE
:101546000000000000000004000804000804000871
:1015560007FFF80FFFF80000080000080000080069
:101566000000000000002008003FF8003FF80010CF
:1015760008002000003FF8003FF800100800200097
:10158600003FF8003FF800000800000000200800B7
:101596003FF8003FF800100800100000200000206F
:1015A60008003FF8001FF8000008000000000000D7
:1015B6000007C0000FF000183000300800200800B7
:1015C6002008003008001830000FF00007C00000A7
:1015D60000000000002001003FFF003FFF00101147
:1015E600002009002008002008003038001FF00005
:1015F6000FC00000000000000007C0001FF0003808
:1016060018002008002008002009001011001FFF04
:10161600003FFF0000010000000020080020080035
:101626002008003FF8003FF80008080010080020D6
:10163600080020000030000030000000000000001C
:10164600000000000C78001E180033080023080074
:1016560021080021880021980030F0003860000041
:101666000000000000200000200000200000FFF025
:1016760003FFF800200800200800200800003000C2
:101686000000000000000000002000003FF0007F86
:10169600F8000018000008000008002010003FF8BD
:1016A600007FF00000100000000000000020000095
:1016B6003000003C00003F800023F000007800006E
:1016C60070002380003C0000300000200000200055
:1016D600003C00003FE00023F80000E00027000087
:1016E6003E00003FE00021F80001E0003E0000203F
:1016F60000000000002008002008003838003E687E
:101706000027800003C8002CF80038380020180095
:101716002008000000000000002000003003003C0C
:1017260001003F830023EC000070002380003C0092
:101736000020000020000000000000000000000063
:1017460038080020380020F80023E8002F88003EE3
:101756000800380800201800007000000000000093
:10176600000000000000000000000000000800006B
:1017760014001FF7FC3000062000020000000000E5
:101786000000000000000000000000000000000053
:10179600000000FFFFFF0000000000000000000046
:1017A60000000000000000000000002000023000E1
:1017B600061FF7FC001400000800000000000000EF
:1017C600000000000000000000000000180000609B
:1017D600000040000040000020000010000008004B
:1017E600000400000400000C0000100000C6D50034
:1017F60000000000E0380000783C00003C78000063
:101806003C70C0001CE1E01FFFFFF0001CE3000E6F
:101816001CE7C0079CE78003DCEF0003DCEE000159
:10182600DCFC60009CF9F07FFFFFF800000000017F
:10183600C00E0001FFFF0001C00E0001C00E000136
:10184600C00E0001FFFE0001C00E0001C00E000127
:10185600C00E0001FFFE0001C00E0001C00E000018
:10186600000000D6D000000000000700000007803E
:101876000000070000000700000007000000070145
:10188600801FFFFFE01FFFFFE01E0701C01E0701CC
:10189600C01E0701C01E0701C01E0701C01E0701AA
:1018A600C01FFFFFC01FFFFFC01E0701C01C0701AE
:1018B6008000070000000700000007000000070086
:1018C60000000700000007000000070000000700F6
:1018D600000007000000000000BFC6000000000076
:1018E600000780003C07C001FC07803FE007803905
:1018F600C1C78001C0E78001C0F78001C0778001C1
:10190600DE77807FFE078001C0078003C3C78003A0
:10191600E1E78003F8F78007FCE7F00FDE67F80FD2
:10192600DC07F81FC0FF801DDFE78039CC07807118
:10193600C0078061C0078001C0078001C007800121
:10194600E0078001E0078001C0070000000000BC3E
:10195600BC000000000380300003C03C0003C03C14
:101966000003C0380003C0380003C0386003F838ED
:10197600F07FFFFFF003C0380003C0380003C03813
:101986000003DC39C003FFFFE007E383C03FC183E8
:10199600C07FC1C3803BC1C78003C0EF0003C0EF57
:1019A6000003C07E0003C07C0003C07C0003C0FEB1
:1019B600003BC3EF803F8787F80FBF03F807780027
:1019C600E000000000C4EA0000000000C0000001C2
:1019D600F0000001E0000003C000C003C001E00702
:1019E600FFFFF00703C0000E03C0001E03C0003C4B
:1019F60003C3007303C78063FFFFC00383C00003F4
:101A060083C0000383C0000383C0000383C0600358
:101A160083C0F07FFFFFF80003C0000003C0000092
:101A260003C0000003C0000003C0000003C00000A4
:101A360003C0000003C00000000000D4C200000084
:101A4600000000000000E0070000FFFF8000F00734
:101A56008000F0070000F0070000F0070000F00724
:101A66000000FFFF0000FFFF0000F0070000F00786
:101A76000000F0070000F0070000E0070000FFFF8D
:101A86000000E0070000E0070000E0070001E007B3
:101A96000001C0070001C00700038007000780F7A8
:101AA600000F007F001E001F0038001C0000000011
:101AB60000C8D5000000000000000003000300037A
:101AC600FFFF8003FFFF80038007000380070003FA
:101AD60080070003800700038007000380070003D8
:101AE6008007000380070003FFFF00038007000351
:101AF60080070003800700038007000380070003B8
:101B060080070003800700038007000380070003A7
:101B1600FFFF000380070003800700038007000320
:101B260000000000000000D0C70000000000000018
:101B3600000380070003FFFF800380070003800780
:101B4600000380070003FFFF0003800700038007F0
:101B56000003FFFF0003FFFF00038707000387C0A2
:101B66000003C7810003C7838007FFFFC007078004
:101B7600000F0780001E0786001C078F003BFFFF33
:101B8600807007800000078000000780E000078162
:101B9600F07FFFFFF80000000000000000C6DA003A
:101BA60000000006000000079E0000079E7FF00769
:101BB6009E7FF0079FF8F03FFFF8F01F9E78F00732
:101BC6009E78F0079E78F007FE7FF0079E78F00774
:101BD6009E78F0079E70F007FE70F0079E70F00783
:101BE6009E7FF0079FFFF03FFFF0F0119070F0032B
:101BF600DCF0F003DEE0F0078FE0F00F0FE0F00E10
:101C060007C0F01C038FF0380F03E0201C01C00052
:031C1600000000CB
:0A75AE0042030AFFFF42030C000035
:10000300E4FDFCC3ED9FEC9E5014E4FBFA0BBB0034
:0E001300010AEBF44A70F60DBD00010C80E509
:0100210022BC
:08746D007E00127475E4FFFEBD
:04747500AD07AC06AD
:10747900ECFFAE05D2A5C2A7D2B2C2A68F90C2A513
:0C748900D2A5AF068F90C2A5D2A5D2A755
:0174950022D4
:0D743F007E00127475900058E0FEA3E0FF7F
:04744C00AD07AC06D6
:10745000ECFFAE05D2A5C2A7D2B2D2A68F90C2A52C
:0C746000D2A5AF068F90C2A5D2A5D2A77E
:01746C0022FD
:08749600900377E0FEA3E0FF84
:04749E00AD07AC0684
:1074A200ECFFAE05D2A5C2A7D2B2D2A68F90C2A5DA
:0C74B200D2A5AF068F90C2A5D2A5D2A72C
:0174BE0022AB
:067595007C107F037E0064
:0E759B00AB05AA04127475AE02AF0302744C65
:10752D007590FF7580FFC2A7D2A6C2B200AF90EFD3
:0E753D00FED2B2C2B200AD90EDFFD2B2D2A724
:01754B00221D
:1071A200EF7026FD7C057F01FE12759B7D30127506
:1071B20095900305E4F0A374DCF0900303E4F0A3DC
:1071C20074B0F0E4900309F0227D007C047F017E1C
:1071D2000012759B7D38127595900305E4F0A37437
:1071E200B0F0900303E4F0A374DCF090030974019F
:0271F200F02289
:1040D400D2B37F647E0012754CC2B37F647E00123B
:1040E400754CD2B37F647E0012754CE4FFFE1274EB
:1040F4007512752D900307EEF0A3EFF07BFF7A00A5
:104104007926900037EEF0A3EFF0122EA5E4FFFE1F
:104114001274757F017E0012744C7F0A7E00127542
:10412400D27F0712746D7F1212746D7FA47E001209
:1041340074757F017E001274757F0A7E001275D239
:104144007F707E001274757F007E9B12744C7F0713
:104154007E001274757F317E0012744C7F187E00CD
:104164001274757F017E0012744C7F107E001274ED
:10417400757FB07E1112744C7F117E001274757FAE
:10418400077E0012744C7F127E001274757F177EB6
:104194001012744C7F137E001274757F0D7E85128D
:1041A400744C7F147E001274757F007E8012744CF0
:1041B4007F127E001274757F3C7E1012744C7F96C1
:1041C4007E001200037F011274757F007E05127455
:1041D4004C7F027E001274757F007E0712744C7F40
:1041E400037E001274757F307E1012744C7F087E3B
:1041F400001274757408FFFE12744C7F0B7E00125B
:1042040074757F007E1112744C7F0C7E00127475DD
:10421400E4FFFE12744C7F0F7E001274757F017EE2
:104224001412744C7F157E00127475E4FFFE127430
:104234004C7F207E00127475E4FFFE12744C7F21C3
:104244007E00127475E4FFFE12744C7F507E0012DF
:104254007475E4FFFE12744C7F517E001274757FF6
:10426400AF7E0012744C7F527E00127475E4FFFE20
:1042740012744C7F537E001274757FDB7E001274BF
:104284004C7F707E001274757F007E1B12744C7F0D
:10429400717E00127475E4FFFE12744C7F907E00F0
:1042A400127475E4FFFE12744C7F917E00127475D3
:1042B4007F007E0112744C7F927E001274757F0120
:1042C4007E0012744C7F597E001274757F0C7E053B
:1042D40012744C7F907E001274757F107E001274ED
:1042E4004C7F927E001274757F007E0612744C7FA0
:1042F400077E001274757F337E0212744C7F327E07
:10430400001200037F22127475E4FF1271A290035D
:094314000CE0FEA3E0FF026F487B
:056D1D00E0FEA3E0FF11
:106D2200900058EEF0A3EFF0A3ECF0A3EDF0900387
:106D320009E070357F50FE1274417F517E0012745B
:106D420075AF03AE0212744C7F527E00127475A3AB
:106D52001274477F537E0012747590005E1274475E
:106D62007F2012743F7F2180327F5212743F7F5303
:106D72007E00127475AE02AF0312744C7F507E0017
:106D8200127475A31274477F517E001274759000BD
:106D92005E1274477F2112743F7F207E0012747549
:0C6DA200A31274477F227E001274752239
:0E68100090033FEEF0A3EFF0A3ECF0A3EDF049
:10681E00E4A3F0A304F0A3E4F0A304F0900303E0D8
:10682E00FEA3E0FFC3900340E09F90033FE09E5025
:10683E0015900305E0FEA3E0FFC3900342E09F9096
:10684E000341E09E4004E4FEFF22900341E0FCA3DE
:10685E00E0FD90033FE0FAA3E0FBA3E0FFA3E0908E
:10686E00005ECFF0A3EFF090033F126D1D12752D59
:10687E00AB07AA0612752DAA06AB07EA131313541B
:10688E001FFF900345E4F0A3EFF0EB7805CEC313A2
:10689E00CE13D8F9543FFF900343E4F0A3EFF07CFE
:1068AE0000EB541FFD900343E0FEA3E07805C333D5
:1068BE00CE33CED8F9FBAA06ED33333354F84AFE65
:1068CE00EBFF900345E04EFAA3E04FAC02AE04FF9F
:0168DE002297
:086F4800900034EEF0A3EFF01D
:106F5000E4A3F0A3F0900304E024FFFB900303E01C
:106F600034FFFA900306E024FFFE900305E034FFAF
:106F700090005EF0A3CEF0E4FDFCFFFE126D22E473
:106F8000FAFBD3900304E09B900303E09A4039E4BA
:106F9000900036F0A3F0900305E0FEA3E0FFC3905D
:106FA0000037E09F900036E09E5016900034127437
:106FB00099900037E004F070DD900036E004F08036
:086FC000D50BBB00010A80BAE9
:016FC80022A6
:1068DF009002E1ECF0A3EDF09002DFEEF0A3EFF009
:0868EF009002E3EAF0A3EBF0D4
:1068F700E49002E9F0A3F0D3EF9BEE9A400302691C
:10690700A79002E5E0FEA3E0FF9002E1E0FCA3E030
:10691700FD9FEC9E40030269A7A3E0FAA3E0FB906A
:10692700005EEEF0A3EFF09002DF126D1D9002DF24
:10693700E0FEA3E0FFC39002E4E09FFF9002E3E0E4
:106947009ECF2401CF34009002DFF0A3EFF0A3E045
:10695700FEA3E0FFC39002E6E09FFF9002E5E09E02
:10696700CF2401CF34009002E1F0A3EFF09002DFD3
:1069770074FFF5F012327445F060259002E1E0FFF4
:10698700A3E09002E9CFF0A3EFF09002E974FFF5DE
:10699700F012327445F060D59002E712749980EADC
:0169A70022CD
:0E60BD009001E4EEF0A3EFF0A3ECF0A3EDF001
:1060CB009001E4E0FEA3E0FFC3EB9FFFEA9ECF2429
:1060DB0001CF34009001F1F0A3EFF09001E6E0FE68
:1060EB00A3E0FFC39001EBE09FFF9001EAE09ECF9E
:1060FB002401CF34009001EFF0A3EFF09001E6E024
:10610B00FCA3E0FD9001EAE0FFA3E090005ECFF07E
:10611B00A3EFF09001E4126D1DE49001F3F0A3F0F6
:10612B009001EFE0FEA3E0FFC39001F4E09F90012C
:10613B00F3E09E5074E49001F5F0A3F09001F1E0D0
:10614B00FEA3E0FF9001F5E0FAA3E0FBC39FEA9EFC
:10615B0050469001F1E0FCA3E0FDA3E0FEA3E0FFBD
:10616B001231F7EB2FFFEA3EFEEF25E0FFEE33FE99
:10617B009001ECE0FBA3E0FAA3E0F98F828E83128F
:10618B00328AFFAEF012749E9001F6E004F070AC10
:10619B009001F5E004F080A49001F4E004F070802D
:0961AB009001F3E004F002612B05
:0161B40022C8
:1073190090003AFEE0FCA3E0FDC3900037E09DFD3C
:06732900900036E09CFC20
:10732F00AB07AA068D828C83C006C007AE83AF82DF
:10733F0090005EEEF0A3EFF0D007D006126D229012
:0A734F00030AE0FEA3E0FF02749EB3
:06728D00FDE0FAA3E0FBA6
:10729300900367EEF0A3EFF090036BEAF0A3EBF03B
:1072A300900369ECF0A3EDF0900367E0FAA3E0FB31
:1072B300FFAE02C007A3E0FFA3E090005ECFF0A300
:1072C300EFF0D007126D2290036BE0FEA3E0FF0204
:0272D300749EA7
:1070C40090036DEEF0A3EFF0A3ECF0A3EDF0A3EAD0
:1070D400F0A3EBF012729390036EE02401FF90038F
:1070E4006DE03400FE90036FE0FCA3E0A312728D08
:1070F40090036DE0FEA3E0FF900370E02401FD9097
:10710400036FE03400FC90037112728E90036EE002
:107114002401FF90036DE03400FE900370E024012D
:10712400FD90036FE03400FC900371E0FAA3E0FBF0
:0371340002729351
:0E47470090003CEEF0A3EFF0A3ECF0A3EDF039
:10475500E4900044F0A3F0A3F0A3F0A3F0A3F0903D
:10476500003CE0FEA3E0FFC3EB9FFFEA9E90004AFA
:10477500F0A3EFF090003EE0FAA3E0FBC390004306
:10478500E09BFE900042E09A90004CF0A3CEF090A2
:10479500003CE0FFA3E0900054CFF0A3EFF0A3EAC4
:1047A500F0A3EBF090004AE0FEA3E0FFD39400EE07
:1047B50064809480400A900050E4F0A304F08021C6
:1047C500EF4E7008900050F0A3F0801574FF900034
:1047D50050F0A3F0C3E49FFFE49E90004AF0A3EFDE
:1047E500F090004CE0FEA3E0FFD39400EE648094CB
:1047F50080400A900052E4F0A304F08021EF4E704F
:1048050008900052F0A3F0801574FF900052F0A3B9
:10481500F0C3E49FFFE49E90004CF0A3EFF09000FE
:104825004CE0FEA3E0FF90004AE0FCA3E0FDD39F2F
:10483500EE6480F8EC64809890004E4007ECF0A39D
:10484500EDF08005EEF0A3EFF0E4900044F0A3F066
:1048550090004FE02401FF90004EE03400FED3901D
:104865000045E09F900044E09E40030249359000DA
:1048750054E0FEA3E0FFA3E0FCA3E0FD12732F903C
:10488500004AE0FEA3E0FF900047E02FF0900046CD
:10489500E03EF090004CE0FEA3E0FF900049E02FE1
:1048A500F0900048E03EF090004EE0FEA3E0FF905F
:1048B5000046E0FCA3E0FDD39FEE6480F8EC648045
:1048C500984020ED9FFFEC9E900046F0A3EFF090FE
:1048D5000050E0FEA3E0FF900055E02FF09000545B
:1048E500E03EF090004EE0FEA3E0FF900048E0FCC3
:1048F500A3E0FDD39FEE6480F8EC6480984020ED42
:104905009FFFEC9E900048F0A3EFF0900052E0FE70
:10491500A3E0FF900057E02FF0900056E03EF090A6
:104925000045E004F07006900044E004F0024855AC
:01493500225F
:0E4936009000E4EEF0A3EFF0A3ECF0A3EDF0A0
:10494400E49000F0F0A3F0A3F0A3F09000E4E0FE04
:10495400A3E0FFC3EB9FFFEA9E9000F4F0A3EFF007
:104964009000E6E0FAA3E0FBC39000EBE09BFE902E
:1049740000EAE09A9000F6F0A3CEF09000E4E0FFA5
:10498400A3E09000FECFF0A3EFF0A3EAF0A3EBF0D6
:104994009000F4E0FEA3E0FFD39400EE64809480E2
:1049A400400A9000FAE4F0A304F08021EF4E70086E
:1049B4009000FAF0A3F0801574FF9000FAF0A3F0D1
:1049C400C3E49FFFE49E9000F4F0A3EFF09000F6A0
:1049D400E0FEA3E0FFD39400EE64809480400A904C
:1049E40000FCE4F0A304F08021EF4E70089000FC7A
:1049F400F0A3F0801574FF9000FCF0A3F0C3E49FD3
:104A0400FFE49E9000F6F0A3EFF09000F6E0FEA322
:104A1400E0FF9000F4E0FCA3E0FDD39FEE6480F897
:104A2400EC6480989000F84007ECF0A3EDF080056A
:104A3400EEF0A3EFF0E49000EEF0A3F09000F9E0C4
:104A44002401FF9000F8E03400FED39000EFE09FD3
:104A54009000EEE09E4003024B229000FEE0FEA395
:104A6400E0FFA3E0FCA3E09000EC12728D9000F450
:104A7400E0FEA3E0FF9000F1E02FF09000F0E03EB4
:104A8400F09000F6E0FEA3E0FF9000F3E02FF0903A
:104A940000F2E03EF09000F8E0FEA3E0FF9000F0AA
:104AA400E0FCA3E0FDD39FEE6480F8EC64809840C2
:104AB40020ED9FFFEC9E9000F0F0A3EFF09000FA41
:104AC400E0FEA3E0FF9000FFE02FF09000FEE03E48
:104AD400F09000F8E0FEA3E0FF9000F2E0FCA3E019
:104AE400FDD39FEE6480F8EC6480984020ED9FFF36
:104AF400EC9E9000F2F0A3EFF09000FCE0FEA3E047
:104B0400FF900101E02FF0900100E03EF09000EFF3
:0E4B1400E004F070069000EEE004F0024A406B
:014B22002270
:1063A000900373EEF0A3EFF0900377EAF0A3EBF025
:0863B000900375ECF0A3EDF081
:1063B800900373E0FAA3E0FB24FFFFEA34FFFEC07A
:1063C80006C007ED24FFFDEC34FFFCEB2401FBE4E1
:1063D8003AFAA3E0FEA3E02401FFE43E90005EF059
:1063E800A3EFF0D007D006126D22E4FBEBC39409AB
:1063F8007480948050061274960B80F0900374E0B9
:1064080024FCFF900373E034FFFEC007900375E09F
:10641800FCA3E0FD900374E02404FB900373E034D4
:1064280000FA900375E0FFA3E090005ECFF0A3EFC1
:10643800F0D007126D22E4FBEBC3940974809480BA
:1064480050061274960B80F0900376E024FCFD90C1
:106458000375E034FFFC900373E0FAA3E0FBA3E0CC
:10646800FEA3E02404FFE43E90005EF0A3EFF0906A
:106478000373126D1DE4FBEBC39409748094805080
:07648800061274960B80F070
:01648F0022EA
:106BDF00900038EAF0A3EBF0900034EEF0A3EFF062
:106BEF00A3ECF0A3EDF0C007A3E0FAA3E0FB900045
:106BFF0036E0FFA3E0900042CFF0A3EFF0D00712F2
:106C0F004747900034E0FAA3E0FBFFAE02C007A3B2
:106C1F00E0FCA3E0FD90003AE0FFA3E0900042CF3C
:106C2F00F0A3EFF0D00712474790003AE0FCA3E043
:106C3F00FD900038E0FAA3E0FBA3E0FFA3E0900093
:106C4F0042CFF0A3EFF0900034E0FEA3E0FF124735
:106C5F0047900038E0FAA3E0FBFFAE02C0079000B8
:106C6F0036E0FCA3E0FD90003AE0FFA3E090004285
:0A6C7F00CFF0A3EFF0D00702474763
:0E4D0C00900034EEF0A3EFF0A3ECF0A3EDF076
:104D1A00E4A3F0A3F0EBFF7E00A3EEF0A3EFF025EF
:104D2A00E0FFEE33FEC374039F90003DF0E49E90D3
:104D3A00003CF090003AE0FEA3E0FF900038E0FC6F
:104D4A00A3E0FDD39FEE6480F8EC648098400302F0
:104D5A004EE3900035E02DFF900034E03C127319C9
:104D6A0090003AE0FEA3E0FF900035E02FFF9000AC
:104D7A0034E03E90003812731C90003AE0FEA3E043
:104D8A00FF900035E02FFF900034E03EFE9000389F
:104D9A00E0FCA3E0FD900037E02DFD900036E03CFA
:104DAA00FC12732F900038E0FEA3E0FF900035E07C
:104DBA002FFF900034E03EFE90003AE0FCA3E0FDB5
:104DCA00900037E02DFD900036E03CFC12732F90E6
:104DDA000038E0FEA3E0FFC3900035E09FFF90009B
:104DEA0034E09EFE90003AE0FCA3E0FD900037E03C
:104DFA002DFD900036E03CFC12732F90003AE0FE45
:104E0A00A3E0FFC3900035E09FFF900034E09EFED0
:104E1A00900038E0FCA3E0FD900037E02DFD900003
:104E2A0036E03CFC12732F900038E0FEA3E0FFC38B
:104E3A00900035E09FFF900034E09E1273199000B5
:104E4A003AE0FEA3E0FFC3900035E09FFF900034F4
:104E5A00E09EFE90003812731D900039E004F07055
:104E6A0006900038E004F0C390003CE0648094802F
:104E7A005025900038E0FEA3E07802C333CE33CE4B
:104E8A00D8F92406FFE43EFE90003DE02FF09000A2
:104E9A003CE03EF0024D3D90003AE0FEA3E0FFC345
:104EAA00900039E09FFF900038E09EFEEF7802C341
:104EBA0033CE33CED8F9240AFFE43EFE90003DE01B
:104ECA002FF090003CE03EF090003BE024FFF09091
:094EDA00003AE034FFF0024D3D06
:014EE30022AC
:1055B1009002EBEEF0A3EFF09002EFEBF09002ED32
:0555C100ECF0A3EDF089
:1055C6009002F4ECF0A3EDF09002F0E0FF13131359
:1055D600541FFEEF540760047F0180027F00EE2F08
:1055E600FF9002F0E0C313FEEF8EF0A49002F6F0F7
:1055F6009002EFE024E0F0E4F99002F6E0FFE9C360
:105606009F40030257379002F0E0FF7E00640C7063
:10561600129002EFE075F00CA42433F582E5F03425
:10562600008033EF64104E70129002EFE075F010B8
:10563600A424A7F582E5F03404801B9002F0E06410
:105646001860030257379002EFE075F024A4249700
:10565600F582E5F0340AF583E58229F582E435839F
:10566600F583E4939002F2F0E49002F3F09002F3F3
:10567600E0C394087480948040030257339002F28A
:10568600E030E7139002EBE0FEA3E0FFA3E0FCA30B
:10569600E0FD90030A80179002F1E070149002EB8F
:1056A600E0FEA3E0FFA3E0FCA3E0FD90030C127272
:1056B6008E9002F2E025E0F09002EEE004F0700633
:1056C6009002EDE004F0900305E0FEA3E0FF9002F7
:1056D600EDE0FCA3E0FDC39FEC9E50559002F4E084
:1056E600FEA3E0FFC3ED9FFDEC9EFC9002F0E07A86
:1056F60000B50530EAB5042C9002EDEEF0A3EFF00C
:105706009002ECE004F070069002EBE004F09003E7
:1057160003E0FEA3E0FFC39002ECE09F9002EBE003
:105726009E400A229002F3E004F0025673090255E5
:01573600FF73
:01573700224F
:0771F400C3EF9E14FD7F0AAA
:0871FB00900379EFF0A3EDF021
:10720300A31234520000000190037AE0FF14F0EF60
:107213006020A3E0F8A3E0F9A3E0FAA3E0FB900366
:1072230079E0FFE4FCFDFE1232EF90037B1234465B
:1072330080D690037BE0FCA3E0FDA3E0FEA3E0FF88
:017243002228
:0E6662009002ABEEF0A3EFF0A3ECF0A3EDF08E
:10667000E49002B7F09002B5F09002B3E0FF900210
:10668000B5E0FEC39F400302673D1271F4A804A960
:1066900005AA06AB079002AFE0FCA3E0FDA3E0FE75
:1066A000A3E0FF12337AE47B0AFAF9F812337A9006
:1066B00002B6EBF0A3E070459002B3E014FF900245
:1066C000B5E0FEC39F5036A3E0702C9002B4E0FB0F
:1066D000C3138EF0A4FF9002ACE02FFF9002ABE05A
:1066E00035F0FE9002ADE0FCA3E0FD9002F0EBF08F
:1066F000E4A3F07B20803A9002B77401F09002B4DA
:10670000E0FAC313FFA3E0FEEF8EF0A4FF9002AC0B
:10671000E02FFF9002ABE035F0FE9002ADE0FCA36D
:10672000E0FD9002B6E02430FB9002F0EAF0E4A332
:0D673000F01255B19002B5E004F002667958
:01673D002239
:0E5D7400900281EEF0A3EFF0A3ECF0A3EDF0AF
:105D8200E490028EF090028CF0900289E0FF900283
:105D92008CE0FEC39F4003025E9C1271F4A804A92A
:105DA20005AA06AB07900285E0FCA3E0FDA3E0FE96
:105DB200A3E0FF12337AE47B0AFAF9F812337A90FD
:105DC200028DEBF0A3E06003025E53900289E014BF
:105DD200FF90028CE0FEC39F5077A3E0706D9002AB
:105DE2008BE0F990028A30E72BE0FBC3138EF0A41C
:105DF200FF900282E02FFF900281E035F0FE9002D8
:105E020083E0FCA3E0FD9002F0EBF0E95401A3F083
:105E12007B30807AE0FBC313FF90028CE0FEEF8EB2
:105E2200F0A4FF900282E02FFF900281E035F0FEA5
:105E3200900283E0FCA3E0FD9002F0EBF090028B75
:105E4200E054019002F1F07B20804390028E7401B5
:105E5200F090028AE0FAC313FF90028CE0FEEF8E0C
:105E6200F0A4FF900282E02FFF900281E035F0FE65
:105E7200900283E0FCA3E0FD90028DE02430FB90D1
:105E820002F0EAF090028BE054019002F1F0125518
:0A5E9200B190028CE004F0025D8B79
:015E9C0022E3
:10657D009002B8EEF0A3EFF0A3ECF0A3EDF0A3EAD8
:04658D00F0A3EBF09C
:106591009002B8E0FEA3E0FF9002C4F09002BDE0DB
:1065A1002FF09002BCE03EF09002BAE0FEA3E0FFC3
:1065B1009002BFE02FF09002BEE03EF09002C1E0F9
:1065C100FBA3E0FAA3E0F912319FFFD3947E4003CD
:1065D100026661EFC3942050030266619002BCE041
:1065E100FEA3E0FF9002B9E09F9002B8E09E401F39
:1065F1009002C4E0FF9002B8E4F0A3EFF09002C073
:10660100E0FF9002BBE02FF09002BAE03400F0907E
:1066110002BEE0FEA3E0FF9002BAE0FCA3E0FDC3EE
:106621009FEC9E503B9002B8E0FEA3E0FF12319F29
:10663100FB9002C0E09002F0F0E4A3F01255B1909B
:1066410002C0E0C313FF9002B9E02FF09002B8E05E
:106651003400F09002C2E475F00112325E0265BDB1
:016661002216
:1059C50090030EEEF0A3EFF0A3ECF0A3EDF0A3EB44
:0759D500F0A3EAF0A3E9F0E2
:1059DC00900312E0FBA3E0FAA3E0F912319F7003ED
:1059EC00025B0690030EE0FAA3E0FBFFAE02C006DA
:1059FC00C007A3E0FCA3E0FDEB241FFBE43AFA9004
:105A0C000310E0FEA3E0241CFFE43E90005EF0A334
:105A1C00EFF0D007D006126D22E4900315F090033E
:105A2C0015E0FFC39414748094804003025AEB90E9
:105A3C000312E0FBA3E0FAA3E0F912319FFE75F02C
:105A4C0076EFA424F3F582E5F03417F583E4936E36
:105A5C006003025AE29000011231B8FF900315E086
:105A6C0075F076A424F4F582E5F03417F583E4930D
:105A7C006F7063FBEBC394747480948050589003E4
:105A8C0015E075F076A424F5F582E5F03417F5836E
:105A9C00E5822BF582E43583F583E493FF900316BE
:105AAC00E4F0A3EFF0E4FAEAC39408748094805015
:105ABC0022900317E030E70590030A800390030C53
:105ACC00127499900317E025E0F0900316E033F080
:105ADC000A80D40B809E900315E004F0025A2A90A1
:105AEC000313E475F00212325E90030FE02420F0F1
:0A5AFC0090030EE03400F00259DCC4
:015B0600227C
:105C47009001CFEEF0A3EFF0A3ECF0A3EDF0A3EA01
:045C5700F0A3EBF0DB
:105C5B00E49001DAF0A3F0A312345200000000909C
:105C6B0001E0123452000000009001D1E0FCA3E0EF
:105C7B00FDA3E0FEA3E0FF9001CFE0FAA3E02FFF2E
:105C8B00EA3ECF24FFFBEF34FFFA9001D5E0FEA3F1
:105C9B00E0FF9001D1E0F8A3E02FFFE83ECF24FF17
:105CAB00CF34FF90005EF0A3EFF09001CF126D1D8B
:105CBB009001D5E0FCA3E0FD9001D3E0FEA3E0FF53
:105CCB001231F7EF25E0FFEE33FEE4FCFD9001E02F
:105CDB001234469001DCA3A3E0FEA3E0FDAC062446
:105CEB0001FFE43CFE9001D7E0FBA3E0FAA3E0F94F
:105CFB008F828E831231B8FF9001DAE4F0A3EFF0BC
:105D0B00E0F8E4F0E89001DAF08D828C831231B880
:105D1B00FF9001DAE0FEA3E04FFF9001DAEEF0FE18
:105D2B00A3EFF012749EA3E0FCA3E0FDA3E0FEA39F
:105D3B00E02402FFE43EFEE43DFDE43CFC9001DC8C
:105D4B001234469001E0E0FCA3E0FDA3E0FEA3E0EB
:105D5B00FF9001DCE0F8A3E0F9A3E0FAA3E0FBC3BA
:085D6B0012340C5003025CDE4F
:015D7300220D
:0B75DD00C2A1D2A3D2A2D2A1C2A3225D
:1074E600C2A1E4FEEEC39408748094805016EFC4E3
:1074F600131313540124FF92A2EF25E0FFC2A1D279
:04750600A10E80E072
:01750A00225E
:1073D100E4900391F0A3F0C2A1FDFC900392E0259B
:1073E100E0F0900391E033F0D2A1C2A1A2A0E43376
:1073F100FFE0F0A3E04FF00DBD00010CED640C4C7B
:0A74010070D9900391E0FEA3E0FFB4
:01740B00225E
:07527E00EEF0A3EFF07F90BA
:02528500AB0775
:10528700C2A1C2A3E490013EF090013EE0C3940A9C
:10529700748094805042AF031274E6A37406F090B2
:1052A700013FE0D39400748094804005E014F080BF
:1052B700EED2A10000C2A100001273D190013EE01E
:1052C70025E02440F582E43401F583EEF0A3EFF006
:1052D70090013EE004F080B1D2A3E490013EF0904B
:1052E700013EE0FFC394097480948040030253A4F5
:1052F700EF04A3F090013FE0FFC3940A7480948009
:10530700400302539BEF25E02440F582E43401F586
:1053170083E0FEA3E0FF90013EE0FB25E02440F59B
:1053270082E43401F583E0FCA3E0C39FEC9E505B6D
:10533700EB25E02440F582E43401F583E0FEA3E0A9
:10534700FFE4FCFD90015412344690013FE0FA253A
:10535700E02440F582E43401F583E0FEA3E0FFEBAF
:1053670025E02440F582E43401F583EEF0A3EFF065
:10537700900154A3A3E0FEA3E0FFEA25E02440F553
:1053870082E43401F583EEF0A3EFF090013FE004EF
:10539700F00252FB90013EE004F00252E690015405
:1053A7001234520000000090013E7402F090013E5A
:1053B700E0C3940874809480503F900154E0F8A3B0
:1053C700E0F9A3E0FAA3E0FB90013EE025E02440EA
:1053D700F582E43401F583E0FEA3E0FFE4FCFDEB96
:1053E7002FFFEA3EFEED39FDEC38FC9001541234F4
:1053F7004690013EE004F080B4900154E0FCA3E045
:10540700FDA3E0FEA3E0FFE47B06FAF9F81272D5EC
:10541700900154123446900154A3A3E0FEA3E0FF89
:015427002262
:105E9D001275DD7FD012528590031812527E900339
:105EAD001EEEF0A3EFF07FD012528590031A12521E
:105EBD007EAD07AC0690031AE0FEA3E0FF90031839
:105ECD00E0FAA3E0FBD39FEA9E400AA3A3EB9FFF5A
:105EDD00EA9EA38017900318E0FEA3E0FFC3900392
:105EED001BE09FFF90031AE09E90031CF0A3EFF0C0
:105EFD0090031EE0FEA3E0FFD39DEE9C4007EF9DB7
:105F0D00FFEE9C800E90031EE0FEA3E0FFC3ED9F0D
:105F1D00FFEC9EA3F0A3EFF0D390031DE09432901D
:105F2D00031CE09400500E900321E0943290032066
:105F3D00E0940040037F002290031AE0FEA3E0FFEF
:105F4D00900319E02FFF900318E03EC313FEEF13EB
:105F5D00FF9002C5EEF0A3EFF090031FE02DFF9030
:105F6D00031EE03CC313FEEF13FF9002C7EEF0A338
:105F7D00EFF09002C6E054F0F09002C8E054F0F05B
:105F8D00C39002C6E094649002C5E09400400FD324
:105F9D009002C8E094D89002C7E0940E40037F00B1
:035FAD00227F014F
:015FB00022CE
:105B0700E4900385F0125E9DEF7003025C3C900306
:105B170009E06003025BA29002C5E0FEA3E0FFE498
:105B2700FCFD9002C91234469002C9E0FCA3E0FDD7
:105B3700A3E0FEA3E02406FFEE34FFFEED34FFFDF5
:105B4700EC34FFFCE47BB4FAF9F81232EFE47B742F
:105B57007A0EF9F812337A9002C91234469002C7C6
:105B6700E0FEA3E0FFE4FCFD9002CD123446900274
:105B7700CDE0FCA3E0FDA3E0FEA3E024A2FFEE340A
:105B8700FEFEED34FFFDEC34FFFCE47BFAFAF9F896
:105B97001232EFE47BAC7A0D025C299002C7E0FE7B
:105BA700A3E0FFC3E49FFF74109EFEE4FCFDA31275
:105BB70034469002C9E0FCA3E0FDA3E0FEA3E02485
:105BC700A2FFEE34FEFEED34FFFDEC34FFFCE47B78
:105BD700FAFAF9F81232EFE47BAC7A0DF9F81233DE
:105BE7007A9002C91234469002C5E0FEA3E0FFE4B2
:105BF700FCFD9002CD1234469002CDE0FCA3E0FDFF
:105C0700A3E0FEA3E02406FFEE34FFFEED34FFFD24
:105C1700EC34FFFCE47BB4FAF9F81232EFE47B745E
:105C27007A0EF9F812337A9002CD12344690038532
:0F5C37007401F08001E49002D1F0900385E0FF4A
:015C4600223B
:066FC9009003471234465C
:106FCF00900347E0FCA3E0FDA3E0FEA3E0FF7813EE
:106FDF00123433A3EEF0A3EFF0900347E0FCA3E0ED
:106FEF00FDA3E0FEA3E0FF780A123433EF543FFE17
:106FFF00E490034DF0A3CEF0900347E0FCA3E0FD37
:10700F00A3E0FEA3E0FF7803123433EF541FFFE435
:10701F00AD07FC90034DE0FEA3E07805C333CE33FC
:10702F00CED8F9FBAA0690034CE033333354F84A19
:09703F00FEEBFFEE4CFEEF4DFFED
:017048002225
:04735900AD07AC06CA
:10735D007BE77A187E00ED54037803C333CE33CE2A
:10736D00D8F9FFEA4EFAEB4FFB7E00ED541C780680
:10737D00C333CE33CED8F9FFEA4EFAEB4FFBED54C3
:07738D00E04AFAEBAE02FF3B
:0173940022D6
:0872440090037FEFF0A3EDF0D1
:10724C00A312345200000001900380E0FF14F0EF11
:10725C006020A3E0F8A3E0F9A3E0FAA3E0FB90031D
:10726C007FE0FFE4FCFDFE1232EF90038112344606
:10727C0080D6900381E0FCA3E0FDA3E0FEA3E0FF39
:01728C0022DF
:1071370090034F123446900353E0FCA3E0FDA3E015
:10714700FEA3E0FF90034FE0F8A3E0F9A3E0FAA362
:10715700E0FBD3123422401D900353E0F8A3E0F97B
:10716700A3E0FAA3E0FB90034FE0FCA3E0FDA3E05C
:10717700FEA3E0801A90034FE0F8A3E0F9A3E0FA3A
:10718700A3E0FBA3E0FCA3E0FDA3E0FEA3E0C39B19
:0B719700FFEE9AFEED99FDEC98FC2243
:0873950090038AEEF0A3EFF073
:10739D0090030AE0FFA3E090038CCFF0A3EFF0AFD2
:1073AD000390030AEAF0A3EFF090038AE0FEA3E056
:1073BD00FF12732F90038CE0FFA3E090030ACFF030
:0373CD00A3EFF03B
:0173D000229A
:1061B500900240EEF0A3EFF0A3ECF0A3EDF0A3EA1C
:0461C500F0A3EBF068
:1061C900E490024BF0A3F0900244E0FEA3E0FFC389
:1061D90090024CE09F90024BE09E40030262ABE4C8
:1061E90090024DF0A3F0900246E0FEA3E0FFC390B9
:1061F900024EE09F90024DE09E400302629790029A
:106209004BE0FEA3E0FF900241E02FFF900240E047
:106219003EFE90024DE0FCA3E0FD900243E02DFD1F
:10622900900242E03CFC12681090024FEEF0A3EF9E
:10623900F0900248E0FCA3E0FDA3E0FB126490901B
:10624900024FEEF0A3EFF090024BE0FEA3E0FF90C7
:106259000241E02FFF900240E03EFE90024DE0FC3B
:10626900A3E0FD900243E02DFD900242E03CFC904A
:10627900024FE0FAA3E0FB12729390024EE004F0A1
:1062890060030261EF90024DE004F00261EF9002B9
:106299004CE004F060030261D090024BE004F0028C
:0262A90061D0C2
:0162AB0022D0
:1062AC00900291ECF0A3EDF0A3EAF0A3EBF09002D6
:0662BC008FEEF0A3EFF0ED
:1062C200C39401EE94004013E024FFFE90028FE09D
:1062D20034FF900299F0A3CEF0800F90028FE0FF7E
:1062E200A3E0900299CFF0A3EFF0900291E0FEA319
:1062F200E0FFC39401EE9400400CEF24FFFFEE3464
:10630200FF90029B800B900291E0FFA3E090029B22
:10631200CFF0A3EFF090029BE0FFA3E0900295CFB5
:10632200F0A3EFF0900292E02402FF900291E03499
:1063320000FEC3900296E09F900295E09E505E9010
:106342000299E0FFA3E0900297CFF0A3EFF0900252
:1063520090E02402FD90028FE03400FC900297E06E
:10636200FEA3E0FFC39DEE9C5023900295E0FCA3A8
:10637200E0FD900293E0FAA3E0FB12729390029880
:10638200E004F070C9900297E004F080C190029698
:0D639200E004F0708F900295E004F0808729
:01639F0022DB
:0E455400900102EEF0A3EFF0A3ECF0A3EDF067
:10456200E490010EF0A3F0A3F0A3F0900102E0FEAC
:10457200A3E0FFC3EB9FFFEA9E900112F0A3EFF0CE
:10458200900104E0FAA3E0FBC3900109E09BFE90D6
:104592000108E09A900114F0A3CEF0900102E0FF2E
:1045A200A3E090011CCFF0A3EFF0A3EAF0A3EBF09D
:1045B200900112E0FEA3E0FFD39400EE64809480A9
:1045C200400A900118E4F0A304F08021EF4E700835
:1045D200900118F0A3F0801574FF900118F0A3F079
:1045E200C3E49FFFE49E900112F0A3EFF090011448
:1045F200E0FEA3E0FFD39400EE64809480400A9032
:10460200011AE4F0A304F08021EF4E700890011A21
:10461200F0A3F0801574FF90011AF0A3F0C3E49F99
:10462200FFE49E900114F0A3EFF0900114E0FEA3CA
:10463200E0FF900112E0FCA3E0FDD39FEE6480F85E
:10464200EC6480989001164007ECF0A3EDF0800531
:10465200EEF0A3EFF0E490010CF0A3F0900117E06C
:104662002401FF900116E03400FED390010DE09F7B
:1046720090010CE09E400302474690011CE0FEA31D
:10468200E0FFA3E0FCA3E0FD90010AE0FAA3E0FB57
:10469200127293900112E0FEA3E0FF90010FE02F4F
:1046A200F090010EE03EF0900114E0FEA3E0FF90D6
:1046B2000111E02FF0900110E03EF0900116E0FEB3
:1046C200A3E0FF90010EE0FCA3E0FDD39FEE648027
:1046D200F8EC6480984020ED9FFFEC9E90010EF074
:1046E200A3EFF0900118E0FEA3E0FF90011DE02F80
:1046F200F090011CE03EF0900116E0FEA3E0FF9076
:104702000110E0FCA3E0FDD39FEE6480F8EC64802E
:10471200984020ED9FFFEC9E900110F0A3EFF090E7
:10472200011AE0FEA3E0FF90011FE02FF090011EAE
:10473200E03EF090010DE004F0700690010CE00400
:04474200F002465EDD
:014746002250
:103767009000A6EEF0A3EFF0A3ECF0A3EDF0A3EA30
:04377700F0A3EBF0E0
:10377B00E49000B3F0A3F0A3F0A3F09000AEE0FF51
:10378B007E00C39000A7E09F9000A6E09E5003022E
:10379B0039D29000ABE09F9000AAE09E5003023913
:1037AB00D29000A8E0FCA3E0FD9FEC9E50030239F1
:1037BB00D29000ADE09F9000ACE09E50030239D256
:1037CB009000AEE070139000A6E0FEA3E0FF900027
:1037DB00AFE0FAA3E0FB0272939000A6E0FAA3E03D
:1037EB00FBC39000ABE09BFE9000AAE09A9000B761
:1037FB00F0A3CEF09000A8E0FEA3E0FFC39000ADD5
:10380B00E09FFF9000ACE09E9000B9F0A3EFF0902A
:10381B0000C1EAF0A3EBF09000A8A3E0FF9000C377
:10382B00EEF0A3EFF09000B7E0FEA3E0FFD394001F
:10383B00EE64809480400A9000BDE4F0A304F08015
:10384B0021EF4E70089000BDF0A3F0801574FF902F
:10385B0000BDF0A3F0C3E49FFFE49E9000B7F0A37C
:10386B00EFF09000B9E0FEA3E0FFD39400EE64808C
:10387B009480400A9000BFE4F0A304F08021EF4E47
:10388B0070089000BFF0A3F0801574FF9000BFF09C
:10389B00A3F0C3E49FFFE49E9000B9F0A3EFF09078
:1038AB0000B9E0FEA3E0FF9000B7E0FCA3E0FDD37E
:1038BB009FEE6480F8EC6480989000BB4007ECF0BE
:1038CB00A3EDF08005EEF0A3EFF0E49000B1F0A3D0
:1038DB00F09000BCE02401FF9000BBE03400FED36D
:1038EB009000B2E09F9000B1E09E40030239D2906D
:1038FB0000C3E0FCA3E0FD9000AEE0FB7A00A3E088
:10390B00FFA3E0900190CFF0A3EFF09000C1E0FE99
:10391B00A3E0FF122A9A9000B7E0FEA3E0FF90000D
:10392B00B4E02FF09000B3E03EF09000B9E0FEA3BE
:10393B00E0FF9000B6E02FF09000B5E03EF0900075
:10394B00BBE0FEA3E0FF9000B3E0FCA3E0FDD39F40
:10395B00EE6480F8EC6480984020ED9FFFEC9E9025
:10396B0000B3F0A3EFF09000BDE0FEA3E0FF9000EA
:10397B00C2E02FF09000C1E03EF09000BBE0FEA350
:10398B00E0FF9000B5E0FCA3E0FDD39FEE6480F870
:10399B00EC6480984020ED9FFFEC9E9000B5F0A367
:1039AB00EFF09000BFE0FEA3E0FF9000C4E02FF02B
:1039BB009000C3E03EF09000B2E004F0700690007F
:0739CB00B1E004F00238DC5A
:0139D20022D2
:0E26D0009000C5EEF0A3EFF0A3ECF0A3EDF048
:1026DE00E49000D2F0A3F0A3F0A3F09000C5E0FECA
:1026EE00A3E0FFC3EB9FFFEA9E9000D6F0A3EFF0AE
:1026FE009000C7E0FAA3E0FBC39000CCE09BFE90F5
:10270E0000CBE09A9000D8F0A3CEF09000C5E0FF89
:10271E00A3E09000E0CFF0A3EFF0A3EAF0A3EBF07C
:10272E009000D6E0FEA3E0FFD39400EE6480948088
:10273E00400A9000DCE4F0A304F08021EF4E700814
:10274E009000DCF0A3F0801574FF9000DCF0A3F095
:10275E00C3E49FFFE49E9000D6F0A3EFF09000D864
:10276E00E0FEA3E0FFD39400EE64809480400A90D4
:10277E0000DEE4F0A304F08021EF4E70089000DE3E
:10278E00F0A3F0801574FF9000DEF0A3F0C3E49F79
:10279E00FFE49E9000D8F0A3EFF09000D8E0FEA3E7
:1027AE00E0FF9000D6E0FCA3E0FDD39FEE6480F83E
:1027BE00EC6480989000DA4007ECF0A3EDF0800511
:1027CE00EEF0A3EFF0E49000D0F0A3F09000DBE089
:1027DE002401FF9000DAE03400FED39000D1E09F98
:1027EE009000D0E09E4003022A999000CDE070192F
:1027FE009000E0E0FEA3E0FFA3E0FCA3E0FD90006C
:10280E00CEE0FAA3E0FB1272939000CDE06401607B
:10281E00030228A49000E0E0FEA3E0FFA3E0FCA3E7
:10282E00E0FD9000CEE0FAA3E0FB1272939000E17F
:10283E00E02401FF9000E0E03400FE9000E2E0FCB6
:10284E00A3E0FD9000CEE0FAA3E0FB12729390009D
:10285E00E0E0FEA3E0FF9000E3E02401FD9000E243
:10286E00E03400FC9000CEE0FAA3E0FB12729390ED
:10287E0000E1E02401FF9000E0E03400FE9000E370
:10288E00E02401FD9000E2E03400FC9000CEE0FA7E
:10289E00A3E0FB1272939000CDE064026003022964
:1028AE00E89000E0E0FEA3E0FFA3E0FCA3E0FD90D3
:1028BE0000CEE0FAA3E0FB1272939000E1E0240157
:1028CE00FF9000E0E03400FE9000E2E0FCA3E0FDAB
:1028DE009000CEE0FAA3E0FB1272939000E0E0FECF
:1028EE00A3E0FF9000E3E02401FD9000E2E034005D
:1028FE00FC9000CEE0FAA3E0FB1272939000E1E0B0
:10290E002401FF9000E0E03400FE9000E3E024019B
:10291E00FD9000E2E03400FC9000CEE0FAA3E0FB74
:10292E001272939000E1E024FFFF9000E0E034FF8C
:10293E00FE9000E3E02401FD9000E2E03400FC9004
:10294E0000CEE0FAA3E0FB1272939000E1E02401C6
:10295E00FF9000E0E03400FE9000E3E024FFFD90E5
:10296E0000E2E034FFFC9000CEE0FAA3E0FB12722E
:10297E00939000E1E024FFFF9000E0E034FFFE9032
:10298E0000E3E024FFFD9000E2E034FFFC9000CE77
:10299E00E0FAA3E0FB1272939000E1E024FFFF90B7
:1029AE0000E0E034FFFE9000E2E0FCA3E0FD9000CA
:1029BE00CEE0FAA3E0FB1272939000E0E0FEA3E0FB
:1029CE00FF9000E3E024FFFD9000E2E034FFFC9076
:1029DE0000CEE0FAA3E0FB1272939000D6E0FEA3C5
:1029EE00E0FF9000D3E02FF09000D2E03EF0900098
:1029FE00D8E0FEA3E0FF9000D5E02FF09000D4E0E9
:102A0E003EF09000DAE0FEA3E0FF9000D2E0FCA3DF
:102A1E00E0FDD39FEE6480F8EC6480984020ED9F3B
:102A2E00FFEC9E9000D2F0A3EFF09000DCE0FEA34E
:102A3E00E0FF9000E1E02FF09000E0E03EF090002B
:102A4E00DAE0FEA3E0FF9000D4E0FCA3E0FDD39F0C
:102A5E00EE6480F8EC6480984020ED9FFFEC9E9031
:102A6E0000D4F0A3EFF09000DEE0FEA3E0FF9000B4
:102A7E00E3E02FF09000E2E03EF09000D1E004F0B1
:0B2A8E0070069000D0E004F00227DA90
:012A9900221A
:106C8900FAE0FFA3E090035DCFF0A3EFF09002518B
:056C9900E0FEA3E0FF96
:106C9E00900357EEF0A3EFF0A3ECF0A3EDF0A3EA10
:106CAE00F0A3EBF04A6067900303E0FCA3E0FD90D5
:106CBE000357E0FAA3E0FBD39DEA9C5051900305E5
:106CCE00E0FEA3E0FF900359E0FCA3E0FD9FEC9EE5
:106CDE00503CAF03AE02C006C007A3E0FEA3E0FF28
:106CEE00900359E0F8A3E02FFFE83ECF24FFCF3406
:106CFE00FF9002E5F0A3EFF090035DE0FFA3E090BC
:0F6D0E0002E7CFF0A3EFF0D007D0061268DF2224
:1070490090035FEEF0A3EFF0A3ECF0A3EDF0EB4AB1
:107059006068900303E0FEA3E0FFD3900360E09F24
:1070690090035FE09E5053900305E0FEA3E0FF907C
:107079000361E0FCA3E0FD9FEC9E503EAE02AF032E
:1070890090035FE0FAA3E02FFFEA3ECF24FFFBEF76
:1070990034FFFAA3E0FFA3E09002E5CFF0A3EFF0FD
:1070A900900365E0FFA3E09002E7CFF0A3EFF09033
:0B70B900035FE0FEA3E0FF1268DF228F
:1057380090029DEEF0A3EFF0A3ECF0A3EDF0A3EA46
:04574800F0A3EBF0EF
:10574C00A3E07002A3E0700302587E9002A1E07007
:10575C0002A3E0700302587E9002A8E020E003024E
:10576C0057FBE4A3F0A3F09002A1E0FEA3E0FF90AE
:10577C0002A9E0FCA3E0FDC39FEC9E400302587E0F
:10578C0090029EE02DFF90029DE03CFEC006C007FB
:10579C0090029FE0FCA3E0FD9002A4E024FFFB90AC
:1057AC0002A3E034FFFAC002C0039002AAE025E095
:1057BC00FF9002A9E033FE9002A5E0FBA3E0FAA360
:1057CC00E0F98F828E8312328AFF90035DE5F0F050
:1057DC00A3EFF0D003D002D007D006126C9E90023B
:1057EC00AAE004F070819002A9E004F0025773E47F
:1057FC009002A9F0A3F09002A3E0FEA3E0FF9002B8
:10580C00A9E0FCA3E0FDC39FEC9E50669002A0E0D3
:10581C002DFD90029FE03CFC9002A2E024FFFB9047
:10582C0002A1E034FFFAC002C0039002AAE025E016
:10583C00FF9002A9E033FE9002A5E0FBA3E0FAA3DF
:10584C00E0F98F828E8312328AFF900365E5F0F0C7
:10585C00A3EFF090029DE0FEA3E0FFD003D0021274
:10586C0070499002AAE004F0708C9002A9E004F058
:02587C00808426
:01587E002207
:064B23009001201234464F
:104B2900E490013CF0A3F0900120E0FCA3E0FDA398
:104B3900E0FEA3E0FF781012343390012DEFF0FB73
:104B4900900120E0FCA3E0FDA3E0FEA3E0FF7808CC
:104B590012343390012EEFF0FA900120A3A3A3E0C1
:104B6900FFA90790012FE9F0900124E0FCA3E0FDE3
:104B7900A3E0FEA3E0FF7810123433EBFDC3EF9DF1
:104B8900FFEE9400900130F0A3EFF0900124E0FCD7
:104B9900A3E0FDA3E0FEA3E0FF7808123433EAFDA9
:104BA900C3EF9DFEE49400900132F0A3CEF0900192
:104BB90024A3A3A3E0FFE9FDC3EF9DFEE4940090C5
:104BC9000134F0A3CEF0E490013CF0A3F090012B66
:104BD900E0FEA3E0FFC390013DE09F90013CE09E11
:104BE9004003024D0BE0FAA3E0FB900130E0FEA385
:104BF900E0FFAD03AC021231F790012BE0FCA3E01A
:104C0900FD123209A3E07C002FFFEC3E900136F043
:104C1900A3EFF0900132E0FEA3E0FFAD03AC021276
:104C290031F790012BE0FCA3E0FD12320990012E2F
:104C3900E07C002FFFEC3E900138F0A3EFF09001EB
:104C490034E0FEA3E0FFAD03AC021231F790012B73
:104C5900E0FCA3E0FD12320990012FE07C002FFF58
:104C6900EC3E90013AF0A3EFF0900136E0FEA3E0AC
:104C79007803CEC313CE13D8F9F0EE900136F09035
:104C89000138E0FEA3E07802CEC313CE13D8F9F0C1
:104C9900EE900138F090013AE0FEA3E07803CEC32C
:104CA90013CE13D8F9F0EE90013AF0900138E0FEF6
:104CB900A3E07805C333CE33CED8F9FDAC06900115
:104CC90037E033333354F84CFEEDFF90013AE04EB0
:104CD900FCA3E04FFDEB25E0FFEA33FE900128E05D
:104CE900FBA3E0FAA3E0F98F828E83EC8DF01232F8
:104CF900C290013DE004F0700690013CE004F0022E
:024D09004BD687
:014D0B002285
:105FB1009001A2EEF0A3EFF0A3ECF0A3EDF0A3EAC1
:045FC100F0A3EBF06E
:105FC5009001AEE0FCA3E0FDA3E0FEA3E0FF90019D
:105FD500241234469001B6E0F9A3E0FAA3E090015B
:105FE50028C9F0A3EAF0A3E9F09001A6E0FFA3E039
:105FF50090012BCFF0A3EFF09001AAE0FCA3E0FD08
:10600500A3E0FEA3E0FF124B23E49001B2F0A3F05E
:106015009001A6E0FEA3E0FFC39001B3E09F9001CD
:10602500B2E09E40030260BCE49001B4F0A3F0909E
:1060350001A8E0FEA3E0FFC39001B5E09F9001B485
:10604500E09E505F9001B2E0FAA3E0FB9001A3E06F
:106055002BFF9001A2E03AFEC006C0079001B4E014
:10606500FEA3E0FF9001A5E02FFD9001A4E03EFC1A
:10607500EB25E0FFEA33FE9001B6E0FBA3E0FAA3CF
:10608500E0F98F828E8312328AFBAAF0D007D00600
:106095001272939001B5E004F070949001B4E0049D
:1060A500F0808C9001B3E004F0600302601590016C
:0760B500B2E004F0026015E7
:0160BC0022C1
:1069A800900322EEF0A3EFF0A3ECF0A3EDF0A3EA3E
:1069B800F0A3EBF0C00790032AE0FFA3E090036583
:1069C800CFF0A3EFF0D007127049900328E0FEA3A0
:1069D800E0FF900325E02FFF900324E03ECF24FF43
:1069E800FDEF34FFFC900326E0FAA3E0FB90032AB6
:1069F800E0FFA3E0900365CFF0A3EFF0900322E05F
:106A0800FEA3E0FF127049900324E0FCA3E0FD9090
:106A18000328E0FAA3E0FBA3E0FFA3E090035DCF27
:106A2800F0A3EFF0900322126C99900326E0FEA3E6
:106A3800E0FF900323E02FFF900322E03ECF24FFE6
:106A4800CF34FFFEC007900324E0FCA3E0FD9003D1
:106A580028E0FAA3E0FBA3E0FFA3E090035DCFF0FA
:086A6800A3EFF0D007026C9EC1
:101C1900900251EEF0A3EFF0A3ECF0A3EDF0A3EAEC
:041C2900F0A3EBF049
:101C2D00E490025FF0A3F0900257E0FEA3E030E0F5
:101C3D000A2401FFE43E90025F800B900257E0FF03
:101C4D00A3E090025FCFF0A3EFF090025AE0900274
:101C5D00597003021E78E0F975F002A4FFC39002DB
:101C6D0056E09FFB900255E095F0FAE9FF90025285
:101C7D00E02FFF900251E03400FEC007900253E0C8
:101C8D00FCA3E0FD90025FE0C313FFA3E0139003FC
:101C9D0032CFF0A3EFF090025BE0FFA3E0900334AE
:101CAD00CFF0A3EFF0D007126E4E900259E0F97508
:101CBD00F002A4FFC3900256E09FFB900255E09501
:101CCD00F0FAE9FF900252E02FFF900251E034004C
:101CDD00FEC006C00790025FE0C313FEA3E013FF32
:101CED00900254E02FFD900253E03EFC90025FE025
:101CFD00C313FFA3E013900332CFF0A3EFF09002D4
:101D0D005DE0FFA3E0900334CFF0A3EFF0D007D058
:101D1D0006126E4E900259E0F9FB7A00900254E0E3
:101D2D002BFD900253E03AFC90025FE0C313FEA33B
:101D3D00E013FFE9F582C3EF9582FFEE9400900367
:101D4D0032F0A3EFF090025B126E3A90025FE0C3A7
:101D5D0013FEA3E013FF900254E02FFD900253E019
:101D6D003EFC900259E0F9FB7A0090025FE0C3134C
:101D7D00FEA3E013FFE9F582C3EF9582FFEE940019
:101D8D00900332F0A3EFF090025D126E3A9002557F
:101D9D00E0FEA3E0FF900252E02FFF900251E03EE3
:101DAD00FE900259E0F9FD7C00C3EF9DFFEE9CFE15
:101DBD00C006C007900254E02DFD900253E03CFC9C
:101DCD00E9FB7A0090025FE0C313FEA3E013FFE985
:101DDD00F582C3EF9582FFEE9400900332F0A3EFEE
:101DED00F090025BE0FFA3E0900334CFF0A3EFF09F
:101DFD00D007D006126E4E900255E0FEA3E0FF9084
:101E0D000252E02FFF900251E03EFE900259E0F9A0
:101E1D00FB7A00C3EF9BFFEE9AFEC006C00790024F
:101E2D005FE0C313FEA3E013FF900254E02FFD907B
:101E3D000253E03EFC90025FE0C313FEA3E013FFEC
:101E4D00E9F582C3EF9582FFEE9400900332F0A383
:101E5D00EFF090025DE0FFA3E0900334CFF0A3EF2D
:101E6D00F0D007D006126E4E02202BE0F975F0026D
:101E7D00A4FFC3900256E09FFB900255E095F0FA47
:101E8D00C003E9FF900252E02FFF900251E03400B1
:101E9D00FE900253E0FCA3E0FD90025BE0FBA3E0AB
:101EAD00900365CBF0A3EBF0D0031270499002596B
:101EBD00E0F975F002A4FFC3900256E09FFB90027B
:101ECD0055E095F0FAC002C003E9FF900252E02FF1
:101EDD00FF900251E03400FE90025FE0FCA3E0FDB4
:101EED00900253E0FAA3E02DFDEA3CCD24FFCD3462
:101EFD00FFFC90025DE0FBA3E0900365CBF0A3EB4C
:101F0D00F0D003D002127049900259E0FB7A009094
:101F1D000254E02BFD900253E03AFC90025FE0C3C7
:101F2D0013FEA3E013C39BFBEE9A90025B126C8928
:101F3D0090025FE0FAA3E0FBEAC313FEEB13FF9000
:101F4D000254E02FFD900253E03EFCEAC313FEEB7A
:101F5D0013FF900259E0FBC3EF9BFBEE9400900240
:101F6D005D126C89900255E0FEA3E0FF900252E0F5
:101F7D002FFF900251E03ECF24FFCF34FFFEC0066D
:101F8D00C007900259E0FB7A00900254E02BFD90BF
:101F9D000253E03AFC90025FE0C313FEA3E013C3CB
:101FAD009BFBEE9AFA90025BE0FFA3E090035DCFFE
:101FBD00F0A3EFF0D007D006126C9E900255E0FE14
:101FCD00A3E0FF900252E02FFF900251E03ECF249C
:101FDD00FFCF34FFFEC006C00790025FE0FAA3E01A
:101FED00FBEAC313FEEB13FF900254E02FFD9002AA
:101FFD0053E03EFCEAC313FEEB13FF900259E0FBE6
:10200D00C3EF9BFBEE9400FA90025DE0FFA3E0901E
:10201D00035DCFF0A3EFF0D007D006126C9E9002B7
:10202D0053E0FCA3E0FD900259E0F9FF7E00900221
:10203D0051E0FAA3E02FFBEE3AFAA3E0F8A3E02F6C
:10204D00FFEE3890015EF0A3EFF0E9FF900251E052
:10205D00F8A3E02FFFEE38900160F0A3EFF0E9FF59
:10206D00900253E0F8A3E02FFFEE38900162F0A349
:10207D00EFF0E9FFA3EEF0A3EFF090025B124EE458
:10208D0090025FE0FEA3E0FF900254E02FFF90026C
:10209D0053E03EFE900259E0F9FB7A00C3EF9BFD41
:1020AD00EE9AFC900251E0FEA3E02BFBEA3EFA9083
:1020BD00025FE0FEA3E0FF900253E0F8A3E02FFFE4
:1020CD00E83ECF24FFCF34FF90015EF0A3EFF0E99F
:1020DD00FF7E00900251E0F8A3E02FFFEE38900153
:1020ED0060F0A3EFF090025FE0FEA3E0FF900253DB
:1020FD00E0F8A3E02FFFE83EFEE9F582C3EF9582FD
:10210D00FFEE9400CF24FFCF34FF900162F0A3EFD8
:10211D00F0E9FFA3E4F0A3EFF090025D124EE4901E
:10212D000255E0FEA3E0FF900252E02FFB9002511A
:10213D00E03EFA900259E0F9FFC3EB9FFFEA9400ED
:10214D00FEC006C007900253E0FCA3E0FDE9FF7E50
:10215D0000900253E0F8A3E02FFFEE3890015EF0FF
:10216D00A3EFF0900255E0FEA3E0FF900251E0F8DE
:10217D00A3E02FFFE83EFEE9F582C3EF9582FFEE67
:10218D009400CF24FFCF34FF900160F0A3EFF0E96E
:10219D00FF7E00900253E0F8A3E02FFFEE38900190
:1021AD0062F0A3EFF0E9FFA3EEF0A3EFF090025B76
:1021BD00E0FFA3E0900166CFF0A3EFF090025AE0AC
:1021CD00900168F0D007D006124F00900255E0FE46
:1021DD00A3E0FF900252E02FFF900251E03EFE90EF
:1021ED000259E0F9FDC3EF9DFFEE9400FEC006C05D
:1021FD000790025FE0FEA3E0FF900254E02FFF90F6
:10220D000253E03EFEC3EF9DFDEE9400FC9002559F
:10221D00E0FEA3E0FF900251E0FAA3E02FFBEA3EBF
:10222D00FA90025FE0FEA3E0FF900253E0F8A3E016
:10223D002FFFE83ECF24FFCF34FF90015EF0A3EFD8
:10224D00F0900255E0FEA3E0FF900251E0F8A3E00C
:10225D002FFFE83EFEE9F582C3EF9582FFEE940075
:10226D00CF24FFCF34FF900160F0A3EFF090025F19
:10227D00E0FEA3E0FF900253E0F8A3E02FFFE83E5D
:10228D00FEE9F582C3EF9582FFEE9400CF24FFCFD8
:10229D0034FF900162F0A3EFF0E9FFA3E4F0A3EFA8
:1022AD00F090025DE0FFA3E0900166CFF0A3EFF0A8
:0F22BD0090025AE0900168F0D007D006024F005F
:106E3A00E0FFA3E0900334CFF0A3EFF0900251E01B
:046E4A00FEA3E0FFC4
:106E4E0090032CEEF0A3EFF0A3ECF0A3EDF0EB4AE1
:106E5E006063900332E07002A3E0605990032EE06D
:106E6E00FCA3E0FDAE02AF0390032CE0FAA3E02FEB
:106E7E00FFEA3ECF24FFFBEF34FFFA900332E0FE31
:106E8E00A3E0FF90032EE0F8A3E02FFFE83ECF240F
:106E9E00FFCF34FF9002E5F0A3EFF0900334E0FF54
:106EAE00A3E09002E7CFF0A3EFF090032CE0FEA357
:066EBE00E0FF1268DF2274
:102A9A0090018AEEF0A3EFF0A3ECF0A3EDF0A3EA25
:042AAA00F0A3EBF0BA
:102AAE0090018EE0FEA3E0FF7C027DC3123483E42E
:102ABE007BE87A03F9F812337AEF2401FFE43EFE45
:102ACE00E43DFDE43CFC90019612344690018EE00C
:102ADE00FEA3E0FF90018EE0FCA3E0FD123483C064
:102AEE0004C005C006C00790018EE0FEA3E0FFE41F
:102AFE00FCFD7B02FAF9F812337AD003D002D00132
:102B0E00D000EB2FFFEA3EFEE93DFDE83CFC9001D4
:102B1E009A12344690018EE0FAA3E0FBFFAE02E477
:102B2E00FCFD90019E123446C390018BE09BFF90FA
:102B3E00018AE09AFEC00790018CE0FCA3E0FD90B4
:102B4E00018FE025E0FB90018EE033FA900190E0DA
:102B5E00FFA3E0900365CFF0A3EFF0D0071270490A
:102B6E0090019212345200000001900196E0FCA3F5
:102B7E00E0FDA3E0FEA3E0FF900192E0F8A3E0F9F0
:102B8E00A3E0FAA3E0FBD31234224003022E3990C5
:102B9E00019EE0FCA3E0FDA3E0FEA3E0FFA804A9D4
:102BAE0005AA06FB1232EFC004C005C006C007908E
:102BBE000192E0FCA3E0FDA3E0FEA3E0FFA804A9C0
:102BCE0005AA06FB1232EFD003D002D001D000EFDF
:102BDE002BFFEE3AFEED39FDEC38FC90019AE0F851
:102BEE00A3E0F9A3E0FAA3E0FBC3123422400302F0
:102BFE002D42900196E0FCA3E0FDA3E0FEA3E0FFD2
:102C0E0090019EE0F8A3E0F9A3E0FAA3E0FB1234F2
:102C1E00225003022D20900192A3A3E0FEA3E0FF19
:102C2E0090018BE09FFF90018AE09ECF2401CF346C
:102C3E0000FEC006C00790019EA3A3E0FEA3E0FF26
:102C4E0090018DE02FFD90018CE03EFCC004C0058C
:102C5E00900192E0FCA3E0FDA3E0FEA3E024FFFFC1
:102C6E00EE34FFFEED34FFFDEC34FFFCE47B02FAA4
:102C7E00F9F81232EFAB07AA06900190E0FFA3E03D
:102C8E00900365CFF0A3EFF0D005D004D007D006A7
:102C9E00127049900192A3A3E0FEA3E0FFC390013E
:102CAE008BE09FFF90018AE09ECF2401CF3400FE7F
:102CBE00C006C00790019EA3A3E0FEA3E0FFC39051
:102CCE00018DE09FFD90018CE09EFCC004C005903C
:102CDE000192E0FCA3E0FDA3E0FEA3E024FFFFEEE3
:102CEE0034FFFEED34FFFDEC34FFFCE47B02FAF919
:102CFE00F81232EFAB07AA06900190E0FFA3E09026
:102D0E000365CFF0A3EFF0D005D004D007D00612A4
:102D1E00704990019EE0FCA3E0FDA3E0FEA3E02439
:102D2E00FFFFEE34FFFEED34FFFDEC34FFFC9001AF
:102D3E009E12344690019EA3A3E0FEA3E0FFC39033
:102D4E00018BE09FFF90018AE09EFEC006C00790B7
:102D5E000192A3A3E0FEA3E0FF90018DE02FFD9072
:102D6E00018CE03EFCC004C005E47F02FEFDFC9039
:102D7E00019EE0F8A3E0F9A3E0FAA3E0FB1232EF24
:102D8E00AB07AA06900190E0FFA3E0900365CFF099
:102D9E00A3EFF0D005D004D007D0061270499001F1
:102DAE009EA3A3E0FEA3E0FFC390018BE09FFF90E4
:102DBE00018AE09EFEC006C007900192A3A3E0FE2A
:102DCE00A3E0FFC390018DE09FFD90018CE09EFC7F
:102DDE00C004C005E47F02FEFDFC90019EE0F8A356
:102DEE00E0F9A3E0FAA3E0FB1232EFAB07AA0690DC
:102DFE000190E0FFA3E0900365CFF0A3EFF0D005C4
:102E0E00D004D007D006127049900192E0FCA3E0E6
:102E1E00FDA3E0FEA3E02401FFE43EFEE43DFDE45D
:0B2E2E003CFC900192123446022B780D
:012E39002276
:106A7000900269F0A3EFF0900216E0FEA3E0FF9011
:106A80000214E0F8A3E02FFFE83E90026BF0A3EFC2
:106A9000F090021AE0FFA3E090026DCFF0A3EFF0B8
:086AA00090020AE0FEA3E0FFF2
:0E6AA800900261EEF0A3EFF0A3ECF0A3EDF08E
:106AB600900269E0FCA3E0FDD39BEC9A506C900237
:106AC60061E0FEA3E0FFC3ED9FEC9E405D90026790
:106AD600E0FEA3E0FF90026BE0FCA3E0FDD39FEC99
:106AE6009E5047900263E0FEA3E0FFC3ED9FEC9E3D
:106AF600403890030AE0FFA3E090026FCFF0A3EFC7
:106B0600F090026DE0FFA3E090030ACFF0A3EFF050
:106B1600900269E0FEA3E0FF12732F90026FE0FF80
:0A6B2600A3E090030ACFF0A3EFF004
:016B30002242
:1034F600E0FFA3E0900218CFF0A3EFF0900166E0A2
:10350600FFA3E090021ACFF0A3EFF0900158E0FE7F
:03351600A3E0FF30
:1035190090020AEEF0A3EFF0A3ECF0A3EDF0A3EA1A
:10352900F0A3EBF0C006C007A3E0FFA3E090026799
:10353900CFF0A3EFF0900216E0FEA3E0FF90021295
:10354900E0F8A3E02FFFE83E900269F0A3EFF090C6
:103559000218E0FEA3E0FF900214E0F8A3E0C39F85
:10356900FFE89E90026BF0A3EFF090021AE0FFA330
:10357900E090026DCFF0A3EFF0D007D006126AA851
:1035890090020CE0FCA3E0FDA3E0FAA3E0FBA3E0BA
:10359900FFA3E0900267CFF0A3EFF0900218E0FEDE
:1035A900A3E0FF900212E0F8A3E02FFFE83E9002AB
:1035B90069F0A3EFF0900216E0FEA3E0FF90021479
:1035C900E0F8A3E0C39FFFE89E126A8A90020CE02C
:1035D900FCA3E0FDA3E0FAA3E0FBA3E0FFA3E090D6
:1035E9000267CFF0A3EFF0900218E0FEA3E0FF908E
:1035F9000212E0F8A3E02FFFE83E126A7090020C75
:10360900E0FCA3E0FDA3E0FAA3E0FBA3E0FFA3E055
:10361900900267CFF0A3EFF0900216E0FEA3E0FF5F
:10362900900212E0F8A3E02FFFE83E900269F0A3B0
:10363900EFF0900218126A7A90020CE0FCA3E0FD08
:10364900A3E0FAA3E0FBA3E0FFA3E0900267CFF0B9
:10365900A3EFF0900216E0FEA3E0FF900212E0F85B
:10366900A3E0C39FFFE89E900269F0A3EFF09002E8
:1036790018126A7A90020CE0FCA3E0FDA3E0FAA319
:10368900E0FBA3E0FFA3E0900267CFF0A3EFF09087
:103699000218E0FEA3E0FF900212E0F8A3E0C39F46
:1036A900FFE89E126A7090020CE0FCA3E0FDA3E023
:1036B900FAA3E0FBA3E0FFA3E0900267CFF0A3EF3A
:1036C900F0900218E0FEA3E0FF900212E0F8A3E0F8
:1036D900C39FFFE89E900269F0A3EFF0900216E005
:1036E900FEA3E0FF900214E0F8A3E0C39FFFE89E69
:1036F900126A8A90020CE0FCA3E0FDA3E0FAA3E0C1
:10370900FBA3E0FFA3E0900267CFF0A3EFF09002E4
:1037190016E0FEA3E0FF900212E0F8A3E0C39FFFCA
:10372900E89E900269F0A3EFF0900218E0FEA3E092
:10373900FF900214E0F8A3E0C39FFFE89E90026B9C
:10374900F0A3EFF090021AE0FFA3E090026DCFF032
:0E375900A3EFF090020AE0FEA3E0FF026AA8D0
:104EE400E0FFA3E0900166CFF0A3EFF090025AE058
:0C4EF400900168F0900251E0FEA3E0FF86
:104F0000900158EEF0A3EFF0A3ECF0A3EDF0A3EACC
:044F1000F0A3EBF02F
:104F1400E4900169F0A3F0900164E0FEA3E0FF9047
:104F2400016BEEF0A3EFF025E0FFEE33FEC3740354
:104F34009F900170F0E49E90016FF090016BE0FE91
:104F4400A3E0FF900169E0FCA3E0FDD39FEE648041
:104F5400F8EC64809840030250BA900168E0700352
:104F6400024FEC90016DECF0A3EDF090016BE0FECC
:104F7400A3E0FFD390016EE09FEE6480F890016D92
:104F8400E0648098400302503A90015AE0FCA3E0A8
:104F9400FDA3E0FAA3E0FBA3E0FFA3E0900210CF9F
:104FA400F0A3EFF0900160E0FFA3E0900212CFF0D5
:104FB400A3EFF0900162E0FFA3E0900214CFF0A30E
:104FC400EFF0900169E0FFA3E0900216CFF0A3EFA9
:104FD400F090016D1234F690016EE004F0708C9044
:104FE400016DE004F0024F6F90015AE0FCA3E0FD74
:104FF400A3E0FAA3E0FBA3E0FFA3E0900210CFF04C
:10500400A3EFF0900160E0FFA3E0900212CFF0A3C1
:10501400EFF0900162E0FFA3E0900214CFF0A3EF61
