:020000040800F2
:1000000038040020690400084D0400084F0400086B
:1000100053040008570400085B04000800000000B7
:100020000000000000000000000000005F04000865
:100030006104000800000000630400086504000873
:100040008304000883040008830400088304000874
:100050008304000883040008830400088304000864
:100060008304000883040008830400088304000854
:100070008304000883040008830400088304000844
:100080008304000883040008830400088304000834
:100090008304000883040008830400088304000824
:1000A0008304000883040008830400088304000814
:1000B0008304000883040008830400088304000804
:1000C00083040008830400088304000883040008F4
:1000D00083040008830400088304000883040008E4
:1000E00083040008830400088304000883040008D4
:1000F00083040008830400088304000883040008C4
:1001000083040008830400088304000883040008B3
:1001100083040008830400088304000883040008A3
:100120008304000883040008830400088304000893
:10013000DFF80CD001F09AFA00480047AF01000840
:100140003804002000E0401E0028FCD17047002148
:1001500006E0002200E0521CB2F5405FFBDB491CC8
:100160008142F6D3704710B50121042000F084FDD0
:10017000FF20874908801020C870012088708548BA
:1001800000F0C8FA0121082000F076FD4FF47C5001
:100190007F4908801020C870012088707E4800F0D8
:1001A000B9FA4FF400617C4800F061FB10BD08B55E
:1001B000FFF7D9FF49F228307849086000F054FF72
:1001C000E4E01F2040230022F0210090104600F0C0
:1001D0002CFF4FF4FC6080234022F021009000208F
:1001E00000F023FF4FF61F00C0238022F021009073
:1001F000002000F01AFF4FF478404FF48073C022C3
:10020000F0210090002000F010FF4FF6E0704FF456
:10021000A0734FF48072F0210090002000F005FFE1
:100220001F204FF6FF735EA210210090182000F0EF
:10023000D3FE1F204FF6FF735FA2282100901820E5
:1002400000F0CAFE4FF4FC60002361A24821009038
:10025000502000F0C1FE4FF4FC6000235FA260213B
:100260000090102000F0B8FE4FF61F001F2361A27F
:1002700088210090102000F0AFFE4FF61F001F23D2
:1002800063A29C210090102000F0A6FE4FF478405D
:10029000002366A2C8210090102000F09DFE4FF4BC
:1002A0007840002368A2E0210090602000F094FED6
:1002B0004FF47840009039480068302101EB10304D
:1002C000C2B20023E021782000F008FE4FF478400D
:1002D000009032480088C0F3032000F13002002370
:1002E000E021802000F0FAFD4FF4784000902B4888
:1002F0000078C0F3031000F130020023E0218820D1
:1003000000F0ECFD4FF4784000902448007800F0B5
:100310000F0000F130020023E021902000F0DEFD0C
:100320004FF49C7406E01F222146442001F08EF910
:10033000601E84B2B4F5847FF5DC442407E01F22FC
:100340004FF48471204601F081F9601C84B2AC2C1A
:10035000F5DB4FF4847406E01F222146AC2001F047
:1003600075F9601C84B2B4F59C7FF5DBAC2407E022
:100370001F224FF49C71204601F068F9601E84B280
:10038000442CF5DC44F62060FFF7E1FE19E700009D
:100390000800002000080140000C0140040000207B
:1003A0002020BACFB7CAECBFBBCDB5E7D7D3D3D0E7
:1003B000CFDEB9ABCBBE0000202020C3E6CFF2BD1C
:1003C000CCD1A72020C3E6CFF2BFAAB7A20000007D
:1003D0003031323334353637383900002D29282D65
:1003E0002F3C3E3B3A5B5D7B7D7C3F2D3D2B2A269F
:1003F0005E2524006162636465666768696A6B6C88
:100400006D6E6F707172737475767778797A00009B
:100410004142434445464748494A4B4C4D4E4F5054
:100420005152535455565758595A00005468652034
:10043000446576696365204943204F6620544654DD
:100440002049733A00000000494C4900704700BF42
:10045000FEE700BFFEE700BFFEE700BFFEE7704714
:1004600070477047704700000648804706480047BD
:10047000FEE7FEE7FEE7FEE7FEE7FEE7FEE7FEE754
:10048000FEE7FEE7550500083101000800210020C5
:10049000674A126842F48032654B1A6000BF644AB2
:1004A000126802F40030491C10B9B1F5A06FF6D102
:1004B0005F4A126812F4003F01D0012000E00020E2
:1004C000012842D15B4A126842F01002594B1A606F
:1004D0001A46126822F003021A601A46126842F0A5
:1004E00002021A60524A5268514B5A601A465268C8
:1004F0005A601A46526842F480625A601A4652683C
:1005000022F47C125A601A46526842F4E8125A6089
:100510001A46126842F080721A6000BF444A12689C
:1005200012F0007FFAD0424A526822F00302404B98
:100530005A601A46526842F002025A6000BF3C4AB2
:10054000526802F00C02082AF9D1704710B5FFF783
:100550009DFF10BD10B53648006840F001003449D9
:1005600008600846406834490840314948600846F8
:100570000068324908402E4908600846006820F4A7
:10058000802008600846406820F4FE0048604FF470
:100590001F008860FFF7DAFF4FF00060284908600D
:1005A00010BD10B5002100200022214B5B6803F034
:1005B0000C0121B1042906D0082928D107E0214BDC
:1005C000214C236027E01F4B1F4C236023E0184B76
:1005D0005B6803F47010164B5B6803F480320223EF
:1005E00003EB904022B9194B4343174C23600DE0B5
:1005F0000F4B5B6813F4003F04D0144B4343124C81
:10060000236003E00F4B43430F4C236003E00D4B8B
:100610000D4C236000BF00BF054B5B68C3F30313A1
:100620000B4CE15C084B1B68CB40074C236010BDB2
:1006300000100240002002400000FFF8FFFFF6FE1D
:1006400008ED00E000127A001000002000093D00D3
:100650001400002010B50446CA48844208D1012184
:10066000042000F023FB0021042000F01FFB46E0E3
:10067000C548844208D10121082000F017FB002161
:10068000082000F013FB3AE0C048844208D1012161
:10069000102000F00BFB0021102000F007FB2EE0E3
:1006A000BB48844208D10121202000F0FFFA00213C
:1006B000202000F0FBFA22E0B648844208D1012154
:1006C000402000F0F3FA0021402000F0EFFA16E09D
:1006D000B148844208D10121802000F0E7FA0021CE
:1006E000802000F0E3FA0AE0AC48844207D10121FF
:1006F000801500F0DBFA0021A01500F0D7FA10BD3C
:1007000010B50121084600F0D1FA0021012000F0C7
:10071000CDFA10BD2DE9F04102460025002600204B
:1007200000230024002791F803C00CF00F0591F876
:1007300003C01CF0100F03D091F802C04CEA05056D
:1007400091F800C0BCF1000F31D0146800202BE0FC
:100750004FF0010C0CFA00F3B1F800C00CEA0306EC
:100760009E4220D183004FF00F0C0CFA03F7BC43DC
:1007700005FA03FC4CEA040491F803C0BCF1280F0D
:1007800006D14FF0010C0CFA00FCC2F814C00AE0CC
:1007900091F803C0BCF1480F05D14FF0010C0CFAE1
:1007A00000FCC2F810C0401C0828D1D31460B1F876
:1007B00000C0BCF1FF0F34DD546800202EE000F1D2
:1007C000080C4FF0010808FA0CF3B1F800C00CEA6D
:1007D00003069E4221D183004FF00F0C0CFA03F761
:1007E000BC4305FA03FC4CEA040491F803C0BCF1D5
:1007F000280F05D100F1080C08FA0CF8C2F8148093
:1008000091F803C0BCF1480F07D100F1080C4FF07C
:10081000010808FA0CF8C2F81080401C0828CED352
:100820005460BDE8F0814FF6FF71018002218170B4
:100830000421C17070470246002093680B4201D02A
:10084000012000E0002070470146886880B27047B0
:1008500002460020D3680B4201D0012000E00020B6
:1008600070470146C86880B27047016170474161B6
:1008700070470AB1016100E041617047C160704793
:100880004FF480320A4382618161826182698269A8
:10089000704702460020424B18684FF6807318409C
:1008A00040EA021008433E4B186070473D49C8615A
:1008B0007047F0B50A46002300240021002500F00F
:1008C0000046B6F1004F02D1354EF16901E0344ED9
:1008D0007168C0F3034583B200F44016B6F5401FBB
:1008E00008D121F070612E4E766826F070662C4F8C
:1008F0007E6012E000F48016B6F5801F06D1032654
:1009000006FA05F4A14341F0706106E0460D360198
:1009100003FA06F6B14341F0706122B1460D36018B
:1009200003FA06F6314300F00046B6F1004F02D15B
:100930001B4EF16101E01A4E7160F0BD30B500222E
:100940008B071C0F0F2303FA04F2154B08338C108E
:1009500053F824309343124C08348D1044F825305A
:1009600023468C1053F824308C07240F00FA04F42B
:1009700023430B4C08348D1044F8253030BD0A4910
:100980000860704700080140000C01400010014061
:100990000014014000180140001C014000200140EB
:1009A0000000014000002042DC002042DB480068DB
:1009B00040F00100D949086008464068D84908401D
:1009C000D649486008460068D6490840D3490860BF
:1009D0000846006820F4802008600846406820F43B
:1009E000FE0048604FF41F0088607047CB490968DB
:1009F00021F48031C94A11601146096821F480212F
:100A00001160B0F5803F03D0B0F5802F0ED106E025
:100A1000C249096841F48031C04A116007E0BF490A
:100A2000096841F4A021BD4A116000E000BF00BF89
:100A3000704710B501460022002300204A11012A08
:100A400002D1B64C236806E0022A02D1B34C236AD5
:100A500001E0B24C636A01F01F02012494401C4281
:100A600001D0012000E0002010BD70B50024002559
:100A7000002600BF3120FFF7DCFF0646641CB4F5FA
:100A8000A06F01D0002EF5D03120FFF7D2FF08B1C2
:100A9000012500E00025284670BD014600209F4A40
:100AA000106820F0F80040EAC100106070479E49CD
:100AB0000860704702460020984B586820F47C106C
:100AC00042EA01031843954B5860704796490866FF
:100AD000704701460020914A506820F00300084307
:100AE000506070478D48406800F00C007047014628
:100AF00000208A4A506820F0F00008435060704798
:100B000001460020854A506820F4E06008435060A8
:100B1000704701460020814A506820F4605040EA46
:100B2000C1005060704729B17C4A527A02437B4B26
:100B30005A7204E0794A527A8243784B5A7270476B
:100B40007A490860704701460020744A506820F4D2
:100B500040400843506070470021754A11706F4A49
:100B600082F82010012802D0042808D103E00121D6
:100B70006F4A117004E005216D4A117000E000BF5A
:100B800000BF70476B49086070476449096A0143B8
:100B9000624A11627047674944390860704730B54E
:100BA00000210022002400235C4D6D6805F00C013B
:100BB00021B1042905D0082923D105E05E4D056047
:100BC00022E05D4D05601FE0544D6D6805F4701224
:100BD000524D6D6805F48034022505EB92421CB934
:100BE000564D554305600BE04C4D6D6815F4003FC4
:100BF00003D0524D5543056002E04F4D554305600B
:100C000002E04D4D056000BF00BF444D6D6805F02A
:100C1000F00109094A4D6B5C0568DD4045603F4DB8
:100C20006D6805F4E061090A454D6B5C4568DD407F
:100C300085603A4D6D6805F46051C90A404D6B5CA2
:100C40004568DD40C560354D6D6805F44041890B50
:100C50003C4D6B5CC568B5FBF3F5056130BD29B152
:100C60002E4A526902432D4B5A6104E02B4A5269C5
:100C700082432A4B5A61704729B1284A926902433C
:100C8000264B9A6104E0254A92698243234B9A617C
:100C9000704729B1214AD2690243204BDA6104E04E
:100CA0001E4AD26982431D4BDA61704729B11B4A43
:100CB000D2680243194BDA6004E0184AD2688243D2
:100CC000164BDA60704729B1144A12690243134B7C
:100CD0001A6104E0114A12698243104B1A6170478D
:100CE00014494039086070470F49C86470470B4980
:100CF000C87170470948406A40F0807007494862EF
:100D0000704701460020054A92680A4201D001203E
:100D100000E00020704701498872704700100240CF
:100D20000000FFF8FFFFF6FE00004242D8004242FA
:100D3000201002408004424200127A0000093D0067
:100D40002400002034000020002106E0002200E002
:100D5000521CB2F5C86FFBDB491C8142F6D37047C9
:100D600070B504460D464FF48061FE48FFF77FFDE5
:100D70004FF40051FB48FFF77AFD4FF40061F9484A
:100D8000FFF773FD4FF48051F648FFF770FD45F40F
:100D90007F41F548FFF772FD4FF48071F148FFF78E
:100DA00064FD4FF48071EF48FFF761FD44F47F412B
:100DB000ED48FFF763FD4FF48051EA48FFF755FD1A
:100DC0004FF48061E748FFF750FD70BD70B50446F1
:100DD0000D464FF48061E348FFF749FD4FF40051A1
:100DE000E048FFF742FD45F47F41DF48FFF746FD4D
:100DF0004FF48071DB48FFF738FD4FF48071D9481C
:100E0000FFF735FD44F47F41D748FFF737FD4FF436
:100E10008051D448FFF72BFD4FF48051D148FFF7A4
:100E200024FD4FF48061CF48FFF71FFD70BD70B502
:100E30000446C4F30725E6B231462846FFF7C6FF4D
:100E400070BD2DE9F04105460C46C4F30726E7B214
:100E500029460020FFF784FF39463046FFF7B6FFEA
:100E6000BDE8F0812DE9F04104460F4615461E46C7
:100E700021465020FFF7E5FF39465120FFF7E1FFFB
:100E800029465220FFF7DDFF31465320FFF7D9FFF7
:100E900021462020FFF7D5FF29462120FFF7D1FF6B
:100EA00022210020FFF75CFFBDE8F08170B5064607
:100EB0004FF4A0730022F0211046FFF7D3FF002467
:100EC00008E0002503E03046FFF7B1FF6D1CF02D70
:100ED000F9D3641CB4F5A07FF3D370BD2DE9F05FA6
:100EE00006460C4617469846DDF828B004F10F0375
:100EF000F11D22463046FFF7B5FF00251EE0A7F1A1
:100F0000200005EB0010994911F800A04FF00009EE
:100F100010E00AF08000802803D14046FFF787FFE9
:100F200002E05846FFF783FF4FEA4A604FEA106A33
:100F300009F10109B9F1080FEBD36D1C102DDED3B7
:100F4000BDE8F09F2DE9F05F80460D4616469946B4
:100F500005F10F0308F10F012A464046FFF782FF13
:100F6000002435E004EB0410814911F810003178B9
:100F700088422CD104EB04107D4901EB40004078FD
:100F80007178884223D100271FE004EB04107849D0
:100F900001EB4000801C10F807B04FF0000A10E091
:100FA0000BF08000802803D14846FFF740FF02E0A5
:100FB0000A98FFF73CFF4FF6FF7000EA4B0B0AF16F
:100FC000010ABAF1080FEBD37F1C202FDDD3641C7C
:100FD000402CC7D3BDE8F09F2DE9F843064688466C
:100FE00014469946089F00251AE0207880280BDADD
:100FF0000097227806EBC5004B464146FFF76EFF8F
:10100000641C681CC5B20BE006EBC50188B24B46F8
:10101000224641460097FFF795FFA41CA81CC5B2C5
:1010200020780028E1D1BDE8F8832DE9F047044697
:101030000D4616461F46DDF820A03B46324629469F
:101040002046FFF70FFFB0460AE0A14604E05046F5
:10105000FFF7EDFE09F10109A945F8D908F10108EA
:10106000B845F2D9BDE8F08710B54FF400713D489E
:10107000FFF7FBFB0120FFF767FE4FF400713948D3
:10108000FFF7F5FB0A20FFF75FFE4FF400713548CC
:10109000FFF7EBFB3220FFF757FE36480068A0F55C
:1010A0001341203968D101210020FFF7CAFE4FF417
:1010B00080710120FFF7C5FE4FF4E0610220FFF7C9
:1010C000C0FE41F230010320FFF7BBFE00210420E7
:1010D000FFF7B7FE40F202210820FFF7B2FE002121
:1010E0000920FFF7AEFE00210A20FFF7AAFE00212B
:1010F0000C20FFF7A6FE00210D20FFF7A2FE002125
:101100000F20FFF79EFE1E20FFF71EFE41F2B0618A
:101110001020FFF796FE1E20FFF716FE0721112074
:10112000FFF78FFE4FF49D711220FFF78AFE4FF4F8
:10113000D0511320FFF785FE1E20FFF705FE0C217E
:101140002920FFF77EFE1E20FFF7FEFD0021302044
:10115000FFF777FE40F205513120FFF772FE4FF4A2
:1011600041710AE0000C014000080140AE16000881
:10117000AE1C00080400002080E03220FFF761FE72
:1011800006213520FFF75DFE40F207713620FFF79C
:1011900058FE40F205113720FFF753FE0221382098
:1011A000FFF74FFE40F207713920FFF74AFE40F289
:1011B00004713C20FFF745FE40F607013D20FFF794
:1011C00040FE00215020FFF73CFEEF215120FFF7A9
:1011D00038FE00215220FFF734FE40F23F11532029
:1011E000FFF72FFE4FF41C516020FFF72AFE01216C
:1011F0006120FFF726FE00216A20FFF722FE002172
:101200002020FFF71EFE00212120FFF71AFE0021FB
:101210008020FFF716FE00218120FFF712FE00213B
:101220008220FFF70EFE00218320FFF70AFE002137
:101230008420FFF706FE00218520FFF702FE102123
:101240009020FFF7FEFD00219220FFF7FAFD032119
:101250009320FFF7F6FD4FF488719520FFF7F1FD1D
:1012600000219720FFF7EDFD00219820FFF7E9FD11
:1012700040F273110720FFF7E4FDE6E1FA48006849
:10128000A0F5A85105397DD101210020FFF7D9FD36
:101290004FF480710120FFF7D4FD4FF4E06102208C
:1012A000FFF7CFFD41F230010320FFF7CAFD002117
:1012B0000420FFF7C6FD40F202210820FFF7C1FD20
:1012C00000210920FFF7BDFD00210A20FFF7B9FD2D
:1012D00000210C20FFF7B5FD00210D20FFF7B1FD27
:1012E00000210F20FFF7ADFD1E20FFF72DFD41F27D
:1012F000B0611020FFF7A5FD1E20FFF725FD072197
:101300001120FFF79EFD4FF49D711220FFF799FD0C
:101310004FF4D0511320FFF794FD1E20FFF714FD6A
:101320000C212920FFF78DFD1E20FFF70DFD002168
:101330003020FFF786FD40F205513120FFF781FD97
:101340004FF441713220FFF77CFD06213520FFF775
:1013500078FD40F207713620FFF773FD40F205116A
:101360003720FFF76EFD02213820FFF76AFD40F2BB
:1013700007713920FFF765FD40F204713C20FFF74B
:1013800060FD00E062E040F607013D20FFF759FDF7
:1013900000215020FFF755FDEF215120FFF751FDAF
:1013A00000215220FFF74DFD40F23F115320FFF77F
:1013B00048FD4FF41C516020FFF743FD01216120DF
:1013C000FFF73FFD4FF41C516A20FFF73AFD002163
:1013D0002020FFF736FD00212120FFF732FD0021FC
:1013E0008020FFF72EFD00218120FFF72AFD00213C
:1013F0008220FFF726FD00218320FFF722FD002138
:101400008420FFF71EFD00218520FFF71AFD102123
:101410009020FFF716FD00219220FFF712FD032117
:101420009320FFF70EFD4FF488719520FFF709FD1B
:1014300000219720FFF705FD00219820FFF701FD0F
:1014400040F273110720FFF7FCFCFEE086480068BD
:10145000A0F513412839F8D14FF480710120FFF72E
:10146000F0FC4FF4E0610220FFF7EBFC41F23001A9
:101470000320FFF7E6FC00210420FFF7E2FC012136
:10148000A420FFF7DEFC40F202210820FFF7D9FC80
:1014900000210920FFF7D5FC00210A20FFF7D1FC2D
:1014A00000210C20FFF7CDFC00210D20FFF7C9FC27
:1014B00000210F20FFF7C5FC00211020FFF7C1FC21
:1014C00007211120FFF7BDFC00211220FFF7B9FC16
:1014D00000211320FFF7B5FC1E20FFF735FC41F279
:1014E00090611020FFF7ADFC40F227211120FFF79B
:1014F000A8FC1E20FFF728FC1C211220FFF7A1FCEE
:101500001E20FFF721FC4FF4C0511320FFF799FC78
:101510001C212920FFF795FC0D212B20FFF791FCC2
:101520001E20FFF711FC00212020FFF78AFC00217C
:101530002120FFF786FC07213020FFF782FC40F2D4
:1015400002313120FFF77DFC40F205113220FFF718
:1015500078FC40F206213520FFF773FC40F60801C5
:101560003620FFF76EFC40F206213720FFF769FCBA
:1015700040F204513820FFF764FC07213920FFF7BF
:1015800060FC40F205113C20FFF75BFC40F60801CF
:101590003D20FFF756FC00215020FFF752FCEF21C1
:1015A0005120FFF74EFC00215220FFF74AFC1E207D
:1015B000FFF7CAFB40F23F115320FFF742FC1E2009
:1015C000FFF7C2FB4FF427416020FFF73AFC0121EF
:1015D0006120FFF736FC00216A20FFF732FC002172
:1015E0008020FFF72EFC00218120FFF72AFC00213C
:1015F0008220FFF726FC00218320FFF722FC002138
:101600008420FFF71EFC00218520FFF71AFC102123
:101610009020FFF716FC00219220FFF712FC032117
:101620009320FFF70EFC4FF488719520FFF709FC1B
:1016300000219720FFF705FC00219820FFF701FC0F
:1016400040F233110720FFF7FCFB10BD70B50546D3
:101650000C4616462346224629462846FFF702FC3A
:101660003046FFF7E4FB70BD04000020064C074D38
:1016700006E0E06840F0010394E807009847103462
:10168000AC42F6D3FEF758FD141F0008341F0008C3
:1016900002E008C8121F08C1002AFAD1704770473B
:1016A000002001E001C1121F002AFBD17047000099
:1016B000000000000000000000000000000000002A
:1016C0000010101010101010000018180000001268
:1016D0003624480000000000000000000000000068
:1016E00000242424FE484848FE48484800000000E2
:1016F000103854545030181414545438101000003A
:101700000044A4A8A8A8541A2A2A2A4400000000C9
:101710000030484848506EA49488897600000060E4
:101720006020C00000000000000000000000000277
:1017300004080810101010101008080402000040DF
:1017400020101008080808080810102040000000A9
:1017500000001010D63838D610100000000000002D
:10176000000010101010FE101010100000000000FB
:1017700000000000000000000000606020C00000C9
:101780000000000000007F000000000000000000DA
:101790000000000000000000000060600000000089
:1017A000010202040408081010202040400000003C
:1017B00000182442424242424242241800000000E3
:1017C00000107010101010101010107C000000009D
:1017D000003C4242420404081020427E0000000007
:1017E000003C424204180402024244380000000057
:1017F00000040C14242444447E04041E0000000051
:10180000007E40404058640202424438000000001C
:10181000001C24404058644242422418000000004A
:10182000007E444408081010101010100000000042
:10183000003C4242422418244242423C0000000044
:10184000001824424242261A0202243800000000F6
:101850000000000018180000000018180000000028
:101860000000000000100000000000101020000028
:1018700000020408102040201008040200000000AC
:1018800000000000FE000000FE000000000000005C
:10189000004020100804020408102040000000004E
:1018A000003C4242620204080800181800000000D0
:1018B0000038445AAAAAAAAAB44244380000000038
:1018C000001010182828243C444242E70000000081
:1018D00000F8444444784442424244F80000000086
:1018E000003E4242808080808042443800000000F8
:1018F00000F8444242424242424244F800000000A2
:1019000000FC424848784848404242FC0000000041
:1019100000FC424848784848404040E00000000051
:10192000003C44448080808E8444443800000000A1
:1019300000E7424242427E42424242E7000000004B
:10194000007C1010101010101010107C000000000F
:10195000003E0808080808080808080888F0000081
:1019600000EE444850705048484444EE00000000E7
:1019700000E0404040404040404042FE0000000047
:1019800000EE6C6C6C6C5454545454D6000000003F
:1019900000C7626252524A4A4A4646E200000000CC
:1019A00000384482828282828282443800000000B1
:1019B00000FC424242427C40404040E000000000C7
:1019C0000038448282828282B2CA4C38060000000B
:1019D00000FC4242427C4848444442E3000000008C
:1019E000003E4242402018040242427C00000000B7
:1019F00000FE92101010101010101038000000009F
:101A000000E74242424242424242423C0000000061
:101A100000E7424244242428281810100000000047
:101A200000D692929292AAAA6C444444000000000C
:101A300000E7422424181818242442E7000000007C
:101A400000EE444428281010101010380000000048
:101A5000007E840408081020204242FC0000001E82
:101A60001010101010101010101010101E00000098
:101A700040402020101010080804040402020078DE
:101A80000808080808080808080808087800001C62
:101A90002200000000000000000000000000000024
:101AA00000000000000000000000000000FF0060D7
:101AB0001000000000000000000000000000000016
:101AC00000000000003C421E2242423F0000000095
:101AD00000C0404040586442424264580000000048
:101AE00000000000001C22404040221C00000000BA
:101AF00000060202021E22424242261B0000000093
:101B000000000000003C427E4040423C00000000DB
:101B1000000F1110107E10101010107C000000003B
:101B200000000000003E444438403C42423C00007B
:101B300000C04040405C6242424242E70000000078
:101B400000303000007010101010107C00000000F9
:101B5000000C0C00001C040404040404447800007D
:101B600000C04040404E4850684844EE000000002D
:101B700000701010101010101010107C00000000E9
:101B80000000000000FE4949494949ED00000000FD
:101B90000000000000DC6242424242E70000000018
:101BA00000000000003C42424242423C0000000073
:101BB0000000000000D864424242447840E0000047
:101BC00000000000001E22424242221E02070000C6
:101BD0000000000000EE3220202020F8000000006D
:101BE00000000000003E42403C02427C0000000039
:101BF00000000010107C10101010100C00000000ED
:101C00000000000000C642424242463B0000000085
:101C10000000000000E7422424281010000000000B
:101C20000000000000D79292AAAA444400000000DD
:101C300000000000006E2418181824760000000030
:101C40000000000000E742242428181010E00000E3
:101C500000000000007E44081010227E00000003F7
:101C6000040404040408040404040404030008082D
:101C70000808080808080808080808080808006094
:101C80001010101010081010101010106000304CC0
:101C90004300000000000000000000000000000001
:101CA000007E7E7E7E7E7E7E7E7E00000000BACF3D
:101CB00001000280044008201018202EDFF40000EC
:101CC00000001FF01010101010101FF01010000076
:101CD000B7CA00003DFC252425243D24252425FCED
:101CE00025043D002500250025004502550288FEFB
:101CF0000000ECBF1040104017FE144054405BFC45
:101D00005040904017FE104228422442445440481C
:101D100080400040BBCD1040108013FC16041BFC1B
:101D2000520453FC900013FC30402BFC24404444EC
:101D300047FE80000000B5E70100010001003FF808
:101D4000210821083FF82108210821083FF821082F
:101D50000102010200FE0000D7D300003FF0002086
:101D600000400080010001000104FFFE01000100AD
:101D700001000100010005000200D3D001000100B4
:101D80007FFE020004000FF0181028104FF088109A
:101D900008100FF00810089008700820CFDE00002F
:101DA000FBF8920893F8A208A20893F88A808A4860
:101DB000AA50922082208210828E83048200B9ABC6
:101DC0000000044006400440082008101018220EAD
:101DD000430402000420081011F83F1810100000FE
:101DE000CBBE00003FFC000400047FE400040004BC
:101DF0003FC4204420443FC4204420040014000871
:101E00000000C3E600007FFE020004003FFC244403
:101E1000244427C42444244427C4244424443FFCA9
:101E200020040000CFF2020004003FFC2004200444
:101E300027E4242424242424242427E42424200400
:101E4000201420080000BDCC082008207F200A7E36
:101E5000FFC4084410C43E48C42808280F10F810D6
:101E6000082808C82B061004D1A70108108C0CC83C
:101E700008907FFE40048FE8004000807FFE0080D5
:101E800000800080008002800100C3E600007FFE29
:101E9000020004003FFC2444244427C42444244476
:101EA00027C4244424443FFC20040000CFF2020055
:101EB00004003FFC2004200427E4242424242424B8
:101EC000242427E424242004201420080000BFAA8E
:101ED00000007FFE0420042004200420FFFE0420D4
:101EE000042004200820082010202020402000008A
:101EF000B7A202002240223022107FFE24000400FC
:101F000007E00C200A200A20114020804160861C36
:101F100018080000341F00080000002038000000EE
:101F2000901600086C1F0008380000200004000014
:101F3000A0160008000000000000000000000000E3
:101F40000000000000A24A040000000000000000A1
:101F5000010203040607080900000000010203044F
:0C1F600001020304060708090204060839
:0400000508000131BD
:00000001FF
