:020000040800F2
:10000000880600208D01000895010008970100086E
:10001000990100089B0100089D01000800000000F4
:100020000000000000000000000000009F01000828
:10003000A101000800000000A3010008A5010008BC
:10004000A7010008A7010008A7010008A7010008F0
:10005000A7010008A7010008A7010008A7010008E0
:10006000A7010008A7010008A7010008A7010008D0
:10007000A7010008A7010008A7010008A7010008C0
:10008000A7010008A7010008A7010008A7010008B0
:10009000A7010008A7010008A7010008A7010008A0
:1000A000A7010008A7010008A7010008A701000890
:1000B000A7010008A7010008A7010008A701000880
:1000C000A7010008A7010008A7010008A701000870
:1000D000A7010008A7010008A7010008A701000860
:1000E000A7010008A7010008A701000800F002F816
:1000F00000F03CF80AA090E8000C82448344AAF186
:100100000107DA4501D100F031F8AFF2090EBAE883
:100110000F0013F0010F18BFFB1A43F0010318473B
:10012000040C0000240C0000103A24BF78C878C1E9
:10013000FAD8520724BF30C830C144BF04680C60ED
:10014000704700000023002400250026103A28BF35
:1001500078C1FBD8520728BF30C148BF0B60704739
:100160001FB500F0D8FD1FBD10B510BD00F099FD02
:100170001146FFF7F5FF00F029F800F0B7FD03B4D2
:10018000FFF7F2FF03BC00F0BFFD00000948804705
:1001900009480047FEE7FEE7FEE7FEE7FEE7FEE769
:1001A000FEE7FEE7FEE7FEE704480549054A064B81
:1001B000704700009D0B0008ED000008880000203B
:1001C00088060020880200208802002000F0E6FC5B
:1001D00000F0D8F800F060F83BE001211D4800F085
:1001E000E4F870B914240AE0002504E0204600F089
:1001F00067F8681CC5B20A2DF8DB601EC4B2012C7A
:10020000F2DC0221134800F0D0F870B901240AE0B2
:10021000002504E0052000F053F8681CC5B20A2D43
:10022000F8DB601CC4B2142CF2DB0421094800F096
:10023000BCF870B901240AE0002504E0204600F073
:100240003FF8681CC5B20A2DF8DB601CC4B2142C40
:10025000F2DBC2E700080140002106E00A2100BFEE
:100260000A00A1F1010399B2FAD10200A0F1010341
:1002700098B2F3D17047002107E042F6E06100BF79
:100280000A00A1F1010399B2FAD10200A0F1010321
:1002900098B2F2D17047000008B50121082000F0A3
:1002A000B1FB4FF47040ADF8000010208DF8030052
:1002B00003208DF802006946314800F0EFF808BDD0
:1002C00010B504464FF400412D4800F092F94FF468
:1002D00080412B4800F08FF94FF40051284800F07E
:1002E0008AF94FF48051264800F085F92046FFF73F
:1002F000C2FF4FF40041224800F07DF94FF48041E5
:100300001F4800F076F94FF400511D4800F073F9D2
:100310004FF480511A4800F06EF92046FFF7ABFF0A
:100320004FF40041164800F066F94FF4804114483C
:1003300000F061F94FF40051114800F05AF94FF400
:1003400080510F4800F057F92046FFF794FF4FF413
:1003500000410B4800F04FF94FF48041084800F08D
:100360004AF94FF40051064800F045F94FF4805126
:10037000034800F03EF92046FFF77DFF10BD000066
:10038000000C014008B50121042000F03BFBFF20D8
:10039000ADF8000001208DF8020048208DF8030020
:1003A00069460D4800F07AF808BD70B504460D4660
:1003B0002946204600F003F958B91E20FFF75BFFDD
:1003C0002946204600F0FBF808B9002070BD012046
:1003D000FCE70120FAE700000008014010B50446E0
:1003E000CA48844208D10121042000F025FB0021E5
:1003F000042000F021FB46E0C548844208D10121D9
:10040000082000F019FB0021082000F015FB3AE05D
:10041000C048844208D10121102000F00DFB0021CA
:10042000102000F009FB2EE0BB48844208D10121D6
:10043000202000F001FB0021202000F0FDFA22E046
:10044000B648844208D10121402000F0F5FA00218D
:10045000402000F0F1FA16E0B148844208D10121B1
:10046000802000F0E9FA0021802000F0E5FA0AE09F
:10047000AC48844207D10121801500F0DDFA00214B
:10048000A01500F0D9FA10BD10B50121084600F002
:10049000D3FA0021012000F0CFFA10BD2DE9F04180
:1004A000024600250026002000230024002791F8A2
:1004B00003C00CF00F0591F803C01CF0100F03D01F
:1004C00091F802C04CEA0505B1F800C01CF0FF0F1E
:1004D00031D0146800202BE04FF0010C0CFA00F32F
:1004E000B1F800C00CEA03069E4220D183004FF011
:1004F0000F0C0CFA03F7BC4305FA03FC4CEA0404A6
:1005000091F803C0BCF1280F06D14FF0010C0CFA92
:1005100000FCC2F814C00AE091F803C0BCF1480F17
:1005200005D14FF0010C0CFA00FCC2F810C0401CC1
:100530000828D1D31460B1F800C0BCF1FF0F34DD3E
:10054000546800202EE000F1080C4FF0010808FA72
:100550000CF3B1F800C00CEA03069E4221D18300DF
:100560004FF00F0C0CFA03F7BC4305FA03FC4CEAFE
:10057000040491F803C0BCF1280F05D100F1080C68
:1005800008FA0CF8C2F8148091F803C0BCF1480FC7
:1005900007D100F1080C4FF0010808FA0CF8C2F876
:1005A0001080401C0828CED35460BDE8F0814FF67F
:1005B000FF710180022181700421C17070470246E1
:1005C000002093680B4201D0012000E0002070471A
:1005D0000146886880B2704702460020D3680B420B
:1005E00001D0012000E0002070470146C86880B2B9
:1005F000704701617047416170470AB1016100E0D5
:1006000041617047C16070474FF480320A43826194
:100610008161826182698269704702460020424B93
:1006200018684FF68073184040EA021008433E4BAA
:10063000186070473D49C8617047F0B50A4600230D
:1006400000240021002500F00046B6F1004F02D141
:10065000354EF16901E0344E7168C0F3034583B251
:1006600000F44016B6F5401F08D121F070612E4EFF
:10067000766826F070662C4F7E6012E000F48016DB
:10068000B6F5801F06D1032606FA05F4A14341F012
:10069000706106E0460D360103FA06F6B14341F0FB
:1006A000706122B1460D360103FA06F6314300F0BF
:1006B0000046B6F1004F02D11B4EF16101E01A4E27
:1006C0007160F0BD30B500228B071C0F0F2303FAB9
:1006D00004F2154B08338C1053F824309343124C1A
:1006E00008348D1044F8253023468C1053F82430FC
:1006F0008C07240F00FA04F423430B4C08348D10AC
:1007000044F8253030BD0A490860704700080140B0
:10071000000C01400010014000140140001801408D
:10072000001C014000200140000001400000204268
:10073000DC002042DC48006840F00100DA49086033
:1007400008464068D9490840D749486008460068CB
:10075000D7490840D44908600846006820F4802042
:1007600008600846406820F4FE0048604FF41F000F
:1007700088607047CC49096821F48031CA4A116009
:100780001146096821F480211160B0F5803F03D043
:10079000B0F5802F0ED106E0C349096841F48031DD
:1007A000C14A116007E0C049096841F4A021BE4A6E
:1007B000116000E000BF00BF704710B50146002285
:1007C000002300204A11012A02D1B74C236806E019
:1007D000022A02D1B44C236A01E0B34C636A01F0EF
:1007E0001F02012494401C4201D0012000E000209F
:1007F00010BD70B500240025002600BF3120FFF792
:10080000DCFF0646641CB4F5A06F01D0002EF5D0C5
:100810003120FFF7D2FF08B1012500E0002528466E
:1008200070BD01460020A04A106820F0F80040EAA0
:10083000C100106070479F49086070470246002061
:10084000994B586820F47C1042EA01031843964BF8
:100850005860704797490866704701460020924AE1
:10086000506820F003000843506070478E4840688D
:1008700000F00C007047014600208B4A506820F0C1
:10088000F00008435060704701460020864A5068D7
:1008900020F4E06008435060704701460020824A1F
:1008A000506820F4605040EAC1005060704729B1A0
:1008B0007D4A527A02437C4B5A7206E07A4A527A57
:1008C000C343DBB21A40784B5A7270477A490860CA
:1008D000704701460020744A506820F440400843A5
:1008E000506070470021754A11706F4A82F82010DD
:1008F000012802D0042808D103E001216F4A1170B9
:1009000004E005216D4A117000E000BF00BF704790
:100910006B49086070476449096A0143624A116281
:100920007047674944390860704730B5002100229C
:10093000002400235C4D6D6805F00C0121B10429F1
:1009400005D0082923D105E05E4D056022E05D4D0C
:1009500005601FE0544D6D6805F47012524D6D68CE
:1009600005F48034022505EB92421CB9564D5543DF
:1009700005600BE04C4D6D6815F4003F03D0524DFF
:100980005543056002E04F4D5543056002E04D4D73
:10099000056000BF00BF444D6D6805F0F001090916
:1009A0004A4D6B5C0568DD4045603F4D6D6805F460
:1009B000E061090A454D6B5C4568DD4085603A4D54
:1009C0006D6805F46051C90A404D6B5C4568DD40B7
:1009D000C560354D6D6805F44041890B3C4D6B5C3D
:1009E000C568B5FBF3F5056130BD29B12E4A5269E2
:1009F00002432D4B5A6104E02B4A526982432A4B31
:100A00005A61704729B1284A92690243264B9A617C
:100A100004E0254A92698243234B9A61704729B1C9
:100A2000214AD2690243204BDA6104E01E4AD269AE
:100A300082431D4BDA61704729B11B4AD2680243D9
:100A4000194BDA6004E0184AD2688243164BDA6028
:100A5000704729B1144A12690243134B1A6104E02A
:100A6000114A12698243104B1A6170471449403988
:100A7000086070470F49C86470470B49C8717047D8
:100A80000948406A40F08070074948627047014653
:100A90000020054A92680A4201D0012000E00020AF
:100AA0007047014988727047001002400000FFF84B
:100AB000FFFFF6FE00004242D800424220100240F2
:100AC0008004424200127A0000093D00000000202C
:100AD0001000002000210020674A126842F4803292
:100AE000654B1A6000BF644A126802F40030491C6A
:100AF00010B9B1F5A06FF6D15F4A126812F4003F49
:100B000001D0012000E00020012842D15B4A126898
:100B100042F01002594B1A601A46126822F0030282
:100B20001A601A46126842F002021A60524A52686B
:100B3000514B5A601A4652685A601A46526842F43B
:100B400080625A601A46526822F47C125A601A4631
:100B5000526842F4E8125A601A46126842F08072F3
:100B60001A6000BF444A126812F0007FFAD0424A6D
:100B7000526822F00302404B5A601A46526842F013
:100B800002025A6000BF3C4A526802F00C02082A76
:100B9000F9D1704710B5FFF79DFF10BD10B536486D
:100BA000006840F001003449086008464068344954
:100BB00008403149486008460068324908402E49DB
:100BC00008600846006820F48020086008464068F5
:100BD00020F4FE0048604FF41F008860FFF7DAFF42
:100BE0004FF000602849086010BD10B500210020BA
:100BF0000022214B5B6803F00C0121B1042906D0CF
:100C0000082928D107E0214B214C236027E01F4B06
:100C10001F4C236023E0184B5B6803F47010164BE5
:100C20005B6803F48032022303EB904022B9194B36
:100C30004343174C23600DE00F4B5B6813F4003FF8
:100C400004D0144B4343124C236003E00F4B434347
:100C50000F4C236003E00D4B0D4C236000BF00BF21
:100C6000054B5B68C3F303130B4CE15C084B1B683B
:100C7000CB40074C236010BD001002400020024012
:100C80000000FFF8FFFFF6FE08ED00E000127A001A
:100C90001400002000093D00180000207047704734
:100CA0007047754600F028F8AE4605006946534681
:100CB00020F00700854618B020B5FFF775FABDE8AB
:100CC00020404FF000064FF000074FF000084FF0B3
:100CD000000B21F00701AC46ACE8C009ACE8C00944
:100CE000ACE8C009ACE8C0098D4670470446AFF3D4
:100CF00000802046FFF743FA004870472800002094
:100D0000004870472C00002001491820ABBEFEE7C8
:100D100026000200704710B5FFF7F2FF4FF0000108
:100D2000016010BD440D00080000002028000000F4
:100D3000280100086C0D0008280000206006000053
:100D40004401000800000000010203040102030442
:100D5000060708090204060800A24A040000000071
:0C0D60000000000001020304060708095F
:04000005080000ED02
:00000001FF
