:107CF3005541525420546573740053656E64204D8E
:107D03006573736167653A005265636569766520DB
:0C7D13004D6573736167653A000D0A004E
:1079C90042006E000045007053656E6400590097CF
:1079D90048656C6C6F2065766572796F6E652C49A8
:1079E90020616D204D7559690060220075202020A5
:1079F900202020202020202020202020202020207E
:0F7A0900202020202020202020202020202000AE
:0A468B007B967A007C007F0A7E0017
:10469500900007EAF0A3EBF0900003EEF0A3EFF033
:1046A500A3ECF0A3EDF0900009E0FAA3E0FB900085
:1046B5002A74A5F0A37435F01274C0900003E0FECF
:1046C500A3E0FFA3E0FCA3E0FDA3E0FAA3E0FB90D9
:1046D500002A74A5F0A37435F0127870900004E0F8
:1046E5002401FF900003E03400FE900006E0240161
:1046F500FD900005E03400FC90000AE024FEFB90EC
:104705000009E034FFFA90002A7484F0A37431F0B4
:104715001274C0900004E02401FF900003E034000F
:10472500FE900006E02401FD900005E03400FC90B9
:104735000008E024FEFB900007E034FFFA90002A11
:104745007484F0A37431F0127870900007E0FEA332
:10475500E0FF900004E02FFF900003E03ECF24FF30
:10476500CF34FFFE900005E0FCA3E0FD900009E0DA
:10477500FAA3E0FB74FF90002AF0A3F01274C09036
:104785000003E0FEA3E0FF900009E0FCA3E0FD903C
:104795000006E02DFD900005E03CCD24FFCD34FF63
:1047A500FC900007E0FAA3E0FB74FF90002AF0A359
:1047B500F0127870900007E0FEA3E0FF900004E09F
:1047C5002FFF900003E03ECF24FECF34FFFE900084
:1047D50006E02401FD900005E03400FC90000AE0AD
:1047E50024FEFB900009E034FFFA90002A74DEF005
:1047F500A374FCF01274C0900004E02401FF900043
:1048050003E03400FE900009E0FCA3E0FD90000603
:10481500E02DFD900005E03CCD24FECD34FFFC905D
:104825000008E024FEFB900007E034FFFA90002A20
:1048350074DEF0A374FCF0127870900004E024029A
:10484500FF900003E03400FEC006C007900006E0BC
:104855002402FD900005E03400FC900008E024FDF2
:10486500FB900007E034FFFA900009E0FEA3E02486
:10487500FDFFEE34FF90002AF0A3EFF090000BE06F
:10488500FFA3E090002CCFF0A3EFF0D007D00602F5
:02489500767239
:0E71D500A3F07D967B967A007C007F0A7E00F8
:1071E300900003EEF0A3EFF0A3ECF0A3EDF0A3EA1D
:0471F300F0A3EBF02A
:1071F7009002F6E0FFA3E090006ECFF0A3EFF090CF
:10720700000FE0FFA3E09002F6CFF0A3EFF09000AD
:107217000BE0FEA3E0FF900004E02FFF900003E0E7
:107227003EFE90000DE0FCA3E0FD900006E02DFD82
:10723700900005E03CFC900009E0FBA3E090001DF6
:10724700CBF0A3EBF0900011E0FBA3E090001FCB85
:10725700F0A3EBF0900013E0900021F0900014E011
:10726700F9A3E0FAA3E0900022C9F0A3EAF0A3E9AA
:10727700F0E4A3F0900007E0FAA3E0FB12446F905C
:0E728700006EE0FFA3E09002F6CFF0A3EFF060
:0172950022D6
:105A3C00F0A37428F0A37404F0A374EFF0A3745DC6
:105A4C00F0E4A3F0A3F0A37410F0A37401F0A3741A
:105A5C0000F0A37470F07B327A007D557C007F1EC1
:025A6C007E00BA
:105A6E00900003EEF0A3EFF0A3ECF0A3EDF0A3EAA9
:105A7E00F0A3EBF0C007A3E0FFA3E090001ACFF075
:105A8E00A3EFF090000BE090001CF0A37401F0A3C4
:105A9E007484F0A37452F0A3F0A374CDF0D0071267
:105AAE001C0C900005E0FCA3E0FDA3E0FAA3E0FBD4
:105ABE00A3E0FFA3E090001ACFF0A3EFF090000B4D
:105ACE00E090001CF0E4A3F0A3F0A3F0A3F0A3F089
:105ADE00900003E0FEA3E0FF121C0C90000BE0F917
:105AEE0075F002A4FFC3900008E09FFB900007E052
:105AFE0095F0FAE9FF900004E02FFF900003E034E8
:105B0E0000FE900006E02401FD900005E03400FC4C
:105B1E0090002A74D6F0A374BBF012787090000433
:105B2E00E02401FF900003E03400FE900006E02424
:105B3E0001FD900005E03400FC900009E0FBA3E0BD
:105B4E0090001ACBF0A3EBF090000EE0FBA3E090D8
:105B5E00001CCBF0A3EBF0900010E090001EF09034
:105B6E000011E0F9A3E0FAA3E090001FC9F0A3EA48
:0F5B7E00F0A3E9F0900007E0FAA3E0FB025CD986
:10642900900003EEF0A3EFF0A3ECF0A3EDF0A3EAE4
:10643900F0A3EBF0C007A3E0FFA3E090001ACFF0B0
:10644900A3EFF090000BE090001CF0A37401F0742E
:10645900FFA3F0A3F0A3F0A3F0D007121C0C900047
:1064690005E0FCA3E0FDA3E0FAA3E0FBA3E0FFA3A2
:10647900E090001ACFF0A3EFF090000BE090001C21
:10648900F0E4A3F0A37407F0A374E0F0A37407F099
:10649900A374E0F0900003E0FEA3E0FF121C0C904F
:1064A900000BE0F975F002A4FFC3900008E09FFB20
:1064B900900007E095F0FAE9FF900004E02FFF90C3
:1064C9000003E03400FE900006E02401FD90000581
:1064D900E03400FC90002A74D6F0A374BBF0127863
:1064E90070900004E02401FF900003E03400FE9066
:1064F9000006E02401FD900005E03400FC9000094D
:10650900E0FBA3E090001ACBF0A3EBF090000EE0C3
:10651900FBA3E090001CCBF0A3EBF0900010E090FF
:10652900001EF0900011E0F9A3E0FAA3E090001F2B
:10653900C9F0A3EAF0A3E9F0900007E0FAA3E0FBB1
:03654900025CD918
:10319600E4900000F0A3F0A3F09002F474F8F0A31A
:1031A600E4F09002EFE0FFA3E0900009CFF0A3EF78
:1031B600F0A37410F0A374FFF0A3747CF0A374F36F
:1031C600F09002EDE0FAA3E0FBE4FDFC7F0AFE12BC
:1031D6006B3C9002F47407F0A374E0F09002EFE009
:1031E600FFA3E0900009CFF0A3EFF0A37410F0A3C3
:1031F60074FFF0A3747CF0A374FDF09002EDE0FA86
:10320600A3E0FB7D147C007F0A7E00126B3C9000DD
:1032160009E4F0A37428F074FFA3F0A3F07D28124C
:10322600468B900009E4F0A37428F0A3E4F0A3749D
:1032360005F0A3E4F0A37404F074FFA3F0A3F0A3D5
:10324600E4F0A3741FF0A37410F0A37401F0A37448
:1032560000F0A37497F07D281271D9900009E4124A
:103266005A3C9002EFE0FFA3E0900009CFF0A3EFF5
:10327600F0A37410F0A374FFF0A3747DF0A3740B95
:10328600F09002EDE0FAA3E0FB7D827C007F0A7EEF
:1032960000126B3C900009E4F0A3743CF074FFA3A9
:1032A600F0A3F07D9612468B7F01127E45125F6871
:1032B6009002C6E0607AE47F1EFEFDFC9002BEE04E
:1032C600F8A3E0F9A3E0FAA3E0FBC3123108406ECD
:1032D600E47F50FEFDFC9002BEE0F8A3A3A3E0D37A
:1032E6001231085059E47F55FEFDFC9002C2E0F809
:1032F600A3E0F9A3E0FAA3E0FBC3123108403FE4E0
:103306007F7DFEFDFC9002C2E0F8A3A3A3E0D312EA
:103316003108502A9002BE12313800000000900297
:10332600C2123138000000009000017401F0800ED6
:10333600900001E06008E4F0900009125A3C900009
:1033460001E0604B900009E4F0A37428F0A3740434
:10335600F0A374EFF0A3745DF0E4A3F0A3F0A374FC
:1033660010F0A37401F0A37400F0A37470F07B3224
:103376007A007D557C007F1E7E001264297B017ACF
:10338600007997127C927BFF7A7D791C127C929051
:1033960000E2E020E703023424900009E4F0A3747D
:1033A6003CF0A3E4F0A37405F0A3E4F0A37404F0E6
:1033B60074FFA3F0A3F0A3E4F0A3741FF0A37410AA
:1033C600F0A37401F0A37400F074751271D5900027
:1033D600E2A3E0900002F0E024B0F582E43400F5C8
:1033E60083E4F0900009F0A3743CF0A3E4F0A37426
:1033F60005F0A3E4F0A37404F074FFA3F0A3F0A314
:10340600E4F0A3741FF0A37410F0A37401F0A37486
:1034160000F074B01271D5E49000E2F0A3F09000D1
:1034260000E004F0E075F01484E5F07002B2B67FB7
:093436000A7E00127D900232B3FF
:0B7E2400127DE012401112319680FE2A
:0B7E2F00EF1FAC0670011E4C70F62225
:0E7E0800EF1FAC0670011E4C60030080F322D9
:107D9000D3EF9400EE940040147D6E7C00ED1D70D6
:0D7DA000011CED4C70F7EF1F70E61E80E334
:017DAD0022B3
:057A18004200E2000045
:107DE000439850438920758780758DFA858D8BD295
:047DF000AFD28E225E
:087E4500EF24FF92ACC2982269
:0E7E1600C2ACC2998F993099FDC299D2AC22AC
:107C9200900003EBF0A3EAF0A3E9F0900003E0FB0D
:107CA200A3E0FAA3E0F9122E2DFF6016127E167FD2
:107CB200057E00127E2F900004E475F001122F441D
:037CC20080D92244
:030023000276E87A
:1076E800C0E0C083C082C0D075D000C004C005C04F
:0176F800078A
:1076F900309864C298AF999000E2E0FCEC20E7571B
:1077090030E60FEF640A9000E260028046E04480B0
:10771900800AEFB40D0C9000E2E04440F0A3E0F0E1
:1077290080359000E2E0543FFCA3E024B0F5827478
:10773900003CF583EFF09000E3E004F07006900060
:10774900E2E004F0D39000E3E094319000E2E094A9
:07775900004004E4F0A3F07E
:0F776000D007D005D004D0D0D082D083D0E03273
:1000260000000000000000000000000000000000CA
:100036003F4000000000000000003000400030009B
:100046004000000009000BC03D000BC03D00090048
:1000560018C024407FE0224031800000180024C0F0
:100066001B000D803240018003801C4027401C800D
:100076000740004010006000000000000000000083
:100086000000000000001F802040402000004020AB
:1000960020401F8000000000090006001F800600A7
:1000A60009000000040004003F8004000400000072
:1000B60000100060000000000000000004000400C2
:1000C60004000400040000000000004000000000DE
:1000D60000000000002001C00600380040000000BB
:1000E6001F802040204020401F800000000010405C
:1000F6003FC000400000000018C0214022402440BC
:100106001840000010802040244024401B8000003E
:1001160002000D0011003FC0014000003C80244059
:1001260024402440238000001F8024402440344083
:10013600038000003000200027C0380020000000A7
:100146001B802440244024401B8000001C0022C049
:10015600224022401F8000000000000008400000EE
:100166000000000000000000046000000000000025
:10017600000004000A001100208040400900090028
:10018600090009000900000000004040208011001D
:100196000A00040018002000234024001800000074
:1001A6001F802040274029401F400000004007C014
:1001B60039000F0001C0004020403FC024402440C9
:1001C6001B8000001F80204020402040308000001F
:1001D60020403FC0204020401F80000020403FC0FC
:1001E60024402E4030C0000020403FC024402E0056
:1001F600300000000F0010802040224033800200B3
:1002060020403FC0040004003FC020402040204062
:100216003FC02040204000000060202020203FC03A
:100226002000200020403FC024400B0030C020406A
:1002360020403FC020400040004000C03FC03C007E
:1002460003C03C003FC0000020403FC00C402300DC
:100256003FC020001F802040204020401F8000001B
:1002660020403FC024402400180000001F80214089
:10027600214020E01FA0000020403FC0244026006F
:1002860019C0004018C0244024402240318000009C
:10029600300020403FC020403000000020003F805A
:1002A600004000403F80200020003E0001C00700C3
:1002B60038002000380007C03C0007C038000000A6
:1002C600204039C0060039C02040000020003840D8
:1002D60007C0384020000000304021C0264038408A
:1002E60020C00000000000007FE040204020000009
:1002F600000070000C000380004000000000402059
:1003060040207FE0000000000000200040002000A8
:100316000000000000100010001000100010001077
:100326000000000040000000000000000000028005
:100336000540054003C0004020003FC00440044083
:1003460003800000000003800440044006400000D3
:1003560000000380044024403FC0004000000380AA
:100366000540054003400000000004401FC0244033
:1003760024402000000002E00550055006500420ED
:1003860020403FC00440040003C000400000044079
:1003960027C000400000000000100010041027E0F5
:1003A6000000000020403FC00140070004C0044098
:1003B600204020403FC000400040000007C004002D
:1003C60007C0040003C00000044007C00440040046
:1003D60003C0004000000380044004400380000086
:1003E600041007F00450044003800000000003805E
:1003F6000440045007F00010044007C00240040007
:1004060004000000000006400540054004C000004E
:10041600000004001F800440004000000400078024
:100426000040044007C000400400070004C00180EB
:1004360006000400060001C0070001C00600000017
:10044600044006C0010006C0044000000410071066
:1004560004E00180060004000000044005C00640D8
:10046600044000000000000004007BE04020000083
:10047600000000000000FFF0000000000000402027
:100486007BE00400000000004000800040002000E7
:1004960020004000000000000000000000000000F6
:1004A600000000000000000000001FCC000C00004F
:1004B6000000000000000800300060000800300066
:1004C60060000000022003FC1E20022003FC1E2008
:1004D6000220000000000E1811043FFF10840C7863
:1004E600000000000F0010840F3800C00778188441
:1004F6000078000000780F8410C411240E9800E4E0
:100506000084000808006800700000000000000079
:100516000000000000000000000007E0181820049A
:1005260040020000000040022004181807E0000006
:10053600000000000240024001800FF001800240EE
:10054600024000000080008000800FF800800080DC
:10055600008000000001000D000E000000000000F9
:100566000000000000000080008000800080008005
:10057600008000800000000C000C0000000000005D
:100586000000000000000006001800600180060060
:1005960018002000000007F00808100410040808DE
:1005A60007F000000000080408041FFC0004000413
:1005B6000000000000000E0C1014102410441184DA
:1005C6000E0C000000000C1810041104110412880F
:1005D6000C700000000000E00320042408241FFC27
:1005E6000024000000001F981084110411041088D4
:1005F60010700000000007F0088811041104188824
:100606000070000000001C00100010FC13001C000D
:100616001000000000000E381144108410841144AC
:100626000E38000000000700088C104410440888AB
:1006360007F00000000000000000030C030C00009F
:10064600000000000000000000010106000000009C
:10065600000000000000008001400220041008088D
:1006660010040000022002200220022002200220A4
:1006760002200000000010040808041002200140B7
:100686000080000000000E001200100C106C10809C
:100696000F00000003E00C1813E4142417C4082804
:1006A60007D000000004003C03C41C40074000E4DF
:1006B600001C000410041FFC1104110411040E8810
:1006C6000070000003E00C18100410041004100859
:1006D6001C10000010041FFC10041004100408086D
:1006E60007F0000010041FFC1104110417C41004C5
:1006F6000818000010041FFC1104110017C0100098
:100706000800000003E00C181004100410441C78C4
:100716000040000010041FFC10840080008010843C
:100726001FFC10040000100410041FFC1004100429
:100736000000000000030001100110011FFE100060
:100746001000000010041FFC110403801464181C20
:100756001004000010041FFC100400040004000430
:10076600000C000010041FFC1F0000FC1F001FFCF3
:100776001004000010041FFC0C04030000E0101815
:100786001FFC100007F008081004100410040808E5
:1007960007F0000010041FFC1084108010801080E9
:1007A6000F00000007F0081810241024101C080A77
:1007B60007F2000010041FFC1104110011C01130D3
:1007C6000E0C000400000E1C11041084108410444A
:1007D6001C3800001800100010041FFC1004100044
:1007E6001800000010001FF8100400040004100494
:1007F6001FF8100010001E0011E0001C007013808E
:100806001C0010001FC0103C00E01F0000E0103C60
:100816001FC000001004180C163401C001C01634A5
:10082600180C100410001C00130400FC13041C0018
:10083600100000000804101C1064108413041C042B
:10084600101800000000000000007FFE4002400279
:1008560040020000000030000C0003800060001C15
:100866000003000000004002400240027FFE00003C
:100876000000000000000000200040004000400092
:10088600200000000001000100010001000100013C
:1008960000010001000040004000200000000000B0
:1008A60000000000000000980124014401440144B6
:1008B60000FC000410001FFC0088010401040088ED
:1008C60000700000000000700088010401040104AB
:1008D600008800000000007000880104010411086F
:1008E6001FFC0004000000F80144014401440144D7
:1008F60000C800000000010401040FFC11041104EB
:1009060011001800000000D601290129012901C99A
:100916000106000010041FFC008401000100010410
:1009260000FC000400000104190419FC0004000482
:10093600000000000000000300010101190119FE7A
:100946000000000010041FFC0024004001B4010C4C
:10095600010400000000100410041FFC0004000441
:1009660000000000010401FC0104010001FC010477
:10097600010000FC010401FC0084010001000104E7
:1009860000FC0004000000F8010401040104010455
:1009960000F80000010101FF008501040104008840
:1009A60000700000000000700088010401040105C9
:1009B60001FF00010104010401FC0084010401009F
:1009C60001800000000000CC012401240124012440
:1009D6000198000000000100010007F8010401046D
:1009E60000000000010001F80004000400040108F2
:1009F60001FC0004010001800170000C0010016080
:100A06000180010001F0010C003001C00030010C32
:100A160001F0010000000104018C00740170018CDA
:100A260001040000010101810171000E001801603E
:100A36000180010000000184010C0134014401849D
:100A4600010C0000000000000000000001003EFC58
:100A5600400240020000000000000000FFFF00000E
:100A6600000000000000400240023EFC01000000C1
:100A76000000000000006000800080004000400090
:100A86002000200000000000000000000000000020
:100A96000000000000000000000000000000000050
:100AA6000000000000000000000000000000000040
:100AB600000000000000000F80380FFE380F80385D
:100AC6000000000000000000000000000000000020
:100AD60000000100000600000C0000380000310094
:100AE600000600000C000038000030000000000086
:100AF6000000000061800067F807F980006180004F
:100B060061800061800061800067F807F9800061FC
:100B16008000000000000000000001C0E003E0F0DB
:100B26000630080418081FFFFE040E080787F003A6
:100B360081E000000000000001F000060C00040443
:100B460008060C7001F9C0000E00003BE000EC182E
:100B5600070808040C180003E00000000001E0008C
:100B660007F003F818041C0804170807E1D003C0AF
:100B7600E00023B0003C0800200800001000000040
:100B86000000000100003100003200001C000000DF
:100B9600000000000000000000000000000000004F
:100BA600000000000000000000000000000000003F
:100BB600000000007F0001FFC00780F00C00181045
:100BC60000042000020000000000002000021000C7
:100BD600040C00180780F001FFC0007F0000000031
:100BE60000000000000000000000000000000000FF
:100BF6004200006600006600003C0000180003FF8B
:100C0600C0001800003C00006600006600004200BC
:100C160000000000080000080000080000080000AE
:100C2600080001FFC00008000008000008000008D6
:100C36000000080000000000000100003100003242
:100C460000001C0000000000000000000000000082
:100C5600000000000000000000000000080000087E
:100C66000000080000080000080000080000080056
:100C76000008000008000008000000000000000056
:100C860000000000380000380000380000000000B6
:100C9600000000000000000000000000000000004E
:100CA60000000000000600001C000070000180002B
:100CB6000E0000380000C0000700001C00003000D5
:100CC60000000000000000007F8001FFE00380704C
:100CD60006001804000804000806001803807001C6
:100CE600FFE0007F8000000000000000000001001F
:100CF6000801000801000803FFF807FFF8000008D4
:100D060000000800000800000000000000000001CC
:100D1600C03802C0580400980401180402180404DC
:100D260018061C1803F81801E0F80000000000007F
:100D360000000001C0E003C0F00400080408080435
:100D4600080806180803F41801E7F00001E000009F
:100D560000000000000000000300000D000011006C
:100D660000610000810803010807FFF80FFFF80083
:100D760001080001080000000000000000E007FC78
:100D8600D0060808061008061008061008061838C7
:100D9600060FF00607C0000000000000000000007B
:100DA6003F8001FFE0038430020818041008041095
:100DB60008041008071810030FF00007C000000011
:100DC60000000000000003C0000700000600000647
:100DD60000F80607F806180006E0000700000600FF
:100DE6000000000000000001E1E003F7F006341007
:100DF600041808041808040C08040C08061618033E
:100E0600F3F001C1E000000000000000F80003FC60
:100E16003003063804020804020804020804041019
:100E26000308F001FFC0007F000000000000000082
:100E36000000000000000000000000007038007094
:100E460038007038000000000000000000000000BC
:100E5600000000000000000000000000000000008C
:100E6600301A00301C0000000000000000000000E6
:100E76000000000000000000000000080000140050
:100E86000022000041000080800100400200200492
:100E960000100800080000000000000021000021EA
:100EA6000000210000210000210000210000210097
:100EB60000210000210000210000000000000000C9
:100EC6000000080008040010020020010040008015
:100ED600800041000022000014000008000000000D
:100EE60000000003C00004C0000400000800380829
:100EF6000F380808380810000C300007E00003C05F
:100F060000000000000000003F8000FFE00380704A
:100F1600020F1006708804C088048308047F8802C4
:100F2600C09003012000FE400000080000180001E8
:100F3600F8003E0801C20007020007E20000FE00BA
:100F4600001FC80001F80000380000080400080768
:100F5600FFF807FFF804080804080804080804084E
:100F66000806180803F41801E7F00001E000000085
:100F7600000000003F8001FFE003807002001804BB
:100F8600000804000804000804001006002007807A
:100F9600C000000004000807FFF807FFF804000877
:100FA6000400080400080400180200100380700101
:100FB600FFE0007F8000000004000807FFF807FF3D
:100FC600F8040808040808040808040808043E0889
:100FD600040008060018010060000000040008076D
:100FE600FFF807FFF80408080408000408000408CE
:100FF60000043E000600000600000180000000001C
:10100600000000003F8001FFE00380700600180426
:1010160000080402080402080203F00783F0000235
:101026000000020004000807FFF807FFF80408089C
:10103600000800000800000800000800040808076F
:10104600FFF807FFF8040008000000000000040095
:101056000804000804000807FFF807FFF804000862
:101066000400080400080000000000000000000062
:10107600000600000700000104000104000104004E
:101086000307FFFE07FFFC04000004000004000045
:1010960004000807FFF807FFF8040C080018000012
:1010A6003E0004C7800503C80600F80400380400A3
:1010B6001800000804000807FFF807FFF8040008F6
:1010C60000000800000800000800000800000800F2
:1010D600001800006000000004000807FFF8078001
:1010E6000807FC00007FC00003F80007C000780076
:1010F60007800807FFF807FFF80400080400080740
:10110600FFF807000803C00000E000003800001EDA
:10111600000007000001C00400F007FFF80400000B
:10112600000000007F8001FFE003807006001804C5
:10113600000804000806001803003001FFE0007FE5
:101146008000000004000807FFF807FFF804040801
:10115600040400040400040400040400060C000354
:10116600F80001F000000000000000007F8001FF91
:10117600E00380700600880400880400C806003C6E
:1011860003003E01FFE6007F84000000040008071C
:10119600FFF807FFF8040808040800040C00040F11
:1011A60000040BC00610F003F03801E00800000848
:1011B60000000001E0F803F03006301004180804BF
:1011C6001808040C08040C080206180207F0078128
:1011D600E00000000180000600000400000400009A
:1011E60004000807FFF807FFF804000804000004DD
:1011F600000006000001800004000007FFE007FF72
:10120600F0040018000008000008000008000008AC
:1012160000000804001007FFE004000004000006B8
:10122600000007E00007FE00041FE00001F80000D0
:10123600380001E0043E0007C0000600000400007C
:1012460004000007E00007FFC0041FF80007C007FE
:10125600F80007FF80043FF80007C004F800070005
:101266000004000000000004000806001807C0780B
:1012760005F1C8003E00001F800463E80780F806F9
:1012860000180400080000000400000600000780A3
:101296000007E008047C08001FF80007F80018089B
:1012A60004E008070000060000040000000000013A
:1012B60000080600380400F80403E8040F08047C5C
:1012C6000805F00807C008070018040060000000C1
:1012D6000000000000000000000000000000003FC9
:1012E600FFFE200002200002200002200002200053
:1012F60002000000000000000000080000070000D7
:1013060000C0000038000006000001C000003000E8
:10131600000E000001000000000000000000200098
:10132600022000022000022000022000023FFFFEF1
:1013360000000000000000000000000000000000A7
:10134600000000000008000010000030000020002F
:10135600003000001000000800000000000000003F
:101366000000010000010000010000010000010072
:101376000001000001000001000001000001000062
:101386000100000100000000000000000020000035
:101396002000001000001000000000000000000007
:1013A60000000000000000000000000000F000192E
:1013B600F8001B1800220800260800240800241044
:1013C600003FF8001FF800000800001800000004A5
:1013D600000007FFF80FFFF00018180010080020A3
:1013E60008002008003018001FF0000FC0000000A1
:1013F6000000000007C0001FF000183000200800A1
:101406002008002008003C08001C100000600000B6
:10141600000000000000000007C0001FF0003818A0
:1014260000200800200800200804101007FFF80F0D
:10143600FFF00000100000000000000000000007A0
:10144600C0001FF0001230002218002208002208F7
:10145600003208001E10000E2000000000000000F0
:10146600200000200800200801FFF803FFF80620EE
:1014760008042008042008072000030000000000DC
:1014860000000000000E000E6E001FF30031B100D8
:1014960020B10020B1003191001F13002E1E002044
:1014A6000E00300000000004000807FFF80FFFF8E8
:1014B600001008002000002000002008003FF8006F
:1014C6001FF80000080000000000000000000020D7
:1014D60008002008002008063FF8063FF80000082C
:1014E60000000800000800000000000000000000E6
:1014F600000000000300000300200100200100207E
:1015060003063FFE063FFC0000000000000000004E
:1015160000000004000807FFF80FFFF8000188002C
:101526000300002FC00038F8002038002008000013
:101536000800000000000000000004000804000885
:1015460004000807FFF80FFFF80000080000080075
:101556000008000000000000002008003FF8003FDF
:10156600F8001008002000003FF8003FF8001008BF
:10157600002000003FF8003FF800000800000000CF
:101586002008003FF8003FF8001008001000002077
:1015960000002008003FF8001FF8000008000000C7
:1015A6000000000007C0000FF000183000300800EF
:1015B6002008002008003008001830000FF000074F
:1015C600C0000000000000002001003FFF003FFFB8
:1015D6000010110020090020080020080030380003
:1015E6001FF0000FC00000000000000007C0001F31
:1015F600F00038180020080020080020090010110B
:10160600001FFF003FFF000001000000002008004F
:101616002008002008003FF8003FF80008080010E6
:101626000800200800200000300000300000000004
:10163600000000000000000C78001E1800330800AF
:1016460023080021080021880021980030F0003886
:1016560060000000000000002000002000002000C4
:1016660000FFF003FFF80020080020080020080013
:101676000030000000000000000000002000003FD5
:10168600F0007FF800001800000800000800201095
:10169600003FF8007FF0000010000000000000008E
:1016A6002000003000003C00003F800023F00000D6
:1016B60078000070002380003C000030000020000D
:1016C600002000003C00003FE00023F80000E0009E
:1016D6002700003E00003FE00021F80001E0003E48
:1016E6000000200000000000200800200800383814
:1016F600003E680027800003C8002CF80038380038
:101706002018002008000000000000002000003023
:1017160003003C01003F830023EC0000700023809F
:10172600003C000020000020000000000000000037
:1017360000000038080020380020F80023E8002FB9
:1017460088003E08003808002018000070000000DD
:101756000000000000000000000000000000000083
:1017660008000014001FF7FC3000062000020000ED
:101776000000000000000000000000000000000063
:10178600000000000000FFFFFF0000000000000056
:101796000000000000000000000000000000200023
:1017A600023000061FF7FC001400000800000000CD
:1017B600000000000000000000000000000000180B
:1017C6000000600000400000400000200000100003
:1017D600000800000400000400000C0000100000D7
:1017E600C6D50000000000E0380000783C00003C50
:1017F6007800003C70C0001CE1E01FFFFFF0001CF9
:10180600E3000E1CE7C0079CE78003DCEF0003DC67
:10181600EE0001DCFC60009CF9F07FFFFFF80000A1
:10182600000001C00E0001FFFF0001C00E0001C054
:101836000E0001C00E0001FFFE0001C00E0001C037
:101846000E0001C00E0001FFFE0001C00E0001C027
:101856000E0000000000D6D00000000000070000C7
:1018660000078000000700000007000000070000D6
:10187600000701801FFFFFE01FFFFFE01E0701C0FA
:101886001E0701C01E0701C01E0701C01E0701C0BA
:101896001E0701C01FFFFFC01FFFFFC01E0701C0BC
:1018A6001C07018000070000000700000007000079
:1018B6000007000000070000000700000007000006
:1018C600000700000007000000000000BFC600007F
:1018D600000000000780003C07C001FC07803FE0D5
:1018E600078039C1C78001C0E78001C0F78001C009
:1018F600778001DE77807FFE078001C0078003C303
:10190600C78003E1E78003F8F78007FCE7F00FDE06
:1019160067F80FDC07F81FC0FF801DDFE78039CCB2
:10192600078071C0078061C0078001C0078001C0C1
:10193600078001E0078001E0078001C00700000082
:101946000000BCBC000000000380300003C03C0067
:1019560003C03C0003C0380003C0380003C0386031
:1019660003F838F07FFFFFF003C0380003C03800EB
:1019760003C0380003DC39C003FFFFE007E383C080
:101986003FC183C07FC1C3803BC1C78003C0EF0096
:1019960003C0EF0003C07E0003C07C0003C07C00D0
:1019A60003C0FE003BC3EF803F8787F80FBF03F8F5
:1019B600077800E000000000C4EA0000000000C054
:1019C600000001F0000001E0000003C000C003C0F9
:1019D60001E007FFFFF00703C0000E03C0001E036F
:1019E600C0003C03C3007303C78063FFFFC00383CB
:1019F600C0000383C0000383C0000383C0000383C9
:101A0600C0600383C0F07FFFFFF80003C00000033F
:101A1600C0000003C0000003C0000003C0000003B4
:101A2600C0000003C0000003C00000000000D4C2D4
:101A3600000000000000000000E0070000FFFF803B
:101A460000F0078000F0070000F0070000F0070034
:101A560000F0070000FFFF0000FFFF0000F0070096
:101A660000F0070000F0070000F0070000E00700A4
:101A760000FFFF0000E0070000E0070000E00700AD
:101A860001E0070001C0070001C00700038007004E
:101A96000780F7000F007F001E001F0038001C00A3
:101AA60000000000C8D50000000000000000030090
:101AB600030003FFFF8003FFFF800380070003800E
:101AC60007000380070003800700038007000380E8
:101AD6000700038007000380070003FFFF00038061
:101AE60007000380070003800700038007000380C8
:101AF60007000380070003800700038007000380B8
:101B0600070003FFFF000380070003800700038030
:101B160007000300000000000000D0C7000000001E
:101B2600000000000380070003FFFF80038007001A
:101B3600038007000380070003FFFF000380070000
:101B46000380070003FFFF0003FFFF000387070072
:101B56000387C00003C7810003C7838007FFFFC058
:101B6600070780000F0780001E0786001C078F00EE
:101B76003BFFFF807007800000078000000780E0C1
:101B8600000781F07FFFFFF8000000000000000062
:101B9600C6DA0000000006000000079E0000079E4F
:101BA6007FF0079E7FF0079FF8F03FFFF8F01F9E3B
:101BB60078F0079E78F0079E78F007FE7FF0079E84
:101BC60078F0079E78F0079E70F007FE70F0079E8B
:101BD60070F0079E7FF0079FFFF03FFFF0F0119037
:101BE60070F003DCF0F003DEE0F0078FE0F00F0F9B
:101BF600E0F00E07C0F01C038FF0380F03E0201C46
:061C060001C00000000017
:0A7A1D004202F4FFFF4202F60000EF
:10000300E4FDFCC3ED9FEC9E5014E4FBFA0BBB0034
:0E001300010AEBF44A70F60DBD00010C80E509
:0100210022BC
:087D1F007E00127D27E4FFFE47
:047D2700AD07AC06F2
:107D2B00ECFFAE05D2A5C2A7D2B2C2A68F90C2A558
:0C7D3B00D2A5AF068F90C2A5D2A5D2A79A
:017D47002219
:0D7CC5007E00127D27900066E0FEA3E0FF28
:047CD200AD07AC0648
:107CD600ECFFAE05D2A5C2A7D2B2D2A68F90C2A59E
:0C7CE600D2A5AF068F90C2A5D2A5D2A7F0
:017CF200226F
:087D4800900349E0FEA3E0FFF7
:047D5000AD07AC06C9
:107D5400ECFFAE05D2A5C2A7D2B2D2A68F90C2A51F
:0C7D6400D2A5AF068F90C2A5D2A5D2A771
:017D700022F0
:067DF4007C107F037E00FD
:0E7DFA00AB05AA04127D27AE02AF03027CD2B5
:107D71007590FF7580FFC2A7D2A6C2B200AF90EF87
:0E7D8100FED2B2C2B200AD90EDFFD2B2D2A7D8
:017D8F0022D1
:107A2800EF7026FD7C057F01FE127DFA7D30127D08
:107A3800F49002EFE4F0A374DCF09002EDE4F0A31C
:107A480074B0F0E49002F3F0227D007C047F017EA4
:107A580000127DFA7D38127DF49002EFE4F0A374F1
:107A6800B0F09002EDE4F0A374DCF09002F374013E
:027A7800F022FA
:10401100D2B37F647E00127D90C2B37F647E0012B2
:104021007D90D2B37F647E00127D90E4FFFE127D0D
:1040310027127D719002F1EEF0A3EFF0E4FFFE1282
:104041007D277F017E00127CD27F0A7E00127E2FA7
:104051007F07127D1F7F12127D1F7FA47E00127DBC
:10406100277F017E00127D277F0A7E00127E2F7F2F
:10407100707E00127D277F007E9B127CD27F077E9F
:1040810000127D277F317E00127CD27F187E0012C4
:104091007D277F017E00127CD27F107E00127D275A
:1040A1007FB07E11127CD27F117E00127D277F07A7
:1040B1007E00127CD27F127E00127D277F177E1038
:1040C100127CD27F137E00127D277F0D7E85127CAC
:1040D100D27F147E00127D277F007E80127CD27FEA
:1040E100127E00127D277F3C7E10127CD27F967E4D
:1040F100001200037F01127D277F007E05127CD212
:104101007F027E00127D277F007E07127CD27F0313
:104111007E00127D277F307E10127CD27F087E00C8
:10412100127D277408FFFE127CD27F0B7E00127D68
:10413100277F007E11127CD27F0C7E00127D27E446
:10414100FFFE127CD27F0F7E00127D277F017E143D
:10415100127CD27F157E00127D27E4FFFE127CD2F5
:104161007F207E00127D27E4FFFE127CD27F217E1C
:1041710000127D27E4FFFE127CD27F507E00127D6B
:1041810027E4FFFE127CD27F517E00127D277FAF94
:104191007E00127CD27F527E00127D27E4FFFE1248
:1041A1007CD27F537E00127D277FDB7E00127CD282
:1041B1007F707E00127D277F007E1B127CD27F7173
:1041C1007E00127D27E4FFFE127CD27F907E0012DA
:1041D1007D27E4FFFE127CD27F917E00127D277F36
:1041E100007E01127CD27F927E00127D277F017EAC
:1041F10000127CD27F597E00127D277F0C7E051232
:104201007CD27F907E00127D277F107E00127CD2AF
:104211007F927E00127D277F007E06127CD27F076F
:104221007E00127D277F337E02127CD27F327E0098
:104231001200037F22127D27E4FF127A289002F6F2
:08424100E0FEA3E0FF02776F2D
:05754100E0FEA3E0FFE5
:10754600900066EEF0A3EFF0A3ECF0A3EDF090024E
:10755600F3E070357F50FE127CC77F517E00127DAE
:1075660027AF03AE02127CD27F527E00127D27A384
:10757600127CCD7F537E00127D2790006C127CCD4D
:107586007F20127CC57F2180327F52127CC57F53BB
:107596007E00127D27AE02AF03127CD27F507E00A2
:1075A600127D27A3127CCD7F517E00127D2790008D
:1075B6006C127CCD7F21127CC57F207E00127D2738
:0C75C600A3127CCD7F227E00127D2722C4
:0E6F770090031FEEF0A3EFF0A3ECF0A3EDF0FB
:106F8500E4A3F0A304F0A3E4F0A304F09002EDE081
:106F9500FEA3E0FFC3900320E09F90031FE09E50F7
:106FA500159002EFE0FEA3E0FFC3900322E09F905F
:106FB5000321E09E4004E4FEFF22900321E0FCA3B0
:106FC500E0FD90031FE0FAA3E0FBA3E0FFA3E09040
:106FD500006CCFF0A3EFF090031F127541127D7185
:106FE500AB07AA06127D71AA06AB07EA1313135461
:106FF5001FFF900325E4F0A3EFF0EB7805CEC31354
:10700500CE13D8F9543FFF900323E4F0A3EFF07CAF
:1070150000EB541FFD900323E0FEA3E07805C33386
:10702500CE33CED8F9FBAA06ED33333354F84AFEF6
:10703500EBFF900325E04EFAA3E04FAC02AE04FF50
:017045002228
:08776F00900000EEF0A3EFF022
:10777700E4A3F0A3F09002EEE024FFFB9002EDE01B
:1077870034FFFA9002F0E024FFFE9002EFE034FFAE
:1077970090006CF0A3CEF0E4FDFCFFFE127546E40A
:1077A700FAFBD39002EEE09B9002EDE09A4039E4B9
:1077B700900002F0A3F09002EFE0FEA3E0FFC39079
:1077C7000003E09F900002E09E5016900000127D9B
:1077D7004B900003E004F070DD900002E004F080BD
:0877E700D50BBB00010A80BABA
:0177EF002277
:106EA700900030ECF0A3EDF090002EEEF0A3EFF0A1
:086EB700900032EAF0A3EBF0B9
:106EBF00E4900038F0A3F0D3EF9BEE9A4003026FFB
:106ECF0076900034E0FEA3E0FF900030E0FCA3E0FA
:106EDF00FD9FEC9E4003026F76900032E0FAA3E034
:106EEF00FBA3E0FFA3E090006CCFF0A3EFF09000C6
:106EFF002E12754190002EE0FEA3E0FFC3900033E9
:106F0F00E09FFF900032E09ECF2401CF340090002D
:106F1F002EF0A3EFF0A3E0FEA3E0FFC3900035E057
:106F2F009FFF900034E09ECF2401CF3400900030BB
:106F3F00F0A3EFF090002E74FFF5F0122F5A45F0EA
:106F4F006025900030E0FFA3E0900038CFF0A3EF72
:106F5F00F090003874FFF5F0122F5A45F060D5907D
:076F6F000036127D4B80EAA1
:016F760022F8
:0E676C00900238EEF0A3EFF0A3ECF0A3EDF0F6
:10677A00900238E0FEA3E0FFC3EB9FFFEA9ECF241E
:10678A0001CF3400900245F0A3EFF090023AE0FE08
:10679A00A3E0FFC390023FE09FFF90023EE09ECF3E
:1067AA002401CF3400900243F0A3EFF090023AE0C4
:1067BA00FCA3E0FD90023EE0FFA3E090006CCFF066
:1067CA00A3EFF0900238127541E4900247F0A3F06B
:1067DA00900243E0FEA3E0FFC3900248E09F9002CC
:1067EA0047E09E5074E4900249F0A3F0900245E01D
:1067FA00FEA3E0FF900249E0FAA3E0FBC39FEA9EF2
:10680A005046900245E0FCA3E0FDA3E0FEA3E0FFB2
:10681A00122EA7EB2FFFEA3EFEEF25E0FFEE33FE36
:10682A00900240E0FBA3E0FAA3E0F98F828E831284
:10683A002F70FFAEF0127D5090024AE004F070AC67
:10684A00900249E004F080A4900248E004F07080CD
:09685A00900247E004F00267DA45
:016863002212
:107B9F009002FEFEE0FCA3E0FDC39002FBE09DFD22
:067BAF009002FAE09CFCCC
:107BB500AB07AA068D828C83C006C007AE83AF8251
:107BC50090006CEEF0A3EFF0D007D006127546904A
:0A7BD50002F4E0FEA3E0FF027D5081
:067B1300FDE0FAA3E0FB17
:107B1900900060EEF0A3EFF0900064EAF0A3EBF0C0
:107B2900900062ECF0A3EDF0900060E0FAA3E0FBB6
:107B3900FFAE02C007A3E0FFA3E090006CCFF0A363
:107B4900EFF0D007127546900064E0FEA3E0FF0253
:027B59007D505D
:1078EB0090033FEEF0A3EFF0A3ECF0A3EDF0A3EACF
:1078FB00F0A3EBF0127B19900340E02401FF9003FF
:10790B003FE03400FE900341E0FCA3E0A3127B13A5
:10791B0090033FE0FEA3E0FF900342E02401FD90C3
:10792B000341E03400FC900343127B14900340E0CE
:10793B002401FF90033FE03400FE900342E024015A
:10794B00FD900341E03400FC900343E0FAA3E0FB1D
:03795B00027B1993
:0E4A8A009001C2EEF0A3EFF0A3ECF0A3EDF06C
:104A9800E49001CAF0A3F0A3F0A3F0A3F0A3F09070
:104AA80001C2E0FEA3E0FFC3EB9FFFEA9E9001D0A6
:104AB800F0A3EFF09001C4E0FAA3E0FBC39001C9B2
:104AC800E09BFE9001C8E09A9001D2F0A3CEF0904E
:104AD80001C2E0FFA3E09001DACFF0A3EFF0A3EA70
:104AE800F0A3EBF09001D0E0FEA3E0FFD39400EE3A
:104AF80064809480400A9001D6E4F0A304F08021F9
:104B0800EF4E70089001D6F0A3F0801574FF900165
:104B1800D6F0A3F0C3E49FFFE49E9001D0F0A3EF8A
:104B2800F09001D2E0FEA3E0FFD39400EE648094FD
:104B380080400A9001D8E4F0A304F08021EF4E7081
:104B4800089001D8F0A3F0801574FF9001D8F0A365
:104B5800F0C3E49FFFE49E9001D2F0A3EFF0900130
:104B6800D2E0FEA3E0FF9001D0E0FCA3E0FDD39FDC
:104B7800EE6480F8EC6480989001D44007ECF0A3D0
:104B8800EDF08005EEF0A3EFF0E49001CAF0A3F099
:104B98009001D5E02401FF9001D4E03400FED390C9
:104BA80001CBE09F9001CAE09E4003024C7890013F
:104BB800DAE0FEA3E0FFA3E0FCA3E0FD127BB590E2
:104BC80001D0E0FEA3E0FF9001CDE02FF09001CCF2
:104BD800E03EF09001D2E0FEA3E0FF9001CFE02F8D
:104BE800F09001CEE03EF09001D4E0FEA3E0FF900B
:104BF80001CCE0FCA3E0FDD39FEE6480F8EC648078
:104C0800984020ED9FFFEC9E9001CCF0A3EFF09030
:104C180001D6E0FEA3E0FF9001DBE02FF09001DA7F
:104C2800E03EF09001D4E0FEA3E0FF9001CEE0FC6E
:104C3800A3E0FDD39FEE6480F8EC6480984020EDFB
:104C48009FFFEC9E9001CEF0A3EFF09001D8E0FE1C
:104C5800A3E0FF9001DDE02FF09001DCE03EF09052
:104C680001CBE004F070069001CAE004F0024B9812
:014C78002219
:0E4C7900900168EEF0A3EFF0A3ECF0A3EDF0D5
:104C8700E4900174F0A3F0A3F0A3F0900168E0FEB4
:104C9700A3E0FFC3EB9FFFEA9E900178F0A3EFF03C
:104CA70090016AE0FAA3E0FBC390016FE09BFE90DE
:104CB700016EE09A90017AF0A3CEF0900168E0FFD0
:104CC700A3E0900182CFF0A3EFF0A3EAF0A3EBF00B
:104CD700900178E0FEA3E0FFD39400EE6480948017
:104CE700400A90017EE4F0A304F08021EF4E7008A3
:104CF70090017EF0A3F0801574FF90017EF0A3F081
:104D0700C3E49FFFE49E900178F0A3EFF090017A4F
:104D1700E0FEA3E0FFD39400EE64809480400A9005
:104D27000180E4F0A304F08021EF4E700890018029
:104D3700F0A3F0801574FF900180F0A3F0C3E49F07
:104D4700FFE49E90017AF0A3EFF090017AE0FEA3D2
:104D5700E0FF900178E0FCA3E0FDD39FEE6480F8CC
:104D6700EC64809890017C4007ECF0A3EDF080059F
:104D7700EEF0A3EFF0E4900172F0A3F090017DE074
:104D87002401FF90017CE03400FED3900173E09F83
:104D9700900172E09E4003024E65900182E0FEA3FF
:104DA700E0FFA3E0FCA3E0900170127B1390017871
:104DB700E0FEA3E0FF900175E02FF0900174E03E64
:104DC700F090017AE0FEA3E0FF900177E02FF090EA
:104DD7000176E03EF090017CE0FEA3E0FF900174D5
:104DE700E0FCA3E0FDD39FEE6480F8EC648098407C
:104DF70020ED9FFFEC9E900174F0A3EFF090017EF1
:104E0700E0FEA3E0FF900183E02FF0900182E03EF7
:104E1700F090017CE0FEA3E0FF900176E0FCA3E0C8
:104E2700FDD39FEE6480F8EC6480984020ED9FFFEF
:104E3700EC9E900176F0A3EFF0900180E0FEA3E0F6
:104E4700FF900185E02FF0900184E03EF090017320
:0E4E5700E004F07006900172E004F0024D835A
:014E6500222A
:106CFD00900345EEF0A3EFF0900349EAF0A3EBF01B
:086D0D00900347ECF0A3EDF048
:106D1500900345E0FAA3E0FB24FFFFEA34FFFEC041
:106D250006C007ED24FFFDEC34FFFCEB2401FBE47A
:106D35003AFAA3E0FEA3E02401FFE43E90006CF0E4
:106D4500A3EFF0D007D006127546E4FB127D480B81
:106D5500EBB409F8900346E024FCFF900345E034CA
:106D6500FFFEC007900347E0FCA3E0FD900346E06B
:106D75002404FB900345E03400FA900347E0FFA3A9
:106D8500E090006CCFF0A3EFF0D007127546E4FB5E
:106D9500127D480BEBB409F8900348E024FCFD9004
:106DA5000347E034FFFC900345E0FAA3E0FBA3E0D2
:106DB500FEA3E02404FFE43E90006CF0A3EFF09006
:0F6DC5000345127541E4FB127D480BEBB409F84E
:016DD400229C
:1073570090032BEAF0A3EBF0900327EEF0A3EFF0F6
:10736700A3ECF0A3EDF0C007A3E0FAA3E0FB9003C2
:1073770029E0FFA3E09001C8CFF0A3EFF0D00712F8
:107387004A8A900327E0FAA3E0FBFFAE02C007A3F7
:10739700E0FCA3E0FD90032DE0FFA3E09001C8CF40
:1073A700F0A3EFF0D007124A8A90032DE0FCA3E088
:1073B700FD90032BE0FAA3E0FBA3E0FFA3E090011D
:1073C700C8CFF0A3EFF0900327E0FEA3E0FF124A37
:1073D7008A90032BE0FAA3E0FBFFAE02C0079003FD
:1073E70029E0FCA3E0FD90032DE0FFA3E09001C896
:0A73F700CFF0A3EFF0D007024A8A9E
:0E504F009002F8EEF0A3EFF0A3ECF0A3EDF06A
:10505D00E4A3F0A3F0EBFF7E00A3EEF0A3EFF025A9
:10506D00E0FFEE33FEC374039F900301F0E49E90C6
:10507D000300F09002FEE0FEA3E0FF9002FCE0FCD6
:10508D00A3E0FDD39FEE6480F8EC648098400302AA
:10509D0052269002F9E02DFF9002F8E03C127B9F22
:1050AD009002FEE0FEA3E0FF9002F9E02FFF9002D8
:1050BD00F8E03E9002FC127BA29002FEE0FEA3E01F
:1050CD00FF9002F9E02FFF9002F8E03EFE9002FC07
:1050DD00E0FCA3E0FD9002FBE02DFD9002FAE03C28
:1050ED00FC127BB59002FCE0FEA3E0FF9002F9E01C
:1050FD002FFF9002F8E03EFE9002FEE0FCA3E0FDE3
:10510D009002FBE02DFD9002FAE03CFC127BB59085
:10511D0002FCE0FEA3E0FFC39002F9E09FFF9002C6
:10512D00F8E09EFE9002FEE0FCA3E0FD9002FBE0A5
:10513D002DFD9002FAE03CFC127BB59002FEE0FEE4
:10514D00A3E0FFC39002F9E09FFF9002F8E09EFEFE
:10515D009002FCE0FCA3E0FD9002FBE02DFD90022F
:10516D00FAE03CFC127BB59002FCE0FEA3E0FFC32D
:10517D009002F9E09FFF9002F8E09E127B9F900253
:10518D00FEE0FEA3E0FFC39002F9E09FFF9002F85E
:10519D00E09EFE9002FC127BA39002FDE004F070F5
:1051AD00069002FCE004F0C3900300E0648094805C
:1051BD0050259002FCE0FEA3E07802C333CE33CE3F
:1051CD00D8F92406FFE43EFE900301E02FF0900392
:1051DD0000E03EF00250809002FEE0FEA3E0FFC32F
:1051ED009002FDE09FFF9002FCE09EFEEF7802C36F
:1051FD0033CE33CED8F9240AFFE43EFE900301E00E
:10520D002FF0900300E03EF09002FFE024FFF090BD
:09521D0002FEE034FFF0025080B3
:015226002265
:1058C400900010EEF0A3EFF0900014EBF0900012B3
:0558D400ECF0A3EDF073
:1058D900900019ECF0A3EDF0900015E0FF131313FD
:1058E900541FFEEF540760047F0180027F00EE2FF2
:1058F900FF900015E0C313FEEF8EF0A490001BF09B
:10590900900014E024E0F0E4F990001BE0FFE9C303
:105919009F4003025A3B900015E0FFB40C1290001F
:1059290014E075F00CA42426F582E5F034008031EA
:10593900EFB41012900014E075F010A4249AF582C7
:10594900E5F03404801B900015E064186003025AE6
:105959003B900014E075F024A4248AF582E5F03424
:105969000AF583E58229F582E43583F583E493908A
:105979000017F0E4900018F0900017E030E713905A
:105989000010E0FEA3E0FFA3E0FCA3E0FD9002F419
:105999008017900016E07014900010E0FEA3E0FF5D
:1059A900A3E0FCA3E0FD9002F6127B14900017E03F
:1059B90025E0F0900013E004F07006900012E00476
:1059C900F09002EFE0FEA3E0FF900012E0FCA3E0FC
:1059D900FDC39FEC9E505B900019E0FEA3E0FFC35E
:1059E900ED9FFDEC9EFC900015E07A00B50530EACC
:1059F900B5042C900012EEF0A3EFF0900011E00432
:105A0900F07006900010E004F09002EDE0FEA3E0D3
:105A1900FFC3900011E09F900010E09E401022907B
:105A29000018E004F0E0C394085003025981090208
:025A3900591200
:015A3B002248
:077A7A00C3EF9E14FD7F0A1B
:087A810090034BEFF0A3EDF0C0
:107A8900A31231380000000190034CE0FF14F0EF1D
:107A99006020A3E0F8A3E0F9A3E0FAA3E0FB9003D8
:107AA9004BE0FFE4FCFDFE122FD590034D12312C63
:107AB90080D690034DE0FCA3E0FDA3E0FEA3E0FF28
:017AC900229A
:0E6C21009002ADEEF0A3EFF0A3ECF0A3EDF0C7
:106C2F00E49002B9F09002B7F09002B5E0FF900245
:106C3F00B7E0FEC39F4003026CFC127A7AA804A946
:106C4F0005AA06AB079002B1E0FCA3E0FDA3E0FEAE
:106C5F00A3E0FF123060E47B0AFAF9F8123060907B
:106C6F0002B8EBF0A3E070459002B5E014FF90027C
:106C7F00B7E0FEC39F5036A3E0702C9002B6E0FB46
:106C8F00C3138EF0A4FF9002AEE02FFF9002ADE091
:106C9F0035F0FE9002AFE0FCA3E0FD900015EBF0A5
:106CAF00E4A3F07B20803A9002B97401F09002B611
:106CBF00E0FAC313FFA3E0FEEF8EF0A4FF9002AE45
:106CCF00E02FFF9002ADE035F0FE9002AFE0FCA3A5
:106CDF00E0FD9002B8E02430FB900015EAF0E4A349
:0D6CEF00F01258C49002B7E004F0026C38B7
:016CFC002275
:0E630000900291EEF0A3EFF0A3ECF0A3EDF00D
:10630E00E490029EF090029CF0900299E0FF9002C1
:10631E009CE0FEC39F4003026428127A7AA804A967
:10632E0005AA06AB07900295E0FCA3E0FDA3E0FEF4
:10633E00A3E0FF123060E47B0AFAF9F812306090A5
:10634E00029DEBF0A3E060030263DF900299E0147C
:10635E00FF90029CE0FEC39F5077A3E0706D900209
:10636E009BE0F990029A30E72BE0FBC3138EF0A46A
:10637E00FF900292E02FFF900291E035F0FE900226
:10638E0093E0FCA3E0FD900015EBF0E95401A3F0BF
:10639E007B30807AE0FBC313FF90029CE0FEEF8E11
:1063AE00F0A4FF900292E02FFF900291E035F0FEF4
:1063BE00900293E0FCA3E0FD900015EBF090029BA1
:1063CE00E05401900016F07B20804390029E7401F1
:1063DE00F090029AE0FAC313FF90029CE0FEEF8E5B
:1063EE00F0A4FF900292E02FFF900291E035F0FEB4
:1063FE00900293E0FCA3E0FD90029DE02430FB9020
:10640E000015EAF090029BE05401900016F012582D
:0A641E00C490029CE004F002631732
:016428002251
:106B3C00900003EEF0A3EFF0A3ECF0A3EDF0A3EACA
:046B4C00F0A3EBF0D7
:106B5000900003E0FEA3E0FF90000FF0900008E03B
:106B60002FF0900007E03EF0900005E0FEA3E0FF6C
:106B700090000AE02FF0900009E03EF090000CE059
:106B8000FBA3E0FAA3E0F9122E2DFFD3947E40037D
:106B9000026C20EFC394205003026C20900007E0A9
:106BA000FEA3E0FF900004E09F900003E09E401FE2
:106BB00090000FE0FF900003E4F0A3EFF090000BD3
:106BC000E0FF900006E02FF0900005E03400F09028
:106BD0000009E0FEA3E0FF900005E0FCA3E0FDC398
:106BE0009FEC9E503B900003E0FEA3E0FF122E2D91
:106BF000FB90000BE0900015F0E4A3F01258C49055
:106C0000000BE0C313FF900004E02FF0900003E0BE
:106C10003400F090000DE475F001122F44026B7CFB
:016C20002251
:1061D500900302EEF0A3EFF0A3ECF0A3EDF0A3EB38
:0761E500F0A3EAF0A3E9F0CA
:1061EC00900306E0FBA3E0FAA3E0F9122E2D700356
:1061FC000262FF900302E0FAA3E0FBFFAE02C006CE
:10620C00C007A3E0FCA3E0FDEB241FFBE43AFA90EB
:10621C000304E0FEA3E0241CFFE43E90006CF0A31A
:10622C00EFF0D007D006127546E4900309F0900306
:10623C0009E0FFC3941440030262E4900306E0FB00
:10624C00A3E0FAA3E0F9122E2DFE75F076EFA4244C
:10625C00E6F582E5F03417F583E4936E70719000E7
:10626C0001122E46FF900309E075F076A424E7F5A1
:10627C0082E5F03417F583E4936F7053FB900309B8
:10628C00E075F076A424E8F582E5F03417F583E5A3
:10629C00822BF582E43583F583E493FF90030AE4C3
:1062AC00F0A3EFF0E4FA90030BE030E7059002F472
:1062BC0080039002F6127D4B90030BE025E0F090EA
:1062CC00030AE033F00AEAB408DC0BEBB474AE90CA
:1062DC000309E004F002623A900307E475F002123D
:1062EC002F44900303E02420F0900302E03400F0EC
:0362FC000261EC50
:0162FF00227C
:1060A800900223EEF0A3EFF0A3ECF0A3EDF0A3EA47
:0460B800F0A3EBF076
:1060BC00E490022EF0A3F0A31231380000000090FF
:1060CC00023412313800000000900225E0FCA3E0FD
:1060DC00FDA3E0FEA3E0FF900223E0FAA3E02FFF74
:1060EC00EA3ECF24FFFBEF34FFFA900229E0FEA337
:1060FC00E0FF900225E0F8A3E02FFFE83ECF24FF5D
:10610C00CF34FF90006CF0A3EFF090022312754196
:10611C00900229E0FCA3E0FD900227E0FEA3E0FF43
:10612C00122EA7EF25E0FFEE33FEE4FCFD900234C7
:10613C0012312C900230A3A3E0FEA3E0FDAC0624A8
:10614C0001FFE43CFE90022BE0FBA3E0FAA3E0F994
:10615C008F828E83122E46FF90022EE4F0A3EFF076
:10616C00E0F8E4F0E890022EF08D828C83122E463B
:10617C00FF90022EE0FEA3E04FFF90022EEEF0FE09
:10618C00A3EFF0127D50A3E0FCA3E0FDA3E0FEA37F
:10619C00E02402FFE43EFEE43DFDE43CFC900230D2
:1061AC0012312C900234E0FCA3E0FDA3E0FEA3E04E
:1061BC00FF900230E0F8A3E0F9A3E0FAA3E0FBC300
:0861CC001230F2500302613FA2
:0161D40022A8
:0B7E3A00C2A1D2A3D2A2D2A1C2A322F7
:107DAE00C2A1E4FEEFC4131313540124FF92A2EFF9
:0C7DBE0025E0FFC2A1D2A10EEEB408E83F
:017DCA002296
:107C5700E490002CF0A3F0C2A1FDFC90002DE025DC
:107C6700E0F090002CE033F0D2A1C2A1A2A0E4334F
:107C7700FFE0F0A3E04FF00DBD00010CED640C4CEC
:0A7C870070D990002CE0FEA3E0FF8E
:017C910022D0
:0755C100EEF0A3EFF07F9074
:0255C800AB072F
:1055CA00C2A1C2A3E4900012F0AF03127DAE900014
:1055DA00137406F0900013E014F0E070F7D2A10003
:1055EA0000C2A10000127C57900012E025E02414AA
:1055FA00F582E43400F583EEF0A3EFF0900012E0B8
:10560A0004F0E0C3940A40C1D2A3E4900012F090DF
:10561A000012E0FFC3940940030256CFEF04A3F03F
:10562A00900013E0FFC3940A40030256C6EF25E038
:10563A002414F582E43400F583E0FEA3E0FF900031
:10564A0012E0FB25E02414F582E43400F583E0FC43
:10565A00A3E0C39FEC9E505BEB25E02414F582E4A3
:10566A003400F583E0FEA3E0FFE4FCFD900028127D
:10567A00312C900013E0FA25E02414F582E434007A
:10568A00F583E0FEA3E0FFEB25E02414F582E43481
:10569A0000F583EEF0A3EFF0900028A3A3E0FEA3A9
:1056AA00E0FFEA25E02414F582E43400F583EEF005
:1056BA00A3EFF0900013E004F002562A900012E0E3
:1056CA0004F00256199000281231380000000090A8
:1056DA0000127402F0900028E0F8A3E0F9A3E0FABF
:1056EA00A3E0FB900012E025E02414F582E43400E4
:1056FA00F583E0FEA3E0FFE4FCFDEB2FFFEA3EFEAC
:10570A00ED39FDEC38FC90002812312C900012E0A3
:10571A0004F0E0B408BF900028E0FCA3E0FDA3E099
:10572A00FEA3E0FFE47B06FAF9F8127B5B900028FF
:0D573A0012312C900028A3A3E0FEA3E0FF95
:01574700223F
:10654C00127E3A7FD01255C89000081255C19000A7
:10655C000EEEF0A3EFF07FD01255C890000A125542
:10656C00C1AD07AC0690000AE0FEA3E0FF90000866
:10657C00E0FAA3E0FBD39FEA9E400AA3A3EB9FFFA4
:10658C00EA9EA38017900008E0FEA3E0FFC39000F2
:10659C000BE09FFF90000AE09E90000CF0A3EFF040
:1065AC0090000EE0FEA3E0FFD39DEE9C4007EF9D14
:1065BC00FFEE9C800E90000EE0FEA3E0FFC3ED9F6B
:1065CC00FFEC9EA3F0A3EFF0D390000DE09432907B
:1065DC00000CE09400500E900011E09432900010EA
:1065EC00E0940040037F002290000AE0FEA3E0FF4D
:1065FC00900009E02FFF900008E03EC313FEEF135C
:10660C00FF9002BAEEF0A3EFF090000FE02DFF9098
:10661C00000EE03CC313FEEF13FF9002BCEEF0A3A0
:10662C00EFF09002BBE054F0F09002BDE054F0F0BB
:10663C00C39002BBE094649002BAE09400400FD384
:10664C009002BDE094D89002BCE0940E40037F0011
:03665C00227F0199
:01665F002218
:105F6800E4900003F012654CEF700302609D90020C
:105F7800F3E060030260039002BAE0FEA3E0FFE4EE
:105F8800FCFD9002BE12312C9002BEE0FCA3E0FDA5
:105F9800A3E0FEA3E02406FFEE34FFFEED34FFFD90
:105FA800EC34FFFCE47BB4FAF9F8122FD5E47B74E7
:105FB8007A0EF9F81230609002BE12312C9002BCB1
:105FC800E0FEA3E0FFE4FCFD9002C212312C900237
:105FD800C2E0FCA3E0FDA3E0FEA3E024A2FFEE34B0
:105FE800FEFEED34FFFDEC34FFFCE47BFAFAF9F831
:105FF800122FD5E47BAC7A0D02608A9002BCE0FED9
:10600800A3E0FFC3E49FFF74109EFEE4FCFDA3120F
:10601800312C9002BEE0FCA3E0FDA3E0FEA3E02447
:10602800A2FFEE34FEFEED34FFFDEC34FFFCE47B12
:10603800FAFAF9F8122FD5E47BAC7A0DF9F8123098
:10604800609002BE12312C9002BAE0FEA3E0FFE499
:10605800FCFD9002C212312C9002C2E0FCA3E0FDCC
:10606800A3E0FEA3E02406FFEE34FFFEED34FFFDBF
:10607800EC34FFFCE47BB4FAF9F8122FD5E47B7416
:106088007A0EF9F81230609002C212312C90000397
:0F6098007401F08001E49002C6F0900003E0FF75
:0160A70022D6
:0677F00090032F12312C62
:1077F60090032FE0FCA3E0FDA3E0FEA3E0FF7813D7
:10780600123119A3EEF0A3EFF090032FE0FCA3E0F2
:10781600FDA3E0FEA3E0FF780A123119EF543FFE04
:10782600E4900335F0A3CEF090032FE0FCA3E0FD37
:10783600A3E0FEA3E0FF7803123119EF541FFFE423
:10784600AD07FC900335E0FEA3E07805C333CE33E5
:10785600CED8F9FBAA06900334E033333354F84A02
:09786600FEEBFFEE4CFEEF4DFFBE
:01786F0022F6
:047BDF00AD07AC063C
:107BE3007BE77A187E00ED54037803C333CE33CE9C
:107BF300D8F9FFEA4EFAEB4FFB7E00ED541C7806F2
:107C0300C333CE33CED8F9FFEA4EFAEB4FFBED5434
:077C1300E04AFAEBAE02FFAC
:017C1A002247
:087ACA00900351EFF0A3EDF071
:107AD200A312313800000001900352E0FF14F0EFCE
:107AE2006020A3E0F8A3E0F9A3E0FAA3E0FB90038F
:107AF20051E0FFE4FCFDFE122FD590035312312C0E
:107B020080D6900353E0FCA3E0FDA3E0FEA3E0FFD8
:017B12002250
:10795E0090033712312C90033BE0FCA3E0FDA3E033
:10796E00FEA3E0FF900337E0F8A3E0F9A3E0FAA34B
:10797E00E0FBD3123108401D90033BE0F8A3E0F981
:10798E00A3E0FAA3E0FB900337E0FCA3E0FDA3E045
:10799E00FEA3E0801A900337E0F8A3E0F9A3E0FA23
:1079AE00A3E0FBA3E0FCA3E0FDA3E0FEA3E0C39BEA
:0B79BE00FFEE9AFEED99FDEC98FC2214
:087C1B00900357EEF0A3EFF017
:107C23009002F4E0FFA3E0900359CFF0A3EFF0AF8D
:107C3300039002F4EAF0A3EFF0900357E0FEA3E011
:107C4300FF127BB5900359E0FFA3E09002F4CFF05D
:037C5300A3EFF0AC
:017C5600220B
:10686400900270EEF0A3EFF0A3ECF0A3EDF0A3EA36
:04687400F0A3EBF0B2
:10687800E490027BF0A3F0900274E0FEA3E0FFC373
:1068880090027CE09F90027BE09E400302695AE4FC
:1068980090027DF0A3F0900276E0FEA3E0FFC390A3
:1068A800027EE09F90027DE09E40030269469002CE
:1068B8007BE0FEA3E0FF900271E02FFF900270E002
:1068C8003EFE90027DE0FCA3E0FD900273E02DFD0A
:1068D800900272E03CFC126F7790027FEEF0A3EF1B
:1068E800F0900278E0FCA3E0FDA3E0FB126A4F9071
:1068F800027FEEF0A3EFF090027BE0FEA3E0FF90B2
:106908000271E02FFF900270E03EFE90027DE0FCF5
:10691800A3E0FD900273E02DFD900272E03CFC9034
:10692800027FE0FAA3E0FB127B1990027EE004F0FC
:10693800600302689E90027DE004F002689E900267
:106948007CE004F0600302687F90027BE004F002C0
:02695800687F56
:01695A00221A
:10695B00900054ECF0A3EDF0A3EAF0A3EBF0900061
:06696B0052EEF0A3EFF074
:10697100C39401EE94004013E024FFFE900052E026
:1069810034FF90005CF0A3CEF0800F900052E0FF46
:10699100A3E090005CCFF0A3EFF0900054E0FEA3E1
:1069A100E0FFC39401EE9400400CEF24FFFFEE34AE
:1069B100FF90005E800B900054E0FFA3E090005E2A
:1069C100CFF0A3EFF090005EE0FFA3E0900058CF7E
:1069D100F0A3EFF0900055E02402FF900054E03462
:1069E10000FEC3900059E09F900058E09E505E90D9
:1069F100005CE0FFA3E090005ACFF0A3EFF090001D
:106A010053E02402FD900052E03400FC90005AE073
:106A1100FEA3E0FFC39DEE9C5023900058E0FCA331
:106A2100E0FD900056E0FAA3E0FB127B1990005BB9
:106A3100E004F070C990005AE004F080C190005960
:0D6A4100E004F0708F900058E004F08087B2
:016A4E002225
:0E489700900186EEF0A3EFF0A3ECF0A3EDF09D
:1048A500E4900192F0A3F0A3F0A3F0900186E0FE5E
:1048B500A3E0FFC3EB9FFFEA9E900196F0A3EFF004
:1048C500900188E0FAA3E0FBC390018DE09BFE9088
:1048D500018CE09A900198F0A3CEF0900186E0FF5C
:1048E500A3E09001A0CFF0A3EFF0A3EAF0A3EBF0D3
:1048F500900196E0FEA3E0FFD39400EE64809480DF
:10490500400A90019CE4F0A304F08021EF4E70086A
:1049150090019CF0A3F0801574FF90019CF0A3F02A
:10492500C3E49FFFE49E900196F0A3EFF0900198F9
:10493500E0FEA3E0FFD39400EE64809480400A90EB
:10494500019EE4F0A304F08021EF4E700890019ED3
:10495500F0A3F0801574FF90019EF0A3F0C3E49FCF
:10496500FFE49E900198F0A3EFF0900198E0FEA37C
:10497500E0FF900196E0FCA3E0FDD39FEE6480F894
:10498500EC64809890019A4007ECF0A3EDF0800567
:10499500EEF0A3EFF0E4900190F0A3F090019BE01E
:1049A5002401FF90019AE03400FED3900191E09F2D
:1049B500900190E09E4003024A899001A0E0FEA389
:1049C500E0FFA3E0FCA3E0FD90018EE0FAA3E0FB8D
:1049D500127B19900196E0FEA3E0FF900193E02F72
:1049E500F0900192E03EF0900198E0FEA3E0FF9088
:1049F5000195E02FF0900194E03EF090019AE0FEE1
:104A0500A3E0FF900192E0FCA3E0FDD39FEE64805C
:104A1500F8EC6480984020ED9FFFEC9E900192F0A9
:104A2500A3EFF090019CE0FEA3E0FF9001A1E02F31
:104A3500F09001A0E03EF090019AE0FEA3E0FF9027
:104A45000194E0FCA3E0FDD39FEE6480F8EC648064
:104A5500984020ED9FFFEC9E900194F0A3EFF0901D
:104A6500019EE0FEA3E0FF9001A3E02FF09001A2DC
:104A7500E03EF0900191E004F07006900190E004B2
:044A8500F00249A151
:014A8900220A
:1036B00090012AEEF0A3EFF0A3ECF0A3EDF0A3EA63
:0436C000F0A3EBF098
:1036C400E4900137F0A3F0A3F0A3F0900132E0FFFF
:1036D4007E00C390012BE09F90012AE09E500302DC
:1036E400391B90012FE09F90012EE09E5003023978
:1036F4001B90012CE0FCA3E0FD9FEC9E50030239DB
:103704001B900131E09F900130E09E500302391B71
:10371400900132E0701390012AE0FEA3E0FF9001D3
:1037240033E0FAA3E0FB027B1990012AE0FAA3E05C
:10373400FBC390012FE09BFE90012EE09A90013B89
:10374400F0A3CEF090012CE0FEA3E0FFC390013182
:10375400E09FFF900130E09E90013DF0A3EFF090D8
:103764000145EAF0A3EBF090012CA3E0FF900147A0
:10377400EEF0A3EFF090013BE0FEA3E0FFD3940052
:10378400EE64809480400A900141E4F0A304F08048
:1037940021EF4E7008900141F0A3F0801574FF9062
:1037A4000141F0A3F0C3E49FFFE49E90013BF0A32A
:1037B400EFF090013DE0FEA3E0FFD39400EE6480BF
:1037C4009480400A900143E4F0A304F08021EF4E7A
:1037D4007008900143F0A3F0801574FF900143F04A
:1037E400A3F0C3E49FFFE49E90013DF0A3EFF090AB
:1037F400013DE0FEA3E0FF90013BE0FCA3E0FDD32C
:103804009FEE6480F8EC64809890013F4007ECF0F0
:10381400A3EDF08005EEF0A3EFF0E4900135F0A302
:10382400F0900140E02401FF90013FE03400FED31A
:10383400900136E09F900135E09E400302391B90D1
:103844000147E0FCA3E0FD900132E0FB7A00A3E035
:10385400FFA3E09001E4CFF0A3EFF0900145E0FE78
:10386400A3E0FF122A8D90013BE0FEA3E0FF90014C
:1038740038E02FF0900137E03EF090013DE0FEA3E8
:10388400E0FF90013AE02FF0900139E03EF0900122
:103894003FE0FEA3E0FF900137E0FCA3E0FDD39FEF
:1038A400EE6480F8EC6480984020ED9FFFEC9E90DD
:1038B4000137F0A3EFF0900141E0FEA3E0FF900197
:1038C40046E02FF0900145E03EF090013FE0FEA37A
:1038D400E0FF900139E0FCA3E0FDD39FEE6480F8A3
:1038E400EC6480984020ED9FFFEC9E900139F0A39A
:1038F400EFF0900143E0FEA3E0FF900148E02FF0D9
:10390400900147E03EF0900136E004F0700690012B
:0739140035E004F002382544
:01391B002289
:0E26C300900149EEF0A3EFF0A3ECF0A3EDF0D0
:1026D100E4900156F0A3F0A3F0A3F0900149E0FECD
:1026E100A3E0FFC3EB9FFFEA9E90015AF0A3EFF036
:1026F10090014BE0FAA3E0FBC3900150E09BFE90F8
:10270100014FE09A90015CF0A3CEF0900149E0FF07
:10271100A3E0900164CFF0A3EFF0A3EAF0A3EBF004
:1027210090015AE0FEA3E0FFD39400EE6480948010
:10273100400A900160E4F0A304F08021EF4E70089C
:10274100900160F0A3F0801574FF900160F0A3F098
:10275100C3E49FFFE49E90015AF0A3EFF090015C67
:10276100E0FEA3E0FFD39400EE64809480400A90E1
:102771000162E4F0A304F08021EF4E700890016241
:10278100F0A3F0801574FF900162F0A3F0C3E49F01
:10279100FFE49E90015CF0A3EFF090015CE0FEA3EA
:1027A100E0FF90015AE0FCA3E0FDD39FEE6480F8C6
:1027B100EC64809890015E4007ECF0A3EDF0800599
:1027C100EEF0A3EFF0E4900154F0A3F090015FE08C
:1027D1002401FF90015EE03400FED3900155E09F9B
:1027E100900154E09E4003022A8C900151E070193F
:1027F100900164E0FEA3E0FFA3E0FCA3E0FD9001F3
:1028010052E0FAA3E0FB127B19900151E0640160F0
:1028110003022897900164E0FEA3E0FFA3E0FCA37C
:10282100E0FD900152E0FAA3E0FB127B19900165F3
:10283100E02401FF900164E03400FE900166E0FCB9
:10284100A3E0FD900152E0FAA3E0FB127B19900195
:1028510064E0FEA3E0FF900167E02401FD900166C2
:10286100E03400FC900152E0FAA3E0FB127B1990E6
:102871000165E02401FF900164E03400FE900167EE
:10288100E02401FD900166E03400FC900152E0FA81
:10289100A3E0FB127B19900151E06402600302295D
:1028A100DB900164E0FEA3E0FFA3E0FCA3E0FD9068
:1028B1000152E0FAA3E0FB127B19900165E02401CB
:1028C100FF900164E03400FE900166E0FCA3E0FDAE
:1028D100900152E0FAA3E0FB127B19900164E0FE43
:1028E100A3E0FF900167E02401FD900166E0340060
:1028F100FC900152E0FAA3E0FB127B19900165E024
:102901002401FF900164E03400FE900167E024019E
:10291100FD900166E03400FC900152E0FAA3E0FB77
:10292100127B19900165E024FFFF900164E034FF00
:10293100FE900167E02401FD900166E03400FC9007
:102941000152E0FAA3E0FB127B19900165E024013A
:10295100FF900164E03400FE900167E024FFFD90E8
:102961000166E034FFFC900152E0FAA3E0FB127B28
:1029710019900165E024FFFF900164E034FFFE90AF
:102981000167E024FFFD900166E034FFFC900152F5
:10299100E0FAA3E0FB127B19900165E024FFFF90B0
:1029A1000164E034FFFE900166E0FCA3E0FD9001CC
:1029B10052E0FAA3E0FB127B19900164E0FEA3E070
:1029C100FF900167E024FFFD900166E034FFFC9079
:1029D1000152E0FAA3E0FB127B1990015AE0FEA339
:1029E100E0FF900157E02FF0900156E03EF090019A
:1029F1005CE0FEA3E0FF900159E02FF0900158E068
:102A01003EF090015EE0FEA3E0FF900156E0FCA3E2
:102A1100E0FDD39FEE6480F8EC6480984020ED9F48
:102A2100FFEC9E900156F0A3EFF0900160E0FEA351
:102A3100E0FF900165E02FF0900164E03EF090012D
:102A41005EE0FEA3E0FF900158E0FCA3E0FDD39F10
:102A5100EE6480F8EC6480984020ED9FFFEC9E903E
:102A61000158F0A3EFF0900162E0FEA3E0FF9001B6
:102A710067E02FF0900166E03EF0900155E004F030
:0B2A81007006900154E004F00227CD25
:012A8C002227
:1074AB00FAE0FFA3E090002ACFF0A3EFF0900014D6
:0574BB00E0FEA3E0FF6C
:1074C000900024EEF0A3EFF0A3ECF0A3EDF0A3EA1C
:1074D000F0A3EBF04A60699002EDE0FCA3E0FD90C0
:1074E0000024E0FAA3E0FBD39DEA9C50539002EF06
:1074F000E0FEA3E0FF900026E0FCA3E0FD9FEC9EF1
:10750000503EAF03AE02C006C007900028E0FEA3C5
:10751000E0FF900026E0F8A3E02FFFE83ECF24FF35
:10752000CF34FF900034F0A3EFF090002AE0FFA3E7
:10753000E0900036CFF0A3EFF0D007D006126EA790
:017540002228
:10787000900024EEF0A3EFF0A3ECF0A3EDF0EB4AC0
:1078800060689002EDE0FEA3E0FFD3900025E09F4A
:10789000900024E09E50539002EFE0FEA3E0FF90A2
:1078A0000026E0FCA3E0FD9FEC9E503EAE02AF033D
:1078B000900024E0FAA3E02FFFEA3ECF24FFFBEF85
:1078C00034FFFAA3E0FFA3E0900034CFF0A3EFF081
:1078D00090002AE0FFA3E0900036CFF0A3EFF090F5
:0B78E0000024E0FEA3E0FF126EA722D0
:105E210090029FEEF0A3EFF0A3ECF0A3EDF0A3EA54
:045E3100F0A3EBF0FF
:105E3500A3E07002A3E07003025F679002A3E07025
:105E450002A3E07003025F679002AAE020E003026C
:105E55005EE4E4A3F0A3F09002A3E0FEA3E0FF90CC
:105E650002ABE0FCA3E0FDC39FEC9E4003025F672D
:105E75009002A0E02DFF90029FE03CFEC006C00707
:105E85009002A1E0FCA3E0FD9002A6E024FFFB90B8
:105E950002A5E034FFFAC002C0039002ACE025E0A1
:105EA500FF9002ABE033FE9002A7E0FBA3E0FAA36C
:105EB500E0F98F828E83122F70FF90002AE5F0F0B3
:105EC500A3EFF0D003D002D007D0061274C0900221
:105ED500ACE004F070819002ABE004F0025E5CE49B
:105EE5009002ABF0A3F09002A5E0FEA3E0FF9002C4
:105EF500ABE0FCA3E0FDC39FEC9E50669002A2E0E0
:105F05002DFD9002A1E03CFC9002A4E024FFFB9053
:105F150002A3E034FFFAC002C0039002ACE025E022
:105F2500FF9002ABE033FE9002A7E0FBA3E0FAA3EB
:105F3500E0F98F828E83122F70FF90002AE5F0F032
:105F4500A3EFF090029FE0FEA3E0FFD003D0021282
:105F550078709002ACE004F0708C9002ABE004F035
:025F6500808436
:015F67002217
:064E66009001A412312CA2
:104E6C00E49001C0F0A3F09001A4E0FCA3E0FDA34A
:104E7C00E0FEA3E0FF78101231199001B1EFF0FBC6
:104E8C009001A4E0FCA3E0FDA3E0FEA3E0FF780802
:104E9C001231199001B2EFF0FA9001A4A3A3A3E090
:104EAC00FFA9079001B3E9F09001A8E0FCA3E0FD95
:104EBC00A3E0FEA3E0FF7810123119EBFDC3EF9DC8
:104ECC00FFEE94009001B4F0A3EFF09001A8E0FC89
:104EDC00A3E0FDA3E0FEA3E0FF7808123119EAFD80
:104EEC00C3EF9DFEE494009001B6F0A3CEF09001C8
:104EFC00A8A3A3A3E0FFE9FDC3EF9DFEE4940090FB
:104F0C0001B8F0A3CEF0E49001C0F0A3F09001AF93
:104F1C00E0FEA3E0FFC39001C1E09F9001C0E09EC2
:104F2C00400302504EE0FAA3E0FB9001B4E0FEA374
:104F3C00E0FFAD03AC02122EA79001AFE0FCA3E0A2
:104F4C00FD122EB9A3E07C002FFFEC3E9001BAF0CD
:104F5C00A3EFF09001B6E0FEA3E0FFAD03AC0212AC
:104F6C002EA79001AFE0FCA3E0FD122EB99001B288
:104F7C00E07C002FFFEC3E9001BCF0A3EFF0900121
:104F8C00B8E0FEA3E0FFAD03AC02122EA79001AF78
:104F9C00E0FCA3E0FD122EB99001B3E07C002FFFE2
:104FAC00EC3E9001BEF0A3EFF09001BAE0FEA3E05E
:104FBC007803CEC313CE13D8F9F0EE9001BAF0906B
:104FCC0001BCE0FEA3E07802CEC313CE13D8F9F0F7
:104FDC00EE9001BCF09001BEE0FEA3E07803CEC3DE
:104FEC0013CE13D8F9F0EE9001BEF09001BCE0FEA8
:104FFC00A3E07805C333CE33CED8F9FDAC069001CF
:10500C00BBE033333354F84CFEEDFF9001BEE04E61
:10501C00FCA3E04FFDEB25E0FFEA33FE9001ACE092
:10502C00FBA3E0FAA3E0F98F828E83EC8DF0122FB4
:10503C00A89001C1E004F070069001C0E004F002F9
:02504C004F19FA
:01504E00223F
:106660009001F6EEF0A3EFF0A3ECF0A3EDF0A3EAB7
:04667000F0A3EBF0B8
:10667400900202E0FCA3E0FDA3E0FEA3E0FF900192
:10668400A812312C90020AE0F9A3E0FAA3E09001E9
:10669400ACC9F0A3EAF0A3E9F09001FAE0FFA3E0AB
:1066A4009001AFCFF0A3EFF09001FEE0FCA3E0FD7A
:1066B400A3E0FEA3E0FF124E66E4900206F0A3F00E
:1066C4009001FAE0FEA3E0FFC3900207E09F90026E
:1066D40006E09E400302676BE4900208F0A3F0908A
:1066E40001FCE0FEA3E0FFC3900209E09F900208D2
:1066F400E09E505F900206E0FAA3E0FB9001F7E011
:106704002BFF9001F6E03AFEC006C007900208E0B5
:10671400FEA3E0FF9001F9E02FFD9001F8E03EFCBC
:10672400EB25E0FFEA33FE90020AE0FBA3E0FAA3C4
:10673400E0F98F828E83122F70FBAAF0D007D00667
:10674400127B19900209E004F07094900208E004AE
:10675400F0808C900207E004F060030266C49002AB
:0767640006E004F00266C428
:01676B00220B
:1070460090030CEEF0A3EFF0A3ECF0A3EDF0A3EAAF
:10705600F0A3EBF0C007900314E0FFA3E090002A32
:10706600CFF0A3EFF0D007127870900312E0FEA3E2
:10707600E0FF90030FE02FFF90030EE03ECF24FFCA
:10708600FDEF34FFFC900310E0FAA3E0FB9003143D
:10709600E0FFA3E090002ACFF0A3EFF090030CE00E
:1070A600FEA3E0FF12787090030EE0FCA3E0FD90D3
:1070B6000312E0FAA3E0FBA3E0FFA3E090002ACFCF
:1070C600F0A3EFF090030C1274BB900310E0FEA344
:1070D600E0FF90030DE02FFF90030CE03ECF24FF6E
:1070E600CF34FFFEC00790030EE0FCA3E0FD900343
:1070F60012E0FAA3E0FBA3E0FFA3E090002ACFF0A2
:08710600A3EFF0D0070274C0F2
:101C0C00900014EEF0A3EFF0A3ECF0A3EDF0A3EA38
:041C1C00F0A3EBF056
:101C2000E4900022F0A3F090001AE0FEA3E030E080
:101C30000A2401FFE43E900022800B90001AE0FF8E
:101C4000A3E0900022CFF0A3EFF090001DE0900001
:101C50001C7003021E6BE0F975F002A4FFC3900034
:101C600019E09FFB900018E095F0FAE9FF9000154D
:101C7000E02FFF900014E03400FEC007900016E053
:101C8000FCA3E0FD900022E0C313FFA3E01390004B
:101C90002ACFF0A3EFF090001EE0FFA3E090002C0D
:101CA000CFF0A3EFF0D00712767290001CE0F97528
:101CB000F002A4FFC3900019E09FFB900018E0958C
:101CC000F0FAE9FF900015E02FFF900014E03400D7
:101CD000FEC006C007900022E0C313FEA3E013FF7E
:101CE000900017E02FFD900016E03EFC900022E0EF
:101CF000C313FFA3E01390002ACFF0A3EFF09000EE
:101D000020E0FFA3E090002CCFF0A3EFF0D007D0AD
:101D10000612767290001CE0F9FB7A00900017E042
:101D20002BFD900016E03AFC900022E0C313FEA3C6
:101D3000E013FFE9F582C3EF9582FFEE9400900077
:101D40002AF0A3EFF090001E12765E900022E0C30E
:101D500013FEA3E013FF900017E02FFD900016E0A4
:101D60003EFC90001CE0F9FB7A00900022E0C313D7
:101D7000FEA3E013FFE9F582C3EF9582FFEE940026
:101D800090002AF0A3EFF090002012765E900018E9
:101D9000E0FEA3E0FF900015E02FFF900014E03E6E
:101DA000FE90001CE0F9FD7C00C3EF9DFFEE9CFE61
:101DB000C006C007900017E02DFD900016E03CFC27
:101DC000E9FB7A00900022E0C313FEA3E013FFE9D1
:101DD000F582C3EF9582FFEE940090002AF0A3EF06
:101DE000F090001EE0FFA3E090002CCFF0A3EFF0F6
:101DF000D007D006127672900018E0FEA3E0FF90A4
:101E00000015E02FFF900014E03EFE90001CE0F96A
:101E1000FB7A00C3EF9BFFEE9AFEC006C00790005E
:101E200022E0C313FEA3E013FF900017E02FFD9004
:101E30000016E03EFC900022E0C313FEA3E013FF77
:101E4000E9F582C3EF9582FFEE940090002AF0A39B
:101E5000EFF0900020E0FFA3E090002CCFF0A3EF84
:101E6000F0D007D00612767202201EE0F975F0025B
:101E7000A4FFC3900019E09FFB900018E095F0FAD2
:101E8000C003E9FF900015E02FFF900014E034003C
:101E9000FE900016E0FCA3E0FD90001EE0FBA3E036
:101EA00090002ACBF0A3EBF0D00312787090001CC6
:101EB000E0F975F002A4FFC3900019E09FFB9000C9
:101EC00018E095F0FAC002C003E9FF900015E02F7A
:101ED000FF900014E03400FE900022E0FCA3E0FD3F
:101EE000900016E0FAA3E02DFDEA3CCD24FFCD34AE
:101EF000FFFC900020E0FBA3E090002ACBF0A3EBD6
:101F0000F0D003D00212787090001CE0FB7A0090B1
:101F10000017E02BFD900016E03AFC900022E0C391
:101F200013FEA3E013C39BFBEE9A90001E1274AB4A
:101F3000900022E0FAA3E0FBEAC313FEEB13FF904C
:101F40000017E02FFD900016E03EFCEAC313FEEB05
:101F500013FF90001CE0FBC3EF9BFBEE940090008E
:101F6000201274AB900018E0FEA3E0FF900015E093
:101F70002FFF900014E03ECF24FFCF34FFFEC006B9
:101F8000C00790001CE0FB7A00900017E02BFD904A
:101F90000016E03AFC900022E0C313FEA3E013C356
:101FA0009BFBEE9AFA90001EE0FFA3E090002ACF80
:101FB000F0A3EFF0D007D0061274C0900018E0FE36
:101FC000A3E0FF900015E02FFF900014E03ECF2427
:101FD000FFCF34FFFEC006C007900022E0FAA3E066
:101FE000FBEAC313FEEB13FF900017E02FFD9000F8
:101FF00016E03EFCEAC313FEEB13FF90001CE0FB6F
:10200000C3EF9BFBEE9400FA900020E0FFA3E0906A
:10201000002ACFF0A3EFF0D007D0061274C09000D2
:1020200016E0FCA3E0FD90001CE0F9FF7E009000AC
:1020300014E0FAA3E02FFBEE3AFAA3E0F8A3E02FB6
:10204000FFEE3890002AF0A3EFF0E9FF900014E0D3
:10205000F8A3E02FFFEE3890002CF0A3EFF0E9FF9B
:10206000900016E0F8A3E02FFFEE3890002EF0A3CA
:10207000EFF0E9FFA3EEF0A3EFF090001E1252275D
:10208000900022E0FEA3E0FF900017E02FFF9000F9
:1020900016E03EFE90001CE0F9FB7A00C3EF9BFDCA
:1020A000EE9AFC900014E0FEA3E02BFBEA3EFA90CF
:1020B0000022E0FEA3E0FF900016E0F8A3E02FFF6F
:1020C000E83ECF24FFCF34FF90002AF0A3EFF0E9E1
:1020D000FF7E00900014E0F8A3E02FFFEE389000A0
:1020E0002CF0A3EFF0900022E0FEA3E0FF9000169A
:1020F000E0F8A3E02FFFE83EFEE9F582C3EF95820A
:10210000FFEE9400CF24FFCF34FF90002EF0A3EF1A
:10211000F0E9FFA3E4F0A3EFF09000201252279023
:102120000018E0FEA3E0FF900015E02FFB900014E4
:10213000E03EFA90001CE0F9FFC3EB9FFFEA940039
:10214000FEC006C007900016E0FCA3E0FDE9FF7E9C
:1021500000900016E0F8A3E02FFFEE3890002AF080
:10216000A3EFF0900018E0FEA3E0FF900014E0F869
:10217000A3E02FFFE83EFEE9F582C3EF9582FFEE74
:102180009400CF24FFCF34FF90002CF0A3EFF0E9B0
:10219000FF7E00900016E0F8A3E02FFFEE389000DD
:1021A0002EF0A3EFF0E9FFA3EEF0A3EFF090001EF6
:1021B000E0FFA3E0900032CFF0A3EFF090001DE02D
:1021C000900034F0D007D006125243900018E0FE81
:1021D000A3E0FF900015E02FFF900014E03EFE907A
:1021E000001CE0F9FDC3EF9DFFEE9400FEC006C0A9
:1021F00007900022E0FEA3E0FF900017E02FFF9081
:102200000016E03EFEC3EF9DFDEE9400FC9000182A
:10221000E0FEA3E0FF900014E0FAA3E02FFBEA3E0B
:10222000FA900022E0FEA3E0FF900016E0F8A3E0A1
:102230002FFFE83ECF24FFCF34FF90002AF0A3EF1A
:10224000F0900018E0FEA3E0FF900014E0F8A3E097
:102250002FFFE83EFEE9F582C3EF9582FFEE940082
:10226000CF24FFCF34FF90002CF0A3EFF09000229A
:10227000E0FEA3E0FF900016E0F8A3E02FFFE83EA9
:10228000FEE9F582C3EF9582FFEE9400CF24FFCFE5
:1022900034FF90002EF0A3EFF0E9FFA3E4F0A3EFEA
:1022A000F0900020E0FFA3E0900032CFF0A3EFF029
:0F22B00090001DE0900034F0D007D0060252439A
:10765E00E0FFA3E090002CCFF0A3EFF0900014E039
:04766E00FEA3E0FF98
:10767200900024EEF0A3EFF0A3ECF0A3EDF0EB4AC0
:10768200606390002AE07002A3E06059900026E057
:10769200FCA3E0FDAE02AF03900024E0FAA3E02FCA
:1076A200FFEA3ECF24FFFBEF34FFFA90002AE0FE10
:1076B200A3E0FF900026E0F8A3E02FFFE83ECF24EE
:1076C200FFCF34FF900034F0A3EFF090002CE0FFE6
:1076D200A3E0900036CFF0A3EFF0900024E0FEA3E9
:0676E200E0FF126EA7227A
:102A8D009001DEEEF0A3EFF0A3ECF0A3EDF0A3EADE
:042A9D00F0A3EBF0C7
:102AA1009001E2E0FEA3E0FF7C027DC3123169E404
:102AB1007BE87A03F9F8123060EF2401FFE43EFE6F
