:09758D00C6D5D6D0BFC6BCBC00B7
:1071C80090032274F8F0A3E4F07BFF7A75798D7D43
:1071D8000AFC7F0AFE125BDD74FF900322F0A3F025
:1071E800FB7A75798D7D327C007F0A7E00125BDD2B
:1071F8009003227407F0A374E0F07BFF7A75798D11
:0B7208007D5A7C007F0A7E00025BDDE7
:0B756C0012750F1240C81271C880FE9B
:0B757700EF1FAC0670011E4C70F622E6
:1074D400D3EF9400EE940040147D6E7C00ED1D709B
:0D74E400011CED4C70F7EF1F70E61E80E3F9
:0174F1002278
:05754E004200320000C4
:10750F00759850758920758780758DFA858D8BD20A
:06751F00AFD28ED29922CA
:06759600EF24FF92AC227D
:0E755E00C2ACC2998F993099FDC299D2AC226D
:1073DB009003AEEBF0A3EAF0A3E9F09003AEE0FB71
:1073EB00A3E0FAA3E0F912319FFF601612755E7FDE
:1073FB00057E001275779003AFE475F00112325ED3
:03740B0080D92203
:03002300026E4525
:106E4500C0E0C083C082C0D075D000C004C005C0FA
:016E55000735
:106E5600309864C298AF99900032E0FCEC20E75776
:106E660030E60FEF640A90003260028046E044800C
:106E7600800AEFB40D0C900032E04440F0A3E0F03D
:106E86008035900032E0543FFCA3E02400F5827484
:106E9600003CF583EFF0900033E004F070069000BC
:106EA60032E004F0D3900033E09431900032E09465
:076EB600004004E4F0A3F02A
:0F6EBD00D007D005D004D0D0D082D083D0E0321F
:10002600204C43442049443A25780D0A000000003C
:10003600000000000000000000000000003F40003B
:1000460000000000000000300040003000400000CA
:100056000009000BC03D000BC03D00090018C0247C
:10006600407FE0224031800000180024C01B000DB4
:10007600803240018003801C4027401C80074000DE
:1000860040100060000000000000000000000000BA
:100096000000001F80204040200000402020401F1C
:1000A6008000000000090006001F8006000900000D
:1000B60000040004003F800400040000000010005B
:1000C60060000000000000000004000400040004BA
:1000D60000040000000000004000000000000000D6
:1000E60000002001C006003800400000001F8020EC
:1000F60040204020401F800000000010403FC0000C
:10010600400000000018C021402240244018400052
:100116000010802040244024401B80000002000D77
:100126000011003FC0014000003C802440244024D0
:1001360040238000001F8024402440344003800078
:10014600003000200027C03800200000001B80245B
:1001560040244024401B8000001C0022C022402274
:10016600401F800000000000000840000000000062
:100176000000000000046000000000000000000411
:10018600000A00110020804040090009000900090A
:10019600000900000000004040208011000A000411
:1001A600001800200023402400180000001F8020B3
:1001B60040274029401F400000004007C039000F7B
:1001C6000001C0004020403FC0244024401B800066
:1001D600001F802040204020403080000020403F0B
:1001E600C0204020401F80000020403FC024402EF9
:1001F6004030C0000020403FC024402E00300000A8
:10020600000F001080204022403380020020403F33
:10021600C0040004003FC02040204020403FC020D2
:1002260040204000000060202020203FC020002009
:100236000020403FC024400B0030C0204020403FFB
:10024600C020400040004000C03FC03C0003C03C0E
:10025600003FC0000020403FC00C4023003FC020AC
:10026600001F802040204020401F80000020403F8B
:10027600C024402400180000001F80214021402097
:10028600E01FA0000020403FC02440260019C00007
:100296004018C02440244022403180000030002015
:1002A600403FC020403000000020003F800040005A
:1002B600403F80200020003E0001C007003800209B
:1002C60000380007C03C0007C03800000020403955
:1002D600C0060039C0204000002000384007C03862
:1002E6004020000000304021C02640384020C00099
:1002F60000000000007FE040204020000000007069
:10030600000C000380004000000000402040207FD9
:10031600E000000000000020004000200000000077
:100326000000100010001000100010001000000067
:1003360000400000000000000000000280054005AB
:100346004003C0004020003FC0044004400380003A
:100356000000000380044004400640000000000343
:1003660080044024403FC000400000038005400553
:100376004003400000000004401FC02440244020E9
:1003860000000002E0055005500650042020403FC2
:10039600C00440040003C000400000044027C00021
:1003A600400000000000100010041027E0000000CC
:1003B6000020403FC00140070004C0044020402008
:1003C600403FC000400040000007C0040007C004D2
:1003D6000003C00000044007C00440040003C0003E
:1003E600400000038004400440038000000410071E
:1003F600F004500440038000000000038004400421
:100406005007F00010044007C0024004000400003A
:1004160000000006400540054004C000000000043E
:10042600001F8004400040000004000780004004D4
:100436004007C000400400070004C0018006000415
:1004460000060001C0070001C006000000044006C7
:10045600C0010006C0044000000410071004E001BB
:1004660080060004000000044005C0064004400069
:10047600000000000004007BE040200000000000B7
:10048600000000FFF000000000000040207BE004B8
:1004960000000000004000800040002000200040D6
:1004A6000000000000000000000000000000000046
:1004B600000000000000001FCC000C00000000003F
:1004C60000000008003000600008003000600000F6
:1004D60000022003FC1E20022003FC1E2002200036
:1004E6000000000E1811043FFF10840C7800000075
:1004F600000F0010840F3800C007781884007800B9
:100506000000780F8410C411240E9800E4008400C3
:1005160008080068007000000000000000000000ED
:100526000000000000000007E01818200440020048
:1005360000000040022004181807E0000000000038
:10054600000240024001800FF0018002400240009C
:10055600000080008000800FF8008000800080008E
:10056600000001000D000E00000000000000000069
:100576000000000080008000800080008000800075
:10058600800000000C000C000000000000000000CD
:100596000000000006001800600180060018002018
:1005A60000000007F0080810041004080807F0000F
:1005B600000000080408041FFC00040004000000FA
:1005C6000000000E0C10141024104411840E0C00B0
:1005D6000000000C1810041104110412880C70009D
:1005E60000000000E00320042408241FFC0024006F
:1005F6000000001F98108411041104108810700068
:1006060000000007F0088811041104188800700023
:100616000000001C00100010FC13001C001000005D
:100626000000000E3811441084108411440E380066
:100636000000000700088C10441044088807F000EA
:1006460000000000000000030C030C000000000086
:10065600000000000000010106000000000000008C
:100666000000000080014002200410080810040069
:100676000002200220022002200220022002200086
:100686000000001004080804100220014000800049
:100696000000000E001200100C106C10800F0000FD
:1006A6000003E00C1813E4142417C4082807D0002C
:1006B600000004003C03C41C40074000E4001C008A
:1006C6000410041FFC1104110411040E88007000AC
:1006D6000003E00C1810041004100410081C10008D
:1006E6000010041FFC100410041004080807F00092
:1006F6000010041FFC1104110417C410040818008C
:100706000010041FFC1104110017C010000800009F
:100716000003E00C181004100410441C780040007C
:100726000010041FFC10840080008010841FFC1041
:10073600040000100410041FFC1004100400000044
:100746000000030001100110011FFE100010000040
:100756000010041FFC110403801464181C1004000C
:100766000010041FFC1004000400040004000C0028
:100776000010041FFC1F0000FC1F001FFC100400DB
:100786000010041FFC0C04030000E010181FFC10EE
:100796000007F00808100410041004080807F00009
:1007A6000010041FFC10841080108010800F0000C1
:1007B6000007F0081810241024101C080A07F2007D
:1007C6000010041FFC1104110011C011300E0C00A2
:1007D6000400000E1C11041084108410441C380000
:1007E600001800100010041FFC1004100018000070
:1007F6000010001FF810040004000410041FF81075
:100806000010001E0011E0001C007013801C001078
:10081600001FC0103C00E01F0000E0103C1FC0009D
:10082600001004180C163401C001C01634180C1040
:100836000410001C00130400FC13041C001000002C
:10084600000804101C1064108413041C0410180003
:10085600000000000000007FFE400240024002004F
:1008660000000030000C0003800060001C00030044
:100876000000004002400240027FFE00000000002F
:100886000000000000200040004000400020000062
:10089600000001000100010001000100010001004B
:1008A60001000040004000200000000000000000A1
:1008B6000000000098012401440144014400FC00AA
:1008C6000410001FFC008801040104008800700069
:1008D6000000000070008801040104010400880083
:1008E600000000007000880104010411081FFC00CC
:1008F60004000000F8014401440144014400C8001A
:10090600000000010401040FFC1104110411001879
:1009160000000000D601290129012901C9010600AC
:100926000010041FFC008401000100010400FC000B
:100936000400000104190419FC000400040000006E
:10094600000000000300010101190119FE0000006A
:100956000010041FFC0024004001B4010C01040037
:10096600000000100410041FFC0004000400000036
:1009760000010401FC0104010001FC010401000066
:10098600FC010401FC008401000100010400FC00DC
:1009960004000000F8010401040104010400F80049
:1009A60000010101FF0085010401040088007000B8
:1009B6000000000070008801040104010501FF0029
:1009C600010104010401FC0084010401000180000E
:1009D60000000000CC012401240124012401980018
:1009E6000000000100010007F801040104000000F6
:1009F60000010001F8000400040004010801FC00E5
:100A060004010001800170000C00100160018001EA
:100A16000001F0010C003001C00030010C01F001B2
:100A26000000000104018C00740170018C010400B7
:100A360000010101810171000E00180160018001B1
:100A46000000000184010C013401440184010C0002
:100A560000000000000000000001003EFC400240D3
:100A6600020000000000000000FFFF000000000080
:100A7600000000400240023EFC01000000000000B1
:100A86000000006000800080004000400020002040
:100A96000000000000000000000000000000000050
:100AA6000000000000000000000000000000000040
:100AB6000000000000000000000000000000000030
:100AC600000000000F80380FFE380F80380000004D
:100AD600000000000000000000000000000000010F
:100AE60000000600000C000038000031000006007F
:100AF600000C00003800003000000000000000007C
:100B06000061800067F807F980006180006180005D
:100B160061800061800067F807F98000618000004D
:100B26000000000000000001C0E003E0F00630080D
:100B36000418081FFFFE040E080787F00381E00073
:100B4600000000000001F000060C00040408060C7A
:100B56007001F9C0000E00003BE000EC1807080821
:100B6600040C180003E00000000001E00007F00399
:100B7600F818041C0804170807E1D003C0E0002396
:100B8600B0003C0800200800001000000000000033
:100B96000100003100003200001C000000000000CF
:100BA600000000000000000000000000000000003F
:100BB600000000000000000000000000000000002F
:100BC600007F0001FFC00780F00C00181000042011
:100BD60000020000000000002000021000040C00CB
:100BE600180780F001FFC0007F0000000000000031
:100BF60000000000000000000000000000420000AD
:100C06006600006600003C0000180003FFC00018E4
:100C160000003C0000660000660000420000000084
:100C26000008000008000008000008000008000195
:100C3600FFC00008000008000008000008000008C7
:100C46000000000000000100003100003200001C1E
:100C5600000000000000000000000000000000008E
:100C66000000000000000000000800000800000866
:100C76000000080000080000080000080000080046
:100C8600000800000800000000000000000000004E
:100C960000380000380000380000000000000000A6
:100CA600000000000000000000000000000000003E
:100CB60000000600001C000070000180000E00000D
:100CC600380000C0000700001C00003000000000D3
:100CD60000000000007F8001FFE00380700600181E
:100CE60004000804000806001803807001FFE000F5
:100CF6007F800000000000000000000100080100E5
:100D06000801000803FFF807FFF8000008000008C4
:100D160000000800000000000000000001C03802CA
:100D2600C058040098040118040218040418061C8C
:100D36001803F81801E0F8000000000000000000A9
:100D460001C0E003C0F0040008040808040808060F
:100D5600180803F41801E7F00001E00000000000A5
:100D660000000000000300000D00001100006100FB
:100D760000810803010807FFF80FFFF800010800CB
:100D860001080000000000000000E007FCD0060893
:100D960008061008061008061008061838060FF090
:100DA6000607C0000000000000000000003F8001B0
:100DB600FFE0038430020818041008041008041029
:100DC60008071810030FF00007C00000000000001D
:100DD60000000003C0000700000600000600F80639
:100DE60007F806180006E0000700000600000000ED
:100DF6000000000001E1E003F7F0063410041808D3
:100E0600041808040C08040C0806161803F3F0016D
:100E1600C1E000000000000000F80003FC300306FB
:100E2600380402080402080402080404100308F047
:100E360001FFC0007F00000000000000000000006D
:100E460000000000000000000070380070380070DC
:100E56003800000000000000000000000000000054
:100E660000000000000000000000000000301A0032
:100E7600301C000000000000000000000000000020
:100E8600000000000000000008000014000022001E
:100E9600004100008080010040020020040010088C
:100EA60000080000000000000021000021000021D1
:100EB6000000210000210000210000210000210087
:100EC60000210000210000000000000000000008D2
:100ED600000804001002002001004000808000414C
:100EE60000002200001400000800000000000000BE
:100EF60003C00004C000040000080038080F3808CA
:100F060008380810000C300007E00003C00000009D
:100F160000000000003F8000FFE0038070020F1019
:100F260006708804C088048308047F8802C0900382
:100F3600012000FE400000080000180001F8003EF5
:100F46000801C20007020007E20000FE00001FC8F9
:100F56000001F800003800000804000807FFF80741
:100F6600FFF8040808040808040808040808061816
:100F76000803F41801E7F00001E00000000000009B
:100F8600003F8001FFE0038070020018040008049F
:100F960000080400080400100600200780C00000B6
:100FA6000004000807FFF807FFF80400080400081B
:100FB60004000804001802001003807001FFE0001E
:100FC6007F8000000004000807FFF807FFF8040808
:100FD60008040808040808040808043E0804000871
:100FE60006001801006000000004000807FFF8076B
:100FF600FFF8040808040800040800040800043E7A
:10100600000600000600000180000000000000004D
:10101600003F8001FFE0038070060018040008040A
:1010260002080402080203F00783F000020000022F
:101036000004000807FFF807FFF804080800080086
:1010460000080000080000080004080807FFF80769
:10105600FFF8040008000000000000040008040077
:101066000804000807FFF807FFF804000804000852
:101076000400080000000000000000000000060058
:10108600000700000104000104000104000307FF3B
:10109600FE07FFFC04000004000004000004000832
:1010A60007FFF807FFF8040C08001800003E0004CC
:1010B600C7800503C80600F80400380400180000BD
:1010C6000804000807FFF807FFF8040008000008F6
:1010D60000000800000800000800000800001800D2
:1010E600006000000004000807FFF807800807FCFE
:1010F60000007FC00003F80007C0007800078008E2
:1011060007FFF807FFF804000804000807FFF807C0
:10111600000803C00000E000003800001E000007C1
:10112600000001C00400F007FFF804000000000002
:10113600007F8001FFE003807006001804000804A9
:10114600000806001803003001FFE0007F80000061
:101156000004000807FFF807FFF804040804040069
:10116600040400040400040400060C0003F8000153
:10117600F000000000000000007F8001FFE0038017
:10118600700600880400880400C806003C03003E80
:1011960001FFE6007F8400000004000807FFF8074F
:1011A600FFF8040808040800040C00040F00040BF0
:1011B600C00610F003F03801E00800000800000047
:1011C60001E0F803F030063010041808041808048B
:1011D6000C08040C080206180207F00781E000005C
:1011E600000180000600000400000400000400085E
:1011F60007FFF807FFF804000804000004000006D3
:10120600000001800004000007FFE007FFF0040073
:101216001800000800000800000800000800000888
:1012260004001007FFE004000004000006000007A9
:10123600E00007FE00041FE00001F800003800018E
:10124600E0043E0007C000060000040000040000A1
:1012560007E00007FFC0041FF80007C007F80007F3
:10126600FF80043FF80007C004F8000700000400F0
:101276000000000004000806001807C07805F1C841
:10128600003E00001F800463E80780F8060018048B
:10129600000800000004000006000007800007E0C8
:1012A60008047C08001FF80007F800180804E00886
:1012B6000700000600000400000000000100080608
:1012C60000380400F80403E8040F08047C0805F05D
:1012D6000807C008070018040060000000000000AE
:1012E6000000000000000000000000003FFFFE209C
:1012F600000220000220000220000220000200005E
:101306000000000000000008000007000000C00008
:101316000038000006000001C000003000000E008A
:101326000001000000000000000000200002200074
:10133600022000022000022000023FFFFE00000003
:101346000000000000000000000000000000000097
:1013560000000800001000003000002000003000EF
:10136600001000000800000000000000000000015E
:101376000000010000010000010000010000010062
:101386000001000001000001000001000001000052
:101396000100000000000000000020000020000006
:1013A6001000001000000000000000000000000017
:1013B60000000000000000000000F00019F8001B0B
:1013C60018002208002608002408002410003FF810
:1013D600001FF800000800001800000004000007C5
:1013E600FFF80FFFF0001818001008002008002072
:1013F60008003018001FF0000FC0000000000000B9
:101406000007C0001FF00018300020080020080068
:101416002008003C08001C100000600000000000CE
:10142600000000000007C0001FF000381800200868
:1014360000200800200804101007FFF80FFFF00036
:1014460000100000000000000000000007C0001FA0
:10145600F00012300022180022080022080032088C
:10146600001E10000E2000000000000000200000FA
:10147600200800200801FFF803FFF80620080420D2
:1014860008042008072000030000000000000000F8
:1014960000000E000E6E001FF30031B10020B100F7
:1014A60020B1003191001F13002E1E00200E0030C7
:1014B6000000000004000807FFF80FFFF8001008FE
:1014C600002000002000002008003FF8001FF80060
:1014D60000080000000000000000000020080020B6
:1014E60008002008063FF8063FF80000080000083C
:1014F60000000800000000000000000000000000DE
:101506000003000003002001002001002003063F25
:10151600FE063FFC00000000000000000000000086
:1015260004000807FFF80FFFF80001880003000019
:101536002FC00038F80020380020080000080000FE
:101546000000000000000004000804000804000871
:1015560007FFF80FFFF80000080000080000080069
:101566000000000000002008003FF8003FF80010CF
:1015760008002000003FF8003FF800100800200097
:10158600003FF8003FF800000800000000200800B7
:101596003FF8003FF800100800100000200000206F
:1015A60008003FF8001FF8000008000000000000D7
:1015B6000007C0000FF000183000300800200800B7
:1015C6002008003008001830000FF00007C00000A7
:1015D60000000000002001003FFF003FFF00101147
:1015E600002009002008002008003038001FF00005
:1015F6000FC00000000000000007C0001FF0003808
:1016060018002008002008002009001011001FFF04
:10161600003FFF0000010000000020080020080035
:101626002008003FF8003FF80008080010080020D6
:10163600080020000030000030000000000000001C
:10164600000000000C78001E180033080023080074
:1016560021080021880021980030F0003860000041
:101666000000000000200000200000200000FFF025
:1016760003FFF800200800200800200800003000C2
:101686000000000000000000002000003FF0007F86
:10169600F8000018000008000008002010003FF8BD
:1016A600007FF00000100000000000000020000095
:1016B6003000003C00003F800023F000007800006E
:1016C60070002380003C0000300000200000200055
:1016D600003C00003FE00023F80000E00027000087
:1016E6003E00003FE00021F80001E0003E0000203F
:1016F60000000000002008002008003838003E687E
:101706000027800003C8002CF80038380020180095
:101716002008000000000000002000003003003C0C
:1017260001003F830023EC000070002380003C0092
:101736000020000020000000000000000000000063
:1017460038080020380020F80023E8002F88003EE3
:101756000800380800201800007000000000000093
:10176600000000000000000000000000000800006B
:1017760014001FF7FC3000062000020000000000E5
:101786000000000000000000000000000000000053
:10179600000000FFFFFF0000000000000000000046
:1017A60000000000000000000000002000023000E1
:1017B600061FF7FC001400000800000000000000EF
:1017C600000000000000000000000000180000609B
:1017D600000040000040000020000010000008004B
:1017E600000400000400000C0000100000C6D50034
:1017F60000000000E0380000783C00003C78000063
:101806003C70C0001CE1E01FFFFFF0001CE3000E6F
:101816001CE7C0079CE78003DCEF0003DCEE000159
:10182600DCFC60009CF9F07FFFFFF800000000017F
:10183600C00E0001FFFF0001C00E0001C00E000136
:10184600C00E0001FFFE0001C00E0001C00E000127
:10185600C00E0001FFFE0001C00E0001C00E000018
:10186600000000D6D000000000000700000007803E
:101876000000070000000700000007000000070145
:10188600801FFFFFE01FFFFFE01E0701C01E0701CC
:10189600C01E0701C01E0701C01E0701C01E0701AA
:1018A600C01FFFFFC01FFFFFC01E0701C01C0701AE
:1018B6008000070000000700000007000000070086
:1018C60000000700000007000000070000000700F6
:1018D600000007000000000000BFC6000000000076
:1018E600000780003C07C001FC07803FE007803905
:1018F600C1C78001C0E78001C0F78001C0778001C1
:10190600DE77807FFE078001C0078003C3C78003A0
:10191600E1E78003F8F78007FCE7F00FDE67F80FD2
:10192600DC07F81FC0FF801DDFE78039CC07807118
:10193600C0078061C0078001C0078001C007800121
:10194600E0078001E0078001C0070000000000BC3E
:10195600BC000000000380300003C03C0003C03C14
:101966000003C0380003C0380003C0386003F838ED
:10197600F07FFFFFF003C0380003C0380003C03813
:101986000003DC39C003FFFFE007E383C03FC183E8
:10199600C07FC1C3803BC1C78003C0EF0003C0EF57
:1019A6000003C07E0003C07C0003C07C0003C0FEB1
:1019B600003BC3EF803F8787F80FBF03F807780027
:1019C600E000000000C4EA0000000000C0000001C2
:1019D600F0000001E0000003C000C003C001E00702
:1019E600FFFFF00703C0000E03C0001E03C0003C4B
:1019F60003C3007303C78063FFFFC00383C00003F4
:101A060083C0000383C0000383C0000383C0600358
:101A160083C0F07FFFFFF80003C0000003C0000092
:101A260003C0000003C0000003C0000003C00000A4
:101A360003C0000003C00000000000D4C200000084
:101A4600000000000000E0070000FFFF8000F00734
:101A56008000F0070000F0070000F0070000F00724
:101A66000000FFFF0000FFFF0000F0070000F00786
:101A76000000F0070000F0070000E0070000FFFF8D
:101A86000000E0070000E0070000E0070001E007B3
:101A96000001C0070001C00700038007000780F7A8
:101AA600000F007F001E001F0038001C0000000011
:101AB60000C8D5000000000000000003000300037A
:101AC600FFFF8003FFFF80038007000380070003FA
:101AD60080070003800700038007000380070003D8
:101AE6008007000380070003FFFF00038007000351
:101AF60080070003800700038007000380070003B8
:101B060080070003800700038007000380070003A7
:101B1600FFFF000380070003800700038007000320
:101B260000000000000000D0C70000000000000018
:101B3600000380070003FFFF800380070003800780
:101B4600000380070003FFFF0003800700038007F0
:101B56000003FFFF0003FFFF00038707000387C0A2
:101B66000003C7810003C7838007FFFFC007078004
:101B7600000F0780001E0786001C078F003BFFFF33
:101B8600807007800000078000000780E000078162
:101B9600F07FFFFFF80000000000000000C6DA003A
:101BA60000000006000000079E0000079E7FF00769
:101BB6009E7FF0079FF8F03FFFF8F01F9E78F00732
:101BC6009E78F0079E78F007FE7FF0079E78F00774
:101BD6009E78F0079E70F007FE70F0079E70F00783
:101BE6009E7FF0079FFFF03FFFF0F0119070F0032B
:101BF600DCF0F003DEE0F0078FE0F00F0FE0F00E10
:101C060007C0F01C038FF0380F03E0201C01C00052
:031C1600000000CB
:0A755300420322FFFF420324000060
:10000300E4FDFCC3ED9FEC9E5014E4FBFA0BBB0034
:0E001300010AEBF44A70F60DBD00010C80E509
:0100210022BC
:08743C007E00127444E4FFFE1F
:04744400AD07AC06DE
:10744800ECFFAE05D2A5C2A7D2B2C2A68F90C2A544
:0C745800D2A5AF068F90C2A5D2A5D2A786
:017464002205
:0D740E007E0012744490003EE0FEA3E0FFFB
:04741B00AD07AC0607
:10741F00ECFFAE05D2A5C2A7D2B2D2A68F90C2A55D
:0C742F00D2A5AF068F90C2A5D2A5D2A7AF
:01743B00222E
:08746500900397E0FEA3E0FF95
:04746D00AD07AC06B5
:10747100ECFFAE05D2A5C2A7D2B2D2A68F90C2A50B
:0C748100D2A5AF068F90C2A5D2A5D2A75D
:01748D0022DC
:06753A007C107F037E00BF
:0E754000AB05AA04127444AE02AF0302741B22
:1074B5007590FF7580FFC2A7D2A6C2B200AF90EF4C
:0E74C500FED2B2C2B200AD90EDFFD2B2D2A79D
:0174D3002296
:10712600EF7026FD7C057F01FE1275407D301275DD
:107136003A90031DE4F0A374DCF090031BE4F0A383
:1071460074B0F0E4900321F0227D007C047F017E80
:10715600001275407D3812753A90031DE4F0A37451
:10716600B0F090031BE4F0A374DCF09003217401EB
:02717600F02205
:1040C800D2B37F647E001274D4C2B37F647E0012C0
:1040D80074D4D2B37F647E001274D4E4FFFE1274E9
:1040E800441274B590031FEEF0A3EFF07BFF7A0043
:1040F8007926900037EEF0A3EFF0122EA5E4FFFE2C
:104108001274447F017E0012741B7F0A7E001275B0
:10411800777F0712743C7F1212743C7FA47E0012D2
:1041280074447F017E001274447F0A7E0012757702
:104138007F707E001274447F007E9B12741B7F0781
:104148007E001274447F317E0012741B7F187E003B
:104158001274447F017E0012741B7F107E0012745B
:10416800447FB07E1112741B7F117E001274447F4D
:10417800077E0012741B7F127E001274447F177E24
:104188001012741B7F137E001274447F0D7E8512FB
:10419800741B7F147E001274447F007E8012741B8F
:1041A8007F127E001274447F3C7E1012741B7F962F
:1041B8007E001200037F011274447F007E05127492
:1041C8001B7F027E001274447F007E0712741B7FDF
:1041D800037E001274447F307E1012741B7F087EA9
:1041E800001274447408FFFE12741B7F0B7E0012C9
:1041F80074447F007E1112741B7F0C7E001274447D
:10420800E4FFFE12741B7F0F7E001274447F017E50
:104218001412741B7F157E00127444E4FFFE12749E
:104228001B7F207E00127444E4FFFE12741B7F2162
:104238007E00127444E4FFFE12741B7F507E00124D
:104248007444E4FFFE12741B7F517E001274447F95
:10425800AF7E0012741B7F527E00127444E4FFFE8E
:1042680012741B7F537E001274447FDB7E0012742D
:104278001B7F707E001274447F007E1B12741B7FAC
:10428800717E00127444E4FFFE12741B7F907E005E
:10429800127444E4FFFE12741B7F917E0012744472
:1042A8007F007E0112741B7F927E001274447F018E
:1042B8007E0012741B7F597E001274447F0C7E05A9
:1042C80012741B7F907E001274447F107E0012745B
:1042D8001B7F927E001274447F007E0612741B7F3F
:1042E800077E001274447F337E0212741B7F327E75
:1042F800001200037F22127444E4FF127126900317
:0943080024E0FEA3E0FF026ECCEC
:056C9E00E0FEA3E0FF91
:106CA30090003EEEF0A3EFF0A3ECF0A3EDF0900321
:106CB30021E070357F50FE1274107F517E001274F4
:106CC30044AF03AE0212741B7F527E00127444A3BE
:106CD3001274167F537E001274449000441274168B
:106CE3007F2012740E7F2180327F5212740E7F53E5
:106CF3007E00127444AE02AF0312741B7F507E00F9
:106D0300127444A31274167F517E001274449000CF
:106D1300441274167F2112740E7F207E0012744475
:0C6D2300A31274167F227E00127444221A
:0E685C00900357EEF0A3EFF0A3ECF0A3EDF0E5
:10686A00E4A3F0A304F0A3E4F0A304F090031BE074
:10687A00FEA3E0FFC3900358E09F900357E09E50A9
:10688A001590031DE0FEA3E0FFC390035AE09F901A
:10689A000359E09E4004E4FEFF22900359E0FCA362
:1068AA00E0FD900357E0FAA3E0FBA3E0FFA3E0902A
:1068BA000044CFF0A3EFF0900357126C9E1274B508
:1068CA00AB07AA061274B5AA06AB07EA1313135448
:1068DA001FFF90035DE4F0A3EFF0EB7805CEC3133E
:1068EA00CE13D8F9543FFF90035BE4F0A3EFF07C9A
:1068FA0000EB541FFD90035BE0FEA3E07805C33371
:10690A00CE33CED8F9FBAA06ED33333354F84AFE18
:10691A00EBFF90035DE04EFAA3E04FAC02AE04FF3A
:01692A00224A
:086ECC00900034EEF0A3EFF09A
:106ED400E4A3F0A3F090031CE024FFFB90031BE069
:106EE40034FFFA90031EE024FFFE90031DE034FFFC
:106EF400900044F0A3CEF0E4FDFCFFFE126CA3E48A
:106F0400FAFBD390031CE09B90031BE09A4039E406
:106F1400900036F0A3F090031DE0FEA3E0FFC390C1
:106F24000037E09F900036E09E50169000341274B3
:106F340068900037E004F070DD900036E004F080E3
:086F4400D50BBB00010A80BA65
:016F4C002222
:10678C009002F9ECF0A3EDF09002F7EEF0A3EFF02D
:08679C009002FBEAF0A3EBF010
:1067A400E4900301F0A3F0D3EF9BEE9A4003026858
:1067B4005B9002FDE0FEA3E0FF9002F9E0FCA3E0A1
:1067C400FD9FEC9E400302685B9002FBE0FAA3E0AD
:1067D400FBA3E0FFA3E0900044CFF0A3EFF090020E
:1067E400F7126C9E9002F7E0FEA3E0FFC39002FC58
:1067F400E09FFF9002FBE09ECF2401CF3400900283
:10680400F7F0A3EFF0A3E0FEA3E0FFC39002FEE0E5
:106814009FFF9002FDE09ECF2401CF34009002F947
:10682400F0A3EFF09002F774FFF5F012327445F024
:1068340060259002F9E0FFA3E0900301CFF0A3EFFD
:10684400F090030174FFF5F012327445F060D590B6
:0768540002FF12746880EAE4
:01685B00221A
:0E6051009001FCEEF0A3EFF0A3ECF0A3EDF055
:10605F009001FCE0FEA3E0FFC3EB9FFFEA9ECF247D
:10606F0001CF3400900209F0A3EFF09001FEE0FEA3
:10607F00A3E0FFC3900203E09FFF900202E09ECFD8
:10608F002401CF3400900207F0A3EFF09001FEE05F
:10609F00FCA3E0FD900202E0FFA3E0900044CFF0EC
:1060AF00A3EFF09001FC126C9EE490020BF0A3F0B2
:1060BF00900207E0FEA3E0FFC390020CE09F900266
:1060CF000BE09E5074E490020DF0A3F0900209E0F3
:1060DF00FEA3E0FF90020DE0FAA3E0FBC39FEA9E50
:1060EF005046900209E0FCA3E0FDA3E0FEA3E0FF11
:1060FF001231F7EB2FFFEA3EFEEF25E0FFEE33FE06
:10610F00900204E0FBA3E0FAA3E0F98F828E8312E2
:10611F00328AFFAEF012746D90020EE004F070AC94
:10612F0090020DE004F080A490020CE004F0708067
:09613F0090020BE004F00260BFC5
:016148002234
:1072E80090032CFEE0FCA3E0FDC3900329E09DFD84
:0672F800900328E09CFC5D
:1072FE00AB07AA068D828C83C006C007AE83AF8211
:10730E00900044EEF0A3EFF0D007D006126CA390DD
:0A731E000322E0FEA3E0FF02746DFD
:06725C00FDE0FAA3E0FBD7
:10726200900387EEF0A3EFF090038BEAF0A3EBF02C
:10727200900389ECF0A3EDF0900387E0FAA3E0FB22
:10728200FFAE02C007A3E0FFA3E0900044CFF0A34B
:10729200EFF0D007126CA390038BE0FEA3E0FF0295
:0272A200746D09
:1070480090038DEEF0A3EFF0A3ECF0A3EDF0A3EA2C
:10705800F0A3EBF012726290038EE02401FF90031C
:107068008DE03400FE90038FE0FCA3E0A312725C75
:1070780090038DE0FEA3E0FF900390E02401FD90D3
:10708800038FE03400FC90039112725D90038EE050
:107098002401FF90038DE03400FE900390E024016A
:1070A800FD90038FE03400FC900391E0FAA3E0FB2D
:0370B800027262FF
:0E472F0090013AEEF0A3EFF0A3ECF0A3EDF052
:10473D00E4900142F0A3F0A3F0A3F0A3F0A3F09056
:10474D00013AE0FEA3E0FFC3EB9FFFEA9E90014814
:10475D00F0A3EFF090013CE0FAA3E0FBC390014120
:10476D00E09BFE900140E09A90014AF0A3CEF090BC
:10477D00013AE0FFA3E0900152CFF0A3EFF0A3EADE
:10478D00F0A3EBF0900148E0FEA3E0FFD39400EE20
:10479D0064809480400A90014EE4F0A304F08021DF
:1047AD00EF4E700890014EF0A3F0801574FF90014C
:1047BD004EF0A3F0C3E49FFFE49E900148F0A3EFF9
:1047CD00F090014AE0FEA3E0FFD39400EE648094E4
:1047DD0080400A900150E4F0A304F08021EF4E7068
:1047ED0008900150F0A3F0801574FF900150F0A3D4
:1047FD00F0C3E49FFFE49E90014AF0A3EFF0900117
:10480D004AE0FEA3E0FF900148E0FCA3E0FDD39F4A
:10481D00EE6480F8EC64809890014C4007ECF0A3B6
:10482D00EDF08005EEF0A3EFF0E4900142F0A3F07F
:10483D0090014DE02401FF90014CE03400FED39037
:10484D000143E09F900142E09E400302491D90010B
:10485D0052E0FEA3E0FFA3E0FCA3E0FD1272FE9088
:10486D000148E0FEA3E0FF900145E02FF0900144E8
:10487D00E03EF090014AE0FEA3E0FF900147E02FFB
:10488D00F0900146E03EF090014CE0FEA3E0FF9079
:10489D000144E0FCA3E0FDD39FEE6480F8EC64805E
:1048AD00984020ED9FFFEC9E900144F0A3EFF09017
:1048BD00014EE0FEA3E0FF900153E02FF090015276
:1048CD00E03EF090014CE0FEA3E0FF900146E0FCDD
:1048DD00A3E0FDD39FEE6480F8EC6480984020ED5A
:1048ED009FFFEC9E900146F0A3EFF0900150E0FE8B
:1048FD00A3E0FF900155E02FF0900154E03EF090C1
:10490D000143E004F07006900142E004F002483DDE
:01491D002277
:0E491E009000E0EEF0A3EFF0A3ECF0A3EDF0BC
:10492C00E49000ECF0A3F0A3F0A3F09000E0E0FE24
:10493C00A3E0FFC3EB9FFFEA9E9000F0F0A3EFF023
:10494C009000E2E0FAA3E0FBC39000E7E09BFE904E
:10495C0000E6E09A9000F2F0A3CEF09000E0E0FFC9
:10496C00A3E09000FACFF0A3EFF0A3EAF0A3EBF0F2
:10497C009000F0E0FEA3E0FFD39400EE64809480FE
:10498C00400A9000F6E4F0A304F08021EF4E70088A
:10499C009000F6F0A3F0801574FF9000F6F0A3F0F1
:1049AC00C3E49FFFE49E9000F0F0A3EFF09000F2C0
:1049BC00E0FEA3E0FFD39400EE64809480400A9064
:1049CC0000F8E4F0A304F08021EF4E70089000F89A
:1049DC00F0A3F0801574FF9000F8F0A3F0C3E49FEF
:1049EC00FFE49E9000F2F0A3EFF09000F2E0FEA343
:1049FC00E0FF9000F0E0FCA3E0FDD39FEE6480F8B4
:104A0C00EC6480989000F44007ECF0A3EDF0800586
:104A1C00EEF0A3EFF0E49000EAF0A3F09000F5E0E4
:104A2C002401FF9000F4E03400FED39000EBE09FF3
:104A3C009000EAE09E4003024B0A9000FAE0FEA3CD
:104A4C00E0FFA3E0FCA3E09000E812725C9000F0A1
:104A5C00E0FEA3E0FF9000EDE02FF09000ECE03ED4
:104A6C00F09000F2E0FEA3E0FF9000EFE02FF0905A
:104A7C0000EEE03EF09000F4E0FEA3E0FF9000ECCE
:104A8C00E0FCA3E0FDD39FEE6480F8EC64809840DA
:104A9C0020ED9FFFEC9E9000ECF0A3EFF09000F661
:104AAC00E0FEA3E0FF9000FBE02FF09000FAE03E68
:104ABC00F09000F4E0FEA3E0FF9000EEE0FCA3E039
:104ACC00FDD39FEE6480F8EC6480984020ED9FFF4E
:104ADC00EC9E9000EEF0A3EFF09000F8E0FEA3E067
:104AEC00FF9000FDE02FF09000FCE03EF09000EB1A
:0E4AFC00E004F070069000EAE004F0024A28A0
:014B0A002288
:1065E200900393EEF0A3EFF0900397EAF0A3EBF0A1
:0865F200900395ECF0A3EDF01D
:1065FA00900393E0FAA3E0FB24FFFFEA34FFFEC016
:10660A0006C007ED24FFFDEC34FFFCEB2401FBE49C
:10661A003AFAA3E0FEA3E02401FFE43E900044F02E
:10662A00A3EFF0D007D006126CA3E4FB1274650B3B
:10663A00EBB409F8900394E024FCFF900393E03450
:10664A00FFFEC007900395E0FCA3E0FD900394E0F1
:10665A002404FB900393E03400FA900395E0FFA32F
:10666A00E0900044CFF0A3EFF0D007126CA3E4FB54
:10667A001274650BEBB409F8900396E024FCFD90C4
:10668A000395E034FFFC900393E0FAA3E0FBA3E058
:10669A00FEA3E02404FFE43E900044F0A3EFF09050
:0F66AA000393126C9EE4FB1274650BEBB409F8BA
:0166B90022BE
:106AB400900363EAF0A3EBF090035FEEF0A3EFF032
:106AC400A3ECF0A3EDF0C007A3E0FAA3E0FB90036E
:106AD40061E0FFA3E0900140CFF0A3EFF0D00712F4
:106AE400472F90035FE0FAA3E0FBFFAE02C007A3C9
:106AF400E0FCA3E0FD900365E0FFA3E0900140CF3C
:106B0400F0A3EFF0D00712472F900365E0FCA3E059
:106B1400FD900363E0FAA3E0FBA3E0FFA3E0900190
:106B240040CFF0A3EFF090035FE0FEA3E0FF124735
:106B34002F900363E0FAA3E0FBFFAE02C0079003CB
:106B440061E0FCA3E0FD900365E0FFA3E090014059
:0A6B5400CFF0A3EFF0D00702472FA7
:0E4CF400900326EEF0A3EFF0A3ECF0A3EDF09A
:104D0200E4A3F0A3F0EBFF7E00A3EEF0A3EFF02507
:104D1200E0FFEE33FEC374039F90032FF0E49E90F6
:104D2200032EF090032CE0FEA3E0FF90032AE0FCA8
:104D3200A3E0FDD39FEE6480F8EC64809840030208
:104D42004ECB900327E02DFF900326E03C1272E841
:104D520090032CE0FEA3E0FF900327E02FFF9003D7
:104D620026E03E90032A1272EB90032CE0FEA3E0B1
:104D7200FF900327E02FFF900326E03EFE90032AD8
:104D8200E0FCA3E0FD900329E02DFD900328E03C28
:104D9200FC1272FE90032AE0FEA3E0FF900327E0DC
:104DA2002FFF900326E03EFE90032CE0FCA3E0FDE3
:104DB200900329E02DFD900328E03CFC1272FE9046
:104DC200032AE0FEA3E0FFC3900327E09FFF9003C6
:104DD20026E09EFE90032CE0FCA3E0FD900329E078
:104DE2002DFD900328E03CFC1272FE90032CE0FEA5
:104DF200A3E0FFC3900327E09FFF900326E09EFEFF
:104E020090032AE0FCA3E0FD900329E02DFD90032E
:104E120028E03CFC1272FE90032AE0FEA3E0FFC3EE
:104E2200900327E09FFF900326E09E1272E8900312
:104E32002CE0FEA3E0FFC3900327E09FFF90032630
:104E4200E09EFE90032A1272EC90032BE004F070B5
:104E52000690032AE004F0C390032EE0648094805D
:104E6200502590032AE0FEA3E07802C333CE33CE6E
:104E7200D8F92406FFE43EFE90032FE02FF09003C2
:104E82002EE03EF0024D2590032CE0FEA3E0FFC38E
:104E920090032BE09FFF90032AE09EFEEF7802C36F
:104EA20033CE33CED8F9240AFFE43EFE90032FE03E
:104EB2002FF090032EE03EF090032DE024FFF090BF
:094EC200032CE034FFF0024D2541
:014ECB0022C4
:10556900900303EEF0A3EFF0900307EBF09003052F
:05557900ECF0A3EDF0D1
:10557E0090030CECF0A3EDF0900308E0FF1313136F
:10558E00541FFEEF540760047F0180027F00EE2F50
:10559E00FF900308E0C313FEEF8EF0A490030EF00D
:1055AE00900307E024E0F0E4F990030EE0FFE9C376
:1055BE009F40030256E0900308E0FFB40C129003E4
:1055CE0007E075F00CA42433F582E5F03400803149
:1055DE00EFB41012900307E075F010A424A7F58223
:1055EE00E5F03404801B900308E064186003025653
:1055FE00E0900307E075F024A42497F582E5F034DB
:10560E000AF583E58229F582E43583F583E49390E8
:10561E00030AF0E490030BF090030AE030E71390D6
:10562E000303E0FEA3E0FFA3E0FCA3E0FD90032252
:10563E008017900309E07014900303E0FEA3E0FFCF
:10564E00A3E0FCA3E0FD90032412725D90030AE038
:10565E0025E0F0900306E004F07006900305E004E8
:10566E00F090031DE0FEA3E0FF900305E0FCA3E035
:10567E00FDC39FEC9E505B90030CE0FEA3E0FFC3C6
:10568E00ED9FFDEC9EFC900308E07A00B50530EA34
:10569E00B5042C900305EEF0A3EFF0900304E004A4
:1056AE00F07006900303E004F090031BE0FEA3E00D
:1056BE00FFC3900304E09F900303E09E40102290EE
:1056CE00030BE004F0E0C3940850030256260902CF
:0256DE0055B7BE
:0156E00022A7
:07717800C3EF9E14FD7F0A26
:08717F00900399EFF0A3EDF07D
:10718700A31234520000000190039AE0FF14F0EFBD
:107197006020A3E0F8A3E0F9A3E0FAA3E0FB9003E3
:1071A70099E0FFE4FCFDFE1232EF90039B12344698
:1071B70080D690039BE0FCA3E0FDA3E0FEA3E0FFE5
:0171C70022A5
:0E6506009002C3EEF0A3EFF0A3ECF0A3EDF0D3
:10651400E49002CFF09002CDF09002CBE0FF900225
:10652400CDE0FEC39F40030265E1127178A804A97F
:1065340005AA06AB079002C7E0FCA3E0FDA3E0FEBA
:10654400A3E0FF12337AE47B0AFAF9F812337A9063
:1065540002CEEBF0A3E070459002CBE014FF900272
:10656400CDE0FEC39F5036A3E0702C9002CCE0FB3C
:10657400C3138EF0A4FF9002C4E02FFF9002C3E087
:1065840035F0FE9002C5E0FCA3E0FD900308EBF0BB
:10659400E4A3F07B20803A9002CF7401F09002CC07
:1065A400E0FAC313FFA3E0FEEF8EF0A4FF9002C451
:1065B400E02FFF9002C3E035F0FE9002C5E0FCA39B
:1065C400E0FD9002CEE02430FB900308EAF0E4A35F
:0D65D400F01255699002CDE004F002651D43
:0165E1002297
:0E5D0800900299EEF0A3EFF0A3ECF0A3EDF003
:105D1600E49002A6F09002A4F09002A1E0FF9002A7
:105D2600A4E0FEC39F4003025E30127178A804A966
:105D360005AA06AB0790029DE0FCA3E0FDA3E0FEEA
:105D4600A3E0FF12337AE47B0AFAF9F812337A9069
:105D560002A5EBF0A3E06003025DE79002A1E01468
:105D6600FF9002A4E0FEC39F5077A3E0706D9002FF
:105D7600A3E0F99002A230E72BE0FBC3138EF0A458
:105D8600FF90029AE02FFF900299E035F0FE900214
:105D96009BE0FCA3E0FD900308EBF0E95401A3F0BF
:105DA6007B30807AE0FBC313FF9002A4E0FEEF8E07
:105DB600F0A4FF90029AE02FFF900299E035F0FEE2
:105DC60090029BE0FCA3E0FD900308EBF09002A399
:105DD600E05401900309F07B2080439002A67401F1
:105DE600F09002A2E0FAC313FF9002A4E0FEEF8E49
:105DF600F0A4FF90029AE02FFF900299E035F0FEA2
:105E060090029BE0FCA3E0FD9002A5E02430FB900D
:105E16000308EAF09002A3E05401900309F012553A
:0A5E2600699002A4E004F0025D1F81
:015E3000224F
:106421009002D0EEF0A3EFF0A3ECF0A3EDF0A3EA1D
:04643100F0A3EBF0F9
:106435009002D0E0FEA3E0FF9002DCF09002D5E0F0
:106445002FF09002D4E03EF09002D2E0FEA3E0FFF0
:106455009002D7E02FF09002D6E03EF09002D9E00E
:10646500FBA3E0FAA3E0F912319FFFD3947E40032A
:10647500026505EFC3942050030265059002D4E040
:10648500FEA3E0FF9002D1E09F9002D0E09E401F66
:106495009002DCE0FF9002D0E4F0A3EFF09002D888
:1064A500E0FF9002D3E02FF09002D2E03400F090AC
:1064B50002D6E0FEA3E0FF9002D2E0FCA3E0FDC31C
:1064C5009FEC9E503B9002D0E0FEA3E0FF12319F6F
:1064D500FB9002D8E0900308F0E4A3F01255699010
:1064E50002D8E0C313FF9002D1E02FF09002D0E074
:1064F5003400F09002DAE475F00112325E02646154
:016505002273
:105BDD00900034EEF0A3EFF0A3ECF0A3EDF0A3EB07
:075BED00F0A3EAF0A3E9F0C8
:105BF400900038E0FBA3E0FAA3E0F912319F7003B0
:105C0400025D07900034E0FAA3E0FBFFAE02C00699
:105C1400C007A3E0FCA3E0FDEB241FFBE43AFA90E9
:105C24000036E0FEA3E0241CFFE43E900044F0A311
:105C3400EFF0D007D006126CA3E490003BF0900084
:105C44003BE0FFC394144003025CEC900038E0FB9B
:105C5400A3E0FAA3E0F912319FFE75F076EFA424D5
:105C6400F3F582E5F03417F583E4936E70719000D8
:105C7400011231B8FF90003BE075F076A424F4F5EE
:105C840082E5F03417F583E4936F7053FB90003B87
:105C9400E075F076A424F5F582E5F03417F583E594
:105CA400822BF582E43583F583E493FF90003CE492
:105CB400F0A3EFF0E4FA90003DE030E70590032212
:105CC400800390032412746890003DE025E0F09076
:105CD400003CE033F00AEAB408DC0BEBB474AE9099
:105CE400003BE004F0025C42900039E475F00212DB
:105CF400325E900035E02420F0900034E03400F06F
:035D0400025BF44B
:015D07002279
:105AB0009001E7EEF0A3EFF0A3ECF0A3EDF0A3EA82
:045AC000F0A3EBF074
:105AC400E49001F2F0A3F0A312345200000000901D
:105AD40001F8123452000000009001E9E0FCA3E058
:105AE400FDA3E0FEA3E0FF9001E7E0FAA3E02FFFAF
:105AF400EA3ECF24FFFBEF34FFFA9001EDE0FEA372
:105B0400E0FF9001E9E0F8A3E02FFFE83ECF24FF97
:105B1400CF34FF900044F0A3EFF09001E7126C9EA5
:105B24009001EDE0FCA3E0FD9001EBE0FEA3E0FFBB
:105B34001231F7EF25E0FFEE33FEE4FCFD9001F8AF
:105B44001234469001F4A3A3E0FEA3E0FDAC0624C6
:105B540001FFE43CFE9001EFE0FBA3E0FAA3E0F9CF
:105B64008F828E831231B8FF9001F2E4F0A3EFF03C
:105B7400E0F8E4F0E89001F2F08D828C831231B801
:105B8400FF9001F2E0FEA3E04FFF9001F2EEF0FE81
:105B9400A3EFF012746DA3E0FCA3E0FDA3E0FEA369
:105BA400E02402FFE43EFEE43DFDE43CFC9001F40D
:105BB4001234469001F8E0FCA3E0FDA3E0FEA3E06C
:105BC400FF9001F4E0F8A3E0F9A3E0FAA3E0FBC33B
:085BD40012340C5003025B4780
:015BDC0022A6
:0B758200C2A1D2A3D2A2D2A1C2A322B8
:1074F200C2A1E4FEEFC4131313540124FF92A2EFBE
:0C75020025E0FFC2A1D2A10EEEB408E803
:01750E00225A
:1073A000E49003B1F0A3F0C2A1FDFC9003B2E0258C
:1073B000E0F09003B1E033F0D2A1C2A1A2A0E43387
:1073C000FFE0F0A3E04FF00DBD00010CED640C4CAC
:0A73D00070D99003B1E0FEA3E0FFC6
:0173DA002290
:07526600EEF0A3EFF07F90D2
:02526D00AB078D
:10526F00C2A1C2A3E4900156F0AF031274F29001F1
:10527F00577406F0900157E014F0E070F7D2A100D8
:10528F0000C2A100001273A0900156E025E024583F
:10529F00F582E43401F583EEF0A3EFF0900156E0D0
:1052AF0004F0E0C3940A40C1D2A3E4900156F090F9
:1052BF000156E0FFC394094003025374EF04A3F0B7
:1052CF00900157E0FFC3940A400302536BEF25E0B0
:1052DF002458F582E43401F583E0FEA3E0FF90014A
:1052EF0056E0FB25E02458F582E43401F583E0FC19
:1052FF00A3E0C39FEC9E505BEB25E02458F582E4BE
:10530F003401F583E0FEA3E0FFE4FCFD90016C1295
:10531F003446900157E0FA25E02458F582E4340131
:10532F00F583E0FEA3E0FFEB25E02458F582E4349B
:10533F0001F583EEF0A3EFF090016CA3A3E0FEA3C1
:10534F00E0FFEA25E02458F582E43401F583EEF01E
:10535F00A3EFF0900157E004F00252CF900156E016
:10536F0004F00252BE90016C123452000000009003
:10537F0001567402F090016CE0F8A3E0F9A3E0FA93
:10538F00A3E0FB900156E025E02458F582E43401B8
:10539F00F583E0FEA3E0FFE4FCFDEB2FFFEA3EFE0A
:1053AF00ED39FDEC38FC90016C123446900156E05B
:1053BF0004F0E0B408BF90016CE0FCA3E0FDA3E0B3
:1053CF00FEA3E0FFE47B06FAF9F81272A490016CD9
:0D53DF0012344690016CA3A3E0FEA3E0FF92
:0153EC00229E
:105E31001275827FD012526D900330125266900318
:105E410036EEF0A3EFF07FD012526D900332125272
:105E510066AD07AC06900332E0FEA3E0FF9003308D
:105E6100E0FAA3E0FBD39FEA9E400AA3A3EB9FFFC6
:105E7100EA9EA38017900330E0FEA3E0FFC39003E6
:105E810033E09FFF900332E09E900334F0A3EFF0E4
:105E9100900336E0FEA3E0FFD39DEE9C4007EF9D0B
:105EA100FFEE9C800E900336E0FEA3E0FFC3ED9F62
:105EB100FFEC9EA3F0A3EFF0D3900335E094329072
:105EC1000334E09400500E900339E094329003388B
:105ED100E0940040037F0022900332E0FEA3E0FF44
:105EE100900331E02FFF900330E03EC313FEEF1328
:105EF100FF9002DDEEF0A3EFF0900337E02DFF906D
:105F01000336E03CC313FEEF13FF9002DFEEF0A374
:105F1100EFF09002DEE054F0F09002E0E054F0F097
:105F2100C39002DEE094649002DDE09400400FD360
:105F31009002E0E094D89002DFE0940E40037F00ED
:035F4100227F01BB
:015F4400223A
:10597000E49003A5F0125E31EF7003025AA5900384
:1059800021E06003025A0B9002DDE0FEA3E0FFE499
:10599000FCFD9002E11234469002E1E0FCA3E0FD40
:1059A000A3E0FEA3E02406FFEE34FFFEED34FFFD8E
:1059B000EC34FFFCE47BB4FAF9F81232EFE47B74C8
:1059C0007A0EF9F812337A9002E11234469002DF2F
:1059D000E0FEA3E0FFE4FCFD9002E51234469002F5
:1059E000E5E0FCA3E0FDA3E0FEA3E024A2FFEE348B
:1059F000FEFEED34FFFDEC34FFFCE47BFAFAF9F82F
:105A00001232EFE47BAC7A0D025A929002DFE0FE94
:105A1000A3E0FFC3E49FFF74109EFEE4FCFDA3120D
:105A200034469002E1E0FCA3E0FDA3E0FEA3E02405
:105A3000A2FFEE34FEFEED34FFFDEC34FFFCE47B10
:105A4000FAFAF9F81232EFE47BAC7A0DF9F8123376
:105A50007A9002E11234469002DDE0FEA3E0FFE41A
:105A6000FCFD9002E51234469002E5E0FCA3E0FD67
:105A7000A3E0FEA3E02406FFEE34FFFEED34FFFDBD
:105A8000EC34FFFCE47BB4FAF9F81232EFE47B74F7
:105A90007A0EF9F812337A9002E51234469003A593
:0F5AA0007401F08001E49002E9F09003A5E0FFAB
:015AAF0022D4
:066F4D00900367123446B8
:106F5300900367E0FCA3E0FDA3E0FEA3E0FF78134A
:106F6300123433A3EEF0A3EFF0900367E0FCA3E049
:106F7300FDA3E0FEA3E0FF780A123433EF543FFE93
:106F8300E490036DF0A3CEF0900367E0FCA3E0FD73
:106F9300A3E0FEA3E0FF7803123433EF541FFFE4B2
:106FA300AD07FC90036DE0FEA3E07805C333CE3359
:106FB300CED8F9FBAA0690036CE033333354F84A76
:096FC300FEEBFFEE4CFEEF4DFF6A
:016FCC0022A2
:04732800AD07AC06FB
:10732C007BE77A187E00ED54037803C333CE33CE5B
:10733C00D8F9FFEA4EFAEB4FFB7E00ED541C7806B1
:10734C00C333CE33CED8F9FFEA4EFAEB4FFBED54F4
:07735C00E04AFAEBAE02FF6C
:017363002207
:0872130090039FEFF0A3EDF0E2
:10721B00A3123452000000019003A0E0FF14F0EF22
:10722B006020A3E0F8A3E0F9A3E0FAA3E0FB90034E
:10723B009FE0FFE4FCFDFE1232EF9003A1123446F7
:10724B0080D69003A1E0FCA3E0FDA3E0FEA3E0FF4A
:01725B002210
:1070BB0090036F123446900373E0FCA3E0FDA3E052
:1070CB00FEA3E0FF90036FE0F8A3E0F9A3E0FAA3BF
:1070DB00E0FBD3123422401D900373E0F8A3E0F9D8
:1070EB00A3E0FAA3E0FB90036FE0FCA3E0FDA3E0B9
:1070FB00FEA3E0801A90036FE0F8A3E0F9A3E0FA97
:10710B00A3E0FBA3E0FCA3E0FDA3E0FEA3E0C39B95
:0B711B00FFEE9AFEED99FDEC98FC22BF
:087364009003AAEEF0A3EFF084
:10736C00900322E0FFA3E09003ACCFF0A3EFF0AFCB
:10737C0003900322EAF0A3EFF09003AAE0FEA3E04F
:10738C00FF1272FE9003ACE0FFA3E0900322CFF05B
:03739C00A3EFF06C
:01739F0022CB
:10614900900258EEF0A3EFF0A3ECF0A3EDF0A3EA70
:04615900F0A3EBF0D4
:10615D00E4900263F0A3F090025CE0FEA3E0FFC3C5
:10616D00900264E09F900263E09E400302623FE470
:10617D00900265F0A3F090025EE0FEA3E0FFC390F5
:10618D000266E09F900265E09E400302622B900242
:10619D0063E0FEA3E0FF900259E02FFF900258E06C
:1061AD003EFE900265E0FCA3E0FD90025BE02DFD5C
:1061BD0090025AE03CFC12685C900267EEF0A3EF8F
:1061CD00F0900260E0FCA3E0FDA3E0FB12633490CD
:1061DD000267EEF0A3EFF0900263E0FEA3E0FF9004
:1061ED000259E02FFF900258E03EFE900265E0FC60
:1061FD00A3E0FD90025BE02DFD90025AE03CFC9087
:10620D000267E0FAA3E0FB127262900266E004F00E
:10621D006003026183900265E004F00261839002E5
:10622D0064E004F06003026164900263E004F00234
:02623D0061649A
:01623F00223C
:106240009002A9ECF0A3EDF0A3EAF0A3EBF090022A
:06625000A7EEF0A3EFF041
:10625600C39401EE94004013E024FFFE9002A7E0F1
:1062660034FF9002B1F0A3CEF0800F9002A7E0FFBA
:10627600A3E09002B1CFF0A3EFF09002A9E0FEA355
:10628600E0FFC39401EE9400400CEF24FFFFEE34D0
:10629600FF9002B3800B9002A9E0FFA3E09002B347
:1062A600CFF0A3EFF09002B3E0FFA3E09002ADCFF2
:1062B600F0A3EFF09002AAE02402FF9002A9E034D6
:1062C60000FEC39002AEE09F9002ADE09E505E904D
:1062D60002B1E0FFA3E09002AFCFF0A3EFF090028F
:1062E600A8E02402FD9002A7E03400FC9002AFE093
:1062F600FEA3E0FFC39DEE9C50239002ADE0FCA3FD
:10630600E0FD9002ABE0FAA3E0FB1272629002B0ED
:10631600E004F070C99002AFE004F080C19002AED4
:0D632600E004F0708F9002ADE004F080877D
:016333002247
:0E453C009000FEEEF0A3EFF0A3ECF0A3EDF084
:10454A00E490010AF0A3F0A3F0A3F09000FEE0FECD
:10455A00A3E0FFC3EB9FFFEA9E90010EF0A3EFF0EA
:10456A00900100E0FAA3E0FBC3900105E09BFE90F6
:10457A000104E09A900110F0A3CEF09000FEE0FF53
:10458A00A3E0900118CFF0A3EFF0A3EAF0A3EBF0B9
:10459A0090010EE0FEA3E0FFD39400EE64809480C5
:1045AA00400A900114E4F0A304F08021EF4E700851
:1045BA00900114F0A3F0801574FF900114F0A3F099
:1045CA00C3E49FFFE49E90010EF0A3EFF090011068
:1045DA00E0FEA3E0FFD39400EE64809480400A904A
:1045EA000116E4F0A304F08021EF4E700890011642
:1045FA00F0A3F0801574FF900116F0A3F0C3E49FB6
:10460A00FFE49E900110F0A3EFF0900110E0FEA3EA
:10461A00E0FF90010EE0FCA3E0FDD39FEE6480F87A
:10462A00EC6480989001124007ECF0A3EDF080054D
:10463A00EEF0A3EFF0E4900108F0A3F0900113E08C
:10464A002401FF900112E03400FED3900109E09F9B
:10465A00900108E09E400302472E900118E0FEA355
:10466A00E0FFA3E0FCA3E0FD900106E0FAA3E0FB73
:10467A0012726290010EE0FEA3E0FF90010BE02FA0
:10468A00F090010AE03EF0900110E0FEA3E0FF90F6
:10469A00010DE02FF090010CE03EF0900112E0FED7
:1046AA00A3E0FF90010AE0FCA3E0FDD39FEE648043
:1046BA00F8EC6480984020ED9FFFEC9E90010AF090
:1046CA00A3EFF0900114E0FEA3E0FF900119E02FA0
:1046DA00F0900118E03EF0900112E0FEA3E0FF9096
:1046EA00010CE0FCA3E0FDD39FEE6480F8EC64804B
:1046FA00984020ED9FFFEC9E90010CF0A3EFF09004
:10470A000116E0FEA3E0FF90011BE02FF090011AD2
:10471A00E03EF0900109E004F07006900108E00420
:04472A00F00246460D
:01472E002268
:103767009000A2EEF0A3EFF0A3ECF0A3EDF0A3EA34
:04377700F0A3EBF0E0
:10377B00E49000AFF0A3F0A3F0A3F09000AAE0FF59
:10378B007E00C39000A3E09F9000A2E09E50030236
:10379B0039D29000A7E09F9000A6E09E500302391B
:1037AB00D29000A4E0FCA3E0FD9FEC9E50030239F5
:1037BB00D29000A9E09F9000A8E09E50030239D25E
:1037CB009000AAE070139000A2E0FEA3E0FF90002F
:1037DB00ABE0FAA3E0FB0272629000A2E0FAA3E076
:1037EB00FBC39000A7E09BFE9000A6E09A9000B36D
:1037FB00F0A3CEF09000A4E0FEA3E0FFC39000A9DD
:10380B00E09FFF9000A8E09E9000B5F0A3EFF09032
:10381B0000BDEAF0A3EBF09000A4A3E0FF9000BF83
:10382B00EEF0A3EFF09000B3E0FEA3E0FFD3940023
:10383B00EE64809480400A9000B9E4F0A304F08019
:10384B0021EF4E70089000B9F0A3F0801574FF9033
:10385B0000B9F0A3F0C3E49FFFE49E9000B3F0A384
:10386B00EFF09000B5E0FEA3E0FFD39400EE648090
:10387B009480400A9000BBE4F0A304F08021EF4E4B
:10388B0070089000BBF0A3F0801574FF9000BBF0A4
:10389B00A3F0C3E49FFFE49E9000B5F0A3EFF0907C
:1038AB0000B5E0FEA3E0FF9000B3E0FCA3E0FDD386
:1038BB009FEE6480F8EC6480989000B74007ECF0C2
:1038CB00A3EDF08005EEF0A3EFF0E49000ADF0A3D4
:1038DB00F09000B8E02401FF9000B7E03400FED375
:1038EB009000AEE09F9000ADE09E40030239D29075
:1038FB0000BFE0FCA3E0FD9000AAE0FB7A00A3E090
:10390B00FFA3E09001A8CFF0A3EFF09000BDE0FE85
:10391B00A3E0FF122A9A9000B3E0FEA3E0FF900011
:10392B00B0E02FF09000AFE03EF09000B5E0FEA3CA
:10393B00E0FF9000B2E02FF09000B1E03EF090007D
:10394B00B7E0FEA3E0FF9000AFE0FCA3E0FDD39F48
:10395B00EE6480F8EC6480984020ED9FFFEC9E9025
:10396B0000AFF0A3EFF09000B9E0FEA3E0FF9000F2
:10397B00BEE02FF09000BDE03EF09000B7E0FEA35C
:10398B00E0FF9000B1E0FCA3E0FDD39FEE6480F874
:10399B00EC6480984020ED9FFFEC9E9000B1F0A36B
:1039AB00EFF09000BBE0FEA3E0FF9000C0E02FF033
:1039BB009000BFE03EF09000AEE004F07006900087
:0739CB00ADE004F00238DC5E
:0139D20022D2
:0E26D0009000C1EEF0A3EFF0A3ECF0A3EDF04C
:1026DE00E49000CEF0A3F0A3F0A3F09000C1E0FED2
:1026EE00A3E0FFC3EB9FFFEA9E9000D2F0A3EFF0B2
:1026FE009000C3E0FAA3E0FBC39000C8E09BFE90FD
:10270E0000C7E09A9000D4F0A3CEF09000C1E0FF95
:10271E00A3E09000DCCFF0A3EFF0A3EAF0A3EBF080
:10272E009000D2E0FEA3E0FFD39400EE648094808C
:10273E00400A9000D8E4F0A304F08021EF4E700818
:10274E009000D8F0A3F0801574FF9000D8F0A3F09D
:10275E00C3E49FFFE49E9000D2F0A3EFF09000D46C
:10276E00E0FEA3E0FFD39400EE64809480400A90D4
:10277E0000DAE4F0A304F08021EF4E70089000DA46
:10278E00F0A3F0801574FF9000DAF0A3F0C3E49F7D
:10279E00FFE49E9000D4F0A3EFF09000D4E0FEA3EF
:1027AE00E0FF9000D2E0FCA3E0FDD39FEE6480F842
:1027BE00EC6480989000D64007ECF0A3EDF0800515
:1027CE00EEF0A3EFF0E49000CCF0A3F09000D7E091
:1027DE002401FF9000D6E03400FED39000CDE09FA0
:1027EE009000CCE09E4003022A999000C9E0701937
:1027FE009000DCE0FEA3E0FFA3E0FCA3E0FD900070
:10280E00CAE0FAA3E0FB1272629000C9E0640160B4
:10281E00030228A49000DCE0FEA3E0FFA3E0FCA3EB
:10282E00E0FD9000CAE0FAA3E0FB1272629000DDB8
:10283E00E02401FF9000DCE03400FE9000DEE0FCBE
:10284E00A3E0FD9000CAE0FAA3E0FB1272629000D2
:10285E00DCE0FEA3E0FF9000DFE02401FD9000DE4F
:10286E00E03400FC9000CAE0FAA3E0FB1272629022
:10287E0000DDE02401FF9000DCE03400FE9000DF7C
:10288E00E02401FD9000DEE03400FC9000CAE0FA86
:10289E00A3E0FB1272629000C9E064026003022999
:1028AE00E89000DCE0FEA3E0FFA3E0FCA3E0FD90D7
:1028BE0000CAE0FAA3E0FB1272629000DDE0240190
:1028CE00FF9000DCE03400FE9000DEE0FCA3E0FDB3
:1028DE009000CAE0FAA3E0FB1272629000DCE0FE08
:1028EE00A3E0FF9000DFE02401FD9000DEE0340065
:1028FE00FC9000CAE0FAA3E0FB1272629000DDE0E9
:10290E002401FF9000DCE03400FE9000DFE02401A3
:10291E00FD9000DEE03400FC9000CAE0FAA3E0FB7C
:10292E001272629000DDE024FFFF9000DCE034FFC5
:10293E00FE9000DFE02401FD9000DEE03400FC900C
:10294E0000CAE0FAA3E0FB1272629000DDE02401FF
:10295E00FF9000DCE03400FE9000DFE024FFFD90ED
:10296E0000DEE034FFFC9000CAE0FAA3E0FB127236
:10297E00629000DDE024FFFF9000DCE034FFFE906B
:10298E0000DFE024FFFD9000DEE034FFFC9000CA83
:10299E00E0FAA3E0FB1272629000DDE024FFFF90EC
:1029AE0000DCE034FFFE9000DEE0FCA3E0FD9000D2
:1029BE00CAE0FAA3E0FB1272629000DCE0FEA3E034
:1029CE00FF9000DFE024FFFD9000DEE034FFFC907E
:1029DE0000CAE0FAA3E0FB1272629000D2E0FEA3FE
:1029EE00E0FF9000CFE02FF09000CEE03EF09000A0
:1029FE00D4E0FEA3E0FF9000D1E02FF09000D0E0F5
:102A0E003EF09000D6E0FEA3E0FF9000CEE0FCA3E7
:102A1E00E0FDD39FEE6480F8EC6480984020ED9F3B
:102A2E00FFEC9E9000CEF0A3EFF09000D8E0FEA356
:102A3E00E0FF9000DDE02FF09000DCE03EF0900033
:102A4E00D6E0FEA3E0FF9000D0E0FCA3E0FDD39F14
:102A5E00EE6480F8EC6480984020ED9FFFEC9E9031
:102A6E0000D0F0A3EFF09000DAE0FEA3E0FF9000BC
:102A7E00DFE02FF09000DEE03EF09000CDE004F0BD
:0B2A8E0070069000CCE004F00227DA94
:012A9900221A
:106C0800FAE0FFA3E090037DCFF0A3EFF0900269D4
:056C1800E0FEA3E0FF17
:106C1D00900377EEF0A3EFF0A3ECF0A3EDF0A3EA71
:106C2D00F0A3EBF04A606990031BE0FCA3E0FD903C
:106C3D000377E0FAA3E0FBD39DEA9C505390031D2C
:106C4D00E0FEA3E0FF900379E0FCA3E0FD9FEC9E46
:106C5D00503EAF03AE02C006C00790037BE0FEA31B
:106C6D00E0FF900379E0F8A3E02FFFE83ECF24FF8B
:106C7D00CF34FF9002FDF0A3EFF090037DE0FFA372
:106C8D00E09002FFCFF0A3EFF0D007D00612678C93
:016C9D0022D4
:106FCD0090037FEEF0A3EFF0A3ECF0A3EDF0EB4A0E
:106FDD00606890031BE0FEA3E0FFD3900380E09F69
:106FED0090037FE09E505390031DE0FEA3E0FF90C1
:106FFD000381E0FCA3E0FD9FEC9E503EAE02AF038B
:10700D0090037FE0FAA3E02FFFEA3ECF24FFFBEFD2
:10701D0034FFFAA3E0FFA3E09002FDCFF0A3EFF061
:10702D00900385E0FFA3E09002FFCFF0A3EFF09077
:0B703D00037FE0FEA3E0FF12678C223F
:105829009002B5EEF0A3EFF0A3ECF0A3EDF0A3EA3C
:04583900F0A3EBF0FD
:10583D00A3E07002A3E0700302596F9002B9E0700B
:10584D0002A3E0700302596F9002C0E020E0030252
:10585D0058ECE4A3F0A3F09002B9E0FEA3E0FF90B2
:10586D0002C1E0FCA3E0FDC39FEC9E400302596F13
:10587D009002B6E02DFF9002B5E03CFEC006C007D9
:10588D009002B7E0FCA3E0FD9002BCE024FFFB908A
:10589D0002BBE034FFFAC002C0039002C2E025E073
:1058AD00FF9002C1E033FE9002BDE0FBA3E0FAA33E
:1058BD00E0F98F828E8312328AFF90037DE5F0F03E
:1058CD00A3EFF0D003D002D007D006126C1D9002CA
:1058DD00C2E004F070819002C1E004F0025864E46B
:1058ED009002C1F0A3F09002BBE0FEA3E0FF900296
:1058FD00C1E0FCA3E0FDC39FEC9E50669002B8E0B2
:10590D002DFD9002B7E03CFC9002BAE024FFFB9025
:10591D0002B9E034FFFAC002C0039002C2E025E0F4
:10592D00FF9002C1E033FE9002BDE0FBA3E0FAA3BD
:10593D00E0F98F828E8312328AFF900385E5F0F0B5
:10594D00A3EFF09002B5E0FEA3E0FFD003D002126A
:10595D006FCD9002C2E004F0708C9002C1E004F0B3
:02596D00808434
:01596F002215
:064B0B0090011C1234466B
:104B1100E4900138F0A3F090011CE0FCA3E0FDA3B8
:104B2100E0FEA3E0FF7810123433900129EFF0FB8F
:104B310090011CE0FCA3E0FDA3E0FEA3E0FF7808E8
:104B410012343390012AEFF0FA90011CA3A3A3E0E1
:104B5100FFA90790012BE9F0900120E0FCA3E0FD03
:104B6100A3E0FEA3E0FF7810123433EBFDC3EF9D09
:104B7100FFEE940090012CF0A3EFF0900120E0FCF7
:104B8100A3E0FDA3E0FEA3E0FF7808123433EAFDC1
:104B9100C3EF9DFEE4940090012EF0A3CEF09001AE
:104BA10020A3A3A3E0FFE9FDC3EF9DFEE4940090E1
:104BB1000130F0A3CEF0E4900138F0A3F09001278A
:104BC100E0FEA3E0FFC3900139E09F900138E09E31
:104BD1004003024CF3E0FAA3E0FB90012CE0FEA3BA
:104BE100E0FFAD03AC021231F7900127E0FCA3E036
:104BF100FD123209A3E07C002FFFEC3E900132F060
:104C0100A3EFF090012EE0FEA3E0FFAD03AC021292
:104C110031F7900127E0FCA3E0FD12320990012A4F
:104C2100E07C002FFFEC3E900134F0A3EFF0900107
:104C310030E0FEA3E0FFAD03AC021231F790012793
:104C4100E0FCA3E0FD12320990012BE07C002FFF74
:104C5100EC3E900136F0A3EFF0900132E0FEA3E0CC
:104C61007803CEC313CE13D8F9F0EE900132F09051
:104C71000134E0FEA3E07802CEC313CE13D8F9F0DD
:104C8100EE900134F0900136E0FEA3E07803CEC34C
:104C910013CE13D8F9F0EE900136F0900134E0FE16
:104CA100A3E07805C333CE33CED8F9FDAC0690012D
:104CB10033E033333354F84CFEEDFF900136E04ED0
:104CC100FCA3E04FFDEB25E0FFEA33FE900124E079
:104CD100FBA3E0FAA3E0F98F828E83EC8DF0123210
:104CE100C2900139E004F07006900138E004F0024E
:024CF1004BBEB8
:014CF300229E
:105F45009001BAEEF0A3EFF0A3ECF0A3EDF0A3EA15
:045F5500F0A3EBF0DA
:105F59009001C6E0FCA3E0FDA3E0FEA3E0FF9001F1
:105F6900201234469001CEE0F9A3E0FAA3E09001B3
:105F790024C9F0A3EAF0A3E9F09001BEE0FFA3E091
:105F8900900127CFF0A3EFF09001C2E0FCA3E0FD60
:105F9900A3E0FEA3E0FF124B0BE49001CAF0A3F0CB
:105FA9009001BEE0FEA3E0FFC39001CBE09F90010A
:105FB900CAE09E4003026050E49001CCF0A3F09047
:105FC90001C0E0FEA3E0FFC39001CDE09F9001CCAA
:105FD900E09E505F9001CAE0FAA3E0FB9001BBE0AC
:105FE9002BFF9001BAE03AFEC006C0079001CCE051
:105FF900FEA3E0FF9001BDE02FFD9001BCE03EFC57
:10600900EB25E0FFEA33FE9001CEE0FBA3E0FAA323
:10601900E0F98F828E8312328AFBAAF0D007D0066C
:106029001272629001CDE004F070949001CCE0040A
:10603900F0808C9001CBE004F06003025FA990012D
:07604900CAE004F0025FA9A8
:01605000222D
:10692B0090033AEEF0A3EFF0A3ECF0A3EDF0A3EAA3
:10693B00F0A3EBF0C007900342E0FFA3E0900385C8
:10694B00CFF0A3EFF0D007126FCD900340E0FEA382
:10695B00E0FF90033DE02FFF90033CE03ECF24FF90
:10696B00FDEF34FFFC90033EE0FAA3E0FB90034203
:10697B00E0FFA3E0900385CFF0A3EFF090033AE0A4
:10698B00FEA3E0FF126FCD90033CE0FCA3E0FD9073
:10699B000340E0FAA3E0FBA3E0FFA3E090037DCF6D
:1069AB00F0A3EFF090033A126C1890033EE0FEA3B5
:1069BB00E0FF90033BE02FFF90033AE03ECF24FF34
:1069CB00CF34FFFEC00790033CE0FCA3E0FD900337
:1069DB0040E0FAA3E0FBA3E0FFA3E090037DCFF040
:0869EB00A3EFF0D007026C1DC0
:101C1900900269EEF0A3EFF0A3ECF0A3EDF0A3EAD4
:041C2900F0A3EBF049
:101C2D00E4900277F0A3F090026FE0FEA3E030E0C5
:101C3D000A2401FFE43E900277800B90026FE0FFD3
:101C4D00A3E0900277CFF0A3EFF0900272E0900244
:101C5D00717003021E78E0F975F002A4FFC39002C3
:101C6D006EE09FFB90026DE095F0FAE9FF90026A3D
:101C7D00E02FFF900269E03400FEC00790026BE098
:101C8D00FCA3E0FD900277E0C313FFA3E0139003E4
:101C9D004ACFF0A3EFF0900273E0FFA3E090034C66
:101CAD00CFF0A3EFF0D007126DCF900271E0F97570
:101CBD00F002A4FFC390026EE09FFB90026DE095D1
:101CCD00F0FAE9FF90026AE02FFF900269E034001C
:101CDD00FEC006C007900277E0C313FEA3E013FF1A
:101CED0090026CE02FFD90026BE03EFC900277E0DD
:101CFD00C313FFA3E01390034ACFF0A3EFF09002BC
:101D0D0075E0FFA3E090034CCFF0A3EFF0D007D028
:101D1D0006126DCF900271E0F9FB7A0090026CE033
:101D2D002BFD90026BE03AFC900277E0C313FEA30B
:101D3D00E013FFE9F582C3EF9582FFEE9400900367
:101D4D004AF0A3EFF0900273126DBB900277E0C3DF
:101D5D0013FEA3E013FF90026CE02FFD90026BE0E9
:101D6D003EFC900271E0F9FB7A00900277E0C3131C
:101D7D00FEA3E013FFE9F582C3EF9582FFEE940019
:101D8D0090034AF0A3EFF0900275126DBB90026DB7
:101D9D00E0FEA3E0FF90026AE02FFF900269E03EB3
:101DAD00FE900271E0F9FD7C00C3EF9DFFEE9CFEFD
:101DBD00C006C00790026CE02DFD90026BE03CFC6C
:101DCD00E9FB7A00900277E0C313FEA3E013FFE96D
:101DDD00F582C3EF9582FFEE940090034AF0A3EFD6
:101DED00F0900273E0FFA3E090034CCFF0A3EFF06F
:101DFD00D007D006126DCF90026DE0FEA3E0FF90EC
:101E0D00026AE02FFF900269E03EFE900271E0F958
:101E1D00FB7A00C3EF9BFFEE9AFEC006C00790024F
:101E2D0077E0C313FEA3E013FF90026CE02FFD904B
:101E3D00026BE03EFC900277E0C313FEA3E013FFBC
:101E4D00E9F582C3EF9582FFEE940090034AF0A36B
:101E5D00EFF0900275E0FFA3E090034CCFF0A3EFFD
:101E6D00F0D007D006126DCF02202BE0F975F002ED
:101E7D00A4FFC390026EE09FFB90026DE095F0FA17
:101E8D00C003E9FF90026AE02FFF900269E0340081
:101E9D00FE90026BE0FCA3E0FD900273E0FBA3E07B
:101EAD00900385CBF0A3EBF0D003126FCD900271B0
:101EBD00E0F975F002A4FFC390026EE09FFB900263
:101ECD006DE095F0FAC002C003E9FF90026AE02FC1
:101EDD00FF900269E03400FE900277E0FCA3E0FD84
:101EED0090026BE0FAA3E02DFDEA3CCD24FFCD344A
:101EFD00FFFC900275E0FBA3E0900385CBF0A3EB14
:101F0D00F0D003D002126FCD900271E0FB7A0090F9
:101F1D00026CE02BFD90026BE03AFC900277E0C37F
:101F2D0013FEA3E013C39BFBEE9A900273126C0891
:101F3D00900277E0FAA3E0FBEAC313FEEB13FF90E8
:101F4D00026CE02FFD90026BE03EFCEAC313FEEB4A
:101F5D0013FF900271E0FBC3EF9BFBEE9400900228
:101F6D0075126C0890026DE0FEA3E0FF90026AE02E
:101F7D002FFF900269E03ECF24FFCF34FFFEC00655
:101F8D00C007900271E0FB7A0090026CE02BFD908F
:101F9D00026BE03AFC900277E0C313FEA3E013C39B
:101FAD009BFBEE9AFA900273E0FFA3E090037DCFC6
:101FBD00F0A3EFF0D007D006126C1D90026DE0FE7D
:101FCD00A3E0FF90026AE02FFF900269E03ECF246C
:101FDD00FFCF34FFFEC006C007900277E0FAA3E002
:101FED00FBEAC313FEEB13FF90026CE02FFD900292
:101FFD006BE03EFCEAC313FEEB13FF900271E0FBB6
:10200D00C3EF9BFBEE9400FA900275E0FFA3E09006
:10201D00037DCFF0A3EFF0D007D006126C1D900218
:10202D006BE0FCA3E0FD900271E0F9FF7E009002F1
:10203D0069E0FAA3E02FFBEE3AFAA3E0F8A3E02F54
:10204D00FFEE38900176F0A3EFF0E9FF900269E022
:10205D00F8A3E02FFFEE38900178F0A3EFF0E9FF41
:10206D0090026BE0F8A3E02FFFEE3890017AF0A319
:10207D00EFF0E9FFA3EEF0A3EFF0900273124ECC58
:10208D00900277E0FEA3E0FF90026CE02FFF90023C
:10209D006BE03EFE900271E0F9FB7A00C3EF9BFD11
:1020AD00EE9AFC900269E0FEA3E02BFBEA3EFA906B
:1020BD000277E0FEA3E0FF90026BE0F8A3E02FFFB4
:1020CD00E83ECF24FFCF34FF900176F0A3EFF0E987
:1020DD00FF7E00900269E0F8A3E02FFFEE3890013B
:1020ED0078F0A3EFF0900277E0FEA3E0FF90026B93
:1020FD00E0F8A3E02FFFE83EFEE9F582C3EF9582FD
:10210D00FFEE9400CF24FFCF34FF90017AF0A3EFC0
:10211D00F0E9FFA3E4F0A3EFF0900275124ECC901E
:10212D00026DE0FEA3E0FF90026AE02FFB900269D2
:10213D00E03EFA900271E0F9FFC3EB9FFFEA9400D5
:10214D00FEC006C00790026BE0FCA3E0FDE9FF7E38
:10215D000090026BE0F8A3E02FFFEE38900176F0CF
:10216D00A3EFF090026DE0FEA3E0FF900269E0F8AE
:10217D00A3E02FFFE83EFEE9F582C3EF9582FFEE67
:10218D009400CF24FFCF34FF900178F0A3EFF0E956
:10219D00FF7E0090026BE0F8A3E02FFFEE38900178
:1021AD007AF0A3EFF0E9FFA3EEF0A3EFF090027346
:1021BD00E0FFA3E090017ECFF0A3EFF0900272E07C
:1021CD00900180F0D007D006124EE890026DE0FE2F
:1021DD00A3E0FF90026AE02FFF900269E03EFE90BF
:1021ED000271E0F9FDC3EF9DFFEE9400FEC006C045
:1021FD0007900277E0FEA3E0FF90026CE02FFF90C6
:10220D00026BE03EFEC3EF9DFDEE9400FC90026D6F
:10221D00E0FEA3E0FF900269E0FAA3E02FFBEA3EA7
:10222D00FA900277E0FEA3E0FF90026BE0F8A3E0E6
:10223D002FFFE83ECF24FFCF34FF900176F0A3EFC0
:10224D00F090026DE0FEA3E0FF900269E0F8A3E0DC
:10225D002FFFE83EFEE9F582C3EF9582FFEE940075
:10226D00CF24FFCF34FF900178F0A3EFF0900277E9
:10227D00E0FEA3E0FF90026BE0F8A3E02FFFE83E45
:10228D00FEE9F582C3EF9582FFEE9400CF24FFCFD8
:10229D0034FF90017AF0A3EFF0E9FFA3E4F0A3EF90
:1022AD00F0900275E0FFA3E090017ECFF0A3EFF078
:0F22BD00900272E0900180F0D007D006024EE848
:106DBB00E0FFA3E090034CCFF0A3EFF0900269E06B
:046DCB00FEA3E0FF44
:106DCF00900344EEF0A3EFF0A3ECF0A3EDF0EB4A49
:106DDF00606390034AE07002A3E06059900346E0BD
:106DEF00FCA3E0FDAE02AF03900344E0FAA3E02F53
:106DFF00FFEA3ECF24FFFBEF34FFFA90034AE0FE99
:106E0F00A3E0FF900346E0F8A3E02FFFE83ECF2476
:106E1F00FFCF34FF9002FDF0A3EFF090034CE0FFA3
:106E2F00A3E09002FFCFF0A3EFF0900344E0FEA3A6
:066E3F00E0FF12678C2247
:102A9A009001A2EEF0A3EFF0A3ECF0A3EDF0A3EA0D
:042AAA00F0A3EBF0BA
:102AAE009001A6E0FEA3E0FF7C027DC3123483E416
:102ABE007BE87A03F9F812337AEF2401FFE43EFE45
:102ACE00E43DFDE43CFC9001AE1234469001A6E0DC
:102ADE00FEA3E0FF9001A6E0FCA3E0FD123483C04C
:102AEE0004C005C006C0079001A6E0FEA3E0FFE407
:102AFE00FCFD7B02FAF9F812337AD003D002D00132
:102B0E00D000EB2FFFEA3EFEE93DFDE83CFC9001D4
:102B1E00B21234469001A6E0FAA3E0FBFFAE02E447
:102B2E00FCFD9001B6123446C39001A3E09BFF90CA
:102B3E0001A2E09AFEC0079001A4E0FCA3E0FD9084
:102B4E0001A7E025E0FB9001A6E033FA9001A8E092
:102B5E00FFA3E0900385CFF0A3EFF0D007126FCD67
:102B6E009001AA123452000000019001AEE0FCA3C5
:102B7E00E0FDA3E0FEA3E0FF9001AAE0F8A3E0F9D8
:102B8E00A3E0FAA3E0FBD31234224003022E3990C5
:102B9E0001B6E0FCA3E0FDA3E0FEA3E0FFA804A9BC
:102BAE0005AA06FB1232EFC004C005C006C007908E
:102BBE0001AAE0FCA3E0FDA3E0FEA3E0FFA804A9A8
:102BCE0005AA06FB1232EFD003D002D001D000EFDF
:102BDE002BFFEE3AFEED39FDEC38FC9001B2E0F839
:102BEE00A3E0F9A3E0FAA3E0FBC3123422400302F0
:102BFE002D429001AEE0FCA3E0FDA3E0FEA3E0FFBA
:102C0E009001B6E0F8A3E0F9A3E0FAA3E0FB1234DA
:102C1E00225003022D209001AAA3A3E0FEA3E0FF01
:102C2E009001A3E09FFF9001A2E09ECF2401CF343C
:102C3E0000FEC006C0079001B6A3A3E0FEA3E0FF0E
:102C4E009001A5E02FFD9001A4E03EFCC004C0055C
:102C5E009001AAE0FCA3E0FDA3E0FEA3E024FFFFA9
:102C6E00EE34FFFEED34FFFDEC34FFFCE47B02FAA4
:102C7E00F9F81232EFAB07AA069001A8E0FFA3E025
:102C8E00900385CFF0A3EFF0D005D004D007D00687
:102C9E00126FCD9001AAA3A3E0FEA3E0FFC39001A3
:102CAE00A3E09FFF9001A2E09ECF2401CF3400FE4F
:102CBE00C006C0079001B6A3A3E0FEA3E0FFC39039
:102CCE0001A5E09FFD9001A4E09EFCC004C005900C
:102CDE0001AAE0FCA3E0FDA3E0FEA3E024FFFFEECB
:102CEE0034FFFEED34FFFDEC34FFFCE47B02FAF919
:102CFE00F81232EFAB07AA069001A8E0FFA3E0900E
:102D0E000385CFF0A3EFF0D005D004D007D0061284
:102D1E006FCD9001B6E0FCA3E0FDA3E0FEA3E0249E
:102D2E00FFFFEE34FFFEED34FFFDEC34FFFC9001AF
:102D3E00B61234469001B6A3A3E0FEA3E0FFC39003
:102D4E0001A3E09FFF9001A2E09EFEC006C0079087
:102D5E0001AAA3A3E0FEA3E0FF9001A5E02FFD9042
:102D6E0001A4E03EFCC004C005E47F02FEFDFC9021
:102D7E0001B6E0F8A3E0F9A3E0FAA3E0FB1232EF0C
:102D8E00AB07AA069001A8E0FFA3E0900385CFF061
:102D9E00A3EFF0D005D004D007D006126FCD90016E
:102DAE00B6A3A3E0FEA3E0FFC39001A3E09FFF90B4
:102DBE0001A2E09EFEC006C0079001AAA3A3E0FEFA
:102DCE00A3E0FFC39001A5E09FFD9001A4E09EFC4F
:102DDE00C004C005E47F02FEFDFC9001B6E0F8A33E
:102DEE00E0F9A3E0FAA3E0FB1232EFAB07AA0690DC
:102DFE0001A8E0FFA3E0900385CFF0A3EFF0D0058C
:102E0E00D004D007D006126FCD9001AAE0FCA3E04B
:102E1E00FDA3E0FEA3E02401FFE43EFEE43DFDE45D
:0B2E2E003CFC9001AA123446022B78F5
:012E39002276
:1069F300900281F0A3EFF090022EE0FEA3E0FF905F
:106A0300022CE0F8A3E02FFFE83E900283F0A3EF0F
:106A1300F0900232E0FFA3E0900285CFF0A3EFF005
:086A2300900222E0FEA3E0FF57
:0E6A2B00900279EEF0A3EFF0A3ECF0A3EDF0F3
:106A3900900281E0FCA3E0FDD39BEC9A506C90029C
:106A490079E0FEA3E0FFC3ED9FEC9E405D90027FDD
:106A5900E0FEA3E0FF900283E0FCA3E0FDD39FECFE
:106A69009E504790027BE0FEA3E0FFC3ED9FEC9EA2
:106A79004038900322E0FFA3E0900287CFF0A3EF14
:106A8900F0900285E0FFA3E0900322CFF0A3EFF09E
:106A9900900281E0FEA3E0FF1272FE900287E0FF00
:0A6AA900A3E0900322CFF0A3EFF06A
:016AB30022C0
:1034F600E0FFA3E0900230CFF0A3EFF090017EE072
:10350600FFA3E0900232CFF0A3EFF0900170E0FE4F
:03351600A3E0FF30
:10351900900222EEF0A3EFF0A3ECF0A3EDF0A3EA02
:10352900F0A3EBF0C006C007A3E0FFA3E090027F81
:10353900CFF0A3EFF090022EE0FEA3E0FF90022A65
:10354900E0F8A3E02FFFE83E900281F0A3EFF090AE
:103559000230E0FEA3E0FF90022CE0F8A3E0C39F55
:10356900FFE89E900283F0A3EFF0900232E0FFA300
:10357900E0900285CFF0A3EFF0D007D006126A2BB6
:10358900900224E0FCA3E0FDA3E0FAA3E0FBA3E0A2
:10359900FFA3E090027FCFF0A3EFF0900230E0FEAE
:1035A900A3E0FF90022AE0F8A3E02FFFE83E900293
:1035B90081F0A3EFF090022EE0FEA3E0FF90022C31
:1035C900E0F8A3E0C39FFFE89E126A0D900224E091
:1035D900FCA3E0FDA3E0FAA3E0FBA3E0FFA3E090D6
:1035E900027FCFF0A3EFF0900230E0FEA3E0FF905E
:1035F900022AE0F8A3E02FFFE83E1269F3900224C3
:10360900E0FCA3E0FDA3E0FAA3E0FBA3E0FFA3E055
:1036190090027FCFF0A3EFF090022EE0FEA3E0FF2F
:1036290090022AE0F8A3E02FFFE83E900281F0A380
:10363900EFF09002301269FD900224E0FCA3E0FD56
:10364900A3E0FAA3E0FBA3E0FFA3E090027FCFF0A1
:10365900A3EFF090022EE0FEA3E0FF90022AE0F82B
:10366900A3E0C39FFFE89E900281F0A3EFF09002D0
:10367900301269FD900224E0FCA3E0FDA3E0FAA367
:10368900E0FBA3E0FFA3E090027FCFF0A3EFF0906F
:103699000230E0FEA3E0FF90022AE0F8A3E0C39F16
:1036A900FFE89E1269F3900224E0FCA3E0FDA3E089
:1036B900FAA3E0FBA3E0FFA3E090027FCFF0A3EF22
:1036C900F0900230E0FEA3E0FF90022AE0F8A3E0C8
:1036D900C39FFFE89E900281F0A3EFF090022EE0D5
:1036E900FEA3E0FF90022CE0F8A3E0C39FFFE89E51
:1036F900126A0D900224E0FCA3E0FDA3E0FAA3E026
:10370900FBA3E0FFA3E090027FCFF0A3EFF09002CC
:103719002EE0FEA3E0FF90022AE0F8A3E0C39FFF9A
:10372900E89E900281F0A3EFF0900230E0FEA3E062
:10373900FF90022CE0F8A3E0C39FFFE89E9002836C
:10374900F0A3EFF0900232E0FFA3E0900285CFF002
:0E375900A3EFF0900222E0FEA3E0FF026A2B35
:104ECC00E0FFA3E090017ECFF0A3EFF0900272E040
:0C4EDC00900180F0900269E0FEA3E0FF6E
:104EE800900170EEF0A3EFF0A3ECF0A3EDF0A3EACD
:044EF800F0A3EBF048
:104EFC00E4900181F0A3F090017CE0FEA3E0FF9030
:104F0C000183EEF0A3EFF025E0FFEE33FEC3740354
:104F1C009F900188F0E49E900187F0900183E0FE61
:104F2C00A3E0FF900181E0FCA3E0FDD39FEE648041
:104F3C00F8EC64809840030250A2900180E070036A
:104F4C00024FD4900185ECF0A3EDF0900183E0FECC
:104F5C00A3E0FFD3900186E09FEE6480F89001857A
:104F6C00E06480984003025022900172E0FCA3E0C0
:104F7C00FDA3E0FAA3E0FBA3E0FFA3E0900228CF9F
:104F8C00F0A3EFF0900178E0FFA3E090022ACFF0BD
:104F9C00A3EFF090017AE0FFA3E090022CCFF0A3F6
:104FAC00EFF0900181E0FFA3E090022ECFF0A3EF91
:104FBC00F09001851234F6900186E004F0708C902C
:104FCC000185E004F0024F57900172E0FCA3E0FD74
:104FDC00A3E0FAA3E0FBA3E0FFA3E0900228CFF04C
:104FEC00A3EFF0900178E0FFA3E090022ACFF0A3AA
:104FFC00EFF090017AE0FFA3E090022CCFF0A3EF4A
:10500C00F0900181E0FFA3E090022ECFF0A3EFF02F
:10501C009001831234F6900182E004F07006900146
