:0C7F3300427574746F6E20546573740006
:107E6A004F024F4C454431004C454432004C454486
:027E7A003300D3
:0A65DF007B327A007D467C007E00CE
:1065E900900004EEF0A3EFF0A3ECF0A3EDF0A3EA22
:1065F900F0A3EBF0C007A3E0FFA3E090001BCFF0EE
:10660900A3EFF090000CE090001DF0A37401F0A33B
:106619007484F0A37452F0A3F0A374CDF0D00712E0
:106629001C19900006E0FCA3E0FDA3E0FAA3E0FB3F
:10663900A3E0FFA3E090001BCFF0A3EFF090000CC4
:10664900E090001DF0E4A3F0A3F0A3F0A3F0A3F001
:10665900900004E0FEA3E0FF121C1990000CE0F981
:1066690075F002A4FFC3900009E09FFB900008E0C9
:1066790095F0FAE9FF900005E02FFF900004E0345F
:1066890000FE900007E02401FD900006E03400FCC4
:1066990090002B74D6F0A374BBF01279CD9000054D
:1066A900E02401FF900004E03400FE900007E0249C
:1066B90001FD900006E03400FC90000AE0FBA3E035
:1066C90090001BCBF0A3EBF090000FE0FBA3E09050
:1066D900001DCBF0A3EBF0900011E090001FF090AB
:1066E9000012E0F9A3E0FAA3E0900020C9F0A3EAC0
:0F66F900F0A3E9F0900008E0FAA3E0FB025E8B4B
:0A625A007B327A007D467C007E0056
:10626400900004EEF0A3EFF0A3ECF0A3EDF0A3EAAA
:10627400F0A3EBF0C007A3E0FFA3E090001BCFF076
:10628400A3EFF090000CE090001DF0A37401F074F3
:10629400FFA3F0A3F0A3F0A3F0D007121C19900001
:1062A40006E0FCA3E0FDA3E0FAA3E0FBA3E0FFA368
:1062B400E090001BCFF0A3EFF090000CE090001DE5
:1062C400F0E4A3F0A37407F0A374E0F0A37407F060
:1062D400A374E0F0900004E0FEA3E0FF121C199008
:1062E400000CE0F975F002A4FFC3900009E09FFBE5
:1062F400900008E095F0FAE9FF900005E02FFF9088
:106304000004E03400FE900007E02401FD90000644
:10631400E03400FC90002B74D6F0A374BBF0127927
:10632400CD900005E02401FF900004E03400FE90CD
:106334000007E02401FD900006E03400FC90000A10
:10634400E0FBA3E090001BCBF0A3EBF090000FE088
:10635400FBA3E090001DCBF0A3EBF0900011E090C4
:10636400001FF0900012E0F9A3E0FAA3E0900020EF
:10637400C9F0A3EAF0A3E9F0900008E0FAA3E0FB77
:03638400025E8B2B
:1022CC00E4900000F0A3F0A3F0A3F09002B474F833
:1022DC00F0A3E4F09002AFE0FFA3E090000ACFF08F
:1022EC00A3EFF0A37410F0A374FFF0A3747FF0A31A
:1022FC007433F09002ADE0FAA3E0FB7D0A7C007F22
:10230C000A7E00126E21E4900000F0900000E0FDC7
:10231C0075F03CA42402FFE435F0FEC007ED75F027
:10232C0005A4244FF9740235F0FA9000127401F0F0
:10233C00A3EAF0A3E9F090000AE4F0A37428F0A358
:10234C007404F0A374EFF0A3745DF0E4A3F0A3F0B5
:10235C00A37410F0D0077B327A007D467C001265A6
:10236C00E9900000E075F03CA4241EFFE435F0FE7B
:10237C0074FF90000AF0A3F07B0F7A007D967C002E
:10238C00122EE1900000E004F0E0C394035003022D
:10239C00231712611A900293E07003022521E47F47
:1023AC0002FEFDFC90028BE0F8A3E0F9A3E0FAA397
:1023BC00E0FBC3123869405EE47F34FEFDFC900202
:1023CC008BE0F8A3A3A3E0D31238695049E47F460D
:1023DC00FEFDFC90028FE0F8A3E0F9A3E0FAA3E085
:1023EC00FBC3123869402FE47F6EFEFDFC90028F18
:1023FC00E0F8A3A3A3E0D3123869501A90028B1211
:10240C0038990000000090028F12389900000000EB
:10241C0090000102251BE47F3EFEFDFC90028BE048
:10242C00F8A3E0F9A3E0FAA3E0FBC3123869405E1D
:10243C00E47F70FEFDFC90028BE0F8A3A3A3E0D335
:10244C001238695049E47F46FEFDFC90028FE0F89B
:10245C00A3E0F9A3E0FAA3E0FBC3123869402FE430
:10246C007F6EFEFDFC90028FE0F8A3A3A3E0D312D5
:10247C003869501A90028B123899000000009002B3
:10248C008F1238990000000090000202251BE47F97
:10249C007AFEFDFC90028BE0F8A3E0F9A3E0FAA32E
:1024AC00E0FBC31238695003022613E47FACFEFD37
:1024BC00FC90028BE0F8A3A3A3E0D312386940038D
:1024CC00022613E47F46FEFDFC90028FE0F8A3E0A9
:1024DC00F9A3E0FAA3E0FBC31238695003022613F8
:1024EC00E47F6EFEFDFC90028FE0F8A3A3A3E0D383
:1024FC00123869400302261390028B12389900009F
:10250C00000090028F1238990000000090000374B4
:10251C0001F0022613900001E06047E4F090000AFD
:10252C00F0A37428F0A37404F0A374EFF0A3745D0B
:10253C00F0E4A3F0A3F0A37410F0A37401F0A3745F
:10254C0002F0A3744FF07F021265DFD2B574FF90D6
:10255C00000AF0A3F07B0F7A007D967C007F1E02B0
:10256C00260E900002E06046E4F090000AF0A3749E
:10257C0028F0A37404F0A374EFF0A3745DF0E4A34B
:10258C00F0A3F0A37410F0A37401F0A37402F0A3F1
:10259C007454F07F3E1265DFD2B674FF90000AF0DF
:1025AC00A3F07B0F7A007D967C007F5A80549000BC
:1025BC0003E06053E4F090000AF0A37428F0A374D5
:1025CC0004F0A374EFF0A3745DF0E4A3F0A3F0A304
:1025DC007410F0A37401F0A37402F0A37459F07B8F
:1025EC00327A007D467C007F7A7E001265E9D2B794
:1025FC0074FF90000AF0A3F07B0F7A007D967C00AC
:10260C007F967E00122EE1900001E0604790000A58
:10261C00E4F0A37428F0A37404F0A374EFF0A37493
:10262C005DF0E4A3F0A3F0A37410F0A37401F0A385
:10263C007402F0A3744FF07F0212625AC2B590007C
:10264C000A7407F0A374E0F07B0F7A007D967C008F
:10265C007F1E804B900002E0604D90000AE4F0A3D6
:10266C007428F0A37404F0A374EFF0A3745DF0E489
:10267C00A3F0A3F0A37410F0A37401F0A37402F000
:10268C00A37454F07F3E12625AC2B690000A7407CB
:10269C00F0A374E0F07B0F7A007D967C007F5A7E6D
:1026AC0000122EE102239E900003E0700302239E91
:1026BC0090000AE4F0A37428F0A37404F0A374EF60
:1026CC00F0A3745DF0E4A3F0A3F0A37410F0A37472
:1026DC0001F0A37402F0A37459F07B327A007D46AA
:1026EC007C007F7A7E00126264C2B790000A740785
:1026FC00F0A374E0F07B0F7A007D967C007F967ED1
:07270C0000122EE102239EE2
:0B7F3F00127EE61242C91222CC80FE26
:0B7F4A00EF1FAC0670011E4C70F62209
:107EAB00D3EF9400EE940040147D6E7C00ED1D70BA
:0D7EBB00011CED4C70F7EF1F70E61E80E318
:017EC8002297
:057E7C004200A100001E
:107EE600759850758920758780758DFA858D8BD22A
:067EF600AFD28ED29922EA
:067F6000EF24FF92AC22A9
:0E7F2500C2ACC2998F993099FDC299D2AC229C
:107D900090031BEBF0A3EAF0A3E9F090031BE0FBD8
:107DA000A3E0FAA3E0F91235E6FF6016127F257F03
:107DB000057E00127F4A90031CE475F0011236A57F
:037DC00080D92245
:030023000278451B
:10784500C0E0C083C082C0D075D000C004C005C0F0
:01785500072B
:10785600309864C298AF999000A1E0FCEC20E757FD
:1078660030E60FEF640A9000A160028046E0448093
:10787600800AEFB40D0C9000A1E04440F0A3E0F0C4
:1078860080359000A1E0543FFCA3E0246FF582749C
:10789600003CF583EFF09000A2E004F07006900043
:1078A600A1E004F0D39000A2E094319000A1E0940E
:0778B600004004E4F0A3F020
:0F78BD00D007D005D004D0D0D082D083D0E03215
:10002600204C43442049443A25780D0A000000003C
:10003600000000000000000000000000003F40003B
:1000460000000000000000300040003000400000CA
:100056000009000BC03D000BC03D00090018C0247C
:10006600407FE0224031800000180024C01B000DB4
:10007600803240018003801C4027401C80074000DE
:1000860040100060000000000000000000000000BA
:100096000000001F80204040200000402020401F1C
:1000A6008000000000090006001F8006000900000D
:1000B60000040004003F800400040000000010005B
:1000C60060000000000000000004000400040004BA
:1000D60000040000000000004000000000000000D6
:1000E60000002001C006003800400000001F8020EC
:1000F60040204020401F800000000010403FC0000C
:10010600400000000018C021402240244018400052
:100116000010802040244024401B80000002000D77
:100126000011003FC0014000003C802440244024D0
:1001360040238000001F8024402440344003800078
:10014600003000200027C03800200000001B80245B
:1001560040244024401B8000001C0022C022402274
:10016600401F800000000000000840000000000062
:100176000000000000046000000000000000000411
:10018600000A00110020804040090009000900090A
:10019600000900000000004040208011000A000411
:1001A600001800200023402400180000001F8020B3
:1001B60040274029401F400000004007C039000F7B
:1001C6000001C0004020403FC0244024401B800066
:1001D600001F802040204020403080000020403F0B
:1001E600C0204020401F80000020403FC024402EF9
:1001F6004030C0000020403FC024402E00300000A8
:10020600000F001080204022403380020020403F33
:10021600C0040004003FC02040204020403FC020D2
:1002260040204000000060202020203FC020002009
:100236000020403FC024400B0030C0204020403FFB
:10024600C020400040004000C03FC03C0003C03C0E
:10025600003FC0000020403FC00C4023003FC020AC
:10026600001F802040204020401F80000020403F8B
:10027600C024402400180000001F80214021402097
:10028600E01FA0000020403FC02440260019C00007
:100296004018C02440244022403180000030002015
:1002A600403FC020403000000020003F800040005A
:1002B600403F80200020003E0001C007003800209B
:1002C60000380007C03C0007C03800000020403955
:1002D600C0060039C0204000002000384007C03862
:1002E6004020000000304021C02640384020C00099
:1002F60000000000007FE040204020000000007069
:10030600000C000380004000000000402040207FD9
:10031600E000000000000020004000200000000077
:100326000000100010001000100010001000000067
:1003360000400000000000000000000280054005AB
:100346004003C0004020003FC0044004400380003A
:100356000000000380044004400640000000000343
:1003660080044024403FC000400000038005400553
:100376004003400000000004401FC02440244020E9
:1003860000000002E0055005500650042020403FC2
:10039600C00440040003C000400000044027C00021
:1003A600400000000000100010041027E0000000CC
:1003B6000020403FC00140070004C0044020402008
:1003C600403FC000400040000007C0040007C004D2
:1003D6000003C00000044007C00440040003C0003E
:1003E600400000038004400440038000000410071E
:1003F600F004500440038000000000038004400421
:100406005007F00010044007C0024004000400003A
:1004160000000006400540054004C000000000043E
:10042600001F8004400040000004000780004004D4
:100436004007C000400400070004C0018006000415
:1004460000060001C0070001C006000000044006C7
:10045600C0010006C0044000000410071004E001BB
:1004660080060004000000044005C0064004400069
:10047600000000000004007BE040200000000000B7
:10048600000000FFF000000000000040207BE004B8
:1004960000000000004000800040002000200040D6
:1004A6000000000000000000000000000000000046
:1004B600000000000000001FCC000C00000000003F
:1004C60000000008003000600008003000600000F6
:1004D60000022003FC1E20022003FC1E2002200036
:1004E6000000000E1811043FFF10840C7800000075
:1004F600000F0010840F3800C007781884007800B9
:100506000000780F8410C411240E9800E4008400C3
:1005160008080068007000000000000000000000ED
:100526000000000000000007E01818200440020048
:1005360000000040022004181807E0000000000038
:10054600000240024001800FF0018002400240009C
:10055600000080008000800FF8008000800080008E
:10056600000001000D000E00000000000000000069
:100576000000000080008000800080008000800075
:10058600800000000C000C000000000000000000CD
:100596000000000006001800600180060018002018
:1005A60000000007F0080810041004080807F0000F
:1005B600000000080408041FFC00040004000000FA
:1005C6000000000E0C10141024104411840E0C00B0
:1005D6000000000C1810041104110412880C70009D
:1005E60000000000E00320042408241FFC0024006F
:1005F6000000001F98108411041104108810700068
:1006060000000007F0088811041104188800700023
:100616000000001C00100010FC13001C001000005D
:100626000000000E3811441084108411440E380066
:100636000000000700088C10441044088807F000EA
:1006460000000000000000030C030C000000000086
:10065600000000000000010106000000000000008C
:100666000000000080014002200410080810040069
:100676000002200220022002200220022002200086
:100686000000001004080804100220014000800049
:100696000000000E001200100C106C10800F0000FD
:1006A6000003E00C1813E4142417C4082807D0002C
:1006B600000004003C03C41C40074000E4001C008A
:1006C6000410041FFC1104110411040E88007000AC
:1006D6000003E00C1810041004100410081C10008D
:1006E6000010041FFC100410041004080807F00092
:1006F6000010041FFC1104110417C410040818008C
:100706000010041FFC1104110017C010000800009F
:100716000003E00C181004100410441C780040007C
:100726000010041FFC10840080008010841FFC1041
:10073600040000100410041FFC1004100400000044
:100746000000030001100110011FFE100010000040
:100756000010041FFC110403801464181C1004000C
:100766000010041FFC1004000400040004000C0028
:100776000010041FFC1F0000FC1F001FFC100400DB
:100786000010041FFC0C04030000E010181FFC10EE
:100796000007F00808100410041004080807F00009
:1007A6000010041FFC10841080108010800F0000C1
:1007B6000007F0081810241024101C080A07F2007D
:1007C6000010041FFC1104110011C011300E0C00A2
:1007D6000400000E1C11041084108410441C380000
:1007E600001800100010041FFC1004100018000070
:1007F6000010001FF810040004000410041FF81075
:100806000010001E0011E0001C007013801C001078
:10081600001FC0103C00E01F0000E0103C1FC0009D
:10082600001004180C163401C001C01634180C1040
:100836000410001C00130400FC13041C001000002C
:10084600000804101C1064108413041C0410180003
:10085600000000000000007FFE400240024002004F
:1008660000000030000C0003800060001C00030044
:100876000000004002400240027FFE00000000002F
:100886000000000000200040004000400020000062
:10089600000001000100010001000100010001004B
:1008A60001000040004000200000000000000000A1
:1008B6000000000098012401440144014400FC00AA
:1008C6000410001FFC008801040104008800700069
:1008D6000000000070008801040104010400880083
:1008E600000000007000880104010411081FFC00CC
:1008F60004000000F8014401440144014400C8001A
:10090600000000010401040FFC1104110411001879
:1009160000000000D601290129012901C9010600AC
:100926000010041FFC008401000100010400FC000B
:100936000400000104190419FC000400040000006E
:10094600000000000300010101190119FE0000006A
:100956000010041FFC0024004001B4010C01040037
:10096600000000100410041FFC0004000400000036
:1009760000010401FC0104010001FC010401000066
:10098600FC010401FC008401000100010400FC00DC
:1009960004000000F8010401040104010400F80049
:1009A60000010101FF0085010401040088007000B8
:1009B6000000000070008801040104010501FF0029
:1009C600010104010401FC0084010401000180000E
:1009D60000000000CC012401240124012401980018
:1009E6000000000100010007F801040104000000F6
:1009F60000010001F8000400040004010801FC00E5
:100A060004010001800170000C00100160018001EA
:100A16000001F0010C003001C00030010C01F001B2
:100A26000000000104018C00740170018C010400B7
:100A360000010101810171000E00180160018001B1
:100A46000000000184010C013401440184010C0002
:100A560000000000000000000001003EFC400240D3
:100A6600020000000000000000FFFF000000000080
:100A7600000000400240023EFC01000000000000B1
:100A86000000006000800080004000400020002040
:100A96000000000000000000000000000000000050
:100AA6000000000000000000000000000000000040
:100AB6000000000000000000000000000000000030
:100AC600000000000F80380FFE380F80380000004D
:100AD600000000000000000000000000000000010F
:100AE60000000600000C000038000031000006007F
:100AF600000C00003800003000000000000000007C
:100B06000061800067F807F980006180006180005D
:100B160061800061800067F807F98000618000004D
:100B26000000000000000001C0E003E0F00630080D
:100B36000418081FFFFE040E080787F00381E00073
:100B4600000000000001F000060C00040408060C7A
:100B56007001F9C0000E00003BE000EC1807080821
:100B6600040C180003E00000000001E00007F00399
:100B7600F818041C0804170807E1D003C0E0002396
:100B8600B0003C0800200800001000000000000033
:100B96000100003100003200001C000000000000CF
:100BA600000000000000000000000000000000003F
:100BB600000000000000000000000000000000002F
:100BC600007F0001FFC00780F00C00181000042011
:100BD60000020000000000002000021000040C00CB
:100BE600180780F001FFC0007F0000000000000031
:100BF60000000000000000000000000000420000AD
:100C06006600006600003C0000180003FFC00018E4
:100C160000003C0000660000660000420000000084
:100C26000008000008000008000008000008000195
:100C3600FFC00008000008000008000008000008C7
:100C46000000000000000100003100003200001C1E
:100C5600000000000000000000000000000000008E
:100C66000000000000000000000800000800000866
:100C76000000080000080000080000080000080046
:100C8600000800000800000000000000000000004E
:100C960000380000380000380000000000000000A6
:100CA600000000000000000000000000000000003E
:100CB60000000600001C000070000180000E00000D
:100CC600380000C0000700001C00003000000000D3
:100CD60000000000007F8001FFE00380700600181E
:100CE60004000804000806001803807001FFE000F5
:100CF6007F800000000000000000000100080100E5
:100D06000801000803FFF807FFF8000008000008C4
:100D160000000800000000000000000001C03802CA
:100D2600C058040098040118040218040418061C8C
:100D36001803F81801E0F8000000000000000000A9
:100D460001C0E003C0F0040008040808040808060F
:100D5600180803F41801E7F00001E00000000000A5
:100D660000000000000300000D00001100006100FB
:100D760000810803010807FFF80FFFF800010800CB
:100D860001080000000000000000E007FCD0060893
:100D960008061008061008061008061838060FF090
:100DA6000607C0000000000000000000003F8001B0
:100DB600FFE0038430020818041008041008041029
:100DC60008071810030FF00007C00000000000001D
:100DD60000000003C0000700000600000600F80639
:100DE60007F806180006E0000700000600000000ED
:100DF6000000000001E1E003F7F0063410041808D3
:100E0600041808040C08040C0806161803F3F0016D
:100E1600C1E000000000000000F80003FC300306FB
:100E2600380402080402080402080404100308F047
:100E360001FFC0007F00000000000000000000006D
:100E460000000000000000000070380070380070DC
:100E56003800000000000000000000000000000054
:100E660000000000000000000000000000301A0032
:100E7600301C000000000000000000000000000020
:100E8600000000000000000008000014000022001E
:100E9600004100008080010040020020040010088C
:100EA60000080000000000000021000021000021D1
:100EB6000000210000210000210000210000210087
:100EC60000210000210000000000000000000008D2
:100ED600000804001002002001004000808000414C
:100EE60000002200001400000800000000000000BE
:100EF60003C00004C000040000080038080F3808CA
:100F060008380810000C300007E00003C00000009D
:100F160000000000003F8000FFE0038070020F1019
:100F260006708804C088048308047F8802C0900382
:100F3600012000FE400000080000180001F8003EF5
:100F46000801C20007020007E20000FE00001FC8F9
:100F56000001F800003800000804000807FFF80741
:100F6600FFF8040808040808040808040808061816
:100F76000803F41801E7F00001E00000000000009B
:100F8600003F8001FFE0038070020018040008049F
:100F960000080400080400100600200780C00000B6
:100FA6000004000807FFF807FFF80400080400081B
:100FB60004000804001802001003807001FFE0001E
:100FC6007F8000000004000807FFF807FFF8040808
:100FD60008040808040808040808043E0804000871
:100FE60006001801006000000004000807FFF8076B
:100FF600FFF8040808040800040800040800043E7A
:10100600000600000600000180000000000000004D
:10101600003F8001FFE0038070060018040008040A
:1010260002080402080203F00783F000020000022F
:101036000004000807FFF807FFF804080800080086
:1010460000080000080000080004080807FFF80769
:10105600FFF8040008000000000000040008040077
:101066000804000807FFF807FFF804000804000852
:101076000400080000000000000000000000060058
:10108600000700000104000104000104000307FF3B
:10109600FE07FFFC04000004000004000004000832
:1010A60007FFF807FFF8040C08001800003E0004CC
:1010B600C7800503C80600F80400380400180000BD
:1010C6000804000807FFF807FFF8040008000008F6
:1010D60000000800000800000800000800001800D2
:1010E600006000000004000807FFF807800807FCFE
:1010F60000007FC00003F80007C0007800078008E2
:1011060007FFF807FFF804000804000807FFF807C0
:10111600000803C00000E000003800001E000007C1
:10112600000001C00400F007FFF804000000000002
:10113600007F8001FFE003807006001804000804A9
:10114600000806001803003001FFE0007F80000061
:101156000004000807FFF807FFF804040804040069
:10116600040400040400040400060C0003F8000153
:10117600F000000000000000007F8001FFE0038017
:10118600700600880400880400C806003C03003E80
:1011960001FFE6007F8400000004000807FFF8074F
:1011A600FFF8040808040800040C00040F00040BF0
:1011B600C00610F003F03801E00800000800000047
:1011C60001E0F803F030063010041808041808048B
:1011D6000C08040C080206180207F00781E000005C
:1011E600000180000600000400000400000400085E
:1011F60007FFF807FFF804000804000004000006D3
:10120600000001800004000007FFE007FFF0040073
:101216001800000800000800000800000800000888
:1012260004001007FFE004000004000006000007A9
:10123600E00007FE00041FE00001F800003800018E
:10124600E0043E0007C000060000040000040000A1
:1012560007E00007FFC0041FF80007C007F80007F3
:10126600FF80043FF80007C004F8000700000400F0
:101276000000000004000806001807C07805F1C841
:10128600003E00001F800463E80780F8060018048B
:10129600000800000004000006000007800007E0C8
:1012A60008047C08001FF80007F800180804E00886
:1012B6000700000600000400000000000100080608
:1012C60000380400F80403E8040F08047C0805F05D
:1012D6000807C008070018040060000000000000AE
:1012E6000000000000000000000000003FFFFE209C
:1012F600000220000220000220000220000200005E
:101306000000000000000008000007000000C00008
:101316000038000006000001C000003000000E008A
:101326000001000000000000000000200002200074
:10133600022000022000022000023FFFFE00000003
:101346000000000000000000000000000000000097
:1013560000000800001000003000002000003000EF
:10136600001000000800000000000000000000015E
:101376000000010000010000010000010000010062
:101386000001000001000001000001000001000052
:101396000100000000000000000020000020000006
:1013A6001000001000000000000000000000000017
:1013B60000000000000000000000F00019F8001B0B
:1013C60018002208002608002408002410003FF810
:1013D600001FF800000800001800000004000007C5
:1013E600FFF80FFFF0001818001008002008002072
:1013F60008003018001FF0000FC0000000000000B9
:101406000007C0001FF00018300020080020080068
:101416002008003C08001C100000600000000000CE
:10142600000000000007C0001FF000381800200868
:1014360000200800200804101007FFF80FFFF00036
:1014460000100000000000000000000007C0001FA0
:10145600F00012300022180022080022080032088C
:10146600001E10000E2000000000000000200000FA
:10147600200800200801FFF803FFF80620080420D2
:1014860008042008072000030000000000000000F8
:1014960000000E000E6E001FF30031B10020B100F7
:1014A60020B1003191001F13002E1E00200E0030C7
:1014B6000000000004000807FFF80FFFF8001008FE
:1014C600002000002000002008003FF8001FF80060
:1014D60000080000000000000000000020080020B6
:1014E60008002008063FF8063FF80000080000083C
:1014F60000000800000000000000000000000000DE
:101506000003000003002001002001002003063F25
:10151600FE063FFC00000000000000000000000086
:1015260004000807FFF80FFFF80001880003000019
:101536002FC00038F80020380020080000080000FE
:101546000000000000000004000804000804000871
:1015560007FFF80FFFF80000080000080000080069
:101566000000000000002008003FF8003FF80010CF
:1015760008002000003FF8003FF800100800200097
:10158600003FF8003FF800000800000000200800B7
:101596003FF8003FF800100800100000200000206F
:1015A60008003FF8001FF8000008000000000000D7
:1015B6000007C0000FF000183000300800200800B7
:1015C6002008003008001830000FF00007C00000A7
:1015D60000000000002001003FFF003FFF00101147
:1015E600002009002008002008003038001FF00005
:1015F6000FC00000000000000007C0001FF0003808
:1016060018002008002008002009001011001FFF04
:10161600003FFF0000010000000020080020080035
:101626002008003FF8003FF80008080010080020D6
:10163600080020000030000030000000000000001C
:10164600000000000C78001E180033080023080074
:1016560021080021880021980030F0003860000041
:101666000000000000200000200000200000FFF025
:1016760003FFF800200800200800200800003000C2
:101686000000000000000000002000003FF0007F86
:10169600F8000018000008000008002010003FF8BD
:1016A600007FF00000100000000000000020000095
:1016B6003000003C00003F800023F000007800006E
:1016C60070002380003C0000300000200000200055
:1016D600003C00003FE00023F80000E00027000087
:1016E6003E00003FE00021F80001E0003E0000203F
:1016F60000000000002008002008003838003E687E
:101706000027800003C8002CF80038380020180095
:101716002008000000000000002000003003003C0C
:1017260001003F830023EC000070002380003C0092
:101736000020000020000000000000000000000063
:1017460038080020380020F80023E8002F88003EE3
:101756000800380800201800007000000000000093
:10176600000000000000000000000000000800006B
:1017760014001FF7FC3000062000020000000000E5
:101786000000000000000000000000000000000053
:10179600000000FFFFFF0000000000000000000046
:1017A60000000000000000000000002000023000E1
:1017B600061FF7FC001400000800000000000000EF
:1017C600000000000000000000000000180000609B
:1017D600000040000040000020000010000008004B
:1017E600000400000400000C0000100000C6D50034
:1017F60000000000E0380000783C00003C78000063
:101806003C70C0001CE1E01FFFFFF0001CE3000E6F
:101816001CE7C0079CE78003DCEF0003DCEE000159
:10182600DCFC60009CF9F07FFFFFF800000000017F
:10183600C00E0001FFFF0001C00E0001C00E000136
:10184600C00E0001FFFE0001C00E0001C00E000127
:10185600C00E0001FFFE0001C00E0001C00E000018
:10186600000000D6D000000000000700000007803E
:101876000000070000000700000007000000070145
:10188600801FFFFFE01FFFFFE01E0701C01E0701CC
:10189600C01E0701C01E0701C01E0701C01E0701AA
:1018A600C01FFFFFC01FFFFFC01E0701C01C0701AE
:1018B6008000070000000700000007000000070086
:1018C60000000700000007000000070000000700F6
:1018D600000007000000000000BFC6000000000076
:1018E600000780003C07C001FC07803FE007803905
:1018F600C1C78001C0E78001C0F78001C0778001C1
:10190600DE77807FFE078001C0078003C3C78003A0
:10191600E1E78003F8F78007FCE7F00FDE67F80FD2
:10192600DC07F81FC0FF801DDFE78039CC07807118
:10193600C0078061C0078001C0078001C007800121
:10194600E0078001E0078001C0070000000000BC3E
:10195600BC000000000380300003C03C0003C03C14
:101966000003C0380003C0380003C0386003F838ED
:10197600F07FFFFFF003C0380003C0380003C03813
:101986000003DC39C003FFFFE007E383C03FC183E8
:10199600C07FC1C3803BC1C78003C0EF0003C0EF57
:1019A6000003C07E0003C07C0003C07C0003C0FEB1
:1019B600003BC3EF803F8787F80FBF03F807780027
:1019C600E000000000C4EA0000000000C0000001C2
:1019D600F0000001E0000003C000C003C001E00702
:1019E600FFFFF00703C0000E03C0001E03C0003C4B
:1019F60003C3007303C78063FFFFC00383C00003F4
:101A060083C0000383C0000383C0000383C0600358
:101A160083C0F07FFFFFF80003C0000003C0000092
:101A260003C0000003C0000003C0000003C00000A4
:101A360003C0000003C00000000000D4C200000084
:101A4600000000000000E0070000FFFF8000F00734
:101A56008000F0070000F0070000F0070000F00724
:101A66000000FFFF0000FFFF0000F0070000F00786
:101A76000000F0070000F0070000E0070000FFFF8D
:101A86000000E0070000E0070000E0070001E007B3
:101A96000001C0070001C00700038007000780F7A8
:101AA600000F007F001E001F0038001C0000000011
:101AB60000C8D5000000000000000003000300037A
:101AC600FFFF8003FFFF80038007000380070003FA
:101AD60080070003800700038007000380070003D8
:101AE6008007000380070003FFFF00038007000351
:101AF60080070003800700038007000380070003B8
:101B060080070003800700038007000380070003A7
:101B1600FFFF000380070003800700038007000320
:101B260000000000000000D0C70000000000000018
:101B3600000380070003FFFF800380070003800780
:101B4600000380070003FFFF0003800700038007F0
:101B56000003FFFF0003FFFF00038707000387C0A2
:101B66000003C7810003C7838007FFFFC007078004
:101B7600000F0780001E0786001C078F003BFFFF33
:101B8600807007800000078000000780E000078162
:101B9600F07FFFFFF80000000000000000C6DA003A
:101BA60000000006000000079E0000079E7FF00769
:101BB6009E7FF0079FF8F03FFFF8F01F9E78F00732
:101BC6009E78F0079E78F007FE7FF0079E78F00774
:101BD6009E78F0079E70F007FE70F0079E70F00783
:101BE6009E7FF0079FFFF03FFFF0F0119070F0032B
:101BF600DCF0F003DEE0F0078FE0F00F0FE0F00E10
:101C060007C0F01C038FF0380F03E0201C01C00052
:031C1600000000CB
:0A7E81004202B4FFFF4202B6000007
:10000300E4FDFCC3ED9FEC9E5014E4FBFA0BBB0034
:0E001300010AEBF44A70F60DBD00010C80E509
:0100210022BC
:087DF1007E00127DF9E4FFFEA3
:047DF900AD07AC0620
:107DFD00ECFFAE05D2A5C2A7D2B2C2A68F90C2A586
:0C7E0D00D2A5AF068F90C2A5D2A5D2A7C7
:017E19002246
:0D7DC3007E00127DF9900067E0FEA3E0FF56
:047DD000AD07AC0649
:107DD400ECFFAE05D2A5C2A7D2B2D2A68F90C2A59F
:0C7DE400D2A5AF068F90C2A5D2A5D2A7F1
:017DF0002270
:087E1A00900309E0FEA3E0FF64
:047E2200AD07AC06F6
:107E2600ECFFAE05D2A5C2A7D2B2D2A68F90C2A54C
:0C7E3600D2A5AF068F90C2A5D2A5D2A79E
:017E4200221D
:067F11007C107F037E00DE
:0E7F1700AB05AA04127DF9AE02AF03027DD0C5
:107E8C007590FF7580FFC2A7D2A6C2B200AF90EF6B
:0E7E9C00FED2B2C2B200AD90EDFFD2B2D2A7BC
:017EAA0022B5
:107B2600EF7026FD7C057F01FE127F177D30127FE8
:107B3600119002AFE4F0A374DCF09002ADE4F0A380
:107B460074B0F0E49002B3F0227D007C047F017EE5
:107B560000127F177D38127F119002AFE4F0A374F4
:107B6600B0F09002ADE4F0A374DCF09002B37401BF
:027B7600F022FB
:1042C900D2B37F647E00127EABC2B37F647E0012DC
:1042D9007EABD2B37F647E00127EABE4FFFE127D1B
:1042E900F9127E8C9002B1EEF0A3EFF07BFF7A0019
:1042F9007926900003EEF0A3EFF01232ECE4FFFE12
:10430900127DF97F017E00127DD07F0A7E00127F27
:104319004A7F07127DF17F12127DF17FA47E001280
:104329007DF97F017E00127DF97F0A7E00127F4AA6
:104339007F707E00127DF97F007E9B127DD07F0702
:104349007E00127DF97F317E00127DD07F187E00BC
:10435900127DF97F017E00127DD07F107E00127DD3
:10436900F97FB07E11127DD07F117E00127DF97F19
:10437900077E00127DD07F127E00127DF97F177EA5
:1043890010127DD07F137E00127DF97F0D7E85127C
:104399007DD07F147E00127DF97F007E80127DD052
:1043A9007F127E00127DF97F3C7E10127DD07F96B0
:1043B9007E001200037F01127DF97F007E05127DC8
:1043C900D07F027E00127DF97F007E07127DD07FAB
:1043D900037E00127DF97F307E10127DD07F087E2A
:1043E90000127DF97408FFFE127DD07F0B7E00124A
:1043F9007DF97F007E11127DD07F0C7E00127DF940
:10440900E4FFFE127DD07F0F7E00127DF97F017ED1
:1044190014127DD07F157E00127DF9E4FFFE127D16
:10442900D07F207E00127DF9E4FFFE127DD07F212E
:104439007E00127DF9E4FFFE127DD07F507E0012CE
:104449007DF9E4FFFE127DD07F517E00127DF97F58
:10445900AF7E00127DD07F527E00127DF9E4FFFE0F
:10446900127DD07F537E00127DF97FDB7E00127DA5
:10447900D07F707E00127DF97F007E1B127DD07F78
:10448900717E00127DF9E4FFFE127DD07F907E00DF
:10449900127DF9E4FFFE127DD07F917E00127DF935
:1044A9007F007E01127DD07F927E00127DF97F010F
:1044B9007E00127DD07F597E00127DF97F0C7E052A
:1044C900127DD07F907E00127DF97F107E00127DD3
:1044D900D07F927E00127DF97F007E06127DD07F0B
:1044E900077E00127DF97F337E02127DD07F327EF6
:1044F900001200037F22127DF9E4FF127B2690024D
:09450900B6E0FEA3E0FF0278CC4D
:05769E00E0FEA3E0FF87
:1076A300900067EEF0A3EFF0A3ECF0A3EDF09002EF
:1076B300B3E070357F50FE127DC57F517E00127D91
:1076C300F9AF03AE02127DD07F527E00127DF9A383
:1076D300127DCB7F537E00127DF990006D127DCB1E
:1076E3007F20127DC37F2180327F52127DC37F535F
:1076F3007E00127DF9AE02AF03127DD07F507E0073
:10770300127DF9A3127DCB7F517E00127DF990008B
:107713006D127DCB7F21127DC37F207E00127DF908
:0C772300A3127DCB7F227E00127DF92294
:0E725C009002DFEEF0A3EFF0A3ECF0A3EDF054
:10726A00E4A3F0A304F0A3E4F0A304F09002ADE0D9
:10727A00FEA3E0FFC39002E0E09F9002DFE09E5091
:10728A00159002AFE0FEA3E0FFC39002E2E09F90F8
:10729A0002E1E09E4004E4FEFF229002E1E0FCA34A
:1072AA00E0FD9002DFE0FAA3E0FBA3E0FFA3E09099
:1072BA00006DCFF0A3EFF09002DF12769E127E8C63
:1072CA00AB07AA06127E8CAA06AB07EA131313545D
:1072DA001FFF9002E5E4F0A3EFF0EB7805CEC313AD
:1072EA00CE13D8F9543FFF9002E3E4F0A3EFF07C09
:1072FA0000EB541FFD9002E3E0FEA3E07805C333E0
:10730A00CE33CED8F9FBAA06ED33333354F84AFE0E
:10731A00EBFF9002E5E04EFAA3E04FAC02AE04FFA9
:01732A002240
:0878CC00900000EEF0A3EFF0C4
:1078D400E4A3F0A3F09002AEE024FFFB9002ADE03D
:1078E40034FFFA9002B0E024FFFE9002AFE034FFD0
:1078F40090006DF0A3CEF0E4FDFCFFFE1276A3E44D
:10790400FAFBD39002AEE09B9002ADE09A4039E4DA
:10791400900002F0A3F09002AFE0FEA3E0FFC3905A
:107924000003E09F900002E09E5016900000127E3B
:107934001D900003E004F070DD900002E004F0808C
:08794400D50BBB00010A80BA5B
:01794C002218
:10718C00900031ECF0A3EDF090002FEEF0A3EFF0B7
:08719C00900033EAF0A3EBF0D0
:1071A400E4900039F0A3F0D3EF9BEE9A400302720F
:1071B4005B900035E0FEA3E0FF900031E0FCA3E02B
:1071C400FD9FEC9E400302725B900033E0FAA3E063
:1071D400FBA3E0FFA3E090006DCFF0A3EFF09000DD
:1071E4002F12769E90002FE0FEA3E0FFC3900034A0
:1071F400E09FFF900033E09ECF2401CF3400900045
:107204002FF0A3EFF0A3E0FEA3E0FFC3900036E06D
:107214009FFF900035E09ECF2401CF3400900031D1
:10722400F0A3EFF090002F74FFF5F01236BB45F099
:107234006025900031E0FFA3E0900039CFF0A3EF88
:10724400F090003974FFF5F01236BB45F060D5902C
:077254000037127E1D80EAE5
:01725B002210
:0E6A51009001F6EEF0A3EFF0A3ECF0A3EDF051
:106A5F009001F6E0FEA3E0FFC3EB9FFFEA9ECF2479
:106A6F0001CF3400900203F0A3EFF09001F8E0FEA5
:106A7F00A3E0FFC39001FDE09FFF9001FCE09ECFDC
:106A8F002401CF3400900201F0A3EFF09001F8E061
:106A9F00FCA3E0FD9001FCE0FFA3E090006DCFF0C0
:106AAF00A3EFF09001F612769EE4900205F0A3F0AA
:106ABF00900201E0FEA3E0FFC3900206E09F900268
:106ACF0005E09E5074E4900207F0A3F0900203E0FB
:106ADF00FEA3E0FF900207E0FAA3E0FBC39FEA9E4C
:106AEF005046900203E0FCA3E0FDA3E0FEA3E0FF0D
:106AFF0012363EEB2FFFEA3EFEEF25E0FFEE33FEB0
:106B0F009001FEE0FBA3E0FAA3E0F98F828E8312DF
:106B1F0036D1FFAEF0127E22900208E004F070AC86
:106B2F00900207E004F080A4900206E004F0708069
:096B3F00900205E004F0026ABFB7
:016B4800222A
:107C9D009002BEFEE0FCA3E0FDC39002BBE09DFDA3
:067CAD009002BAE09CFC0D
:107CB300AB07AA068D828C83C006C007AE83AF8252
:107CC30090006DEEF0A3EFF0D007D0061276A390EC
:0A7CD30002B4E0FEA3E0FF027E22EF
:067C1100FDE0FAA3E0FB18
:107C1700900061EEF0A3EFF0900065EAF0A3EBF0BF
:107C2700900063ECF0A3EDF0900061E0FAA3E0FBB5
:107C3700FFAE02C007A3E0FFA3E090006DCFF0A363
:107C4700EFF0D0071276A3900065E0FEA3E0FF02F5
:027C57007E228B
:107A48009002FFEEF0A3EFF0A3ECF0A3EDF0A3EAB1
:107A5800F0A3EBF0127C17900300E02401FF9002E2
:107A6800FFE03400FE900301E0FCA3E0A3127C11C8
:107A78009002FFE0FEA3E0FF900302E02401FD90E6
:107A88000301E03400FC900303127C12900300E031
:107A98002401FF9002FFE03400FE900302E024017D
:107AA800FD900301E03400FC900303E0FAA3E0FB3F
:037AB800027C1736
:0E4D8D00900181EEF0A3EFF0A3ECF0A3EDF0A7
:104D9B00E4900189F0A3F0A3F0A3F0A3F0A3F090AB
:104DAB000181E0FEA3E0FFC3EB9FFFEA9E90018F22
:104DBB00F0A3EFF0900183E0FAA3E0FBC39001882E
:104DCB00E09BFE900187E09A900191F0A3CEF090CA
:104DDB000181E0FFA3E0900199CFF0A3EFF0A3EAEC
:104DEB00F0A3EBF090018FE0FEA3E0FFD39400EE75
:104DFB0064809480400A900195E4F0A304F0802134
:104E0B00EF4E7008900195F0A3F0801574FF9001A0
:104E1B0095F0A3F0C3E49FFFE49E90018FF0A3EF06
:104E2B00F0900191E0FEA3E0FFD39400EE64809438
:104E3B0080400A900197E4F0A304F08021EF4E70BC
:104E4B0008900197F0A3F0801574FF900197F0A3E1
:104E5B00F0C3E49FFFE49E900191F0A3EFF090016B
:104E6B0091E0FEA3E0FF90018FE0FCA3E0FDD39F58
:104E7B00EE6480F8EC6480989001934007ECF0A30B
:104E8B00EDF08005EEF0A3EFF0E4900189F0A3F0D4
:104E9B00900194E02401FF900193E03400FED39045
:104EAB00018AE09F900189E09E4003024F7B9001B5
:104EBB0099E0FEA3E0FFA3E0FCA3E0FD127CB3901E
:104ECB00018FE0FEA3E0FF90018CE02FF090018BAF
:104EDB00E03EF0900191E0FEA3E0FF90018EE02F09
:104EEB00F090018DE03EF0900193E0FEA3E0FF9087
:104EFB00018BE0FCA3E0FDD39FEE6480F8EC6480B3
:104F0B00984020ED9FFFEC9E90018BF0A3EFF0906B
:104F1B000195E0FEA3E0FF90019AE02FF09001993C
:104F2B00E03EF0900193E0FEA3E0FF90018DE0FCEA
:104F3B00A3E0FDD39FEE6480F8EC6480984020EDF5
:104F4B009FFFEC9E90018DF0A3EFF0900197E0FE98
:104F5B00A3E0FF90019CE02FF090019BE03EF090CE
:104F6B00018AE004F07006900189E004F0024E9B88
:014F7B002213
:0E4F7C00900127EEF0A3EFF0A3ECF0A3EDF010
:104F8A00E4900133F0A3F0A3F0A3F0900127E0FE30
:104F9A00A3E0FFC3EB9FFFEA9E900137F0A3EFF077
:104FAA00900129E0FAA3E0FBC390012EE09BFE905A
:104FBA00012DE09A900139F0A3CEF0900127E0FF8D
:104FCA00A3E0900141CFF0A3EFF0A3EAF0A3EBF046
:104FDA00900137E0FEA3E0FFD39400EE6480948052
:104FEA00400A90013DE4F0A304F08021EF4E7008DE
:104FFA0090013DF0A3F0801574FF90013DF0A3F0FD
:10500A00C3E49FFFE49E900137F0A3EFF0900139CB
:10501A00E0FEA3E0FFD39400EE64809480400A90FF
:10502A00013FE4F0A304F08021EF4E700890013FA5
:10503A00F0A3F0801574FF90013FF0A3F0C3E49F42
:10504A00FFE49E900139F0A3EFF0900139E0FEA34E
:10505A00E0FF900137E0FCA3E0FDD39FEE6480F807
:10506A00EC64809890013B4007ECF0A3EDF08005DA
:10507A00EEF0A3EFF0E4900131F0A3F090013CE0F0
:10508A002401FF90013BE03400FED3900132E09FFF
:10509A00900131E09E4003025168900141E0FEA375
:1050AA00E0FFA3E0FCA3E090012F127C11900137EE
:1050BA00E0FEA3E0FF900134E02FF0900133E03EE0
:1050CA00F0900139E0FEA3E0FF900136E02FF09066
:1050DA000135E03EF090013BE0FEA3E0FF90013392
:1050EA00E0FCA3E0FDD39FEE6480F8EC6480984076
:1050FA0020ED9FFFEC9E900133F0A3EFF090013D6D
:10510A00E0FEA3E0FF900142E02FF0900141E03E73
:10511A00F090013BE0FEA3E0FF900135E0FCA3E044
:10512A00FDD39FEE6480F8EC6480984020ED9FFFE9
:10513A00EC9E900135F0A3EFF090013FE0FEA3E072
:10514A00FF900144E02FF0900143E03EF0900132DD
:0E515A00E004F07006900131E004F00250868F
:015168002224
:106FE200900305EEF0A3EFF0900309EAF0A3EBF0B3
:086FF200900307ECF0A3EDF0A1
:106FFA00900305E0FAA3E0FB24FFFFEA34FFFEC09A
:10700A0006C007ED24FFFDEC34FFFCEB2401FBE492
:10701A003AFAA3E0FEA3E02401FFE43E90006DF0FB
:10702A00A3EFF0D007D0061276A3E4FB127E1A0B68
:10703A00EBB409F8900306E024FCFF900305E03462
:10704A00FFFEC007900307E0FCA3E0FD900306E003
:10705A002404FB900305E03400FA900307E0FFA341
:10706A00E090006DCFF0A3EFF0D0071276A3E4FB17
:10707A00127E1A0BEBB409F8900308E024FCFD9089
:10708A000307E034FFFC900305E0FAA3E0FBA3E06A
:10709A00FEA3E02404FFE43E90006DF0A3EFF0901D
:0F70AA00030512769EE4FB127E1A0BEBB409F875
:0170B90022B4
:1074B4009002EBEAF0A3EBF09002E7EEF0A3EFF01A
:1074C400A3ECF0A3EDF0C007A3E0FAA3E0FB900265
:1074D400E9E0FFA3E0900187CFF0A3EFF0D007121B
:1074E4004D8D9002E7E0FAA3E0FBFFAE02C007A3D4
:1074F400E0FCA3E0FD9002EDE0FFA3E0900187CF64
:10750400F0A3EFF0D007124D8D9002EDE0FCA3E064
:10751400FD9002EBE0FAA3E0FBA3E0FFA3E09001FF
:1075240087CFF0A3EFF09002E7E0FEA3E0FF124D57
:107534008D9002EBE0FAA3E0FBFFAE02C0079002DD
:10754400E9E0FCA3E0FD9002EDE0FFA3E0900187F9
:0A755400CFF0A3EFF0D007024D8D39
:0E5352009002B8EEF0A3EFF0A3ECF0A3EDF0A4
:10536000E4A3F0A3F0EBFF7E00A3EEF0A3EFF025A3
:10537000E0FFEE33FEC374039F9002C1F0E49E9001
:1053800002C0F09002BEE0FEA3E0FF9002BCE0FC91
:10539000A3E0FDD39FEE6480F8EC648098400302A4
:1053A00055299002B9E02DFF9002B8E03C127C9D97
:1053B0009002BEE0FEA3E0FF9002B9E02FFF900252
:1053C000B8E03E9002BC127CA09002BEE0FEA3E0DA
:1053D000FF9002B9E02FFF9002B8E03EFE9002BCC1
:1053E000E0FCA3E0FD9002BBE02DFD9002BAE03CA2
:1053F000FC127CB39002BCE0FEA3E0FF9002B9E097
:105400002FFF9002B8E03EFE9002BEE0FCA3E0FD5C
:105410009002BBE02DFD9002BAE03CFC127CB39000
:1054200002BCE0FEA3E0FFC39002B9E09FFF900240
:10543000B8E09EFE9002BEE0FCA3E0FD9002BBE05F
:105440002DFD9002BAE03CFC127CB39002BEE0FE5F
:10545000A3E0FFC39002B9E09FFF9002B8E09EFE78
:105460009002BCE0FCA3E0FD9002BBE02DFD9002A9
:10547000BAE03CFC127CB39002BCE0FEA3E0FFC3A8
:105480009002B9E09FFF9002B8E09E127C9D9002CE
:10549000BEE0FEA3E0FFC39002B9E09FFF9002B818
:1054A000E09EFE9002BC127CA19002BDE004F07070
:1054B000069002BCE004F0C39002C0E064809480D7
:1054C00050259002BCE0FEA3E07802C333CE33CE79
:1054D000D8F92406FFE43EFE9002C1E02FF09002CE
:1054E000C0E03EF00253839002BEE0FEA3E0FFC3A3
:1054F0009002BDE09FFF9002BCE09EFEEF7802C3E9
:1055000033CE33CED8F9240AFFE43EFE9002C1E048
:105510002FF09002C0E03EF09002BFE024FFF09038
:0955200002BEE034FFF0025383E7
:01552900225F
:105BC700900011EEF0A3EFF0900015EBF0900013AA
:055BD700ECF0A3EDF06D
:105BDC0090001AECF0A3EDF0900016E0FF131313F5
:105BEC00541FFEEF540760047F0180027F00EE2FEC
:105BFC00FF900016E0C313FEEF8EF0A490001CF093
:105C0C00900015E024E0F0E4F990001CE0FFE9C3FB
:105C1C009F4003025D3E900016E0FFB40C12900012
:105C2C0015E075F00CA42433F582E5F034008031D6
:105C3C00EFB41012900015E075F010A424A7F582B3
:105C4C00E5F03404801B900016E064186003025DDC
:105C5C003E900015E075F024A42497F582E5F0340D
:105C6C000AF583E58229F582E43583F583E4939084
:105C7C000018F0E4900019F0900018E030E7139051
:105C8C000011E0FEA3E0FFA3E0FCA3E0FD9002B452
:105C9C008017900017E07014900011E0FEA3E0FF55
:105CAC00A3E0FCA3E0FD9002B6127C12900018E079
:105CBC0025E0F0900014E004F07006900013E0046E
:105CCC00F09002AFE0FEA3E0FF900013E0FCA3E035
:105CDC00FDC39FEC9E505B90001AE0FEA3E0FFC357
:105CEC00ED9FFDEC9EFC900016E07A00B50530EAC5
:105CFC00B5042C900013EEF0A3EFF0900012E0042A
:105D0C00F07006900011E004F09002ADE0FEA3E00C
:105D1C00FFC3900012E09F900011E09E4010229073
:105D2C000019E004F0E0C394085003025C840902FB
:025D3C005C15F4
:015D3E002242
:077B7800C3EF9E14FD7F0A1C
:087B7F0090030BEFF0A3EDF001
:107B8700A31238990000000190030CE0FF14F0EFF6
:107B97006020A3E0F8A3E0F9A3E0FAA3E0FB9003D9
:107BA7000BE0FFE4FCFDFE12373690030D12388D13
:107BB70080D690030DE0FCA3E0FDA3E0FEA3E0FF69
:017BC700229B
:0E6F060090027AEEF0A3EFF0A3ECF0A3EDF012
:106F1400E4900286F0900284F0900282E0FF9002F6
:106F240084E0FEC39F4003026FE1127B78A804A9AA
:106F340005AA06AB0790027EE0FCA3E0FDA3E0FEF9
:106F4400A3E0FF1237C1E47B0AFAF9F81237C190C3
:106F54000285EBF0A3E07045900282E014FF9002FA
:106F640084E0FEC39F5036A3E0702C900283E0FBC4
:106F7400C3138EF0A4FF90027BE02FFF90027AE00F
:106F840035F0FE90027CE0FCA3E0FD900016EBF0EF
:106F9400E4A3F07B20803A9002867401F09002838F
:106FA400E0FAC313FFA3E0FEEF8EF0A4FF90027B90
:106FB400E02FFF90027AE035F0FE90027CE0FCA323
:106FC400E0FD900285E02430FB900016EAF0E4A393
:0D6FD400F0125BC7900284E004F0026F1D14
:016FE100228D
:0E67080090025EEEF0A3EFF0A3ECF0A3EDF034
:10671600E490026BF0900269F0900266E0FF90024E
:1067260069E0FEC39F4003026830127B78A804A983
:1067360005AA06AB07900262E0FCA3E0FDA3E0FE1B
:10674600A3E0FF1237C1E47B0AFAF9F81237C190C9
:10675600026AEBF0A3E060030267E7900266E014CA
:10676600FF900269E0FEC39F5077A3E0706D900230
:1067760068E0F990026730E72BE0FBC3138EF0A4C4
:10678600FF90025FE02FFF90025EE035F0FE900280
:1067960060E0FCA3E0FD900016EBF0E95401A3F0E5
:1067A6007B30807AE0FBC313FF900269E0FEEF8E38
:1067B600F0A4FF90025FE02FFF90025EE035F0FE4E
:1067C600900260E0FCA3E0FD900016EBF0900268FA
:1067D600E05401900017F07B20804390026B740117
:1067E600F0900267E0FAC313FF900269E0FEEF8EB5
:1067F600F0A4FF90025FE02FFF90025EE035F0FE0E
:10680600900260E0FCA3E0FD90026AE02430FB9079
:106816000016EAF0900268E05401900017F0125B4F
:0A682600C7900269E004F002671F4A
:016830002245
:106E2100900004EEF0A3EFF0A3ECF0A3EDF0A3EAE1
:046E3100F0A3EBF0EF
:106E3500900004E0FEA3E0FF900010F0900009E050
:106E45002FF0900008E03EF0900006E0FEA3E0FF82
:106E550090000BE02FF090000AE03EF090000DE06E
:106E6500FBA3E0FAA3E0F91235E6FFD3947E4003D5
:106E7500026F05EFC394205003026F05900008E0F0
:106E8500FEA3E0FF900005E09F900004E09E401FF8
:106E9500900010E0FF900004E4F0A3EFF090000CE8
:106EA500E0FF900007E02FF0900006E03400F0903E
:106EB500000AE0FEA3E0FF900006E0FCA3E0FDC3AE
:106EC5009FEC9E503B900004E0FEA3E0FF1235E6E8
:106ED500FB90000CE0900016F0E4A3F0125BC79065
:106EE500000CE0C313FF900005E02FF0900004E0D4
:106EF5003400F090000EE475F0011236A5026E61C3
:016F05002269
:1064B4009002C2EEF0A3EFF0A3ECF0A3EDF0A3EB97
:0764C400F0A3EAF0A3E9F0E8
:1064CB009002C6E0FBA3E0FAA3E0F91235E67003F5
:1064DB000265DE9002C2E0FAA3E0FBFFAE02C0064B
:1064EB00C007A3E0FCA3E0FDEB241FFBE43AFA900A
:1064FB0002C4E0FEA3E0241CFFE43E90006DF0A379
:10650B00EFF0D007D0061276A3E49002C9F0900208
:10651B00C9E0FFC3941440030265C39002C6E0FBBD
:10652B00A3E0FAA3E0F91235E6FE75F076EFA424AA
:10653B00F3F582E5F03417F583E4936E70719000F8
:10654B00011235FFFF9002C9E075F076A424F4F533
:10655B0082E5F03417F583E4936F7053FB9002C917
:10656B00E075F076A424F5F582E5F03417F583E5B4
:10657B00822BF582E43583F583E493FF9002CAE422
:10658B00F0A3EFF0E4FA9002CBE030E7059002B411
:10659B0080039002B6127E1D9002CBE025E0F090B6
:1065AB0002CAE033F00AEAB408DC0BEBB474AE9029
:1065BB0002C9E004F00265199002C7E475F00212FB
:1065CB0036A59002C3E02420F09002C2E03400F024
:0365DB000264CB8C
:0165DE00229A
:106387009001E1EEF0A3EFF0A3ECF0A3EDF0A3EAA8
:04639700F0A3EBF094
:10639B00E49001ECF0A3F0A31238990000000090F8
:1063AB0001F2123899000000009001E3E0FCA3E039
:1063BB00FDA3E0FEA3E0FF9001E1E0FAA3E02FFFD5
:1063CB00EA3ECF24FFFBEF34FFFA9001E7E0FEA398
:1063DB00E0FF9001E3E0F8A3E02FFFE83ECF24FFBE
:1063EB00CF34FF90006DF0A3EFF09001E112769E99
:1063FB009001E7E0FCA3E0FD9001E5E0FEA3E0FFE8
:10640B0012363EEF25E0FFEE33FEE4FCFD9001F289
:10641B0012388D9001EEA3A3E0FEA3E0FDAC0624A1
:10642B0001FFE43CFE9001E9E0FBA3E0FAA3E0F9F5
:10643B008F828E831235FFFF9001ECE4F0A3EFF017
:10644B00E0F8E4F0E89001ECF08D828C831235FFDC
:10645B00FF9001ECE0FEA3E04FFF9001ECEEF0FEAD
:10646B00A3EFF0127E22A3E0FCA3E0FDA3E0FEA3CA
:10647B00E02402FFE43EFEE43DFDE43CFC9001EE33
:10648B0012388D9001F2E0FCA3E0FDA3E0FEA3E047
:10649B00FF9001EEE0F8A3E0F9A3E0FAA3E0FBC361
:0864AB00123853500302641E75
:0164B30022C6
:0B7F5500C2A1D2A3D2A2D2A1C2A322DB
:107EC900C2A1E4FEEFC4131313540124FF92A2EFDD
:0C7ED90025E0FFC2A1D2A10EEEB408E823
:017EE500227A
:107D5500E490002DF0A3F0C2A1FDFC90002EE025DB
:107D6500E0F090002DE033F0D2A1C2A1A2A0E4334F
:107D7500FFE0F0A3E04FF00DBD00010CED640C4CED
:0A7D850070D990002DE0FEA3E0FF8E
:017D8F0022D1
:0758C400EEF0A3EFF07F906E
:0258CB00AB0729
:1058CD00C2A1C2A3E4900013F0AF03127EC99000F1
:1058DD00147406F0900014E014F0E070F7D2A100FB
:1058ED0000C2A10000127D55900013E025E02415A3
:1058FD00F582E43400F583EEF0A3EFF0900013E0B1
:10590D0004F0E0C3940A40C1D2A3E4900013F090D8
:10591D000013E0FFC3940940030259D2EF04A3F032
:10592D00900014E0FFC3940A40030259C9EF25E02B
:10593D002415F582E43400F583E0FEA3E0FF90002A
:10594D0013E0FB25E02415F582E43400F583E0FC3B
:10595D00A3E0C39FEC9E505BEB25E02415F582E49C
:10596D003400F583E0FEA3E0FFE4FCFD9000291276
:10597D00388D900014E0FA25E02415F582E434000A
:10598D00F583E0FEA3E0FFEB25E02415F582E4347A
:10599D0000F583EEF0A3EFF0900029A3A3E0FEA3A2
:1059AD00E0FFEA25E02415F582E43400F583EEF0FE
:1059BD00A3EFF0900014E004F002592D900013E0D5
:1059CD0004F002591C900029123899000000009033
:1059DD0000137402F0900029E0F8A3E0F9A3E0FAB7
:1059ED00A3E0FB900013E025E02415F582E43400DC
:1059FD00F583E0FEA3E0FFE4FCFDEB2FFFEA3EFEA6
:105A0D00ED39FDEC38FC90002912388D900013E033
:105A1D0004F0E0B408BF900029E0FCA3E0FDA3E092
:105A2D00FEA3E0FFE47B06FAF9F8127C59900029F9
:0D5A3D0012388D900029A3A3E0FEA3E0FF26
:015A4A002239
:10683100127F557FD01258CB9000091258C4900096
:106841000FEEF0A3EFF07FD01258CB90000B12584F
:10685100C4AD07AC0690000BE0FEA3E0FF90000979
:10686100E0FAA3E0FBD39FEA9E400AA3A3EB9FFFBC
:10687100EA9EA38017900009E0FEA3E0FFC3900009
:106881000CE09FFF90000BE09E90000DF0A3EFF055
:1068910090000FE0FEA3E0FFD39DEE9C4007EF9D2B
:1068A100FFEE9C800E90000FE0FEA3E0FFC3ED9F82
:1068B100FFEC9EA3F0A3EFF0D390000EE094329092
:1068C100000DE09400500E900012E09432900011FF
:1068D100E0940040037F002290000BE0FEA3E0FF64
:1068E10090000AE02FFF900009E03EC313FEEF1372
:1068F100FF900287EEF0A3EFF0900010E02DFF90E3
:10690100000FE03CC313FEEF13FF900289EEF0A3EA
:10691100EFF0900288E054F0F090028AE054F0F039
:10692100C3900288E09464900287E09400400FD302
:1069310090028AE094D8900289E0940E40037F008F
:03694100227F01B1
:016944002230
:10611A00E4900004F0126831EF700302624F9002BB
:10612A00B3E060030261B5900287E0FEA3E0FFE4FA
:10613A00FCFD90028B12388D90028BE0FCA3E0FDEF
:10614A00A3E0FEA3E02406FFEE34FFFEED34FFFDDC
:10615A00EC34FFFCE47BB4FAF9F8123736E47B74CA
:10616A007A0EF9F81237C190028B12388D90028993
:10617A00E0FEA3E0FFE4FCFD90028F12388D90024E
:10618A008FE0FCA3E0FDA3E0FEA3E024A2FFEE342F
:10619A00FEFEED34FFFDEC34FFFCE47BFAFAF9F87D
:1061AA00123736E47BAC7A0D02623C900289E0FE3B
:1061BA00A3E0FFC3E49FFF74109EFEE4FCFDA3125C
:1061CA00388D90028BE0FCA3E0FDA3E0FEA3E0245F
:1061DA00A2FFEE34FEFEED34FFFDEC34FFFCE47B5F
:1061EA00FAFAF9F8123736E47BAC7A0DF9F8123775
:1061FA00C190028B12388D900287E0FEA3E0FFE483
:10620A00FCFD90028F12388D90028FE0FCA3E0FD16
:10621A00A3E0FEA3E02406FFEE34FFFEED34FFFD0B
:10622A00EC34FFFCE47BB4FAF9F8123736E47B74F9
:10623A007A0EF9F81237C190028F12388D90000445
:0F624A007401F08001E4900293F0900004E0FFF3
:016259002222
:06794D009002EF12388DDC
:107953009002EFE0FCA3E0FDA3E0FEA3E0FF7813B9
:1079630012387AA3EEF0A3EFF09002EFE0FCA3E06D
:10797300FDA3E0FEA3E0FF780A12387AEF543FFE3E
:10798300E49002F5F0A3CEF09002EFE0FCA3E0FD5B
:10799300A3E0FEA3E0FF780312387AEF541FFFE45D
:1079A300AD07FC9002F5E0FEA3E07805C333CE33C8
:1079B300CED8F9FBAA069002F4E033333354F84AE5
:0979C300FEEBFFEE4CFEEF4DFF60
:0179CC002298
:047CDD00AD07AC063D
:107CE1007BE77A187E00ED54037803C333CE33CE9D
:107CF100D8F9FFEA4EFAEB4FFB7E00ED541C7806F3
:107D0100C333CE33CED8F9FFEA4EFAEB4FFBED5435
:077D1100E04AFAEBAE02FFAD
:017D18002248
:087BC800900311EFF0A3EDF0B2
:107BD000A312389900000001900312E0FF14F0EFA7
:107BE0006020A3E0F8A3E0F9A3E0FAA3E0FB900390
:107BF00011E0FFE4FCFDFE12373690031312388DBE
:107C000080D6900313E0FCA3E0FDA3E0FEA3E0FF19
:017C10002251
:107ABB009002F712388D9002FBE0FCA3E0FDA3E0EF
:107ACB00FEA3E0FF9002F7E0F8A3E0F9A3E0FAA32E
:107ADB00E0FBD3123869401D9002FBE0F8A3E0F9FC
:107AEB00A3E0FAA3E0FB9002F7E0FCA3E0FDA3E028
:107AFB00FEA3E0801A9002F7E0F8A3E0F9A3E0FA06
:107B0B00A3E0FBA3E0FCA3E0FDA3E0FEA3E0C39B8B
:0B7B1B00FFEE9AFEED99FDEC98FC22B5
:087D1900900317EEF0A3EFF058
:107D21009002B4E0FFA3E0900319CFF0A3EFF0AF0E
:107D3100039002B4EAF0A3EFF0900317E0FEA3E092
:107D4100FF127CB3900319E0FFA3E09002B4CFF0DF
:037D5100A3EFF0AD
:017D5400220C
:106B490090022EEEF0A3EFF0A3ECF0A3EDF0A3EA90
:046B5900F0A3EBF0CA
:106B5D00E4900239F0A3F0900232E0FEA3E0FFC30F
:106B6D0090023AE09F900239E09E4003026C3FE4B0
:106B7D0090023BF0A3F0900234E0FEA3E0FFC3903F
:106B8D00023CE09F90023BE09E4003026C2B900282
:106B9D0039E0FEA3E0FF90022FE02FFF90022EE0E0
:106BAD003EFE90023BE0FCA3E0FD900231E02DFDA6
:106BBD00900230E03CFC12725C90023DEEF0A3EFCF
:106BCD00F0900236E0FCA3E0FDA3E0FB126D3490E3
:106BDD00023DEEF0A3EFF0900239E0FEA3E0FF904E
:106BED00022FE02FFF90022EE03EFE90023BE0FCD4
:106BFD00A3E0FD900231E02DFD900230E03CFC90D1
:106C0D00023DE0FAA3E0FB127C1790023CE004F099
:106C1D006003026B8390023BE004F0026B839002F1
:106C2D003AE004F06003026B64900239E004F00274
:026C3D006B6486
:016C3F002232
:106C4000900055ECF0A3EDF0A3EAF0A3EBF0900078
:066C500053EEF0A3EFF08B
:106C5600C39401EE94004013E024FFFE900053E03D
:106C660034FF90005DF0A3CEF0800F900053E0FF5C
:106C7600A3E090005DCFF0A3EFF0900055E0FEA3F7
:106C8600E0FFC39401EE9400400CEF24FFFFEE34C6
:106C9600FF90005F800B900055E0FFA3E090005F3F
:106CA600CFF0A3EFF090005FE0FFA3E0900059CF94
:106CB600F0A3EFF0900056E02402FF900055E03478
:106CC60000FEC390005AE09F900059E09E505E90EF
:106CD600005DE0FFA3E090005BCFF0A3EFF0900033
:106CE60054E02402FD900053E03400FC90005BE089
:106CF600FEA3E0FFC39DEE9C5023900059E0FCA349
:106D0600E0FD900057E0FAA3E0FB127C1790005CD0
:106D1600E004F070C990005BE004F080C190005A76
:0D6D2600E004F0708F900059E004F08087C9
:016D3300223D
:0E4B9A00900145EEF0A3EFF0A3ECF0A3EDF0D8
:104BA800E4900151F0A3F0A3F0A3F0900145E0FEDA
:104BB800A3E0FFC3EB9FFFEA9E900155F0A3EFF03F
:104BC800900147E0FAA3E0FBC390014CE09BFE9004
:104BD800014BE09A900157F0A3CEF0900145E0FF19
:104BE800A3E090015FCFF0A3EFF0A3EAF0A3EBF00E
:104BF800900155E0FEA3E0FFD39400EE648094801A
:104C0800400A90015BE4F0A304F08021EF4E7008A5
:104C180090015BF0A3F0801574FF90015BF0A3F0A6
:104C2800C3E49FFFE49E900155F0A3EFF090015775
:104C3800E0FEA3E0FFD39400EE64809480400A90E5
:104C4800015DE4F0A304F08021EF4E700890015D4F
:104C5800F0A3F0801574FF90015DF0A3F0C3E49F0A
:104C6800FFE49E900157F0A3EFF0900157E0FEA3F8
:104C7800E0FF900155E0FCA3E0FDD39FEE6480F8CF
:104C8800EC6480989001594007ECF0A3EDF08005A2
:104C9800EEF0A3EFF0E490014FF0A3F090015AE09A
:104CA8002401FF900159E03400FED3900150E09FA9
:104CB80090014FE09E4003024D8C90015FE0FEA3FF
:104CC800E0FFA3E0FCA3E0FD90014DE0FAA3E0FBC8
:104CD800127C17900155E0FEA3E0FF900152E02FEF
:104CE800F0900151E03EF0900157E0FEA3E0FF9004
:104CF8000154E02FF0900153E03EF0900159E0FE9E
:104D0800A3E0FF900151E0FCA3E0FDD39FEE648097
:104D1800F8EC6480984020ED9FFFEC9E900151F0E4
:104D2800A3EFF090015BE0FEA3E0FF900160E02FAD
:104D3800F090015FE03EF0900159E0FEA3E0FF90A3
:104D48000153E0FCA3E0FDD39FEE6480F8EC64809F
:104D5800984020ED9FFFEC9E900153F0A3EFF09058
:104D6800015DE0FEA3E0FF900162E02FF090016199
:104D7800E03EF0900150E004F0700690014FE0042E
:044D8800F0024CA445
:014D8C002204
:103BAE009000E9EEF0A3EFF0A3ECF0A3EDF0A3EAA2
:043BBE00F0A3EBF095
:103BC200E49000F6F0A3F0A3F0A3F09000F1E0FF80
:103BD2007E00C39000EAE09F9000E9E09E5003025D
:103BE2003E199000EEE09F9000EDE09E5003023EF1
:103BF200199000EBE0FCA3E0FD9FEC9E5003023E17
:103C0200199000F0E09F9000EFE09E5003023E19F1
:103C12009000F1E070139000E9E0FEA3E0FF900055
:103C2200F2E0FAA3E0FB027C179000E9E0FAA3E0DD
:103C3200FBC39000EEE09BFE9000EDE09A9000FA4C
:103C4200F0A3CEF09000EBE0FEA3E0FFC39000F003
:103C5200E09FFF9000EFE09E9000FCF0A3EFF09059
:103C62000104EAF0A3EBF09000EBA3E0FF90010661
:103C7200EEF0A3EFF09000FAE0FEA3E0FFD3940091
:103C8200EE64809480400A900100E4F0A304F08086
:103C920021EF4E7008900100F0A3F0801574FF90A0
:103CA2000100F0A3F0C3E49FFFE49E9000FAF0A3AA
:103CB200EFF09000FCE0FEA3E0FFD39400EE6480FE
:103CC2009480400A900102E4F0A304F08021EF4EB8
:103CD2007008900102F0A3F0801574FF900102F0C9
:103CE200A3F0C3E49FFFE49E9000FCF0A3EFF090EA
:103CF20000FCE0FEA3E0FF9000FAE0FCA3E0FDD3AD
:103D02009FEE6480F8EC6480989000FE4007ECF02F
:103D1200A3EDF08005EEF0A3EFF0E49000F4F0A341
:103D2200F09000FFE02401FF9000FEE03400FED39B
:103D32009000F5E09F9000F4E09E4003023E19904F
:103D42000106E0FCA3E0FD9000F1E0FB7A00A3E0B5
:103D5200FFA3E090000ACFF0A3EFF0900104E0FE91
:103D6200A3E0FF122EE19000FAE0FEA3E0FF900034
:103D7200F7E02FF09000F6E03EF09000FCE0FEA3AA
:103D8200E0FF9000F9E02FF09000F8E03EF09000A4
:103D9200FEE0FEA3E0FF9000F6E0FCA3E0FDD39F6F
:103DA200EE6480F8EC6480984020ED9FFFEC9E90DA
:103DB20000F6F0A3EFF0900100E0FEA3E0FF900117
:103DC20005E02FF0900104E03EF09000FEE0FEA33B
:103DD200E0FF9000F8E0FCA3E0FDD39FEE6480F8E2
:103DE200EC6480984020ED9FFFEC9E9000F8F0A3D9
:103DF200EFF0900102E0FEA3E0FF900107E02FF058
:103E0200900106E03EF09000F5E004F070069000AC
:073E1200F4E004F0023D237F
:013E19002286
:0E2B1700900108EEF0A3EFF0A3ECF0A3EDF0B8
:102B2500E4900115F0A3F0A3F0A3F0900108E0FEF6
:102B3500A3E0FFC3EB9FFFEA9E900119F0A3EFF01E
:102B450090010AE0FAA3E0FBC390010FE09BFE9021
:102B5500010EE09A90011BF0A3CEF0900108E0FF72
:102B6500A3E0900123CFF0A3EFF0A3EAF0A3EBF0ED
:102B7500900119E0FEA3E0FFD39400EE64809480F9
:102B8500400A90011FE4F0A304F08021EF4E700885
:102B950090011FF0A3F0801574FF90011FF0A3F0C2
:102BA500C3E49FFFE49E900119F0A3EFF090011B91
:102BB500E0FEA3E0FFD39400EE64809480400A9089
:102BC5000121E4F0A304F08021EF4E70089001216B
:102BD500F0A3F0801574FF900121F0A3F0C3E49FEA
:102BE500FFE49E90011BF0A3EFF090011BE0FEA314
:102BF500E0FF900119E0FCA3E0FDD39FEE6480F8AF
:102C0500EC64809890011D4007ECF0A3EDF0800581
:102C1500EEF0A3EFF0E4900113F0A3F090011EE0B5
:102C25002401FF90011DE03400FED3900114E09FC4
:102C3500900113E09E4003022EE0900110E0701910
:102C4500900123E0FEA3E0FFA3E0FCA3E0FD9001DB
:102C550011E0FAA3E0FB127C17900110E06401601B
:102C650003022CEB900123E0FEA3E0FFA3E0FCA30D
:102C7500E0FD900111E0FAA3E0FB127C179001241E
:102C8500E02401FF900123E03400FE900125E0FCE3
:102C9500A3E0FD900111E0FAA3E0FB127C1790017F
:102CA50023E0FEA3E0FF900126E02401FD9001252D
:102CB500E03400FC900111E0FAA3E0FB127C1790D0
:102CC5000124E02401FF900123E03400FE90012659
:102CD500E02401FD900125E03400FC900111E0FAAB
:102CE500A3E0FB127C17900110E064026003022E42
:102CF5002F900123E0FEA3E0FFA3E0FCA3E0FD90FD
:102D05000111E0FAA3E0FB127C17900124E02401F5
:102D1500FF900123E03400FE900125E0FCA3E0FDD7
:102D2500900111E0FAA3E0FB127C17900123E0FE6D
:102D3500A3E0FF900126E02401FD900125E0340089
:102D4500FC900111E0FAA3E0FB127C17900124E04E
:102D55002401FF900123E03400FE900126E02401C8
:102D6500FD900125E03400FC900111E0FAA3E0FBA1
:102D7500127C17900124E024FFFF900123E034FF2B
:102D8500FE900126E02401FD900125E03400FC9031
:102D95000111E0FAA3E0FB127C17900124E0240165
:102DA500FF900123E03400FE900126E024FFFD9012
:102DB5000125E034FFFC900111E0FAA3E0FB127C51
:102DC50017900124E024FFFF900123E034FFFE90DB
:102DD5000126E024FFFD900125E034FFFC90011160
:102DE500E0FAA3E0FB127C17900124E024FFFF909A
:102DF5000123E034FFFE900125E0FCA3E0FD9001F6
:102E050011E0FAA3E0FB127C17900123E0FEA3E09A
:102E1500FF900126E024FFFD900125E034FFFC90A2
:102E25000111E0FAA3E0FB127C17900119E0FEA363
:102E3500E0FF900116E02FF0900115E03EF09001C3
:102E45001BE0FEA3E0FF900118E02FF0900117E0D2
:102E55003EF090011DE0FEA3E0FF900115E0FCA30C
:102E6500E0FDD39FEE6480F8EC6480984020ED9FF0
:102E7500FFEC9E900115F0A3EFF090011FE0FEA37B
:102E8500E0FF900124E02FF0900123E03EF0900157
:102E95001DE0FEA3E0FF900117E0FCA3E0FDD39F3A
:102EA500EE6480F8EC6480984020ED9FFFEC9E90E6
:102EB5000117F0A3EFF0900121E0FEA3E0FF9001E0
:102EC50026E02FF0900125E03EF0900114E004F09B
:0B2ED5007006900113E004F0022C21B5
:012EE00022CF
:10760800FAE0FFA3E090002BCFF0A3EFF090001575
:05761800E0FEA3E0FF0D
:10761D00900025EEF0A3EFF0A3ECF0A3EDF0A3EABC
:10762D00F0A3EBF04A60699002ADE0FCA3E0FD90A1
:10763D000025E0FAA3E0FBD39DEA9C50539002AFE6
:10764D00E0FEA3E0FF900027E0FCA3E0FD9FEC9E91
:10765D00503EAF03AE02C006C007900029E0FEA366
:10766D00E0FF900027E0F8A3E02FFFE83ECF24FFD6
:10767D00CF34FF900035F0A3EFF090002BE0FFA387
:10768D00E0900037CFF0A3EFF0D007D00612718C49
:01769D0022CA
:1079CD00900025EEF0A3EFF0A3ECF0A3EDF0EB4A61
:1079DD0060689002ADE0FEA3E0FFD3900026E09F2B
:1079ED00900025E09E50539002AFE0FEA3E0FF9083
:1079FD000027E0FCA3E0FD9FEC9E503EAE02AF03DE
:107A0D00900025E0FAA3E02FFFEA3ECF24FFFBEF25
:107A1D0034FFFAA3E0FFA3E0900035CFF0A3EFF021
:107A2D0090002BE0FFA3E0900037CFF0A3EFF09094
:0B7A3D000025E0FEA3E0FF12718C2288
:105FD30090026CEEF0A3EFF0A3ECF0A3EDF0A3EAD4
:045FE300F0A3EBF04C
:105FE700A3E07002A3E07003026119900270E070F1
:105FF70002A3E07003026119900277E020E0030238
:106007006096E4A3F0A3F0900270E0FEA3E0FF9097
:106017000278E0FCA3E0FDC39FEC9E4003026119F8
:1060270090026DE02DFF90026CE03CFEC006C007B9
:1060370090026EE0FCA3E0FD900273E024FFFB906A
:106047000272E034FFFAC002C003900279E025E053
:10605700FF900278E033FE900274E0FBA3E0FAA31E
:10606700E0F98F828E831236D1FF90002BE5F0F096
:10607700A3EFF0D003D002D007D00612761D90020E
:1060870079E004F07081900278E004F002600EE499
:10609700900278F0A3F0900272E0FEA3E0FF900276
:1060A70078E0FCA3E0FDC39FEC9E506690026FE092
:1060B7002DFD90026EE03CFC900271E024FFFB9006
:1060C7000270E034FFFAC002C003900279E025E0D5
:1060D700FF900278E033FE900274E0FBA3E0FAA39E
:1060E700E0F98F828E831236D1FF90002BE5F0F016
:1060F700A3EFF090026CE0FEA3E0FFD003D0021202
:1061070079CD900279E004F0708C900278E004F089
:02611700808482
:016119002263
:0651690090016312388D75
:10516F00E490017FF0A3F0900163E0FCA3E0FDA3C6
:10517F00E0FEA3E0FF781012387A900170EFF0FB99
:10518F00900163E0FCA3E0FDA3E0FEA3E0FF78083D
:10519F0012387A900171EFF0FA900163A3A3A3E0A4
:1051AF00FFA907900172E9F0900167E0FCA3E0FD11
:1051BF00A3E0FEA3E0FF781012387AEBFDC3EF9D5A
:1051CF00FFEE9400900173F0A3EFF0900167E0FC05
:1051DF00A3E0FDA3E0FEA3E0FF780812387AEAFD12
:1051EF00C3EF9DFEE49400900175F0A3CEF0900103
:1051FF0067A3A3A3E0FFE9FDC3EF9DFEE494009036
:10520F000177F0A3CEF0E490017FF0A3F090016E50
:10521F00E0FEA3E0FFC3900180E09F90017FE09E3E
:10522F004003025351E0FAA3E0FB900173E0FEA3A9
:10523F00E0FFAD03AC0212363E90016EE0FCA3E03E
:10524F00FD123650A3E07C002FFFEC3E900179F069
:10525F00A3EFF0900175E0FEA3E0FFAD03AC0212E7
:10526F00363E90016EE0FCA3E0FD123650900171C6
:10527F00E07C002FFFEC3E90017BF0A3EFF090015C
:10528F0077E0FEA3E0FFAD03AC0212363E90016E55
:10529F00E0FCA3E0FD123650900172E07C002FFF7E
:1052AF00EC3E90017DF0A3EFF0900179E0FEA3E0DA
:1052BF007803CEC313CE13D8F9F0EE900179F090A6
:1052CF00017BE0FEA3E07802CEC313CE13D8F9F032
:1052DF00EE90017BF090017DE0FEA3E07803CEC35A
:1052EF0013CE13D8F9F0EE90017DF090017BE0FE24
:1052FF00A3E07805C333CE33CED8F9FDAC069001C9
:10530F007AE033333354F84CFEEDFF90017DE04EDD
:10531F00FCA3E04FFDEB25E0FFEA33FE90016BE0CD
:10532F00FBA3E0FAA3E0F98F828E83EC8DF01237A6
:10533F0009900180E004F0700690017FE004F00214
:02534F00521CEE
:015351002239
:1069450090019DEEF0A3EFF0A3ECF0A3EDF0A3EA28
:04695500F0A3EBF0D0
:106959009001A9E0FCA3E0FDA3E0FEA3E0FF900104
:106969006712388D9001B1E0F9A3E0FAA3E0900134
:106979006BC9F0A3EAF0A3E9F09001A1E0FFA3E05D
:1069890090016ECFF0A3EFF09001A5E0FCA3E0FD2C
:10699900A3E0FEA3E0FF125169E49001ADF0A3F07A
:1069A9009001A1E0FEA3E0FFC39001AEE09F90013A
:1069B900ADE09E4003026A50E49001AFF0A3F0906D
:1069C90001A3E0FEA3E0FFC39001B0E09F9001AFF7
:1069D900E09E505F9001ADE0FAA3E0FB90019EE0DC
:1069E9002BFF90019DE03AFEC006C0079001AFE081
:1069F900FEA3E0FF9001A0E02FFD90019FE03EFC87
:106A0900EB25E0FFEA33FE9001B1E0FBA3E0FAA336
:106A1900E0F98F828E831236D1FBAAF0D007D00617
:106A2900127C179001B0E004F070949001AFE0047B
:106A3900F0808C9001AEE004F060030269A9900136
:076A4900ADE004F00269A9B1
:016A50002223
:10732B009002CCEEF0A3EFF0A3ECF0A3EDF0A3EA08
:10733B00F0A3EBF0C0079002D4E0FFA3E090002B8A
:10734B00CFF0A3EFF0D0071279CD9002D2E0FEA3DD
:10735B00E0FF9002CFE02FFF9002CEE03ECF24FF64
:10736B00FDEF34FFFC9002D0E0FAA3E0FB9002D4D7
:10737B00E0FFA3E090002BCFF0A3EFF09002CCE066
:10738B00FEA3E0FF1279CD9002CEE0FCA3E0FD90CE
:10739B0002D2E0FAA3E0FBA3E0FFA3E090002BCF27
:1073AB00F0A3EFF09002CC1276189002D0E0FEA37F
:1073BB00E0FF9002CDE02FFF9002CCE03ECF24FF08
:1073CB00CF34FFFEC0079002CEE0FCA3E0FD90029D
:1073DB00D2E0FAA3E0FBA3E0FFA3E090002BCFF0F9
:0873EB00A3EFF0D00702761DAC
:101C1900900015EEF0A3EFF0A3ECF0A3EDF0A3EA2A
:041C2900F0A3EBF049
:101C2D00E4900023F0A3F090001BE0FEA3E030E071
:101C3D000A2401FFE43E900023800B90001BE0FF7F
:101C4D00A3E0900023CFF0A3EFF090001EE09000F2
:101C5D001D7003021E78E0F975F002A4FFC3900019
:101C6D001AE09FFB900019E095F0FAE9FF9000163D
:101C7D00E02FFF900015E03400FEC007900017E044
:101C8D00FCA3E0FD900023E0C313FFA3E01390003D
:101C9D002BCFF0A3EFF090001FE0FFA3E090002DFD
:101CAD00CFF0A3EFF0D0071277CF90001DE0F975BC
:101CBD00F002A4FFC390001AE09FFB900019E0957D
:101CCD00F0FAE9FF900016E02FFF900015E03400C8
:101CDD00FEC006C007900023E0C313FEA3E013FF70
:101CED00900018E02FFD900017E03EFC900023E0DF
:101CFD00C313FFA3E01390002BCFF0A3EFF09000E0
:101D0D0021E0FFA3E090002DCFF0A3EFF0D007D09E
:101D1D00061277CF90001DE0F9FB7A00900018E0D5
:101D2D002BFD900017E03AFC900023E0C313FEA3B7
:101D3D00E013FFE9F582C3EF9582FFEE940090006A
:101D4D002BF0A3EFF090001F1277BB900023E0C3A0
:101D5D0013FEA3E013FF900018E02FFD900017E095
:101D6D003EFC90001DE0F9FB7A00900023E0C313C8
:101D7D00FEA3E013FFE9F582C3EF9582FFEE940019
:101D8D0090002BF0A3EFF09000211277BB9000197B
:101D9D00E0FEA3E0FF900016E02FFF900015E03E5F
:101DAD00FE90001DE0F9FD7C00C3EF9DFFEE9CFE53
:101DBD00C006C007900018E02DFD900017E03CFC18
:101DCD00E9FB7A00900023E0C313FEA3E013FFE9C3
:101DDD00F582C3EF9582FFEE940090002BF0A3EFF8
:101DED00F090001FE0FFA3E090002DCFF0A3EFF0E7
:101DFD00D007D0061277CF900019E0FEA3E0FF9038
:101E0D000016E02FFF900015E03EFE90001DE0F95A
:101E1D00FB7A00C3EF9BFFEE9AFEC006C007900051
:101E2D0023E0C313FEA3E013FF900018E02FFD90F5
:101E3D000017E03EFC900023E0C313FEA3E013FF68
:101E4D00E9F582C3EF9582FFEE940090002BF0A38D
:101E5D00EFF0900021E0FFA3E090002DCFF0A3EF75
:101E6D00F0D007D0061277CF02202BE0F975F002E3
:101E7D00A4FFC390001AE09FFB900019E095F0FAC3
:101E8D00C003E9FF900016E02FFF900015E034002D
:101E9D00FE900017E0FCA3E0FD90001FE0FBA3E027
:101EAD0090002BCBF0A3EBF0D0031279CD90001D59
:101EBD00E0F975F002A4FFC390001AE09FFB9000BB
:101ECD0019E095F0FAC002C003E9FF900016E02F6B
:101EDD00FF900015E03400FE900023E0FCA3E0FD30
:101EED00900017E0FAA3E02DFDEA3CCD24FFCD34A0
:101EFD00FFFC900021E0FBA3E090002BCBF0A3EBC7
:101F0D00F0D003D0021279CD90001DE0FB7A009045
:101F1D000018E02BFD900017E03AFC900023E0C381
:101F2D0013FEA3E013C39BFBEE9A90001F127608DD
:101F3D00900023E0FAA3E0FBEAC313FEEB13FF903E
:101F4D000018E02FFD900017E03EFCEAC313FEEBF6
:101F5D0013FF90001DE0FBC3EF9BFBEE9400900080
:101F6D0021127608900019E0FEA3E0FF900016E024
:101F7D002FFF900015E03ECF24FFCF34FFFEC006AB
:101F8D00C00790001DE0FB7A00900018E02BFD903B
:101F9D000017E03AFC900023E0C313FEA3E013C347
:101FAD009BFBEE9AFA90001FE0FFA3E090002BCF71
:101FBD00F0A3EFF0D007D00612761D900019E0FEC9
:101FCD00A3E0FF900016E02FFF900015E03ECF2418
:101FDD00FFCF34FFFEC006C007900023E0FAA3E058
:101FED00FBEAC313FEEB13FF900018E02FFD9000EA
:101FFD0017E03EFCEAC313FEEB13FF90001DE0FB60
:10200D00C3EF9BFBEE9400FA900021E0FFA3E0905C
:10201D00002BCFF0A3EFF0D007D00612761D900065
:10202D0017E0FCA3E0FD90001DE0F9FF7E0090009D
:10203D0015E0FAA3E02FFBEE3AFAA3E0F8A3E02FA8
:10204D00FFEE3890002BF0A3EFF0E9FF900015E0C4
:10205D00F8A3E02FFFEE3890002DF0A3EFF0E9FF8D
:10206D00900017E0F8A3E02FFFEE3890002FF0A3BB
:10207D00EFF0E9FFA3EEF0A3EFF090001F12552A49
:10208D00900023E0FEA3E0FF900018E02FFF9000EA
:10209D0017E03EFE90001DE0F9FB7A00C3EF9BFDBB
:1020AD00EE9AFC900015E0FEA3E02BFBEA3EFA90C1
:1020BD000023E0FEA3E0FF900017E0F8A3E02FFF60
:1020CD00E83ECF24FFCF34FF90002BF0A3EFF0E9D3
:1020DD00FF7E00900015E0F8A3E02FFFEE38900092
:1020ED002DF0A3EFF0900023E0FEA3E0FF9000178A
:1020FD00E0F8A3E02FFFE83EFEE9F582C3EF9582FD
:10210D00FFEE9400CF24FFCF34FF90002FF0A3EF0C
:10211D00F0E9FFA3E4F0A3EFF090002112552A900F
:10212D000019E0FEA3E0FF900016E02FFB900015D4
:10213D00E03EFA90001DE0F9FFC3EB9FFFEA94002B
:10214D00FEC006C007900017E0FCA3E0FDE9FF7E8E
:10215D0000900017E0F8A3E02FFFEE3890002BF071
:10216D00A3EFF0900019E0FEA3E0FF900015E0F85A
:10217D00A3E02FFFE83EFEE9F582C3EF9582FFEE67
:10218D009400CF24FFCF34FF90002DF0A3EFF0E9A2
:10219D00FF7E00900017E0F8A3E02FFFEE389000CF
:1021AD002FF0A3EFF0E9FFA3EEF0A3EFF090001FE7
:1021BD00E0FFA3E0900033CFF0A3EFF090001EE01E
:1021CD00900035F0D007D006125546900019E0FE6C
:1021DD00A3E0FF900016E02FFF900015E03EFE906B
:1021ED00001DE0F9FDC3EF9DFFEE9400FEC006C09B
:1021FD0007900023E0FEA3E0FF900018E02FFF9072
:10220D000017E03EFEC3EF9DFDEE9400FC9000191B
:10221D00E0FEA3E0FF900015E0FAA3E02FFBEA3EFD
:10222D00FA900023E0FEA3E0FF900017E0F8A3E092
:10223D002FFFE83ECF24FFCF34FF90002BF0A3EF0C
:10224D00F0900019E0FEA3E0FF900015E0F8A3E088
:10225D002FFFE83EFEE9F582C3EF9582FFEE940075
:10226D00CF24FFCF34FF90002DF0A3EFF09000238B
:10227D00E0FEA3E0FF900017E0F8A3E02FFFE83E9B
:10228D00FEE9F582C3EF9582FFEE9400CF24FFCFD8
:10229D0034FF90002FF0A3EFF0E9FFA3E4F0A3EFDC
:1022AD00F0900021E0FFA3E0900033CFF0A3EFF01A
:0F22BD0090001EE0900035F0D007D00602554685
:1077BB00E0FFA3E090002DCFF0A3EFF0900015E0D9
:0477CB00FEA3E0FF3A
:1077CF00900025EEF0A3EFF0A3ECF0A3EDF0EB4A61
:1077DF00606390002BE07002A3E06059900027E0F7
:1077EF00FCA3E0FDAE02AF03900025E0FAA3E02F6B
:1077FF00FFEA3ECF24FFFBEF34FFFA90002BE0FEB1
:10780F00A3E0FF900027E0F8A3E02FFFE83ECF248E
:10781F00FFCF34FF900035F0A3EFF090002DE0FF85
:10782F00A3E0900037CFF0A3EFF0900025E0FEA388
:06783F00E0FF12718C2233
:102EE100900004EEF0A3EFF0A3ECF0A3EDF0A3EA61
:042EF100F0A3EBF06F
:102EF500900008E0FEA3E0FF7C027DC31238CAE41F
:102F05007BE87A03F9F81237C1EF2401FFE43EFEAE
:102F1500E43DFDE43CFC90001012388D900008E083
:102F2500FEA3E0FF900008E0FCA3E0FD1238CAC054
:102F350004C005C006C007900008E0FEA3E0FFE45A
:102F4500FCFD7B02FAF9F81237C1D003D002D0019B
:102F5500D000EB2FFFEA3EFEE93DFDE83CFC90008A
:102F65001412388D900008E0FAA3E0FBFFAE02E4EE
:102F7500FCFD90001812388DC3900005E09BFF9072
:102F85000004E09AFEC007900006E0FCA3E0FD9077
:102F95000009E025E0FB900008E033FA90000AE024
:102FA500FFA3E090002BCFF0A3EFF0D0071279CD6F
:102FB50090000C12389900000001900010E0FCA36D
:102FC500E0FDA3E0FEA3E0FF90000CE0F8A3E0F92C
:102FD500A3E0FAA3E0FBD3123869400302328090E4
:102FE5000018E0FCA3E0FDA3E0FEA3E0FFA804A910
:102FF50005AA06FB123736C004C005C006C00790F7
:10300500000CE0FCA3E0FDA3E0FEA3E0FFA804A9FB
:1030150005AA06FB123736D003D002D001D000EF47
:103025002BFFEE3AFEED39FDEC38FC900014E0F88C
:10303500A3E0F9A3E0FAA3E0FBC312386940030259
:103045003189900010E0FCA3E0FDA3E0FEA3E0FFC2
:10305500900018E0F8A3E0F9A3E0FAA3E0FB12382A
:1030650069500302316790000CA3A3E0FEA3E0FFC3
:10307500900005E09FFF900004E09ECF2401CF342F
:1030850000FEC006C007900018A3A3E0FEA3E0FF62
:10309500900007E02FFD900006E03EFCC004C0054F
:1030A50090000CE0FCA3E0FDA3E0FEA3E024FFFFFD
