:0B8020004772617068205465737400A3
:107ED7004C0279003C00320028001E0014000A42C0
:097EE7000275002342027700A598
:10354E00900006EAF0A3EBF0900002EEF0A3EFF08D
:06355E00A3ECF0A3EDF068
:10356400E490000EF0900008E0FAA3E0FB90001F46
:1035740074A5F0A37435F01275AE900002E0FEA3BA
:10358400E0FFA3E0FCA3E0FDA3E0FAA3E0FB9000CE
:103594001F74A5F0A37435F0127A6D900003E02433
:1035A40001FF900002E03400FE900005E02401FDDC
:1035B400900004E03400FC900009E024FEFB90003D
:1035C40008E034FFFA90001F7484F0A37431F01201
:1035D40075AE900003E02401FF900002E03400FE89
:1035E400900005E02401FD900004E03400FC90000C
:1035F40007E024FEFB900006E034FFFA90001F74FD
:1036040084F0A37431F0127A6D900006E0FEA3E01A
:10361400FF900003E02FFF900002E03ECF24FFCF95
:1036240034FFFE900004E0FCA3E0FD900008E0FA03
:10363400A3E0FB74FF90001FF0A3F01275AE90009E
:1036440002E0FEA3E0FF900008E0FCA3E0FD900090
:1036540005E02DFD900004E03CCD24FFCD34FFFCBB
:10366400900006E0FAA3E0FB74FF90001FF0A3F0C3
:10367400127A6D900006E0FEA3E0FF900003E02FB5
:10368400FF900002E03ECF24FECF34FFFE90000501
:10369400E02401FD900004E03400FC900009E024E3
:1036A400FEFB900008E034FFFA90001F74DEF0A3E4
:1036B40074FCF01275AE900003E02401FF90000248
:1036C400E03400FE900008E0FCA3E0FD900005E07B
:1036D4002DFD900004E03CCD24FECD34FFFC900091
:1036E40007E024FEFB900006E034FFFA90001F740C
:1036F400DEF0A374FCF0127A6D900003E02402FF64
:10370400900002E03400FEC006C007900005E024EB
:1037140002FD900004E03400FC900007E024FDFB6F
:10372400900006E034FFFA900008E0FEA3E024FDD8
:10373400FFEE34FF90001FF0A3EFF090000CE0FFC9
:10374400A3E0900021CFF0A3EFF0D007D0061277CA
:1037540060900003E0241EFF900002E03400FEC0ED
:1037640006C007900005E02405FD900004E0340045
:10377400FC900007E024DDFB900006E034FFFA90A3
:103784000008E0FEA3E024F6FFEE34FF90001FF0F3
:10379400A3EFF090000AE0FFA3E0900021CFF0A394
:1037A400EFF0D007D006127760E490000EF090009E
:1037B4000EE0FFC39406504BEF75F014A4FF900085
:1037C40003E0241EFD900002E03400CD2FFFED3510
:1037D400F0FE900005E02405FD900004E03400FCB8
:1037E400900009E024F6FB900008E034FFFA900012
:1037F4001F7484F0A37430F01275AE90000EE004D0
:10380400F080ABE490000EF090000EE0FFC394064D
:10381400504AEF75F014A4FF900005E02405FD90D4
:103824000004E03400CD2FCD35F0FC900003E024FB
:103834001EFF900002E03400FE900007E024DDFB50
:10384400900006E034FFFA90001F7484F0A37430F3
:0C385400F0127A6D90000EE004F080ACE1
:013860002245
:1066130090000CEEF0A3EFF0A3ECF0A3EDF0A3EAEF
:04662300F0A3EBF005
:10662700E4900018F0EF241EFFE43EFEC006C0070A
:10663700ED2405FDE43CFCEB24DDFBEA34FFFA9096
:106647000012E0FEA3E024F6FFEE34FF90001FF0F7
:10665700A3EFF0900014E0FFA3E0900021CFF0A398
:10666700EFF0D007D006127760E4900018F09000A2
:1066770018E0FFC39406504BEF75F014A4FF900089
:106687000DE0241EFD90000CE03400CD2FFFED350A
:10669700F0FE90000FE02405FD90000EE03400FCB2
:1066A700900013E024F6FB900012E034FFFA90000C
:1066B7001F7484F0A37430F01275AE900018E004D4
:1066C700F080ABE4900018F0900018E0FFC3940648
:1066D700504AEF75F014A4FF90000FE02405FD90D9
:1066E700000EE03400CD2FCD35F0FC90000DE024F6
:1066F7001EFF90000CE03400FE900011E024DDFB4B
:10670700900010E034FFFA90001F7484F0A37430F7
:0C671700F0127A6D900018E004F080ACE5
:016723002253
:0B785E00900002EBF0A3EAF0A3E9F0B9
:10786900E4A3F0F0900002E0FBA3E0FAA3E0F9A39F
:10787900E0FD75F002A4F58285F083122BDDFFAEE1
:10788900F074062DF9E43400FA7B011272BD900000
:1078990005E0F975F014A4242DFDE435F0FC900001
:1078A90013E4F0A3740AF0A3E4F0A3741FF0A37423
:1078B9000CF0740629F9E43400FAA37401F0A3EA80
:1078C900F0A3E9F07B237A007F057E00125DAF907B
:0B78D9000005E004F0E0C394064089C5
:0178E4002281
:106C0000900002EEF0A3EFF0A3ECF0A3EDF0A3EA06
:046C1000F0A3EBF012
:106C1400900277E0FCA3E0FD90000AE0FAA3E0FB19
:106C2400900002E0F8A3E02BFBE83AFA900006E0BB
:106C3400FEA3E0FF900004E0F8A3E0C39FFFE89EFA
:106C4400900012F0A3EFF0A37401F0900008E0FFAD
:106C5400A3E0900015CFF0A3EFF0900275E0FEA33F
:106C6400E0FF1226D090000AE0FAA3E0FB900003B4
:106C7400E02BFE900002E03A900275F0A3CEF09073
:106C84000006E0FEA3E0FFC3900005E09FFF900034
:106C940004E09E900277F0A3EFF0D3EB947DEA94A6
:106CA40000500E900007E09478900006E0940040B5
:106CB40035900275E4F0A37423F0A3E4F0A374A563
:106CC400F0900012E4F0A37482F0E4A3F0A3F0A324
:106CD4007484F0A37430F07BA07A007D287C007F5C
:066CE400057E001266139C
:016CEA002287
:1077D600E4900000F0A3F0900008F0A37482F0E4B7
:1077E600A3F0A3F0A37484F0A37430F07BA07A0016
:1077F6007D287C007F057E0012354E7B017A02795A
:107806007912785E900000E004F0A3E004F0E0FB5B
:107816007A009000087407F0A374E0F0A3EAF0A3DE
:10782600EBF07DA57C007F237E00126C00900001AA
:10783600E0FFD3947D5005EF94784005E490000175
:10784600F0900000E075F00184E5F07002B2B67FBA
:08785600C87E00127F9880AC8F
:107CF900127FD31241ED90030B74F8F0A3E4F090D6
:107D09000306E0FFA3E0900006CFF0A3EFF0A37411
:107D190010F0A374FFF0A37480F0A37420F0900313
:107D290004E0FAA3E0FB7D0A7C007F0A7E00126C66
:067D3900EB1277D680FE7C
:0B802B00EF1FAC0670011E4C70F62227
:107F9800D3EF9400EE940040147D6E7C00ED1D70CC
:0D7FA800011CED4C70F7EF1F70E61E80E32A
:017FB50022A9
:057EF0004200990000B2
:107FD300759850758920758780758DFA858D8BD23C
:067FE300AFD28ED29922FC
:06804100EF24FF92AC22C7
:0E801200C2ACC2998F993099FDC299D2AC22AE
:107E760090037CEBF0A3EAF0A3E9F090037CE0FB2F
:107E8600A3E0FAA3E0F9122A9AFF60161280127F85
:107E9600057E0012802B90037DE475F001122BB154
:037EA60080D9225E
:030023000278E57B
:1078E500C0E0C083C082C0D075D000C004C005C050
:0178F500078B
:1078F600309864C298AF99900099E0FCEC20E75765
:1079060030E60FEF640A90009960028046E04480FA
:10791600800AEFB40D0C900099E04440F0A3E0F02B
:107926008035900099E0543FFCA3E02467F582740B
:10793600003CF583EFF090009AE004F070069000AA
:1079460099E004F0D390009AE09431900099E09485
:07795600004004E4F0A3F07F
:0F795D00D007D005D004D0D0D082D083D0E03274
:10002600204C43442049443A25780D0A000000003C
:10003600000000000000000000000000003F40003B
:1000460000000000000000300040003000400000CA
:100056000009000BC03D000BC03D00090018C0247C
:10006600407FE0224031800000180024C01B000DB4
:10007600803240018003801C4027401C80074000DE
:1000860040100060000000000000000000000000BA
:100096000000001F80204040200000402020401F1C
:1000A6008000000000090006001F8006000900000D
:1000B60000040004003F800400040000000010005B
:1000C60060000000000000000004000400040004BA
:1000D60000040000000000004000000000000000D6
:1000E60000002001C006003800400000001F8020EC
:1000F60040204020401F800000000010403FC0000C
:10010600400000000018C021402240244018400052
:100116000010802040244024401B80000002000D77
:100126000011003FC0014000003C802440244024D0
:1001360040238000001F8024402440344003800078
:10014600003000200027C03800200000001B80245B
:1001560040244024401B8000001C0022C022402274
:10016600401F800000000000000840000000000062
:100176000000000000046000000000000000000411
:10018600000A00110020804040090009000900090A
:10019600000900000000004040208011000A000411
:1001A600001800200023402400180000001F8020B3
:1001B60040274029401F400000004007C039000F7B
:1001C6000001C0004020403FC0244024401B800066
:1001D600001F802040204020403080000020403F0B
:1001E600C0204020401F80000020403FC024402EF9
:1001F6004030C0000020403FC024402E00300000A8
:10020600000F001080204022403380020020403F33
:10021600C0040004003FC02040204020403FC020D2
:1002260040204000000060202020203FC020002009
:100236000020403FC024400B0030C0204020403FFB
:10024600C020400040004000C03FC03C0003C03C0E
:10025600003FC0000020403FC00C4023003FC020AC
:10026600001F802040204020401F80000020403F8B
:10027600C024402400180000001F80214021402097
:10028600E01FA0000020403FC02440260019C00007
:100296004018C02440244022403180000030002015
:1002A600403FC020403000000020003F800040005A
:1002B600403F80200020003E0001C007003800209B
:1002C60000380007C03C0007C03800000020403955
:1002D600C0060039C0204000002000384007C03862
:1002E6004020000000304021C02640384020C00099
:1002F60000000000007FE040204020000000007069
:10030600000C000380004000000000402040207FD9
:10031600E000000000000020004000200000000077
:100326000000100010001000100010001000000067
:1003360000400000000000000000000280054005AB
:100346004003C0004020003FC0044004400380003A
:100356000000000380044004400640000000000343
:1003660080044024403FC000400000038005400553
:100376004003400000000004401FC02440244020E9
:1003860000000002E0055005500650042020403FC2
:10039600C00440040003C000400000044027C00021
:1003A600400000000000100010041027E0000000CC
:1003B6000020403FC00140070004C0044020402008
:1003C600403FC000400040000007C0040007C004D2
:1003D6000003C00000044007C00440040003C0003E
:1003E600400000038004400440038000000410071E
:1003F600F004500440038000000000038004400421
:100406005007F00010044007C0024004000400003A
:1004160000000006400540054004C000000000043E
:10042600001F8004400040000004000780004004D4
:100436004007C000400400070004C0018006000415
:1004460000060001C0070001C006000000044006C7
:10045600C0010006C0044000000410071004E001BB
:1004660080060004000000044005C0064004400069
:10047600000000000004007BE040200000000000B7
:10048600000000FFF000000000000040207BE004B8
:1004960000000000004000800040002000200040D6
:1004A6000000000000000000000000000000000046
:1004B600000000000000001FCC000C00000000003F
:1004C60000000008003000600008003000600000F6
:1004D60000022003FC1E20022003FC1E2002200036
:1004E6000000000E1811043FFF10840C7800000075
:1004F600000F0010840F3800C007781884007800B9
:100506000000780F8410C411240E9800E4008400C3
:1005160008080068007000000000000000000000ED
:100526000000000000000007E01818200440020048
:1005360000000040022004181807E0000000000038
:10054600000240024001800FF0018002400240009C
:10055600000080008000800FF8008000800080008E
:10056600000001000D000E00000000000000000069
:100576000000000080008000800080008000800075
:10058600800000000C000C000000000000000000CD
:100596000000000006001800600180060018002018
:1005A60000000007F0080810041004080807F0000F
:1005B600000000080408041FFC00040004000000FA
:1005C6000000000E0C10141024104411840E0C00B0
:1005D6000000000C1810041104110412880C70009D
:1005E60000000000E00320042408241FFC0024006F
:1005F6000000001F98108411041104108810700068
:1006060000000007F0088811041104188800700023
:100616000000001C00100010FC13001C001000005D
:100626000000000E3811441084108411440E380066
:100636000000000700088C10441044088807F000EA
:1006460000000000000000030C030C000000000086
:10065600000000000000010106000000000000008C
:100666000000000080014002200410080810040069
:100676000002200220022002200220022002200086
:100686000000001004080804100220014000800049
:100696000000000E001200100C106C10800F0000FD
:1006A6000003E00C1813E4142417C4082807D0002C
:1006B600000004003C03C41C40074000E4001C008A
:1006C6000410041FFC1104110411040E88007000AC
:1006D6000003E00C1810041004100410081C10008D
:1006E6000010041FFC100410041004080807F00092
:1006F6000010041FFC1104110417C410040818008C
:100706000010041FFC1104110017C010000800009F
:100716000003E00C181004100410441C780040007C
:100726000010041FFC10840080008010841FFC1041
:10073600040000100410041FFC1004100400000044
:100746000000030001100110011FFE100010000040
:100756000010041FFC110403801464181C1004000C
:100766000010041FFC1004000400040004000C0028
:100776000010041FFC1F0000FC1F001FFC100400DB
:100786000010041FFC0C04030000E010181FFC10EE
:100796000007F00808100410041004080807F00009
:1007A6000010041FFC10841080108010800F0000C1
:1007B6000007F0081810241024101C080A07F2007D
:1007C6000010041FFC1104110011C011300E0C00A2
:1007D6000400000E1C11041084108410441C380000
:1007E600001800100010041FFC1004100018000070
:1007F6000010001FF810040004000410041FF81075
:100806000010001E0011E0001C007013801C001078
:10081600001FC0103C00E01F0000E0103C1FC0009D
:10082600001004180C163401C001C01634180C1040
:100836000410001C00130400FC13041C001000002C
:10084600000804101C1064108413041C0410180003
:10085600000000000000007FFE400240024002004F
:1008660000000030000C0003800060001C00030044
:100876000000004002400240027FFE00000000002F
:100886000000000000200040004000400020000062
:10089600000001000100010001000100010001004B
:1008A60001000040004000200000000000000000A1
:1008B6000000000098012401440144014400FC00AA
:1008C6000410001FFC008801040104008800700069
:1008D6000000000070008801040104010400880083
:1008E600000000007000880104010411081FFC00CC
:1008F60004000000F8014401440144014400C8001A
:10090600000000010401040FFC1104110411001879
:1009160000000000D601290129012901C9010600AC
:100926000010041FFC008401000100010400FC000B
:100936000400000104190419FC000400040000006E
:10094600000000000300010101190119FE0000006A
:100956000010041FFC0024004001B4010C01040037
:10096600000000100410041FFC0004000400000036
:1009760000010401FC0104010001FC010401000066
:10098600FC010401FC008401000100010400FC00DC
:1009960004000000F8010401040104010400F80049
:1009A60000010101FF0085010401040088007000B8
:1009B6000000000070008801040104010501FF0029
:1009C600010104010401FC0084010401000180000E
:1009D60000000000CC012401240124012401980018
:1009E6000000000100010007F801040104000000F6
:1009F60000010001F8000400040004010801FC00E5
:100A060004010001800170000C00100160018001EA
:100A16000001F0010C003001C00030010C01F001B2
:100A26000000000104018C00740170018C010400B7
:100A360000010101810171000E00180160018001B1
:100A46000000000184010C013401440184010C0002
:100A560000000000000000000001003EFC400240D3
:100A6600020000000000000000FFFF000000000080
:100A7600000000400240023EFC01000000000000B1
:100A86000000006000800080004000400020002040
:100A96000000000000000000000000000000000050
:100AA6000000000000000000000000000000000040
:100AB6000000000000000000000000000000000030
:100AC600000000000F80380FFE380F80380000004D
:100AD600000000000000000000000000000000010F
:100AE60000000600000C000038000031000006007F
:100AF600000C00003800003000000000000000007C
:100B06000061800067F807F980006180006180005D
:100B160061800061800067F807F98000618000004D
:100B26000000000000000001C0E003E0F00630080D
:100B36000418081FFFFE040E080787F00381E00073
:100B4600000000000001F000060C00040408060C7A
:100B56007001F9C0000E00003BE000EC1807080821
:100B6600040C180003E00000000001E00007F00399
:100B7600F818041C0804170807E1D003C0E0002396
:100B8600B0003C0800200800001000000000000033
:100B96000100003100003200001C000000000000CF
:100BA600000000000000000000000000000000003F
:100BB600000000000000000000000000000000002F
:100BC600007F0001FFC00780F00C00181000042011
:100BD60000020000000000002000021000040C00CB
:100BE600180780F001FFC0007F0000000000000031
:100BF60000000000000000000000000000420000AD
:100C06006600006600003C0000180003FFC00018E4
:100C160000003C0000660000660000420000000084
:100C26000008000008000008000008000008000195
:100C3600FFC00008000008000008000008000008C7
:100C46000000000000000100003100003200001C1E
:100C5600000000000000000000000000000000008E
:100C66000000000000000000000800000800000866
:100C76000000080000080000080000080000080046
:100C8600000800000800000000000000000000004E
:100C960000380000380000380000000000000000A6
:100CA600000000000000000000000000000000003E
:100CB60000000600001C000070000180000E00000D
:100CC600380000C0000700001C00003000000000D3
:100CD60000000000007F8001FFE00380700600181E
:100CE60004000804000806001803807001FFE000F5
:100CF6007F800000000000000000000100080100E5
:100D06000801000803FFF807FFF8000008000008C4
:100D160000000800000000000000000001C03802CA
:100D2600C058040098040118040218040418061C8C
:100D36001803F81801E0F8000000000000000000A9
:100D460001C0E003C0F0040008040808040808060F
:100D5600180803F41801E7F00001E00000000000A5
:100D660000000000000300000D00001100006100FB
:100D760000810803010807FFF80FFFF800010800CB
:100D860001080000000000000000E007FCD0060893
:100D960008061008061008061008061838060FF090
:100DA6000607C0000000000000000000003F8001B0
:100DB600FFE0038430020818041008041008041029
:100DC60008071810030FF00007C00000000000001D
:100DD60000000003C0000700000600000600F80639
:100DE60007F806180006E0000700000600000000ED
:100DF6000000000001E1E003F7F0063410041808D3
:100E0600041808040C08040C0806161803F3F0016D
:100E1600C1E000000000000000F80003FC300306FB
:100E2600380402080402080402080404100308F047
:100E360001FFC0007F00000000000000000000006D
:100E460000000000000000000070380070380070DC
:100E56003800000000000000000000000000000054
:100E660000000000000000000000000000301A0032
:100E7600301C000000000000000000000000000020
:100E8600000000000000000008000014000022001E
:100E9600004100008080010040020020040010088C
:100EA60000080000000000000021000021000021D1
:100EB6000000210000210000210000210000210087
:100EC60000210000210000000000000000000008D2
:100ED600000804001002002001004000808000414C
:100EE60000002200001400000800000000000000BE
:100EF60003C00004C000040000080038080F3808CA
:100F060008380810000C300007E00003C00000009D
:100F160000000000003F8000FFE0038070020F1019
:100F260006708804C088048308047F8802C0900382
:100F3600012000FE400000080000180001F8003EF5
:100F46000801C20007020007E20000FE00001FC8F9
:100F56000001F800003800000804000807FFF80741
:100F6600FFF8040808040808040808040808061816
:100F76000803F41801E7F00001E00000000000009B
:100F8600003F8001FFE0038070020018040008049F
:100F960000080400080400100600200780C00000B6
:100FA6000004000807FFF807FFF80400080400081B
:100FB60004000804001802001003807001FFE0001E
:100FC6007F8000000004000807FFF807FFF8040808
:100FD60008040808040808040808043E0804000871
:100FE60006001801006000000004000807FFF8076B
:100FF600FFF8040808040800040800040800043E7A
:10100600000600000600000180000000000000004D
:10101600003F8001FFE0038070060018040008040A
:1010260002080402080203F00783F000020000022F
:101036000004000807FFF807FFF804080800080086
:1010460000080000080000080004080807FFF80769
:10105600FFF8040008000000000000040008040077
:101066000804000807FFF807FFF804000804000852
:101076000400080000000000000000000000060058
:10108600000700000104000104000104000307FF3B
:10109600FE07FFFC04000004000004000004000832
:1010A60007FFF807FFF8040C08001800003E0004CC
:1010B600C7800503C80600F80400380400180000BD
:1010C6000804000807FFF807FFF8040008000008F6
:1010D60000000800000800000800000800001800D2
:1010E600006000000004000807FFF807800807FCFE
:1010F60000007FC00003F80007C0007800078008E2
:1011060007FFF807FFF804000804000807FFF807C0
:10111600000803C00000E000003800001E000007C1
:10112600000001C00400F007FFF804000000000002
:10113600007F8001FFE003807006001804000804A9
:10114600000806001803003001FFE0007F80000061
:101156000004000807FFF807FFF804040804040069
:10116600040400040400040400060C0003F8000153
:10117600F000000000000000007F8001FFE0038017
:10118600700600880400880400C806003C03003E80
:1011960001FFE6007F8400000004000807FFF8074F
:1011A600FFF8040808040800040C00040F00040BF0
:1011B600C00610F003F03801E00800000800000047
:1011C60001E0F803F030063010041808041808048B
:1011D6000C08040C080206180207F00781E000005C
:1011E600000180000600000400000400000400085E
:1011F60007FFF807FFF804000804000004000006D3
:10120600000001800004000007FFE007FFF0040073
:101216001800000800000800000800000800000888
:1012260004001007FFE004000004000006000007A9
:10123600E00007FE00041FE00001F800003800018E
:10124600E0043E0007C000060000040000040000A1
:1012560007E00007FFC0041FF80007C007F80007F3
:10126600FF80043FF80007C004F8000700000400F0
:101276000000000004000806001807C07805F1C841
:10128600003E00001F800463E80780F8060018048B
:10129600000800000004000006000007800007E0C8
:1012A60008047C08001FF80007F800180804E00886
:1012B6000700000600000400000000000100080608
:1012C60000380400F80403E8040F08047C0805F05D
:1012D6000807C008070018040060000000000000AE
:1012E6000000000000000000000000003FFFFE209C
:1012F600000220000220000220000220000200005E
:101306000000000000000008000007000000C00008
:101316000038000006000001C000003000000E008A
:101326000001000000000000000000200002200074
:10133600022000022000022000023FFFFE00000003
:101346000000000000000000000000000000000097
:1013560000000800001000003000002000003000EF
:10136600001000000800000000000000000000015E
:101376000000010000010000010000010000010062
:101386000001000001000001000001000001000052
:101396000100000000000000000020000020000006
:1013A6001000001000000000000000000000000017
:1013B60000000000000000000000F00019F8001B0B
:1013C60018002208002608002408002410003FF810
:1013D600001FF800000800001800000004000007C5
:1013E600FFF80FFFF0001818001008002008002072
:1013F60008003018001FF0000FC0000000000000B9
:101406000007C0001FF00018300020080020080068
:101416002008003C08001C100000600000000000CE
:10142600000000000007C0001FF000381800200868
:1014360000200800200804101007FFF80FFFF00036
:1014460000100000000000000000000007C0001FA0
:10145600F00012300022180022080022080032088C
:10146600001E10000E2000000000000000200000FA
:10147600200800200801FFF803FFF80620080420D2
:1014860008042008072000030000000000000000F8
:1014960000000E000E6E001FF30031B10020B100F7
:1014A60020B1003191001F13002E1E00200E0030C7
:1014B6000000000004000807FFF80FFFF8001008FE
:1014C600002000002000002008003FF8001FF80060
:1014D60000080000000000000000000020080020B6
:1014E60008002008063FF8063FF80000080000083C
:1014F60000000800000000000000000000000000DE
:101506000003000003002001002001002003063F25
:10151600FE063FFC00000000000000000000000086
:1015260004000807FFF80FFFF80001880003000019
:101536002FC00038F80020380020080000080000FE
:101546000000000000000004000804000804000871
:1015560007FFF80FFFF80000080000080000080069
:101566000000000000002008003FF8003FF80010CF
:1015760008002000003FF8003FF800100800200097
:10158600003FF8003FF800000800000000200800B7
:101596003FF8003FF800100800100000200000206F
:1015A60008003FF8001FF8000008000000000000D7
:1015B6000007C0000FF000183000300800200800B7
:1015C6002008003008001830000FF00007C00000A7
:1015D60000000000002001003FFF003FFF00101147
:1015E600002009002008002008003038001FF00005
:1015F6000FC00000000000000007C0001FF0003808
:1016060018002008002008002009001011001FFF04
:10161600003FFF0000010000000020080020080035
:101626002008003FF8003FF80008080010080020D6
:10163600080020000030000030000000000000001C
:10164600000000000C78001E180033080023080074
:1016560021080021880021980030F0003860000041
:101666000000000000200000200000200000FFF025
:1016760003FFF800200800200800200800003000C2
:101686000000000000000000002000003FF0007F86
:10169600F8000018000008000008002010003FF8BD
:1016A600007FF00000100000000000000020000095
:1016B6003000003C00003F800023F000007800006E
:1016C60070002380003C0000300000200000200055
:1016D600003C00003FE00023F80000E00027000087
:1016E6003E00003FE00021F80001E0003E0000203F
:1016F60000000000002008002008003838003E687E
:101706000027800003C8002CF80038380020180095
:101716002008000000000000002000003003003C0C
:1017260001003F830023EC000070002380003C0092
:101736000020000020000000000000000000000063
:1017460038080020380020F80023E8002F88003EE3
:101756000800380800201800007000000000000093
:10176600000000000000000000000000000800006B
:1017760014001FF7FC3000062000020000000000E5
:101786000000000000000000000000000000000053
:10179600000000FFFFFF0000000000000000000046
:1017A60000000000000000000000002000023000E1
:1017B600061FF7FC001400000800000000000000EF
:1017C600000000000000000000000000180000609B
:1017D600000040000040000020000010000008004B
:1017E600000400000400000C0000100000C6D50034
:1017F60000000000E0380000783C00003C78000063
:101806003C70C0001CE1E01FFFFFF0001CE3000E6F
:101816001CE7C0079CE78003DCEF0003DCEE000159
:10182600DCFC60009CF9F07FFFFFF800000000017F
:10183600C00E0001FFFF0001C00E0001C00E000136
:10184600C00E0001FFFE0001C00E0001C00E000127
:10185600C00E0001FFFE0001C00E0001C00E000018
:10186600000000D6D000000000000700000007803E
:101876000000070000000700000007000000070145
:10188600801FFFFFE01FFFFFE01E0701C01E0701CC
:10189600C01E0701C01E0701C01E0701C01E0701AA
:1018A600C01FFFFFC01FFFFFC01E0701C01C0701AE
:1018B6008000070000000700000007000000070086
:1018C60000000700000007000000070000000700F6
:1018D600000007000000000000BFC6000000000076
:1018E600000780003C07C001FC07803FE007803905
:1018F600C1C78001C0E78001C0F78001C0778001C1
:10190600DE77807FFE078001C0078003C3C78003A0
:10191600E1E78003F8F78007FCE7F00FDE67F80FD2
:10192600DC07F81FC0FF801DDFE78039CC07807118
:10193600C0078061C0078001C0078001C007800121
:10194600E0078001E0078001C0070000000000BC3E
:10195600BC000000000380300003C03C0003C03C14
:101966000003C0380003C0380003C0386003F838ED
:10197600F07FFFFFF003C0380003C0380003C03813
:101986000003DC39C003FFFFE007E383C03FC183E8
:10199600C07FC1C3803BC1C78003C0EF0003C0EF57
:1019A6000003C07E0003C07C0003C07C0003C0FEB1
:1019B600003BC3EF803F8787F80FBF03F807780027
:1019C600E000000000C4EA0000000000C0000001C2
:1019D600F0000001E0000003C000C003C001E00702
:1019E600FFFFF00703C0000E03C0001E03C0003C4B
:1019F60003C3007303C78063FFFFC00383C00003F4
:101A060083C0000383C0000383C0000383C0600358
:101A160083C0F07FFFFFF80003C0000003C0000092
:101A260003C0000003C0000003C0000003C00000A4
:101A360003C0000003C00000000000D4C200000084
:101A4600000000000000E0070000FFFF8000F00734
:101A56008000F0070000F0070000F0070000F00724
:101A66000000FFFF0000FFFF0000F0070000F00786
:101A76000000F0070000F0070000E0070000FFFF8D
:101A86000000E0070000E0070000E0070001E007B3
:101A96000001C0070001C00700038007000780F7A8
:101AA600000F007F001E001F0038001C0000000011
:101AB60000C8D5000000000000000003000300037A
:101AC600FFFF8003FFFF80038007000380070003FA
:101AD60080070003800700038007000380070003D8
:101AE6008007000380070003FFFF00038007000351
:101AF60080070003800700038007000380070003B8
:101B060080070003800700038007000380070003A7
:101B1600FFFF000380070003800700038007000320
:101B260000000000000000D0C70000000000000018
:101B3600000380070003FFFF800380070003800780
:101B4600000380070003FFFF0003800700038007F0
:101B56000003FFFF0003FFFF00038707000387C0A2
:101B66000003C7810003C7838007FFFFC007078004
:101B7600000F0780001E0786001C078F003BFFFF33
:101B8600807007800000078000000780E000078162
:101B9600F07FFFFFF80000000000000000C6DA003A
:101BA60000000006000000079E0000079E7FF00769
:101BB6009E7FF0079FF8F03FFFF8F01F9E78F00732
:101BC6009E78F0079E78F007FE7FF0079E78F00774
:101BD6009E78F0079E70F007FE70F0079E70F00783
:101BE6009E7FF0079FFFF03FFFF0F0119070F0032B
:101BF600DCF0F003DEE0F0078FE0F00F0FE0F00E10
:101C060007C0F01C038FF0380F03E0201C01C00052
:031C1600000000CB
:0A7EF50042030BFFFF42030D0000E3
:10000300E4FDFCC3ED9FEC9E5014E4FBFA0BBB0034
:0E001300010AEBF44A70F60DBD00010C80E509
:0100210022BC
:087F00007E00127F08E4FFFE81
:047F0800AD07AC060F
:107F0C00ECFFAE05D2A5C2A7D2B2C2A68F90C2A575
:0C7F1C00D2A5AF068F90C2A5D2A5D2A7B7
:017F28002236
:0D7EA9007E00127F0890005FE0FEA3E0FF66
:047EB600AD07AC0662
:107EBA00ECFFAE05D2A5C2A7D2B2D2A68F90C2A5B8
:0C7ECA00D2A5AF068F90C2A5D2A5D2A70A
:017ED6002289
:087F290090036AE0FEA3E0FFF3
:047F3100AD07AC06E6
:107F3500ECFFAE05D2A5C2A7D2B2D2A68F90C2A53C
:0C7F4500D2A5AF068F90C2A5D2A5D2A78E
:017F5100220D
:067FFE007C107F037E00F1
:0E800400AB05AA04127F08AE02AF03027EB6DF
:107F79007590FF7580FFC2A7D2A6C2B200AF90EF7D
:0E7F8900FED2B2C2B200AD90EDFFD2B2D2A7CE
:017F970022C7
:107BC600EF7026FD7C057F01FE1280047D30127F5A
:107BD600FE900306E4F0A374DCF0900304E4F0A343
:107BE60074B0F0E490030AF0227D007C047F017EED
:107BF600001280047D38127FFE900306E4F0A37421
:107C0600B0F0900304E4F0A374DCF090030A74016E
:027C1600F0225A
:1041ED00D2B37F647E00127F98C2B37F647E0012CB
:1041FD007F98D2B37F647E00127F98E4FFFE127F1A
:10420D0008127F79900308EEF0A3EFF07BFF7A00A0
:10421D007926900003EEF0A3EFF0123254E4FFFE86
:10422D00127F087F017E00127EB67F0A7E0012800B
:10423D002B7F07127F007F12127F007FA47E00125A
:10424D007F087F017E00127F087F0A7E0012802B7F
:10425D007F707E00127F087F007E9B127EB67F07E7
:10426D007E00127F087F317E00127EB67F187E00A1
:10427D00127F087F017E00127EB67F107E00127FB6
:10428D00087FB07E11127EB67F117E00127F087FEF
:10429D00077E00127EB67F127E00127F087F177E8A
:1042AD0010127EB67F137E00127F087F0D7E851261
:1042BD007EB67F147E00127F087F007E80127EB650
:1042CD007F127E00127F087F3C7E10127EB67F9695
:1042DD007E001200037F01127F087F007E05127E93
:1042ED00B67F027E00127F087F007E07127EB67FAA
:1042FD00037E00127F087F307E10127EB67F087E0F
:10430D0000127F087408FFFE127EB67F0B7E00122E
:10431D007F087F007E11127EB67F0C7E00127F0813
:10432D00E4FFFE127EB67F0F7E00127F087F017EB6
:10433D0014127EB67F157E00127F08E4FFFE127EFA
:10434D00B67F207E00127F08E4FFFE127EB67F212D
:10435D007E00127F08E4FFFE127EB67F507E0012B3
:10436D007F08E4FFFE127EB67F517E00127F087F2C
:10437D00AF7E00127EB67F527E00127F08E4FFFEF4
:10438D00127EB67F537E00127F087FDB7E00127E89
:10439D00B67F707E00127F087F007E1B127EB67F77
:1043AD00717E00127F08E4FFFE127EB67F907E00C4
:1043BD00127F08E4FFFE127EB67F917E00127F0809
:1043CD007F007E01127EB67F927E00127F087F01F4
:1043DD007E00127EB67F597E00127F087F0C7E050F
:1043ED00127EB67F907E00127F087F107E00127EB7
:1043FD00B67F927E00127F087F007E06127EB67F0A
:10440D00077E00127F087F337E02127EB67F327EDA
:10441D00001200037F22127F08E4FF127BC6900377
:09442D000DE0FEA3E0FF02796C32
:05762F00E0FEA3E0FFF6
:1076340090005FEEF0A3EFF0A3ECF0A3EDF0900365
:107644000AE070357F50FE127EAB7F517E00127FC0
:1076540008AF03AE02127EB67F527E00127F08A3EB
:10766400127EB17F537E00127F08900065127EB1B6
:107674007F20127EA97F2180327F52127EA97F5300
:107684007E00127F08AE02AF03127EB67F507E00EA
:10769400127F08A3127EB17F517E00127F089000F2
:1076A40065127EB17F21127EA97F207E00127F08A1
:0C76B400A3127EB17F227E00127F08220C
:0E712600900340EEF0A3EFF0A3ECF0A3EDF029
:10713400E4A3F0A304F0A3E4F0A304F0900304E0B8
:10714400FEA3E0FFC3900341E09F900340E09E5004
:1071540015900306E0FEA3E0FFC3900343E09F9075
:107164000342E09E4004E4FEFF22900342E0FCA3BD
:10717400E0FD900340E0FAA3E0FBA3E0FFA3E0906E
:107184000065CFF0A3EFF090034012762F127F79C1
:10719400AB07AA06127F79AA06AB07EA13131354A6
:1071A4001FFF900346E4F0A3EFF0EB7805CEC31382
:1071B400CE13D8F9543FFF900344E4F0A3EFF07CDE
:1071C40000EB541FFD900344E0FEA3E07805C333B5
:1071D400CE33CED8F9FBAA06ED33333354F84AFE46
:1071E400EBFF900346E04EFAA3E04FAC02AE04FF7F
:0171F4002278
:08796C00900000EEF0A3EFF023
:10797400E4A3F0A3F0900305E024FFFB900304E0EC
:1079840034FFFA900307E024FFFE900306E034FF7F
:10799400900065F0A3CEF0E4FDFCFFFE127634E423
:1079A400FAFBD3900305E09B900304E09A4039E48A
:1079B400900002F0A3F0900306E0FEA3E0FFC39062
:1079C4000003E09F900002E09E5016900000127F9A
:1079D4002C900003E004F070DD900002E004F080DD
:0879E400D50BBB00010A80BABB
:0179EC002278
:10705600900025ECF0A3EDF0900023EEF0A3EFF006
:08706600900027EAF0A3EBF013
:10706E00E490002DF0A3F0D3EF9BEE9A4003027153
:10707E0025900029E0FEA3E0FF900025E0FCA3E0B0
:10708E00FD9FEC9E4003027125900027E0FAA3E0DD
:10709E00FBA3E0FFA3E0900065CFF0A3EFF090001C
:1070AE002312762F900023E0FEA3E0FFC39000286A
:1070BE00E09FFF900027E09ECF2401CF3400900088
:1070CE0023F0A3EFF0A3E0FEA3E0FFC390002AE0BD
:1070DE009FFF900029E09ECF2401CF340090002521
:1070EE00F0A3EFF090002374FFF5F0122BC745F0DC
:1070FE006025900025E0FFA3E090002DCFF0A3EFD8
:10710E00F090002D74FFF5F0122BC745F060D5906E
:07711E00002B127F2C80EA18
:017125002247
:0E68300090021AEEF0A3EFF0A3ECF0A3EDF04F
:10683E0090021AE0FEA3E0FFC3EB9FFFEA9ECF2477
:10684E0001CF3400900227F0A3EFF090021CE0FE7F
:10685E00A3E0FFC3900221E09FFF900220E09ECFB5
:10686E002401CF3400900225F0A3EFF090021CE03B
:10687E00FCA3E0FD900220E0FFA3E0900065CFF0C6
:10688E00A3EFF090021A12762FE4900229F0A3F0F3
:10689E00900225E0FEA3E0FFC390022AE09F900243
:1068AE0029E09E5074E490022BF0A3F0900227E0B2
:1068BE00FEA3E0FF90022BE0FAA3E0FBC39FEA9E4B
:1068CE005046900227E0FCA3E0FDA3E0FEA3E0FF0C
:1068DE00122B14EB2FFFEA3EFEEF25E0FFEE33FE08
:1068EE00900222E0FBA3E0FAA3E0F98F828E8312DE
:1068FE002BDDFFAEF0127F3190022CE004F070AC75
:10690E0090022BE004F080A490022AE004F0708044
:09691E00900229E004F002689ED9
:01692700224D
:107D8300900315FEE0FCA3E0FDC3900312E09DFD0C
:067D9300900311E09CFCCE
:107D9900AB07AA068D828C83C006C007AE83AF826B
:107DA900900065EEF0A3EFF0D007D006127634907C
:0A7DB900030BE0FEA3E0FF027F31A0
:067CB100FDE0FAA3E0FB78
:107CB700900059EEF0A3EFF090005DEAF0A3EBF02F
:107CC70090005BECF0A3EDF0900059E0FAA3E0FB25
:107CD700FFAE02C007A3E0FFA3E0900065CFF0A3CB
:107CE700EFF0D00712763490005DE0FEA3E0FF02CC
:027CF7007F31DB
:107AE800900360EEF0A3EFF0A3ECF0A3EDF0A3EAAF
:107AF800F0A3EBF0127CB7900361E02401FF900340
:107B080060E03400FE900362E0FCA3E0A3127CB1C5
:107B1800900360E0FEA3E0FF900363E02401FD9082
:107B28000362E03400FC900364127CB2900361E0CD
:107B38002401FF900360E03400FE900363E0240119
:107B4800FD900362E03400FC900364E0FAA3E0FBDC
:037B5800027CB7F5
:0E4CB10090015AEEF0A3EFF0A3ECF0A3EDF0AB
:104CBF00E4900162F0A3F0A3F0A3F0A3F0A3F090AF
:104CCF00015AE0FEA3E0FFC3EB9FFFEA9E9001684D
:104CDF00F0A3EFF090015CE0FAA3E0FBC390016159
:104CEF00E09BFE900160E09A90016AF0A3CEF090F5
:104CFF00015AE0FFA3E0900172CFF0A3EFF0A3EA17
:104D0F00F0A3EBF0900168E0FEA3E0FFD39400EE78
:104D1F0064809480400A90016EE4F0A304F0802137
:104D2F00EF4E700890016EF0A3F0801574FF9001A4
:104D3F006EF0A3F0C3E49FFFE49E900168F0A3EF31
:104D4F00F090016AE0FEA3E0FFD39400EE6480943C
:104D5F0080400A900170E4F0A304F08021EF4E70C0
:104D6F0008900170F0A3F0801574FF900170F0A30C
:104D7F00F0C3E49FFFE49E90016AF0A3EFF090016F
:104D8F006AE0FEA3E0FF900168E0FCA3E0FDD39F83
:104D9F00EE6480F8EC64809890016C4007ECF0A30F
:104DAF00EDF08005EEF0A3EFF0E4900162F0A3F0D8
:104DBF0090016DE02401FF90016CE03400FED39070
:104DCF000163E09F900162E09E4003024E9F9001BD
:104DDF0072E0FEA3E0FFA3E0FCA3E0FD127D99903B
:104DEF000168E0FEA3E0FF900165E02FF090016401
:104DFF00E03EF090016AE0FEA3E0FF900167E02F34
:104E0F00F0900166E03EF090016CE0FEA3E0FF90B1
:104E1F000164E0FCA3E0FDD39FEE6480F8EC6480B6
:104E2F00984020ED9FFFEC9E900164F0A3EFF0906F
:104E3F00016EE0FEA3E0FF900173E02FF09001728E
:104E4F00E03EF090016CE0FEA3E0FF900166E0FC15
:104E5F00A3E0FDD39FEE6480F8EC6480984020EDD2
:104E6F009FFFEC9E900166F0A3EFF0900170E0FEC3
:104E7F00A3E0FF900175E02FF0900174E03EF090F9
:104E8F000163E004F07006900162E004F0024DBF90
:014E9F0022F0
:0E4EA000900100EEF0A3EFF0A3ECF0A3EDF014
:104EAE00E490010CF0A3F0A3F0A3F0900100E0FE5B
:104EBE00A3E0FFC3EB9FFFEA9E900110F0A3EFF07B
:104ECE00900102E0FAA3E0FBC3900107E09BFE9085
:104EDE000106E09A900112F0A3CEF0900100E0FFDF
:104EEE00A3E090011ACFF0A3EFF0A3EAF0A3EBF04A
:104EFE00900110E0FEA3E0FFD39400EE6480948056
:104F0E00400A900116E4F0A304F08021EF4E7008E1
:104F1E00900116F0A3F0801574FF900116F0A3F027
:104F2E00C3E49FFFE49E900110F0A3EFF0900112F6
:104F3E00E0FEA3E0FFD39400EE64809480400A90DC
:104F4E000118E4F0A304F08021EF4E7008900118D0
:104F5E00F0A3F0801574FF900118F0A3F0C3E49F46
:104F6E00FFE49E900112F0A3EFF0900112E0FEA379
:104F7E00E0FF900110E0FCA3E0FDD39FEE6480F80B
:104F8E00EC6480989001144007ECF0A3EDF08005DE
:104F9E00EEF0A3EFF0E490010AF0A3F0900115E01B
:104FAE002401FF900114E03400FED390010BE09F2A
:104FBE0090010AE09E400302508C90011AE0FEA37D
:104FCE00E0FFA3E0FCA3E0900108127CB190011079
:104FDE00E0FEA3E0FF90010DE02FF090010CE03E0B
:104FEE00F0900112E0FEA3E0FF90010FE02FF09091
:104FFE00010EE03EF0900114E0FEA3E0FF90010CE4
:10500E00E0FCA3E0FDD39FEE6480F8EC6480984052
:10501E0020ED9FFFEC9E90010CF0A3EFF090011697
:10502E00E0FEA3E0FF90011BE02FF090011AE03E9E
:10503E00F0900114E0FEA3E0FF90010EE0FCA3E06F
:10504E00FDD39FEE6480F8EC6480984020ED9FFFC6
:10505E00EC9E90010EF0A3EFF0900118E0FEA3E09D
:10506E00FF90011DE02FF090011CE03EF090010B2F
:0E507E00E004F0700690010AE004F0024FAA70
:01508C002201
:106EAC00900366EEF0A3EFF090036AEAF0A3EBF028
:086EBC00900368ECF0A3EDF077
:106EC400900366E0FAA3E0FB24FFFFEA34FFFEC070
:106ED40006C007ED24FFFDEC34FFFCEB2401FBE4CA
:106EE4003AFAA3E0FEA3E02401FFE43E900065F03B
:106EF400A3EFF0D007D006127634E4FB127F290BFF
:106F0400EBB409F8900367E024FCFF900366E034D7
:106F1400FFFEC007900368E0FCA3E0FD900367E078
:106F24002404FB900366E03400FA900368E0FFA3B6
:106F3400E0900065CFF0A3EFF0D007127634E4FBC5
:106F4400127F290BEBB409F8900369E024FCFD904F
:106F54000368E034FFFC900366E0FAA3E0FBA3E0DF
:106F6400FEA3E02404FFE43E900065F0A3EFF0905C
:0F6F7400036612762FE4FB127F290BEBB409F8AA
:016F830022EB
:1074450090034CEAF0A3EBF0900348EEF0A3EFF0C5
:10745500A3ECF0A3EDF0C007A3E0FAA3E0FB9003D3
:107465004AE0FFA3E0900160CFF0A3EFF0D0071250
:107475004CB1900348E0FAA3E0FBFFAE02C007A3BE
:10748500E0FCA3E0FD90034EE0FFA3E0900160CF98
:10749500F0A3EFF0D007124CB190034EE0FCA3E04F
:1074A500FD90034CE0FAA3E0FBA3E0FFA3E090010D
:1074B50060CFF0A3EFF0900348E0FEA3E0FF124C8D
:1074C500B190034CE0FAA3E0FBFFAE02C0079003C6
:1074D5004AE0FCA3E0FD90034EE0FFA3E0900160CD
:0A74E500CFF0A3EFF0D007024CB186
:0E52760090030FEEF0A3EFF0A3ECF0A3EDF029
:10528400E4A3F0A3F0EBFF7E00A3EEF0A3EFF02580
:10529400E0FFEE33FEC374039F900318F0E49E9086
:1052A4000317F0900315E0FEA3E0FF900313E0FC66
:1052B400A3E0FDD39FEE6480F8EC64809840030281
:1052C400544D900310E02DFF90030FE03C127D83BA
:1052D400900315E0FEA3E0FF900310E02FFF90037E
:1052E4000FE03E900313127D86900315E0FEA3E0C9
:1052F400FF900310E02FFF90030FE03EFE90031396
:10530400E0FCA3E0FD900312E02DFD900311E03CCE
:10531400FC127D99900313E0FEA3E0FF900310E0DC
:105324002FFF90030FE03EFE900315E0FCA3E0FD89
:10533400900312E02DFD900311E03CFC127D999046
:105344000313E0FEA3E0FFC3900310E09FFF90036C
:105354000FE09EFE900315E0FCA3E0FD900312E035
:105364002DFD900311E03CFC127D99900315E0FEA5
:10537400A3E0FFC3900310E09FFF90030FE09EFEA5
:10538400900313E0FCA3E0FD900312E02DFD9003D5
:1053940011E03CFC127D99900313E0FEA3E0FFC3EF
:1053A400900310E09FFF90030FE09E127D83900313
:1053B40015E0FEA3E0FFC3900310E09FFF90030FEE
:1053C400E09EFE900313127D87900314E004F070B6
:1053D40006900313E004F0C3900317E06480948004
:1053E4005025900313E0FEA3E07802C333CE33CEFE
:1053F400D8F92406FFE43EFE900318E02FF0900352
:1054040017E03EF00252A7900315E0FEA3E0FFC3AD
:10541400900314E09FFF900313E09EFEEF7802C315
:1054240033CE33CED8F9240AFFE43EFE900318E0CD
:105434002FF0900317E03EF0900316E024FFF09065
:095444000315E034FFF00252A749
:01544D00223C
:105AEB0090000DEEF0A3EFF0900011EBF090000F93
:055AFB00ECF0A3EDF04A
:105B0000900016ECF0A3EDF0900012E0FF131313D9
:105B1000541FFEEF540760047F0180027F00EE2FC8
:105B2000FF900012E0C313FEEF8EF0A4900018F077
:105B3000900011E024E0F0E4F9900018E0FFE9C3E0
:105B40009F4003025C62900012E0FFB40C129000D0
:105B500011E075F00CA42433F582E5F034008031B7
:105B6000EFB41012900011E075F010A424A7F58294
:105B7000E5F03404801B900012E064186003025CBE
:105B800062900011E075F024A42497F582E5F034CA
:105B90000AF583E58229F582E43583F583E4939061
:105BA0000014F0E4900015F0900014E030E713903A
:105BB000000DE0FEA3E0FFA3E0FCA3E0FD90030BDB
:105BC0008017900013E0701490000DE0FEA3E0FF3A
:105BD000A3E0FCA3E0FD90030D127CB2900014E062
:105BE00025E0F0900010E004F0700690000FE00453
:105BF000F0900306E0FEA3E0FF90000FE0FCA3E0BE
:105C0000FDC39FEC9E505B900016E0FEA3E0FFC337
:105C1000ED9FFDEC9EFC900012E07A00B50530EAA5
:105C2000B5042C90000FEEF0A3EFF090000EE0040E
:105C3000F0700690000DE004F0900304E0FEA3E095
:105C4000FFC390000EE09F90000DE09E4010229058
:105C50000015E004F0E0C394085003025BA80902B9
:025C60005B39AE
:015C6200221F
:077C1800C3EF9E14FD7F0A7B
:087C1F0090036CEFF0A3EDF0FF
:107C2700A3122DA50000000190036DE0FF14F0EFF3
:107C37006020A3E0F8A3E0F9A3E0FAA3E0FB900338
:107C47006CE0FFE4FCFDFE122C4290036E122D99AE
:107C570080D690036EE0FCA3E0FDA3E0FEA3E0FF67
:017C670022FA
:0E6DD0009002D1EEF0A3EFF0A3ECF0A3EDF0F3
:106DDE00E49002DDF09002DBF09002D9E0FF900229
:106DEE00DBE0FEC39F4003026EAB127C18A804A921
:106DFE0005AA06AB079002D5E0FCA3E0FDA3E0FEDA
:106E0E00A3E0FF122CCDE47B0AFAF9F8122CCD90F8
:106E1E0002DCEBF0A3E070459002D9E014FF900283
:106E2E00DBE0FEC39F5036A3E0702C9002DAE0FB4D
:106E3E00C3138EF0A4FF9002D2E02FFF9002D1E098
:106E4E0035F0FE9002D3E0FCA3E0FD900012EBF0D3
:106E5E00E4A3F07B20803A9002DD7401F09002DA18
:106E6E00E0FAC313FFA3E0FEEF8EF0A4FF9002D270
:106E7E00E02FFF9002D1E035F0FE9002D3E0FCA3AC
:106E8E00E0FD9002DCE02430FB900012EAF0E4A377
:0D6E9E00F0125AEB9002DBE004F0026DE709
:016EAB0022C4
:0E63D6009002B5EEF0A3EFF0A3ECF0A3EDF013
:1063E400E49002C2F09002C0F09002BDE0FF90027F
:1063F400C0E0FEC39F40030264FE127C18A804A9F7
:1064040005AA06AB079002B9E0FCA3E0FDA3E0FEF9
:10641400A3E0FF122CCDE47B0AFAF9F8122CCD90FC
:1064240002C1EBF0A3E060030264B59002BDE01486
:10643400FF9002C0E0FEC39F5077A3E0706D90020E
:10644400BFE0F99002BE30E72BE0FBC3138EF0A44B
:10645400FF9002B6E02FFF9002B5E035F0FE900207
:10646400B7E0FCA3E0FD900012EBF0E95401A3F0C7
:106474007B30807AE0FBC313FF9002C0E0FEEF8E16
:10648400F0A4FF9002B6E02FFF9002B5E035F0FED5
:106494009002B7E0FCA3E0FD900012EBF09002BF85
:1064A400E05401900013F07B2080439002C27401F9
:1064B400F09002BEE0FAC313FF9002C0E0FEEF8E3C
:1064C400F0A4FF9002B6E02FFF9002B5E035F0FE95
:1064D4009002B7E0FCA3E0FD9002C1E02430FB9001
:1064E4000012EAF09002BFE05401900013F0125A37
:0A64F400EB9002C0E004F00263ED3B
:0164FE00227B
:106CEB00900000EEF0A3EFF0A3ECF0A3EDF0A3EA1D
:046CFB00F0A3EBF027
:106CFF00900000E0FEA3E0FF90000CF0900005E094
:106D0F002FF0900004E03EF0900002E0FEA3E0FFC1
:106D1F00900007E02FF0900006E03EF0900009E0B1
:106D2F00FBA3E0FAA3E0F9122A9AFFD3947E400363
:106D3F00026DCFEFC394205003026DCF900004E09B
:106D4F00FEA3E0FF900001E09F900000E09E401F37
:106D5F0090000CE0FF900000E4F0A3EFF09000082B
:106D6F00E0FF900003E02FF0900002E03400F0907D
:106D7F000006E0FEA3E0FF900002E0FCA3E0FDC3ED
:106D8F009FEC9E503B900000E0FEA3E0FF122A9A7A
:106D9F00FB900008E0900012F0E4A3F0125AEB9081
:106DAF000008E0C313FF900001E02FF0900000E017
:106DBF003400F090000AE475F001122BB1026D2B34
:016DCF0022A1
:1062AB00900319EEF0A3EFF0A3ECF0A3EDF0A3EB4A
:0762BB00F0A3EAF0A3E9F0F3
:1062C20090031DE0FBA3E0FAA3E0F9122A9A7003FF
:1062D2000263D5900319E0FAA3E0FBFFAE02C00609
:1062E200C007A3E0FCA3E0FDEB241FFBE43AFA9015
:1062F200031BE0FEA3E0241CFFE43E900065F0A334
:10630200EFF0D007D006127634E4900320F0900329
:1063120020E0FFC3941440030263BA90031DE0FB24
:10632200A3E0FAA3E0F9122A9AFE75F076EFA4240C
:10633200F3F582E5F03417F583E4936E7071900003
:1063420001122AB3FF900320E075F076A424F4F53D
:1063520082E5F03417F583E4936F7053FB900320CA
:10636200E075F076A424F5F582E5F03417F583E5BF
:10637200822BF582E43583F583E493FF900321E4D5
:10638200F0A3EFF0E4FA900322E030E70590030B6C
:10639200800390030D127F2C900322E025E0F09001
:1063A2000321E033F00AEAB408DC0BEBB474AE90DC
:1063B2000320E004F002631090031EE475F0021261
:1063C2002BB190031AE02420F0900319E03400F07E
:0363D2000262C2A2
:0163D50022A5
:10617E00900205EEF0A3EFF0A3ECF0A3EDF0A3EA8E
:04618E00F0A3EBF09F
:10619200E4900210F0A3F0A3122DA50000000090DD
:1061A2000216122DA500000000900207E0FCA3E0F9
:1061B200FDA3E0FEA3E0FF900205E0FAA3E02FFFBB
:1061C200EA3ECF24FFFBEF34FFFA90020BE0FEA37E
:1061D200E0FF900207E0F8A3E02FFFE83ECF24FFA4
:1061E200CF34FF900065F0A3EFF090020512762FF6
:1061F20090020BE0FCA3E0FD900209E0FEA3E0FFA9
:10620200122B14EF25E0FFEE33FEE4FCFD900216A4
:10621200122D99900212A3A3E0FEA3E0FDAC062486
:1062220001FFE43CFE90020DE0FBA3E0FAA3E0F9DB
:106232008F828E83122AB3FF900210E4F0A3EFF054
:10624200E0F8E4F0E8900210F08D828C83122AB319
:10625200FF900210E0FEA3E04FFF900210EEF0FE6E
:10626200A3EFF0127F31A3E0FCA3E0FDA3E0FEA3C5
:10627200E02402FFE43EFEE43DFDE43CFC90021219
:10628200122D99900216E0FCA3E0FDA3E0FEA3E02C
:10629200FF900212E0F8A3E0F9A3E0FAA3E0FBC347
:0862A200122D5F50030262158A
:0162AA0022D1
:0B803600C2A1D2A3D2A2D2A1C2A322F9
:107FB600C2A1E4FEEFC4131313540124FF92A2EFEF
:0C7FC60025E0FFC2A1D2A10EEEB408E835
:017FD200228C
:107E3B00E490037FF0A3F0C2A1FDFC900380E0254A
:107E4B00E0F090037FE033F0D2A1C2A1A2A0E43313
:107E5B00FFE0F0A3E04FF00DBD00010CED640C4C06
:0A7E6B0070D990037FE0FEA3E0FF52
:017E750022EA
:0757E800EEF0A3EFF07F904B
:0257EF00AB0706
:1057F100C2A1C2A3E4900176F0AF03127FB690017B
:10580100777406F0900177E014F0E070F7D2A10010
:1058110000C2A10000127E3B900176E025E02478D1
:10582100F582E43401F583EEF0A3EFF0900176E028
:1058310004F0E0C3940A40C1D2A3E4900176F09051
:105841000176E0FFC3940940030258F6EF04A3F088
:10585100900177E0FFC3940A40030258EDEF25E081
:105861002478F582E43401F583E0FEA3E0FF9001A2
:1058710076E0FB25E02478F582E43401F583E0FC51
:10588100A3E0C39FEC9E505BEB25E02478F582E416
:105891003401F583E0FEA3E0FFE4FCFD90018C12EE
:1058A1002D99900177E0FA25E02478F582E434011E
:1058B100F583E0FEA3E0FFEB25E02478F582E434F4
:1058C10001F583EEF0A3EFF090018CA3A3E0FEA31A
:1058D100E0FFEA25E02478F582E43401F583EEF077
:1058E100A3EFF0900177E004F0025851900176E0C7
:1058F10004F002584090018C122DA5000000009088
:1059010001767402F090018CE0F8A3E0F9A3E0FACB
:10591100A3E0FB900176E025E02478F582E43401F0
:10592100F583E0FEA3E0FFE4FCFDEB2FFFEA3EFE82
:10593100ED39FDEC38FC90018C122D99900176E047
:1059410004F0E0B408BF90018CE0FCA3E0FDA3E00B
:10595100FEA3E0FFE47B06FAF9F8127D3F90018C8B
:0D596100122D9990018CA3A3E0FEA3E0FF9E
:01596E002216
:1064FF001280367FD01257EF9003231257E8900384
:10650F0029EEF0A3EFF07FD01257EF90032512572B
:10651F00E8AD07AC06900325E0FEA3E0FF90032350
:10652F00E0FAA3E0FBD39FEA9E400AA3A3EB9FFFF1
:10653F00EA9EA38017900323E0FEA3E0FFC390031E
:10654F0026E09FFF900325E09E900327F0A3EFF036
:10655F00900329E0FEA3E0FFD39DEE9C4007EF9D43
:10656F00FFEE9C800E900329E0FEA3E0FFC3ED9F9A
:10657F00FFEC9EA3F0A3EFF0D3900328E0943290AA
:10658F000327E09400500E90032CE0943290032BDD
:10659F00E0940040037F0022900325E0FEA3E0FF7C
:1065AF00900324E02FFF900323E03EC313FEEF136D
:1065BF00FF9002DEEEF0A3EFF090032AE02DFF90A4
:1065CF000329E03CC313FEEF13FF9002E0EEF0A3AC
:1065DF00EFF09002DFE054F0F09002E1E054F0F0C1
:1065EF00C39002DFE094649002DEE09400400FD38A
:1065FF009002E1E094D89002E0E0940E40037F0017
:03660F00227F01E6
:016612002265
:10603E00E4900381F01264FFEF700302617390032A
:10604E000AE060030260D99002DEE0FEA3E0FFE406
:10605E00FCFD9002E2122D999002E2E0FCA3E0FD1D
:10606E00A3E0FEA3E02406FFEE34FFFEED34FFFDB9
:10607E00EC34FFFCE47BB4FAF9F8122C42E47B74A6
:10608E007A0EF9F8122CCD9002E2122D999002E0C0
:10609E00E0FEA3E0FFE4FCFD9002E6122D999002D3
:1060AE00E6E0FCA3E0FDA3E0FEA3E024A2FFEE34B5
:1060BE00FEFEED34FFFDEC34FFFCE47BFAFAF9F85A
:1060CE00122C42E47BAC7A0D0261609002E0E0FE9D
:1060DE00A3E0FFC3E49FFF74109EFEE4FCFDA31239
:1060EE002D999002E2E0FCA3E0FDA3E0FEA3E024E4
:1060FE00A2FFEE34FEFEED34FFFDEC34FFFCE47B3C
:10610E00FAFAF9F8122C42E47BAC7A0DF9F8122C5B
:10611E00CD9002E2122D999002DEE0FEA3E0FFE4A4
:10612E00FCFD9002E6122D999002E6E0FCA3E0FD44
:10613E00A3E0FEA3E02406FFEE34FFFEED34FFFDE8
:10614E00EC34FFFCE47BB4FAF9F8122C42E47B74D5
:10615E007A0EF9F8122CCD9002E6122D9990038149
:0F616E007401F08001E49002EAF0900381E0FFF9
:01617D0022FF
:0679ED00900350122D99D9
:1079F300900350E0FCA3E0FDA3E0FEA3E0FF7813B7
:107A0300122D86A3EEF0A3EFF0900350E0FCA3E069
:107A1300FDA3E0FEA3E0FF780A122D86EF543FFE9C
:107A2300E4900356F0A3CEF0900350E0FCA3E0FDF6
:107A3300A3E0FEA3E0FF7803122D86EF541FFFE4BB
:107A4300AD07FC900356E0FEA3E07805C333CE33C5
:107A5300CED8F9FBAA06900355E033333354F84AE2
:097A6300FEEBFFEE4CFEEF4DFFBF
:017A6C0022F7
:047DC300AD07AC0656
:107DC7007BE77A187E00ED54037803C333CE33CEB6
:107DD700D8F9FFEA4EFAEB4FFB7E00ED541C78060C
:107DE700C333CE33CED8F9FFEA4EFAEB4FFBED544F
:077DF700E04AFAEBAE02FFC7
:017DFE002262
:087C6800900372EFF0A3EDF0B0
:107C7000A3122DA500000001900373E0FF14F0EFA4
:107C80006020A3E0F8A3E0F9A3E0FAA3E0FB9003EF
:107C900072E0FFE4FCFDFE122C42900374122D9959
:107CA00080D6900374E0FCA3E0FDA3E0FEA3E0FF18
:017CB00022B1
:107B5B00900358122D9990035CE0FCA3E0FDA3E089
:107B6B00FEA3E0FF900358E0F8A3E0F9A3E0FAA32B
:107B7B00E0FBD3122D75401D90035CE0F8A3E0F9F8
:107B8B00A3E0FAA3E0FB900358E0FCA3E0FDA3E025
:107B9B00FEA3E0801A900358E0F8A3E0F9A3E0FA03
:107BAB00A3E0FBA3E0FCA3E0FDA3E0FEA3E0C39BEB
:0B7BBB00FFEE9AFEED99FDEC98FC2215
:087DFF00900378EEF0A3EFF011
:107E070090030BE0FFA3E090037ACFF0A3EFF0AF6E
:107E17000390030BEAF0A3EFF0900378E0FEA3E0F2
:107E2700FF127D9990037AE0FFA3E090030BCFF058
:037E3700A3EFF0C6
:017E3A002225
:10692800900264EEF0A3EFF0A3ECF0A3EDF0A3EA7D
:04693800F0A3EBF0ED
:10693C00E490026FF0A3F0900268E0FEA3E0FFC3C6
:10694C00900270E09F90026FE09E4003026A1EE48A
:10695C00900271F0A3F090026AE0FEA3E0FFC390F6
:10696C000272E09F900271E09E4003026A0A90025C
:10697C006FE0FEA3E0FF900265E02FFF900264E061
:10698C003EFE900271E0FCA3E0FD900267E02DFD5D
:10699C00900266E03CFC127126900273EEF0A3EFBD
:1069AC00F090026CE0FCA3E0FDA3E0FB126B1390F3
:1069BC000273EEF0A3EFF090026FE0FEA3E0FF9005
:1069CC000265E02FFF900264E03EFE900271E0FC55
:1069DC00A3E0FD900267E02DFD900266E03CFC9088
:1069EC000273E0FAA3E0FB127CB7900272E004F0B1
:1069FC006003026962900271E004F0026962900225
:106A0C0070E004F0600302694390026FE004F0024E
:026A1C006943CC
:016A1E002255
:106A1F0090004DECF0A3EDF0A3EAF0A3EBF09000A3
:066A2F004BEEF0A3EFF0B6
:106A3500C39401EE94004013E024FFFE90004BE068
:106A450034FF900055F0A3CEF0800F90004BE0FF8F
:106A5500A3E0900055CFF0A3EFF090004DE0FEA32A
:106A6500E0FFC39401EE9400400CEF24FFFFEE34E9
:106A7500FF900057800B90004DE0FFA3E09000577A
:106A8500CFF0A3EFF0900057E0FFA3E0900051CFC7
:106A9500F0A3EFF090004EE02402FF90004DE034AB
:106AA50000FEC3900052E09F900051E09E505E9022
:106AB5000055E0FFA3E0900053CFF0A3EFF0900066
:106AC5004CE02402FD90004BE03400FC900053E0C4
:106AD500FEA3E0FFC39DEE9C5023900051E0FCA374
:106AE500E0FD90004FE0FAA3E0FB127CB790005464
:106AF500E004F070C9900053E004F080C1900052AA
:0D6B0500E004F0708F900051E004F08087F4
:016B12002260
:0E4ABE0090011EEEF0A3EFF0A3ECF0A3EDF0DC
:104ACC00E490012AF0A3F0A3F0A3F090011EE0FE05
:104ADC00A3E0FFC3EB9FFFEA9E90012EF0A3EFF043
:104AEC00900120E0FAA3E0FBC3900125E09BFE902F
:104AFC000124E09A900130F0A3CEF090011EE0FF6B
:104B0C00A3E0900138CFF0A3EFF0A3EAF0A3EBF011
:104B1C0090012EE0FEA3E0FFD39400EE648094801D
:104B2C00400A900134E4F0A304F08021EF4E7008A9
:104B3C00900134F0A3F0801574FF900134F0A3F0D1
:104B4C00C3E49FFFE49E90012EF0A3EFF0900130A0
:104B5C00E0FEA3E0FFD39400EE64809480400A90C2
:104B6C000136E4F0A304F08021EF4E70089001367A
:104B7C00F0A3F0801574FF900136F0A3F0C3E49F0E
:104B8C00FFE49E900130F0A3EFF0900130E0FEA323
:104B9C00E0FF90012EE0FCA3E0FDD39FEE6480F8D3
:104BAC00EC6480989001324007ECF0A3EDF08005A6
:104BBC00EEF0A3EFF0E4900128F0A3F0900133E0C5
:104BCC002401FF900132E03400FED3900129E09FD4
:104BDC00900128E09E4003024CB0900138E0FEA307
:104BEC00E0FFA3E0FCA3E0FD900126E0FAA3E0FBCC
:104BFC00127CB790012EE0FEA3E0FF90012BE02F7A
:104C0C00F090012AE03EF0900130E0FEA3E0FF902E
:104C1C00012DE02FF090012CE03EF0900132E0FEEF
:104C2C00A3E0FF90012AE0FCA3E0FDD39FEE64809B
:104C3C00F8EC6480984020ED9FFFEC9E90012AF0E8
:104C4C00A3EFF0900134E0FEA3E0FF900139E02FD8
:104C5C00F0900138E03EF0900132E0FEA3E0FF90CE
:104C6C00012CE0FCA3E0FDD39FEE6480F8EC6480A3
:104C7C00984020ED9FFFEC9E90012CF0A3EFF0905C
:104C8C000136E0FEA3E0FF90013BE02FF090013AEB
:104C9C00E03EF0900129E004F07006900128E00459
:044CAC00F0024BC8FF
:014CB00022E1
:103AD2009000E1EEF0A3EFF0A3ECF0A3EDF0A3EA87
:043AE200F0A3EBF072
:103AE600E49000EEF0A3F0A3F0A3F09000E9E0FF6D
:103AF6007E00C39000E2E09F9000E1E09E5003024A
:103B06003D3D9000E6E09F9000E5E09E5003023DBB
:103B16003D9000E3E0FCA3E0FD9FEC9E5003023DD8
:103B26003D9000E8E09F9000E7E09E5003023D3D97
:103B36009000E9E070139000E1E0FEA3E0FF900042
:103B4600EAE0FAA3E0FB027CB79000E1E0FAA3E02A
:103B5600FBC39000E6E09BFE9000E5E09A9000F241
:103B6600F0A3CEF09000E3E0FEA3E0FFC39000E8F0
:103B7600E09FFF9000E7E09E9000F4F0A3EFF09046
:103B860000FCEAF0A3EBF09000E3A3E0FF9000FE58
:103B9600EEF0A3EFF09000F2E0FEA3E0FFD3940076
:103BA600EE64809480400A9000F8E4F0A304F0806C
:103BB60021EF4E70089000F8F0A3F0801574FF9086
:103BC60000F8F0A3F0C3E49FFFE49E9000F2F0A398
:103BD600EFF09000F4E0FEA3E0FFD39400EE6480E3
:103BE6009480400A9000FAE4F0A304F08021EF4E9E
:103BF60070089000FAF0A3F0801574FF9000FAF0B8
:103C0600A3F0C3E49FFFE49E9000F4F0A3EFF090CE
:103C160000F4E0FEA3E0FF9000F2E0FCA3E0FDD399
:103C26009FEE6480F8EC6480989000F64007ECF014
:103C3600A3EDF08005EEF0A3EFF0E49000ECF0A326
:103C4600F09000F7E02401FF9000F6E03400FED388
:103C56009000EDE09F9000ECE09E4003023D3D9019
:103C660000FEE0FCA3E0FD9000E9E0FB7A00A3E0A3
:103C7600FFA3E09001AFCFF0A3EFF09000FCE0FED1
:103C8600A3E0FF122E499000F2E0FEA3E0FF9000B1
:103C9600EFE02FF09000EEE03EF09000F4E0FEA39F
:103CA600E0FF9000F1E02FF09000F0E03EF0900091
:103CB600F6E0FEA3E0FF9000EEE0FCA3E0FDD39F5C
:103CC600EE6480F8EC6480984020ED9FFFEC9E90B7
:103CD60000EEF0A3EFF09000F8E0FEA3E0FF900006
:103CE600FDE02FF09000FCE03EF09000F6E0FEA331
:103CF600E0FF9000F0E0FCA3E0FDD39FEE6480F8C7
:103D0600EC6480984020ED9FFFEC9E9000F0F0A3BD
:103D1600EFF09000FAE0FEA3E0FF9000FFE02FF046
:103D26009000FEE03EF09000EDE004F0700690009A
:073D3600ECE004F0023C4741
:013D3D002263
:0E26D00090000CEEF0A3EFF0A3ECF0A3EDF001
:1026DE00E4900019F0A3F0A3F0A3F090000CE0FE3C
:1026EE00A3E0FFC3EB9FFFEA9E90001DF0A3EFF067
:1026FE0090000EE0FAA3E0FBC3900013E09BFE9067
:10270E000012E09A90001FF0A3CEF090000CE0FFB4
:10271E00A3E0900027CFF0A3EFF0A3EAF0A3EBF035
:10272E0090001DE0FEA3E0FFD39400EE6480948041
:10273E00400A900023E4F0A304F08021EF4E7008CD
:10274E00900023F0A3F0801574FF900023F0A3F007
:10275E00C3E49FFFE49E90001DF0A3EFF090001FD6
:10276E00E0FEA3E0FFD39400EE64809480400A90D4
:10277E000025E4F0A304F08021EF4E7008900025B0
:10278E00F0A3F0801574FF900025F0A3F0C3E49F32
:10279E00FFE49E90001FF0A3EFF090001FE0FEA359
:1027AE00E0FF90001DE0FCA3E0FDD39FEE6480F8F7
:1027BE00EC6480989000214007ECF0A3EDF08005CA
:1027CE00EEF0A3EFF0E4900017F0A3F0900022E0FB
:1027DE002401FF900021E03400FED3900018E09F0A
:1027EE00900017E09E4003022A99900014E07019A1
:1027FE00900027E0FEA3E0FFA3E0FCA3E0FD900025
:10280E0015E0FAA3E0FB127CB7900014E0640160BF
:10281E00030228A4900027E0FEA3E0FFA3E0FCA3A0
:10282E00E0FD900015E0FAA3E0FB127CB7900028C3
:10283E00E02401FF900027E03400FE900029E0FC28
:10284E00A3E0FD900015E0FAA3E0FB127CB7900028
:10285E0027E0FEA3E0FF90002AE02401FD9000296E
:10286E00E03400FC900015E0FAA3E0FB127CB79078
:10287E000028E02401FF900027E03400FE90002A9B
:10288E00E02401FD900029E03400FC900015E0FAF0
:10289E00A3E0FB127CB7900014E0640260030229EF
:1028AE00E8900027E0FEA3E0FFA3E0FCA3E0FD908C
:1028BE000015E0FAA3E0FB127CB7900028E024019B
:1028CE00FF900027E03400FE900029E0FCA3E0FD1D
:1028DE00900015E0FAA3E0FB127CB7900027E0FE13
:1028EE00A3E0FF90002AE02401FD900029E03400CF
:1028FE00FC900015E0FAA3E0FB127CB7900028E0F4
:10290E002401FF900027E03400FE90002AE024010D
:10291E00FD900029E03400FC900015E0FAA3E0FBE6
:10292E00127CB7900028E024FFFF900027E034FFD0
:10293E00FE90002AE02401FD900029E03400FC9076
:10294E000015E0FAA3E0FB127CB7900028E024010A
:10295E00FF900027E03400FE90002AE024FFFD9057
:10296E000029E034FFFC900015E0FAA3E0FB127C96
:10297E00B7900028E024FFFF900027E034FFFE9080
:10298E00002AE024FFFD900029E034FFFC900015A2
:10299E00E0FAA3E0FB127CB7900028E024FFFF9042
:1029AE000027E034FFFE900029E0FCA3E0FD90003C
:1029BE0015E0FAA3E0FB127CB7900027E0FEA3E03F
:1029CE00FF90002AE024FFFD900029E034FFFC90E8
:1029DE000015E0FAA3E0FB127CB790001DE0FEA309
:1029EE00E0FF90001AE02FF0900019E03EF090000A
:1029FE001FE0FEA3E0FF90001CE02FF090001BE014
:102A0E003EF0900021E0FEA3E0FF900019E0FCA351
:102A1E00E0FDD39FEE6480F8EC6480984020ED9F3B
:102A2E00FFEC9E900019F0A3EFF0900023E0FEA3C0
:102A3E00E0FF900028E02FF0900027E03EF090009D
:102A4E0021E0FEA3E0FF90001BE0FCA3E0FDD39F7E
:102A5E00EE6480F8EC6480984020ED9FFFEC9E9031
:102A6E00001BF0A3EFF0900025E0FEA3E0FF900026
:102A7E002AE02FF0900029E03EF0900018E004F0DC
:0B2A8E007006900017E004F00227DA49
:012A9900221A
:10759900FAE0FFA3E090001FCFF0A3EFF09002857F
:0575A900E0FEA3E0FF7D
:1075AE00900019EEF0A3EFF0A3ECF0A3EDF0A3EA38
:1075BE00F0A3EBF04A6069900304E0FCA3E0FD90B9
:1075CE000019E0FAA3E0FBD39DEA9C50539003060A
:1075DE00E0FEA3E0FF90001BE0FCA3E0FD9FEC9E0D
:1075EE00503EAF03AE02C006C00790001DE0FEA3E2
:1075FE00E0FF90001BE0F8A3E02FFFE83ECF24FF52
:10760E00CF34FF900029F0A3EFF090001FE0FFA30E
:10761E00E090002BCFF0A3EFF0D007D006127056FB
:01762E002239
:107A6D00900019EEF0A3EFF0A3ECF0A3EDF0EB4ACC
:107A7D006068900304E0FEA3E0FFD390001AE09F3E
:107A8D00900019E09E5053900306E0FEA3E0FF9096
:107A9D00001BE0FCA3E0FD9FEC9E503EAE02AF0349
:107AAD00900019E0FAA3E02FFFEA3ECF24FFFBEF91
:107ABD0034FFFAA3E0FFA3E0900029CFF0A3EFF08D
:107ACD0090001FE0FFA3E090002BCFF0A3EFF0900C
:0B7ADD000019E0FEA3E0FF127056222B
:105EF7009002C3EEF0A3EFF0A3ECF0A3EDF0A3EA5A
:045F0700F0A3EBF028
:105F0B00A3E07002A3E0700302603D9002C7E07053
:105F1B0002A3E0700302603D9002CEE020E003029A
:105F2B005FBAE4A3F0A3F09002C7E0FEA3E0FF90FA
:105F3B0002CFE0FCA3E0FDC39FEC9E400302603D5B
:105F4B009002C4E02DFF9002C3E03CFEC006C007E8
:105F5B009002C5E0FCA3E0FD9002CAE024FFFB9099
:105F6B0002C9E034FFFAC002C0039002D0E025E082
:105F7B00FF9002CFE033FE9002CBE0FBA3E0FAA34D
:105F8B00E0F98F828E83122BDDFF90001FE5F0F07E
:105F9B00A3EFF0D003D002D007D0061275AE90025B
:105FAB00D0E004F070819002CFE004F0025F32E4A5
:105FBB009002CFF0A3F09002C9E0FEA3E0FF9002A5
:105FCB00CFE0FCA3E0FDC39FEC9E50669002C6E0C1
:105FDB002DFD9002C5E03CFC9002C8E024FFFB9035
:105FEB0002C7E034FFFAC002C0039002D0E025E004
:105FFB00FF9002CFE033FE9002CBE0FBA3E0FAA3CD
:10600B00E0F98F828E83122BDDFF90001FE5F0F0FD
:10601B00A3EFF09002C3E0FEA3E0FFD003D0021287
:10602B007A6D9002D0E004F0708C9002CFE004F017
:02603B0080845F
:01603D002240
:06508D0090013C122D9978
:10509300E4900158F0A3F090013CE0FCA3E0FDA3F1
:1050A300E0FEA3E0FF7810122D86900149EFF0FB9C
:1050B30090013CE0FCA3E0FDA3E0FEA3E0FF780841
:1050C300122D8690014AEFF0FA90013CA3A3A3E0CE
:1050D300FFA90790014BE9F0900140E0FCA3E0FD3C
:1050E300A3E0FEA3E0FF7810122D86EBFDC3EF9D36
:1050F300FFEE940090014CF0A3EFF0900140E0FC30
:10510300A3E0FDA3E0FEA3E0FF7808122D86EAFDED
:10511300C3EF9DFEE4940090014EF0A3CEF0900106
:1051230040A3A3A3E0FFE9FDC3EF9DFEE494009039
:105133000150F0A3CEF0E4900158F0A3F0900147A2
:10514300E0FEA3E0FFC3900159E09F900158E09E69
:105153004003025275E0FAA3E0FB90014CE0FEA38A
:10516300E0FFAD03AC02122B14900147E0FCA3E077
:10517300FD122B26A3E07C002FFFEC3E900152F0A2
:10518300A3EFF090014EE0FEA3E0FFAD03AC0212EB
:105193002B14900147E0FCA3E0FD122B2690014A5B
:1051A300E07C002FFFEC3E900154F0A3EFF0900160
:1051B30050E0FEA3E0FFAD03AC02122B14900147B5
:1051C300E0FCA3E0FD122B2690014BE07C002FFFB7
:1051D300EC3E900156F0A3EFF0900152E0FEA3E005
:1051E3007803CEC313CE13D8F9F0EE900152F090AA
:1051F3000154E0FEA3E07802CEC313CE13D8F9F036
:10520300EE900154F0900156E0FEA3E07803CEC384
:1052130013CE13D8F9F0EE900156F0900154E0FE4E
:10522300A3E07805C333CE33CED8F9FDAC069001A5
:1052330053E033333354F84CFEEDFF900156E04E08
:10524300FCA3E04FFDEB25E0FFEA33FE900144E0D1
:10525300FBA3E0FAA3E0F98F828E83EC8DF0122C8E
:1052630015900159E004F07006900158E004F00233
:025273005140A8
:015275002216
:106724009001C1EEF0A3EFF0A3ECF0A3EDF0A3EA27
:04673400F0A3EBF0F3
:106738009001CDE0FCA3E0FDA3E0FEA3E0FF900103
:1067480040122D999001D5E0F9A3E0FAA3E0900159
:1067580044C9F0A3EAF0A3E9F09001C5E0FFA3E083
:10676800900147CFF0A3EFF09001C9E0FCA3E0FD52
:10677800A3E0FEA3E0FF12508DE49001D1F0A3F056
:106788009001C5E0FEA3E0FFC39001D2E09F900115
:10679800D1E09E400302682FE49001D3F0A3F0906B
:1067A80001C7E0FEA3E0FFC39001D4E09F9001D3AE
:1067B800E09E505F9001D1E0FAA3E0FB9001C2E0B7
:1067C8002BFF9001C1E03AFEC006C0079001D3E05C
:1067D800FEA3E0FF9001C4E02FFD9001C3E03EFC62
:1067E800EB25E0FFEA33FE9001D5E0FBA3E0FAA336
:1067F800E0F98F828E83122BDDFBAAF0D007D0063A
:10680800127CB79001D4E004F070949001D3E004B6
:10681800F0808C9001D2E004F06003026788900158
:07682800D1E004F0026788D3
:01682F002246
:1071F50090032DEEF0A3EFF0A3ECF0A3EDF0A3EADE
:10720500F0A3EBF0C007900335E0FFA3E090001F6B
:10721500CFF0A3EFF0D007127A6D900333E0FEA311
:10722500E0FF900330E02FFF90032FE03ECF24FFD7
:10723500FDEF34FFFC900331E0FAA3E0FB9003354A
:10724500E0FFA3E090001FCFF0A3EFF090032DE047
:10725500FEA3E0FF127A6D90032FE0FCA3E0FD9002
:107265000333E0FAA3E0FBA3E0FFA3E090001FCF08
:10727500F0A3EFF090032D1275A9900331E0FEA362
:10728500E0FF90032EE02FFF90032DE03ECF24FF7B
:10729500CF34FFFEC00790032FE0FCA3E0FD900371
:1072A50033E0FAA3E0FBA3E0FFA3E090001FCFF0DB
:0872B500A3EFF0D0070275AE53
:101C1900900285EEF0A3EFF0A3ECF0A3EDF0A3EAB8
:041C2900F0A3EBF049
:101C2D00E4900293F0A3F090028BE0FEA3E030E08D
:101C3D000A2401FFE43E900293800B90028BE0FF9B
:101C4D00A3E0900293CFF0A3EFF090028EE090020C
:101C5D008D7003021E78E0F975F002A4FFC39002A7
:101C6D008AE09FFB900289E095F0FAE9FF900286E9
:101C7D00E02FFF900285E03400FEC007900287E060
:101C8D00FCA3E0FD900293E0C313FFA3E0139000CB
:101C9D001FCFF0A3EFF090028FE0FFA3E0900021A3
:101CAD00CFF0A3EFF0D00712776090028DE0F975B9
:101CBD00F002A4FFC390028AE09FFB900289E09599
:101CCD00F0FAE9FF900286E02FFF900285E03400E4
:101CDD00FEC006C007900293E0C313FEA3E013FFFE
:101CED00900288E02FFD900287E03EFC900293E089
:101CFD00C313FFA3E01390001FCFF0A3EFF09002EA
:101D0D0091E0FFA3E0900021CFF0A3EFF0D007D03A
:101D1D000612776090028DE0F9FB7A00900288E060
:101D2D002BFD900287E03AFC900293E0C313FEA3D3
:101D3D00E013FFE9F582C3EF9582FFEE940090006A
:101D4D001FF0A3EFF090028F12774C900293E0C337
:101D5D0013FEA3E013FF900288E02FFD900287E0B1
:101D6D003EFC90028DE0F9FB7A00900293E0C313E4
:101D7D00FEA3E013FFE9F582C3EF9582FFEE940019
:101D8D0090001FF0A3EFF090029112774C90028912
:101D9D00E0FEA3E0FF900286E02FFF900285E03E7B
:101DAD00FE90028DE0F9FD7C00C3EF9DFFEE9CFEE1
:101DBD00C006C007900288E02DFD900287E03CFC34
:101DCD00E9FB7A00900293E0C313FEA3E013FFE951
:101DDD00F582C3EF9582FFEE940090001FF0A3EF04
:101DED00F090028FE0FFA3E0900021CFF0A3EFF081
:101DFD00D007D006127760900289E0FEA3E0FF9035
:101E0D000286E02FFF900285E03EFE90028DE0F904
:101E1D00FB7A00C3EF9BFFEE9AFEC006C00790024F
:101E2D0093E0C313FEA3E013FF900288E02FFD9013
:101E3D000287E03EFC900293E0C313FEA3E013FF84
:101E4D00E9F582C3EF9582FFEE940090001FF0A399
:101E5D00EFF0900291E0FFA3E0900021CFF0A3EF0F
:101E6D00F0D007D00612776002202BE0F975F00252
:101E7D00A4FFC390028AE09FFB900289E095F0FADF
:101E8D00C003E9FF900286E02FFF900285E0340049
:101E9D00FE900287E0FCA3E0FD90028FE0FBA3E043
:101EAD0090001FCBF0A3EBF0D003127A6D90028D52
:101EBD00E0F975F002A4FFC390028AE09FFB900247
:101ECD0089E095F0FAC002C003E9FF900286E02F89
:101EDD00FF900285E03400FE900293E0FCA3E0FD4C
:101EED00900287E0FAA3E02DFDEA3CCD24FFCD342E
:101EFD00FFFC900291E0FBA3E090001FCBF0A3EB61
:101F0D00F0D003D002127A6D90028DE0FB7A009032
:101F1D000288E02BFD900287E03AFC900293E0C32B
:101F2D0013FEA3E013C39BFBEE9A90028F127599DB
:101F3D00900293E0FAA3E0FBEAC313FEEB13FF90CC
:101F4D000288E02FFD900287E03EFCEAC313FEEB12
:101F5D0013FF90028DE0FBC3EF9BFBEE940090020C
:101F6D0091127599900289E0FEA3E0FF900286E040
:101F7D002FFF900285E03ECF24FFCF34FFFEC00639
:101F8D00C00790028DE0FB7A00900288E02BFD9057
:101F9D000287E03AFC900293E0C313FEA3E013C363
:101FAD009BFBEE9AFA90028FE0FFA3E090001FCF0B
:101FBD00F0A3EFF0D007D0061275AE900289E0FEC7
:101FCD00A3E0FF900286E02FFF900285E03ECF2434
:101FDD00FFCF34FFFEC006C007900293E0FAA3E0E6
:101FED00FBEAC313FEEB13FF900288E02FFD900276
:101FFD0087E03EFCEAC313FEEB13FF90028DE0FB7E
:10200D00C3EF9BFBEE9400FA900291E0FFA3E090EA
:10201D00001FCFF0A3EFF0D007D0061275AE9002DF
:10202D0087E0FCA3E0FD90028DE0F9FF7E009002B9
:10203D0085E0FAA3E02FFBEE3AFAA3E0F8A3E02F38
:10204D00FFEE38900196F0A3EFF0E9FF900285E0E6
:10205D00F8A3E02FFFEE38900198F0A3EFF0E9FF21
:10206D00900287E0F8A3E02FFFEE3890019AF0A3DD
:10207D00EFF0E9FFA3EEF0A3EFF090028F12544EB4
:10208D00900293E0FEA3E0FF900288E02FFF900204
:10209D0087E03EFE90028DE0F9FB7A00C3EF9BFDD9
:1020AD00EE9AFC900285E0FEA3E02BFBEA3EFA904F
:1020BD000293E0FEA3E0FF900287E0F8A3E02FFF7C
:1020CD00E83ECF24FFCF34FF900196F0A3EFF0E967
:1020DD00FF7E00900285E0F8A3E02FFFEE3890011F
:1020ED0098F0A3EFF0900293E0FEA3E0FF9002873B
:1020FD00E0F8A3E02FFFE83EFEE9F582C3EF9582FD
:10210D00FFEE9400CF24FFCF34FF90019AF0A3EFA0
:10211D00F0E9FFA3E4F0A3EFF090029112544E907A
:10212D000289E0FEA3E0FF900286E02FFB9002857E
:10213D00E03EFA90028DE0F9FFC3EB9FFFEA9400B9
:10214D00FEC006C007900287E0FCA3E0FDE9FF7E1C
:10215D0000900287E0F8A3E02FFFEE38900196F093
:10216D00A3EFF0900289E0FEA3E0FF900285E0F876
:10217D00A3E02FFFE83EFEE9F582C3EF9582FFEE67
:10218D009400CF24FFCF34FF900198F0A3EFF0E936
:10219D00FF7E00900287E0F8A3E02FFFEE3890015C
:1021AD009AF0A3EFF0E9FFA3EEF0A3EFF090028F0A
:1021BD00E0FFA3E090019ECFF0A3EFF090028EE040
:1021CD009001A0F0D007D00612546A900289E0FE6B
:1021DD00A3E0FF900286E02FFF900285E03EFE9087
:1021ED00028DE0F9FDC3EF9DFFEE9400FEC006C029
:1021FD0007900293E0FEA3E0FF900288E02FFF908E
:10220D000287E03EFEC3EF9DFDEE9400FC90028937
:10221D00E0FEA3E0FF900285E0FAA3E02FFBEA3E8B
:10222D00FA900293E0FEA3E0FF900287E0F8A3E0AE
:10223D002FFFE83ECF24FFCF34FF900196F0A3EFA0
:10224D00F0900289E0FEA3E0FF900285E0F8A3E0A4
:10225D002FFFE83EFEE9F582C3EF9582FFEE940075
:10226D00CF24FFCF34FF900198F0A3EFF0900293AD
:10227D00E0FEA3E0FF900287E0F8A3E02FFFE83E29
:10228D00FEE9F582C3EF9582FFEE9400CF24FFCFD8
:10229D0034FF90019AF0A3EFF0E9FFA3E4F0A3EF70
:1022AD00F0900291E0FFA3E090019ECFF0A3EFF03C
:0F22BD0090028EE09001A0F0D007D00602546A84
:10774C00E0FFA3E0900021CFF0A3EFF0900285E0E2
:04775C00FEA3E0FFA9
:10776000900019EEF0A3EFF0A3ECF0A3EDF0EB4ADC
:10777000606390001FE07002A3E0605990001BE07E
:10778000FCA3E0FDAE02AF03900019E0FAA3E02FE6
:10779000FFEA3ECF24FFFBEF34FFFA90001FE0FE2C
:1077A000A3E0FF90001BE0F8A3E02FFFE83ECF240A
:1077B000FFCF34FF900029F0A3EFF0900021E0FF0D
:1077C000A3E090002BCFF0A3EFF0900019E0FEA310
:0677D000E0FF12705622DA
:102E49009001A9EEF0A3EFF0A3ECF0A3EDF0A3EA53
:042E5900F0A3EBF007
:102E5D009001ADE0FEA3E0FF7C027DC3122DD6E410
:102E6D007BE87A03F9F8122CCDEF2401FFE43EFE46
:102E7D00E43DFDE43CFC9001B5122D999001ADE0CF
:102E8D00FEA3E0FF9001ADE0FCA3E0FD122DD6C046
:102E9D0004C005C006C0079001ADE0FEA3E0FFE44D
:102EAD00FCFD7B02FAF9F8122CCDD003D002D00133
:102EBD00D000EB2FFFEA3EFEE93DFDE83CFC900122
:102ECD00B9122D999001ADE0FAA3E0FBFFAE02E43B
:102EDD00FCFD9001BD122D99C39001AAE09BFF90BE
:102EED0001A9E09AFEC0079001ABE0FCA3E0FD90C4
:102EFD0001AEE025E0FB9001ADE033FA9001AFE0CB
:102F0D00FFA3E090001FCFF0A3EFF0D007127A6D72
:102F1D009001B1122DA5000000019001B5E0FCA3B8
:102F2D00E0FDA3E0FEA3E0FF9001B1E0F8A3E0F91E
:102F3D00A3E0FAA3E0FBD3122D7540030231E89014
:102F4D0001BDE0FCA3E0FDA3E0FEA3E0FFA804A902
:102F5D0005AA06FB122C42C004C005C006C007908E
:102F6D0001B1E0FCA3E0FDA3E0FEA3E0FFA804A9EE
:102F7D0005AA06FB122C42D003D002D001D000EFDF
:102F8D002BFFEE3AFEED39FDEC38FC9001B9E0F87F
:102F9D00A3E0F9A3E0FAA3E0FBC3122D75400302F1
:102FAD0030F19001B5E0FCA3E0FDA3E0FEA3E0FF4E
:102FBD009001BDE0F8A3E0F9A3E0FAA3E0FB122D28
:102FCD007550030230CF9001B1A3A3E0FEA3E0FF43
:102FDD009001AAE09FFF9001A9E09ECF2401CF347C
:102FED0000FEC006C0079001BDA3A3E0FEA3E0FF55
:102FFD009001ACE02FFD9001ABE03EFCC004C0059C
:10300D009001B1E0FCA3E0FDA3E0FEA3E024FFFFEF
:10301D00EE34FFFEED34FFFDEC34FFFCE47B02FAF1
:10302D00F9F8122C42AB07AA069001AFE0FFA3E01E
:10303D0090001FCFF0A3EFF0D005D004D007D0063D
