:1078330050726F677265737342617220546573741B
:017843000044
:04780B0041038900AC
:0556E100900001EFF054
:1056E600E4900006F0A3740CF0900300A3E0900091
:1056F60006F0EFC3940A50209000027420F0A3F045
:10570600900001E075F06484E5F075F00A84E5F038
:105716002430900004F08039900001E0FFC39464C7
:105726005007A37420F0EF800E900001E0FD75F0A5
:1057360064842430A3F0ED75F06484ADF0ED75F06B
:105746000A842430A3F0ED75F00A84E5F02430A332
:10575600F09000057425F0900389E0702204F09023
:10576600000EE4F0A3740FF0A37407F0A374E0F046
:105776007B647A007D327C007F0A7E00127069901D
:105786000001E0FB7A0090000EE4F0A3740FF0A392
:1057960074F8F0A3E4F07D32FC7F0AFE1270699083
:1057A6000001E0D39432403690000EE4F0A3740F6B
:1057B600F0A3E4F0A3741FF0900007E0900012F04D
:1057C600A37401F0A37400F0A37402F0A37401F0B3
:1057D6007B647A007D327C007F0A7E00803A9003EB
:1057E600007407F0A374E0F090000EE4F0A3740FC9
:1057F600F0A3E4F0A3741FF0900007E0900012F00D
:10580600A37401F0A37400F0A37402F0E4A3F07B88
:1058160064FA7D32FC7F0AFE12582F900006E0FFE4
:08582600900300E4F0A3EFF091
:01582E002257
:10716600E4900000F09002FE74F8F0A3E4F09002C0
:10717600F9E0FFA3E0900007CFF0A3EFF0A37410AF
:10718600F0A374FFF0A37478F0A37433F09002F7C1
:10719600E0FAA3E0FB7D0A7C007F0A7E001266BB54
:1071A60090000EE4F0A3740FF0A37407F0A374E04C
:1071B600F07B647A007D327C007F0A7E0012706963
:1071C6009000007401F0900000E0FFD3946450D06A
:1071D6001256E17F327E001277A5900000E004F09F
:0271E60080E443
:0B7852001277E01240C812716680FE41
:0B785D00EF1FAC0670011E4C70F622FD
:1077A500D3EF9400EE940040147D6E7C00ED1D70C7
:0D77B500011CED4C70F7EF1F70E61E80E325
:0177C20022A4
:05780F0042009500009D
:1077E000759850758920758780758DFA858D8BD237
:0677F000AFD28ED29922F7
:06787300EF24FF92AC229D
:0E784400C2ACC2998F993099FDC299D2AC2284
:1076AC00900384EBF0A3EAF0A3E9F0900384E0FBF1
:1076BC00A3E0FAA3E0F912319FFF60161278447F21
:1076CC00057E0012785D900385E475F00112325E40
:0376DC0080D92230
:030023000270DF89
:1070DF00C0E0C083C082C0D075D000C004C005C05E
:0170EF000799
:1070F000309864C298AF99900095E0FCEC20E75777
:1071000030E60FEF640A90009560028046E044800C
:10711000800AEFB40D0C900095E04440F0A3E0F03D
:107120008035900095E0543FFCA3E02463F5827421
:10713000003CF583EFF0900096E004F070069000BC
:1071400095E004F0D3900096E09431900095E0949F
:07715000004004E4F0A3F08D
:0F715700D007D005D004D0D0D082D083D0E03282
:10002600204C43442049443A25780D0A000000003C
:10003600000000000000000000000000003F40003B
:1000460000000000000000300040003000400000CA
:100056000009000BC03D000BC03D00090018C0247C
:10006600407FE0224031800000180024C01B000DB4
:10007600803240018003801C4027401C80074000DE
:1000860040100060000000000000000000000000BA
:100096000000001F80204040200000402020401F1C
:1000A6008000000000090006001F8006000900000D
:1000B60000040004003F800400040000000010005B
:1000C60060000000000000000004000400040004BA
:1000D60000040000000000004000000000000000D6
:1000E60000002001C006003800400000001F8020EC
:1000F60040204020401F800000000010403FC0000C
:10010600400000000018C021402240244018400052
:100116000010802040244024401B80000002000D77
:100126000011003FC0014000003C802440244024D0
:1001360040238000001F8024402440344003800078
:10014600003000200027C03800200000001B80245B
:1001560040244024401B8000001C0022C022402274
:10016600401F800000000000000840000000000062
:100176000000000000046000000000000000000411
:10018600000A00110020804040090009000900090A
:10019600000900000000004040208011000A000411
:1001A600001800200023402400180000001F8020B3
:1001B60040274029401F400000004007C039000F7B
:1001C6000001C0004020403FC0244024401B800066
:1001D600001F802040204020403080000020403F0B
:1001E600C0204020401F80000020403FC024402EF9
:1001F6004030C0000020403FC024402E00300000A8
:10020600000F001080204022403380020020403F33
:10021600C0040004003FC02040204020403FC020D2
:1002260040204000000060202020203FC020002009
:100236000020403FC024400B0030C0204020403FFB
:10024600C020400040004000C03FC03C0003C03C0E
:10025600003FC0000020403FC00C4023003FC020AC
:10026600001F802040204020401F80000020403F8B
:10027600C024402400180000001F80214021402097
:10028600E01FA0000020403FC02440260019C00007
:100296004018C02440244022403180000030002015
:1002A600403FC020403000000020003F800040005A
:1002B600403F80200020003E0001C007003800209B
:1002C60000380007C03C0007C03800000020403955
:1002D600C0060039C0204000002000384007C03862
:1002E6004020000000304021C02640384020C00099
:1002F60000000000007FE040204020000000007069
:10030600000C000380004000000000402040207FD9
:10031600E000000000000020004000200000000077
:100326000000100010001000100010001000000067
:1003360000400000000000000000000280054005AB
:100346004003C0004020003FC0044004400380003A
:100356000000000380044004400640000000000343
:1003660080044024403FC000400000038005400553
:100376004003400000000004401FC02440244020E9
:1003860000000002E0055005500650042020403FC2
:10039600C00440040003C000400000044027C00021
:1003A600400000000000100010041027E0000000CC
:1003B6000020403FC00140070004C0044020402008
:1003C600403FC000400040000007C0040007C004D2
:1003D6000003C00000044007C00440040003C0003E
:1003E600400000038004400440038000000410071E
:1003F600F004500440038000000000038004400421
:100406005007F00010044007C0024004000400003A
:1004160000000006400540054004C000000000043E
:10042600001F8004400040000004000780004004D4
:100436004007C000400400070004C0018006000415
:1004460000060001C0070001C006000000044006C7
:10045600C0010006C0044000000410071004E001BB
:1004660080060004000000044005C0064004400069
:10047600000000000004007BE040200000000000B7
:10048600000000FFF000000000000040207BE004B8
:1004960000000000004000800040002000200040D6
:1004A6000000000000000000000000000000000046
:1004B600000000000000001FCC000C00000000003F
:1004C60000000008003000600008003000600000F6
:1004D60000022003FC1E20022003FC1E2002200036
:1004E6000000000E1811043FFF10840C7800000075
:1004F600000F0010840F3800C007781884007800B9
:100506000000780F8410C411240E9800E4008400C3
:1005160008080068007000000000000000000000ED
:100526000000000000000007E01818200440020048
:1005360000000040022004181807E0000000000038
:10054600000240024001800FF0018002400240009C
:10055600000080008000800FF8008000800080008E
:10056600000001000D000E00000000000000000069
:100576000000000080008000800080008000800075
:10058600800000000C000C000000000000000000CD
:100596000000000006001800600180060018002018
:1005A60000000007F0080810041004080807F0000F
:1005B600000000080408041FFC00040004000000FA
:1005C6000000000E0C10141024104411840E0C00B0
:1005D6000000000C1810041104110412880C70009D
:1005E60000000000E00320042408241FFC0024006F
:1005F6000000001F98108411041104108810700068
:1006060000000007F0088811041104188800700023
:100616000000001C00100010FC13001C001000005D
:100626000000000E3811441084108411440E380066
:100636000000000700088C10441044088807F000EA
:1006460000000000000000030C030C000000000086
:10065600000000000000010106000000000000008C
:100666000000000080014002200410080810040069
:100676000002200220022002200220022002200086
:100686000000001004080804100220014000800049
:100696000000000E001200100C106C10800F0000FD
:1006A6000003E00C1813E4142417C4082807D0002C
:1006B600000004003C03C41C40074000E4001C008A
:1006C6000410041FFC1104110411040E88007000AC
:1006D6000003E00C1810041004100410081C10008D
:1006E6000010041FFC100410041004080807F00092
:1006F6000010041FFC1104110417C410040818008C
:100706000010041FFC1104110017C010000800009F
:100716000003E00C181004100410441C780040007C
:100726000010041FFC10840080008010841FFC1041
:10073600040000100410041FFC1004100400000044
:100746000000030001100110011FFE100010000040
:100756000010041FFC110403801464181C1004000C
:100766000010041FFC1004000400040004000C0028
:100776000010041FFC1F0000FC1F001FFC100400DB
:100786000010041FFC0C04030000E010181FFC10EE
:100796000007F00808100410041004080807F00009
:1007A6000010041FFC10841080108010800F0000C1
:1007B6000007F0081810241024101C080A07F2007D
:1007C6000010041FFC1104110011C011300E0C00A2
:1007D6000400000E1C11041084108410441C380000
:1007E600001800100010041FFC1004100018000070
:1007F6000010001FF810040004000410041FF81075
:100806000010001E0011E0001C007013801C001078
:10081600001FC0103C00E01F0000E0103C1FC0009D
:10082600001004180C163401C001C01634180C1040
:100836000410001C00130400FC13041C001000002C
:10084600000804101C1064108413041C0410180003
:10085600000000000000007FFE400240024002004F
:1008660000000030000C0003800060001C00030044
:100876000000004002400240027FFE00000000002F
:100886000000000000200040004000400020000062
:10089600000001000100010001000100010001004B
:1008A60001000040004000200000000000000000A1
:1008B6000000000098012401440144014400FC00AA
:1008C6000410001FFC008801040104008800700069
:1008D6000000000070008801040104010400880083
:1008E600000000007000880104010411081FFC00CC
:1008F60004000000F8014401440144014400C8001A
:10090600000000010401040FFC1104110411001879
:1009160000000000D601290129012901C9010600AC
:100926000010041FFC008401000100010400FC000B
:100936000400000104190419FC000400040000006E
:10094600000000000300010101190119FE0000006A
:100956000010041FFC0024004001B4010C01040037
:10096600000000100410041FFC0004000400000036
:1009760000010401FC0104010001FC010401000066
:10098600FC010401FC008401000100010400FC00DC
:1009960004000000F8010401040104010400F80049
:1009A60000010101FF0085010401040088007000B8
:1009B6000000000070008801040104010501FF0029
:1009C600010104010401FC0084010401000180000E
:1009D60000000000CC012401240124012401980018
:1009E6000000000100010007F801040104000000F6
:1009F60000010001F8000400040004010801FC00E5
:100A060004010001800170000C00100160018001EA
:100A16000001F0010C003001C00030010C01F001B2
:100A26000000000104018C00740170018C010400B7
:100A360000010101810171000E00180160018001B1
:100A46000000000184010C013401440184010C0002
:100A560000000000000000000001003EFC400240D3
:100A6600020000000000000000FFFF000000000080
:100A7600000000400240023EFC01000000000000B1
:100A86000000006000800080004000400020002040
:100A96000000000000000000000000000000000050
:100AA6000000000000000000000000000000000040
:100AB6000000000000000000000000000000000030
:100AC600000000000F80380FFE380F80380000004D
:100AD600000000000000000000000000000000010F
:100AE60000000600000C000038000031000006007F
:100AF600000C00003800003000000000000000007C
:100B06000061800067F807F980006180006180005D
:100B160061800061800067F807F98000618000004D
:100B26000000000000000001C0E003E0F00630080D
:100B36000418081FFFFE040E080787F00381E00073
:100B4600000000000001F000060C00040408060C7A
:100B56007001F9C0000E00003BE000EC1807080821
:100B6600040C180003E00000000001E00007F00399
:100B7600F818041C0804170807E1D003C0E0002396
:100B8600B0003C0800200800001000000000000033
:100B96000100003100003200001C000000000000CF
:100BA600000000000000000000000000000000003F
:100BB600000000000000000000000000000000002F
:100BC600007F0001FFC00780F00C00181000042011
:100BD60000020000000000002000021000040C00CB
:100BE600180780F001FFC0007F0000000000000031
:100BF60000000000000000000000000000420000AD
:100C06006600006600003C0000180003FFC00018E4
:100C160000003C0000660000660000420000000084
:100C26000008000008000008000008000008000195
:100C3600FFC00008000008000008000008000008C7
:100C46000000000000000100003100003200001C1E
:100C5600000000000000000000000000000000008E
:100C66000000000000000000000800000800000866
:100C76000000080000080000080000080000080046
:100C8600000800000800000000000000000000004E
:100C960000380000380000380000000000000000A6
:100CA600000000000000000000000000000000003E
:100CB60000000600001C000070000180000E00000D
:100CC600380000C0000700001C00003000000000D3
:100CD60000000000007F8001FFE00380700600181E
:100CE60004000804000806001803807001FFE000F5
:100CF6007F800000000000000000000100080100E5
:100D06000801000803FFF807FFF8000008000008C4
:100D160000000800000000000000000001C03802CA
:100D2600C058040098040118040218040418061C8C
:100D36001803F81801E0F8000000000000000000A9
:100D460001C0E003C0F0040008040808040808060F
:100D5600180803F41801E7F00001E00000000000A5
:100D660000000000000300000D00001100006100FB
:100D760000810803010807FFF80FFFF800010800CB
:100D860001080000000000000000E007FCD0060893
:100D960008061008061008061008061838060FF090
:100DA6000607C0000000000000000000003F8001B0
:100DB600FFE0038430020818041008041008041029
:100DC60008071810030FF00007C00000000000001D
:100DD60000000003C0000700000600000600F80639
:100DE60007F806180006E0000700000600000000ED
:100DF6000000000001E1E003F7F0063410041808D3
:100E0600041808040C08040C0806161803F3F0016D
:100E1600C1E000000000000000F80003FC300306FB
:100E2600380402080402080402080404100308F047
:100E360001FFC0007F00000000000000000000006D
:100E460000000000000000000070380070380070DC
:100E56003800000000000000000000000000000054
:100E660000000000000000000000000000301A0032
:100E7600301C000000000000000000000000000020
:100E8600000000000000000008000014000022001E
:100E9600004100008080010040020020040010088C
:100EA60000080000000000000021000021000021D1
:100EB6000000210000210000210000210000210087
:100EC60000210000210000000000000000000008D2
:100ED600000804001002002001004000808000414C
:100EE60000002200001400000800000000000000BE
:100EF60003C00004C000040000080038080F3808CA
:100F060008380810000C300007E00003C00000009D
:100F160000000000003F8000FFE0038070020F1019
:100F260006708804C088048308047F8802C0900382
:100F3600012000FE400000080000180001F8003EF5
:100F46000801C20007020007E20000FE00001FC8F9
:100F56000001F800003800000804000807FFF80741
:100F6600FFF8040808040808040808040808061816
:100F76000803F41801E7F00001E00000000000009B
:100F8600003F8001FFE0038070020018040008049F
:100F960000080400080400100600200780C00000B6
:100FA6000004000807FFF807FFF80400080400081B
:100FB60004000804001802001003807001FFE0001E
:100FC6007F8000000004000807FFF807FFF8040808
:100FD60008040808040808040808043E0804000871
:100FE60006001801006000000004000807FFF8076B
:100FF600FFF8040808040800040800040800043E7A
:10100600000600000600000180000000000000004D
:10101600003F8001FFE0038070060018040008040A
:1010260002080402080203F00783F000020000022F
:101036000004000807FFF807FFF804080800080086
:1010460000080000080000080004080807FFF80769
:10105600FFF8040008000000000000040008040077
:101066000804000807FFF807FFF804000804000852
:101076000400080000000000000000000000060058
:10108600000700000104000104000104000307FF3B
:10109600FE07FFFC04000004000004000004000832
:1010A60007FFF807FFF8040C08001800003E0004CC
:1010B600C7800503C80600F80400380400180000BD
:1010C6000804000807FFF807FFF8040008000008F6
:1010D60000000800000800000800000800001800D2
:1010E600006000000004000807FFF807800807FCFE
:1010F60000007FC00003F80007C0007800078008E2
:1011060007FFF807FFF804000804000807FFF807C0
:10111600000803C00000E000003800001E000007C1
:10112600000001C00400F007FFF804000000000002
:10113600007F8001FFE003807006001804000804A9
:10114600000806001803003001FFE0007F80000061
:101156000004000807FFF807FFF804040804040069
:10116600040400040400040400060C0003F8000153
:10117600F000000000000000007F8001FFE0038017
:10118600700600880400880400C806003C03003E80
:1011960001FFE6007F8400000004000807FFF8074F
:1011A600FFF8040808040800040C00040F00040BF0
:1011B600C00610F003F03801E00800000800000047
:1011C60001E0F803F030063010041808041808048B
:1011D6000C08040C080206180207F00781E000005C
:1011E600000180000600000400000400000400085E
:1011F60007FFF807FFF804000804000004000006D3
:10120600000001800004000007FFE007FFF0040073
:101216001800000800000800000800000800000888
:1012260004001007FFE004000004000006000007A9
:10123600E00007FE00041FE00001F800003800018E
:10124600E0043E0007C000060000040000040000A1
:1012560007E00007FFC0041FF80007C007F80007F3
:10126600FF80043FF80007C004F8000700000400F0
:101276000000000004000806001807C07805F1C841
:10128600003E00001F800463E80780F8060018048B
:10129600000800000004000006000007800007E0C8
:1012A60008047C08001FF80007F800180804E00886
:1012B6000700000600000400000000000100080608
:1012C60000380400F80403E8040F08047C0805F05D
:1012D6000807C008070018040060000000000000AE
:1012E6000000000000000000000000003FFFFE209C
:1012F600000220000220000220000220000200005E
:101306000000000000000008000007000000C00008
:101316000038000006000001C000003000000E008A
:101326000001000000000000000000200002200074
:10133600022000022000022000023FFFFE00000003
:101346000000000000000000000000000000000097
:1013560000000800001000003000002000003000EF
:10136600001000000800000000000000000000015E
:101376000000010000010000010000010000010062
:101386000001000001000001000001000001000052
:101396000100000000000000000020000020000006
:1013A6001000001000000000000000000000000017
:1013B60000000000000000000000F00019F8001B0B
:1013C60018002208002608002408002410003FF810
:1013D600001FF800000800001800000004000007C5
:1013E600FFF80FFFF0001818001008002008002072
:1013F60008003018001FF0000FC0000000000000B9
:101406000007C0001FF00018300020080020080068
:101416002008003C08001C100000600000000000CE
:10142600000000000007C0001FF000381800200868
:1014360000200800200804101007FFF80FFFF00036
:1014460000100000000000000000000007C0001FA0
:10145600F00012300022180022080022080032088C
:10146600001E10000E2000000000000000200000FA
:10147600200800200801FFF803FFF80620080420D2
:1014860008042008072000030000000000000000F8
:1014960000000E000E6E001FF30031B10020B100F7
:1014A60020B1003191001F13002E1E00200E0030C7
:1014B6000000000004000807FFF80FFFF8001008FE
:1014C600002000002000002008003FF8001FF80060
:1014D60000080000000000000000000020080020B6
:1014E60008002008063FF8063FF80000080000083C
:1014F60000000800000000000000000000000000DE
:101506000003000003002001002001002003063F25
:10151600FE063FFC00000000000000000000000086
:1015260004000807FFF80FFFF80001880003000019
:101536002FC00038F80020380020080000080000FE
:101546000000000000000004000804000804000871
:1015560007FFF80FFFF80000080000080000080069
:101566000000000000002008003FF8003FF80010CF
:1015760008002000003FF8003FF800100800200097
:10158600003FF8003FF800000800000000200800B7
:101596003FF8003FF800100800100000200000206F
:1015A60008003FF8001FF8000008000000000000D7
:1015B6000007C0000FF000183000300800200800B7
:1015C6002008003008001830000FF00007C00000A7
:1015D60000000000002001003FFF003FFF00101147
:1015E600002009002008002008003038001FF00005
:1015F6000FC00000000000000007C0001FF0003808
:1016060018002008002008002009001011001FFF04
:10161600003FFF0000010000000020080020080035
:101626002008003FF8003FF80008080010080020D6
:10163600080020000030000030000000000000001C
:10164600000000000C78001E180033080023080074
:1016560021080021880021980030F0003860000041
:101666000000000000200000200000200000FFF025
:1016760003FFF800200800200800200800003000C2
:101686000000000000000000002000003FF0007F86
:10169600F8000018000008000008002010003FF8BD
:1016A600007FF00000100000000000000020000095
:1016B6003000003C00003F800023F000007800006E
:1016C60070002380003C0000300000200000200055
:1016D600003C00003FE00023F80000E00027000087
:1016E6003E00003FE00021F80001E0003E0000203F
:1016F60000000000002008002008003838003E687E
:101706000027800003C8002CF80038380020180095
:101716002008000000000000002000003003003C0C
:1017260001003F830023EC000070002380003C0092
:101736000020000020000000000000000000000063
:1017460038080020380020F80023E8002F88003EE3
:101756000800380800201800007000000000000093
:10176600000000000000000000000000000800006B
:1017760014001FF7FC3000062000020000000000E5
:101786000000000000000000000000000000000053
:10179600000000FFFFFF0000000000000000000046
:1017A60000000000000000000000002000023000E1
:1017B600061FF7FC001400000800000000000000EF
:1017C600000000000000000000000000180000609B
:1017D600000040000040000020000010000008004B
:1017E600000400000400000C0000100000C6D50034
:1017F60000000000E0380000783C00003C78000063
:101806003C70C0001CE1E01FFFFFF0001CE3000E6F
:101816001CE7C0079CE78003DCEF0003DCEE000159
:10182600DCFC60009CF9F07FFFFFF800000000017F
:10183600C00E0001FFFF0001C00E0001C00E000136
:10184600C00E0001FFFE0001C00E0001C00E000127
:10185600C00E0001FFFE0001C00E0001C00E000018
:10186600000000D6D000000000000700000007803E
:101876000000070000000700000007000000070145
:10188600801FFFFFE01FFFFFE01E0701C01E0701CC
:10189600C01E0701C01E0701C01E0701C01E0701AA
:1018A600C01FFFFFC01FFFFFC01E0701C01C0701AE
:1018B6008000070000000700000007000000070086
:1018C60000000700000007000000070000000700F6
:1018D600000007000000000000BFC6000000000076
:1018E600000780003C07C001FC07803FE007803905
:1018F600C1C78001C0E78001C0F78001C0778001C1
:10190600DE77807FFE078001C0078003C3C78003A0
:10191600E1E78003F8F78007FCE7F00FDE67F80FD2
:10192600DC07F81FC0FF801DDFE78039CC07807118
:10193600C0078061C0078001C0078001C007800121
:10194600E0078001E0078001C0070000000000BC3E
:10195600BC000000000380300003C03C0003C03C14
:101966000003C0380003C0380003C0386003F838ED
:10197600F07FFFFFF003C0380003C0380003C03813
:101986000003DC39C003FFFFE007E383C03FC183E8
:10199600C07FC1C3803BC1C78003C0EF0003C0EF57
:1019A6000003C07E0003C07C0003C07C0003C0FEB1
:1019B600003BC3EF803F8787F80FBF03F807780027
:1019C600E000000000C4EA0000000000C0000001C2
:1019D600F0000001E0000003C000C003C001E00702
:1019E600FFFFF00703C0000E03C0001E03C0003C4B
:1019F60003C3007303C78063FFFFC00383C00003F4
:101A060083C0000383C0000383C0000383C0600358
:101A160083C0F07FFFFFF80003C0000003C0000092
:101A260003C0000003C0000003C0000003C00000A4
:101A360003C0000003C00000000000D4C200000084
:101A4600000000000000E0070000FFFF8000F00734
:101A56008000F0070000F0070000F0070000F00724
:101A66000000FFFF0000FFFF0000F0070000F00786
:101A76000000F0070000F0070000E0070000FFFF8D
:101A86000000E0070000E0070000E0070001E007B3
:101A96000001C0070001C00700038007000780F7A8
:101AA600000F007F001E001F0038001C0000000011
:101AB60000C8D5000000000000000003000300037A
:101AC600FFFF8003FFFF80038007000380070003FA
:101AD60080070003800700038007000380070003D8
:101AE6008007000380070003FFFF00038007000351
:101AF60080070003800700038007000380070003B8
:101B060080070003800700038007000380070003A7
:101B1600FFFF000380070003800700038007000320
:101B260000000000000000D0C70000000000000018
:101B3600000380070003FFFF800380070003800780
:101B4600000380070003FFFF0003800700038007F0
:101B56000003FFFF0003FFFF00038707000387C0A2
:101B66000003C7810003C7838007FFFFC007078004
:101B7600000F0780001E0786001C078F003BFFFF33
:101B8600807007800000078000000780E000078162
:101B9600F07FFFFFF80000000000000000C6DA003A
:101BA60000000006000000079E0000079E7FF00769
:101BB6009E7FF0079FF8F03FFFF8F01F9E78F00732
:101BC6009E78F0079E78F007FE7FF0079E78F00774
:101BD6009E78F0079E70F007FE70F0079E70F00783
:101BE6009E7FF0079FFFF03FFFF0F0119070F0032B
:101BF600DCF0F003DEE0F0078FE0F00F0FE0F00E10
:101C060007C0F01C038FF0380F03E0201C01C00052
:031C1600000000CB
:0A7814004202FEFFFF4203000000E5
:10000300E4FDFCC3ED9FEC9E5014E4FBFA0BBB0034
:0E001300010AEBF44A70F60DBD00010C80E509
:0100210022BC
:08770D007E00127715E4FFFE77
:04771500AD07AC060A
:10771900ECFFAE05D2A5C2A7D2B2C2A68F90C2A570
:0C772900D2A5AF068F90C2A5D2A5D2A7B2
:017735002231
:0D76DF007E0012771590005BE0FEA3E0FF37
:0476EC00AD07AC0634
:1076F000ECFFAE05D2A5C2A7D2B2D2A68F90C2A58A
:0C770000D2A5AF068F90C2A5D2A5D2A7DB
:01770C00225A
:0877360090036DE0FEA3E0FFEB
:04773E00AD07AC06E1
:10774200ECFFAE05D2A5C2A7D2B2D2A68F90C2A537
:0C775200D2A5AF068F90C2A5D2A5D2A789
:01775E002208
:06781F007C107F037E00D7
:0E782500AB05AA04127715AE02AF030276EC93
:107786007590FF7580FFC2A7D2A6C2B200AF90EF78
:0E779600FED2B2C2B200AD90EDFFD2B2D2A7C9
:0177A40022C2
:10744200EF7026FD7C057F01FE1278257D301278D3
:107452001F9002F9E4F0A374DCF09002F7E4F0A3C9
:1074620074B0F0E49002FDF0227D007C047F017E86
:10747200001278257D3812781F9002F9E4F0A37487
:10748200B0F09002F7E4F0A374DCF09002FD740116
:02749200F022E6
:1040C800D2B37F647E001277A5C2B37F647E0012EC
:1040D80077A5D2B37F647E001277A5E4FFFE12773E
:1040E800151277869002FBEEF0A3EFF07BFF7A00C3
:1040F8007926900003EEF0A3EFF0122EA5E4FFFE60
:104108001277157F017E001276EC7F0A7E00127806
:104118005D7F0712770D7F1212770D7FA47E001244
:1041280077157F017E001277157F0A7E0012785D71
:104138007F707E001277157F007E9B1276EC7F07DA
:104148007E001277157F317E001276EC7F187E0094
:104158001277157F017E001276EC7F107E001277B1
:10416800157FB07E111276EC7F117E001277157FD5
:10417800077E001276EC7F127E001277157F177E7D
:10418800101276EC7F137E001277157F0D7E851254
:1041980076EC7F147E001277157F007E801276EC15
:1041A8007F127E001277157F3C7E101276EC7F9688
:1041B8007E001200037F011277157F007E051276BC
:1041C800EC7F027E001277157F007E071276EC7F67
:1041D800037E001277157F307E101276EC7F087E02
:1041E800001277157408FFFE1276EC7F0B7E001222
:1041F80077157F007E111276EC7F0C7E0012771502
:10420800E4FFFE1276EC7F0F7E001277157F017EA9
:10421800141276EC7F157E00127715E4FFFE1276F5
:10422800EC7F207E00127715E4FFFE1276EC7F21EA
:104238007E00127715E4FFFE1276EC7F507E0012A6
:104248007715E4FFFE1276EC7F517E001277157F1A
:10425800AF7E001276EC7F527E00127715E4FFFEE7
:104268001276EC7F537E001277157FDB7E00127684
:10427800EC7F707E001277157F007E1B1276EC7F34
:10428800717E00127715E4FFFE1276EC7F907E00B7
:10429800127715E4FFFE1276EC7F917E00127715F7
:1042A8007F007E011276EC7F927E001277157F01E7
:1042B8007E001276EC7F597E001277157F0C7E0502
:1042C8001276EC7F907E001277157F107E001276B2
:1042D800EC7F927E001277157F007E061276EC7FC7
:1042E800077E001277157F337E021276EC7F327ECE
:1042F800001200037F22127715E4FF127442900324
:0943080000E0FEA3E0FF0271E8F1
:056F3800E0FEA3E0FFF4
:106F3D0090005BEEF0A3EFF0A3ECF0A3EDF0900268
:106F4D00FDE070357F50FE1276E17F517E001277A5
:106F5D0015AF03AE021276EC7F527E00127715A3A9
:106F6D001276E77F537E001277159000611276E757
:106F7D007F201276DF7F2180327F521276DF7F53A2
:106F8D007E00127715AE02AF031276EC7F507E00B5
:106F9D00127715A31276E77F517E001277159000B8
:106FAD00611276E77F211276DF7F207E0012771542
:0C6FBD00A31276E77F227E0012771522D7
:0E6AF600900333EEF0A3EFF0A3ECF0A3EDF06D
:106B0400E4A3F0A304F0A3E4F0A304F09002F7E0FC
:106B1400FEA3E0FFC3900334E09F900333E09E5054
:106B2400159002F9E0FEA3E0FFC3900336E09F90C6
:106B34000335E09E4004E4FEFF22900335E0FCA30D
:106B4400E0FD900333E0FAA3E0FBA3E0FFA3E090B1
:106B54000061CFF0A3EFF0900333126F3812778601
:106B6400AB07AA06127786AA06AB07EA13131354D7
:106B74001FFF900339E4F0A3EFF0EB7805CEC313C5
:106B8400CE13D8F9543FFF900337E4F0A3EFF07C21
:106B940000EB541FFD900337E0FEA3E07805C333F8
:106BA400CE33CED8F9FBAA06ED33333354F84AFE7C
:106BB400EBFF900339E04EFAA3E04FAC02AE04FFC2
:016BC40022AE
:0871E800900000EEF0A3EFF0AF
:1071F000E4A3F0A3F09002F8E024FFFB9002F7E094
:1072000034FFFA9002FAE024FFFE9002F9E034FF26
:10721000900061F0A3CEF0E4FDFCFFFE126F3DE4B0
:10722000FAFBD39002F8E09B9002F7E09A4039E431
:10723000900002F0A3F09002F9E0FEA3E0FFC390FB
:107240000003E09F900002E09E501690000012772D
:1072500039900003E004F070DD900002E004F0805B
:08726000D50BBB00010A80BA46
:017268002203
:106A2600900014ECF0A3EDF0900012EEF0A3EFF05E
:086A3600900016EAF0A3EBF05A
:106A3E00E490001CF0A3F0D3EF9BEE9A4003026AA1
:106A4E00F5900018E0FEA3E0FF900014E0FCA3E038
:106A5E00FD9FEC9E4003026AF5900016E0FAA3E05B
:106A6E00FBA3E0FFA3E0900061CFF0A3EFF0900056
:106A7E0012126F38900012E0FEA3E0FFC3900017D1
:106A8E00E09FFF900016E09ECF2401CF34009000CF
:106A9E0012F0A3EFF0A3E0FEA3E0FFC3900019E015
:106AAE009FFF900018E09ECF2401CF340090001479
:106ABE00F0A3EFF090001274FFF5F012327445F06F
:106ACE006025900014E0FFA3E090001CCFF0A3EF30
:106ADE00F090001C74FFF5F012327445F060D59002
:076AEE00001A12773980EA5B
:016AF500227E
:0E62EB0090021EEEF0A3EFF0A3ECF0A3EDF096
:1062F90090021EE0FEA3E0FFC3EB9FFFEA9ECF24BE
:1063090001CF340090022BF0A3EFF0900220E0FEC1
:10631900A3E0FFC3900225E09FFF900224E09ECFF7
:106329002401CF3400900229F0A3EFF0900220E07D
:10633900FCA3E0FD900224E0FFA3E0900061CFF010
:10634900A3EFF090021E126F38E490022DF0A3F033
:10635900900229E0FEA3E0FFC390022EE09F900285
:106369002DE09E5074E490022FF0A3F090022BE0F0
:10637900FEA3E0FF90022FE0FAA3E0FBC39FEA9E91
:10638900504690022BE0FCA3E0FDA3E0FEA3E0FF52
:106399001231F7EB2FFFEA3EFEEF25E0FFEE33FE69
:1063A900900226E0FBA3E0FAA3E0F98F828E831224
:1063B900328AFFAEF012773E900230E004F070AC02
:1063C90090022FE004F080A490022EE004F0708087
:0963D90090022DE004F00263596A
:0163E2002298
:1075B900900308FEE0FCA3E0FDC3900305E09DFDF8
:0675C900900304E09CFCAD
:1075CF00AB07AA068D828C83C006C007AE83AF823D
:1075DF00900061EEF0A3EFF0D007D006126F3D9050
:0A75EF0002FEE0FEA3E0FF02773E7B
:06752D00FDE0FAA3E0FB03
:10753300900055EEF0A3EFF0900059EAF0A3EBF0C2
:10754300900057ECF0A3EDF0900055E0FAA3E0FBB8
:10755300FFAE02C007A3E0FFA3E0900061CFF0A35A
:10756300EFF0D007126F3D900059E0FEA3E0FF0259
:02757300773E61
:10736400900363EEF0A3EFF0A3ECF0A3EDF0A3EA37
:10737400F0A3EBF0127533900364E02401FF900353
:1073840063E03400FE900365E0FCA3E0A312752DD6
:10739400900363E0FEA3E0FF900366E02401FD9008
:1073A4000365E03400FC90036712752E900364E0DB
:1073B4002401FF900363E03400FE900366E024019F
:1073C400FD900365E03400FC900367E0FAA3E0FB62
:0373D4000275330C
:0E472F00900175EEF0A3EFF0A3ECF0A3EDF017
:10473D00E490017DF0A3F0A3F0A3F0A3F0A3F0901B
:10474D000175E0FEA3E0FFC3EB9FFFEA9E9001839E
:10475D00F0A3EFF0900177E0FAA3E0FBC390017CAA
:10476D00E09BFE90017BE09A900185F0A3CEF09046
:10477D000175E0FFA3E090018DCFF0A3EFF0A3EA68
:10478D00F0A3EBF0900183E0FEA3E0FFD39400EEE5
:10479D0064809480400A900189E4F0A304F08021A4
:1047AD00EF4E7008900189F0A3F0801574FF900111
:1047BD0089F0A3F0C3E49FFFE49E900183F0A3EF83
:1047CD00F0900185E0FEA3E0FFD39400EE648094A9
:1047DD0080400A90018BE4F0A304F08021EF4E702D
:1047ED000890018BF0A3F0801574FF90018BF0A35E
:1047FD00F0C3E49FFFE49E900185F0A3EFF09001DC
:10480D0085E0FEA3E0FF900183E0FCA3E0FDD39FD4
:10481D00EE6480F8EC6480989001874007ECF0A37B
:10482D00EDF08005EEF0A3EFF0E490017DF0A3F044
:10483D00900188E02401FF900187E03400FED390C1
:10484D00017EE09F90017DE09E400302491D900195
:10485D008DE0FEA3E0FFA3E0FCA3E0FD1275CF9079
:10486D000183E0FEA3E0FF900180E02FF090017F37
:10487D00E03EF0900185E0FEA3E0FF900182E02F85
:10488D00F0900181E03EF0900187E0FEA3E0FF9003
:10489D00017FE0FCA3E0FDD39FEE6480F8EC648023
:1048AD00984020ED9FFFEC9E90017FF0A3EFF090DC
:1048BD000189E0FEA3E0FF90018EE02FF090018DC5
:1048CD00E03EF0900187E0FEA3E0FF900181E0FC67
:1048DD00A3E0FDD39FEE6480F8EC6480984020ED5A
:1048ED009FFFEC9E900181F0A3EFF090018BE0FE15
:1048FD00A3E0FF900190E02FF090018FE03EF0904B
:10490D00017EE004F0700690017DE004F002483D68
:01491D002277
:0E491E0090011BEEF0A3EFF0A3ECF0A3EDF080
:10492C00E4900127F0A3F0A3F0A3F090011BE0FEAC
:10493C00A3E0FFC3EB9FFFEA9E90012BF0A3EFF0E7
:10494C0090011DE0FAA3E0FBC3900122E09BFE90D6
:10495C000121E09A90012DF0A3CEF090011BE0FF15
:10496C00A3E0900135CFF0A3EFF0A3EAF0A3EBF0B6
:10497C0090012BE0FEA3E0FFD39400EE64809480C2
:10498C00400A900131E4F0A304F08021EF4E70084E
:10499C00900131F0A3F0801574FF900131F0A3F079
:1049AC00C3E49FFFE49E90012BF0A3EFF090012D48
:1049BC00E0FEA3E0FFD39400EE64809480400A9064
:1049CC000133E4F0A304F08021EF4E700890013322
:1049DC00F0A3F0801574FF900133F0A3F0C3E49FB3
:1049EC00FFE49E90012DF0A3EFF090012DE0FEA3CB
:1049FC00E0FF90012BE0FCA3E0FDD39FEE6480F878
:104A0C00EC64809890012F4007ECF0A3EDF080054A
:104A1C00EEF0A3EFF0E4900125F0A3F0900130E06C
:104A2C002401FF90012FE03400FED3900126E09F7B
:104A3C00900125E09E4003024B0A900135E0FEA355
:104A4C00E0FFA3E0FCA3E090012312752D90012B55
:104A5C00E0FEA3E0FF900128E02FF0900127E03E5C
:104A6C00F090012DE0FEA3E0FF90012AE02FF090E2
:104A7C000129E03EF090012FE0FEA3E0FF9001271A
:104A8C00E0FCA3E0FDD39FEE6480F8EC64809840DA
:104A9C0020ED9FFFEC9E900127F0A3EFF0900131E9
:104AAC00E0FEA3E0FF900136E02FF0900135E03EF0
:104ABC00F090012FE0FEA3E0FF900129E0FCA3E0C1
:104ACC00FDD39FEE6480F8EC6480984020ED9FFF4E
:104ADC00EC9E900129F0A3EFF0900133E0FEA3E0EF
:104AEC00FF900138E02FF0900137E03EF090012666
:0E4AFC00E004F07006900125E004F0024A2864
:014B0A002288
:10687C00900369EEF0A3EFF090036DEAF0A3EBF058
:08688C0090036BECF0A3EDF0AA
:10689400900369E0FAA3E0FB24FFFFEA34FFFEC0A3
:1068A40006C007ED24FFFDEC34FFFCEB2401FBE400
:1068B4003AFAA3E0FEA3E02401FFE43E900061F075
:1068C400A3EFF0D007D006126F3DE4FB1277360B2E
:1068D400EBB409F890036AE024FCFF900369E03408
:1068E400FFFEC00790036BE0FCA3E0FD90036AE0A9
:1068F4002404FB900369E03400FA90036BE0FFA3E7
:10690400E0900061CFF0A3EFF0D007126F3DE4FBFD
:106914001277360BEBB409F890036CE024FCFD907D
:10692400036BE034FFFC900369E0FAA3E0FBA3E00F
:10693400FEA3E02404FFE43E900061F0A3EFF09096
:0F6944000369126F38E4FB1277360BEBB409F8D6
:016953002221
:106D4E0090033FEAF0A3EBF090033BEEF0A3EFF0DD
:106D5E00A3ECF0A3EDF0C007A3E0FAA3E0FB9003D1
:106D6E003DE0FFA3E090017BCFF0A3EFF0D0071240
:106D7E00472F90033BE0FAA3E0FBFFAE02C007A350
:106D8E00E0FCA3E0FD900341E0FFA3E090017BCF88
:106D9E00F0A3EFF0D00712472F900341E0FCA3E0E1
:106DAE00FD90033FE0FAA3E0FBA3E0FFA3E0900118
:106DBE007BCFF0A3EFF090033BE0FEA3E0FF124782
:106DCE002F90033FE0FAA3E0FBFFAE02C007900353
:106DDE003DE0FCA3E0FD900341E0FFA3E090017BCA
:0A6DEE00CFF0A3EFF0D00702472F0B
:0E4CF400900302EEF0A3EFF0A3ECF0A3EDF0BE
:104D0200E4A3F0A3F0EBFF7E00A3EEF0A3EFF02507
:104D1200E0FFEE33FEC374039F90030BF0E49E901A
:104D2200030AF0900308E0FEA3E0FF900306E0FC14
:104D3200A3E0FDD39FEE6480F8EC64809840030208
:104D42004ECB900303E02DFF900302E03C1275B9B5
:104D5200900308E0FEA3E0FF900303E02FFF90031F
:104D620002E03E9003061275BC900308E0FEA3E049
:104D7200FF900303E02FFF900302E03EFE90030644
:104D8200E0FCA3E0FD900305E02DFD900304E03C70
:104D9200FC1275CF900306E0FEA3E0FF900303E050
:104DA2002FFF900302E03EFE900308E0FCA3E0FD2B
:104DB200900305E02DFD900304E03CFC1275CF90BA
:104DC2000306E0FEA3E0FFC3900303E09FFF90030E
:104DD20002E09EFE900308E0FCA3E0FD900305E0E4
:104DE2002DFD900304E03CFC1275CF900308E0FE19
:104DF200A3E0FFC3900303E09FFF900302E09EFE47
:104E0200900306E0FCA3E0FD900305E02DFD900376
:104E120004E03CFC1275CF900306E0FEA3E0FFC362
:104E2200900303E09FFF900302E09E1275B9900386
:104E320008E0FEA3E0FFC3900303E09FFF9003029C
:104E4200E09EFE9003061275BD900307E004F07029
:104E520006900306E004F0C390030AE064809480A5
:104E62005025900306E0FEA3E07802C333CE33CE92
:104E7200D8F92406FFE43EFE90030BE02FF09003E6
:104E82000AE03EF0024D25900308E0FEA3E0FFC3D6
:104E9200900307E09FFF900306E09EFEEF7802C3B7
:104EA20033CE33CED8F9240AFFE43EFE90030BE062
:104EB2002FF090030AE03EF0900309E024FFF09007
:094EC2000308E034FFF0024D2565
:014ECB0022C4
:1055690090000EEEF0A3EFF0900012EBF090001017
:05557900ECF0A3EDF0D1
:10557E00900017ECF0A3EDF0900013E0FF1313135F
:10558E00541FFEEF540760047F0180027F00EE2F50
:10559E00FF900013E0C313FEEF8EF0A4900019F0FD
:1055AE00900012E024E0F0E4F9900019E0FFE9C366
:1055BE009F40030256E0900013E0FFB40C129000DF
:1055CE0012E075F00CA42433F582E5F0340080313E
:1055DE00EFB41012900012E075F010A424A7F5821B
:1055EE00E5F03404801B900013E06418600302564B
:1055FE00E0900012E075F024A42497F582E5F034D3
:10560E000AF583E58229F582E43583F583E49390E8
:10561E000015F0E4900016F0900015E030E71390BE
:10562E00000EE0FEA3E0FFA3E0FCA3E0FD9002FE6F
:10563E008017900014E0701490000EE0FEA3E0FFBF
:10564E00A3E0FCA3E0FD90030012752E900015E080
:10565E0025E0F0900011E004F07006900010E004D8
:10566E00F09002F9E0FEA3E0FF900010E0FCA3E052
:10567E00FDC39FEC9E505B900017E0FEA3E0FFC3BE
:10568E00ED9FFDEC9EFC900013E07A00B50530EA2C
:10569E00B5042C900010EEF0A3EFF090000FE00494
:1056AE00F0700690000EE004F09002F7E0FEA3E02A
:1056BE00FFC390000FE09F90000EE09E40102290DE
:1056CE000016E004F0E0C3940850030256260902C7
:0256DE0055B7BE
:0156E00022A7
:07749400C3EF9E14FD7F0A07
:08749B0090036FEFF0A3EDF088
:1074A300A312345200000001900370E0FF14F0EFC8
:1074B3006020A3E0F8A3E0F9A3E0FAA3E0FB9003C4
:1074C3006FE0FFE4FCFDFE1232EF900371123446CD
:1074D30080D6900371E0FCA3E0FDA3E0FEA3E0FFF0
:0174E3002286
:0E67A0009002C4EEF0A3EFF0A3ECF0A3EDF036
:1067AE00E49002D0F09002CEF09002CCE0FF900286
:1067BE00CEE0FEC39F400302687B127494A804A926
:1067CE0005AA06AB079002C8E0FCA3E0FDA3E0FE1D
:1067DE00A3E0FF12337AE47B0AFAF9F812337A90C7
:1067EE0002CFEBF0A3E070459002CCE014FF9002D4
:1067FE00CEE0FEC39F5036A3E0702C9002CDE0FB9E
:10680E00C3138EF0A4FF9002C5E02FFF9002C4E0E8
:10681E0035F0FE9002C6E0FCA3E0FD900013EBF015
:10682E00E4A3F07B20803A9002D07401F09002CD68
:10683E00E0FAC313FFA3E0FEEF8EF0A4FF9002C5B3
:10684E00E02FFF9002C4E035F0FE9002C6E0FCA3FC
:10685E00E0FD9002CFE02430FB900013EAF0E4A3B9
:0D686E00F01255699002CEE004F00267B709
:01687B0022FA
:0E5FA2009002A8EEF0A3EFF0A3ECF0A3EDF058
:105FB000E49002B5F09002B3F09002B0E0FF9002DE
:105FC000B3E0FEC39F40030260CA127494A804A900
:105FD00005AA06AB079002ACE0FCA3E0FDA3E0FE3F
:105FE000A3E0FF12337AE47B0AFAF9F812337A90CD
:105FF00002B4EBF0A3E060030260819002B0E01411
:10600000FF9002B3E0FEC39F5077A3E0706D900253
:10601000B2E0F99002B130E72BE0FBC3138EF0A49D
:10602000FF9002A9E02FFF9002A8E035F0FE900259
:10603000AAE0FCA3E0FD900013EBF0E95401A3F00B
:106040007B30807AE0FBC313FF9002B3E0FEEF8E5B
:10605000F0A4FF9002A9E02FFF9002A8E035F0FE27
:106060009002AAE0FCA3E0FD900013EBF09002B2D6
:10607000E05401900014F07B2080439002B574013D
:10608000F09002B1E0FAC313FF9002B3E0FEEF8E8E
:10609000F0A4FF9002A9E02FFF9002A8E035F0FEE7
:1060A0009002AAE0FCA3E0FD9002B4E02430FB9053
:1060B0000013EAF09002B2E05401900014F012557F
:0A60C000699002B3E004F0025FB93A
:0160CA0022B3
:1066BB00900001EEF0A3EFF0A3ECF0A3EDF0A3EA52
:0466CB00F0A3EBF05D
:1066CF00900001E0FEA3E0FF90000DF0900006E0C7
:1066DF002FF0900005E03EF0900003E0FEA3E0FFF6
:1066EF00900008E02FF0900007E03EF090000AE0E5
:1066FF00FBA3E0FAA3E0F912319FFFD3947E40038E
:10670F0002679FEFC39420500302679F900005E03C
:10671F00FEA3E0FF900002E09F900001E09E401F6B
:10672F0090000DE0FF900001E4F0A3EFF09000095E
:10673F00E0FF900004E02FF0900003E03400F090B1
:10674F000007E0FEA3E0FF900003E0FCA3E0FDC321
:10675F009FEC9E503B900001E0FEA3E0FF12319FA3
:10676F00FB900009E0900013F0E4A3F0125569903C
:10677F000009E0C313FF900002E02FF0900001E04A
:10678F003400F090000BE475F00112325E0266FBEC
:01679F0022D7
:105E770090030CEEF0A3EFF0A3ECF0A3EDF0A3EB8F
:075E8700F0A3EAF0A3E9F02B
:105E8E00900310E0FBA3E0FAA3E0F912319F700338
:105E9E00025FA190030CE0FAA3E0FBFFAE02C00686
:105EAE00C007A3E0FCA3E0FDEB241FFBE43AFA904D
:105EBE00030EE0FEA3E0241CFFE43E900061F0A37D
:105ECE00EFF0D007D006126F3DE4900313F090036D
:105EDE0013E0FFC394144003025F86900310E0FBAF
:105EEE00A3E0FAA3E0F912319FFE75F076EFA42439
:105EFE00F3F582E5F03417F583E4936E707190003C
:105F0E00011231B8FF900313E075F076A424F4F576
:105F1E0082E5F03417F583E4936F7053FB9003130F
:105F2E00E075F076A424F5F582E5F03417F583E5F7
:105F3E00822BF582E43583F583E493FF900314E41A
:105F4E00F0A3EFF0E4FA900315E030E7059002FEBF
:105F5E008003900300127739900315E025E0F0904E
:105F6E000314E033F00AEAB408DC0BEBB474AE9021
:105F7E000313E004F0025EDC900311E475F00212EC
:105F8E00325E90030DE02420F090030CE03400F01C
:035F9E00025E8E12
:015FA10022DD
:105D4A00900209EEF0A3EFF0A3ECF0A3EDF0A3EAC2
:045D5A00F0A3EBF0D7
:105D5E00E4900214F0A3F0A312345200000000905D
:105D6E00021A1234520000000090020BE0FCA3E075
:105D7E00FDA3E0FEA3E0FF900209E0FAA3E02FFFEF
:105D8E00EA3ECF24FFFBEF34FFFA90020FE0FEA3B2
:105D9E00E0FF90020BE0F8A3E02FFFE83ECF24FFD8
:105DAE00CF34FF900061F0A3EFF0900209126F382C
:105DBE0090020FE0FCA3E0FD90020DE0FEA3E0FFD9
:105DCE001231F7EF25E0FFEE33FEE4FCFD90021AF0
:105DDE00123446900216A3A3E0FEA3E0FDAC062407
:105DEE0001FFE43CFE900211E0FBA3E0FAA3E0F910
:105DFE008F828E831231B8FF900214E4F0A3EFF07D
:105E0E00E0F8E4F0E8900214F08D828C831231B841
:105E1E00FF900214E0FEA3E04FFF900214EEF0FE9E
:105E2E00A3EFF012773EA3E0FCA3E0FDA3E0FEA3F8
:105E3E00E02402FFE43EFEE43DFDE43CFC9002164D
:105E4E0012344690021AE0FCA3E0FDA3E0FEA3E0AC
:105E5E00FF900216E0F8A3E0F9A3E0FAA3E0FBC37B
:085E6E0012340C5003025DE147
:015E76002209
:0B786800C2A1D2A3D2A2D2A1C2A322CF
:1077C300C2A1E4FEEFC4131313540124FF92A2EFEA
:0C77D30025E0FFC2A1D2A10EEEB408E830
:0177DF002287
:10767100E4900387F0A3F0C2A1FDFC900388E0250C
:10768100E0F0900387E033F0D2A1C2A1A2A0E433DD
:10769100FFE0F0A3E04FF00DBD00010CED640C4CD8
:0A76A10070D9900387E0FEA3E0FF1C
:0176AB0022BC
:07526600EEF0A3EFF07F90D2
:02526D00AB078D
:10526F00C2A1C2A3E4900191F0AF031277C39001E2
:10527F00927406F0900192E014F0E070F7D2A10062
:10528F0000C2A10000127671900191E025E02493F5
:10529F00F582E43401F583EEF0A3EFF0900191E095
:1052AF0004F0E0C3940A40C1D2A3E4900191F090BE
:1052BF000191E0FFC394094003025374EF04A3F07C
:1052CF00900192E0FFC3940A400302536BEF25E075
:1052DF002493F582E43401F583E0FEA3E0FF90010F
:1052EF0091E0FB25E02493F582E43401F583E0FCA3
:1052FF00A3E0C39FEC9E505BEB25E02493F582E483
:10530F003401F583E0FEA3E0FFE4FCFD9001A7125A
:10531F003446900192E0FA25E02493F582E43401BB
:10532F00F583E0FEA3E0FFEB25E02493F582E43460
:10533F0001F583EEF0A3EFF09001A7A3A3E0FEA386
:10534F00E0FFEA25E02493F582E43401F583EEF0E3
:10535F00A3EFF0900192E004F00252CF900191E0A0
:10536F0004F00252BE9001A71234520000000090C8
:10537F0001917402F09001A7E0F8A3E0F9A3E0FA1D
:10538F00A3E0FB900191E025E02493F582E4340142
:10539F00F583E0FEA3E0FFE4FCFDEB2FFFEA3EFE0A
:1053AF00ED39FDEC38FC9001A7123446900191E0E5
:1053BF0004F0E0B408BF9001A7E0FCA3E0FDA3E078
:1053CF00FEA3E0FFE47B06FAF9F81275759001A7CA
:0D53DF001234469001A7A3A3E0FEA3E0FF57
:0153EC00229E
:1060CB001278687FD012526D9003161252669003AD
:1060DB001CEEF0A3EFF07FD012526D90031812520A
:1060EB0066AD07AC06900318E0FEA3E0FF90031625
:1060FB00E0FAA3E0FBD39FEA9E400AA3A3EB9FFF2A
:10610B00EA9EA38017900316E0FEA3E0FFC3900363
:10611B0019E09FFF900318E09E90031AF0A3EFF095
:10612B0090031CE0FEA3E0FFD39DEE9C4007EF9D88
:10613B00FFEE9C800E90031CE0FEA3E0FFC3ED9FDF
:10614B00FFEC9EA3F0A3EFF0D390031BE0943290EF
:10615B00031AE09400500E90031FE0943290031E3C
:10616B00E0940040037F0022900318E0FEA3E0FFC1
:10617B00900317E02FFF900316E03EC313FEEF13BF
:10618B00FF9002D1EEF0A3EFF090031DE02DFF90F6
:10619B00031CE03CC313FEEF13FF9002D3EEF0A3FE
:1061AB00EFF09002D2E054F0F09002D4E054F0F013
:1061BB00C39002D2E094649002D1E09400400FD3DC
:1061CB009002D4E094D89002D3E0940E40037F0069
:0361DB00227F011F
:0161DE00229E
:105C0A00E490037BF01260CBEF7003025D3F9002D9
:105C1A00FDE06003025CA59002D1E0FEA3E0FFE490
:105C2A00FCFD9002D51234469002D5E0FCA3E0FDBB
:105C3A00A3E0FEA3E02406FFEE34FFFEED34FFFDF1
:105C4A00EC34FFFCE47BB4FAF9F81232EFE47B742B
:105C5A007A0EF9F812337A9002D51234469002D3AA
:105C6A00E0FEA3E0FFE4FCFD9002D9123446900264
:105C7A00D9E0FCA3E0FDA3E0FEA3E024A2FFEE34FA
:105C8A00FEFEED34FFFDEC34FFFCE47BFAFAF9F892
:105C9A001232EFE47BAC7A0D025D2C9002D3E0FE67
:105CAA00A3E0FFC3E49FFF74109EFEE4FCFDA31271
:105CBA0034469002D5E0FCA3E0FDA3E0FEA3E02475
:105CCA00A2FFEE34FEFEED34FFFDEC34FFFCE47B74
:105CDA00FAFAF9F81232EFE47BAC7A0DF9F81233DA
:105CEA007A9002D51234469002D1E0FEA3E0FFE496
:105CFA00FCFD9002D91234469002D9E0FCA3E0FDE3
:105D0A00A3E0FEA3E02406FFEE34FFFEED34FFFD20
:105D1A00EC34FFFCE47BB4FAF9F81232EFE47B745A
:105D2A007A0EF9F812337A9002D912344690037B2C
:0F5D3A007401F08001E49002DDF090037BE0FF44
:015D49002237
:06726900900343123446BD
:10726F00900343E0FCA3E0FDA3E0FEA3E0FF78134F
:10727F00123433A3EEF0A3EFF0900343E0FCA3E04E
:10728F00FDA3E0FEA3E0FF780A123433EF543FFE74
:10729F00E4900349F0A3CEF0900343E0FCA3E0FD9C
:1072AF00A3E0FEA3E0FF7803123433EF541FFFE493
:1072BF00AD07FC900349E0FEA3E07805C333CE335E
:1072CF00CED8F9FBAA06900348E033333354F84A7B
:0972DF00FEEBFFEE4CFEEF4DFF4B
:0172E8002283
:0475F900AD07AC0628
:1075FD007BE77A187E00ED54037803C333CE33CE88
:10760D00D8F9FFEA4EFAEB4FFB7E00ED541C7806DD
:10761D00C333CE33CED8F9FFEA4EFAEB4FFBED5420
:07762D00E04AFAEBAE02FF98
:017634002233
:0874E400900375EFF0A3EDF039
:1074EC00A312345200000001900376E0FF14F0EF79
:1074FC006020A3E0F8A3E0F9A3E0FAA3E0FB90037B
:10750C0075E0FFE4FCFDFE1232EF90037712344677
:10751C0080D6900377E0FCA3E0FDA3E0FEA3E0FFA0
:01752C00223C
:1073D70090034B12344690034FE0FCA3E0FDA3E07B
:1073E700FEA3E0FF90034BE0F8A3E0F9A3E0FAA3C4
:1073F700E0FBD3123422401D90034FE0F8A3E0F9DD
:10740700A3E0FAA3E0FB90034BE0FCA3E0FDA3E0BD
:10741700FEA3E0801A90034BE0F8A3E0F9A3E0FA9B
:10742700A3E0FBA3E0FCA3E0FDA3E0FEA3E0C39B76
:0B743700FFEE9AFEED99FDEC98FC22A0
:08763500900380EEF0A3EFF0DA
:10763D009002FEE0FFA3E0900382CFF0A3EFF0AF46
:10764D00039002FEEAF0A3EFF0900380E0FEA3E0CA
:10765D00FF1275CF900382E0FFA3E09002FECFF002
:03766D00A3EFF098
:0176700022F7
:1063E300900267EEF0A3EFF0A3ECF0A3EDF0A3EAC5
:0463F300F0A3EBF038
:1063F700E4900272F0A3F090026BE0FEA3E0FFC30B
:10640700900273E09F900272E09E40030264D9E419
:10641700900274F0A3F090026DE0FEA3E0FFC3903A
:106427000275E09F900274E09E40030264C59002EB
:1064370072E0FEA3E0FF900268E02FFF900267E0A2
:106447003EFE900274E0FCA3E0FD90026AE02DFDA1
:10645700900269E03CFC126AF6900276EEF0A3EF38
:10646700F090026FE0FCA3E0FDA3E0FB1265CE9085
:106477000276EEF0A3EFF0900272E0FEA3E0FF9049
:106487000268E02FFF900267E03EFE900274E0FC96
:10649700A3E0FD90026AE02DFD900269E03CFC90CC
:1064A7000276E0FAA3E0FB127533900275E004F080
:1064B700600302641D900274E004F002641D900200
:1064C70073E004F060030263FE900272E004F002DE
:0264D70063FE62
:0164D90022A0
:1064DA00900049ECF0A3EDF0A3EAF0A3EBF09000F2
:0664EA0047EEF0A3EFF005
:1064F000C39401EE94004013E024FFFE900047E0B7
:1065000034FF900051F0A3CEF0800F900047E0FFE1
:10651000A3E0900051CFF0A3EFF0900049E0FEA37C
:10652000E0FFC39401EE9400400CEF24FFFFEE3433
:10653000FF900053800B900049E0FFA3E0900053D0
:10654000CFF0A3EFF0900053E0FFA3E090004DCF19
:10655000F0A3EFF090004AE02402FF900049E034FD
:1065600000FEC390004EE09F90004DE09E505E9074
:106570000051E0FFA3E090004FCFF0A3EFF09000B8
:1065800048E02402FD900047E03400FC90004FE01A
:10659000FEA3E0FFC39DEE9C502390004DE0FCA3C2
:1065A000E0FD90004BE0FAA3E0FB12753390005041
:1065B000E004F070C990004FE004F080C190004EFC
:0D65C000E004F0708F90004DE004F0808743
:0165CD0022AB
:0E453C00900139EEF0A3EFF0A3ECF0A3EDF048
:10454A00E4900145F0A3F0A3F0A3F0900139E0FE56
:10455A00A3E0FFC3EB9FFFEA9E900149F0A3EFF0AF
:10456A0090013BE0FAA3E0FBC3900140E09BFE9080
:10457A00013FE09A90014BF0A3CEF0900139E0FFA1
:10458A00A3E0900153CFF0A3EFF0A3EAF0A3EBF07E
:10459A00900149E0FEA3E0FFD39400EE648094808A
:1045AA00400A90014FE4F0A304F08021EF4E700816
:1045BA0090014FF0A3F0801574FF90014FF0A3F023
:1045CA00C3E49FFFE49E900149F0A3EFF090014BF2
:1045DA00E0FEA3E0FFD39400EE64809480400A904A
:1045EA000151E4F0A304F08021EF4E7008900151CC
:1045FA00F0A3F0801574FF900151F0A3F0C3E49F7B
:10460A00FFE49E90014BF0A3EFF090014BE0FEA374
:10461A00E0FF900149E0FCA3E0FDD39FEE6480F83F
:10462A00EC64809890014D4007ECF0A3EDF0800512
:10463A00EEF0A3EFF0E4900143F0A3F090014EE016
:10464A002401FF90014DE03400FED3900144E09F25
:10465A00900143E09E400302472E900153E0FEA3DF
:10466A00E0FFA3E0FCA3E0FD900141E0FAA3E0FB38
:10467A00127533900149E0FEA3E0FF900146E02F56
:10468A00F0900145E03EF090014BE0FEA3E0FF9080
:10469A000148E02FF0900147E03EF090014DE0FE26
:1046AA00A3E0FF900145E0FCA3E0FDD39FEE648008
:1046BA00F8EC6480984020ED9FFFEC9E900145F055
:1046CA00A3EFF090014FE0FEA3E0FF900154E02F2A
:1046DA00F0900153E03EF090014DE0FEA3E0FF9020
:1046EA000147E0FCA3E0FDD39FEE6480F8EC648010
:1046FA00984020ED9FFFEC9E900147F0A3EFF090C9
:10470A000151E0FEA3E0FF900156E02FF090015521
:10471A00E03EF0900144E004F07006900143E004AA
:04472A00F00246460D
:01472E002268
:103767009000DDEEF0A3EFF0A3ECF0A3EDF0A3EAF9
:04377700F0A3EBF0E0
:10377B00E49000EAF0A3F0A3F0A3F09000E5E0FFE3
:10378B007E00C39000DEE09F9000DDE09E500302C0
:10379B0039D29000E2E09F9000E1E09E50030239A5
:1037AB00D29000DFE0FCA3E0FD9FEC9E50030239BA
:1037BB00D29000E4E09F9000E3E09E50030239D2E8
:1037CB009000E5E070139000DDE0FEA3E0FF9000B9
:1037DB00E6E0FAA3E0FB0275339000DDE0FAA3E02C
:1037EB00FBC39000E2E09BFE9000E1E09A9000EEBC
:1037FB00F0A3CEF09000DFE0FEA3E0FFC39000E467
:10380B00E09FFF9000E3E09E9000F0F0A3EFF090BC
:10381B0000F8EAF0A3EBF09000DFA3E0FF9000FAD2
:10382B00EEF0A3EFF09000EEE0FEA3E0FFD39400E8
:10383B00EE64809480400A9000F4E4F0A304F080DE
:10384B0021EF4E70089000F4F0A3F0801574FF90F8
:10385B0000F4F0A3F0C3E49FFFE49E9000EEF0A30E
:10386B00EFF09000F0E0FEA3E0FFD39400EE648055
:10387B009480400A9000F6E4F0A304F08021EF4E10
:10388B0070089000F6F0A3F0801574FF9000F6F02E
:10389B00A3F0C3E49FFFE49E9000F0F0A3EFF09041
:1038AB0000F0E0FEA3E0FF9000EEE0FCA3E0FDD310
:1038BB009FEE6480F8EC6480989000F24007ECF087
:1038CB00A3EDF08005EEF0A3EFF0E49000E8F0A399
:1038DB00F09000F3E02401FF9000F2E03400FED3FF
:1038EB009000E9E09F9000E8E09E40030239D290FF
:1038FB0000FAE0FCA3E0FD9000E5E0FB7A00A3E01A
:10390B00FFA3E09001CACFF0A3EFF09000F8E0FE28
:10391B00A3E0FF122A9A9000EEE0FEA3E0FF9000D6
:10392B00EBE02FF09000EAE03EF09000F0E0FEA319
:10393B00E0FF9000EDE02FF09000ECE03EF0900007
:10394B00F2E0FEA3E0FF9000EAE0FCA3E0FDD39FD2
:10395B00EE6480F8EC6480984020ED9FFFEC9E9025
:10396B0000EAF0A3EFF09000F4E0FEA3E0FF90007C
:10397B00F9E02FF09000F8E03EF09000F2E0FEA3AB
:10398B00E0FF9000ECE0FCA3E0FDD39FEE6480F839
:10399B00EC6480984020ED9FFFEC9E9000ECF0A330
:1039AB00EFF09000F6E0FEA3E0FF9000FBE02FF0BD
:1039BB009000FAE03EF09000E9E004F07006900011
:0739CB00E8E004F00238DC23
:0139D20022D2
:0E26D0009000FCEEF0A3EFF0A3ECF0A3EDF011
:1026DE00E4900109F0A3F0A3F0A3F09000FCE0FE5B
:1026EE00A3E0FFC3EB9FFFEA9E90010DF0A3EFF076
:1026FE009000FEE0FAA3E0FBC3900103E09BFE9086
:10270E000102E09A90010FF0A3CEF09000FCE0FFE2
:10271E00A3E0900117CFF0A3EFF0A3EAF0A3EBF044
:10272E0090010DE0FEA3E0FFD39400EE6480948050
:10273E00400A900113E4F0A304F08021EF4E7008DC
:10274E00900113F0A3F0801574FF900113F0A3F025
:10275E00C3E49FFFE49E90010DF0A3EFF090010FF4
:10276E00E0FEA3E0FFD39400EE64809480400A90D4
:10277E000115E4F0A304F08021EF4E7008900115CE
:10278E00F0A3F0801574FF900115F0A3F0C3E49F41
:10279E00FFE49E90010FF0A3EFF090010FE0FEA377
:1027AE00E0FF90010DE0FCA3E0FDD39FEE6480F806
:1027BE00EC6480989001114007ECF0A3EDF08005D9
:1027CE00EEF0A3EFF0E4900107F0A3F0900112E019
:1027DE002401FF900111E03400FED3900108E09F28
:1027EE00900107E09E4003022A99900104E07019BF
:1027FE00900117E0FEA3E0FFA3E0FCA3E0FD900133
:10280E0005E0FAA3E0FB127533900104E064016069
:10281E00030228A4900117E0FEA3E0FFA3E0FCA3AF
:10282E00E0FD900105E0FAA3E0FB1275339001186C
:10283E00E02401FF900117E03400FE900119E0FC46
:10284E00A3E0FD900105E0FAA3E0FB1275339001C1
:10285E0017E0FEA3E0FF90011AE02401FD9001199C
:10286E00E03400FC900105E0FAA3E0FB1275339012
:10287E000118E02401FF900117E03400FE90011AC8
:10288E00E02401FD900119E03400FC900105E0FA0E
:10289E00A3E0FB127533900104E064026003022989
:1028AE00E8900117E0FEA3E0FFA3E0FCA3E0FD909B
:1028BE000105E0FAA3E0FB127533900118E0240144
:1028CE00FF900117E03400FE900119E0FCA3E0FD3B
:1028DE00900105E0FAA3E0FB127533900117E0FEBC
:1028EE00A3E0FF90011AE02401FD900119E03400ED
:1028FE00FC900105E0FAA3E0FB127533900118E09D
:10290E002401FF900117E03400FE90011AE024012B
:10291E00FD900119E03400FC900105E0FAA3E0FB04
:10292E00127533900118E024FFFF900117E034FF79
:10293E00FE90011AE02401FD900119E03400FC9094
:10294E000105E0FAA3E0FB127533900118E02401B3
:10295E00FF900117E03400FE90011AE024FFFD9075
:10296E000119E034FFFC900105E0FAA3E0FB1275BB
:10297E0033900118E024FFFF900117E034FFFE9022
:10298E00011AE024FFFD900119E034FFFC900105CF
:10299E00E0FAA3E0FB127533900118E024FFFF90DC
:1029AE000117E034FFFE900119E0FCA3E0FD900159
:1029BE0005E0FAA3E0FB127533900117E0FEA3E0E9
:1029CE00FF90011AE024FFFD900119E034FFFC9006
:1029DE000105E0FAA3E0FB12753390010DE0FEA3B2
:1029EE00E0FF90010AE02FF0900109E03EF0900127
:1029FE000FE0FEA3E0FF90010CE02FF090010BE042
:102A0E003EF0900111E0FEA3E0FF900109E0FCA36F
:102A1E00E0FDD39FEE6480F8EC6480984020ED9F3B
:102A2E00FFEC9E900109F0A3EFF0900113E0FEA3DE
:102A3E00E0FF900118E02FF0900117E03EF09001BA
:102A4E0011E0FEA3E0FF90010BE0FCA3E0FDD39F9D
:102A5E00EE6480F8EC6480984020ED9FFFEC9E9031
:102A6E00010BF0A3EFF0900115E0FEA3E0FF900143
:102A7E001AE02FF0900119E03EF0900108E004F00A
:0B2A8E007006900107E004F00227DA58
:012A9900221A
:106EA200FAE0FFA3E0900359CFF0A3EFF09002784D
:056EB200E0FEA3E0FF7B
:106EB700900353EEF0A3EFF0A3ECF0A3EDF0A3EAF9
:106EC700F0A3EBF04A60699002F7E0FCA3E0FD90C5
:106ED7000353E0FAA3E0FBD39DEA9C50539002F9D9
:106EE700E0FEA3E0FF900355E0FCA3E0FD9FEC9ECE
:106EF700503EAF03AE02C006C007900357E0FEA3A3
:106F0700E0FF900355E0F8A3E02FFFE83ECF24FF12
:106F1700CF34FF900018F0A3EFF0900359E0FFA3E0
:106F2700E090001ACFF0A3EFF0D007D006126A2640
:016F37002237
:1072E90090035BEEF0A3EFF0A3ECF0A3EDF0EB4A13
:1072F90060689002F7E0FEA3E0FFD390035CE09F93
:1073090090035BE09E50539002F9E0FEA3E0FF90EA
:10731900035DE0FCA3E0FD9FEC9E503EAE02AF038F
:1073290090035BE0FAA3E02FFFEA3ECF24FFFBEFD7
:1073390034FFFAA3E0FFA3E0900018CFF0A3EFF029
:10734900900361E0FFA3E090001ACFF0A3EFF09063
:0B735900035BE0FEA3E0FF126A2622A7
:105AC3009002B6EEF0A3EFF0A3ECF0A3EDF0A3EA9F
:045AD300F0A3EBF061
:105AD700A3E07002A3E07003025C099002BAE070D1
:105AE70002A3E07003025C099002C1E020E0030218
:105AF7005B86E4A3F0A3F09002BAE0FEA3E0FF9078
:105B070002C2E0FCA3E0FDC39FEC9E4003025C09D8
:105B17009002B7E02DFF9002B6E03CFEC006C0073A
:105B27009002B8E0FCA3E0FD9002BDE024FFFB90EB
:105B370002BCE034FFFAC002C0039002C3E025E0D4
:105B4700FF9002C2E033FE9002BEE0FBA3E0FAA39F
:105B5700E0F98F828E8312328AFF900359E5F0F0C5
:105B6700A3EFF0D003D002D007D006126EB7900291
:105B7700C3E004F070819002C2E004F0025AFEE430
:105B87009002C2F0A3F09002BCE0FEA3E0FF9002F7
:105B9700C2E0FCA3E0FDC39FEC9E50669002B9E013
:105BA7002DFD9002B8E03CFC9002BBE024FFFB9087
:105BB70002BAE034FFFAC002C0039002C3E025E056
:105BC700FF9002C2E033FE9002BEE0FBA3E0FAA31F
:105BD700E0F98F828E8312328AFF900361E5F0F03D
:105BE700A3EFF09002B6E0FEA3E0FFD003D00212CD
:105BF70072E99002C3E004F0708C9002C2E004F0F6
:025C0700808497
:015C09002278
:064B0B0090015712344630
:104B1100E4900173F0A3F0900157E0FCA3E0FDA342
:104B2100E0FEA3E0FF7810123433900164EFF0FB54
:104B3100900157E0FCA3E0FDA3E0FEA3E0FF7808AD
:104B4100123433900165EFF0FA900157A3A3A3E06B
:104B5100FFA907900166E9F090015BE0FCA3E0FD8D
:104B6100A3E0FEA3E0FF7810123433EBFDC3EF9D09
:104B7100FFEE9400900167F0A3EFF090015BE0FC81
:104B8100A3E0FDA3E0FEA3E0FF7808123433EAFDC1
:104B9100C3EF9DFEE49400900169F0A3CEF0900173
:104BA1005BA3A3A3E0FFE9FDC3EF9DFEE4940090A6
:104BB100016BF0A3CEF0E4900173F0A3F0900162D9
:104BC100E0FEA3E0FFC3900174E09F900173E09EBB
:104BD1004003024CF3E0FAA3E0FB900167E0FEA37F
:104BE100E0FFAD03AC021231F7900162E0FCA3E0FB
:104BF100FD123209A3E07C002FFFEC3E90016DF025
:104C0100A3EFF0900169E0FEA3E0FFAD03AC021257
:104C110031F7900162E0FCA3E0FD123209900165D9
:104C2100E07C002FFFEC3E90016FF0A3EFF09001CC
:104C31006BE0FEA3E0FFAD03AC021231F79001621D
:104C4100E0FCA3E0FD123209900166E07C002FFF39
:104C5100EC3E900171F0A3EFF090016DE0FEA3E056
:104C61007803CEC313CE13D8F9F0EE90016DF09016
:104C7100016FE0FEA3E07802CEC313CE13D8F9F0A2
:104C8100EE90016FF0900171E0FEA3E07803CEC3D6
:104C910013CE13D8F9F0EE900171F090016FE0FEA0
:104CA100A3E07805C333CE33CED8F9FDAC0690012D
:104CB1006EE033333354F84CFEEDFF900171E04E5A
:104CC100FCA3E04FFDEB25E0FFEA33FE90015FE03E
:104CD100FBA3E0FAA3E0F98F828E83EC8DF0123210
:104CE100C2900174E004F07006900173E004F002D8
:024CF1004BBEB8
:014CF300229E
:1061DF009001DCEEF0A3EFF0A3ECF0A3EDF0A3EA57
:0461EF00F0A3EBF03E
:1061F3009001E8E0FCA3E0FDA3E0FEA3E0FF900133
:106203005B1234469001F0E0F9A3E0FAA3E09001B9
:106213005FC9F0A3EAF0A3E9F09001E0E0FFA3E097
:10622300900162CFF0A3EFF09001E4E0FCA3E0FD66
:10623300A3E0FEA3E0FF124B0BE49001ECF0A3F00C
:106243009001E0E0FEA3E0FFC39001EDE09F900129
:10625300ECE09E40030262EAE49001EEF0A3F090CA
:1062630001E2E0FEA3E0FFC39001EFE09F9001EEA7
:10627300E09E505F9001ECE0FAA3E0FB9001DDE0CB
:106283002BFF9001DCE03AFEC006C0079001EEE070
:10629300FEA3E0FF9001DFE02FFD9001DEE03EFC76
:1062A300EB25E0FFEA33FE9001F0E0FBA3E0FAA365
:1062B300E0F98F828E8312328AFBAAF0D007D006D0
:1062C3001275339001EFE004F070949001EEE00456
:1062D300F0808C9001EDE004F060030262439001D2
:0762E300ECE004F00262434D
:0162EA002291
:106BC500900320EEF0A3EFF0A3ECF0A3EDF0A3EA21
:106BD500F0A3EBF0C007900328E0FFA3E09003616A
:106BE500CFF0A3EFF0D0071272E9900326E0FEA3E1
:106BF500E0FF900323E02FFF900322E03ECF24FF28
:106C0500FDEF34FFFC900324E0FAA3E0FB9003289A
:106C1500E0FFA3E0900361CFF0A3EFF0900320E045
:106C2500FEA3E0FF1272E9900322E0FCA3E0FD90D1
:106C35000326E0FAA3E0FBA3E0FFA3E0900359CF0E
:106C4500F0A3EFF0900320126EB2900324E0FEA3B0
:106C5500E0FF900321E02FFF900320E03ECF24FFCB
:106C6500CF34FFFEC007900322E0FCA3E0FD9003B4
:106C750026E0FAA3E0FBA3E0FFA3E0900359CFF0E1
:086C8500A3EFF0D007026EB787
:101C1900900278EEF0A3EFF0A3ECF0A3EDF0A3EAC5
:041C2900F0A3EBF049
:101C2D00E4900286F0A3F090027EE0FEA3E030E0A7
:101C3D000A2401FFE43E900286800B90027EE0FFB5
:101C4D00A3E0900286CFF0A3EFF0900281E0900226
:101C5D00807003021E78E0F975F002A4FFC39002B4
:101C6D007DE09FFB90027CE095F0FAE9FF90027910
:101C7D00E02FFF900278E03400FEC00790027AE07A
:101C8D00FCA3E0FD900286E0C313FFA3E0139000D8
:101C9D000ECFF0A3EFF0900282E0FFA3E0900010D2
:101CAD00CFF0A3EFF0D007127069900280E0F975C4
:101CBD00F002A4FFC390027DE09FFB90027CE095B3
:101CCD00F0FAE9FF900279E02FFF900278E03400FE
:101CDD00FEC006C007900286E0C313FEA3E013FF0B
:101CED0090027BE02FFD90027AE03EFC900286E0B0
:101CFD00C313FFA3E01390000ECFF0A3EFF09002FB
:101D0D0084E0FFA3E0900010CFF0A3EFF0D007D058
:101D1D0006127069900280E0F9FB7A0090027BE078
:101D2D002BFD90027AE03AFC900286E0C313FEA3ED
:101D3D00E013FFE9F582C3EF9582FFEE940090006A
:101D4D000EF0A3EFF0900282127055900286E0C360
:101D5D0013FEA3E013FF90027BE02FFD90027AE0CB
:101D6D003EFC900280E0F9FB7A00900286E0C313FE
:101D7D00FEA3E013FFE9F582C3EF9582FFEE940019
:101D8D0090000EF0A3EFF090028412705590027C3B
:101D9D00E0FEA3E0FF900279E02FFF900278E03E95
:101DAD00FE900280E0F9FD7C00C3EF9DFFEE9CFEEE
:101DBD00C006C00790027BE02DFD90027AE03CFC4E
:101DCD00E9FB7A00900286E0C313FEA3E013FFE95E
:101DDD00F582C3EF9582FFEE940090000EF0A3EF15
:101DED00F0900282E0FFA3E0900010CFF0A3EFF09F
:101DFD00D007D00612706990027CE0FEA3E0FF9040
:101E0D000279E02FFF900278E03EFE900280E0F92B
:101E1D00FB7A00C3EF9BFFEE9AFEC006C00790024F
:101E2D0086E0C313FEA3E013FF90027BE02FFD902D
:101E3D00027AE03EFC900286E0C313FEA3E013FF9E
:101E4D00E9F582C3EF9582FFEE940090000EF0A3AA
:101E5D00EFF0900284E0FFA3E0900010CFF0A3EF2D
:101E6D00F0D007D00612706902202BE0F975F00250
:101E7D00A4FFC390027DE09FFB90027CE095F0FAF9
:101E8D00C003E9FF900279E02FFF900278E0340063
:101E9D00FE90027AE0FCA3E0FD900282E0FBA3E05D
:101EAD00900361CBF0A3EBF0D0031272E9900280A6
:101EBD00E0F975F002A4FFC390027DE09FFB900254
:101ECD007CE095F0FAC002C003E9FF900279E02FA3
:101EDD00FF900278E03400FE900286E0FCA3E0FD66
:101EED0090027AE0FAA3E02DFDEA3CCD24FFCD343B
:101EFD00FFFC900284E0FBA3E0900361CBF0A3EB29
:101F0D00F0D003D0021272E9900280E0FB7A0090CB
:101F1D00027BE02BFD90027AE03AFC900286E0C352
:101F2D0013FEA3E013C39BFBEE9A900282126EA2E6
:101F3D00900286E0FAA3E0FBEAC313FEEB13FF90D9
:101F4D00027BE02FFD90027AE03EFCEAC313FEEB2C
:101F5D0013FF900280E0FBC3EF9BFBEE9400900219
:101F6D0084126EA290027CE0FEA3E0FF900279E065
:101F7D002FFF900278E03ECF24FFCF34FFFEC00646
:101F8D00C007900280E0FB7A0090027BE02BFD9071
:101F9D00027AE03AFC900286E0C313FEA3E013C37D
:101FAD009BFBEE9AFA900282E0FFA3E0900359CFDB
:101FBD00F0A3EFF0D007D006126EB790027CE0FED2
:101FCD00A3E0FF900279E02FFF900278E03ECF244E
:101FDD00FFCF34FFFEC006C007900286E0FAA3E0F3
:101FED00FBEAC313FEEB13FF90027BE02FFD900283
:101FFD007AE03EFCEAC313FEEB13FF900280E0FB98
:10200D00C3EF9BFBEE9400FA900284E0FFA3E090F7
:10201D000359CFF0A3EFF0D007D006126EB79002A0
:10202D007AE0FCA3E0FD900280E0F9FF7E009002D3
:10203D0078E0FAA3E02FFBEE3AFAA3E0F8A3E02F45
:10204D00FFEE389001B1F0A3EFF0E9FF900278E0D8
:10205D00F8A3E02FFFEE389001B3F0A3EFF0E9FF06
:10206D0090027AE0F8A3E02FFFEE389001B5F0A3CF
:10207D00EFF0E9FFA3EEF0A3EFF0900282124ECC49
:10208D00900286E0FEA3E0FF90027BE02FFF90021E
:10209D007AE03EFE900280E0F9FB7A00C3EF9BFDF3
:1020AD00EE9AFC900278E0FEA3E02BFBEA3EFA905C
:1020BD000286E0FEA3E0FF90027AE0F8A3E02FFF96
:1020CD00E83ECF24FFCF34FF9001B1F0A3EFF0E94C
:1020DD00FF7E00900278E0F8A3E02FFFEE3890012C
:1020ED00B3F0A3EFF0900286E0FEA3E0FF90027A3A
:1020FD00E0F8A3E02FFFE83EFEE9F582C3EF9582FD
:10210D00FFEE9400CF24FFCF34FF9001B5F0A3EF85
:10211D00F0E9FFA3E4F0A3EFF0900284124ECC900F
:10212D00027CE0FEA3E0FF900279E02FFB900278A5
:10213D00E03EFA900280E0F9FFC3EB9FFFEA9400C6
:10214D00FEC006C00790027AE0FCA3E0FDE9FF7E29
:10215D000090027AE0F8A3E02FFFEE389001B1F085
:10216D00A3EFF090027CE0FEA3E0FF900278E0F890
:10217D00A3E02FFFE83EFEE9F582C3EF9582FFEE67
:10218D009400CF24FFCF34FF9001B3F0A3EFF0E91B
:10219D00FF7E0090027AE0F8A3E02FFFEE38900169
:1021AD00B5F0A3EFF0E9FFA3EEF0A3EFF0900282FC
:1021BD00E0FFA3E09001B9CFF0A3EFF0900281E032
:1021CD009001BBF0D007D006124EE890027CE0FEE5
:1021DD00A3E0FF900279E02FFF900278E03EFE90A1
:1021ED000280E0F9FDC3EF9DFFEE9400FEC006C036
:1021FD0007900286E0FEA3E0FF90027BE02FFF90A8
:10220D00027AE03EFEC3EF9DFDEE9400FC90027C51
:10221D00E0FEA3E0FF900278E0FAA3E02FFBEA3E98
:10222D00FA900286E0FEA3E0FF90027AE0F8A3E0C8
:10223D002FFFE83ECF24FFCF34FF9001B1F0A3EF85
:10224D00F090027CE0FEA3E0FF900278E0F8A3E0BE
:10225D002FFFE83EFEE9F582C3EF9582FFEE940075
:10226D00CF24FFCF34FF9001B3F0A3EFF09002869F
:10227D00E0FEA3E0FF90027AE0F8A3E02FFFE83E36
:10228D00FEE9F582C3EF9582FFEE9400CF24FFCFD8
:10229D0034FF9001B5F0A3EFF0E9FFA3E4F0A3EF55
:1022AD00F0900284E0FFA3E09001B9CFF0A3EFF02E
:0F22BD00900281E09001BBF0D007D006024EE8FE
:10705500E0FFA3E0900010CFF0A3EFF0900278E0FE
:04706500FEA3E0FFA7
:10706900900008EEF0A3EFF0A3ECF0A3EDF0EB4AEB
:10707900606390000EE07002A3E0605990000AE09E
:10708900FCA3E0FDAE02AF03900008E0FAA3E02FF5
:10709900FFEA3ECF24FFFBEF34FFFA90000EE0FE3B
:1070A900A3E0FF90000AE0F8A3E02FFFE83ECF2419
:1070B900FFCF34FF900018F0A3EFF0900010E0FF2D
:1070C900A3E090001ACFF0A3EFF0900008E0FEA330
:0670D900E0FF126A26220E
:102A9A009001C4EEF0A3EFF0A3ECF0A3EDF0A3EAEB
:042AAA00F0A3EBF0BA
:102AAE009001C8E0FEA3E0FF7C027DC3123483E4F4
:102ABE007BE87A03F9F812337AEF2401FFE43EFE45
:102ACE00E43DFDE43CFC9001D01234469001C8E098
:102ADE00FEA3E0FF9001C8E0FCA3E0FD123483C02A
:102AEE0004C005C006C0079001C8E0FEA3E0FFE4E5
:102AFE00FCFD7B02FAF9F812337AD003D002D00132
:102B0E00D000EB2FFFEA3EFEE93DFDE83CFC9001D4
:102B1E00D41234469001C8E0FAA3E0FBFFAE02E403
:102B2E00FCFD9001D8123446C39001C5E09BFF9086
:102B3E0001C4E09AFEC0079001C6E0FCA3E0FD9040
:102B4E0001C9E025E0FB9001C8E033FA9001CAE02C
:102B5E00FFA3E0900361CFF0A3EFF0D0071272E96C
:102B6E009001CC123452000000019001D0E0FCA381
:102B7E00E0FDA3E0FEA3E0FF9001CCE0F8A3E0F9B6
:102B8E00A3E0FAA3E0FBD31234224003022E3990C5
:102B9E0001D8E0FCA3E0FDA3E0FEA3E0FFA804A99A
:102BAE0005AA06FB1232EFC004C005C006C007908E
:102BBE0001CCE0FCA3E0FDA3E0FEA3E0FFA804A986
:102BCE0005AA06FB1232EFD003D002D001D000EFDF
:102BDE002BFFEE3AFEED39FDEC38FC9001D4E0F817
:102BEE00A3E0F9A3E0FAA3E0FBC3123422400302F0
:102BFE002D429001D0E0FCA3E0FDA3E0FEA3E0FF98
:102C0E009001D8E0F8A3E0F9A3E0FAA3E0FB1234B8
:102C1E00225003022D209001CCA3A3E0FEA3E0FFDF
:102C2E009001C5E09FFF9001C4E09ECF2401CF34F8
:102C3E0000FEC006C0079001D8A3A3E0FEA3E0FFEC
:102C4E009001C7E02FFD9001C6E03EFCC004C00518
:102C5E009001CCE0FCA3E0FDA3E0FEA3E024FFFF87
:102C6E00EE34FFFEED34FFFDEC34FFFCE47B02FAA4
:102C7E00F9F81232EFAB07AA069001CAE0FFA3E003
:102C8E00900361CFF0A3EFF0D005D004D007D006AB
:102C9E001272E99001CCA3A3E0FEA3E0FFC3900162
:102CAE00C5E09FFF9001C4E09ECF2401CF3400FE0B
:102CBE00C006C0079001D8A3A3E0FEA3E0FFC39017
:102CCE0001C7E09FFD9001C6E09EFCC004C00590C8
:102CDE0001CCE0FCA3E0FDA3E0FEA3E024FFFFEEA9
:102CEE0034FFFEED34FFFDEC34FFFCE47B02FAF919
:102CFE00F81232EFAB07AA069001CAE0FFA3E090EC
:102D0E000361CFF0A3EFF0D005D004D007D00612A8
:102D1E0072E99001D8E0FCA3E0FDA3E0FEA3E0245D
:102D2E00FFFFEE34FFFEED34FFFDEC34FFFC9001AF
:102D3E00D81234469001D8A3A3E0FEA3E0FFC390BF
:102D4E0001C5E09FFF9001C4E09EFEC006C0079043
:102D5E0001CCA3A3E0FEA3E0FF9001C7E02FFD90FE
:102D6E0001C6E03EFCC004C005E47F02FEFDFC90FF
:102D7E0001D8E0F8A3E0F9A3E0FAA3E0FB1232EFEA
:102D8E00AB07AA069001CAE0FFA3E0900361CFF063
:102D9E00A3EFF0D005D004D007D0061272E990014F
:102DAE00D8A3A3E0FEA3E0FFC39001C5E09FFF9070
:102DBE0001C4E09EFEC006C0079001CCA3A3E0FEB6
:102DCE00A3E0FFC39001C7E09FFD9001C6E09EFC0B
:102DDE00C004C005E47F02FEFDFC9001D8E0F8A31C
:102DEE00E0F9A3E0FAA3E0FB1232EFAB07AA0690DC
:102DFE0001CAE0FFA3E0900361CFF0A3EFF0D0058E
:102E0E00D004D007D0061272E99001CCE0FCA3E00A
:102E1E00FDA3E0FEA3E02401FFE43EFEE43DFDE45D
:0B2E2E003CFC9001CC123446022B78D3
:012E39002276
:106C8D00900290F0A3EFF090023DE0FEA3E0FF90A4
:106C9D00023BE0F8A3E02FFFE83E900292F0A3EF55
:106CAD00F0900241E0FFA3E0900294CFF0A3EFF04B
:086CBD00900231E0FEA3E0FFAC
:0E6CC500900288EEF0A3EFF0A3ECF0A3EDF048
:106CD300900290E0FCA3E0FDD39BEC9A506C9002F1
:106CE30088E0FEA3E0FFC3ED9FEC9E405D90028E23
:106CF300E0FEA3E0FF900292E0FCA3E0FDD39FEC53
:106D03009E504790028AE0FEA3E0FFC3ED9FEC9EF6
:106D130040389002FEE0FFA3E0900296CFF0A3EF8D
:106D2300F0900294E0FFA3E09002FECFF0A3EFF017
:106D3300900290E0FEA3E0FF1275CF900296E0FF71
:0A6D4300A3E09002FECFF0A3EFF0F2
:016D4D002223
:1034F600E0FFA3E090023FCFF0A3EFF09001B9E028
:10350600FFA3E0900241CFF0A3EFF09001ABE0FE05
:03351600A3E0FF30
:10351900900231EEF0A3EFF0A3ECF0A3EDF0A3EAF3
:10352900F0A3EBF0C006C007A3E0FFA3E090028E72
:10353900CFF0A3EFF090023DE0FEA3E0FF90023947
:10354900E0F8A3E02FFFE83E900290F0A3EFF0909F
:10355900023FE0FEA3E0FF90023BE0F8A3E0C39F37
:10356900FFE89E900292F0A3EFF0900241E0FFA3E2
:10357900E0900294CFF0A3EFF0D007D006126CC50B
:10358900900233E0FCA3E0FDA3E0FAA3E0FBA3E093
:10359900FFA3E090028ECFF0A3EFF090023FE0FE90
:1035A900A3E0FF900239E0F8A3E02FFFE83E900284
:1035B90090F0A3EFF090023DE0FEA3E0FF90023B04
:1035C900E0F8A3E0C39FFFE89E126CA7900233E0E6
:1035D900FCA3E0FDA3E0FAA3E0FBA3E0FFA3E090D6
:1035E900028ECFF0A3EFF090023FE0FEA3E0FF9040
:1035F9000239E0F8A3E02FFFE83E126C8D90023308
:10360900E0FCA3E0FDA3E0FAA3E0FBA3E0FFA3E055
:1036190090028ECFF0A3EFF090023DE0FEA3E0FF11
:10362900900239E0F8A3E02FFFE83E900290F0A362
:10363900EFF090023F126C97900233E0FCA3E0FD9B
:10364900A3E0FAA3E0FBA3E0FFA3E090028ECFF092
:10365900A3EFF090023DE0FEA3E0FF900239E0F80D
:10366900A3E0C39FFFE89E900290F0A3EFF09002C1
:103679003F126C97900233E0FCA3E0FDA3E0FAA3AC
:10368900E0FBA3E0FFA3E090028ECFF0A3EFF09060
:10369900023FE0FEA3E0FF900239E0F8A3E0C39FF8
:1036A900FFE89E126C8D900233E0FCA3E0FDA3E0DD
:1036B900FAA3E0FBA3E0FFA3E090028ECFF0A3EF13
:1036C900F090023FE0FEA3E0FF900239E0F8A3E0AA
:1036D900C39FFFE89E900290F0A3EFF090023DE0B7
:1036E900FEA3E0FF90023BE0F8A3E0C39FFFE89E42
:1036F900126CA7900233E0FCA3E0FDA3E0FAA3E07B
:10370900FBA3E0FFA3E090028ECFF0A3EFF09002BD
:103719003DE0FEA3E0FF900239E0F8A3E0C39FFF7C
