:1076850048656C6C6F20576F726C64210031323322
:08769500343536373839300076
:105C470090030974F8F0A3E4F0900304E0FFA3E0E5
:105C570090003ACFF0A3EFF0A3740CF0A374FFF019
:105C6700A37476F0A37485F0900302E0FAA3E0FB37
:105C77007D0A7C007F0A7E001266BA900304E0FF6B
:105C8700A3E090003ACFF0A3EFF0A37410F0A37451
:105C9700FFF0A37476F0A37485F0900302E0FAA3F3
:105CA700E0FB7D1E7C007F0A7E001266BA9003042B
:105CB700E0FFA3E090003ACFF0A3EFF0A37418F051
:105CC700A374FFF0A37476F0A37485F0900302E049
:105CD700FAA3E0FB7D327C007F0A7E001266BA746D
:105CE700FF900309F0A3F0900304E0FFA3E0900006
:105CF7003ACFF0A3EFF0A3740CF0A374FFF0A374F2
:105D070076F0A37492F0900302E0FAA3E0FB7D50D3
:105D17007C007F0A7E001266BA900304E0FFA3E0CE
:105D270090003ACFF0A3EFF0A37410F0A374FFF044
:105D3700A37476F0A37492F0900302E0FAA3E0FB59
:105D47007D647C007F0A7E001266BA900304E0FF40
:105D5700A3E090003ACFF0A3EFF0A37418F0A37478
:105D6700FFF0A37476F0A37492F0900302E0FAA315
:0D5D7700E0FB7D787C007F0A7E000266BAAA
:0B76FA0012769D1240D4125C4780FE07
:0B770500EF1FAC0670011E4C70F62256
:10766700D3EF9400EE940040147D6E7C00ED1D7006
:0D767700011CED4C70F7EF1F70E61E80E364
:0176840022E3
:0576DC00420032000035
:10769D00759850758920758780758DFA858D8BD27B
:0676AD00AFD28ED299223B
:06771B00EF24FF92AC22F6
:0E76EC00C2ACC2998F993099FDC299D2AC22DE
:10754900900399EBF0A3EAF0A3E9F0900399E0FB2B
:10755900A3E0FAA3E0F912319FFF60161276EC7FDF
:10756900057E0012770590039AE475F00112325EE8
:0375790080D92294
:0300230002700167
:0F700100C0E0C083C082C0D075D000C004C007FB
:10701000309865C298AF99900032E0FCEC20E758B8
:1070200030E60FEF640A90003260028047E044804F
:10703000800BEF640D700C900032E04440F0A3E050
:10704000F08035900032E0543FFCA3E02400F5824C
:1070500074003CF583EFF0900033E004F07006908C
:107060000032E004F0D3900033E09431900032E03D
:0870700094004004E4F0A3F0D9
:0D707800D007D004D0D0D082D083D0E03239
:10002600204C43442049443A25780D0A000000003C
:10003600000000000000000000000000003F40003B
:1000460000000000000000300040003000400000CA
:100056000009000BC03D000BC03D00090018C0247C
:10006600407FE0224031800000180024C01B000DB4
:10007600803240018003801C4027401C80074000DE
:1000860040100060000000000000000000000000BA
:100096000000001F80204040200000402020401F1C
:1000A6008000000000090006001F8006000900000D
:1000B60000040004003F800400040000000010005B
:1000C60060000000000000000004000400040004BA
:1000D60000040000000000004000000000000000D6
:1000E60000002001C006003800400000001F8020EC
:1000F60040204020401F800000000010403FC0000C
:10010600400000000018C021402240244018400052
:100116000010802040244024401B80000002000D77
:100126000011003FC0014000003C802440244024D0
:1001360040238000001F8024402440344003800078
:10014600003000200027C03800200000001B80245B
:1001560040244024401B8000001C0022C022402274
:10016600401F800000000000000840000000000062
:100176000000000000046000000000000000000411
:10018600000A00110020804040090009000900090A
:10019600000900000000004040208011000A000411
:1001A600001800200023402400180000001F8020B3
:1001B60040274029401F400000004007C039000F7B
:1001C6000001C0004020403FC0244024401B800066
:1001D600001F802040204020403080000020403F0B
:1001E600C0204020401F80000020403FC024402EF9
:1001F6004030C0000020403FC024402E00300000A8
:10020600000F001080204022403380020020403F33
:10021600C0040004003FC02040204020403FC020D2
:1002260040204000000060202020203FC020002009
:100236000020403FC024400B0030C0204020403FFB
:10024600C020400040004000C03FC03C0003C03C0E
:10025600003FC0000020403FC00C4023003FC020AC
:10026600001F802040204020401F80000020403F8B
:10027600C024402400180000001F80214021402097
:10028600E01FA0000020403FC02440260019C00007
:100296004018C02440244022403180000030002015
:1002A600403FC020403000000020003F800040005A
:1002B600403F80200020003E0001C007003800209B
:1002C60000380007C03C0007C03800000020403955
:1002D600C0060039C0204000002000384007C03862
:1002E6004020000000304021C02640384020C00099
:1002F60000000000007FE040204020000000007069
:10030600000C000380004000000000402040207FD9
:10031600E000000000000020004000200000000077
:100326000000100010001000100010001000000067
:1003360000400000000000000000000280054005AB
:100346004003C0004020003FC0044004400380003A
:100356000000000380044004400640000000000343
:1003660080044024403FC000400000038005400553
:100376004003400000000004401FC02440244020E9
:1003860000000002E0055005500650042020403FC2
:10039600C00440040003C000400000044027C00021
:1003A600400000000000100010041027E0000000CC
:1003B6000020403FC00140070004C0044020402008
:1003C600403FC000400040000007C0040007C004D2
:1003D6000003C00000044007C00440040003C0003E
:1003E600400000038004400440038000000410071E
:1003F600F004500440038000000000038004400421
:100406005007F00010044007C0024004000400003A
:1004160000000006400540054004C000000000043E
:10042600001F8004400040000004000780004004D4
:100436004007C000400400070004C0018006000415
:1004460000060001C0070001C006000000044006C7
:10045600C0010006C0044000000410071004E001BB
:1004660080060004000000044005C0064004400069
:10047600000000000004007BE040200000000000B7
:10048600000000FFF000000000000040207BE004B8
:1004960000000000004000800040002000200040D6
:1004A6000000000000000000000000000000000046
:1004B600000000000000001FCC000C00000000003F
:1004C60000000008003000600008003000600000F6
:1004D60000022003FC1E20022003FC1E2002200036
:1004E6000000000E1811043FFF10840C7800000075
:1004F600000F0010840F3800C007781884007800B9
:100506000000780F8410C411240E9800E4008400C3
:1005160008080068007000000000000000000000ED
:100526000000000000000007E01818200440020048
:1005360000000040022004181807E0000000000038
:10054600000240024001800FF0018002400240009C
:10055600000080008000800FF8008000800080008E
:10056600000001000D000E00000000000000000069
:100576000000000080008000800080008000800075
:10058600800000000C000C000000000000000000CD
:100596000000000006001800600180060018002018
:1005A60000000007F0080810041004080807F0000F
:1005B600000000080408041FFC00040004000000FA
:1005C6000000000E0C10141024104411840E0C00B0
:1005D6000000000C1810041104110412880C70009D
:1005E60000000000E00320042408241FFC0024006F
:1005F6000000001F98108411041104108810700068
:1006060000000007F0088811041104188800700023
:100616000000001C00100010FC13001C001000005D
:100626000000000E3811441084108411440E380066
:100636000000000700088C10441044088807F000EA
:1006460000000000000000030C030C000000000086
:10065600000000000000010106000000000000008C
:100666000000000080014002200410080810040069
:100676000002200220022002200220022002200086
:100686000000001004080804100220014000800049
:100696000000000E001200100C106C10800F0000FD
:1006A6000003E00C1813E4142417C4082807D0002C
:1006B600000004003C03C41C40074000E4001C008A
:1006C6000410041FFC1104110411040E88007000AC
:1006D6000003E00C1810041004100410081C10008D
:1006E6000010041FFC100410041004080807F00092
:1006F6000010041FFC1104110417C410040818008C
:100706000010041FFC1104110017C010000800009F
:100716000003E00C181004100410441C780040007C
:100726000010041FFC10840080008010841FFC1041
:10073600040000100410041FFC1004100400000044
:100746000000030001100110011FFE100010000040
:100756000010041FFC110403801464181C1004000C
:100766000010041FFC1004000400040004000C0028
:100776000010041FFC1F0000FC1F001FFC100400DB
:100786000010041FFC0C04030000E010181FFC10EE
:100796000007F00808100410041004080807F00009
:1007A6000010041FFC10841080108010800F0000C1
:1007B6000007F0081810241024101C080A07F2007D
:1007C6000010041FFC1104110011C011300E0C00A2
:1007D6000400000E1C11041084108410441C380000
:1007E600001800100010041FFC1004100018000070
:1007F6000010001FF810040004000410041FF81075
:100806000010001E0011E0001C007013801C001078
:10081600001FC0103C00E01F0000E0103C1FC0009D
:10082600001004180C163401C001C01634180C1040
:100836000410001C00130400FC13041C001000002C
:10084600000804101C1064108413041C0410180003
:10085600000000000000007FFE400240024002004F
:1008660000000030000C0003800060001C00030044
:100876000000004002400240027FFE00000000002F
:100886000000000000200040004000400020000062
:10089600000001000100010001000100010001004B
:1008A60001000040004000200000000000000000A1
:1008B6000000000098012401440144014400FC00AA
:1008C6000410001FFC008801040104008800700069
:1008D6000000000070008801040104010400880083
:1008E600000000007000880104010411081FFC00CC
:1008F60004000000F8014401440144014400C8001A
:10090600000000010401040FFC1104110411001879
:1009160000000000D601290129012901C9010600AC
:100926000010041FFC008401000100010400FC000B
:100936000400000104190419FC000400040000006E
:10094600000000000300010101190119FE0000006A
:100956000010041FFC0024004001B4010C01040037
:10096600000000100410041FFC0004000400000036
:1009760000010401FC0104010001FC010401000066
:10098600FC010401FC008401000100010400FC00DC
:1009960004000000F8010401040104010400F80049
:1009A60000010101FF0085010401040088007000B8
:1009B6000000000070008801040104010501FF0029
:1009C600010104010401FC0084010401000180000E
:1009D60000000000CC012401240124012401980018
:1009E6000000000100010007F801040104000000F6
:1009F60000010001F8000400040004010801FC00E5
:100A060004010001800170000C00100160018001EA
:100A16000001F0010C003001C00030010C01F001B2
:100A26000000000104018C00740170018C010400B7
:100A360000010101810171000E00180160018001B1
:100A46000000000184010C013401440184010C0002
:100A560000000000000000000001003EFC400240D3
:100A6600020000000000000000FFFF000000000080
:100A7600000000400240023EFC01000000000000B1
:100A86000000006000800080004000400020002040
:100A96000000000000000000000000000000000050
:100AA6000000000000000000000000000000000040
:100AB6000000000000000000000000000000000030
:100AC600000000000F80380FFE380F80380000004D
:100AD600000000000000000000000000000000010F
:100AE60000000600000C000038000031000006007F
:100AF600000C00003800003000000000000000007C
:100B06000061800067F807F980006180006180005D
:100B160061800061800067F807F98000618000004D
:100B26000000000000000001C0E003E0F00630080D
:100B36000418081FFFFE040E080787F00381E00073
:100B4600000000000001F000060C00040408060C7A
:100B56007001F9C0000E00003BE000EC1807080821
:100B6600040C180003E00000000001E00007F00399
:100B7600F818041C0804170807E1D003C0E0002396
:100B8600B0003C0800200800001000000000000033
:100B96000100003100003200001C000000000000CF
:100BA600000000000000000000000000000000003F
:100BB600000000000000000000000000000000002F
:100BC600007F0001FFC00780F00C00181000042011
:100BD60000020000000000002000021000040C00CB
:100BE600180780F001FFC0007F0000000000000031
:100BF60000000000000000000000000000420000AD
:100C06006600006600003C0000180003FFC00018E4
:100C160000003C0000660000660000420000000084
:100C26000008000008000008000008000008000195
:100C3600FFC00008000008000008000008000008C7
:100C46000000000000000100003100003200001C1E
:100C5600000000000000000000000000000000008E
:100C66000000000000000000000800000800000866
:100C76000000080000080000080000080000080046
:100C8600000800000800000000000000000000004E
:100C960000380000380000380000000000000000A6
:100CA600000000000000000000000000000000003E
:100CB60000000600001C000070000180000E00000D
:100CC600380000C0000700001C00003000000000D3
:100CD60000000000007F8001FFE00380700600181E
:100CE60004000804000806001803807001FFE000F5
:100CF6007F800000000000000000000100080100E5
:100D06000801000803FFF807FFF8000008000008C4
:100D160000000800000000000000000001C03802CA
:100D2600C058040098040118040218040418061C8C
:100D36001803F81801E0F8000000000000000000A9
:100D460001C0E003C0F0040008040808040808060F
:100D5600180803F41801E7F00001E00000000000A5
:100D660000000000000300000D00001100006100FB
:100D760000810803010807FFF80FFFF800010800CB
:100D860001080000000000000000E007FCD0060893
:100D960008061008061008061008061838060FF090
:100DA6000607C0000000000000000000003F8001B0
:100DB600FFE0038430020818041008041008041029
:100DC60008071810030FF00007C00000000000001D
:100DD60000000003C0000700000600000600F80639
:100DE60007F806180006E0000700000600000000ED
:100DF6000000000001E1E003F7F0063410041808D3
:100E0600041808040C08040C0806161803F3F0016D
:100E1600C1E000000000000000F80003FC300306FB
:100E2600380402080402080402080404100308F047
:100E360001FFC0007F00000000000000000000006D
:100E460000000000000000000070380070380070DC
:100E56003800000000000000000000000000000054
:100E660000000000000000000000000000301A0032
:100E7600301C000000000000000000000000000020
:100E8600000000000000000008000014000022001E
:100E9600004100008080010040020020040010088C
:100EA60000080000000000000021000021000021D1
:100EB6000000210000210000210000210000210087
:100EC60000210000210000000000000000000008D2
:100ED600000804001002002001004000808000414C
:100EE60000002200001400000800000000000000BE
:100EF60003C00004C000040000080038080F3808CA
:100F060008380810000C300007E00003C00000009D
:100F160000000000003F8000FFE0038070020F1019
:100F260006708804C088048308047F8802C0900382
:100F3600012000FE400000080000180001F8003EF5
:100F46000801C20007020007E20000FE00001FC8F9
:100F56000001F800003800000804000807FFF80741
:100F6600FFF8040808040808040808040808061816
:100F76000803F41801E7F00001E00000000000009B
:100F8600003F8001FFE0038070020018040008049F
:100F960000080400080400100600200780C00000B6
:100FA6000004000807FFF807FFF80400080400081B
:100FB60004000804001802001003807001FFE0001E
:100FC6007F8000000004000807FFF807FFF8040808
:100FD60008040808040808040808043E0804000871
:100FE60006001801006000000004000807FFF8076B
:100FF600FFF8040808040800040800040800043E7A
:10100600000600000600000180000000000000004D
:10101600003F8001FFE0038070060018040008040A
:1010260002080402080203F00783F000020000022F
:101036000004000807FFF807FFF804080800080086
:1010460000080000080000080004080807FFF80769
:10105600FFF8040008000000000000040008040077
:101066000804000807FFF807FFF804000804000852
:101076000400080000000000000000000000060058
:10108600000700000104000104000104000307FF3B
:10109600FE07FFFC04000004000004000004000832
:1010A60007FFF807FFF8040C08001800003E0004CC
:1010B600C7800503C80600F80400380400180000BD
:1010C6000804000807FFF807FFF8040008000008F6
:1010D60000000800000800000800000800001800D2
:1010E600006000000004000807FFF807800807FCFE
:1010F60000007FC00003F80007C0007800078008E2
:1011060007FFF807FFF804000804000807FFF807C0
:10111600000803C00000E000003800001E000007C1
:10112600000001C00400F007FFF804000000000002
:10113600007F8001FFE003807006001804000804A9
:10114600000806001803003001FFE0007F80000061
:101156000004000807FFF807FFF804040804040069
:10116600040400040400040400060C0003F8000153
:10117600F000000000000000007F8001FFE0038017
:10118600700600880400880400C806003C03003E80
:1011960001FFE6007F8400000004000807FFF8074F
:1011A600FFF8040808040800040C00040F00040BF0
:1011B600C00610F003F03801E00800000800000047
:1011C60001E0F803F030063010041808041808048B
:1011D6000C08040C080206180207F00781E000005C
:1011E600000180000600000400000400000400085E
:1011F60007FFF807FFF804000804000004000006D3
:10120600000001800004000007FFE007FFF0040073
:101216001800000800000800000800000800000888
:1012260004001007FFE004000004000006000007A9
:10123600E00007FE00041FE00001F800003800018E
:10124600E0043E0007C000060000040000040000A1
:1012560007E00007FFC0041FF80007C007F80007F3
:10126600FF80043FF80007C004F8000700000400F0
:101276000000000004000806001807C07805F1C841
:10128600003E00001F800463E80780F8060018048B
:10129600000800000004000006000007800007E0C8
:1012A60008047C08001FF80007F800180804E00886
:1012B6000700000600000400000000000100080608
:1012C60000380400F80403E8040F08047C0805F05D
:1012D6000807C008070018040060000000000000AE
:1012E6000000000000000000000000003FFFFE209C
:1012F600000220000220000220000220000200005E
:101306000000000000000008000007000000C00008
:101316000038000006000001C000003000000E008A
:101326000001000000000000000000200002200074
:10133600022000022000022000023FFFFE00000003
:101346000000000000000000000000000000000097
:1013560000000800001000003000002000003000EF
:10136600001000000800000000000000000000015E
:101376000000010000010000010000010000010062
:101386000001000001000001000001000001000052
:101396000100000000000000000020000020000006
:1013A6001000001000000000000000000000000017
:1013B60000000000000000000000F00019F8001B0B
:1013C60018002208002608002408002410003FF810
:1013D600001FF800000800001800000004000007C5
:1013E600FFF80FFFF0001818001008002008002072
:1013F60008003018001FF0000FC0000000000000B9
:101406000007C0001FF00018300020080020080068
:101416002008003C08001C100000600000000000CE
:10142600000000000007C0001FF000381800200868
:1014360000200800200804101007FFF80FFFF00036
:1014460000100000000000000000000007C0001FA0
:10145600F00012300022180022080022080032088C
:10146600001E10000E2000000000000000200000FA
:10147600200800200801FFF803FFF80620080420D2
:1014860008042008072000030000000000000000F8
:1014960000000E000E6E001FF30031B10020B100F7
:1014A60020B1003191001F13002E1E00200E0030C7
:1014B6000000000004000807FFF80FFFF8001008FE
:1014C600002000002000002008003FF8001FF80060
:1014D60000080000000000000000000020080020B6
:1014E60008002008063FF8063FF80000080000083C
:1014F60000000800000000000000000000000000DE
:101506000003000003002001002001002003063F25
:10151600FE063FFC00000000000000000000000086
:1015260004000807FFF80FFFF80001880003000019
:101536002FC00038F80020380020080000080000FE
:101546000000000000000004000804000804000871
:1015560007FFF80FFFF80000080000080000080069
:101566000000000000002008003FF8003FF80010CF
:1015760008002000003FF8003FF800100800200097
:10158600003FF8003FF800000800000000200800B7
:101596003FF8003FF800100800100000200000206F
:1015A60008003FF8001FF8000008000000000000D7
:1015B6000007C0000FF000183000300800200800B7
:1015C6002008003008001830000FF00007C00000A7
:1015D60000000000002001003FFF003FFF00101147
:1015E600002009002008002008003038001FF00005
:1015F6000FC00000000000000007C0001FF0003808
:1016060018002008002008002009001011001FFF04
:10161600003FFF0000010000000020080020080035
:101626002008003FF8003FF80008080010080020D6
:10163600080020000030000030000000000000001C
:10164600000000000C78001E180033080023080074
:1016560021080021880021980030F0003860000041
:101666000000000000200000200000200000FFF025
:1016760003FFF800200800200800200800003000C2
:101686000000000000000000002000003FF0007F86
:10169600F8000018000008000008002010003FF8BD
:1016A600007FF00000100000000000000020000095
:1016B6003000003C00003F800023F000007800006E
:1016C60070002380003C0000300000200000200055
:1016D600003C00003FE00023F80000E00027000087
:1016E6003E00003FE00021F80001E0003E0000203F
:1016F60000000000002008002008003838003E687E
:101706000027800003C8002CF80038380020180095
:101716002008000000000000002000003003003C0C
:1017260001003F830023EC000070002380003C0092
:101736000020000020000000000000000000000063
:1017460038080020380020F80023E8002F88003EE3
:101756000800380800201800007000000000000093
:10176600000000000000000000000000000800006B
:1017760014001FF7FC3000062000020000000000E5
:101786000000000000000000000000000000000053
:10179600000000FFFFFF0000000000000000000046
:1017A60000000000000000000000002000023000E1
:1017B600061FF7FC001400000800000000000000EF
:1017C600000000000000000000000000180000609B
:1017D600000040000040000020000010000008004B
:1017E600000400000400000C0000100000C6D50034
:1017F60000000000E0380000783C00003C78000063
:101806003C70C0001CE1E01FFFFFF0001CE3000E6F
:101816001CE7C0079CE78003DCEF0003DCEE000159
:10182600DCFC60009CF9F07FFFFFF800000000017F
:10183600C00E0001FFFF0001C00E0001C00E000136
:10184600C00E0001FFFE0001C00E0001C00E000127
:10185600C00E0001FFFE0001C00E0001C00E000018
:10186600000000D6D000000000000700000007803E
:101876000000070000000700000007000000070145
:10188600801FFFFFE01FFFFFE01E0701C01E0701CC
:10189600C01E0701C01E0701C01E0701C01E0701AA
:1018A600C01FFFFFC01FFFFFC01E0701C01C0701AE
:1018B6008000070000000700000007000000070086
:1018C60000000700000007000000070000000700F6
:1018D600000007000000000000BFC6000000000076
:1018E600000780003C07C001FC07803FE007803905
:1018F600C1C78001C0E78001C0F78001C0778001C1
:10190600DE77807FFE078001C0078003C3C78003A0
:10191600E1E78003F8F78007FCE7F00FDE67F80FD2
:10192600DC07F81FC0FF801DDFE78039CC07807118
:10193600C0078061C0078001C0078001C007800121
:10194600E0078001E0078001C0070000000000BC3E
:10195600BC000000000380300003C03C0003C03C14
:101966000003C0380003C0380003C0386003F838ED
:10197600F07FFFFFF003C0380003C0380003C03813
:101986000003DC39C003FFFFE007E383C03FC183E8
:10199600C07FC1C3803BC1C78003C0EF0003C0EF57
:1019A6000003C07E0003C07C0003C07C0003C0FEB1
:1019B600003BC3EF803F8787F80FBF03F807780027
:1019C600E000000000C4EA0000000000C0000001C2
:1019D600F0000001E0000003C000C003C001E00702
:1019E600FFFFF00703C0000E03C0001E03C0003C4B
:1019F60003C3007303C78063FFFFC00383C00003F4
:101A060083C0000383C0000383C0000383C0600358
:101A160083C0F07FFFFFF80003C0000003C0000092
:101A260003C0000003C0000003C0000003C00000A4
:101A360003C0000003C00000000000D4C200000084
:101A4600000000000000E0070000FFFF8000F00734
:101A56008000F0070000F0070000F0070000F00724
:101A66000000FFFF0000FFFF0000F0070000F00786
:101A76000000F0070000F0070000E0070000FFFF8D
:101A86000000E0070000E0070000E0070001E007B3
:101A96000001C0070001C00700038007000780F7A8
:101AA600000F007F001E001F0038001C0000000011
:101AB60000C8D5000000000000000003000300037A
:101AC600FFFF8003FFFF80038007000380070003FA
:101AD60080070003800700038007000380070003D8
:101AE6008007000380070003FFFF00038007000351
:101AF60080070003800700038007000380070003B8
:101B060080070003800700038007000380070003A7
:101B1600FFFF000380070003800700038007000320
:101B260000000000000000D0C70000000000000018
:101B3600000380070003FFFF800380070003800780
:101B4600000380070003FFFF0003800700038007F0
:101B56000003FFFF0003FFFF00038707000387C0A2
:101B66000003C7810003C7838007FFFFC007078004
:101B7600000F0780001E0786001C078F003BFFFF33
:101B8600807007800000078000000780E000078162
:101B9600F07FFFFFF80000000000000000C6DA003A
:101BA60000000006000000079E0000079E7FF00769
:101BB6009E7FF0079FF8F03FFFF8F01F9E78F00732
:101BC6009E78F0079E78F007FE7FF0079E78F00774
:101BD6009E78F0079E70F007FE70F0079E70F00783
:101BE6009E7FF0079FFFF03FFFF0F0119070F0032B
:101BF600DCF0F003DEE0F0078FE0F00F0FE0F00E10
:101C060007C0F01C038FF0380F03E0201C01C00052
:031C1600000000CB
:0A76E100420309FFFF42030B000003
:10000300E4FDFCC3ED9FEC9E5014E4FBFA0BBB0034
:0E001300010AEBF44A70F60DBD00010C80E509
:0100210022BC
:0875AA007E001275B2E4FFFE41
:0475B200AD07AC066F
:1075B600ECFFAE05D2A5C2A7D2B2C2A68F90C2A5D5
:0C75C600D2A5AF068F90C2A5D2A5D2A717
:0175D2002296
:0D757C007E001275B2900053E0FEA3E0FF08
:04758900AD07AC0698
:10758D00ECFFAE05D2A5C2A7D2B2D2A68F90C2A5EE
:0C759D00D2A5AF068F90C2A5D2A5D2A740
:0175A90022BF
:0875D300900382E0FEA3E0FF3B
:0475DB00AD07AC0646
:1075DF00ECFFAE05D2A5C2A7D2B2D2A68F90C2A59C
:0C75EF00D2A5AF068F90C2A5D2A5D2A7EE
:0175FB00226D
:0676C8007C107F037E0030
:0E76CE00AB05AA041275B2AE02AF03027589B5
:107648007590FF7580FFC2A7D2A6C2B200AF90EFB7
:0E765800FED2B2C2B200AD90EDFFD2B2D2A708
:017666002201
:1072DF00EF7026FD7C057F01FE1276CE7D30127693
:1072EF00C8900304E4F0A374DCF0900302E4F0A36D
:1072FF0074B0F0E4900308F0227D007C047F017EDF
:10730F00001276CE7D381276C8900304E4F0A37491
:10731F00B0F0900302E4F0A374DCF0900308740162
:02732F00F0224A
:1040D400D2B37F647E00127667C2B37F647E00121F
:1040E4007667D2B37F647E00127667E4FFFE1275B2
:1040F400B2127648900306EEF0A3EFF07BFF7A004D
:104104007926900037EEF0A3EFF0122EA5E4FFFE1F
:104114001275B27F017E001275897F0A7E001277C4
:10412400057F071275AA7F121275AA7FA47E00125A
:1041340075B27F017E001275B27F0A7E0012770588
:104144007F707E001275B27F007E9B1275897F0797
:104154007E001275B27F317E001275897F187E0051
:104164001275B27F017E001275897F107E00127570
:10417400B27FB07E111275897F117E001275B27FF5
:10418400077E001275897F127E001275B27F177E3A
:10419400101275897F137E001275B27F0D7E851211
:1041A40075897F147E001275B27F007E8012758936
:1041B4007F127E001275B27F3C7E101275897F9645
:1041C4007E001200037F011275B27F007E05127516
:1041D400897F027E001275B27F007E071275897F87
:1041E400037E001275B27F307E101275897F087EBF
:1041F400001275B27408FFFE1275897F0B7E0012DF
:1042040075B27F007E111275897F0C7E001275B223
:10421400E4FFFE1275897F0F7E001275B27F017E66
:10422400141275897F157E001275B2E4FFFE1275B3
:10423400897F207E001275B2E4FFFE1275897F210A
:104244007E001275B2E4FFFE1275897F507E001263
:1042540075B2E4FFFE1275897F517E001275B27F3C
:10426400AF7E001275897F527E001275B2E4FFFEA4
:104274001275897F537E001275B27FDB7E00127542
:10428400897F707E001275B27F007E1B1275897F54
:10429400717E001275B2E4FFFE1275897F907E0074
:1042A4001275B2E4FFFE1275897F917E001275B219
:1042B4007F007E011275897F927E001275B27F01A4
:1042C4007E001275897F597E001275B27F0C7E05BF
:1042D4001275897F907E001275B27F107E00127570
:1042E400897F927E001275B27F007E061275897FE7
:1042F400077E001275B27F337E021275897F327E8B
:10430400001200037F221275B2E4FF1272DF9003E1
:094314000BE0FEA3E0FF0270853E
:056E5A00E0FEA3E0FFD3
:106E5F00900053EEF0A3EFF0A3ECF0A3EDF090034E
:106E6F0008E070357F50FE12757E7F517E001275DF
:106E7F00B2AF03AE021275897F527E001275B2A3B4
:106E8F001275847F537E001275B29000591275846B
:106E9F007F2012757C7F2180327F5212757C7F5349
:106EAF007E001275B2AE02AF031275897F507E005D
:106EBF001275B2A31275847F517E001275B29000C5
:106ECF00591275847F2112757C7F207E001275B256
:0C6EDF00A31275847F227E001275B2227F
:0E694D00900348EEF0A3EFF0A3ECF0A3EDF002
:10695B00E4A3F0A304F0A3E4F0A304F0900302E09B
:10696B00FEA3E0FFC3900349E09F900348E09E50D5
:10697B0015900304E0FEA3E0FFC390034BE09F9050
:10698B00034AE09E4004E4FEFF2290034AE0FCA38E
:10699B00E0FD900348E0FAA3E0FBA3E0FFA3E09047
:1069AB000059CFF0A3EFF0900348126E5A127648BD
:1069BB00AB07AA06127648AA06AB07EA13131354C1
:1069CB001FFF90034EE4F0A3EFF0EB7805CEC3135B
:1069DB00CE13D8F9543FFF90034CE4F0A3EFF07CB7
:1069EB0000EB541FFD90034CE0FEA3E07805C3338E
:1069FB00CE33CED8F9FBAA06ED33333354F84AFE27
:106A0B00EBFF90034EE04EFAA3E04FAC02AE04FF57
:016A1B002258
:08708500900034EEF0A3EFF0DF
:10708D00E4A3F0A3F0900303E024FFFB900302E0E0
:10709D0034FFFA900305E024FFFE900304E034FF73
:1070AD00900059F0A3CEF0E4FDFCFFFE126E5FE4FC
:1070BD00FAFBD3900303E09B900302E09A4039E47E
:1070CD00900036F0A3F0900304E0FEA3E0FFC39020
:1070DD000037E09F900036E09E50169000341275F8
:1070ED00D6900037E004F070DD900036E004F080BB
:0870FD00D50BBB00010A80BAAB
:017105002267
:106A1C009002ECECF0A3EDF09002EAEEF0A3EFF0B4
:086A2C009002EEEAF0A3EBF08A
:106A3400E49002F4F0A3F0D3EF9BEE9A4003026AD1
:106A4400E49002F0E0FEA3E0FF9002ECE0FCA3E09F
:106A5400FD9FEC9E4003026AE4A3E0FAA3E0FB90EE
:106A64000059EEF0A3EFF09002EA126E5A9002EA97
:106A7400E0FEA3E0FFC39002EFE09FFF9002EEE090
:106A84009ECF2401CF34009002EAF0A3EFF0A3E0FC
:106A9400FEA3E0FFC39002F1E09FFF9002F0E09EAE
:106AA400CF2401CF34009002ECF0A3EFF09002EA7F
:106AB40074FFF5F012327445F060259002ECE0FFAB
:106AC400A3E09002F4CFF0A3EFF09002F474FFF58A
:106AD400F012327445F060D59002F21275D680EA55
:016AE400228F
:0E61FA009001FCEEF0A3EFF0A3ECF0A3EDF0AB
:106208009001FCE0FEA3E0FFC3EB9FFFEA9ECF24D2
:1062180001CF3400900209F0A3EFF09001FEE0FEF8
:10622800A3E0FFC3900203E09FFF900202E09ECF2D
:106238002401CF3400900207F0A3EFF09001FEE0B4
:10624800FCA3E0FD900202E0FFA3E0900059CFF02C
:10625800A3EFF09001FC126E5AE490020BF0A3F049
:10626800900207E0FEA3E0FFC390020CE09F9002BB
:106278000BE09E5074E490020DF0A3F0900209E048
:10628800FEA3E0FF90020DE0FAA3E0FBC39FEA9EA5
:106298005046900209E0FCA3E0FDA3E0FEA3E0FF66
:1062A8001231F7EB2FFFEA3EFEEF25E0FFEE33FE5B
:1062B800900204E0FBA3E0FAA3E0F98F828E831238
:1062C800328AFFAEF01275DB90020EE004F070AC7B
:1062D80090020DE004F080A490020CE004F07080BD
:0962E80090020BE004F002626870
:0162F100228A
:10745600900313FEE0FCA3E0FDC3900310E09DFD46
:0674660090030FE09CFC06
:10746C00AB07AA068D828C83C006C007AE83AF82A1
:10747C00900059EEF0A3EFF0D007D006126E5F909B
:0A748C000309E0FEA3E0FF0275DB38
:0673CA00FDE0FAA3E0FB68
:1073D00090004DEEF0A3EFF0900051EAF0A3EBF037
:1073E00090004FECF0A3EDF090004DE0FAA3E0FB2D
:1073F000FFAE02C007A3E0FFA3E0900059CFF0A3C7
:10740000EFF0D007126E5F900051E0FEA3E0FF02A4
:0274100075DB2A
:10720100900378EEF0A3EFF0A3ECF0A3EDF0A3EA86
:10721100F0A3EBF01273D0900379E02401FF900307
:1072210078E03400FE90037AE0FCA3E0A31273CA75
:10723100900378E0FEA3E0FF90037BE02401FD9042
:10724100037AE03400FC90037C1273CB900379E065
:107251002401FF900378E03400FE90037BE02401D9
:10726100FD90037AE03400FC90037CE0FAA3E0FB9C
:037271000273D0D5
:0E47470090013AEEF0A3EFF0A3ECF0A3EDF03A
:10475500E4900142F0A3F0A3F0A3F0A3F0A3F0903E
:10476500013AE0FEA3E0FFC3EB9FFFEA9E900148FC
:10477500F0A3EFF090013CE0FAA3E0FBC390014108
:10478500E09BFE900140E09A90014AF0A3CEF090A4
:10479500013AE0FFA3E0900152CFF0A3EFF0A3EAC6
:1047A500F0A3EBF0900148E0FEA3E0FFD39400EE08
:1047B50064809480400A90014EE4F0A304F08021C7
:1047C500EF4E700890014EF0A3F0801574FF900134
:1047D5004EF0A3F0C3E49FFFE49E900148F0A3EFE1
:1047E500F090014AE0FEA3E0FFD39400EE648094CC
:1047F50080400A900150E4F0A304F08021EF4E7050
:1048050008900150F0A3F0801574FF900150F0A3BB
:10481500F0C3E49FFFE49E90014AF0A3EFF09001FE
:104825004AE0FEA3E0FF900148E0FCA3E0FDD39F32
:10483500EE6480F8EC64809890014C4007ECF0A39E
:10484500EDF08005EEF0A3EFF0E4900142F0A3F067
:1048550090014DE02401FF90014CE03400FED3901F
:104865000143E09F900142E09E40030249359001DB
:1048750052E0FEA3E0FFA3E0FCA3E0FD12746C9000
:104885000148E0FEA3E0FF900145E02FF0900144D0
:10489500E03EF090014AE0FEA3E0FF900147E02FE3
:1048A500F0900146E03EF090014CE0FEA3E0FF9061
:1048B5000144E0FCA3E0FDD39FEE6480F8EC648046
:1048C500984020ED9FFFEC9E900144F0A3EFF090FF
:1048D500014EE0FEA3E0FF900153E02FF09001525E
:1048E500E03EF090014CE0FEA3E0FF900146E0FCC5
:1048F500A3E0FDD39FEE6480F8EC6480984020ED42
:104905009FFFEC9E900146F0A3EFF0900150E0FE72
:10491500A3E0FF900155E02FF0900154E03EF090A8
:104925000143E004F07006900142E004F0024855AE
:01493500225F
:0E4936009000E0EEF0A3EFF0A3ECF0A3EDF0A4
:10494400E49000ECF0A3F0A3F0A3F09000E0E0FE0C
:10495400A3E0FFC3EB9FFFEA9E9000F0F0A3EFF00B
:104964009000E2E0FAA3E0FBC39000E7E09BFE9036
:1049740000E6E09A9000F2F0A3CEF09000E0E0FFB1
:10498400A3E09000FACFF0A3EFF0A3EAF0A3EBF0DA
:104994009000F0E0FEA3E0FFD39400EE64809480E6
:1049A400400A9000F6E4F0A304F08021EF4E700872
:1049B4009000F6F0A3F0801574FF9000F6F0A3F0D9
:1049C400C3E49FFFE49E9000F0F0A3EFF09000F2A8
:1049D400E0FEA3E0FFD39400EE64809480400A904C
:1049E40000F8E4F0A304F08021EF4E70089000F882
:1049F400F0A3F0801574FF9000F8F0A3F0C3E49FD7
:104A0400FFE49E9000F2F0A3EFF09000F2E0FEA32A
:104A1400E0FF9000F0E0FCA3E0FDD39FEE6480F89B
:104A2400EC6480989000F44007ECF0A3EDF080056E
:104A3400EEF0A3EFF0E49000EAF0A3F09000F5E0CC
:104A44002401FF9000F4E03400FED39000EBE09FDB
:104A54009000EAE09E4003024B229000FAE0FEA39D
:104A6400E0FFA3E0FCA3E09000E81273CA9000F01A
:104A7400E0FEA3E0FF9000EDE02FF09000ECE03EBC
:104A8400F09000F2E0FEA3E0FF9000EFE02FF09042
:104A940000EEE03EF09000F4E0FEA3E0FF9000ECB6
:104AA400E0FCA3E0FDD39FEE6480F8EC64809840C2
:104AB40020ED9FFFEC9E9000ECF0A3EFF09000F649
:104AC400E0FEA3E0FF9000FBE02FF09000FAE03E50
:104AD400F09000F4E0FEA3E0FF9000EEE0FCA3E021
:104AE400FDD39FEE6480F8EC6480984020ED9FFF36
:104AF400EC9E9000EEF0A3EFF09000F8E0FEA3E04F
:104B0400FF9000FDE02FF09000FCE03EF09000EB01
:0E4B1400E004F070069000EAE004F0024A406F
:014B22002270
:1064DD0090037EEEF0A3EFF0900382EAF0A3EBF0D1
:0864ED00900380ECF0A3EDF038
:1064F50090037EE0FAA3E0FB24FFFFEA34FFFEC031
:1065050006C007ED24FFFDEC34FFFCEB2401FBE4A2
:106515003AFAA3E0FEA3E02401FFE43E900059F01F
:10652500A3EFF0D007D006126E5FE4FBEBC394092E
:106535007480948050061275D30B80F090037FE031
:1065450024FCFF90037EE034FFFEC007900380E04B
:10655500FCA3E0FD90037FE02404FB90037EE03480
:1065650000FA900380E0FFA3E0900059CFF0A3EF7D
:10657500F0D007126E5FE4FBEBC39409748094803E
:1065850050061275D30B80F0900381E024FCFD903A
:106595000380E034FFFC90037EE0FAA3E0FBA3E078
:1065A500FEA3E02404FFE43E900059F0A3EFF09031
:1065B500037E126E5AE4FBEBC394097480948050F9
:0765C500061275D30B80F0F4
:0165CC0022AC
:106D1C00900354EAF0A3EBF0900350EEF0A3EFF0E5
:106D2C00A3ECF0A3EDF0C007A3E0FAA3E0FB900303
:106D3C0052E0FFA3E0900140CFF0A3EFF0D0071298
:106D4C004747900350E0FAA3E0FBFFAE02C007A355
:106D5C00E0FCA3E0FD900356E0FFA3E0900140CFE0
:106D6C00F0A3EFF0D007124747900356E0FCA3E0E6
:106D7C00FD900354E0FAA3E0FBA3E0FFA3E0900135
:106D8C0040CFF0A3EFF0900350E0FEA3E0FF1247DA
:106D9C0047900354E0FAA3E0FBFFAE02C007900358
:106DAC0052E0FCA3E0FD900356E0FFA3E09001400D
:0A6DBC00CFF0A3EFF0D00702474725
:0E4D0C0090030DEEF0A3EFF0A3ECF0A3EDF09A
:104D1A00E4A3F0A3F0EBFF7E00A3EEF0A3EFF025EF
:104D2A00E0FFEE33FEC374039F900316F0E49E90F7
:104D3A000315F0900313E0FEA3E0FF900311E0FCDB
:104D4A00A3E0FDD39FEE6480F8EC648098400302F0
:104D5A004EE390030EE02DFF90030DE03C127456D3
:104D6A00900313E0FEA3E0FF90030EE02FFF9003F1
:104D7A000DE03E900311127459900313E0FEA3E074
:104D8A00FF90030EE02FFF90030DE03EFE9003110B
:104D9A00E0FCA3E0FD900310E02DFD90030FE03C42
:104DAA00FC12746C900311E0FEA3E0FF90030EE086
:104DBA002FFF90030DE03EFE900313E0FCA3E0FDFD
:104DCA00900310E02DFD90030FE03CFC12746C90F0
:104DDA000311E0FEA3E0FFC390030EE09FFF9003E0
:104DEA000DE09EFE900313E0FCA3E0FD900310E0AB
:104DFA002DFD90030FE03CFC12746C900313E0FE4F
:104E0A00A3E0FFC390030EE09FFF90030DE09EFE18
:104E1A00900311E0FCA3E0FD900310E02DFD900348
:104E2A000FE03CFC12746C900311E0FEA3E0FFC398
:104E3A0090030EE09FFF90030DE09E1274569003BC
:104E4A0013E0FEA3E0FFC390030EE09FFF90030D63
:104E5A00E09EFE90031112745A900312E004F0705F
:104E6A0006900311E004F0C3900315E06480948077
:104E7A005025900311E0FEA3E07802C333CE33CE6F
:104E8A00D8F92406FFE43EFE900316E02FF09003C3
:104E9A0015E03EF0024D3D900313E0FEA3E0FFC390
:104EAA00900312E09FFF900311E09EFEEF7802C389
:104EBA0033CE33CED8F9240AFFE43EFE900316E03F
:104ECA002FF0900315E03EF0900314E024FFF090D9
:094EDA000313E034FFF0024D3D2A
:014EE30022AC
:1055B100900041EEF0A3EFF0900045EBF090004336
:0555C100ECF0A3EDF089
:1055C60090004AECF0A3EDF0900046E0FF131313B1
:1055D600541FFEEF540760047F0180027F00EE2F08
:1055E600FF900046E0C313FEEF8EF0A490004CF04F
:1055F600900045E024E0F0E4F990004CE0FFE9C3B8
:105606009F4003025737900046E0FF7E00640C700F
:1056160012900045E075F00CA42433F582E5F034D1
:10562600008033EF64104E7012900045E075F01064
:10563600A424A7F582E5F03404801B900046E064BC
:10564600186003025737900045E075F024A42497AC
:10565600F582E5F0340AF583E58229F582E435839F
:10566600F583E493900048F0E4900049F0900049F7
:10567600E0C3940874809480400302573390004836
:10568600E030E713900041E0FEA3E0FFA3E0FCA3B7
:10569600E0FD9003098017900047E07014900041E8
:1056A600E0FEA3E0FFA3E0FCA3E0FD90030B127372
:1056B600CB900048E025E0F0900044E004F070064E
:1056C600900043E004F0900304E0FEA3E0FF9000A6
:1056D60043E0FCA3E0FDC39FEC9E505590004AE0DA
:1056E600FEA3E0FFC3ED9FFDEC9EFC900046E07A32
:1056F60000B50530EAB5042C900043EEF0A3EFF0B8
:10570600900042E004F07006900041E004F090033F
:1057160002E0FEA3E0FFC3900042E09F900041E05C
:105726009E400A22900049E004F002567309025591
:01573600FF73
:01573700224F
:07733100C3EF9E14FD7F0A6B
:08733800900384EFF0A3EDF0D7
:10734000A312345200000001900385E0FF14F0EF17
:107350006020A3E0F8A3E0F9A3E0FAA3E0FB900328
:1073600084E0FFE4FCFDFE1232EF90038612344607
:1073700080D6900386E0FCA3E0FDA3E0FEA3E0FF3F
:0173800022EA
:0E679F009002C3EEF0A3EFF0A3ECF0A3EDF038
:1067AD00E49002CFF09002CDF09002CBE0FF90028A
:1067BD00CDE0FEC39F400302687A127331A804A98D
:1067CD0005AA06AB079002C7E0FCA3E0FDA3E0FE1F
:1067DD00A3E0FF12337AE47B0AFAF9F812337A90C8
:1067ED0002CEEBF0A3E070459002CBE014FF9002D7
:1067FD00CDE0FEC39F5036A3E0702C9002CCE0FBA1
:10680D00C3138EF0A4FF9002C4E02FFF9002C3E0EB
:10681D0035F0FE9002C5E0FCA3E0FD900046EBF0E4
:10682D00E4A3F07B20803A9002CF7401F09002CC6B
:10683D00E0FAC313FFA3E0FEEF8EF0A4FF9002C4B5
:10684D00E02FFF9002C3E035F0FE9002C5E0FCA3FF
:10685D00E0FD9002CEE02430FB900046EAF0E4A388
:0D686D00F01255B19002CDE004F00267B6C4
:01687A0022FB
:0E5EB100900299EEF0A3EFF0A3ECF0A3EDF059
:105EBF00E49002A6F09002A4F09002A1E0FF9002FD
:105ECF00A4E0FEC39F4003025FD9127331A804A957
:105EDF0005AA06AB0790029DE0FCA3E0FDA3E0FE40
:105EEF00A3E0FF12337AE47B0AFAF9F812337A90BF
:105EFF0002A5EBF0A3E06003025F909002A1E01413
:105F0F00FF9002A4E0FEC39F5077A3E0706D900254
:105F1F00A3E0F99002A230E72BE0FBC3138EF0A4AD
:105F2F00FF90029AE02FFF900299E035F0FE900269
:105F3F009BE0FCA3E0FD900046EBF0E95401A3F0D9
:105F4F007B30807AE0FBC313FF9002A4E0FEEF8E5C
:105F5F00F0A4FF90029AE02FFF900299E035F0FE37
:105F6F0090029BE0FCA3E0FD900046EBF09002A3B3
:105F7F00E05401900047F07B2080439002A674010B
:105F8F00F09002A2E0FAC313FF9002A4E0FEEF8E9E
:105F9F00F0A4FF90029AE02FFF900299E035F0FEF7
:105FAF0090029BE0FCA3E0FD9002A5E02430FB9063
:105FBF000046EAF09002A3E05401900047F012551A
:0A5FCF00B19002A4E004F0025EC8E5
:015FD90022A5
:1066BA00900034EEF0A3EFF0A3ECF0A3EDF0A3EA20
:0466CA00F0A3EBF05E
:1066CE00900034E0FEA3E0FF900040F0900039E02F
:1066DE002FF0900038E03EF0900036E0FEA3E0FF91
:1066EE0090003BE02FF090003AE03EF090003DE04D
:1066FE00FBA3E0FAA3E0F912319FFFD3947E40038F
:10670E0002679EEFC39420500302679E900038E00C
:10671E00FEA3E0FF900035E09F900034E09E401F06
:10672E00900040E0FF900034E4F0A3EFF090003CC6
:10673E00E0FF900037E02FF0900036E03400F0904C
:10674E00003AE0FEA3E0FF900036E0FCA3E0FDC3BC
:10675E009FEC9E503B900034E0FEA3E0FF12319F71
:10676E00FB90003CE0900046F0E4A3F01255B1908F
:10677E00003CE0C313FF900035E02FF0900034E0B2
:10678E003400F090003EE475F00112325E0266FABB
:01679E0022D8
:1059C500900317EEF0A3EFF0A3ECF0A3EDF0A3EB3B
:0759D500F0A3EAF0A3E9F0E2
:1059DC0090031BE0FBA3E0FAA3E0F912319F7003E4
:1059EC00025B06900317E0FAA3E0FBFFAE02C006D1
:1059FC00C007A3E0FCA3E0FDEB241FFBE43AFA9004
:105A0C000319E0FEA3E0241CFFE43E900059F0A330
:105A1C00EFF0D007D006126E5FE490031EF09003F7
:105A2C001EE0FFC39414748094804003025AEB90E0
:105A3C00031BE0FBA3E0FAA3E0F912319FFE75F023
:105A4C0076EFA424F3F582E5F03417F583E4936E36
:105A5C006003025AE29000011231B8FF90031EE07D
:105A6C0075F076A424F4F582E5F03417F583E4930D
:105A7C006F7063FBEBC394747480948050589003E4
:105A8C001EE075F076A424F5F582E5F03417F58365
:105A9C00E5822BF582E43583F583E493FF90031FB5
:105AAC00E4F0A3EFF0E4FAEAC39408748094805015
:105ABC0022900320E030E705900309800390030B4C
:105ACC001275D6900320E025E0F090031FE033F030
:105ADC000A80D40B809E90031EE004F0025A2A9098
:105AEC00031CE475F00212325E900318E02420F0DF
:0A5AFC00900317E03400F00259DCBB
:015B0600227C
:105D84009001E7EEF0A3EFF0A3ECF0A3EDF0A3EAAB
:045D9400F0A3EBF09D
:105D9800E49001F2F0A3F0A3123452000000009046
:105DA80001F8123452000000009001E9E0FCA3E081
:105DB800FDA3E0FEA3E0FF9001E7E0FAA3E02FFFD8
:105DC800EA3ECF24FFFBEF34FFFA9001EDE0FEA39B
:105DD800E0FF9001E9E0F8A3E02FFFE83ECF24FFC1
:105DE800CF34FF900059F0A3EFF09001E7126E5AFC
:105DF8009001EDE0FCA3E0FD9001EBE0FEA3E0FFE5
:105E08001231F7EF25E0FFEE33FEE4FCFD9001F8D8
:105E18001234469001F4A3A3E0FEA3E0FDAC0624EF
:105E280001FFE43CFE9001EFE0FBA3E0FAA3E0F9F8
:105E38008F828E831231B8FF9001F2E4F0A3EFF065
:105E4800E0F8E4F0E89001F2F08D828C831231B82A
:105E5800FF9001F2E0FEA3E04FFF9001F2EEF0FEAA
:105E6800A3EFF01275DBA3E0FCA3E0FDA3E0FEA323
:105E7800E02402FFE43EFEE43DFDE43CFC9001F436
:105E88001234469001F8E0FCA3E0FDA3E0FEA3E095
:105E9800FF9001F4E0F8A3E0F9A3E0FAA3E0FBC364
:085EA80012340C5003025E1BD2
:015EB00022CF
:0B771000C2A1D2A3D2A2D2A1C2A32228
:10762300C2A1E4FEEEC39408748094805016EFC4A4
:10763300131313540124FF92A2EF25E0FFC2A1D23A
:04764300A10E80E034
:017647002220
:10750E00E490039CF0A3F0C2A1FDFC90039DE02546
:10751E00E0F090039CE033F0D2A1C2A1A2A0E4332C
:10752E00FFE0F0A3E04FF00DBD00010CED640C4C3C
:0A753E0070D990039CE0FEA3E0FF6B
:017548002220
:07527E00EEF0A3EFF07F90BA
:02528500AB0775
:10528700C2A1C2A3E4900156F0900156E0C3940A6C
:10529700748094805042AF03127623A37406F09073
:1052A7000157E0D39400748094804005E014F080A7
:1052B700EED2A10000C2A1000012750E900156E0C7
:1052C70025E02458F582E43401F583EEF0A3EFF0EE
:1052D700900156E004F080B1D2A3E4900156F0901B
:1052E7000156E0FFC394097480948040030253A4DD
:1052F700EF04A3F0900157E0FFC3940A74809480F1
:10530700400302539BEF25E02458F582E43401F56E
:1053170083E0FEA3E0FF900156E0FB25E02458F56B
:1053270082E43401F583E0FCA3E0C39FEC9E505B6D
:10533700EB25E02458F582E43401F583E0FEA3E091
:10534700FFE4FCFD90016C123446900157E0FA250A
:10535700E02458F582E43401F583E0FEA3E0FFEB97
:1053670025E02458F582E43401F583EEF0A3EFF04D
:1053770090016CA3A3E0FEA3E0FFEA25E02458F523
:1053870082E43401F583EEF0A3EFF0900157E004D7
:10539700F00252FB900156E004F00252E690016CD5
:1053A700123452000000009001567402F09001562A
:1053B700E0C3940874809480503F90016CE0F8A398
:1053C700E0F9A3E0FAA3E0FB900156E025E02458BA
:1053D700F582E43401F583E0FEA3E0FFE4FCFDEB96
:1053E7002FFFEA3EFEED39FDEC38FC90016C1234DC
:1053F70046900156E004F080B490016CE0FCA3E015
:10540700FDA3E0FEA3E0FFE47B06FAF9F8127412AD
:1054170090016C12344690016CA3A3E0FEA3E0FF59
:015427002262
:105FDA001277107FD012528590032112527E9003BD
:105FEA0027EEF0A3EFF07FD01252859003231252CE
:105FFA007EAD07AC06900323E0FEA3E0FF900321E9
:10600A00E0FAA3E0FBD39FEA9E400AA3A3EB9FFF1B
:10601A00EA9EA38017900321E0FEA3E0FFC390034A
:10602A0024E09FFF900323E09E900325F0A3EFF066
:10603A00900327E0FEA3E0FFD39DEE9C4007EF9D6F
:10604A00FFEE9C800E900327E0FEA3E0FFC3ED9FC6
:10605A00FFEC9EA3F0A3EFF0D3900326E0943290D6
:10606A000325E09400500E90032AE094329003290D
:10607A00E0940040037F0022900323E0FEA3E0FFA8
:10608A00900322E02FFF900321E03EC313FEEF139B
:10609A00FF9002D0EEF0A3EFF0900328E02DFF90DE
:1060AA000327E03CC313FEEF13FF9002D2EEF0A3E6
:1060BA00EFF09002D1E054F0F09002D3E054F0F007
:1060CA00C39002D1E094649002D0E09400400FD3D0
:1060DA009002D3E094D89002D2E0940E40037F005D
:0360EA00227F0111
:0160ED002290
:105B0700E4900390F0125FDAEF7003025C3C9003BD
:105B170008E06003025BA29002D0E0FEA3E0FFE48E
:105B2700FCFD9002D41234469002D4E0FCA3E0FDC1
:105B3700A3E0FEA3E02406FFEE34FFFEED34FFFDF5
:105B4700EC34FFFCE47BB4FAF9F81232EFE47B742F
:105B57007A0EF9F812337A9002D41234469002D2B0
:105B6700E0FEA3E0FFE4FCFD9002D8123446900269
:105B7700D8E0FCA3E0FDA3E0FEA3E024A2FFEE34FF
:105B8700FEFEED34FFFDEC34FFFCE47BFAFAF9F896
:105B97001232EFE47BAC7A0D025C299002D2E0FE70
:105BA700A3E0FFC3E49FFF74109EFEE4FCFDA31275
:105BB70034469002D4E0FCA3E0FDA3E0FEA3E0247A
:105BC700A2FFEE34FEFEED34FFFDEC34FFFCE47B78
:105BD700FAFAF9F81232EFE47BAC7A0DF9F81233DE
:105BE7007A9002D41234469002D0E0FEA3E0FFE49C
:105BF700FCFD9002D81234469002D8E0FCA3E0FDE9
:105C0700A3E0FEA3E02406FFEE34FFFEED34FFFD24
:105C1700EC34FFFCE47BB4FAF9F81232EFE47B745E
:105C27007A0EF9F812337A9002D81234469003901C
:0F5C37007401F08001E49002DCF0900390E0FF34
:015C4600223B
:067106009003581234460C
:10710C00900358E0FCA3E0FDA3E0FEA3E0FF78139E
:10711C00123433A3EEF0A3EFF0900358E0FCA3E09D
:10712C00FDA3E0FEA3E0FF780A123433EF543FFED8
:10713C00E490035EF0A3CEF0900358E0FCA3E0FDD6
:10714C00A3E0FEA3E0FF7803123433EF541FFFE4F7
:10715C00AD07FC90035EE0FEA3E07805C333CE33AD
:10716C00CED8F9FBAA0690035DE033333354F84ACA
:09717C00FEEBFFEE4CFEEF4DFFAF
:0171850022E7
:04749600AD07AC068C
:10749A007BE77A187E00ED54037803C333CE33CEEC
:1074AA00D8F9FFEA4EFAEB4FFB7E00ED541C780642
:1074BA00C333CE33CED8F9FFEA4EFAEB4FFBED5485
:0774CA00E04AFAEBAE02FFFD
:0174D1002298
:0873810090038AEFF0A3EDF088
:10738900A31234520000000190038BE0FF14F0EFC8
:107399006020A3E0F8A3E0F9A3E0FAA3E0FB9003DF
:1073A9008AE0FFE4FCFDFE1232EF90038C123446B2
:1073B90080D690038CE0FCA3E0FDA3E0FEA3E0FFF0
:0173C90022A1
:10727400900360123446900364E0FCA3E0FDA3E0B5
:10728400FEA3E0FF900360E0F8A3E0F9A3E0FAA313
:10729400E0FBD3123422401D900364E0F8A3E0F92C
:1072A400A3E0FAA3E0FB900360E0FCA3E0FDA3E00D
:1072B400FEA3E0801A900360E0F8A3E0F9A3E0FAEB
:1072C400A3E0FBA3E0FCA3E0FDA3E0FEA3E0C39BDB
:0B72D400FFEE9AFEED99FDEC98FC2205
:0874D200900395EEF0A3EFF02A
:1074DA00900309E0FFA3E0900397CFF0A3EFF0AF8A
:1074EA0003900309EAF0A3EFF0900395E0FEA3E00E
:1074FA00FF12746C900397E0FFA3E0900309CFF0AA
:03750A00A3EFF0FC
:01750D00225B
:1062F200900258EEF0A3EFF0A3ECF0A3EDF0A3EAC6
:04630200F0A3EBF029
:10630600E4900263F0A3F090025CE0FEA3E0FFC31A
:10631600900264E09F900263E09E40030263E8E41B
:10632600900265F0A3F090025EE0FEA3E0FFC3904A
:106336000266E09F900265E09E40030263D49002ED
:1063460063E0FEA3E0FF900259E02FFF900258E0C1
:106356003EFE900265E0FCA3E0FD90025BE02DFDB1
:1063660090025AE03CFC12694D900267EEF0A3EFF2
:10637600F0900260E0FCA3E0FDA3E0FB1265CD9087
:106386000267EEF0A3EFF0900263E0FEA3E0FF9059
:106396000259E02FFF900258E03EFE900265E0FCB5
:1063A600A3E0FD90025BE02DFD90025AE03CFC90DC
:1063B6000267E0FAA3E0FB1273D0900266E004F0F5
:1063C600600302632C900265E004F002632C9002E5
:1063D60064E004F0600302630D900263E004F002DF
:0263E600630D45
:0163E8002292
:1063E9009002A9ECF0A3EDF0A3EAF0A3EBF0900280
:0663F900A7EEF0A3EFF097
:1063FF00C39401EE94004013E024FFFE9002A7E047
:10640F0034FF9002B1F0A3CEF0800F9002A7E0FF0F
:10641F00A3E09002B1CFF0A3EFF09002A9E0FEA3AA
:10642F00E0FFC39401EE9400400CEF24FFFFEE3425
:10643F00FF9002B3800B9002A9E0FFA3E09002B39C
:10644F00CFF0A3EFF09002B3E0FFA3E09002ADCF47
:10645F00F0A3EFF09002AAE02402FF9002A9E0342B
:10646F0000FEC39002AEE09F9002ADE09E505E90A2
:10647F0002B1E0FFA3E09002AFCFF0A3EFF09002E4
:10648F00A8E02402FD9002A7E03400FC9002AFE0E8
:10649F00FEA3E0FFC39DEE9C50239002ADE0FCA352
:1064AF00E0FD9002ABE0FAA3E0FB1273D09002B0D4
:1064BF00E004F070C99002AFE004F080C19002AE2A
:0D64CF00E004F0708F9002ADE004F08087D3
:0164DC00229D
:0E4554009000FEEEF0A3EFF0A3ECF0A3EDF06C
:10456200E490010AF0A3F0A3F0A3F09000FEE0FEB5
:10457200A3E0FFC3EB9FFFEA9E90010EF0A3EFF0D2
:10458200900100E0FAA3E0FBC3900105E09BFE90DE
:104592000104E09A900110F0A3CEF09000FEE0FF3B
:1045A200A3E0900118CFF0A3EFF0A3EAF0A3EBF0A1
:1045B20090010EE0FEA3E0FFD39400EE64809480AD
:1045C200400A900114E4F0A304F08021EF4E700839
:1045D200900114F0A3F0801574FF900114F0A3F081
:1045E200C3E49FFFE49E90010EF0A3EFF090011050
:1045F200E0FEA3E0FFD39400EE64809480400A9032
:104602000116E4F0A304F08021EF4E700890011629
:10461200F0A3F0801574FF900116F0A3F0C3E49F9D
:10462200FFE49E900110F0A3EFF0900110E0FEA3D2
:10463200E0FF90010EE0FCA3E0FDD39FEE6480F862
:10464200EC6480989001124007ECF0A3EDF0800535
:10465200EEF0A3EFF0E4900108F0A3F0900113E074
:104662002401FF900112E03400FED3900109E09F83
:10467200900108E09E4003024746900118E0FEA325
:10468200E0FFA3E0FCA3E0FD900106E0FAA3E0FB5B
:104692001273D090010EE0FEA3E0FF90010BE02F19
:1046A200F090010AE03EF0900110E0FEA3E0FF90DE
:1046B200010DE02FF090010CE03EF0900112E0FEBF
:1046C200A3E0FF90010AE0FCA3E0FDD39FEE64802B
:1046D200F8EC6480984020ED9FFFEC9E90010AF078
:1046E200A3EFF0900114E0FEA3E0FF900119E02F88
:1046F200F0900118E03EF0900112E0FEA3E0FF907E
:10470200010CE0FCA3E0FDD39FEE6480F8EC648032
:10471200984020ED9FFFEC9E90010CF0A3EFF090EB
:104722000116E0FEA3E0FF90011BE02FF090011ABA
:10473200E03EF0900109E004F07006900108E00408
:04474200F002465EDD
:014746002250
:103767009000A2EEF0A3EFF0A3ECF0A3EDF0A3EA34
:04377700F0A3EBF0E0
:10377B00E49000AFF0A3F0A3F0A3F09000AAE0FF59
:10378B007E00C39000A3E09F9000A2E09E50030236
:10379B0039D29000A7E09F9000A6E09E500302391B
:1037AB00D29000A4E0FCA3E0FD9FEC9E50030239F5
:1037BB00D29000A9E09F9000A8E09E50030239D25E
:1037CB009000AAE070139000A2E0FEA3E0FF90002F
:1037DB00ABE0FAA3E0FB0273D09000A2E0FAA3E007
:1037EB00FBC39000A7E09BFE9000A6E09A9000B36D
:1037FB00F0A3CEF09000A4E0FEA3E0FFC39000A9DD
:10380B00E09FFF9000A8E09E9000B5F0A3EFF09032
:10381B0000BDEAF0A3EBF09000A4A3E0FF9000BF83
:10382B00EEF0A3EFF09000B3E0FEA3E0FFD3940023
:10383B00EE64809480400A9000B9E4F0A304F08019
:10384B0021EF4E70089000B9F0A3F0801574FF9033
:10385B0000B9F0A3F0C3E49FFFE49E9000B3F0A384
:10386B00EFF09000B5E0FEA3E0FFD39400EE648090
:10387B009480400A9000BBE4F0A304F08021EF4E4B
:10388B0070089000BBF0A3F0801574FF9000BBF0A4
:10389B00A3F0C3E49FFFE49E9000B5F0A3EFF0907C
:1038AB0000B5E0FEA3E0FF9000B3E0FCA3E0FDD386
:1038BB009FEE6480F8EC6480989000B74007ECF0C2
:1038CB00A3EDF08005EEF0A3EFF0E49000ADF0A3D4
:1038DB00F09000B8E02401FF9000B7E03400FED375
:1038EB009000AEE09F9000ADE09E40030239D29075
:1038FB0000BFE0FCA3E0FD9000AAE0FB7A00A3E090
:10390B00FFA3E09001A8CFF0A3EFF09000BDE0FE85
:10391B00A3E0FF122A9A9000B3E0FEA3E0FF900011
:10392B00B0E02FF09000AFE03EF09000B5E0FEA3CA
:10393B00E0FF9000B2E02FF09000B1E03EF090007D
:10394B00B7E0FEA3E0FF9000AFE0FCA3E0FDD39F48
:10395B00EE6480F8EC6480984020ED9FFFEC9E9025
:10396B0000AFF0A3EFF09000B9E0FEA3E0FF9000F2
:10397B00BEE02FF09000BDE03EF09000B7E0FEA35C
:10398B00E0FF9000B1E0FCA3E0FDD39FEE6480F874
:10399B00EC6480984020ED9FFFEC9E9000B1F0A36B
:1039AB00EFF09000BBE0FEA3E0FF9000C0E02FF033
:1039BB009000BFE03EF09000AEE004F07006900087
:0739CB00ADE004F00238DC5E
:0139D20022D2
:0E26D0009000C1EEF0A3EFF0A3ECF0A3EDF04C
:1026DE00E49000CEF0A3F0A3F0A3F09000C1E0FED2
:1026EE00A3E0FFC3EB9FFFEA9E9000D2F0A3EFF0B2
:1026FE009000C3E0FAA3E0FBC39000C8E09BFE90FD
:10270E0000C7E09A9000D4F0A3CEF09000C1E0FF95
:10271E00A3E09000DCCFF0A3EFF0A3EAF0A3EBF080
:10272E009000D2E0FEA3E0FFD39400EE648094808C
:10273E00400A9000D8E4F0A304F08021EF4E700818
:10274E009000D8F0A3F0801574FF9000D8F0A3F09D
:10275E00C3E49FFFE49E9000D2F0A3EFF09000D46C
:10276E00E0FEA3E0FFD39400EE64809480400A90D4
:10277E0000DAE4F0A304F08021EF4E70089000DA46
:10278E00F0A3F0801574FF9000DAF0A3F0C3E49F7D
:10279E00FFE49E9000D4F0A3EFF09000D4E0FEA3EF
:1027AE00E0FF9000D2E0FCA3E0FDD39FEE6480F842
:1027BE00EC6480989000D64007ECF0A3EDF0800515
:1027CE00EEF0A3EFF0E49000CCF0A3F09000D7E091
:1027DE002401FF9000D6E03400FED39000CDE09FA0
:1027EE009000CCE09E4003022A999000C9E0701937
:1027FE009000DCE0FEA3E0FFA3E0FCA3E0FD900070
:10280E00CAE0FAA3E0FB1273D09000C9E064016045
:10281E00030228A49000DCE0FEA3E0FFA3E0FCA3EB
:10282E00E0FD9000CAE0FAA3E0FB1273D09000DD49
:10283E00E02401FF9000DCE03400FE9000DEE0FCBE
:10284E00A3E0FD9000CAE0FAA3E0FB1273D0900063
:10285E00DCE0FEA3E0FF9000DFE02401FD9000DE4F
:10286E00E03400FC9000CAE0FAA3E0FB1273D090B3
:10287E0000DDE02401FF9000DCE03400FE9000DF7C
:10288E00E02401FD9000DEE03400FC9000CAE0FA86
:10289E00A3E0FB1273D09000C9E06402600302292A
:1028AE00E89000DCE0FEA3E0FFA3E0FCA3E0FD90D7
:1028BE0000CAE0FAA3E0FB1273D09000DDE0240121
:1028CE00FF9000DCE03400FE9000DEE0FCA3E0FDB3
:1028DE009000CAE0FAA3E0FB1273D09000DCE0FE99
:1028EE00A3E0FF9000DFE02401FD9000DEE0340065
:1028FE00FC9000CAE0FAA3E0FB1273D09000DDE07A
:10290E002401FF9000DCE03400FE9000DFE02401A3
:10291E00FD9000DEE03400FC9000CAE0FAA3E0FB7C
:10292E001273D09000DDE024FFFF9000DCE034FF56
:10293E00FE9000DFE02401FD9000DEE03400FC900C
:10294E0000CAE0FAA3E0FB1273D09000DDE0240190
:10295E00FF9000DCE03400FE9000DFE024FFFD90ED
:10296E0000DEE034FFFC9000CAE0FAA3E0FB127335
:10297E00D09000DDE024FFFF9000DCE034FFFE90FD
:10298E0000DFE024FFFD9000DEE034FFFC9000CA83
:10299E00E0FAA3E0FB1273D09000DDE024FFFF907D
:1029AE0000DCE034FFFE9000DEE0FCA3E0FD9000D2
:1029BE00CAE0FAA3E0FB1273D09000DCE0FEA3E0C5
:1029CE00FF9000DFE024FFFD9000DEE034FFFC907E
:1029DE0000CAE0FAA3E0FB1273D09000D2E0FEA38F
:1029EE00E0FF9000CFE02FF09000CEE03EF09000A0
:1029FE00D4E0FEA3E0FF9000D1E02FF09000D0E0F5
:102A0E003EF09000D6E0FEA3E0FF9000CEE0FCA3E7
:102A1E00E0FDD39FEE6480F8EC6480984020ED9F3B
:102A2E00FFEC9E9000CEF0A3EFF09000D8E0FEA356
:102A3E00E0FF9000DDE02FF09000DCE03EF0900033
:102A4E00D6E0FEA3E0FF9000D0E0FCA3E0FDD39F14
:102A5E00EE6480F8EC6480984020ED9FFFEC9E9031
:102A6E0000D0F0A3EFF09000DAE0FEA3E0FF9000BC
:102A7E00DFE02FF09000DEE03EF09000CDE004F0BD
:0B2A8E0070069000CCE004F00227DA94
:012A9900221A
:106DC600FAE0FFA3E090036ECFF0A3EFF090026924
:056DD600E0FEA3E0FF58
:106DDB00900368EEF0A3EFF0A3ECF0A3EDF0A3EAC1
:106DEB00F0A3EBF04A6067900302E0FCA3E0FD9098
:106DFB000368E0FAA3E0FBD39DEA9C505190030497
:106E0B00E0FEA3E0FF90036AE0FCA3E0FD9FEC9E95
:106E1B00503CAF03AE02C006C007A3E0FEA3E0FFE9
:106E2B0090036AE0F8A3E02FFFE83ECF24FFCF34B6
:106E3B00FF9002F0F0A3EFF090036EE0FFA3E09061
:0F6E4B0002F2CFF0A3EFF0D007D006126A1C229C
:10718600900370EEF0A3EFF0A3ECF0A3EDF0EB4A62
:107196006068900302E0FEA3E0FFD3900371E09FD6
:1071A600900370E09E5053900304E0FEA3E0FF902E
:1071B6000372E0FCA3E0FD9FEC9E503EAE02AF03DF
:1071C600900370E0FAA3E02FFFEA3ECF24FFFBEF27
:1071D60034FFFAA3E0FFA3E09002F0CFF0A3EFF0B4
:1071E600900376E0FFA3E09002F2CFF0A3EFF090D9
:0B71F6000370E0FEA3E0FF126A1C2201
:105738009002B5EEF0A3EFF0A3ECF0A3EDF0A3EA2E
:04574800F0A3EBF0EF
:10574C00A3E07002A3E0700302587E9002B9E070EF
:10575C0002A3E0700302587E9002C0E020E0030236
:10576C0057FBE4A3F0A3F09002B9E0FEA3E0FF9096
:10577C0002C1E0FCA3E0FDC39FEC9E400302587EF7
:10578C009002B6E02DFF9002B5E03CFEC006C007CB
:10579C009002B7E0FCA3E0FD9002BCE024FFFB907C
:1057AC0002BBE034FFFAC002C0039002C2E025E065
:1057BC00FF9002C1E033FE9002BDE0FBA3E0FAA330
:1057CC00E0F98F828E8312328AFF90036EE5F0F03F
:1057DC00A3EFF0D003D002D007D006126DDB9002FD
:1057EC00C2E004F070819002C1E004F0025773E44F
:1057FC009002C1F0A3F09002BBE0FEA3E0FF900288
:10580C00C1E0FCA3E0FDC39FEC9E50669002B8E0A3
:10581C002DFD9002B7E03CFC9002BAE024FFFB9017
:10582C0002B9E034FFFAC002C0039002C2E025E0E6
:10583C00FF9002C1E033FE9002BDE0FBA3E0FAA3AF
:10584C00E0F98F828E8312328AFF900376E5F0F0B6
:10585C00A3EFF09002B5E0FEA3E0FFD003D002125C
:10586C0071869002C2E004F0708C9002C1E004F0EA
:02587C00808426
:01587E002207
:064B230090011C12344653
:104B2900E4900138F0A3F090011CE0FCA3E0FDA3A0
:104B3900E0FEA3E0FF7810123433900129EFF0FB77
:104B490090011CE0FCA3E0FDA3E0FEA3E0FF7808D0
:104B590012343390012AEFF0FA90011CA3A3A3E0C9
:104B6900FFA90790012BE9F0900120E0FCA3E0FDEB
:104B7900A3E0FEA3E0FF7810123433EBFDC3EF9DF1
:104B8900FFEE940090012CF0A3EFF0900120E0FCDF
:104B9900A3E0FDA3E0FEA3E0FF7808123433EAFDA9
:104BA900C3EF9DFEE4940090012EF0A3CEF0900196
:104BB90020A3A3A3E0FFE9FDC3EF9DFEE4940090C9
:104BC9000130F0A3CEF0E4900138F0A3F090012772
:104BD900E0FEA3E0FFC3900139E09F900138E09E19
:104BE9004003024D0BE0FAA3E0FB90012CE0FEA389
:104BF900E0FFAD03AC021231F7900127E0FCA3E01E
:104C0900FD123209A3E07C002FFFEC3E900132F047
:104C1900A3EFF090012EE0FEA3E0FFAD03AC02127A
:104C290031F7900127E0FCA3E0FD12320990012A37
:104C3900E07C002FFFEC3E900134F0A3EFF09001EF
:104C490030E0FEA3E0FFAD03AC021231F79001277B
:104C5900E0FCA3E0FD12320990012BE07C002FFF5C
:104C6900EC3E900136F0A3EFF0900132E0FEA3E0B4
:104C79007803CEC313CE13D8F9F0EE900132F09039
:104C89000134E0FEA3E07802CEC313CE13D8F9F0C5
:104C9900EE900134F0900136E0FEA3E07803CEC334
:104CA90013CE13D8F9F0EE900136F0900134E0FEFE
:104CB900A3E07805C333CE33CED8F9FDAC06900115
:104CC90033E033333354F84CFEEDFF900136E04EB8
:104CD900FCA3E04FFDEB25E0FFEA33FE900124E061
:104CE900FBA3E0FAA3E0F98F828E83EC8DF01232F8
:104CF900C2900139E004F07006900138E004F00236
:024D09004BD687
:014D0B002285
:1060EE009001BAEEF0A3EFF0A3ECF0A3EDF0A3EA6B
:0460FE00F0A3EBF030
:106102009001C6E0FCA3E0FDA3E0FEA3E0FF900146
:10611200201234469001CEE0F9A3E0FAA3E0900108
:1061220024C9F0A3EAF0A3E9F09001BEE0FFA3E0E6
:10613200900127CFF0A3EFF09001C2E0FCA3E0FDB5
:10614200A3E0FEA3E0FF124B23E49001CAF0A3F008
:106152009001BEE0FEA3E0FFC39001CBE09F90015F
:10616200CAE09E40030261F9E49001CCF0A3F090F2
:1061720001C0E0FEA3E0FFC39001CDE09F9001CCFF
:10618200E09E505F9001CAE0FAA3E0FB9001BBE001
:106192002BFF9001BAE03AFEC006C0079001CCE0A6
:1061A200FEA3E0FF9001BDE02FFD9001BCE03EFCAC
:1061B200EB25E0FFEA33FE9001CEE0FBA3E0FAA379
:1061C200E0F98F828E8312328AFBAAF0D007D006C2
:1061D2001273D09001CDE004F070949001CCE004F1
:1061E200F0808C9001CBE004F060030261529001D8
:0761F200CAE004F002615253
:0161F9002283
:106AE50090032BEEF0A3EFF0A3ECF0A3EDF0A3EAF7
:106AF500F0A3EBF0C007900333E0FFA3E09003762B
:106B0500CFF0A3EFF0D007127186900331E0FEA31A
:106B1500E0FF90032EE02FFF90032DE03ECF24FFF2
:106B2500FDEF34FFFC90032FE0FAA3E0FB90033365
:106B3500E0FFA3E0900376CFF0A3EFF090032BE006
:106B4500FEA3E0FF12718690032DE0FCA3E0FD900B
:106B55000331E0FAA3E0FBA3E0FFA3E090036ECFCF
:106B6500F0A3EFF090032B126DD690032FE0FEA358
:106B7500E0FF90032CE02FFF90032BE03ECF24FF96
:106B8500CF34FFFEC00790032DE0FCA3E0FD90038A
:106B950031E0FAA3E0FBA3E0FFA3E090036ECFF0A2
:086BA500A3EFF0D007026DDB45
:101C1900900269EEF0A3EFF0A3ECF0A3EDF0A3EAD4
:041C2900F0A3EBF049
:101C2D00E4900277F0A3F090026FE0FEA3E030E0C5
:101C3D000A2401FFE43E900277800B90026FE0FFD3
:101C4D00A3E0900277CFF0A3EFF0900272E0900244
:101C5D00717003021E78E0F975F002A4FFC39002C3
:101C6D006EE09FFB90026DE095F0FAE9FF90026A3D
:101C7D00E02FFF900269E03400FEC00790026BE098
:101C8D00FCA3E0FD900277E0C313FFA3E0139003E4
:101C9D003BCFF0A3EFF0900273E0FFA3E090033D84
:101CAD00CFF0A3EFF0D007126F8B900271E0F975B2
:101CBD00F002A4FFC390026EE09FFB90026DE095D1
:101CCD00F0FAE9FF90026AE02FFF900269E034001C
:101CDD00FEC006C007900277E0C313FEA3E013FF1A
:101CED0090026CE02FFD90026BE03EFC900277E0DD
:101CFD00C313FFA3E01390033BCFF0A3EFF09002CB
:101D0D0075E0FFA3E090033DCFF0A3EFF0D007D037
:101D1D0006126F8B900271E0F9FB7A0090026CE075
:101D2D002BFD90026BE03AFC900277E0C313FEA30B
:101D3D00E013FFE9F582C3EF9582FFEE9400900367
:101D4D003BF0A3EFF0900273126F77900277E0C330
:101D5D0013FEA3E013FF90026CE02FFD90026BE0E9
:101D6D003EFC900271E0F9FB7A00900277E0C3131C
:101D7D00FEA3E013FFE9F582C3EF9582FFEE940019
:101D8D0090033BF0A3EFF0900275126F7790026D08
:101D9D00E0FEA3E0FF90026AE02FFF900269E03EB3
:101DAD00FE900271E0F9FD7C00C3EF9DFFEE9CFEFD
:101DBD00C006C00790026CE02DFD90026BE03CFC6C
:101DCD00E9FB7A00900277E0C313FEA3E013FFE96D
:101DDD00F582C3EF9582FFEE940090033BF0A3EFE5
:101DED00F0900273E0FFA3E090033DCFF0A3EFF07E
:101DFD00D007D006126F8B90026DE0FEA3E0FF902E
:101E0D00026AE02FFF900269E03EFE900271E0F958
:101E1D00FB7A00C3EF9BFFEE9AFEC006C00790024F
:101E2D0077E0C313FEA3E013FF90026CE02FFD904B
:101E3D00026BE03EFC900277E0C313FEA3E013FFBC
:101E4D00E9F582C3EF9582FFEE940090033BF0A37A
:101E5D00EFF0900275E0FFA3E090033DCFF0A3EF0C
:101E6D00F0D007D006126F8B02202BE0F975F0022F
:101E7D00A4FFC390026EE09FFB90026DE095F0FA17
:101E8D00C003E9FF90026AE02FFF900269E0340081
:101E9D00FE90026BE0FCA3E0FD900273E0FBA3E07B
:101EAD00900376CBF0A3EBF0D00312718690027104
:101EBD00E0F975F002A4FFC390026EE09FFB900263
:101ECD006DE095F0FAC002C003E9FF90026AE02FC1
:101EDD00FF900269E03400FE900277E0FCA3E0FD84
:101EED0090026BE0FAA3E02DFDEA3CCD24FFCD344A
:101EFD00FFFC900275E0FBA3E0900376CBF0A3EB23
:101F0D00F0D003D002127186900271E0FB7A00903E
:101F1D00026CE02BFD90026BE03AFC900277E0C37F
:101F2D0013FEA3E013C39BFBEE9A900273126DC6D2
:101F3D00900277E0FAA3E0FBEAC313FEEB13FF90E8
:101F4D00026CE02FFD90026BE03EFCEAC313FEEB4A
:101F5D0013FF900271E0FBC3EF9BFBEE9400900228
:101F6D0075126DC690026DE0FEA3E0FF90026AE06F
:101F7D002FFF900269E03ECF24FFCF34FFFEC00655
:101F8D00C007900271E0FB7A0090026CE02BFD908F
:101F9D00026BE03AFC900277E0C313FEA3E013C39B
:101FAD009BFBEE9AFA900273E0FFA3E090036ECFD5
:101FBD00F0A3EFF0D007D006126DDB90026DE0FEBE
:101FCD00A3E0FF90026AE02FFF900269E03ECF246C
:101FDD00FFCF34FFFEC006C007900277E0FAA3E002
:101FED00FBEAC313FEEB13FF90026CE02FFD900292
:101FFD006BE03EFCEAC313FEEB13FF900271E0FBB6
:10200D00C3EF9BFBEE9400FA900275E0FFA3E09006
:10201D00036ECFF0A3EFF0D007D006126DDB900268
:10202D006BE0FCA3E0FD900271E0F9FF7E009002F1
:10203D0069E0FAA3E02FFBEE3AFAA3E0F8A3E02F54
:10204D00FFEE38900176F0A3EFF0E9FF900269E022
:10205D00F8A3E02FFFEE38900178F0A3EFF0E9FF41
:10206D0090026BE0F8A3E02FFFEE3890017AF0A319
:10207D00EFF0E9FFA3EEF0A3EFF0900273124EE440
:10208D00900277E0FEA3E0FF90026CE02FFF90023C
:10209D006BE03EFE900271E0F9FB7A00C3EF9BFD11
:1020AD00EE9AFC900269E0FEA3E02BFBEA3EFA906B
:1020BD000277E0FEA3E0FF90026BE0F8A3E02FFFB4
:1020CD00E83ECF24FFCF34FF900176F0A3EFF0E987
:1020DD00FF7E00900269E0F8A3E02FFFEE3890013B
:1020ED0078F0A3EFF0900277E0FEA3E0FF90026B93
:1020FD00E0F8A3E02FFFE83EFEE9F582C3EF9582FD
:10210D00FFEE9400CF24FFCF34FF90017AF0A3EFC0
:10211D00F0E9FFA3E4F0A3EFF0900275124EE49006
:10212D00026DE0FEA3E0FF90026AE02FFB900269D2
:10213D00E03EFA900271E0F9FFC3EB9FFFEA9400D5
:10214D00FEC006C00790026BE0FCA3E0FDE9FF7E38
:10215D000090026BE0F8A3E02FFFEE38900176F0CF
:10216D00A3EFF090026DE0FEA3E0FF900269E0F8AE
:10217D00A3E02FFFE83EFEE9F582C3EF9582FFEE67
:10218D009400CF24FFCF34FF900178F0A3EFF0E956
:10219D00FF7E0090026BE0F8A3E02FFFEE38900178
:1021AD007AF0A3EFF0E9FFA3EEF0A3EFF090027346
:1021BD00E0FFA3E090017ECFF0A3EFF0900272E07C
:1021CD00900180F0D007D006124F0090026DE0FE16
:1021DD00A3E0FF90026AE02FFF900269E03EFE90BF
:1021ED000271E0F9FDC3EF9DFFEE9400FEC006C045
:1021FD0007900277E0FEA3E0FF90026CE02FFF90C6
:10220D00026BE03EFEC3EF9DFDEE9400FC90026D6F
:10221D00E0FEA3E0FF900269E0FAA3E02FFBEA3EA7
:10222D00FA900277E0FEA3E0FF90026BE0F8A3E0E6
:10223D002FFFE83ECF24FFCF34FF900176F0A3EFC0
:10224D00F090026DE0FEA3E0FF900269E0F8A3E0DC
:10225D002FFFE83EFEE9F582C3EF9582FFEE940075
:10226D00CF24FFCF34FF900178F0A3EFF0900277E9
:10227D00E0FEA3E0FF90026BE0F8A3E02FFFE83E45
:10228D00FEE9F582C3EF9582FFEE9400CF24FFCFD8
:10229D0034FF90017AF0A3EFF0E9FFA3E4F0A3EF90
:1022AD00F0900275E0FFA3E090017ECFF0A3EFF078
:0F22BD00900272E0900180F0D007D006024F002F
:106F7700E0FFA3E090033DCFF0A3EFF0900269E0BC
:046F8700FEA3E0FF86
:106F8B00900335EEF0A3EFF0A3ECF0A3EDF0EB4A9A
:106F9B00606390033BE07002A3E06059900337E01D
:106FAB00FCA3E0FDAE02AF03900335E0FAA3E02FA4
:106FBB00FFEA3ECF24FFFBEF34FFFA90033BE0FEEA
:106FCB00A3E0FF900337E0F8A3E02FFFE83ECF24C8
:106FDB00FFCF34FF9002F0F0A3EFF090033DE0FF02
:106FEB00A3E09002F2CFF0A3EFF0900335E0FEA305
:066FFB00E0FF126A1C22F7
:102A9A009001A2EEF0A3EFF0A3ECF0A3EDF0A3EA0D
:042AAA00F0A3EBF0BA
:102AAE009001A6E0FEA3E0FF7C027DC3123483E416
:102ABE007BE87A03F9F812337AEF2401FFE43EFE45
:102ACE00E43DFDE43CFC9001AE1234469001A6E0DC
:102ADE00FEA3E0FF9001A6E0FCA3E0FD123483C04C
:102AEE0004C005C006C0079001A6E0FEA3E0FFE407
:102AFE00FCFD7B02FAF9F812337AD003D002D00132
:102B0E00D000EB2FFFEA3EFEE93DFDE83CFC9001D4
:102B1E00B21234469001A6E0FAA3E0FBFFAE02E447
:102B2E00FCFD9001B6123446C39001A3E09BFF90CA
:102B3E0001A2E09AFEC0079001A4E0FCA3E0FD9084
:102B4E0001A7E025E0FB9001A6E033FA9001A8E092
:102B5E00FFA3E0900376CFF0A3EFF0D007127186BB
:102B6E009001AA123452000000019001AEE0FCA3C5
:102B7E00E0FDA3E0FEA3E0FF9001AAE0F8A3E0F9D8
:102B8E00A3E0FAA3E0FBD31234224003022E3990C5
:102B9E0001B6E0FCA3E0FDA3E0FEA3E0FFA804A9BC
:102BAE0005AA06FB1232EFC004C005C006C007908E
:102BBE0001AAE0FCA3E0FDA3E0FEA3E0FFA804A9A8
:102BCE0005AA06FB1232EFD003D002D001D000EFDF
:102BDE002BFFEE3AFEED39FDEC38FC9001B2E0F839
:102BEE00A3E0F9A3E0FAA3E0FBC3123422400302F0
:102BFE002D429001AEE0FCA3E0FDA3E0FEA3E0FFBA
:102C0E009001B6E0F8A3E0F9A3E0FAA3E0FB1234DA
:102C1E00225003022D209001AAA3A3E0FEA3E0FF01
:102C2E009001A3E09FFF9001A2E09ECF2401CF343C
:102C3E0000FEC006C0079001B6A3A3E0FEA3E0FF0E
:102C4E009001A5E02FFD9001A4E03EFCC004C0055C
:102C5E009001AAE0FCA3E0FDA3E0FEA3E024FFFFA9
:102C6E00EE34FFFEED34FFFDEC34FFFCE47B02FAA4
:102C7E00F9F81232EFAB07AA069001A8E0FFA3E025
:102C8E00900376CFF0A3EFF0D005D004D007D00696
:102C9E001271869001AAA3A3E0FEA3E0FFC39001E8
:102CAE00A3E09FFF9001A2E09ECF2401CF3400FE4F
:102CBE00C006C0079001B6A3A3E0FEA3E0FFC39039
:102CCE0001A5E09FFD9001A4E09EFCC004C005900C
:102CDE0001AAE0FCA3E0FDA3E0FEA3E024FFFFEECB
:102CEE0034FFFEED34FFFDEC34FFFCE47B02FAF919
:102CFE00F81232EFAB07AA069001A8E0FFA3E0900E
:102D0E000376CFF0A3EFF0D005D004D007D0061293
:102D1E0071869001B6E0FCA3E0FDA3E0FEA3E024E3
:102D2E00FFFFEE34FFFEED34FFFDEC34FFFC9001AF
:102D3E00B61234469001B6A3A3E0FEA3E0FFC39003
:102D4E0001A3E09FFF9001A2E09EFEC006C0079087
:102D5E0001AAA3A3E0FEA3E0FF9001A5E02FFD9042
:102D6E0001A4E03EFCC004C005E47F02FEFDFC9021
:102D7E0001B6E0F8A3E0F9A3E0FAA3E0FB1232EF0C
:102D8E00AB07AA069001A8E0FFA3E0900376CFF070
:102D9E00A3EFF0D005D004D007D0061271869001B3
:102DAE00B6A3A3E0FEA3E0FFC39001A3E09FFF90B4
:102DBE0001A2E09EFEC006C0079001AAA3A3E0FEFA
:102DCE00A3E0FFC39001A5E09FFD9001A4E09EFC4F
:102DDE00C004C005E47F02FEFDFC9001B6E0F8A33E
:102DEE00E0F9A3E0FAA3E0FB1232EFAB07AA0690DC
:102DFE0001A8E0FFA3E0900376CFF0A3EFF0D0059B
:102E0E00D004D007D0061271869001AAE0FCA3E090
:102E1E00FDA3E0FEA3E02401FFE43EFEE43DFDE45D
:0B2E2E003CFC9001AA123446022B78F5
:012E39002276
:106BAD00900281F0A3EFF090022EE0FEA3E0FF90A3
:106BBD00022CE0F8A3E02FFFE83E900283F0A3EF54
:106BCD00F0900232E0FFA3E0900285CFF0A3EFF04A
:086BDD00900222E0FEA3E0FF9C
:0E6BE500900279EEF0A3EFF0A3ECF0A3EDF038
:106BF300900281E0FCA3E0FDD39BEC9A506C9002E1
:106C030079E0FEA3E0FFC3ED9FEC9E405D90027F21
:106C1300E0FEA3E0FF900283E0FCA3E0FDD39FEC42
:106C23009E504790027BE0FEA3E0FFC3ED9FEC9EE6
:106C33004038900309E0FFA3E0900287CFF0A3EF71
:106C4300F0900285E0FFA3E0900309CFF0A3EFF0FB
:106C5300900281E0FEA3E0FF12746C900287E0FFD4
:0A6C6300A3E0900309CFF0A3EFF0C7
:016C6D002204
:1034F600E0FFA3E0900230CFF0A3EFF090017EE072
:10350600FFA3E0900232CFF0A3EFF0900170E0FE4F
:03351600A3E0FF30
:10351900900222EEF0A3EFF0A3ECF0A3EDF0A3EA02
:10352900F0A3EBF0C006C007A3E0FFA3E090027F81
:10353900CFF0A3EFF090022EE0FEA3E0FF90022A65
:10354900E0F8A3E02FFFE83E900281F0A3EFF090AE
:103559000230E0FEA3E0FF90022CE0F8A3E0C39F55
:10356900FFE89E900283F0A3EFF0900232E0FFA300
:10357900E0900285CFF0A3EFF0D007D006126BE5FB
:10358900900224E0FCA3E0FDA3E0FAA3E0FBA3E0A2
:10359900FFA3E090027FCFF0A3EFF0900230E0FEAE
:1035A900A3E0FF90022AE0F8A3E02FFFE83E900293
:1035B90081F0A3EFF090022EE0FEA3E0FF90022C31
:1035C900E0F8A3E0C39FFFE89E126BC7900224E0D6
:1035D900FCA3E0FDA3E0FAA3E0FBA3E0FFA3E090D6
:1035E900027FCFF0A3EFF0900230E0FEA3E0FF905E
:1035F900022AE0F8A3E02FFFE83E126BAD90022407
:10360900E0FCA3E0FDA3E0FAA3E0FBA3E0FFA3E055
:1036190090027FCFF0A3EFF090022EE0FEA3E0FF2F
:1036290090022AE0F8A3E02FFFE83E900281F0A380
:10363900EFF0900230126BB7900224E0FCA3E0FD9A
:10364900A3E0FAA3E0FBA3E0FFA3E090027FCFF0A1
:10365900A3EFF090022EE0FEA3E0FF90022AE0F82B
:10366900A3E0C39FFFE89E900281F0A3EFF09002D0
:1036790030126BB7900224E0FCA3E0FDA3E0FAA3AB
:10368900E0FBA3E0FFA3E090027FCFF0A3EFF0906F
:103699000230E0FEA3E0FF90022AE0F8A3E0C39F16
:1036A900FFE89E126BAD900224E0FCA3E0FDA3E0CD
:1036B900FAA3E0FBA3E0FFA3E090027FCFF0A3EF22
:1036C900F0900230E0FEA3E0FF90022AE0F8A3E0C8
:1036D900C39FFFE89E900281F0A3EFF090022EE0D5
:1036E900FEA3E0FF90022CE0F8A3E0C39FFFE89E51
:1036F900126BC7900224E0FCA3E0FDA3E0FAA3E06B
:10370900FBA3E0FFA3E090027FCFF0A3EFF09002CC
:103719002EE0FEA3E0FF90022AE0F8A3E0C39FFF9A
:10372900E89E900281F0A3EFF0900230E0FEA3E062
:10373900FF90022CE0F8A3E0C39FFFE89E9002836C
:10374900F0A3EFF0900232E0FFA3E0900285CFF002
:0E375900A3EFF0900222E0FEA3E0FF026BE57A
:104EE400E0FFA3E090017ECFF0A3EFF0900272E028
