:107A2A0045646974205465737400436F756E746598
:107A3A00723A00537472696E67203A0048656C6C3A
:027A4A006F00CB
:0A7AA6004203640000420366000082
:0A453C007B3C7A007C007F417E008A
:10454600900006EAF0A3EBF0900002EEF0A3EFF085
:10455600A3ECF0A3EDF0900008E0FAA3E0FB9000D6
:104566001274A5F0A37435F01270C8900002E0FE34
:10457600A3E0FFA3E0FCA3E0FDA3E0FAA3E0FB9029
:10458600001274A5F0A37435F012758D900003E047
:104596002401FF900002E03400FE900005E02401B3
:1045A600FD900004E03400FC900009E024FEFB903E
:1045B6000008E034FFFA9000127484F0A37431F01E
:1045C6001270C8900003E02401FF900002E034005E
:1045D600FE900005E02401FD900004E03400FC900C
:1045E6000007E024FEFB900006E034FFFA9000127C
:1045F6007484F0A37431F012758D900006E0FEA36A
:10460600E0FF900003E02FFF900002E03ECF24FF82
:10461600CF34FFFE900004E0FCA3E0FD900008E02C
:10462600FAA3E0FB74FF900012F0A3F01270C8909A
:104636000002E0FEA3E0FF900008E0FCA3E0FD908E
:104646000005E02DFD900004E03CCD24FFCD34FFB5
:10465600FC900006E0FAA3E0FB74FF900012F0A3C2
:10466600F012758D900006E0FEA3E0FF900003E0D7
:104676002FFF900002E03ECF24FECF34FFFE9000D5
:1046860005E02401FD900004E03400FC900009E000
:1046960024FEFB900008E034FFFA90001274DEF06E
:1046A600A374FCF01270C8900003E02401FF900090
:1046B60002E03400FE900008E0FCA3E0FD90000557
:1046C600E02DFD900004E03CCD24FECD34FFFC90AF
:1046D6000007E024FEFB900006E034FFFA9000128B
:1046E60074DEF0A374FCF012758D900003E02402D2
:1046F600FF900002E03400FEC006C007900005E00F
:104706002402FD900004E03400FC900007E024FD44
:10471600FB900006E034FFFA900008E0FEA3E024D8
:10472600FDFFEE34FF900012F0A3EFF090000AE0D8
:10473600FFA3E0900014CFF0A3EFF0D007D006025D
:024746007308F6
:08737E00900002EEF0A3EFF015
:107386009002FAE0FFA3E0900364CFF0A3EFF09041
:10739600000AE0FFA3E09002FACFF0A3EFF090001E
:1073A60002E0FEA3E0FFC002C003900008E0FBA3DA
:1073B600E0900018CBF0A3EBF090000CE0FBA3E00C
:1073C60090001ACBF0A3EBF090000EE090001CF0BA
:1073D60090000FE0F9A3E0FAA3E090001DC9F0A326
:1073E600EAF0A3E9F0E4A3F0D003D002125A4090E9
:0E73F6000364E0FFA3E09002FACFF0A3EFF0F3
:017404002265
:0871DA00900002EEF0A3EFF0BB
:1071E2009002FAE0FFA3E0900366CFF0A3EFF090E5
:1071F2000007E0FFA3E09002FACFF0A3EFF09000C7
:1072020003E02404FF900002E03400FEC006C00741
:10721200ED2403FDE43CFCC004C005900009E0FF3E
:10722200A3E0900015CFF0A3EFF090000BE09000E8
:1072320017F090000CE0FCA3E0FDA3E0FEA3E0FF4A
:10724200900018123446E490001CF0D005D004D00F
:1072520007D0061252AF900366E0FFA3E09002FA55
:05726200CFF0A3EFF0E6
:017267002204
:1058ED00E4900000F0A3F09002F874F8F0A3E4F057
:1058FD009002F3E0FFA3E0900008CFF0A3EFF0A338
:10590D007410F0A374FFF0A3747AF0A3742AF090CE
:10591D0002F1E0FAA3E0FB7D0A7C007F0A7E001213
:10592D0068CC9002F87407F0A374E0F09002F3E0F5
:10593D00FFA3E0900008CFF0A3EFF0A37410F0A345
:10594D0074FFF0A3747AF0A37434F09002F1E0FACE
:10595D00A3E0FB7D327C00E4FFFE1268CC9002F3E5
:10596D00E0FFA3E0900008CFF0A3EFF0A37410F0D8
:10597D00A374FFF0A3747AF0A3743DF09002F1E0EC
:10598D00FAA3E0FB7D507C00E4FFFE1268CC900092
:10599D0008E4F0A37414F074FFA3F0A3F07D3212A9
:1059AD00453C900008E4F0A37414F074FFA3F0A339
:1059BD00F07D5012453C900001E004F0700690001F
:1059CD0000E004F074FF900007F0A3F0A3E4F0A34F
:1059DD00741FF0A37410F0900000E0FEA3E0FFE44C
:1059ED00FCFD90000C1234467B067D327C007F411D
:1059FD007E001271DA7F647E00127A6B900008E4EB
:105A0D00F0A37414F074FFA3F0A3F0A3E4F0A37457
:105A1D001FF0A37410F0A374FFF0A3747AF0A374B5
:105A2D0046F07B3C7A007D507C007F417E001273F6
:035A3D007E8083E5
:0B7B0D00127AC01240C81258ED80FE32
:0B7B1800EF1FAC0670011E4C70F6223F
:107A6B00D3EF9400EE940040147D6E7C00ED1D70FE
:0D7A7B00011CED4C70F7EF1F70E61E80E35C
:017A880022DB
:057AB00042009F0000F0
:107AC000759850758920758780758DFA858D8BD254
:067AD000AFD28ED2992214
:067B2E00EF24FF92AC22DF
:0E7AFF00C2ACC2998F993099FDC299D2AC22C7
:1079500090036CEBF0A3EAF0A3E9F090036CE0FB7A
:10796000A3E0FAA3E0F912319FFF6016127AFF7FBD
:10797000057E00127B1890036DE475F00112325EF3
:0379800080D92289
:030023000274055F
:10740500C0E0C083C082C0D075D000C004C005C034
:01741500076F
:10741600309864C298AF9990009FE0FCEC20E75743
:1074260030E60FEF640A90009F60028046E04480D9
:10743600800AEFB40D0C90009FE04440F0A3E0F00A
:10744600803590009FE0543FFCA3E0246DF58274E4
:10745600003CF583EFF09000A0E004F07006900089
:107466009FE004F0D39000A0E0943190009FE09458
:07747600004004E4F0A3F064
:0F747D00D007D005D004D0D0D082D083D0E03259
:10002600204C43442049443A25780D0A000000003C
:10003600000000000000000000000000003F40003B
:1000460000000000000000300040003000400000CA
:100056000009000BC03D000BC03D00090018C0247C
:10006600407FE0224031800000180024C01B000DB4
:10007600803240018003801C4027401C80074000DE
:1000860040100060000000000000000000000000BA
:100096000000001F80204040200000402020401F1C
:1000A6008000000000090006001F8006000900000D
:1000B60000040004003F800400040000000010005B
:1000C60060000000000000000004000400040004BA
:1000D60000040000000000004000000000000000D6
:1000E60000002001C006003800400000001F8020EC
:1000F60040204020401F800000000010403FC0000C
:10010600400000000018C021402240244018400052
:100116000010802040244024401B80000002000D77
:100126000011003FC0014000003C802440244024D0
:1001360040238000001F8024402440344003800078
:10014600003000200027C03800200000001B80245B
:1001560040244024401B8000001C0022C022402274
:10016600401F800000000000000840000000000062
:100176000000000000046000000000000000000411
:10018600000A00110020804040090009000900090A
:10019600000900000000004040208011000A000411
:1001A600001800200023402400180000001F8020B3
:1001B60040274029401F400000004007C039000F7B
:1001C6000001C0004020403FC0244024401B800066
:1001D600001F802040204020403080000020403F0B
:1001E600C0204020401F80000020403FC024402EF9
:1001F6004030C0000020403FC024402E00300000A8
:10020600000F001080204022403380020020403F33
:10021600C0040004003FC02040204020403FC020D2
:1002260040204000000060202020203FC020002009
:100236000020403FC024400B0030C0204020403FFB
:10024600C020400040004000C03FC03C0003C03C0E
:10025600003FC0000020403FC00C4023003FC020AC
:10026600001F802040204020401F80000020403F8B
:10027600C024402400180000001F80214021402097
:10028600E01FA0000020403FC02440260019C00007
:100296004018C02440244022403180000030002015
:1002A600403FC020403000000020003F800040005A
:1002B600403F80200020003E0001C007003800209B
:1002C60000380007C03C0007C03800000020403955
:1002D600C0060039C0204000002000384007C03862
:1002E6004020000000304021C02640384020C00099
:1002F60000000000007FE040204020000000007069
:10030600000C000380004000000000402040207FD9
:10031600E000000000000020004000200000000077
:100326000000100010001000100010001000000067
:1003360000400000000000000000000280054005AB
:100346004003C0004020003FC0044004400380003A
:100356000000000380044004400640000000000343
:1003660080044024403FC000400000038005400553
:100376004003400000000004401FC02440244020E9
:1003860000000002E0055005500650042020403FC2
:10039600C00440040003C000400000044027C00021
:1003A600400000000000100010041027E0000000CC
:1003B6000020403FC00140070004C0044020402008
:1003C600403FC000400040000007C0040007C004D2
:1003D6000003C00000044007C00440040003C0003E
:1003E600400000038004400440038000000410071E
:1003F600F004500440038000000000038004400421
:100406005007F00010044007C0024004000400003A
:1004160000000006400540054004C000000000043E
:10042600001F8004400040000004000780004004D4
:100436004007C000400400070004C0018006000415
:1004460000060001C0070001C006000000044006C7
:10045600C0010006C0044000000410071004E001BB
:1004660080060004000000044005C0064004400069
:10047600000000000004007BE040200000000000B7
:10048600000000FFF000000000000040207BE004B8
:1004960000000000004000800040002000200040D6
:1004A6000000000000000000000000000000000046
:1004B600000000000000001FCC000C00000000003F
:1004C60000000008003000600008003000600000F6
:1004D60000022003FC1E20022003FC1E2002200036
:1004E6000000000E1811043FFF10840C7800000075
:1004F600000F0010840F3800C007781884007800B9
:100506000000780F8410C411240E9800E4008400C3
:1005160008080068007000000000000000000000ED
:100526000000000000000007E01818200440020048
:1005360000000040022004181807E0000000000038
:10054600000240024001800FF0018002400240009C
:10055600000080008000800FF8008000800080008E
:10056600000001000D000E00000000000000000069
:100576000000000080008000800080008000800075
:10058600800000000C000C000000000000000000CD
:100596000000000006001800600180060018002018
:1005A60000000007F0080810041004080807F0000F
:1005B600000000080408041FFC00040004000000FA
:1005C6000000000E0C10141024104411840E0C00B0
:1005D6000000000C1810041104110412880C70009D
:1005E60000000000E00320042408241FFC0024006F
:1005F6000000001F98108411041104108810700068
:1006060000000007F0088811041104188800700023
:100616000000001C00100010FC13001C001000005D
:100626000000000E3811441084108411440E380066
:100636000000000700088C10441044088807F000EA
:1006460000000000000000030C030C000000000086
:10065600000000000000010106000000000000008C
:100666000000000080014002200410080810040069
:100676000002200220022002200220022002200086
:100686000000001004080804100220014000800049
:100696000000000E001200100C106C10800F0000FD
:1006A6000003E00C1813E4142417C4082807D0002C
:1006B600000004003C03C41C40074000E4001C008A
:1006C6000410041FFC1104110411040E88007000AC
:1006D6000003E00C1810041004100410081C10008D
:1006E6000010041FFC100410041004080807F00092
:1006F6000010041FFC1104110417C410040818008C
:100706000010041FFC1104110017C010000800009F
:100716000003E00C181004100410441C780040007C
:100726000010041FFC10840080008010841FFC1041
:10073600040000100410041FFC1004100400000044
:100746000000030001100110011FFE100010000040
:100756000010041FFC110403801464181C1004000C
:100766000010041FFC1004000400040004000C0028
:100776000010041FFC1F0000FC1F001FFC100400DB
:100786000010041FFC0C04030000E010181FFC10EE
:100796000007F00808100410041004080807F00009
:1007A6000010041FFC10841080108010800F0000C1
:1007B6000007F0081810241024101C080A07F2007D
:1007C6000010041FFC1104110011C011300E0C00A2
:1007D6000400000E1C11041084108410441C380000
:1007E600001800100010041FFC1004100018000070
:1007F6000010001FF810040004000410041FF81075
:100806000010001E0011E0001C007013801C001078
:10081600001FC0103C00E01F0000E0103C1FC0009D
:10082600001004180C163401C001C01634180C1040
:100836000410001C00130400FC13041C001000002C
:10084600000804101C1064108413041C0410180003
:10085600000000000000007FFE400240024002004F
:1008660000000030000C0003800060001C00030044
:100876000000004002400240027FFE00000000002F
:100886000000000000200040004000400020000062
:10089600000001000100010001000100010001004B
:1008A60001000040004000200000000000000000A1
:1008B6000000000098012401440144014400FC00AA
:1008C6000410001FFC008801040104008800700069
:1008D6000000000070008801040104010400880083
:1008E600000000007000880104010411081FFC00CC
:1008F60004000000F8014401440144014400C8001A
:10090600000000010401040FFC1104110411001879
:1009160000000000D601290129012901C9010600AC
:100926000010041FFC008401000100010400FC000B
:100936000400000104190419FC000400040000006E
:10094600000000000300010101190119FE0000006A
:100956000010041FFC0024004001B4010C01040037
:10096600000000100410041FFC0004000400000036
:1009760000010401FC0104010001FC010401000066
:10098600FC010401FC008401000100010400FC00DC
:1009960004000000F8010401040104010400F80049
:1009A60000010101FF0085010401040088007000B8
:1009B6000000000070008801040104010501FF0029
:1009C600010104010401FC0084010401000180000E
:1009D60000000000CC012401240124012401980018
:1009E6000000000100010007F801040104000000F6
:1009F60000010001F8000400040004010801FC00E5
:100A060004010001800170000C00100160018001EA
:100A16000001F0010C003001C00030010C01F001B2
:100A26000000000104018C00740170018C010400B7
:100A360000010101810171000E00180160018001B1
:100A46000000000184010C013401440184010C0002
:100A560000000000000000000001003EFC400240D3
:100A6600020000000000000000FFFF000000000080
:100A7600000000400240023EFC01000000000000B1
:100A86000000006000800080004000400020002040
:100A96000000000000000000000000000000000050
:100AA6000000000000000000000000000000000040
:100AB6000000000000000000000000000000000030
:100AC600000000000F80380FFE380F80380000004D
:100AD600000000000000000000000000000000010F
:100AE60000000600000C000038000031000006007F
:100AF600000C00003800003000000000000000007C
:100B06000061800067F807F980006180006180005D
:100B160061800061800067F807F98000618000004D
:100B26000000000000000001C0E003E0F00630080D
:100B36000418081FFFFE040E080787F00381E00073
:100B4600000000000001F000060C00040408060C7A
:100B56007001F9C0000E00003BE000EC1807080821
:100B6600040C180003E00000000001E00007F00399
:100B7600F818041C0804170807E1D003C0E0002396
:100B8600B0003C0800200800001000000000000033
:100B96000100003100003200001C000000000000CF
:100BA600000000000000000000000000000000003F
:100BB600000000000000000000000000000000002F
:100BC600007F0001FFC00780F00C00181000042011
:100BD60000020000000000002000021000040C00CB
:100BE600180780F001FFC0007F0000000000000031
:100BF60000000000000000000000000000420000AD
:100C06006600006600003C0000180003FFC00018E4
:100C160000003C0000660000660000420000000084
:100C26000008000008000008000008000008000195
:100C3600FFC00008000008000008000008000008C7
:100C46000000000000000100003100003200001C1E
:100C5600000000000000000000000000000000008E
:100C66000000000000000000000800000800000866
:100C76000000080000080000080000080000080046
:100C8600000800000800000000000000000000004E
:100C960000380000380000380000000000000000A6
:100CA600000000000000000000000000000000003E
:100CB60000000600001C000070000180000E00000D
:100CC600380000C0000700001C00003000000000D3
:100CD60000000000007F8001FFE00380700600181E
:100CE60004000804000806001803807001FFE000F5
:100CF6007F800000000000000000000100080100E5
:100D06000801000803FFF807FFF8000008000008C4
:100D160000000800000000000000000001C03802CA
:100D2600C058040098040118040218040418061C8C
:100D36001803F81801E0F8000000000000000000A9
:100D460001C0E003C0F0040008040808040808060F
:100D5600180803F41801E7F00001E00000000000A5
:100D660000000000000300000D00001100006100FB
:100D760000810803010807FFF80FFFF800010800CB
:100D860001080000000000000000E007FCD0060893
:100D960008061008061008061008061838060FF090
:100DA6000607C0000000000000000000003F8001B0
:100DB600FFE0038430020818041008041008041029
:100DC60008071810030FF00007C00000000000001D
:100DD60000000003C0000700000600000600F80639
:100DE60007F806180006E0000700000600000000ED
:100DF6000000000001E1E003F7F0063410041808D3
:100E0600041808040C08040C0806161803F3F0016D
:100E1600C1E000000000000000F80003FC300306FB
:100E2600380402080402080402080404100308F047
:100E360001FFC0007F00000000000000000000006D
:100E460000000000000000000070380070380070DC
:100E56003800000000000000000000000000000054
:100E660000000000000000000000000000301A0032
:100E7600301C000000000000000000000000000020
:100E8600000000000000000008000014000022001E
:100E9600004100008080010040020020040010088C
:100EA60000080000000000000021000021000021D1
:100EB6000000210000210000210000210000210087
:100EC60000210000210000000000000000000008D2
:100ED600000804001002002001004000808000414C
:100EE60000002200001400000800000000000000BE
:100EF60003C00004C000040000080038080F3808CA
:100F060008380810000C300007E00003C00000009D
:100F160000000000003F8000FFE0038070020F1019
:100F260006708804C088048308047F8802C0900382
:100F3600012000FE400000080000180001F8003EF5
:100F46000801C20007020007E20000FE00001FC8F9
:100F56000001F800003800000804000807FFF80741
:100F6600FFF8040808040808040808040808061816
:100F76000803F41801E7F00001E00000000000009B
:100F8600003F8001FFE0038070020018040008049F
:100F960000080400080400100600200780C00000B6
:100FA6000004000807FFF807FFF80400080400081B
:100FB60004000804001802001003807001FFE0001E
:100FC6007F8000000004000807FFF807FFF8040808
:100FD60008040808040808040808043E0804000871
:100FE60006001801006000000004000807FFF8076B
:100FF600FFF8040808040800040800040800043E7A
:10100600000600000600000180000000000000004D
:10101600003F8001FFE0038070060018040008040A
:1010260002080402080203F00783F000020000022F
:101036000004000807FFF807FFF804080800080086
:1010460000080000080000080004080807FFF80769
:10105600FFF8040008000000000000040008040077
:101066000804000807FFF807FFF804000804000852
:101076000400080000000000000000000000060058
:10108600000700000104000104000104000307FF3B
:10109600FE07FFFC04000004000004000004000832
:1010A60007FFF807FFF8040C08001800003E0004CC
:1010B600C7800503C80600F80400380400180000BD
:1010C6000804000807FFF807FFF8040008000008F6
:1010D60000000800000800000800000800001800D2
:1010E600006000000004000807FFF807800807FCFE
:1010F60000007FC00003F80007C0007800078008E2
:1011060007FFF807FFF804000804000807FFF807C0
:10111600000803C00000E000003800001E000007C1
:10112600000001C00400F007FFF804000000000002
:10113600007F8001FFE003807006001804000804A9
:10114600000806001803003001FFE0007F80000061
:101156000004000807FFF807FFF804040804040069
:10116600040400040400040400060C0003F8000153
:10117600F000000000000000007F8001FFE0038017
:10118600700600880400880400C806003C03003E80
:1011960001FFE6007F8400000004000807FFF8074F
:1011A600FFF8040808040800040C00040F00040BF0
:1011B600C00610F003F03801E00800000800000047
:1011C60001E0F803F030063010041808041808048B
:1011D6000C08040C080206180207F00781E000005C
:1011E600000180000600000400000400000400085E
:1011F60007FFF807FFF804000804000004000006D3
:10120600000001800004000007FFE007FFF0040073
:101216001800000800000800000800000800000888
:1012260004001007FFE004000004000006000007A9
:10123600E00007FE00041FE00001F800003800018E
:10124600E0043E0007C000060000040000040000A1
:1012560007E00007FFC0041FF80007C007F80007F3
:10126600FF80043FF80007C004F8000700000400F0
:101276000000000004000806001807C07805F1C841
:10128600003E00001F800463E80780F8060018048B
:10129600000800000004000006000007800007E0C8
:1012A60008047C08001FF80007F800180804E00886
:1012B6000700000600000400000000000100080608
:1012C60000380400F80403E8040F08047C0805F05D
:1012D6000807C008070018040060000000000000AE
:1012E6000000000000000000000000003FFFFE209C
:1012F600000220000220000220000220000200005E
:101306000000000000000008000007000000C00008
:101316000038000006000001C000003000000E008A
:101326000001000000000000000000200002200074
:10133600022000022000022000023FFFFE00000003
:101346000000000000000000000000000000000097
:1013560000000800001000003000002000003000EF
:10136600001000000800000000000000000000015E
:101376000000010000010000010000010000010062
:101386000001000001000001000001000001000052
:101396000100000000000000000020000020000006
:1013A6001000001000000000000000000000000017
:1013B60000000000000000000000F00019F8001B0B
:1013C60018002208002608002408002410003FF810
:1013D600001FF800000800001800000004000007C5
:1013E600FFF80FFFF0001818001008002008002072
:1013F60008003018001FF0000FC0000000000000B9
:101406000007C0001FF00018300020080020080068
:101416002008003C08001C100000600000000000CE
:10142600000000000007C0001FF000381800200868
:1014360000200800200804101007FFF80FFFF00036
:1014460000100000000000000000000007C0001FA0
:10145600F00012300022180022080022080032088C
:10146600001E10000E2000000000000000200000FA
:10147600200800200801FFF803FFF80620080420D2
:1014860008042008072000030000000000000000F8
:1014960000000E000E6E001FF30031B10020B100F7
:1014A60020B1003191001F13002E1E00200E0030C7
:1014B6000000000004000807FFF80FFFF8001008FE
:1014C600002000002000002008003FF8001FF80060
:1014D60000080000000000000000000020080020B6
:1014E60008002008063FF8063FF80000080000083C
:1014F60000000800000000000000000000000000DE
:101506000003000003002001002001002003063F25
:10151600FE063FFC00000000000000000000000086
:1015260004000807FFF80FFFF80001880003000019
:101536002FC00038F80020380020080000080000FE
:101546000000000000000004000804000804000871
:1015560007FFF80FFFF80000080000080000080069
:101566000000000000002008003FF8003FF80010CF
:1015760008002000003FF8003FF800100800200097
:10158600003FF8003FF800000800000000200800B7
:101596003FF8003FF800100800100000200000206F
:1015A60008003FF8001FF8000008000000000000D7
:1015B6000007C0000FF000183000300800200800B7
:1015C6002008003008001830000FF00007C00000A7
:1015D60000000000002001003FFF003FFF00101147
:1015E600002009002008002008003038001FF00005
:1015F6000FC00000000000000007C0001FF0003808
:1016060018002008002008002009001011001FFF04
:10161600003FFF0000010000000020080020080035
:101626002008003FF8003FF80008080010080020D6
:10163600080020000030000030000000000000001C
:10164600000000000C78001E180033080023080074
:1016560021080021880021980030F0003860000041
:101666000000000000200000200000200000FFF025
:1016760003FFF800200800200800200800003000C2
:101686000000000000000000002000003FF0007F86
:10169600F8000018000008000008002010003FF8BD
:1016A600007FF00000100000000000000020000095
:1016B6003000003C00003F800023F000007800006E
:1016C60070002380003C0000300000200000200055
:1016D600003C00003FE00023F80000E00027000087
:1016E6003E00003FE00021F80001E0003E0000203F
:1016F60000000000002008002008003838003E687E
:101706000027800003C8002CF80038380020180095
:101716002008000000000000002000003003003C0C
:1017260001003F830023EC000070002380003C0092
:101736000020000020000000000000000000000063
:1017460038080020380020F80023E8002F88003EE3
:101756000800380800201800007000000000000093
:10176600000000000000000000000000000800006B
:1017760014001FF7FC3000062000020000000000E5
:101786000000000000000000000000000000000053
:10179600000000FFFFFF0000000000000000000046
:1017A60000000000000000000000002000023000E1
:1017B600061FF7FC001400000800000000000000EF
:1017C600000000000000000000000000180000609B
:1017D600000040000040000020000010000008004B
:1017E600000400000400000C0000100000C6D50034
:1017F60000000000E0380000783C00003C78000063
:101806003C70C0001CE1E01FFFFFF0001CE3000E6F
:101816001CE7C0079CE78003DCEF0003DCEE000159
:10182600DCFC60009CF9F07FFFFFF800000000017F
:10183600C00E0001FFFF0001C00E0001C00E000136
:10184600C00E0001FFFE0001C00E0001C00E000127
:10185600C00E0001FFFE0001C00E0001C00E000018
:10186600000000D6D000000000000700000007803E
:101876000000070000000700000007000000070145
:10188600801FFFFFE01FFFFFE01E0701C01E0701CC
:10189600C01E0701C01E0701C01E0701C01E0701AA
:1018A600C01FFFFFC01FFFFFC01E0701C01C0701AE
:1018B6008000070000000700000007000000070086
:1018C60000000700000007000000070000000700F6
:1018D600000007000000000000BFC6000000000076
:1018E600000780003C07C001FC07803FE007803905
:1018F600C1C78001C0E78001C0F78001C0778001C1
:10190600DE77807FFE078001C0078003C3C78003A0
:10191600E1E78003F8F78007FCE7F00FDE67F80FD2
:10192600DC07F81FC0FF801DDFE78039CC07807118
:10193600C0078061C0078001C0078001C007800121
:10194600E0078001E0078001C0070000000000BC3E
:10195600BC000000000380300003C03C0003C03C14
:101966000003C0380003C0380003C0386003F838ED
:10197600F07FFFFFF003C0380003C0380003C03813
:101986000003DC39C003FFFFE007E383C03FC183E8
:10199600C07FC1C3803BC1C78003C0EF0003C0EF57
:1019A6000003C07E0003C07C0003C07C0003C0FEB1
:1019B600003BC3EF803F8787F80FBF03F807780027
:1019C600E000000000C4EA0000000000C0000001C2
:1019D600F0000001E0000003C000C003C001E00702
:1019E600FFFFF00703C0000E03C0001E03C0003C4B
:1019F60003C3007303C78063FFFFC00383C00003F4
:101A060083C0000383C0000383C0000383C0600358
:101A160083C0F07FFFFFF80003C0000003C0000092
:101A260003C0000003C0000003C0000003C00000A4
:101A360003C0000003C00000000000D4C200000084
:101A4600000000000000E0070000FFFF8000F00734
:101A56008000F0070000F0070000F0070000F00724
:101A66000000FFFF0000FFFF0000F0070000F00786
:101A76000000F0070000F0070000E0070000FFFF8D
:101A86000000E0070000E0070000E0070001E007B3
:101A96000001C0070001C00700038007000780F7A8
:101AA600000F007F001E001F0038001C0000000011
:101AB60000C8D5000000000000000003000300037A
:101AC600FFFF8003FFFF80038007000380070003FA
:101AD60080070003800700038007000380070003D8
:101AE6008007000380070003FFFF00038007000351
:101AF60080070003800700038007000380070003B8
:101B060080070003800700038007000380070003A7
:101B1600FFFF000380070003800700038007000320
:101B260000000000000000D0C70000000000000018
:101B3600000380070003FFFF800380070003800780
:101B4600000380070003FFFF0003800700038007F0
:101B56000003FFFF0003FFFF00038707000387C0A2
:101B66000003C7810003C7838007FFFFC007078004
:101B7600000F0780001E0786001C078F003BFFFF33
:101B8600807007800000078000000780E000078162
:101B9600F07FFFFFF80000000000000000C6DA003A
:101BA60000000006000000079E0000079E7FF00769
:101BB6009E7FF0079FF8F03FFFF8F01F9E78F00732
:101BC6009E78F0079E78F007FE7FF0079E78F00774
:101BD6009E78F0079E70F007FE70F0079E70F00783
:101BE6009E7FF0079FFFF03FFFF0F0119070F0032B
:101BF600DCF0F003DEE0F0078FE0F00F0FE0F00E10
:101C060007C0F01C038FF0380F03E0201C01C00052
:031C1600000000CB
:0A7AB5004202F8FFFF4202FA00004F
:10000300E4FDFCC3ED9FEC9E5014E4FBFA0BBB0034
:0E001300010AEBF44A70F60DBD00010C80E509
:0100210022BC
:0879B1007E001279B9E4FFFE2B
:0479B900AD07AC0664
:1079BD00ECFFAE05D2A5C2A7D2B2C2A68F90C2A5CA
:0C79CD00D2A5AF068F90C2A5D2A5D2A70C
:0179D900228B
:0D7983007E001279B9900065E0FEA3E0FFE0
:04799000AD07AC068D
:10799400ECFFAE05D2A5C2A7D2B2D2A68F90C2A5E3
:0C79A400D2A5AF068F90C2A5D2A5D2A735
:0179B00022B4
:0879DA00900357E0FEA3E0FF5B
:0479E200AD07AC063B
:1079E600ECFFAE05D2A5C2A7D2B2D2A68F90C2A591
:0C79F600D2A5AF068F90C2A5D2A5D2A7E3
:017A02002261
:067AEB007C107F037E0009
:0E7AF100AB05AA041279B9AE02AF0302799078
:107A4C007590FF7580FFC2A7D2A6C2B200AF90EFAF
:0E7A5C00FED2B2C2B200AD90EDFFD2B2D2A700
:017A6A0022F9
:1076E600EF7026FD7C057F01FE127AF17D30127A5D
:1076F600EB9002F3E4F0A374DCF09002F1E4F0A363
:1077060074B0F0E49002F7F0227D007C047F017EE5
:1077160000127AF17D38127AEB9002F3E4F0A3744A
:10772600B0F09002F1E4F0A374DCF09002F774017B
:02773600F0223F
:1040C800D2B37F647E00127A6BC2B37F647E001223
:1040D8007A6BD2B37F647E00127A6BE4FFFE1279AA
:1040E800B9127A4C9002F5EEF0A3EFF07BFF7A005C
:1040F8007926900003EEF0A3EFF0122EA5E4FFFE60
:104108001279B97F017E001279907F0A7E00127BB6
:10411800187F071279B17F121279B17FA47E00123D
:1041280079B97F017E001279B97F0A7E00127B1867
:104138007F707E001279B97F007E9B1279907F078D
:104148007E001279B97F317E001279907F187E0047
:104158001279B97F017E001279907F107E00127962
:10416800B97FB07E111279907F117E001279B97FE4
:10417800077E001279907F127E001279B97F177E30
:10418800101279907F137E001279B97F0D7E851207
:1041980079907F147E001279B97F007E8012799021
:1041A8007F127E001279B97F3C7E101279907F963B
:1041B8007E001200037F011279B97F007E05127913
:1041C800907F027E001279B97F007E071279907F76
:1041D800037E001279B97F307E101279907F087EB5
:1041E800001279B97408FFFE1279907F0B7E0012D5
:1041F80079B97F007E111279907F0C7E001279B90F
:10420800E4FFFE1279907F0F7E001279B97F017E5C
:10421800141279907F157E001279B9E4FFFE1279A5
:10422800907F207E001279B9E4FFFE1279907F21F9
:104238007E001279B9E4FFFE1279907F507E001259
:1042480079B9E4FFFE1279907F517E001279B97F27
:10425800AF7E001279907F527E001279B9E4FFFE9A
:104268001279907F537E001279B97FDB7E00127934
:10427800907F707E001279B97F007E1B1279907F43
:10428800717E001279B9E4FFFE1279907F907E006A
:104298001279B9E4FFFE1279907F917E001279B904
:1042A8007F007E011279907F927E001279B97F019A
:1042B8007E001279907F597E001279B97F0C7E05B5
:1042C8001279907F907E001279B97F107E00127962
:1042D800907F927E001279B97F007E061279907FD6
:1042E800077E001279B97F337E021279907F327E81
:1042F800001200037F221279B9E4FF1276E69002D9
:09430800FAE0FEA3E0FF02748C50
:05714900E0FEA3E0FFE1
:10714E00900065EEF0A3EFF0A3ECF0A3EDF090024B
:10715E00F7E070357F50FE1279857F517E001279EF
:10716E00B9AF03AE021279907F527E001279B9A3A5
:10717E0012798B7F537E001279B990006B12798B46
:10718E007F201279837F2180327F521279837F5341
:10719E007E001279B9AE02AF031279907F507E0055
:1071AE001279B9A312798B7F517E001279B99000B2
:1071BE006B12798B7F211279837F207E001279B931
:0C71CE00A312798B7F227E001279B92277
:0E6D070090032DEEF0A3EFF0A3ECF0A3EDF05F
:106D1500E4A3F0A304F0A3E4F0A304F09002F1E0EF
:106D2500FEA3E0FFC390032EE09F90032DE09E504D
:106D3500159002F3E0FEA3E0FFC3900330E09F90BF
:106D4500032FE09E4004E4FEFF2290032FE0FCA306
:106D5500E0FD90032DE0FAA3E0FBA3E0FFA3E090A4
:106D6500006BCFF0A3EFF090032D127149127A4C0E
:106D7500AB07AA06127A4CAA06AB07EA13131354FB
:106D85001FFF900333E4F0A3EFF0EB7805CEC313B8
:106D9500CE13D8F9543FFF900331E4F0A3EFF07C14
:106DA50000EB541FFD900331E0FEA3E07805C333EB
:106DB500CE33CED8F9FBAA06ED33333354F84AFE69
:106DC500EBFF900333E04EFAA3E04FAC02AE04FFB5
:016DD500229B
:08748C00900000EEF0A3EFF008
:10749400E4A3F0A3F09002F2E024FFFB9002F1E0F9
:1074A40034FFFA9002F4E024FFFE9002F3E034FF8C
:1074B40090006BF0A3CEF0E4FDFCFFFE12714EE4ED
:1074C400FAFBD39002F2E09B9002F1E09A4039E497
:1074D400900002F0A3F09002F3E0FEA3E0FFC3905B
:1074E4000003E09F900002E09E5016900000127985
:1074F400DD900003E004F070DD900002E004F08011
:08750400D50BBB00010A80BA9F
:01750C00225C
:106C3700900018ECF0A3EDF0900016EEF0A3EFF043
:086C470090001AEAF0A3EBF043
:106C4F00E4900020F0A3F0D3EF9BEE9A4003026D87
:106C5F000690001CE0FEA3E0FF900018E0FCA3E00C
:106C6F00FD9FEC9E4003026D0690001AE0FAA3E030
:106C7F00FBA3E0FFA3E090006BCFF0A3EFF0900039
:106C8F0016127149900016E0FEA3E0FFC390001B9F
:106C9F00E09FFF90001AE09ECF2401CF34009000B8
:106CAF0016F0A3EFF0A3E0FEA3E0FFC390001DE0FA
:106CBF009FFF90001CE09ECF2401CF34009000185E
:106CCF00F0A3EFF090001674FFF5F012327445F058
:106CDF006025900018E0FFA3E0900020CFF0A3EF15
:106CEF00F090002074FFF5F012327445F060D590EB
:076CFF00001E1279DD80EA9E
:016D0600226A
:0E64FC00900228EEF0A3EFF0A3ECF0A3EDF079
:10650A00900228E0FEA3E0FFC3EB9FFFEA9ECF24A0
:10651A0001CF3400900235F0A3EFF090022AE0FE9A
:10652A00A3E0FFC390022FE09FFF90022EE09ECFD0
:10653A002401CF3400900233F0A3EFF090022AE056
:10654A00FCA3E0FD90022EE0FFA3E090006BCFF0E9
:10655A00A3EFF0900228127149E4900237F0A3F0F9
:10656A00900233E0FEA3E0FFC3900238E09F90025E
:10657A0037E09E5074E4900239F0A3F0900235E0BF
:10658A00FEA3E0FF900239E0FAA3E0FBC39FEA9E74
:10659A005046900235E0FCA3E0FDA3E0FEA3E0FF35
:1065AA001231F7EB2FFFEA3EFEEF25E0FFEE33FE56
:1065BA00900230E0FBA3E0FAA3E0F98F828E831207
:1065CA00328AFFAEF01279E290023AE004F070AC3F
:1065DA00900239E004F080A4900238E004F0708060
:0965EA00900237E004F002656A3A
:0165F3002285
:10785D00900302FEE0FCA3E0FDC39002FFE09DFD5E
:06786D009002FEE09CFC0D
:10787300AB07AA068D828C83C006C007AE83AF8296
:1078830090006BEEF0A3EFF0D007D00612714E908C
:0A78930002F8E0FEA3E0FF0279E234
:0677D100FDE0FAA3E0FB5D
:1077D70090005FEEF0A3EFF0900063EAF0A3EBF008
:1077E700900061ECF0A3EDF090005FE0FAA3E0FBFE
:1077F700FFAE02C007A3E0FFA3E090006BCFF0A3AA
:10780700EFF0D00712714E900063E0FEA3E0FF0295
:0278170079E214
:1076080090034DEEF0A3EFF0A3ECF0A3EDF0A3EAA6
:10761800F0A3EBF01277D790034EE02401FF90031C
:107628004DE03400FE90034FE0FCA3E0A31277D1B5
:1076380090034DE0FEA3E0FF900350E02401FD908D
:10764800034FE03400FC9003511277D290034EE0D0
:107658002401FF90034DE03400FE900350E0240124
:10766800FD90034FE03400FC900351E0FAA3E0FBE7
:037678000277D7BF
:0E493B0090017FEEF0A3EFF0A3ECF0A3EDF0FF
:10494900E4900187F0A3F0A3F0A3F0A3F0A3F09003
:10495900017FE0FEA3E0FFC3EB9FFFEA9E90018D7C
:10496900F0A3EFF0900181E0FAA3E0FBC390018688
:10497900E09BFE900185E09A90018FF0A3CEF09024
:10498900017FE0FFA3E0900197CFF0A3EFF0A3EA46
:10499900F0A3EBF090018DE0FEA3E0FFD39400EECD
:1049A90064809480400A900193E4F0A304F080218C
:1049B900EF4E7008900193F0A3F0801574FF9001F9
:1049C90093F0A3F0C3E49FFFE49E90018DF0A3EF61
:1049D900F090018FE0FEA3E0FFD39400EE64809491
:1049E90080400A900195E4F0A304F08021EF4E7015
:1049F90008900195F0A3F0801574FF900195F0A33C
:104A0900F0C3E49FFFE49E90018FF0A3EFF09001C3
:104A19008FE0FEA3E0FF90018DE0FCA3E0FDD39FB2
:104A2900EE6480F8EC6480989001914007ECF0A363
:104A3900EDF08005EEF0A3EFF0E4900187F0A3F02C
:104A4900900192E02401FF900191E03400FED3909F
:104A59000188E09F900187E09E4003024B29900165
:104A690097E0FEA3E0FFA3E0FCA3E0FD12787390BA
:104A7900018DE0FEA3E0FF90018AE02FF09001890B
:104A8900E03EF090018FE0FEA3E0FF90018CE02F63
:104A9900F090018BE03EF0900191E0FEA3E0FF90E1
:104AA9000189E0FCA3E0FDD39FEE6480F8EC64800B
:104AB900984020ED9FFFEC9E900189F0A3EFF090C4
:104AC9000193E0FEA3E0FF900198E02FF090019799
:104AD900E03EF0900191E0FEA3E0FF90018BE0FC45
:104AE900A3E0FDD39FEE6480F8EC6480984020ED4C
:104AF9009FFFEC9E90018BF0A3EFF0900195E0FEF3
:104B0900A3E0FF90019AE02FF0900199E03EF09028
:104B19000188E004F07006900187E004F0024A4938
:014B29002269
:0E4B2A00900125EEF0A3EFF0A3ECF0A3EDF068
:104B3800E4900131F0A3F0A3F0A3F0900125E0FE8A
:104B4800A3E0FFC3EB9FFFEA9E900135F0A3EFF0CF
:104B5800900127E0FAA3E0FBC390012CE09BFE90B4
:104B6800012BE09A900137F0A3CEF0900125E0FFE9
:104B7800A3E090013FCFF0A3EFF0A3EAF0A3EBF09E
:104B8800900135E0FEA3E0FFD39400EE64809480AA
:104B9800400A90013BE4F0A304F08021EF4E700836
:104BA80090013BF0A3F0801574FF90013BF0A3F057
:104BB800C3E49FFFE49E900135F0A3EFF090013726
:104BC800E0FEA3E0FFD39400EE64809480400A9056
:104BD800013DE4F0A304F08021EF4E700890013D00
:104BE800F0A3F0801574FF90013DF0A3F0C3E49F9B
:104BF800FFE49E900137F0A3EFF0900137E0FEA3A9
:104C0800E0FF900135E0FCA3E0FDD39FEE6480F85F
:104C1800EC6480989001394007ECF0A3EDF0800532
:104C2800EEF0A3EFF0E490012FF0A3F090013AE04A
:104C38002401FF900139E03400FED3900130E09F59
:104C480090012FE09E4003024D1690013FE0FEA325
:104C5800E0FFA3E0FCA3E090012D1277D19001358D
:104C6800E0FEA3E0FF900132E02FF0900131E03E3A
:104C7800F0900137E0FEA3E0FF900134E02FF090C0
:104C88000133E03EF0900139E0FEA3E0FF900131EE
:104C9800E0FCA3E0FDD39FEE6480F8EC64809840CC
:104CA80020ED9FFFEC9E900131F0A3EFF090013BC7
:104CB800E0FEA3E0FF900140E02FF090013FE03ECE
:104CC800F0900139E0FEA3E0FF900133E0FCA3E09F
:104CD800FDD39FEE6480F8EC6480984020ED9FFF40
:104CE800EC9E900133F0A3EFF090013DE0FEA3E0CD
:104CF800FF900142E02FF0900141E03EF09001303A
:0E4D0800E004F0700690012FE004F0024C343D
:014D1600227A
:106A8D00900353EEF0A3EFF0900357EAF0A3EBF071
:086A9D00900355ECF0A3EDF0AD
:106AA500900353E0FAA3E0FB24FFFFEA34FFFEC0A6
:106AB50006C007ED24FFFDEC34FFFCEB2401FBE4ED
:106AC5003AFAA3E0FEA3E02401FFE43E90006BF058
:106AD500A3EFF0D007D00612714EE4FB1279DA0B62
:106AE500EBB409F8900354E024FCFF900353E03421
:106AF500FFFEC007900355E0FCA3E0FD900354E0C2
:106B05002404FB900353E03400FA900355E0FFA3FF
:106B1500E090006BCFF0A3EFF0D00712714EE4FBCD
:106B25001279DA0BEBB409F8900356E024FCFD90DA
:106B35000355E034FFFC900353E0FAA3E0FBA3E028
:106B4500FEA3E02404FFE43E90006BF0A3EFF09079
:0F6B55000353127149E4FB1279DA0BEBB409F820
:016B6400220E
:106F5F00900339EAF0A3EBF0900335EEF0A3EFF0D6
:106F6F00A3ECF0A3EDF0C007A3E0FAA3E0FB9003BE
:106F7F0037E0FFA3E0900185CFF0A3EFF0D0071229
:106F8F00493B900335E0FAA3E0FBFFAE02C007A335
:106F9F00E0FCA3E0FD90033BE0FFA3E0900185CF71
:106FAF00F0A3EFF0D00712493B90033BE0FCA3E0C6
:106FBF00FD900339E0FAA3E0FBA3E0FFA3E090010B
:106FCF0085CFF0A3EFF0900335E0FEA3E0FF124969
:106FDF003B900339E0FAA3E0FBFFAE02C00790033A
:106FEF0037E0FCA3E0FD90033BE0FFA3E0900185B9
:0A6FFF00CFF0A3EFF0D00702493BEA
:0E4F00009002FCEEF0A3EFF0A3ECF0A3EDF0B6
:104F0E00E4A3F0A3F0EBFF7E00A3EEF0A3EFF025F9
:104F1E00E0FFEE33FEC374039F900305F0E49E9012
:104F2E000304F0900302E0FEA3E0FF900300E0FC18
:104F3E00A3E0FDD39FEE6480F8EC648098400302FA
:104F4E0050D79002FDE02DFF9002FCE03C12785D00
:104F5E00900302E0FEA3E0FF9002FDE02FFF90021F
:104F6E00FCE03E900300127860900302E0FEA3E0A6
:104F7E00FF9002FDE02FFF9002FCE03EFE9003004A
:104F8E00E0FCA3E0FD9002FFE02DFD9002FEE03C70
:104F9E00FC127873900300E0FEA3E0FF9002FDE0A8
:104FAE002FFF9002FCE03EFE900302E0FCA3E0FD2A
:104FBE009002FFE02DFD9002FEE03CFC1278739013
:104FCE000300E0FEA3E0FFC39002FDE09FFF90020E
:104FDE00FCE09EFE900302E0FCA3E0FD9002FFE0E9
:104FEE002DFD9002FEE03CFC127873900302E0FE71
:104FFE00A3E0FFC39002FDE09FFF9002FCE09EFE47
:10500E00900300E0FCA3E0FD9002FFE02DFD900276
:10501E00FEE03CFC127873900300E0FEA3E0FFC3B9
:10502E009002FDE09FFF9002FCE09E12785D9003DF
:10503E0002E0FEA3E0FFC39002FDE09FFF9002FCA2
:10504E00E09EFE900300127861900301E004F07080
:10505E0006900300E004F0C3900304E064809480A3
:10506E005025900300E0FEA3E07802C333CE33CE8A
:10507E00D8F92406FFE43EFE900305E02FF09003DE
:10508E0004E03EF0024F31900302E0FEA3E0FFC3C6
:10509E00900301E09FFF900300E09EFEEF7802C3B5
:1050AE0033CE33CED8F9240AFFE43EFE900305E05A
:1050BE002FF0900304E03EF0900303E024FFF09005
:0950CE000302E034FFF0024F314F
:0150D70022B6
:1057750090000FEEF0A3EFF0900013EBF090001106
:05578500ECF0A3EDF0C3
:10578A00900018ECF0A3EDF0900014E0FF1313134F
:10579A00541FFEEF540760047F0180027F00EE2F42
:1057AA00FF900014E0C313FEEF8EF0A490001AF0ED
:1057BA00900013E024E0F0E4F990001AE0FFE9C356
:1057CA009F40030258EC900014E0FFB40C129000C2
:1057DA0013E075F00CA42433F582E5F0340080312F
:1057EA00EFB41012900013E075F010A424A7F5820C
:1057FA00E5F03404801B900014E06418600302583A
:10580A00EC900013E075F024A42497F582E5F034B7
:10581A000AF583E58229F582E43583F583E49390DA
:10582A000016F0E4900017F0900016E030E71390AD
:10583A00000FE0FEA3E0FFA3E0FCA3E0FD9002F866
:10584A008017900015E0701490000FE0FEA3E0FFAF
:10585A00A3E0FCA3E0FD9002FA1277D2900016E0D2
:10586A0025E0F0900012E004F07006900011E004C8
:10587A00F09002F3E0FEA3E0FF900011E0FCA3E049
:10588A00FDC39FEC9E505B900018E0FEA3E0FFC3AF
:10589A00ED9FFDEC9EFC900014E07A00B50530EA1D
:1058AA00B5042C900011EEF0A3EFF0900010E00484
:1058BA00F0700690000FE004F09002F1E0FEA3E021
:1058CA00FFC3900010E09F90000FE09E40102290CE
:1058DA000017E004F0E0C3940850030258320902AA
:0258EA0057C3A2
:0158EC002299
:07773800C3EF9E14FD7F0A60
:08773F00900359EFF0A3EDF0F7
:10774700A31234520000000190035AE0FF14F0EF37
:107757006020A3E0F8A3E0F9A3E0FAA3E0FB90031D
:1077670059E0FFE4FCFDFE1232EF90035B12344652
:1077770080D690035BE0FCA3E0FDA3E0FEA3E0FF5F
:0177870022DF
:0E69B1009002BEEEF0A3EFF0A3ECF0A3EDF029
:1069BF00E49002CAF09002C8F09002C6E0FF900285
:1069CF00C8E0FEC39F4003026A8C127738A804A95F
:1069DF0005AA06AB079002C2E0FCA3E0FDA3E0FE10
:1069EF00A3E0FF12337AE47B0AFAF9F812337A90B4
:1069FF0002C9EBF0A3E070459002C6E014FF9002CD
:106A0F00C8E0FEC39F5036A3E0702C9002C7E0FB96
:106A1F00C3138EF0A4FF9002BFE02FFF9002BEE0E1
:106A2F0035F0FE9002C0E0FCA3E0FD900014EBF007
:106A3F00E4A3F07B20803A9002CA7401F09002C761
:106A4F00E0FAC313FFA3E0FEEF8EF0A4FF9002BFA6
:106A5F00E02FFF9002BEE035F0FE9002C0E0FCA3F5
:106A6F00E0FD9002C9E02430FB900014EAF0E4A3AB
:0D6A7F00F01257759002C8E004F00269C8DB
:016A8C0022E7
:0E61B3009002A2EEF0A3EFF0A3ECF0A3EDF04B
:1061C100E49002AFF09002ADF09002AAE0FF9002DD
:1061D100ADE0FEC39F40030262DB127738A804A939
:1061E10005AA06AB079002A6E0FCA3E0FDA3E0FE32
:1061F100A3E0FF12337AE47B0AFAF9F812337A90BA
:1062010002AEEBF0A3E060030262929002AAE014F6
:10621100FF9002ADE0FEC39F5077A3E0706D900246
:10622100ACE0F99002AB30E72BE0FBC3138EF0A496
:10623100FF9002A3E02FFF9002A2E035F0FE900252
:10624100A4E0FCA3E0FD900014EBF0E95401A3F0FD
:106251007B30807AE0FBC313FF9002ADE0FEEF8E4E
:10626100F0A4FF9002A3E02FFF9002A2E035F0FE20
:106271009002A4E0FCA3E0FD900014EBF09002ACCE
:10628100E05401900015F07B2080439002AF74012F
:10629100F09002ABE0FAC313FF9002ADE0FEEF8E87
:1062A100F0A4FF9002A3E02FFF9002A2E035F0FEE0
:1062B1009002A4E0FCA3E0FD9002AEE02430FB904C
:1062C1000014EAF09002ACE05401900015F012576E
:0A62D100759002ADE004F00261CA0E
:0162DB0022A0
:1068CC00900002EEF0A3EFF0A3ECF0A3EDF0A3EA3E
:0468DC00F0A3EBF04A
:1068E000900002E0FEA3E0FF90000EF0900007E0B1
:1068F0002FF0900006E03EF0900004E0FEA3E0FFE1
:10690000900009E02FF0900008E03EF090000BE0CE
:10691000FBA3E0FAA3E0F912319FFFD3947E40037A
:106920000269B0EFC3942050030269B0900006E002
:10693000FEA3E0FF900003E09F900002E09E401F56
:1069400090000EE0FF900002E4F0A3EFF090000A48
:10695000E0FF900005E02FF0900004E03400F0909C
:106960000008E0FEA3E0FF900004E0FCA3E0FDC30C
:106970009FEC9E503B900002E0FEA3E0FF12319F8F
:10698000FB90000AE0900014F0E4A3F01257759019
:10699000000AE0C313FF900003E02FF0900002E034
:1069A0003400F090000CE475F00112325E02690CC4
:0169B00022C4
:10608800900306EEF0A3EFF0A3ECF0A3EDF0A3EB82
:07609800F0A3EAF0A3E9F018
:10609F0090030AE0FBA3E0FAA3E0F912319F70032B
:1060AF000261B2900306E0FAA3E0FBFFAE02C00666
:1060BF00C007A3E0FCA3E0FDEB241FFBE43AFA903A
:1060CF000308E0FEA3E0241CFFE43E90006BF0A366
:1060DF00EFF0D007D00612714EE490030DF090034D
:1060EF000DE0FFC39414400302619790030AE0FB95
:1060FF00A3E0FAA3E0F912319FFE75F076EFA42426
:10610F00F3F582E5F03417F583E4936E7071900028
:10611F00011231B8FF90030DE075F076A424F4F569
:10612F0082E5F03417F583E4936F7053FB90030D02
:10613F00E075F076A424F5F582E5F03417F583E5E4
:10614F00822BF582E43583F583E493FF90030EE40D
:10615F00F0A3EFF0E4FA90030FE030E7059002F8B8
:10616F0080039002FA1279DD90030FE025E0F090A2
:10617F00030EE033F00AEAB408DC0BEBB474AE9014
:10618F00030DE004F00260ED90030BE475F00212D2
:10619F00325E900307E02420F0900306E03400F015
:0361AF0002609FEC
:0161B20022CA
:105F5B00900213EEF0A3EFF0A3ECF0A3EDF0A3EAA5
:045F6B00F0A3EBF0C4
:105F6F00E490021EF0A3F0A3123452000000009040
:105F7F00022412345200000000900215E0FCA3E04E
:105F8F00FDA3E0FEA3E0FF900213E0FAA3E02FFFD2
:105F9F00EA3ECF24FFFBEF34FFFA900219E0FEA395
:105FAF00E0FF900215E0F8A3E02FFFE83ECF24FFBB
:105FBF00CF34FF90006BF0A3EFF0900213127149F2
:105FCF00900219E0FCA3E0FD900217E0FEA3E0FFB2
:105FDF001231F7EF25E0FFEE33FEE4FCFD900224D3
:105FEF00123446900220A3A3E0FEA3E0FDAC0624EA
:105FFF0001FFE43CFE90021BE0FBA3E0FAA3E0F9F3
:10600F008F828E831231B8FF90021EE4F0A3EFF05F
:10601F00E0F8E4F0E890021EF08D828C831231B824
:10602F00FF90021EE0FEA3E04FFF90021EEEF0FE77
:10603F00A3EFF01279E2A3E0FCA3E0FDA3E0FEA33F
:10604F00E02402FFE43EFEE43DFDE43CFC90022030
:10605F00123446900224E0FCA3E0FDA3E0FEA3E08F
:10606F00FF900220E0F8A3E0F9A3E0FAA3E0FBC35E
:08607F0012340C5003025FF221
:0160870022F6
:0B7B2300C2A1D2A3D2A2D2A1C2A32211
:107A8900C2A1E4FEEFC4131313540124FF92A2EF21
:0C7A990025E0FFC2A1D2A10EEEB408E867
:017AA50022BE
:10791500E490036FF0A3F0C2A1FDFC900370E02595
:10792500E0F090036FE033F0D2A1C2A1A2A0E4334E
:10793500FFE0F0A3E04FF00DBD00010CED640C4C31
:0A79450070D990036FE0FEA3E0FF8D
:01794F002215
:07547200EEF0A3EFF07F90C4
:02547900AB077F
:10547B00C2A1C2A3E490019BF0AF03127A89900101
:10548B009C7406F090019CE014F0E070F7D2A10040
:10549B0000C2A1000012791590019BE025E0249D2C
:1054AB00F582E43401F583EEF0A3EFF090019BE07D
:1054BB0004F0E0C3940A40C1D2A3E490019BF090A6
:1054CB00019BE0FFC394094003025580EF04A3F056
:1054DB0090019CE0FFC3940A4003025577EF25E04F
:1054EB00249DF582E43401F583E0FEA3E0FF9001F7
:1054FB009BE0FB25E0249DF582E43401F583E0FC81
:10550B00A3E0C39FEC9E505BEB25E0249DF582E46A
:10551B003401F583E0FEA3E0FFE4FCFD9001B11242
:10552B00344690019CE0FA25E0249DF582E4340199
:10553B00F583E0FEA3E0FFEB25E0249DF582E43448
:10554B0001F583EEF0A3EFF09001B1A3A3E0FEA36E
:10555B00E0FFEA25E0249DF582E43401F583EEF0CB
:10556B00A3EFF090019CE004F00254DB90019BE070
:10557B0004F00254CA9001B11234520000000090A2
:10558B00019B7402F09001B1E0F8A3E0F9A3E0FAFB
:10559B00A3E0FB90019BE025E0249DF582E4340120
:1055AB00F583E0FEA3E0FFE4FCFDEB2FFFEA3EFEFC
:1055BB00ED39FDEC38FC9001B112344690019BE0C3
:1055CB0004F0E0B408BF9001B1E0FCA3E0FDA3E060
:1055DB00FEA3E0FFE47B06FAF9F81278199001B10B
:0D55EB001234469001B1A3A3E0FEA3E0FF3F
:0155F8002290
:1062DC00127B237FD01254799003101254729003C6
:1062EC0016EEF0A3EFF07FD01254799003121254F3
:1062FC0072AD07AC06900312E0FEA3E0FF90031012
:10630C00E0FAA3E0FBD39FEA9E400AA3A3EB9FFF16
:10631C00EA9EA38017900310E0FEA3E0FFC3900356
:10632C0013E09FFF900312E09E900314F0A3EFF094
:10633C00900316E0FEA3E0FFD39DEE9C4007EF9D7B
:10634C00FFEE9C800E900316E0FEA3E0FFC3ED9FD2
:10635C00FFEC9EA3F0A3EFF0D3900315E0943290E2
:10636C000314E09400500E900319E094329003183B
:10637C00E0940040037F0022900312E0FEA3E0FFB4
:10638C00900311E02FFF900310E03EC313FEEF13B8
:10639C00FF9002CBEEF0A3EFF0900317E02DFF90EF
:1063AC000316E03CC313FEEF13FF9002CDEEF0A3F7
:1063BC00EFF09002CCE054F0F09002CEE054F0F00C
:1063CC00C39002CCE094649002CBE09400400FD3D5
:1063DC009002CEE094D89002CDE0940E40037F0062
:0363EC00227F010C
:0163EF00228B
:105E1B00E490035FF01262DCEF7003025F509002BC
:105E2B00F7E06003025EB69002CBE0FEA3E0FFE476
:105E3B00FCFD9002CF1234469002CFE0FCA3E0FDB4
:105E4B00A3E0FEA3E02406FFEE34FFFEED34FFFDDE
:105E5B00EC34FFFCE47BB4FAF9F81232EFE47B7418
:105E6B007A0EF9F812337A9002CF1234469002CDA3
:105E7B00E0FEA3E0FFE4FCFD9002D3123446900257
:105E8B00D3E0FCA3E0FDA3E0FEA3E024A2FFEE34ED
:105E9B00FEFEED34FFFDEC34FFFCE47BFAFAF9F87F
:105EAB001232EFE47BAC7A0D025F3D9002CDE0FE47
:105EBB00A3E0FFC3E49FFF74109EFEE4FCFDA3125E
:105ECB0034469002CFE0FCA3E0FDA3E0FEA3E02468
:105EDB00A2FFEE34FEFEED34FFFDEC34FFFCE47B61
:105EEB00FAFAF9F81232EFE47BAC7A0DF9F81233C7
:105EFB007A9002CF1234469002CBE0FEA3E0FFE48F
:105F0B00FCFD9002D31234469002D3E0FCA3E0FDDB
:105F1B00A3E0FEA3E02406FFEE34FFFEED34FFFD0D
:105F2B00EC34FFFCE47BB4FAF9F81232EFE47B7447
:105F3B007A0EF9F812337A9002D312344690035F3B
:0F5F4B007401F08001E49002D7F090035FE0FF53
:015F5A002224
:06750D0090033D1234461C
:1075130090033DE0FCA3E0FDA3E0FEA3E0FF7813AE
:10752300123433A3EEF0A3EFF090033DE0FCA3E0AD
:10753300FDA3E0FEA3E0FF780A123433EF543FFECD
:10754300E4900343F0A3CEF090033DE0FCA3E0FD01
:10755300A3E0FEA3E0FF7803123433EF541FFFE4EC
:10756300AD07FC900343E0FEA3E07805C333CE33BD
:10757300CED8F9FBAA06900342E033333354F84ADA
:09758300FEEBFFEE4CFEEF4DFFA4
:01758C0022DC
:04789D00AD07AC0681
:1078A1007BE77A187E00ED54037803C333CE33CEE1
:1078B100D8F9FFEA4EFAEB4FFB7E00ED541C780637
:1078C100C333CE33CED8F9FFEA4EFAEB4FFBED547A
:0778D100E04AFAEBAE02FFF2
:0178D800228D
:08778800900020EFF0A3EDF0EA
:10779000A312345200000001900021E0FF14F0EF2A
:1077A0006020A3E0F8A3E0F9A3E0FAA3E0FB9000D7
:1077B00020E0FFE4FCFDFE1232EF9000221234467E
:1077C00080D6900022E0FCA3E0FDA3E0FEA3E0FF52
:0177D0002296
:10767B00900345123446900349E0FCA3E0FDA3E0E0
:10768B00FEA3E0FF900345E0F8A3E0F9A3E0FAA323
:10769B00E0FBD3123422401D900349E0F8A3E0F93C
:1076AB00A3E0FAA3E0FB900345E0FCA3E0FDA3E01D
:1076BB00FEA3E0801A900345E0F8A3E0F9A3E0FAFB
:1076CB00A3E0FBA3E0FCA3E0FDA3E0FEA3E0C39BD0
:0B76DB00FFEE9AFEED99FDEC98FC22FA
:0878D900900368EEF0A3EFF04C
:1078E1009002F8E0FFA3E090036ACFF0A3EFF0AFBE
:1078F100039002F8EAF0A3EFF0900368E0FEA3E042
:10790100FF12787390036AE0FFA3E09002F8CFF0D2
:03791100A3EFF0F1
:017914002250
:1065F400900271EEF0A3EFF0A3ECF0A3EDF0A3EAA8
:04660400F0A3EBF024
:10660800E490027CF0A3F0900275E0FEA3E0FFC3E3
:1066180090027DE09F90027CE09E40030266EAE4DF
:1066280090027EF0A3F0900277E0FEA3E0FFC39013
:10663800027FE09F90027EE09E40030266D69002B1
:106648007CE0FEA3E0FF900272E02FFF900271E071
:106658003EFE90027EE0FCA3E0FD900274E02DFD7A
:10666800900273E03CFC126D07900280EEF0A3EFFD
:10667800F0900279E0FCA3E0FDA3E0FB1267DF9055
:106688000280EEF0A3EFF090027CE0FEA3E0FF9022
:106698000272E02FFF900271E03EFE90027EE0FC65
:1066A800A3E0FD900274E02DFD900273E03CFC90A5
:1066B8000280E0FAA3E0FB1277D790027FE004F0B3
:1066C800600302662E90027EE004F002662E9002BD
:1066D8007DE004F0600302660F90027CE004F002A3
:0266E800660F3B
:0166EA00228D
:1066EB00900053ECF0A3EDF0A3EAF0A3EBF09000D5
:0666FB0051EEF0A3EFF0E8
:10670100C39401EE94004013E024FFFE900051E099
:1067110034FF90005BF0A3CEF0800F900051E0FFBA
:10672100A3E090005BCFF0A3EFF0900053E0FEA355
:10673100E0FFC39401EE9400400CEF24FFFFEE3420
:10674100FF90005D800B900053E0FFA3E090005D9F
:10675100CFF0A3EFF090005DE0FFA3E0900057CFF2
:10676100F0A3EFF0900054E02402FF900053E034D6
:1067710000FEC3900058E09F900057E09E505E904D
:10678100005BE0FFA3E0900059CFF0A3EFF0900091
:1067910052E02402FD900051E03400FC900059E0E9
:1067A100FEA3E0FFC39DEE9C5023900057E0FCA3A5
:1067B100E0FD900055E0FAA3E0FB1277D790005A74
:1067C100E004F070C9900059E004F080C1900058D5
:0D67D100E004F0708F900057E004F0808726
:0167DE002298
:0E474800900143EEF0A3EFF0A3ECF0A3EDF030
:10475600E490014FF0A3F0A3F0A3F0900143E0FE34
:10476600A3E0FFC3EB9FFFEA9E900153F0A3EFF097
:10477600900145E0FAA3E0FBC390014AE09BFE905E
:104786000149E09A900155F0A3CEF0900143E0FF75
:10479600A3E090015DCFF0A3EFF0A3EAF0A3EBF066
:1047A600900153E0FEA3E0FFD39400EE6480948072
:1047B600400A900159E4F0A304F08021EF4E7008FE
:1047C600900159F0A3F0801574FF900159F0A3F001
:1047D600C3E49FFFE49E900153F0A3EFF0900155D0
:1047E600E0FEA3E0FFD39400EE64809480400A903C
:1047F600015BE4F0A304F08021EF4E700890015BAA
:10480600F0A3F0801574FF90015BF0A3F0C3E49F62
:10481600FFE49E900155F0A3EFF0900155E0FEA352
:10482600E0FF900153E0FCA3E0FDD39FEE6480F827
:10483600EC6480989001574007ECF0A3EDF08005FA
:10484600EEF0A3EFF0E490014DF0A3F0900158E0F4
:104856002401FF900157E03400FED390014EE09F03
:1048660090014DE09E400302493A90015DE0FEA3AF
:10487600E0FFA3E0FCA3E0FD90014BE0FAA3E0FB20
:104886001277D7900153E0FEA3E0FF900150E02F8E
:10489600F090014FE03EF0900155E0FEA3E0FF905E
:1048A6000152E02FF0900151E03EF0900157E0FEFA
:1048B600A3E0FF90014FE0FCA3E0FDD39FEE6480F0
:1048C600F8EC6480984020ED9FFFEC9E90014FF03D
:1048D600A3EFF0900159E0FEA3E0FF90015EE02F08
:1048E600F090015DE03EF0900157E0FEA3E0FF90FE
:1048F6000151E0FCA3E0FDD39FEE6480F8EC6480F8
:10490600984020ED9FFFEC9E900151F0A3EFF090B0
:10491600015BE0FEA3E0FF900160E02FF090015FF5
:10492600E03EF090014EE004F0700690014DE00488
:04493600F0024852F1
:01493A00225A
:103767009000E7EEF0A3EFF0A3ECF0A3EDF0A3EAEF
:04377700F0A3EBF0E0
:10377B00E49000F4F0A3F0A3F0A3F09000EFE0FFCF
:10378B007E00C39000E8E09F9000E7E09E500302AC
:10379B0039D29000ECE09F9000EBE09E5003023991
:1037AB00D29000E9E0FCA3E0FD9FEC9E50030239B0
:1037BB00D29000EEE09F9000EDE09E50030239D2D4
:1037CB009000EFE070139000E7E0FEA3E0FF9000A5
:1037DB00F0E0FAA3E0FB0277D79000E7E0FAA3E072
:1037EB00FBC39000ECE09BFE9000EBE09A9000F89E
:1037FB00F0A3CEF09000E9E0FEA3E0FFC39000EE53
:10380B00E09FFF9000EDE09E9000FAF0A3EFF090A8
:10381B000102EAF0A3EBF09000E9A3E0FF900104B2
:10382B00EEF0A3EFF09000F8E0FEA3E0FFD39400DE
:10383B00EE64809480400A9000FEE4F0A304F080D4
:10384B0021EF4E70089000FEF0A3F0801574FF90EE
:10385B0000FEF0A3F0C3E49FFFE49E9000F8F0A3FA
:10386B00EFF09000FAE0FEA3E0FFD39400EE64804B
:10387B009480400A900100E4F0A304F08021EF4E05
:10388B007008900100F0A3F0801574FF900100F018
:10389B00A3F0C3E49FFFE49E9000FAF0A3EFF09037
:1038AB0000FAE0FEA3E0FF9000F8E0FCA3E0FDD3FC
:1038BB009FEE6480F8EC6480989000FC4007ECF07D
:1038CB00A3EDF08005EEF0A3EFF0E49000F2F0A38F
:1038DB00F09000FDE02401FF9000FCE03400FED3EB
:1038EB009000F3E09F9000F2E09E40030239D290EB
:1038FB000104E0FCA3E0FD9000EFE0FB7A00A3E005
:10390B00FFA3E09001D4CFF0A3EFF0900102E0FE13
:10391B00A3E0FF122A9A9000F8E0FEA3E0FF9000CC
:10392B00F5E02FF09000F4E03EF09000FAE0FEA3FB
:10393B00E0FF9000F7E02FF09000F6E03EF09000F3
:10394B00FCE0FEA3E0FF9000F4E0FCA3E0FDD39FBE
:10395B00EE6480F8EC6480984020ED9FFFEC9E9025
:10396B0000F4F0A3EFF09000FEE0FEA3E0FF900167
:10397B0003E02FF0900102E03EF09000FCE0FEA38C
:10398B00E0FF9000F6E0FCA3E0FDD39FEE6480F82F
:10399B00EC6480984020ED9FFFEC9E9000F6F0A326
:1039AB00EFF0900100E0FEA3E0FF900105E02FF0A7
:1039BB00900104E03EF09000F3E004F070069000FC
:0739CB00F2E004F00238DC19
:0139D20022D2
:0E26D000900106EEF0A3EFF0A3ECF0A3EDF006
:1026DE00E4900113F0A3F0A3F0A3F0900106E0FE46
:1026EE00A3E0FFC3EB9FFFEA9E900117F0A3EFF06C
:1026FE00900108E0FAA3E0FBC390010DE09BFE9071
:10270E00010CE09A900119F0A3CEF0900106E0FFC3
:10271E00A3E0900121CFF0A3EFF0A3EAF0A3EBF03A
:10272E00900117E0FEA3E0FFD39400EE6480948046
:10273E00400A90011DE4F0A304F08021EF4E7008D2
:10274E0090011DF0A3F0801574FF90011DF0A3F011
:10275E00C3E49FFFE49E900117F0A3EFF0900119E0
:10276E00E0FEA3E0FFD39400EE64809480400A90D4
:10277E00011FE4F0A304F08021EF4E700890011FBA
:10278E00F0A3F0801574FF90011FF0A3F0C3E49F37
:10279E00FFE49E900119F0A3EFF0900119E0FEA363
:1027AE00E0FF900117E0FCA3E0FDD39FEE6480F8FC
:1027BE00EC64809890011B4007ECF0A3EDF08005CF
:1027CE00EEF0A3EFF0E4900111F0A3F090011CE005
:1027DE002401FF90011BE03400FED3900112E09F14
:1027EE00900111E09E4003022A9990010EE07019AB
:1027FE00900121E0FEA3E0FFA3E0FCA3E0FD900129
:10280E000FE0FAA3E0FB1277D790010EE0640160AF
:10281E00030228A4900121E0FEA3E0FFA3E0FCA3A5
:10282E00E0FD90010FE0FAA3E0FB1277D7900122B2
:10283E00E02401FF900121E03400FE900123E0FC32
:10284E00A3E0FD90010FE0FAA3E0FB1277D7900111
:10285E0021E0FEA3E0FF900124E02401FD9001237E
:10286E00E03400FC90010FE0FAA3E0FB1277D79062
:10287E000122E02401FF900121E03400FE900124AA
:10288E00E02401FD900123E03400FC90010FE0FAFA
:10289E00A3E0FB1277D790010EE0640260030229D9
:1028AE00E8900121E0FEA3E0FFA3E0FCA3E0FD9091
:1028BE00010FE0FAA3E0FB1277D7900122E024018A
:1028CE00FF900121E03400FE900123E0FCA3E0FD27
:1028DE0090010FE0FAA3E0FB1277D7900121E0FE02
:1028EE00A3E0FF900124E02401FD900123E03400D9
:1028FE00FC90010FE0FAA3E0FB1277D7900122E0E3
:10290E002401FF900121E03400FE900124E0240117
:10291E00FD900123E03400FC90010FE0FAA3E0FBF0
:10292E001277D7900122E024FFFF900121E034FFBF
:10293E00FE900124E02401FD900123E03400FC9080
:10294E00010FE0FAA3E0FB1277D7900122E02401F9
:10295E00FF900121E03400FE900124E024FFFD9061
:10296E000123E034FFFC90010FE0FAA3E0FB1277A5
:10297E00D7900122E024FFFF900121E034FFFE906A
:10298E000124E024FFFD900123E034FFFC90010FB1
:10299E00E0FAA3E0FB1277D7900122E024FFFF902C
:1029AE000121E034FFFE900123E0FCA3E0FD900145
:1029BE000FE0FAA3E0FB1277D7900121E0FEA3E02F
:1029CE00FF900124E024FFFD900123E034FFFC90F2
:1029DE00010FE0FAA3E0FB1277D7900117E0FEA3F8
:1029EE00E0FF900114E02FF0900113E03EF0900113
:1029FE0019E0FEA3E0FF900116E02FF0900115E024
:102A0E003EF090011BE0FEA3E0FF900113E0FCA35B
:102A1E00E0FDD39FEE6480F8EC6480984020ED9F3B
:102A2E00FFEC9E900113F0A3EFF090011DE0FEA3CA
:102A3E00E0FF900122E02FF0900121E03EF09001A6
:102A4E001BE0FEA3E0FF900115E0FCA3E0FDD39F89
:102A5E00EE6480F8EC6480984020ED9FFFEC9E9031
:102A6E000115F0A3EFF090011FE0FEA3E0FF90012F
:102A7E0024E02FF0900123E03EF0900112E004F0EC
:0B2A8E007006900111E004F00227DA4E
:012A9900221A
:1070B300FAE0FFA3E0900012CFF0A3EFF09002827A
:0570C300E0FEA3E0FF68
:1070C80090000CEEF0A3EFF0A3ECF0A3EDF0A3EA30
:1070D800F0A3EBF04A60699002F1E0FCA3E0FD90B8
:1070E800000CE0FAA3E0FBD39DEA9C50539002F316
:1070F800E0FEA3E0FF90000EE0FCA3E0FD9FEC9E05
:10710800503EAF03AE02C006C007900010E0FEA3D9
:10711800E0FF90000EE0F8A3E02FFFE83ECF24FF49
:10712800CF34FF90001CF0A3EFF0900012E0FFA313
:10713800E090001ECFF0A3EFF0D007D006126C3716
:017148002224
:10758D0090000CEEF0A3EFF0A3ECF0A3EDF0EB4ABE
:10759D0060689002F1E0FEA3E0FFD390000DE09F44
:1075AD0090000CE09E50539002F3E0FEA3E0FF909C
:1075BD00000EE0FCA3E0FD9FEC9E503EAE02AF033B
:1075CD0090000CE0FAA3E02FFFEA3ECF24FFFBEF83
:1075DD0034FFFAA3E0FFA3E090001CCFF0A3EFF07F
:1075ED00900012E0FFA3E090001ECFF0A3EFF0900B
:0B75FD00000CE0FEA3E0FF126C372240
:105CD4009002B0EEF0A3EFF0A3ECF0A3EDF0A3EA92
:045CE400F0A3EBF04E
:105CE800A3E07002A3E07003025E1A9002B4E070B1
:105CF80002A3E07003025E1A9002BBE020E00302F8
:105D08005D97E4A3F0A3F09002B4E0FEA3E0FF9057
:105D180002BCE0FCA3E0FDC39FEC9E4003025E1AB8
:105D28009002B1E02DFF9002B0E03CFEC006C00733
:105D38009002B2E0FCA3E0FD9002B7E024FFFB90E4
:105D480002B6E034FFFAC002C0039002BDE025E0CD
:105D5800FF9002BCE033FE9002B8E0FBA3E0FAA398
:105D6800E0F98F828E8312328AFF900012E5F0F0FC
:105D7800A3EFF0D003D002D007D0061270C890026B
:105D8800BDE004F070819002BCE004F0025D0FE415
:105D98009002BCF0A3F09002B6E0FEA3E0FF9002F0
:105DA800BCE0FCA3E0FDC39FEC9E50669002B3E00C
:105DB8002DFD9002B2E03CFC9002B5E024FFFB9080
:105DC80002B4E034FFFAC002C0039002BDE025E04F
:105DD800FF9002BCE033FE9002B8E0FBA3E0FAA318
:105DE800E0F98F828E8312328AFF900012E5F0F07C
:105DF800A3EFF09002B0E0FEA3E0FFD003D00212C0
:105E0800758D9002BDE004F0708C9002BCE004F047
:025E1800808484
:015E1A002265
:064D170090016112344618
:104D1D00E490017DF0A3F0900161E0FCA3E0FDA320
:104D2D00E0FEA3E0FF781012343390016EEFF0FB3C
:104D3D00900161E0FCA3E0FDA3E0FEA3E0FF780895
:104D4D0012343390016FEFF0FA900161A3A3A3E049
:104D5D00FFA907900170E9F0900165E0FCA3E0FD6B
:104D6D00A3E0FEA3E0FF7810123433EBFDC3EF9DFB
:104D7D00FFEE9400900171F0A3EFF0900165E0FC5F
:104D8D00A3E0FDA3E0FEA3E0FF7808123433EAFDB3
:104D9D00C3EF9DFEE49400900173F0A3CEF090015B
:104DAD0065A3A3A3E0FFE9FDC3EF9DFEE49400908E
:104DBD000175F0A3CEF0E490017DF0A3F090016CAD
:104DCD00E0FEA3E0FFC390017EE09F90017DE09E99
:104DDD004003024EFFE0FAA3E0FB900171E0FEA359
:104DED00E0FFAD03AC021231F790016CE0FCA3E0E3
:104DFD00FD123209A3E07C002FFFEC3E900177F00D
:104E0D00A3EFF0900173E0FEA3E0FFAD03AC02123F
:104E1D0031F790016CE0FCA3E0FD12320990016FB7
:104E2D00E07C002FFFEC3E900179F0A3EFF09001B4
:104E3D0075E0FEA3E0FFAD03AC021231F790016CFB
:104E4D00E0FCA3E0FD123209900170E07C002FFF21
:104E5D00EC3E90017BF0A3EFF0900177E0FEA3E034
:104E6D007803CEC313CE13D8F9F0EE900177F090FE
:104E7D000179E0FEA3E07802CEC313CE13D8F9F08A
:104E8D00EE900179F090017BE0FEA3E07803CEC3B4
:104E9D0013CE13D8F9F0EE90017BF0900179E0FE7E
:104EAD00A3E07805C333CE33CED8F9FDAC0690011F
:104EBD0078E033333354F84CFEEDFF90017BE04E38
:104ECD00FCA3E04FFDEB25E0FFEA33FE900169E026
:104EDD00FBA3E0FAA3E0F98F828E83EC8DF0123202
:104EED00C290017EE004F0700690017DE004F002B6
:024EFD004DCA9C
:014EFF002290
:1063F0009001E6EEF0A3EFF0A3ECF0A3EDF0A3EA3A
:04640000F0A3EBF02A
:106404009001F2E0FCA3E0FDA3E0FEA3E0FF900115
:10641400651234469001FAE0F9A3E0FAA3E0900192
:1064240069C9F0A3EAF0A3E9F09001EAE0FFA3E070
:1064340090016CCFF0A3EFF09001EEE0FCA3E0FD3F
:10644400A3E0FEA3E0FF124D17E49001F6F0A3F0E1
:106454009001EAE0FEA3E0FFC39001F7E09F900102
:10646400F6E09E40030264FBE49001F8F0A3F09090
:1064740001ECE0FEA3E0FFC39001F9E09F9001F876
:10648400E09E505F9001F6E0FAA3E0FB9001E7E0A4
:106494002BFF9001E6E03AFEC006C0079001F8E049
:1064A400FEA3E0FF9001E9E02FFD9001E8E03EFC4F
:1064B400EB25E0FFEA33FE9001FAE0FBA3E0FAA348
:1064C400E0F98F828E8312328AFBAAF0D007D006BD
:1064D4001277D79001F9E004F070949001F8E00489
:1064E400F0808C9001F7E004F060030264549001A2
:0764F400F6E004F00264541D
:0164FB00227E
:106DD60090031AEEF0A3EFF0A3ECF0A3EDF0A3EA14
:106DE600F0A3EBF0C007900322E0FFA3E0900012AF
:106DF600CFF0A3EFF0D00712758D900320E0FEA32D
:106E0600E0FF90031DE02FFF90031CE03ECF24FF20
:106E1600FDEF34FFFC90031EE0FAA3E0FB90032293
:106E2600E0FFA3E0900012CFF0A3EFF090031AE08A
:106E3600FEA3E0FF12758D90031CE0FCA3E0FD901D
:106E46000320E0FAA3E0FBA3E0FFA3E0900012CF4B
:106E5600F0A3EFF090031A1270C390031EE0FEA396
:106E6600E0FF90031BE02FFF90031AE03ECF24FFC4
:106E7600CF34FFFEC00790031CE0FCA3E0FD9003A7
:106E860020E0FAA3E0FBA3E0FFA3E0900012CFF01E
:086E9600A3EFF0D0070270C861
:101C1900900282EEF0A3EFF0A3ECF0A3EDF0A3EABB
:041C2900F0A3EBF049
:101C2D00E4900290F0A3F0900288E0FEA3E030E093
:101C3D000A2401FFE43E900290800B900288E0FFA1
:101C4D00A3E0900290CFF0A3EFF090028BE0900212
:101C5D008A7003021E78E0F975F002A4FFC39002AA
:101C6D0087E09FFB900286E095F0FAE9FF900283F2
:101C7D00E02FFF900282E03400FEC007900284E066
:101C8D00FCA3E0FD900290E0C313FFA3E0139000CE
:101C9D0012CFF0A3EFF090028CE0FFA3E0900014C0
:101CAD00CFF0A3EFF0D00712730890028AE0F97518
:101CBD00F002A4FFC3900287E09FFB900286E0959F
:101CCD00F0FAE9FF900283E02FFF900282E03400EA
:101CDD00FEC006C007900290E0C313FEA3E013FF01
:101CED00900285E02FFD900284E03EFC900290E092
:101CFD00C313FFA3E013900012CFF0A3EFF09002F7
:101D0D008EE0FFA3E0900014CFF0A3EFF0D007D04A
:101D1D000612730890028AE0F9FB7A00900285E0C2
:101D2D002BFD900284E03AFC900290E0C313FEA3D9
:101D3D00E013FFE9F582C3EF9582FFEE940090006A
:101D4D0012F0A3EFF090028C1272F4900290E0C3A7
:101D5D0013FEA3E013FF900285E02FFD900284E0B7
:101D6D003EFC90028AE0F9FB7A00900290E0C313EA
:101D7D00FEA3E013FFE9F582C3EF9582FFEE940019
:101D8D00900012F0A3EFF090028E1272F490028682
:101D9D00E0FEA3E0FF900283E02FFF900282E03E81
:101DAD00FE90028AE0F9FD7C00C3EF9DFFEE9CFEE4
:101DBD00C006C007900285E02DFD900284E03CFC3A
:101DCD00E9FB7A00900290E0C313FEA3E013FFE954
:101DDD00F582C3EF9582FFEE9400900012F0A3EF11
:101DED00F090028CE0FFA3E0900014CFF0A3EFF091
:101DFD00D007D006127308900286E0FEA3E0FF9094
:101E0D000283E02FFF900282E03EFE90028AE0F90D
:101E1D00FB7A00C3EF9BFFEE9AFEC006C00790024F
:101E2D0090E0C313FEA3E013FF900285E02FFD9019
:101E3D000284E03EFC900290E0C313FEA3E013FF8A
:101E4D00E9F582C3EF9582FFEE9400900012F0A3A6
:101E5D00EFF090028EE0FFA3E0900014CFF0A3EF1F
:101E6D00F0D007D00612730802202BE0F975F002AE
:101E7D00A4FFC3900287E09FFB900286E095F0FAE5
:101E8D00C003E9FF900283E02FFF900282E034004F
:101E9D00FE900284E0FCA3E0FD90028CE0FBA3E049
:101EAD00900012CBF0A3EBF0D00312758D90028A47
:101EBD00E0F975F002A4FFC3900287E09FFB90024A
:101ECD0086E095F0FAC002C003E9FF900283E02F8F
:101EDD00FF900282E03400FE900290E0FCA3E0FD52
:101EED00900284E0FAA3E02DFDEA3CCD24FFCD3431
:101EFD00FFFC90028EE0FBA3E0900012CBF0A3EB71
:101F0D00F0D003D00212758D90028AE0FB7A00901A
:101F1D000285E02BFD900284E03AFC900290E0C334
:101F2D0013FEA3E013C39BFBEE9A90028C1270B3C9
:101F3D00900290E0FAA3E0FBEAC313FEEB13FF90CF
:101F4D000285E02FFD900284E03EFCEAC313FEEB18
:101F5D0013FF90028AE0FBC3EF9BFBEE940090020F
:101F6D008E1270B3900286E0FEA3E0FF900283E034
:101F7D002FFF900282E03ECF24FFCF34FFFEC0063C
:101F8D00C00790028AE0FB7A00900285E02BFD905D
:101F9D000284E03AFC900290E0C313FEA3E013C369
:101FAD009BFBEE9AFA90028CE0FFA3E0900012CF1B
:101FBD00F0A3EFF0D007D0061270C8900286E0FEB5
:101FCD00A3E0FF900283E02FFF900282E03ECF243A
:101FDD00FFCF34FFFEC006C007900290E0FAA3E0E9
:101FED00FBEAC313FEEB13FF900285E02FFD900279
:101FFD0084E03EFCEAC313FEEB13FF90028AE0FB84
:10200D00C3EF9BFBEE9400FA90028EE0FFA3E090ED
:10201D000012CFF0A3EFF0D007D0061270C89002D7
:10202D0084E0FCA3E0FD90028AE0F9FF7E009002BF
:10203D0082E0FAA3E02FFBEE3AFAA3E0F8A3E02F3B
:10204D00FFEE389001BBF0A3EFF0E9FF900282E0C4
:10205D00F8A3E02FFFEE389001BDF0A3EFF0E9FFFC
:10206D00900284E0F8A3E02FFFEE389001BFF0A3BB
:10207D00EFF0E9FFA3EEF0A3EFF090028C1250D831
:10208D00900290E0FEA3E0FF900285E02FFF90020A
:10209D0084E03EFE90028AE0F9FB7A00C3EF9BFDDF
:1020AD00EE9AFC900282E0FEA3E02BFBEA3EFA9052
:1020BD000290E0FEA3E0FF900284E0F8A3E02FFF82
:1020CD00E83ECF24FFCF34FF9001BBF0A3EFF0E942
:1020DD00FF7E00900282E0F8A3E02FFFEE38900122
:1020ED00BDF0A3EFF0900290E0FEA3E0FF9002841C
:1020FD00E0F8A3E02FFFE83EFEE9F582C3EF9582FD
:10210D00FFEE9400CF24FFCF34FF9001BFF0A3EF7B
:10211D00F0E9FFA3E4F0A3EFF090028E1250D890F7
:10212D000286E0FEA3E0FF900283E02FFB90028287
:10213D00E03EFA90028AE0F9FFC3EB9FFFEA9400BC
:10214D00FEC006C007900284E0FCA3E0FDE9FF7E1F
:10215D0000900284E0F8A3E02FFFEE389001BBF071
:10216D00A3EFF0900286E0FEA3E0FF900282E0F87C
:10217D00A3E02FFFE83EFEE9F582C3EF9582FFEE67
:10218D009400CF24FFCF34FF9001BDF0A3EFF0E911
:10219D00FF7E00900284E0F8A3E02FFFEE3890015F
:1021AD00BFF0A3EFF0E9FFA3EEF0A3EFF090028CE8
:1021BD00E0FFA3E09001C3CFF0A3EFF090028BE01E
:1021CD009001C5F0D007D0061250F4900286E0FEC3
:1021DD00A3E0FF900283E02FFF900282E03EFE908D
:1021ED00028AE0F9FDC3EF9DFFEE9400FEC006C02C
:1021FD0007900290E0FEA3E0FF900285E02FFF9094
:10220D000284E03EFEC3EF9DFDEE9400FC9002863D
:10221D00E0FEA3E0FF900282E0FAA3E02FFBEA3E8E
:10222D00FA900290E0FEA3E0FF900284E0F8A3E0B4
:10223D002FFFE83ECF24FFCF34FF9001BBF0A3EF7B
:10224D00F0900286E0FEA3E0FF900282E0F8A3E0AA
:10225D002FFFE83EFEE9F582C3EF9582FFEE940075
:10226D00CF24FFCF34FF9001BDF0A3EFF09002908B
:10227D00E0FEA3E0FF900284E0F8A3E02FFFE83E2C
:10228D00FEE9F582C3EF9582FFEE9400CF24FFCFD8
:10229D0034FF9001BFF0A3EFF0E9FFA3E4F0A3EF4B
:1022AD00F090028EE0FFA3E09001C3CFF0A3EFF01A
:0F22BD0090028BE09001C5F0D007D0060250F4DC
:1072F400E0FFA3E0900014CFF0A3EFF0900282E04F
:04730400FEA3E0FF05
:1073080090000CEEF0A3EFF0A3ECF0A3EDF0EB4A45
:107318006063900012E07002A3E0605990000EE0F4
:10732800FCA3E0FDAE02AF0390000CE0FAA3E02F4F
:10733800FFEA3ECF24FFFBEF34FFFA900012E0FE95
:10734800A3E0FF90000EE0F8A3E02FFFE83ECF2473
:10735800FFCF34FF90001CF0A3EFF0900014E0FF83
:10736800A3E090001ECFF0A3EFF090000CE0FEA386
:06737800E0FF126C372259
:102A9A009001CEEEF0A3EFF0A3ECF0A3EDF0A3EAE1
:042AAA00F0A3EBF0BA
:102AAE009001D2E0FEA3E0FF7C027DC3123483E4EA
:102ABE007BE87A03F9F812337AEF2401FFE43EFE45
:102ACE00E43DFDE43CFC9001DA1234469001D2E084
:102ADE00FEA3E0FF9001D2E0FCA3E0FD123483C020
:102AEE0004C005C006C0079001D2E0FEA3E0FFE4DB
:102AFE00FCFD7B02FAF9F812337AD003D002D00132
:102B0E00D000EB2FFFEA3EFEE93DFDE83CFC9001D4
:102B1E00DE1234469001D2E0FAA3E0FBFFAE02E4EF
:102B2E00FCFD9001E2123446C39001CFE09BFF9072
:102B3E0001CEE09AFEC0079001D0E0FCA3E0FD902C
:102B4E0001D3E025E0FB9001D2E033FA9001D4E00E
:102B5E00FFA3E0900012CFF0A3EFF0D00712758D17
:102B6E009001D6123452000000019001DAE0FCA36D
:102B7E00E0FDA3E0FEA3E0FF9001D6E0F8A3E0F9AC
:102B8E00A3E0FAA3E0FBD31234224003022E3990C5
:102B9E0001E2E0FCA3E0FDA3E0FEA3E0FFA804A990
:102BAE0005AA06FB1232EFC004C005C006C007908E
:102BBE0001D6E0FCA3E0FDA3E0FEA3E0FFA804A97C
:102BCE0005AA06FB1232EFD003D002D001D000EFDF
:102BDE002BFFEE3AFEED39FDEC38FC9001DEE0F80D
:102BEE00A3E0F9A3E0FAA3E0FBC3123422400302F0
:102BFE002D429001DAE0FCA3E0FDA3E0FEA3E0FF8E
:102C0E009001E2E0F8A3E0F9A3E0FAA3E0FB1234AE
:102C1E00225003022D209001D6A3A3E0FEA3E0FFD5
:102C2E009001CFE09FFF9001CEE09ECF2401CF34E4
:102C3E0000FEC006C0079001E2A3A3E0FEA3E0FFE2
:102C4E009001D1E02FFD9001D0E03EFCC004C00504
:102C5E009001D6E0FCA3E0FDA3E0FEA3E024FFFF7D
:102C6E00EE34FFFEED34FFFDEC34FFFCE47B02FAA4
:102C7E00F9F81232EFAB07AA069001D4E0FFA3E0F9
:102C8E00900012CFF0A3EFF0D005D004D007D006FD
:102C9E0012758D9001D6A3A3E0FEA3E0FFC39001B1
:102CAE00CFE09FFF9001CEE09ECF2401CF3400FEF7
:102CBE00C006C0079001E2A3A3E0FEA3E0FFC3900D
:102CCE0001D1E09FFD9001D0E09EFCC004C00590B4
:102CDE0001D6E0FCA3E0FDA3E0FEA3E024FFFFEE9F
:102CEE0034FFFEED34FFFDEC34FFFCE47B02FAF919
:102CFE00F81232EFAB07AA069001D4E0FFA3E090E2
:102D0E000012CFF0A3EFF0D005D004D007D00612FA
:102D1E00758D9001E2E0FCA3E0FDA3E0FEA3E024AC
:102D2E00FFFFEE34FFFEED34FFFDEC34FFFC9001AF
:102D3E00E21234469001E2A3A3E0FEA3E0FFC390AB
:102D4E0001CFE09FFF9001CEE09EFEC006C007902F
:102D5E0001D6A3A3E0FEA3E0FF9001D1E02FFD90EA
:102D6E0001D0E03EFCC004C005E47F02FEFDFC90F5
:102D7E0001E2E0F8A3E0F9A3E0FAA3E0FB1232EFE0
:102D8E00AB07AA069001D4E0FFA3E0900012CFF0AB
:102D9E00A3EFF0D005D004D007D00612758D9001A8
:102DAE00E2A3A3E0FEA3E0FFC39001CFE09FFF905C
:102DBE0001CEE09EFEC006C0079001D6A3A3E0FEA2
:102DCE00A3E0FFC39001D1E09FFD9001D0E09EFCF7
:102DDE00C004C005E47F02FEFDFC9001E2E0F8A312
:102DEE00E0F9A3E0FAA3E0FB1232EFAB07AA0690DC
:102DFE0001D4E0FFA3E0900012CFF0A3EFF0D005D6
:102E0E00D004D007D00612758D9001D6E0FCA3E059
:102E1E00FDA3E0FEA3E02401FFE43EFEE43DFDE45D
:0B2E2E003CFC9001D6123446022B78C9
:012E39002276
:106E9E0090029AF0A3EFF0900247E0FEA3E0FF907D
:106EAE000245E0F8A3E02FFFE83E90029CF0A3EF2E
:106EBE00F090024BE0FFA3E090029ECFF0A3EFF024
:086ECE0090023BE0FEA3E0FF8F
